S01900006F70656E626C745F73746D3332663130332E7372656305
S3150800000000500020D5040008BD040008BF040008FD
S31508000010C1040008C3040008C50400080000000065
S31508000020000000000000000000000000C7040008EF
S31508000030C904000800000000CB040008CD0400082D
S315080000401D0500081D0500081D0500081D050008FA
S315080000501D0500081D0500081D0500081D050008EA
S315080000601D0500081D0500081D0500081D050008DA
S315080000701D0500081D0500081D0500081D050008CA
S315080000801D0500081D0500081D0500081D050008BA
S315080000901D0500081D0500081D0500081D050008AA
S315080000A01D0500081D0500081D0500081D0500089A
S315080000B01D0500081D0500081D0500081D0500088A
S315080000C01D0500081D0500081D0500081D0500087A
S315080000D01D0500081D0500081D0500081D0500086A
S315080000E01D0500081D0500081D0500080000000084
S315080000F000000000000000000000000000000000F2
S3110800010000000000000000005FF808F195
S3150800010C10B5054C237833B9044B13B10448AFF337
S3150800011C00800123237010BD100000200000000091
S3150800012C441D000808B5034B1BB103490348AFF33C
S3150800013C008008BD0000000014000020441D0008C3
S3150800014C01F0DABB01F0E7BB08B5054B9B689B04CD
S3150800015C03D500F035F8012008BD0020FCE700BFE8
S3150800016C00100140642000F003B800F007B8000046
S3150800017C014B1880704700BF3400002010B501F001
S3150800018C6BFB0B4C236898420DD30A4B202118782D
S3150800019C094A48B901201870116101F05DFB074B3B
S315080001AC1B880344236010BD002018705161F4E7C6
S315080001BC300000202C0000200008014034000020EC
S315080001CC2022014B5A61704700080140054B82B04A
S315080001DC9A6902439A619B6903400193019B02B099
S315080001EC704700BF00100240234A08B5136823F075
S315080001FC070343F002031360136803F00703022B8B
S3150800020CFAD11E4B1A6842F480221A601A6842F414
S3150800021C80321A601A689103FCD55A6822F47C124B
S3150800022C42F4E8125A601A6842F080721A601A6828
S3150800023C9201FCD55A6822F0F0025A605A6822F4E8
S3150800024CE06242F480625A605A6822F460525A603C
S3150800025C5A6822F0030242F002025A605A6802F007
S3150800026C0C02082AFAD1064800F094FFBDE80840AB
S3150800027C002000F05FB900BF0020024000100240C9
S3150800028C00A24A04002400B58FB000F077F9FFF7F6
S3150800029CABFF1020CDE909440B94FFF797FF2020FC
S315080002ACFFF794FF0420FFF791FF0820FFF78EFF56
S315080002BC202304262E4D07A96B612E4803F184636F
S315080002CC0793089600F004FE42F220020123CDE9BA
S315080002DC0723022307A92846CDE9093400F0F8FDBF
S315080002EC1C2221460DEB020001F0FAFC224B069467
S315080002FCDA69304642F40032DA61DB6940F20441CD
S3150800030C03F400330193019BFFF760FF0923CDE942
S3150800031C0213032302A92846CDE9043400F0D8FDBC
S3150800032C40F6080302A92846CDE9023600F0D0FDAE
S3150800033C4FF46143CDE907340C23CDE90944CDE9E3
S3150800034C0B340D940D4C07A9204600F0D1FE2369F9
S3150800035C23F490432361636923F02A036361E368FA
S3150800036C43F40053E360FFF7EBFEFFF7EBFEFCE705
S3150800037C00080140001001400010024000440040F3
S3150800038C104B82B09A6942F001029A619A6902F09E
S3150800039C01020092009ADA6942F08052DA61DB694E
S315080003AC094A03F080530193019B536823F0E063D9
S315080003BC43F080635360536823F0E063536002B0E4
S315080003CC704700BF001002400000014010B50446FB
S315080003DC86B01022002102A801F082FC22681A4B72
S315080003EC9A422ED103F5D633DA69184842F00072D0
S315080003FCDA61DA6902A902F000720092009A9A6927
S3150800040C42F008029A619B6903F008030193019B69
S3150800041C4FF48073029300F037FC4FF400720223FA
S3150800042CCDE902230323094802A9059300F02CFC05
S3150800043C074A536823F4C04343F0E06343F480430C
S3150800044C536006B010BD00BF00640040000C0140AC
S3150800045C0000014008B500F0C1FD124800F0E8FCA8
S3150800046C114800F0E5FC114BDA6922F00072DA61EA
S3150800047CDA6922F40032DA619A6922F010029A617A
S3150800048C9A6922F008029A619A6922F004029A6122
S3150800049CDA6922F08052DA619A6922F001029A61CD
S315080004AC08BD00BF001001400008014000100240C2
S315080004BC7047FEE7FEE7FEE7FEE7704770477047B2
S315080004CC00F06EB870470000002103E00B4B5B5838
S315080004DC435004310A480B4B42189A42F6D30A4A3F
S315080004EC02E0002342F8043B084B9A42F9D3FFF783
S315080004FCE9FF01F0FDFBFFF7C5FE7047241E000857
S3150800050C0000002010000020100000203C060020EF
S3150800051CFEE7000010B54FF0FF320024044B1A61B9
S3150800052C1C61DA60DC60FFF795FF204610BD00BF42
S3150800053C0010024038B50E4B05461A784FF47A73FC
S3150800054CB3FBF2F30B4A1068B0FBF3F000F062FA57
S3150800055C044658B90F2D09D8024629464FF0FF30E4
S3150800056C00F028FA2046044B1D6038BD0120FCE734
S3150800057C040000200000002008000020074A08B5E7
S3150800058C1368032043F01003136000F001FA0020EF
S3150800059CFFF7D0FFFFF7F4FE002008BD002002404D
S315080005AC034A044B11681B780B441360704700BF51
S315080005BC380000200400002038B5044600286ED008
S315080005CC90F820300BB9FFF701FF2268136843F047
S315080005DC0103136001F048F9054623685A68D107E8
S315080005EC51D51A6822F002021A6001F03DF9054647
S315080005FC23685A68920754D4227E0020012A1A6866
S3150800060C0CBF42F0800222F080021A60627E012A38
S3150800061C1A680CBF42F0400222F040021A60A27E11
S3150800062C012A1A680CBF42F0200222F020021A6036
S3150800063CE27E012A1A680CBF22F0100242F0100260
S3150800064C1A60227F012A1A680CBF42F0080222F0AF
S3150800065C08021A60627F012A1A680CBF42F004026B
S3150800066C22F004021A60D4E902210A4321690A43DA
S3150800067C61690A43616801390A43DA6101236062D8
S3150800068C84F820300CE001F0EFF8401B0A28A4D9B6
S3150800069C636A43F400336362052384F8203001202F
S315080006AC38BD01F0E1F8401B0A28A1D9F0E770B56E
S315080006BC90F820200368013A012A62D80120D3F861
S315080006CC002242F00102C3F800224A69D3F81C52F0
S315080006DC02F01F04A04025EA0005C3F81C52CD6998
S315080006ECC44395BBD3F80C52CE682540C3F80C52BC
S315080006FC8D8803EBC20245EA0645C2F840528E685D
S3150800070C0D8845EA0645C2F844528A697ABBD3F87D
S3150800071C04222240C3F804220A6962BBD3F81422C5
S3150800072C1440C3F814420A6A012A04BFD3F81C22DF
S3150800073C02434FF0000008BFC3F81C22D3F800226E
S3150800074C22F00102C3F8002270BD012DDDD1D3F8C9
S3150800075C0C520E680543C3F80C528D8803EBC20283
S3150800076C45EA0645C2F840528E688D89C9E7D3F822
S3150800077C04220243CEE7D3F814220243C3F8142208
S3150800078CD1E7436A43F4802343620120DCE738B59A
S3150800079C90F820300446012B1FD10223026880F8FA
S315080007AC2030136823F00103136001F05DF8054649
S315080007BC2368586810F0010001D1606238BD01F059
S315080007CC53F8401B0A28F3D9636A43F4003363626F
S315080007DC052384F820300120F0E7436A43F400230C
S315080007EC4362F8E7F0B590F820500468013D012DF6
S315080007FCA6683CD816F0E05F33D00125C6F3016035
S3150800080C85401D60D1E9025700F1180315BB0D6828
S3150800081C1B0147EA4557E75004EB00130501002076
S3150800082C0E692C44C3F88461097D012902BFD3F8EB
S3150800083C841141F48071C3F884115168C4F88C1181
S3150800084C1268C4F88821D3F8802142F00102C3F853
S3150800085C8021F0BD4E683D4345EAC6051B01E550AF
S3150800086CDAE7436A43F4001343620120F1E7436A6B
S3150800087C43F48023F8E790F82030013B012B09D884
S3150800088C03689B6803EA8163B3EB816F14BF01208D
S3150800089C0020704700207047F0B590F82040013CC6
S315080008AC012C71D8066841B9F468A40707D1436AC4
S315080008BC43F4001343620120F0BD3469F5E706EBF7
S315080008CC0115D5F8B0710C0107F004079760002FD5
S315080008DC50D1D5F8B0717F0D1760D5F8B071264494
S315080008EC07F00207D760D5F8B4713F074EBF082743
S315080008FCD5F8B47107F00F071761D5F8B471D5F8A8
S3150800090CB451C7F307272D0C97615561D6F8B82152
S3150800091C1A7002682244D2F8B821120A5A70026870
S3150800092C2244D2F8B821120C9A7002682244D2F8E2
S3150800093CB821120EDA7002682244D2F8BC211A7158
S3150800094C02682244D2F8BC21120A5A71026822445F
S3150800095CD2F8BC21120C9A7102682244D2F8BC2136
S3150800096C120EDA71036851B9DA6842F02002DA60BD
S3150800097C0020A1E7D5F8B071FF085760ADE71A69F2
S3150800098C42F020021A61F3E7436A43F4802391E7A5
S3150800099C07490302CA6803F4E06322F4E06212040E
S315080009AC120C134343F0BF6343F40033CB60704718
S315080009BC00ED00E0154B30B5DC68C4F30224C4F135
S315080009CC0703251D042B28BF0423062D4FF0FF35DE
S315080009DC94BF0024033C05FA03F321EA0303A5405C
S315080009EC22EA0502A340002843EA0203ACBF00F141
S315080009FC6040074A4FEA0313DBB2ABBF00F5614010
S31508000A0C00F00F0080F80033135430BD00ED00E001
S31508000A1C14ED00E00138B0F1807F0BD24FF0E023E3
S31508000A2CF021054A586182F82310002007229861A4
S31508000A3C1A6170470120704700ED00E0114AD3682F
S31508000A4C13F0100305D01049CB6943F00203CB61B0
S31508000A5C1023D268500706D50B4943F00403CA691C
S31508000A6C42F00102CA61074AD169C90708D5064886
S31508000A7CC16941F00401C161D16921F00101D1615B
S31508000A8CD36070470020024040000020064B1869CE
S31508000A9C10F0800007D0054A5A6002F188325A6075
S31508000AAC1869C0F3C010704700200240230167453F
S31508000ABC034A0020136943F080031361704700BF93
S31508000ACC0020024070B5054600F0CEFE0646114CD5
S31508000ADCE368D80712D4E368990644BF2023E36079
S31508000AECE368DA0606D4E369DB0703D4E06810F09A
S31508000AFC040007D0FFF7A2FF012003E06B1CE7D028
S31508000B0C0DB9032070BD00F0AFFE801BA842DFD9DB
S31508000B1CF7E700BF002002402DE9F84FDFF894A054
S31508000B2C1F469AF818300546012B884691463FD041
S31508000B3C01234CF250308AF81830FFF7C3FF90BBEC
S31508000B4C012D03D0022D14BF042502250026334699
S31508000B5CDFF864B03401C4F12001A4F1200207FACD
S31508000B6C01F129FA04F4CAF81C300C4327FA02F2EC
S31508000B7C1443DBF81020A4B242F00102CBF8102083
S31508000B8C4CF2503028F81640FFF79CFFDBF8102083
S31508000B9C22F00102CBF8102028B90136F2B29542A0
S31508000BAC4FF00003D6D800238AF81830BDE8F88F22
S31508000BBC0220FBE740000020002002400022064BE2
S31508000BCCDA61064B1A6942F002021A6158611A690F
S31508000BDC42F040021A617047400000200020024093
S31508000BEC2DE9F041264F05463B7E8846012B44D01D
S31508000BFC01243C7603684CF25030022B1AD1FFF7CD
S31508000C0C61FF20B1012000233B76BDE8F0811D4C25
S31508000C1CF86123694CF2503043F0040323612369CD
S31508000C2C43F040032361FFF74DFF236923F00403C8
S31508000C3C2361E8E7FFF746FF0028E3D14FF0FF33BF
S31508000C4CC8F800302046AE680E4CD5E9023203EBE4
S31508000C5C8223B342D7D93046FFF7B0FF4CF2503057
S31508000C6CFFF730FF236923F00203236110B1C8F89C
S31508000C7C0060C8E706F58066E7E70220C5E700BF0F
S31508000C8C40000020002002402DE9F74F00244FF0C9
S31508000C9C0F0E2646DFF884C1614B00F104080A687A
S31508000CAC32FA06F502D103B0BDE8F08F012505FA34
S31508000CBC06F702EA070537EA020276D14A68032ADA
S31508000CCC07D8013A022A00F28380DFE802F09196EF
S31508000CDC9C00122A00F0948069D8112A00F08A80A8
S31508000CECFF2D94BF8146C1464FEA8602D9F800709B
S31508000CFC88BF203A0EFA02FA27EA0A0704FA02F221
S31508000D0C1743C9F80070D1F8049019F0805F4CD0DD
S31508000D1CDCF8182026F0030742F00102CCF818205C
S31508000D2CDCF8182007F1804702F00102019207F55A
S31508000D3C803706F0030A019A4FEA8A0ABA680EFA4D
S31508000D4C0AFB22EA0B0B374A904260D002F5806206
S31508000D5C90425ED002F5806290425CD002F58062C9
S31508000D6C904214BF0422032202FA0AF242EA0B0248
S31508000D7CBA609A6819F4801F14BF2A43AA439A606A
S31508000D8CDA6819F4001F14BF2A43AA43DA605A68B2
S31508000D9C19F4003F14BF2A43AA435A601A6819F477
S31508000DAC803F14BF2A43AA431A60013677E7DFF857
S31508000DBC78904A450CD014D8A9F580194A4507D01D
S31508000DCC09F570294A4503D0A9F580194A4587D1F2
S31508000DDC8A68D2B1012A4FF008040CBF0761476133
S31508000DEC7EE7DFF848904A45F2D009F58039EDE7F9
S31508000DFCCC6875E7CC68043472E7CC6808346FE7BE
S31508000E0CCC680C346CE700246AE7042468E70022F3
S31508000E1CAAE70122A8E70222A6E700BF00100240B3
S31508000E2C00040140000801400000221000003110A7
S31508000E3C224B98420BD103F58433DA6842F004024C
S31508000E4CDA60DA6822F004020020DA6070471C4B7C
S31508000E5C984209D103F58233DA6842F00802DA605F
S31508000E6CDA6822F00802EFE7164B984209D103F527
S31508000E7C8033DA6842F01002DA60DA6822F010027F
S31508000E8CE2E7114B984209D103F57C43DA6842F044
S31508000E9C2002DA60DA6822F02002D5E70B4B98427A
S31508000EAC09D103F57843DA6842F04002DA60DA6869
S31508000EBC22F04002C8E70120704700BF0008014035
S31508000ECC000C0140001001400014014000180140BC
S31508000EDC2DE9F04F0D680446C5F30F2595FAA5F2D2
S31508000EEC0326B2FA82F204274FF0011C40F2011EC7
S31508000EFC35FA02F001D1BDE8F08F012393402B425D
S31508000F0C6AD0072A88BFA2F10803D1F804A08ABFC1
S31508000F1C0CFA03F30EFA02F343F08063BAF1080FE6
S31508000F2C0ED1E0684FEA132898FAA8F9B9FA89F9A4
S31508000F3C20EA0808086900FA09F048EA0000E060A7
S31508000F4C4FEA136893FAA3F9B9FA89F993FAA3FB4A
S31508000F5C0F20BBFA8BFB4FEA890900FA09F954F8FA
S31508000F6C08004FEA8B0B20EA09090AFA0BFA49EA38
S31508000F7C0A0A44F808A0486820F0080001282BD172
S31508000F8C93FAA3F9B9FA89F993FAA3F0B0FA80F0AF
S31508000F9C4FEA890906FA09F92AEA09094FEA800A81
S31508000FAC886800FA0AF049EA000044F8080093FA3F
S31508000FBCA3F9B9FA89F993FAA3F3B3FA83F34FEAC7
S31508000FCC890907FA09F920EA0909C8689B009840B3
S31508000FDC49EA000044F80800013289E7144B1A68FC
S31508000FEC42F001021A601A689207FCD55A6822F078
S31508000FFC03025A605A6812F00C0FFBD11A6822F0D9
S3150800100C80721A60186810F00070FBD158601A6864
S3150800101C22F450221A601A6822F0F80242F0800272
S3150800102C1A6098605A6A42F080725A62704700BF1A
S3150800103C00100240034B044A5B68C3F30313D35CEA
S3150800104CD840704700100240641D0008034B044A40
S3150800105C5B68C3F30223D35CD84070470010024088
S3150800106C5C1D0008034B044A5B68C3F3C223D35CBC
S3150800107CD8407047001002405C1D0008094A5368A6
S3150800108CDB0341BF53680848C3F34043013348BFE9
S3150800109CB0FBF3F0536858BF0448C3F383430233D9
S315080010AC584370470010024000127A0000093D00B0
S315080010BC044B5B6803F00C03082B01D1FFF7DEBF6A
S315080010CC014870470010024000127A0010B501461C
S315080010DCFFF7EEFF0860FFF7ADFF48600446FFF721
S315080010ECB5FF88602046FFF7BDFFC86010BD00003D
S315080010FC30B5C36804469B040D4685B002D501205D
S3150800110C05B030BD4B68C968C2680B43296922F41F
S3150800111CB0520B4322F00C021343C3600369AA684E
S3150800112C23F440531343036143696A6923F44073F8
S3150800113C134343616846FFF7C9FF134B9C4219D109
S3150800114C039B002BDBD02A68002AD8D019214B43E5
S3150800115C9200B3FBF2F36422B3FBF2F102FB1133F8
S3150800116C1B013233B3FBF2F303EB01139BB20020E2
S3150800117CA360C5E7054B9C4201D1029BE1E7044BF2
S3150800118C9C42BCD1F9E700BF00380140004400403E
S3150800119C00480040014B1860704700BF0000002053
S315080011AC72B6704762B67047F0B58BB06846FFF7F3
S315080011BC8DFF4FF47A730020029D0646B5FBF3F5B6
S315080011CC4FF4FA77244C22786378D11801FB07710F
S315080011DCB5FBF1FC01FB1C5129B91FFA8CF6711EE3
S315080011ECB1F5806F0AD30130122804F10204EAD152
S315080011FCB4211A4800F040FB00231A46184C19492A
S3150800120C002521604FF08071013A013B12041B0541
S3150800121C2046A161226163616660C4E90255A58313
S3150800122CFFF7CAF901234CF6E0420793CDE90025EE
S3150800123C089304220E234FF6E07669462046CDE93C
S3150800124C02620993CDE905550495FFF730FA204655
S3150800125CFFF79DFA0BB0F0BDEE1D0008741D0008D3
S3150800126C600000200064004040F2E17330B589B09C
S3150800127C029300230246CDE9043306910B4801ABD1
S3150800128C02A9FFF7AFFA78B900F0E6FA074D00F1B4
S3150800129C320428460199FFF7EEFA28B100F0ADFBA7
S315080012AC00F0DAFAA042F4D909B030BD600000208B
S315080012BC10B588B003460C460948002101AAFFF769
S315080012CCEBFA58B940F26763019A9A4204D1039B28
S315080012DC13B90120059B237008B010BD0020FBE74D
S315080012EC60000020FFF75CBF10B500F08DF9C8B19F
S315080012FCFEF72AFFB0B100F04FFBFFF70BF900F031
S3150800130C73FA00F083F9084B20F0604020F07F0058
S3150800131C986000F07BF94468FFF744FF2346BDE864
S3150800132C1040184710BD00BF00ED00E0F8B50646A2
S3150800133C0F4615460024AC4200D1F8BD3B5D33552B
S3150800134C00F05BFB0134F6E72DE9F8430646002569
S3150800135CFFF79CFB06F10409D6F8008059F80570CE
S3150800136C05EB080400F049FB21463A460023022007
S3150800137CFFF7D2FB044668B955F80830BB4204D1CE
S3150800138C0435B5F5007FE7D10124FFF791FB20461C
S3150800139CBDE8F8830024F8E738B5104B04469842A4
S315080013AC0D4608D00E4A914216D0FFF7CDFF18B954
S315080013BC0024204638BD0B4CC5F30803002BF7D187
S315080013CC23689D42F5D020464FF40072294640F812
S315080013DC045BFFF7ABFFECE71C46F1E7880000203F
S315080013EC002000088C0200202DE9F0411F460368F6
S315080013FC21F4FF78013304460D46164628F00108F9
S3150800140C06D14FF40072414640F8048BFFF78EFF65
S3150800141C2368434505D020464146FFF7BDFF0446E1
S3150800142CE8B123680435ED1A2544374400F0E5FA8B
S3150800143C231DEB1AB3F5007F08D32168204601F566
S3150800144C0071FFF7A9FF044648B1051D16F8013BC4
S3150800145CBE4205F8013BE9D10120BDE8F081002028
S3150800146CFBE700004FF0FF33024A1360024A136091
S3150800147C704700BF8C0200208800002030B40E4D47
S3150800148C4C1E0B46291A8C4212D80C4CA0420FD370
S3150800149C411E1944A9420BD820F4FF7121F0010111
S315080014ACA142014630BC0CBF05480648FFF79CBF55
S315080014BC002030BC704700BFFFFF01080020000861
S315080014CC880000208C02002030B500241C4D4A1ED2
S315080014DC2B1A87B09A42019420D81A4A20F47F73A3
S315080014EC23F00303934219D3421E0A44AA4215D881
S315080014FC0144C91AC1F38F25C1F3090109B1013594
S3150800150CADB200240493012302940593FFF7BEFAA7
S3150800151CA3B29D4205D80124FFF7CAFA204607B0A4
S3150800152C30BD00F06AFA01A902A8FFF759FB01348D
S3150800153C20B9049B03F580630493E9E70024EBE7E1
S3150800154CFFFF01080020000807B50F4803680133A0
S3150800155C17D0D0E901321344C2680C491344026906
S3150800156C13444269134482691344C26913445B42A7
S3150800157C019304230DEB0302FFF736FF03B05DF866
S3150800158C04FB0120FAE700BF880000200C210008A4
S3150800159C0A4AD2E900310B4491680B44D1680B44D2
S315080015AC11690B4451690B449169D2F80C210B440F
S315080015BCD3420CBF01200020704700BF0020000852
S315080015CC0A4808B50368013305D10948036801338D
S315080015DC06D1012008BDFFF7B7FE0028F5D1F9E7BB
S315080015ECFFF7B2FE003818BF0120F3E78800002089
S315080015FC8C0200200048704700200008FFF732BF15
S3150800160CFFF73CBFFFF760BFFFF7C2BFFFF7F2BF9C
S3150800161C08B5FFF799FF18B1BDE80840FFF7D0BF2A
S3150800162C08BD000038B5084D686000F015F900F1E2
S3150800163C0A042B681B0605D400F0DFF900F00CF938
S3150800164CA042F6D938BD00BF0044004010B5114C75
S3150800165C88B0E3684FF4614223F40053E360002337
S3150800166CCDE901230C22204601A9CDE90333CDE9A6
S3150800167C05230793FFF73CFD236923F49043236165
S3150800168C636923F02A036361E36843F40053E36058
S3150800169C08B010BD00440040812938B504460D46F3
S315080016AC03D97321084800F0E7F82846FFF7BAFF74
S315080016BC2544AC4200D138BD00F09FF914F8010B53
S315080016CCFFF7B0FFF5E700BFB01D00082DE9F041A4
S315080016DC204C0F462578204EADB933689B060FD59E
S315080016EC73681E4ADBB21370013BDBB2802B07D83A
S315080016FC00F0B2F81A4B18601A4B1D7001232370B0
S3150800170C0020BDE8F0813568DFF8588015F0200513
S3150800171C98F8003014D011497568CA1855700133F9
S3150800172C0A78DBB29A4288F80030E9D10131FFF722
S3150800173CFDFD0023237098F8003001203B70E0E78C
S3150800174C00F08AF8064B1B68C8339842D8D925701E
S3150800175CD6E700BF1C050020004400409804002072
S3150800176C9404002090040020184B82B09A6901203A
S3150800177C42F400629A619A69154902F40062019270
S3150800178C019A5A685B68C2F3C22213F4605F14BFED
S3150800179C022301238A5C0F490968D1404B430E4941
S315080017AC0E4AB3FBF1F310604FF6FF700021013BB4
S315080017BCD0629362536943F001035361084B526A32
S315080017CC1960084B1A8002B0704700BF001002401F
S315080017DC5C1D000800000020A0860100002C0140BA
S315080017EC200500201E0500200B4BDA6842F4006227
S315080017FCDA60DA6822F40062DA609A6922F4006226
S3150800180C9A614FF0E02300221A615A619A614FF0EF
S3150800181C0072C3F8042D7047001002400B4B0C489D
S3150800182C5B6A028810B59B1A9BB2632B0DD964218F
S3150800183CB3FBF1F3074C2168194403EB830303EB61
S3150800184C830302EB83022160028010BD002C014049
S3150800185C1E0500202005002008B5FFF7DFFF014B09
S3150800186C186808BD2005002008B5FFF7D7FF014BFF
S3150800187C186808BD2005002008B500F0BEF8FCE77E
S3150800188C10B500F0B1F8012814D00B4C2378012BB5
S3150800189C10D1FFF7E1FF094B094A1B68126813447C
S315080018AC03F5FA73984205D300232370BDE810405C
S315080018BCFFF71ABD10BD00BF2C050020240500201B
S315080018CC2805002008B5044B1B78012B03D1FFF71C
S315080018DCC3FF024B186008BD2C0500202805002004
S315080018EC012208B5034B1A70FFF7ECFFBDE8084058
S315080018FCFFF7C6BF2C05002008B5FFF7F3FC00F070
S3150800190C7AF8FFF731FFFFF779FE00F00FF8BDE81C
S3150800191C0840FFF7E5BF08B500F06FF8FFF77EFF44
S3150800192C00F014F8BDE80840FFF7AABF10B500F0A0
S3150800193C73F8FFF739FC0223034C2370FFF786FE76
S3150800194C0023237010BD00BF0C00002007B51048FB
S3150800195C0DF10701FFF7ACFC012807D102220D4B4C
S3150800196C9DF807100A481A7000F078F808480DF127
S3150800197C0701FFF7ABFE012807D10022054B9DF89E
S3150800198C071003481A7000F069F803B05DF804FBF9
S3150800199C2D0500200C0000207047000070B5094E7C
S315080019AC054633780C46022B02D1C9B2FFF75CFC0C
S315080019BC33781BB92846E1B2FFF76EFEBDE87040D6
S315080019CC00F044B80C000020054B1B78022B04D001
S315080019DC032B0CBF3F20812070470820704700BF9F
S315080019EC0C000020FFF7F0BF08B500F025F800380A
S315080019FC18BF012008BDFEF7B5BBFEF7B6BB000045
S31508001A0CFE22034B1A7002225870A3F886207047E0
S31508001A1CB0050020006870470022064BC3F88820E2
S31508001A2CA3F8862083F88120A3F8822083F88420E3
S31508001A3C704700BFB0050020034B93F881000038AF
S31508001A4C18BF0120704700BFB00500200022024BCA
S31508001A5C83F88420704700BFB0050020F8B50378DA
S31508001A6C0546FF2B9B4C30D10122002384F881209C
S31508001A7C41F2FF0284F88230A3702280FFF7A4FF9C
S31508001A8CE070FFF7AFFF2071FFF7ACFF40F20113D0
S31508001A9CE3800823000A6071A4F88630FFF7AEFDD0
S31508001AAC94F88430012B02D11020FFF7A9FFB4F962
S31508001ABC8610002940F30D81012384F8843085486B
S31508001ACC89B2BDE8F840FFF769BF94F88120012A6E
S31508001ADC40F0FF80D22B1DD8C82B01D8202043E01C
S31508001AECC93B092BFAD801A252F823F0391C000875
S31508001AFCE91A0008E91A00084D1C0008E91A00083A
S31508001B0CE91A0008D91C0008671C0008C11C000843
S31508001B1CAB1C000803F10D02D2B20B2ADED8F33B3C
S31508001B2C0B2BDBD801A252F823F000BFCB1B000805
S31508001B3C9F1B0008691B0008B91B0008E91A000856
S31508001B4CE91A0008E91A0008011C0008E91A000835
S31508001B5C111C0008151C0008291C0008FFF734FF87
S31508001B6C6A78904203D82220FFF74AFF98E7D4F800
S31508001B7C88105948FFF7DAFBFF236A782370D4F8E4
S31508001B8C88301344C4F888306B780133A4F886304F
S31508001B9C86E7FFF719FF6B788342E4D2281DFFF717
S31508001BAC39FFC4F8880001466A78E2E7FF23281D46
S31508001BBC2370FFF72FFFC4F888000123E6E7FF23FD
S31508001BCC281D2370FFF726FF0025D4F8886087198F
S31508001BDCBE4208D10023012225716371E38062702D
S31508001BEC63800823D2E716F8013B1D44EDB2FFF7D4
S31508001BFC04FFEDE7394BFF22C4F888300723C4E904
S31508001C0C0023EEE70020AFE7FF23238094F8823009
S31508001C1CA3700023E370A3800623B7E7002384F898
S31508001C2C813084F88230FF232370C6E7D4F88860A5
S31508001C3CFFF7CAFE6A1C411E3046FFF7E1FC08B9DD
S31508001C4C312091E7FF232370FFF7BEFED4F88830C6
S31508001C5C01380344C4F88830AFE7FFF7B5FE6B7854
S31508001C6C013898427FF77FAFFF2323700123A4F82E
S31508001C7C8630697829B9FFF7CBFC00287FF410AFBA
S31508001C8CDEE7D4F88800AA1CFFF7BAFC0028D7D0E0
S31508001C9C6A78D4F888301344C4F8883000E7FF23F0
S31508001CAC00252380A570FFF78FFE0723E070A5801B
S31508001CBCA5716BE70430FFF7ADFED4F88830014602
S31508001CCC1846FFF79FFC0028ADD1B9E7FFF70CFBC8
S31508001CDCA9E7F8BDB0050020B1050020121E0008C2
S31508001CEC03460244934200D1704703F8011BF9E7F7
S31508001CFC70B500260C4D0D4C641BA410A64209D1D8
S31508001D0C00F01AF800260A4D0A4C641BA410A642C9
S31508001D1C05D170BD55F8043B98470136EEE755F8E2
S31508001D2C043B98470136F2E71C1E00081C1E0008E7
S31508001D3C1C1E0008201E0008F8B500BFF8BC08BC1D
S31508001D4C9E467047F8B500BFF8BC08BC9E4670475F
S31508001D5C000000000102030400000000000000005F
S31508001D6C0102030406070809433A2F576F726B2FB3
S31508001D7C736F6674776172652F4F70656E424C543B
S31508001D8C2F5461726765742F536F757263652F4193
S31508001D9C524D434D335F53544D333246312F6361A5
S31508001DAC6E2E6300433A2F576F726B2F736F6674E0
S31508001DBC776172652F4F70656E424C542F54617261
S31508001DCC6765742F536F757263652F41524D434D7A
S31508001DDC335F53544D333246312F72733233322EAE
S31508001DEC6300050206020603070308030903090430
S31508001DFC0A040B040C040C050D050E050F050F063D
S31508001E0C1006100710084F70656E424C54000000FF
S30908001E1C310100087A
S30908001E200D0100089A
S31508001E240024F40001000000100000000500000072
S705080004D519
