S01E000062696E2F64656D6F70726F675F73746D3332663230372E737265632A
S31508008000000002203D8200088B8200088D8200084D
S315080080108F82000891820008938200080000000001
S315080080200000000000000000000000009582000823
S31508008030978200080000000099820008B59600089B
S315080080409F820008A1820008A3820008A582000872
S31508008050A7820008A9820008AB820008AD82000842
S31508008060AF820008B1820008B3820008B582000812
S31508008070B7820008B9820008BB820008BD820008E2
S31508008080BF820008C1820008C3820008C5820008B2
S31508008090C7820008C9820008CB820008CD82000882
S315080080A0CF820008D1820008D3820008D582000852
S315080080B0D7820008D9820008DB820008DD82000822
S315080080C0DF820008E1820008E3820008E5820008F2
S315080080D0E7820008E9820008EB820008ED820008C2
S315080080E0EF820008F1820008F3820008F582000892
S315080080F0F7820008F9820008FB820008FD82000862
S31508008100FF8200080183000803830008058300082E
S3150800811007830008098300080B8300080D830008FD
S315080081200F830008118300081383000815830008CD
S3150800813017830008198300081B8300081D8300089D
S315080081401F8300082183000823830008258300086D
S3150800815027830008298300082B8300082D8300083D
S315080081602F8300083183000833830008358300080D
S3150800817037830008398300083B8300083D830008DD
S315080081803F830008EE11AA5510B5054C237833B97C
S31508008190044B13B10448AFF300800123237010BDCC
S315080081A06C00002000000000349F000808B5034B4F
S315080081B01BB103490348AFF3008008BD0000000067
S315080081C070000020349F0008154B002B08BF134B86
S315080081D09D46A3F5803A00218B460F461348144A5C
S315080081E0121A01F073FE0F4B002B00D098470E4B66
S315080081F0002B00D098470020002104000D000D48F0
S31508008200002802D00C48AFF3008001F03BFE2000A6
S31508008210290001F0C6FA01F021FE00BF000008009F
S315080082200000022000000000000000006C00002092
S3150800823084010020000000000000000007498D4668
S315080082400749084A084B9A42BEBF51F8040B42F840
S31508008250040BF8E705488047054800470000022058
S31508008260409F0008000000206C0000203D96000892
S31508008270C98100083249334A002301E041F8043B2A
S315080082809142FBD301F08DFAFEE7FEE7FEE7FEE733
S31508008290FEE7FEE7FEE7FEE7FEE7FEE7FEE7FEE7A8
S315080082A0FEE7FEE7FEE7FEE7FEE7FEE7FEE7FEE798
S315080082B0FEE7FEE7FEE7FEE7FEE7FEE7FEE7FEE788
S315080082C0FEE7FEE7FEE7FEE7FEE7FEE7FEE7FEE778
S315080082D0FEE7FEE7FEE7FEE7FEE7FEE7FEE7FEE768
S315080082E0FEE7FEE7FEE7FEE7FEE7FEE7FEE7FEE758
S315080082F0FEE7FEE7FEE7FEE7FEE7FEE7FEE7FEE748
S31508008300FEE7FEE7FEE7FEE7FEE7FEE7FEE7FEE737
S31508008310FEE7FEE7FEE7FEE7FEE7FEE7FEE7FEE727
S31508008320FEE7FEE7FEE7FEE7FEE7FEE7FEE7FEE717
S31508008330FEE7FEE7FEE7FEE7FEE7FEE7FEE7FEE707
S315080083406C0000208401002000230F2B00F2DC8043
S31508008350F0B482B039E0082200E00022B2403A4385
S3150800836002356A4E46F82520694A1568E24302EA4C
S3150800837005064F6817F4803F01D044EA0506644DA8
S315080083802E606D6802EA05064F6817F4003F01D0B3
S3150800839044EA05065E4D6E60AD6802EA05064F685A
S315080083A017F4801F01D044EA0506594DAE60ED6802
S315080083B02A404E6816F4001F01D044EA0502544CC0
S315080083C0E26001330F2B00F29C8001229A400C6870
S315080083D01440A242F5D14D68022D01D0122D10D1BC
S315080083E0DE08083650F826C003F00705AF000F254B
S315080083F0BD402CEA050C0D69BD4045EA0C0540F860
S31508008400265006685F000325BD40ED4305EA060CC5
S315080084104E6806F00306BE4046EA0C0606604E683D
S3150800842006F1FF3CBCF1010F03D9112E01D0122E23
S3150800843010D1866805EA060CCE68BE4046EA0C06E8
S315080084408660466826EA02024E68C6F300169E4013
S3150800845016434660C26815408A68BA402A43C26015
S315080084604A6812F0805FACD000220192294A556C06
S3150800847045F480455564526C02F480420192019A93
S315080084809D08AE1C214A52F8267003F00302960096
S315080084900F22B24027EA02071F4A90423FF45DAF17
S315080084A002F5806290421ED002F5806290421CD08E
S315080084B002F5806290421AD002F58062904218D086
S315080084C002F58062904216D002F58062904214D07E
S315080084D002F58062904212D002F5806290423FF423
S315080084E03AAF09223AE7012238E7022236E70322A1
S315080084F034E7042232E7052230E706222EE7072270
S315080085002CE702B0F0BC7047704700BF0038014046
S31508008510003C014000380240000002400AB1816177
S3150800852070470904816170472DE9F84304460168DC
S315080085300A6922F44052C36813430B610168CA688A
S3150800854022F4164222F00C0283680069034360692C
S315080085500343E06903431343CB6021684A6922F465
S315080085604072A36913434B61E369B3F5004F60D0CA
S315080085702368B84A934200F0148102F58062934258
S3150800858000F00F8100F0BCFF00EB800000EB8000DC
S315080085906568AD00B0FBF5F5AF4FA7FB05356D096E
S315080085A02E0100F0ADFF00EB800000EB800065684F
S315080085B0AD00B0FBF5F900F0A3FF00EB800000EB7F
S315080085C080006568AD00B0FBF5F5A7FB05356D09BC
S315080085D04FF0640808FB15952D013235A7FB0535C4
S315080085E06D0905F0F005354400F08AFF00EB8000C0
S315080085F000EB80006668B600B0FBF6F600F080FF78
S3150800860000EB800000EB800063689B00B0FBF3F092
S31508008610A7FB0030400908FB10684FEA081808F164
S315080086203208A7FB0837C7F3431723682F449F6010
S315080086300DE12368874A93425BD002F58062934234
S3150800864057D000F05DFF00EB800000EB8000656806
S315080086506D00B0FBF5F5804FA7FB05356D092E01BA
S3150800866000F04EFF00EB800000EB800065686D00AF
S31508008670B0FBF5F900F044FF00EB800000EB80004A
S3150800868065686D00B0FBF5F5A7FB05356D094FF07C
S31508008690640808FB1595ED003235A7FB05356D090D
S315080086A06D0005F4F875354400F02AFF00EB8000EC
S315080086B000EB800066687600B0FBF6F600F020FF57
S315080086C000EB800000EB800063685B00B0FBF3F30F
S315080086D0A7FB03235B0908FB13684FEAC80808F1E0
S315080086E03208A7FB0837C7F3421723682F449F6051
S315080086F0ADE000F01BFF00EB800000EB8000656832
S315080087006D00B0FBF5F5544FA7FB05356D092E0135
S3150800871000F00CFF00EB800000EB800065686D0040
S31508008720B0FBF5F900F002FF00EB800000EB8000DB
S3150800873065686D00B0FBF5F5A7FB05356D094FF0CB
S31508008740640808FB1595ED003235A7FB05356D095C
S315080087506D0005F4F875354400F0E8FE00EB80007E
S3150800876000EB800066687600B0FBF6F600F0DEFEE9
S3150800877000EB800000EB800063685B00B0FBF3F35E
S31508008780A7FB03235B0908FB13684FEAC80808F12F
S315080087903208A7FB0837C7F3421723682F449F60A0
S315080087A055E000F0C3FE00EB800000EB8000656832
S315080087B0AD00B0FBF5F5284FA7FB05356D092E0171
S315080087C000F0B4FE00EB800000EB80006568AD00A9
S315080087D0B0FBF5F900F0AAFE00EB800000EB800084
S315080087E06568AD00B0FBF5F5A7FB05356D094FF0DB
S315080087F0640808FB15952D013235A7FB05356D096B
S3150800880005F0F005354400F091FE00EB800000EB22
S3150800881080006668B600B0FBF6F600F087FE00EB4F
S31508008820800000EB800063689B00B0FBF3F0A7FBB9
S315080088300030400908FB10684FEA081808F13208AA
S31508008840A7FB0837C7F3431723682F449F60BDE883
S31508008850F88300BF001001401F85EB512DE9F04158
S3150800886005460F4616469846069C2B681B6837EA47
S3150800887003030CBF01230023B3421DD1B4F1FF3F0C
S31508008880F3D02CB100F084FBA0EB0800A042ECD991
S315080088902A68D36823F4D073D3602A68536923F00F
S315080088A001035361202385F8393085F83A300023CF
S315080088B085F83830032000E00020BDE8F0817047D5
S315080088C058B310B5044690F839300BB3242384F80E
S315080088D039302268D36823F40053D3602046FFF763
S315080088E023FE2268136923F49043136122685369AF
S315080088F023F02A0353612268D36843F40053D360F4
S315080089000020E063202384F8393084F83A3010BD1B
S3150800891080F83830FFF7D3FFD8E7012070472DE9F4
S31508008920F04182B01E4690F83A30DBB2202B5AD17D
S3150800893004460D469046002959D0002A59D090F889
S315080089403830012B57D0012380F838300023C36311
S31508008950222380F83A3000F01BFB0746A4F82C8047
S31508008960A4F82E801DE000963B46002220212046D2
S31508008970FFF774FF002840D1236933B923685B6881
S31508008980C3F3080325F8023B0BE023685B68DBB2F8
S3150800899025F8013B05E023685B6803F07F0305F8CB
S315080089A0013BE38D9BB2BBB1E38D013B9BB2E385F3
S315080089B0A368B3F5805FD6D000963B4600222021F7
S315080089C02046FFF74BFFD0B92369002BE3D1236874
S315080089D05B6805F8013BE4E7202384F83A30002079
S315080089E084F8380000E0022002B0BDE8F0810120DA
S315080089F0FAE70120F8E70220F6E70320F4E7032068
S31508008A00F2E7000070B44B6901229A40414BD3F853
S31508008A10000240F00100C3F80002D3F8000220F477
S31508008A207C50C3F80002D3F800024C6A40EA0420DE
S31508008A30C3F80002D3F81C42D0430440C3F81C42D2
S31508008A40CB69B3B9334BD3F80C420440C3F80C4294
S31508008A50CE688D884C6945EA0645483443F8345053
S31508008A608E680C884D6944EA0644483503EBC5030D
S31508008A705C60CB69012B20D08B69002B35D1254C46
S31508008A80D4F804320340C4F804320B692BB9214BDD
S31508008A90D3F814422040C3F814020B69012B2BD0DB
S31508008AA00B6A012B2FD01B4AD2F8003223F00103A0
S31508008AB0C2F80032002070BC7047164BD3F80C423F
S31508008AC01443C3F80C420E688D884C6945EA06457E
S31508008AD0483443F834508E688C894D6944EA064414
S31508008AE0483503EBC5035C60C6E70A4CD4F8043284
S31508008AF01343C4F80432C8E70648D0F814321343BF
S31508008B00C0F81432CCE70349D1F81C321A43C1F82D
S31508008B101C22C8E7006400407047002800F0B680B1
S31508008B2038B5044690F83C3003B3022384F83C3049
S31508008B302268136823F0020313602268136843F05F
S31508008B400103136000F024FA054623685A6812F0F8
S31508008B50010F10D100F01CFA401B0A28F5D9032092
S31508008B6084F83C00002384F83D3038BD80F83D3059
S31508008B70FFF7D2FFD9E75A6812F0010F00F081809B
S31508008B80A269012A50D01A6822F080021A60E369A5
S31508008B90012B4ED02268136823F040031360236A22
S31508008BA0012B4CD02268136823F020031360636AF4
S31508008BB0012B4AD02268136823F010031360A36AB6
S31508008BC0012B48D02268136823F008031360E36A70
S31508008BD0012B46D02268136823F004031360A368A8
S31508008BE0E268134322691343626913436268013AD0
S31508008BF021681343CB612268136823F001031360CD
S31508008C0000F0C6F9054623685A6812F0010F2ED0FF
S31508008C1000F0BEF9401B0A28F5D9032084F83C0069
S31508008C20002384F83D30A0E71A6842F080021A60F3
S31508008C30ADE72268136843F040031360AFE7226884
S31508008C40136843F020031360B1E72268136843F002
S31508008C5010031360B3E72268136843F00803136030
S31508008C60B5E72268136843F004031360B7E75B6847
S31508008C7013F0010F05D100202064012384F83C304D
S31508008C8073E7042384F83C3001206EE7012070471F
S31508008C90F8B50D46B9B990F83C30DBB2222B00F096
S31508008CA02F8190F83C30DBB2422B00F02B8190F8F4
S31508008CB03C30DBB2622B00F0278190F83C30DBB207
S31508008CC0722B00F02381012D15D090F83D30012B31
S31508008CD000F02481012380F83D30B5BB90F83C3084
S31508008CE0DBB2322B29D0522B2BD0122B1CD02223AD
S31508008CF080F83C301BE090F83C30DBB2322B00F0B9
S31508008D00078190F83C30DBB2522B00F0038190F8D3
S31508008D103C30DBB2622B00F0FF8090F83C30DBB2CF
S31508008D20722BD2D10220C9E0422380F83C30164685
S31508008D30044600F02DF9074638E0622380F83C30F7
S31508008D40F5E7722380F83C30F1E790F83C30DBB267
S31508008D50222B0BD0422B0DD0122B03D0322380F8B6
S31508008D603C30E4E7522380F83C30E0E7622380F8A1
S31508008D703C30DCE7722380F83C30D8E726B100F0B7
S31508008D8007F9C01BB04211D9032084F83C00002320
S31508008D9084F83D3092E023681B6913F0030F0CBF7B
S31508008DA00123002363B1B6F1FF3FE7D1002DF2D1CD
S31508008DB02368DB6813F0030F0CBF01230023F1E7D8
S31508008DC0002D67D1636B216805F11B0212018A58D1
S31508008DD002F004029A60002A5ED1216805F11B029E
S31508008DE012018A58520D1A60216805F11B021201F8
S31508008DF0895801F00201D96021681144496801F0D7
S31508008E000F01196121680A445268C2F30722DA6120
S31508008E101D6221682A011144D1F8B8111975216813
S31508008E201144D1F8B811090A597521681144D1F8C5
S31508008E30B811090C997521681144D1F8B811090EB1
S31508008E40D97521681144D1F8BC11197621681144E5
S31508008E50D1F8BC11090A597621681144D1F8BC1118
S31508008E60090C997621680A44D2F8BC21120EDA76E2
S31508008E70D5B923682022DA604DBB94F83C30DBB2C2
S31508008E80622B1CD0722B1ED0422B11D0012384F8E2
S31508008E903C3010E0A36B96E7216805F11B0212012E
S31508008EA08A58D2085A609FE7236820221A61E3E7A6
S31508008EB0122384F83C30002084F83D00F8BD3223A4
S31508008EC084F83C30F7E7522384F83C30F3E794F80B
S31508008ED03C30DBB2622B0BD0722B0DD0522B03D059
S31508008EE0012384F83C30E6E7122384F83C30E2E7B5
S31508008EF0222384F83C30DEE7422384F83C30DAE764
S31508008F000220DBE70220D9E70220D7E70220D5E7CF
S31508008F100220D3E70220D1E70220CFE70220CDE7DF
S31508008F2010B50446074B1868074BA3FB00308009A9
S31508008F3000F058FB002221464FF0FF3000F01EFBE0
S31508008F40002010BD00000020D34D621008B50B4B61
S31508008F501A6842F400721A601A6842F480621A604B
S31508008F601A6842F480721A60032000F0F5FA0020AD
S31508008F70FFF7D6FF00F020FC002008BD003C0240A9
S31508008F80024A136801331360704700BF800100204E
S31508008F90014B1868704700BF80010020002800F0C8
S31508008FA0958130B583B00446036813F0010F2ED0BF
S31508008FB0A24B9B6803F00C03042B1FD09F4B9B68A6
S31508008FC003F00C03082B14D022799D4B1A706368A2
S31508008FD0002B40D0FFF7DCFF0546984B1B6813F4BF
S31508008FE0003F14D1FFF7D4FF401B6428F5D90320AE
S31508008FF073E1924B5B6813F4800FE5D08F4B1B68C7
S3150800900013F4003F03D06368002B00F061812368E6
S3150800901013F0020F4AD0894B9B6813F00C0F2ED021
S31508009020864B9B6803F00C03082B23D0E368002BC0
S3150800903063D0844B01221A60FFF7AAFF05467F4BCF
S315080090401B6813F0020F49D1FFF7A2FF401B022845
S31508009050F5D9032041E1FFF79BFF0546774B1B68CF
S3150800906013F4003FD3D0FFF793FF401B6428F5D9CC
S31508009070032032E1714B5B6813F4800FD6D16F4B36
S315080090801B6813F0020F03D0E368012B40F022811E
S315080090906A48036823F0F8032169F82292FAA2F2D3
S315080090A0B2FA82F201FA02F213430360236813F05C
S315080090B0080F46D0636993B3634B01221A60FFF722
S315080090C067FF05465D4B5B6F13F0020F39D1FFF75B
S315080090D05FFF401B0228F5D90320FEE057480368C6
S315080090E023F0F8032169F82292FAA2F2B2FA82F280
S315080090F001FA02F213430360D8E7524B00221A60C2
S31508009100FFF746FF05464D4B1B6813F0020FCDD0FF
S31508009110FFF73EFF401B0228F5D90320DDE04A4B46
S3150800912000221A60FFF734FF0546444B5B6F13F0C5
S31508009130020F06D0FFF72CFF401B0228F5D90320A3
S31508009140CBE0236813F0040F1FD1A369002B00F0AE
S31508009150C3803A4A926802F00C02082A00F0BF80DF
S31508009160022B59D0394B00221A60FFF711FF04462B
S31508009170324B1B6813F0007F00F0A680FFF708FF4C
S31508009180001B6428F4D90320A7E0002301932B4B86
S315080091901A6C42F080521A641B6C03F080530193D8
S315080091A0019B2B4A136843F480731360FFF7F0FEA4
S315080091B00546274B1B6813F4807F06D1FFF7E8FEA8
S315080091C0401B0228F5D9032087E0227A214B1A7022
S315080091D0A36883B1FFF7DCFE0546184B1B6F13F037
S315080091E0020FB2D1FFF7D4FE401B41F288339842F2
S315080091F0F3D9032071E0FFF7CBFE05460F4B1B6F33
S3150800920013F0020FA1D0FFF7C3FE401B41F28833CB
S315080092109842F3D9032060E00C4B00221A60FFF74E
S31508009220B7FE0546054B1B6813F0007F14D0FFF701
S31508009230AFFE401B6428F5D903204EE000380240F3
S315080092400238024000004742800E4742600047420B
S315080092500070004070380240E369226A1343616A6D
S3150800926047F6C07292FAA2F2B2FA82F201FA02F252
S315080092701343A26A5208013A4FF4403191FAA1F118
S31508009280B1FA81F18A401343E16A4FF0706292FAAB
S31508009290A2F2B2FA82F201FA02F21343114A5360B9
S315080092A0114B01221A60FFF773FE04460D4B1B682B
S315080092B013F0007F06D1FFF76BFE001B6428F5D973
S315080092C003200AE0002008E0002006E0012070479D
S315080092D0012002E0012000E0002003B030BD01209B
S315080092E0FBE700BF0038024060004742254B9B68F9
S315080092F003F00C03042B40D0082B40D170B5214B4A
S315080093005A6802F03F025B6813F4800F12D01D4BB7
S315080093105968C1F3881100231B48A1FB000100F01E
S315080093201BFC184B5B68C3F3014301335B00B0FBBE
S31508009330F3F070BD134B5868C0F388100546002635
S3150800934043011B1A66EB0604A10141EA93619801E1
S31508009350C01A61EB0401CB0043EA5073C4001946F6
S31508009360601946EB01018B0243EA905384022046BA
S315080093701946334600F0F0FBD3E703487047034825
S31508009380704700BF0038024040787D010024F40091
S31508009390002800F09F8070B50446524B1B6803F006
S315080093A00F038B4208D2CBB24E4A1370136803F0F0
S315080093B00F038B4240F09080236813F0020F17D0FA
S315080093C013F0040F04D0484A936843F4E0539360BB
S315080093D0236813F0080F04D0434A936843F46043A4
S315080093E09360414A936823F0F003A06803439360AF
S315080093F00D46236813F0010F31D06368012B20D086
S31508009400022B25D0384A126812F0020F66D0364968
S315080094108A6822F0030213438B60FFF7B9FD0646FC
S31508009420314B9B6803F00C036268B3EB820F16D0CE
S31508009430FFF7AEFD801B41F288339842F0D903202E
S3150800944047E0294A126812F4003FE0D1012040E0C3
S31508009450254A126812F0007FD9D1012039E0214B44
S315080094601B6803F00F03AB4207D9EAB21D4B1A700B
S315080094701B6803F00F03AB4232D1236813F0040FC5
S3150800948006D0194A936823F4E053E1680B439360C6
S31508009490236813F0080F07D0134A936823F4604330
S315080094A0216943EAC1039360FFF720FF0E4B9B68CF
S315080094B003F0F003F02292FAA2F2B2FA82F2D34053
S315080094C00A4AD35CD8400A4B18600020FFF728FDEB
S315080094D0002070BD012070470120FAE70120F8E757
S315080094E00120F6E7003C024000380240F49E0008DE
S315080094F000000020014B1868704700BF00000020DC
S3150800950008B5FFF7F7FF074B9B6803F4E0534FF4E2
S31508009510E05292FAA2F2B2FA82F2D340024AD35C3D
S31508009520D84008BD00380240049F000808B5FFF778
S31508009530E1FF074B9B6803F460434FF4604292FADD
S31508009540A2F2B2FA82F2D340024AD35CD84008BDEE
S3150800955000380240049F0008074AD36823F4E063F2
S315080095601B041B0C000200F4E060184340F0BF60C7
S3150800957040F40030D060704700ED00E030B4174B7F
S31508009580DB68C3F30223C3F10704042C28BF0424B1
S315080095901D1D062D01D9033B00E000234FF0FF35C2
S315080095A005FA04F421EA0401994005FA03F322EACC
S315080095B003031943002809DB0901C9B200F1604019
S315080095C000F5614080F8001330BC704700F00F00CA
S315080095D00901C9B2024B1954F6E700BF00ED00E0D5
S315080095E014ED00E00138B0F1807F0AD2064B5860CE
S315080095F0064AF02182F823100020986007221A6094
S3150800960070470120704700BF10E000E000ED00E061
S31508009610042805D0054A136823F00403136070472D
S31508009620024A136843F004031360704710E000E031
S31508009630704708B5FFF7FCFF08BD00000C4B1A6819
S3150800964042F001021A60002199601A6822F08472B9
S3150800965022F480321A60074A5A601A6822F4802275
S315080096601A60D960044B4FF000629A60704700BFD9
S31508009670003802401030002400ED00E0FEE700004C
S3150800968008B5FFF737FF084BA3FB00308009FFF743
S31508009690A9FF0420FFF7BCFF002211464FF0FF3058
S315080096A0FFF76CFF08BD00BFD34D621008B5FFF782
S315080096B06FFC08BD08B5FFF763FCFFF7BAFF08BDE6
S315080096C008B500224FF480710148FEF727FF08BD50
S315080096D00014024010B5FFF7E9FF0F4B1B68C31AC9
S315080096E0B3F5FA7F0DD304460C4B1B7853B9012208
S315080096F00A4B1A704FF480710948FEF70FFF064BA4
S315080097001C6010BD0022054B1A704FF48071044886
S31508009710FEF704FFF3E700BF8C0000208800002056
S3150800972000140240014A024B9A6070470080000804
S3150800973000ED00E000B593B00123069307930223DA
S315080097400C934FF480020D9219220E92F0220F927A
S3150800975010930523119306A8FFF720FC00B1FEE736
S315080097600F23019302230293002303934FF4A0537C
S3150800977004934FF480530593032101A8FFF708FECD
S3150800978000B1FEE713B05DF804FB08B5FFF7CAFFA2
S31508009790FFF7DCFBFFF7CEFFFFF772FFFFF790FF3F
S315080097A008BD08B5FFF7F1FF00F050F9FFF792FF83
S315080097B000F0CCF9FAE70000F0B58DB0002401946A
S315080097C0464B5A6C42F480425A645A6C02F4804200
S315080097D00192019A02941A6B42F002021A631A6BFA
S315080097E002F002020292029A03941A6B42F00802ED
S315080097F01A631A6B02F008020392039A04941A6B0E
S3150800980042F020021A631A6B02F020020492049AAC
S3150800981005941A6C42F480221A641A6C02F48022A7
S315080098200592059A06941A6C42F000721A641B6C2B
S3150800983003F000730693069B0320FFF78DFE22466E
S3150800984021466FF00B00FFF799FE224621466FF07E
S315080098500A00FFF793FE224621466FF00900FFF73C
S315080098608DFE224621466FF00400FFF787FE22464A
S3150800987021466FF00300FFF781FE224621466FF06E
S315080098800100FFF77BFE224621464FF0FF30FFF727
S3150800989075FE4FF4807307930125089509950A9577
S315080098A007A90F48FEF750FD4FF4407707970226A1
S315080098B00896099503250A9507230B9307A90948CE
S315080098C0FEF742FD0797089609940A9509230B9314
S315080098D007A90548FEF738FD0DB0F0BD003802406F
S315080098E000140240000C02400004024008B5084873
S315080098F0084B03604FF46143436000238360C360F1
S31508009900036183610C234361FEF7DAFF08BD00BFDC
S31508009910F8000020004800402DE9F04104460D46B5
S3150800992017469846FFF7ECFD154BA3FB0030800958
S31508009930002201E00132D2B2112A1DD8114B13F8C8
S31508009940121003EB420393F801C001EB0C0303FB6F
S315080099500443B0FBF3FE03FB1E06002EEAD11FFAF2
S315080099608EF32B80013B9BB2B3F5806FE2D2397040
S3150800997088F800C0012000E00020BDE8F08100BFA3
S31508009980D34D62100C9F000870B58CB00025ADF859
S315080099902E508DF82D508DF82C500BAB0DF12D0255
S315080099A00DF12E014FF4FA70FFF7B6FF1D4C1E4E4F
S315080099B0266025631D4B6363A561E56125626562C3
S315080099C0A562E562A560E5609DF82D30013B1B04A4
S315080099D023619DF82C30013B1B056361BDF82E30D1
S315080099E063602046FFF799F82368B34218D00E2320
S315080099F0069300230793012208924CF6E041019151
S31508009A0002934FF6E071039104210491059309929C
S31508009A100E230A9369440348FEF7F4FF0CB070BDA1
S31508009A200695E6E79000002000640040D400002078
S31508009A3008B50023012201460348FEF770FF08B166
S31508009A40002008BD0120FCE7F800002008B5FFF754
S31508009A504DFFFFF799FF08BDBFF34F8F0549CA6849
S31508009A6002F4E062044B1343CB60BFF34F8F00BF91
S31508009A70FDE700BF00ED00E00400FA0508B5214B3C
S31508009A801B78B3B92048FFF7D3FF012800D008BDDB
S31508009A901D4B1B78013BDBB23F2BF8D8FFF706FEC0
S31508009AA01A4B1860174B01221A70194B00221A70AC
S31508009AB0EDE7174B1B78013313481844FFF7B8FF37
S31508009AC0012813D1124A13780133DBB213700E4AF8
S31508009AD012789342DBD10B4A002111700A4A527858
S31508009AE0FF2AD4D1022BD2D1FFF7B6FFFFF7DEFD4E
S31508009AF0064B1B6864339842C9D9024B00221A7078
S31508009B00C5E700BF79010020380100207C0100204C
S31508009B107A01002008B5002211460B48FFF7B8F86D
S31508009B2030B9094B5B6B196840F26762914200D005
S31508009B3008BD9A68002AFBD11A7DFF2AF8D11B694D
S31508009B40022BF5D1FFF788FF9000002008B5FFF734
S31508009B5095FFFFF7DFFF08BD53B94AB9002908BFCB
S31508009B6000281CBF4FF0FF314FF0FF3000F074B9EA
S31508009B70ADF1080C6DE904CE00F006F8DDF804E056
S31508009B80DDE9022304B070472DE9F0478C46044608
S31508009B90089E002B40F086808A42154648D9B2FABC
S31508009BA082F24AB1C2F1200701FA02F320FA07F756
S31508009BB0954047EA030C94404FEA154EBCFBFEF766
S31508009BC01FFA85F80EFB17C307FB08F9210C41EAB3
S31508009BD00343994509D9EB1807F1FF3180F0E18075
S31508009BE0994540F2DE80023F2B44A3EB0903B3FB01
S31508009BF0FEF00EFB103300FB08F1A4B244EA03445E
S31508009C00A14209D92C1900F1FF3380F0C880A1427E
S31508009C1040F2C58002382C4440EA07400027641AFF
S31508009C201EB10023D440C6E900433946BDE8F08793
S31508009C30002A54D0B2FA82F2002A40F0B4800127F2
S31508009C40491B4FEA15481FFA85F9B1FBF8FE08FBD0
S31508009C501E1109FB0EF04FEA144C4CEA01439842D8
S31508009C6007D9EB180EF1FF3102D2984200F2EB80C9
S31508009C708E461B1AB3FBF8F008FB103309FB00F9F4
S31508009C80A4B244EA0344A14507D92C1900F1FF33CD
S31508009C9002D2A14500F2DB801846A4EB090440EA8B
S31508009CA00E40BDE78B4208D9002E75D00027C6E9BD
S31508009CB0000138463946BDE8F087B3FA83F77FB91D
S31508009CC08B4202D3824200F2BC80841A61EB030302
S31508009CD001209C46002EA8D0C6E9004CA5E7FFDE69
S31508009CE0C7F12005BB4022FA05FC4CEA030C21FA11
S31508009CF005F44FEA1C4EB4FBFEF91FFA8CF80EFB6E
S31508009D00194420FA05F3B94009FB08FA19430B0C64
S31508009D1043EA0444A24502FA07F200FA07F30BD90C
S31508009D201CEB040409F1FF3080F08980A24540F25B
S31508009D308680A9F102096444A4EB0A04B4FBFEF088
S31508009D400EFB104400FB08FA89B241EA0444A24516
S31508009D5008D91CEB040400F1FF316CD2A2456AD97C
S31508009D600238644440EA0940A0FB0289A4EB0A04CD
S31508009D704C454146CE4655D352D0002E6AD05A1A83
S31508009D8064EB0E0404FA05F522FA07F3FC401D43BA
S31508009D90C6E90054002748E73746304645E71846DF
S31508009DA03AE70F4621E79540C2F1200321FA03F06E
S31508009DB04FEA1548B0FBF8F71FFA85F908FB170EA6
S31508009DC024FA03FC914007FB09FA4CEA0101080C46
S31508009DD040EA0E40824504FA02F407D9281807F12A
S31508009DE0FF332AD2824528D9023F2844A0EB0A002D
S31508009DF0B0FBF8FC08FB1C000CFB09F389B241EA2E
S31508009E0000418B4208D969180CF1FF3011D28B42F8
S31508009E100FD9ACF1020C2944C91A4CEA074714E7D2
S31508009E204345AAD2B8EB020169EB0C020138964603
S31508009E30A3E78446F0E7084694E71F46D6E7814637
S31508009E407AE7384646E7AEF1020E2B4411E70238A8
S31508009E502C4422E73746E8E6704700BF08B5074BAB
S31508009E60044613B10021AFF30080054B1868836AD6
S31508009E7003B198472046FFF701FC00BF0000000029
S31508009E80309F000870B500260C4D0D4C641BA410BD
S31508009E90A64209D100F022F800260A4D0A4C641B96
S31508009EA0A410A64205D170BD55F8043B9847013663
S31508009EB0EEE755F8043B98470136F2E764000020C0
S31508009EC06400002064000020680000200346024465
S31508009ED0934200D1704703F8011BF9E7F8B500BFB4
S31508009EE0F8BC08BC9E467047F8B500BFF8BC08BC6D
S31508009EF09E467047000000000000000001020304AF
S31508009F00060708090000000001020304050206020C
S31508009F10060307030803090309040A040B040C04CF
S31508009F200C050D050E050F050F061006100710087F
S30D08009F300400002000000000F7
S30D08009F3890E2FF7F0100000022
S31508009F400024F400000000000000000000000000EB
S31508009F5000000000000000000000000000000000F3
S31508009F6000000000000000000000000000000000E3
S31508009F7000000000000000000000000000000000D3
S31508009F8000000000000000000000000000000000C3
S31508009F9000000000000000000000000000000000B3
S31108009FA000000000AD810008898100085F
S7050800800072
