S02100002E2E5C62696E5C64656D6F70726F675F73746D3332663230372E7372656342
S315080080000000022095930008E3930008E593000812
S31508008010E7930008E9930008EB93000800000000C6
S31508008020000000000000000000000000ED930008BA
S31508008030EF93000800000000F193000891950008EE
S31508008040F7930008F9930008FB930008FD930008CE
S31508008050FF9300080194000803940008059400089B
S3150800806007940008099400080B9400080D9400086A
S315080080700F9400081194000813940008159400083A
S3150800808017940008199400081B9400081D9400080A
S315080080901F940008219400082394000825940008DA
S315080080A027940008299400082B9400082D940008AA
S315080080B02F9400083194000833940008359400087A
S315080080C037940008399400083B9400083D9400084A
S315080080D03F9400084194000843940008459400081A
S315080080E047940008499400084B9400084D940008EA
S315080080F04F940008519400085394000855940008BA
S3150800810057940008599400085B9400085D94000889
S315080081105F94000861940008639400086594000859
S3150800812067940008699400086B9400086D94000829
S315080081306F940008719400087394000875940008F9
S3150800814077940008799400087B9400087D940008C9
S315080081507F94000881940008839400088594000899
S3150800816087940008899400088B9400088D94000869
S315080081708F94000891940008939400089594000839
S3150800818097940008EE11AA5510B5054C237833B913
S31508008190044B13B10448AFF300800123237010BDCC
S315080081A07C0000200000000078960008084B10B5F7
S315080081B01BB108490848AFF300800848036803B9AB
S315080081C010BD074B002BFBD0BDE81040184700BF79
S315080081D00000000080000020789600087C0000203F
S315080081E000000000154B002B08BF134B9D46A3F556
S315080081F0803A00218B460F461348144A121A01F09A
S315080082000FFA0F4B002B00D098470E4B002B00D0CF
S3150800821098470020002104000D000D48002802D0D0
S315080082200C48AFF3008001F0D5F92000290001F0D1
S315080082309DF801F0BBF900BF00000800000002200D
S3150800824000000000000000007C000020F400002070
S31508008250000000000000000080B400AFBFF34F8F9D
S315080082600549054BDB6803F4E062044B1343CB6016
S31508008270BFF34F8FFEE700BF00ED00E00400FA05EC
S3150800828080B500AF00F012F800F032F900BF80BDEB
S3150800829080B500AF00F05AF800F0A2F900BF80BD23
S315080082A080B500AFFFF7D8FF00BF80BD80B586B0A8
S315080082B000AF01214FF4802000F082FE0121082042
S315080082C000F060FE072208211E4800F069FD07221B
S315080082D009211C4800F064FD0023BB750123FB75CA
S315080082E002233B754FF480733B6102237B7507F1CC
S315080082F010031946134800F0A9FC02233B754FF4F6
S3150800830000733B6107F1100319460E4800F09EFC06
S315080083104FF461433B600023BB800023FB800023AE
S315080083203B810023BB810C237B813B4619460648CB
S3150800833000F082FE0121044800F038FF00BF18371C
S31508008340BD4680BD000C02400048004080B500AF25
S31508008350254B1B78002B15D1244800F04DF8034611
S31508008360012B3FD1214B1B78002B3BD001F006F99E
S3150800837002461F4B1A601C4B01221A701D4B002225
S315080083801A702FE01B4B1B780133184A1344184602
S3150800839000F032F80346012B19D1164B1B7801332E
S315080083A0DAB2144B1A70114B1A78124B1B789A4290
S315080083B018D10D4B00221A700C4B5B78FF2B11D18C
S315080083C00A4B9B78002B0DD1FFF76AFF0AE001F0F4
S315080083D0D5F80246064B1B6864339A4202D9024B0B
S315080083E000221A7000BF80BD980000209C00002063
S315080083F0E0000020E400002080B582B000AF78607D
S3150800840020210A4800F002FF0346012B08D107483D
S3150800841000F0ECFE0346DAB27B681A70012300E02E
S31508008420002318460837BD4680BD00BF00480040F7
S3150800843080B487B000AFB9607A603B600346FB81C1
S315080084400023FB7548E0FA89FB7D284911F81330AB
S315080084501846FB7D25495B000B445B7803440133D2
S3150800846003FB02F347F2305292FBF3F103FB01F3ED
S31508008470D31A002B2DD1FA89FB7D1C4911F813302C
S315080084801846FB7D19495B000B445B7803440133AE
S3150800849003FB02F347F2305292FBF3F39AB2BB683E
S315080084A01A80BB681B88002B13D0BB681B88B3F5E2
S315080084B0806F0ED8FB7D0D4A12F813207B681A7060
S315080084C0FB7D0A4A5B0013445A783B681A700123FD
S315080084D006E0FB7D0133FB75FB7D112BB3D9002329
S315080084E018461C37BD4680BC704700BF4C9600082E
S315080084F080B58AB000AF0121022000F043FD0922B1
S315080085000821354800F04CFC09220921324800F0C0
S3150800851047FC4FF440733B62022387F8243002235A
S3150800852087F82530002387F82630012387F8273077
S3150800853007F120031946284800F088FB01214FF06F
S31508008540007000F03DFD254800F0CAF807F1140355
S31508008550184600F073FA3B467A1CB91C4FF4FA70B9
S31508008560FFF766FF0023BB760023FB7600233B77E5
S3150800857000237B770023BB770023FB770023BB759B
S315080085800023FB757B78013BDBB23B763B78013BEE
S31508008590DBB27B767B88BB8207F1140319460F484A
S315080085A000F0C2F80023BB730023FB7301233B745E
S315080085B00023BB800023FB8000233B8100237B81B3
S315080085C00023BB8101237B743B1D184600F07CF910
S315080085D000BF2837BD4680BD000402400064004045
S315080085E080B586B000AF0023FB750021124800F065
S315080085F009FB0346002B1AD03B461A4600210E48B3
S3150800860000F046FA3B7A002B06D13B6840F26762D7
S31508008610934201D10123FB75FB7D012B07D1FB7A20
S31508008620FF2B04D13B7B002B01D1FFF739FE00BF9E
S315080086301837BD4680BD00BF0064004080B582B0D3
S3150800864000AF0121202000F09DFC4FF480733B60B1
S315080086500023BB710123FB7102237B7101233B714C
S315080086603B461946054800F0F1FA4FF48071034875
S3150800867000F088FB00BF0837BD4680BD00140240E5
S3150800868080B582B000AF00F079FF7860114B1B68A7
S315080086907A68D31AB3F5FA7F18D30F4B1B78002BD9
S315080086A008D10D4B01221A704FF480710B4800F067
S315080086B05BFB07E0084B00221A704FF480710748ED
S315080086C000F060FB034A7B68136000E000BF0837D0
S315080086D0BD4680BDE8000020EC00002000140240E2
S315080086E080B582B000AF78607B680E4A93420AD1A3
S315080086F001214FF0007000F081FC00214FF000705E
S3150800870000F07CFC09E001214FF0806000F076FC67
S3150800871000214FF0806000F071FC00BF0837BD46AD
S3150800872080BD00BF0064004080B485B000AF7860AB
S3150800873039600023FB730023BB607B681B6823F04A
S3150800874002027B681A607B681B6843F001027B683B
S315080087501A6002E0BB680133BB607B685B6803F0A4
S315080087600103002B04D1BB684FF6FF729342F1D187
S315080087707B685B6803F00103002B02D10023FB73BF
S315080087809CE03B689B79012B06D17B681B6843F00C
S3150800879080027B681A6005E07B681B6823F080020C
S315080087A07B681A603B68DB79012B06D17B681B68FE
S315080087B043F040027B681A6005E07B681B6823F07B
S315080087C040027B681A603B681B7A012B06D17B68DE
S315080087D01B6843F020027B681A6005E07B681B680B
S315080087E023F020027B681A603B685B7A012B06D16E
S315080087F07B681B6843F010027B681A6005E07B689B
S315080088001B6823F010027B681A603B689B7A012B71
S3150800881006D17B681B6843F008027B681A6005E08E
S315080088207B681B6823F008027B681A603B68DB7A62
S31508008830012B06D17B681B6843F004027B681A602B
S3150800884005E07B681B6823F004027B681A603B68B6
S315080088509B789A073B68DB781B061A433B681B79AB
S315080088601B041A433B685B791B051A433B681B8844
S31508008870013B1A437B68DA617B681B6823F00102B7
S315080088807B681A600023BB6002E0BB680133BB60EB
S315080088907B685B6803F00103002B04D0BB684FF6C6
S315080088A0FF729342F1D17B685B6803F00103002BEA
S315080088B002D00023FB7301E00123FB73FB7B184600
S315080088C01437BD4680BC704780B485B000AF786069
S315080088D00023FB607B689B7A1A4601239340FB6062
S315080088E0554A554BD3F8003243F00103C2F800321B
S315080088F05149514BD3F81C22FB68DB431340C1F89E
S315080089001C327B681B7B002B25D14B494A4BD3F87D
S315080089100C22FB68DB431340C1F80C3246497B68DE
S315080089209B7A18467B68DB881B047A6852881A4348
S3150800893000F1480341F833203F497B689B7A184683
S315080089407B689B881B047A6812881A4300F14803DF
S31508008950DB000B445A607B681B7B012B24D136490C
S31508008960354BD3F80C22FB681343C1F80C32324955
S315080089707B689B7A18467B681B881B047A68528832
S315080089801A4300F1480341F833202B497B689B7A48
S3150800899018467B689B881B047A68D2881A4300F1BC
S315080089A04803DB000B445A607B68DB7A002B09D14D
S315080089B02149214BD3F80422FB68DB431340C1F855
S315080089C0043207E01C491C4BD3F80422FB68134306
S315080089D0C1F804327B681B89002B08D11649164B4F
S315080089E0D3F81422FB68DB431340C1F814327B68C2
S315080089F01B89012B07D110490F4BD3F81422FB68AA
S31508008A001343C1F814327B685B7B012B07D10A49F3
S31508008A10094BD3F81C22FB681343C1F81C32064ADB
S31508008A20054BD3F8003223F00103C2F8003200BF29
S31508008A301437BD4680BC70470064004080B483B0DC
S31508008A4000AF78607B6800229A717B680022DA7131
S31508008A507B6800221A727B6800225A727B680022A1
S31508008A609A727B680022DA727B6800229A707B68A9
S31508008A700022DA707B6803221A717B6802225A7117
S31508008A807B6801221A8000BF0C37BD4680BC704740
S31508008A9080B485B000AFF8600B467A60FB72FB7A4B
S31508008AA0FA681B331B0113441B68DBB203F004038B
S31508008AB0DAB27B681A727B681B7A002B09D1FB7ABB
S31508008AC0FA681B331B0113441B685A0D7B681A602E
S31508008AD008E0FB7AFA681B331B0113441B68DA08A3
S31508008AE07B685A60FB7AFA681B331B0113441B68C0
S31508008AF0DBB203F00203DAB27B685A72FB7AFA68D1
S31508008B001B331B01134404331B68DBB203F00F034A
S31508008B10DAB27B689A72FB7AFA681B331B01134434
S31508008B2004331B681B0ADAB27B68DA74FB7AFA68C4
S31508008B301B01134403F5DC731B68DAB27B68DA722F
S31508008B40FB7AFA681B01134403F5DC731B681B0ADE
S31508008B50DAB27B681A73FB7AFA681B01134403F5C9
S31508008B60DC731B681B0CDAB27B685A73FB7AFA68EB
S31508008B701B01134403F5DC731B681B0EDAB27B6812
S31508008B809A73FB7AFA681B01134403F5DE731B68B4
S31508008B90DAB27B68DA73FB7AFA681B01134403F5C9
S31508008BA0DE731B681B0ADAB27B681A74FB7AFA68EA
S31508008BB01B01134403F5DE731B681B0CDAB27B68D2
S31508008BC05A74FB7AFA681B01134403F5DE731B68B3
S31508008BD01B0EDAB27B689A74FB7A002B06D1FB6807
S31508008BE0DB6843F02002FB68DA6005E0FB681B6976
S31508008BF043F02002FB681A6100BF1437BD4680BCEB
S31508008C00704700BF80B485B000AF78600B46FB7034
S31508008C100023FB73FB78002B06D17B68DB68DBB28D
S31508008C2003F00303FB730BE0FB78012B06D17B688B
S31508008C301B69DBB203F00303FB7301E00023FB733C
S31508008C40FB7B18461437BD4680BC704780B487B096
S31508008C5000AF7860396000237B6100233B61002305
S31508008C60FB6000237B6176E001227B6902FA03F34D
S31508008C703B613B681A683B691340FB60FA683B69CD
S31508008C809A4265D17B681A687B695B00032101FA01
S31508008C9003F3DB431A407B681A607B681A683B68F3
S31508008CA01B7919467B695B0001FA03F31A437B6853
S31508008CB01A603B681B79012B03D03B681B79022B92
S31508008CC02ED17B689A687B695B00032101FA03F35E
S31508008CD0DB431A407B689A607B689A683B685B79D5
S31508008CE019467B695B0001FA03F31A437B689A60AD
S31508008CF07B685A687B699BB2012101FA03F3DB435F
S31508008D001A407B685A607B685A683B689B791946A3
S31508008D107B699BB201FA03F39BB21A437B685A60DC
S31508008D207B68DA687B699BB25B00032101FA03F36F
S31508008D30DB431A407B68DA607B68DA683B68DB7974
S31508008D4019467B695B0001FA03F31A437B68DA600C
S31508008D507B6901337B617B690F2B85D900BF1C3783
S31508008D60BD4680BC704700BF80B483B000AF786052
S31508008D700B467B807B687A881A8300BF0C37BD4612
S31508008D8080BC704780B483B000AF78600B467B80A8
S31508008D907B687A885A8300BF0C37BD4680BC70470B
S31508008DA080B485B000AF78600B467B8013467B7035
S31508008DB00023FB600023BB607A787B8803F00703F7
S31508008DC09B0002FA03F3FB607B88DB089BB218461C
S31508008DD07B88DB089BB21A467B68083253F8222048
S31508008DE07B8803F007039B000F2101FA03F3DB439B
S31508008DF002EA03017B6800F1080243F822107B8827
S31508008E00DB089BB21A467B68083253F82220FB68B7
S31508008E101343BB607B88DB089BB21A467B68083223
S31508008E20B96843F8221000BF1437BD4680BC7047A6
S31508008E3080B489B000AF78600023BB6100237B61F2
S31508008E400023FB6102233B610023FB600223BB6016
S31508008E50484B9B6803F00C03BB61BB69042B07D026
S31508008E60082B09D0002B3FD17B68434A1A603FE0A4
S31508008E707B68424A1A603BE03E4B5B6803F480031A
S31508008E809B0DFB603B4B5B6803F03F03BB60FB68D5
S31508008E90002B0DD0394ABB68B2FBF3F2354B596843
S31508008EA047F6C0730B409B0903FB02F3FB610CE01A
S31508008EB0314ABB68B2FBF3F22E4B596847F6C073CA
S31508008EC00B409B0903FB02F3FB612A4B5B6803F427
S31508008ED040331B0C01335B003B61FA693B69B2FB0B
S31508008EE0F3F27B681A6003E07B68234A1A6000BFC6
S31508008EF0204B9B6803F0F003BB61BB691B09BB6190
S31508008F001F4ABB6913441B78DBB27B617B681A680E
S31508008F107B69DA407B685A60164B9B6803F4E0531A
S31508008F20BB61BB699B0ABB61154ABB6913441B78C5
S31508008F30DBB27B617B685A687B69DA407B689A603A
S31508008F400C4B9B6803F46043BB61BB695B0BBB615D
S31508008F500B4ABB6913441B78DBB27B617B685A6892
S31508008F607B69DA407B68DA6000BF2437BD4680BC7F
S31508008F70704700BF003802400024F40040787D01A5
S31508008F800000002080B483B000AF78600B46FB7009
S31508008F90FB78002B06D00949084B1A6B7B681343EC
S31508008FA00B6306E00549054B1A6B7B68DB431340E8
S31508008FB00B6300BF0C37BD4680BC704700380240C3
S31508008FC080B483B000AF78600B46FB70FB78002B4B
S31508008FD006D00949084B1A6C7B6813430B6406E0F4
S31508008FE00549054B1A6C7B68DB4313400B6400BFCD
S31508008FF00C37BD4680BC70470038024080B483B049
S3150800900000AF78600B46FB70FB78002B06D0094949
S31508009010084B1A6A7B6813430B6206E00549054B41
S315080090201A6A7B68DB4313400B6200BF0C37BD46E8
S3150800903080BC70470038024080B58AB000AF7860BF
S31508009040396000237B6200233B620023FB61002317
S31508009050BB617B681B8A9BB27B627B6A23F44053A5
S315080090607B623B68DB881A467B6A13437B627B6AB2
S315080090709AB27B681A827B689B899BB27B627B6A01
S3150800908023F4B05323F00C037B623B689A883B6851
S315080090901B8913439AB23B685B8913439BB21A46F2
S315080090A07B6A13437B627B6A9AB27B689A817B6888
S315080090B09B8A9BB27B627B6A23F440737B623B6824
S315080090C09B891A467B6A13437B627B6A9AB27B68E2
S315080090D09A8207F108031846FFF7AAFE7B68304A0A
S315080090E0934203D07B682F4A934202D17B693B6245
S315080090F001E03B693B627B689B899BB21BB2002BF4
S315080091000CDA3A6A13469B0013449A001A443B68E1
S315080091101B685B00B2FBF3F3FB610BE03A6A13468C
S315080091209B0013449A001A443B681B689B00B2FBD9
S31508009130F3F3FB61FB691C4AA2FB03235B091B01D2
S315080091407B627B6A1B09642202FB03F3FA69D31A62
S31508009150BB617B689B899BB21BB2002B0CDABB698F
S31508009160DB003233104AA2FB03235B0903F0070333
S315080091707A6A13437B620BE0BB691B0132330A4AE6
S31508009180A2FB03235B0903F00F037A6A13437B628E
S315080091907B6A9AB27B681A8100BF2837BD4680BDB4
S315080091A000100140001401401F85EB5180B483B0C4
S315080091B000AF78600B46FB70FB78002B08D07B6805
S315080091C09B899BB243F400539AB27B689A8107E065
S315080091D07B689B899BB223F400539AB27B689A8179
S315080091E000BF0C37BD4680BC704700BF80B483B053
S315080091F000AF78607B689B889BB2C3F308039BB279
S3150800920018460C37BD4680BC704700BF80B485B091
S3150800921000AF78600B467B800023FB737B681B8856
S315080092209AB27B8813409BB2002B02D00123FB73B2
S3150800923001E00023FB73FB7B18461437BD4680BC50
S31508009240704700BF80B500AF104A104B1B6843F04B
S31508009250010313600D4B00229A600C4A0B4B1B68E6
S3150800926023F0847323F480331360084B084A5A604A
S31508009270064A064B1B6823F480231360034B00221F
S31508009280DA6000F007F800BF80BD00BF0038024072
S315080092901030002480B483B000AF00237B60002325
S315080092A03B602F4A2E4B1B6843F4803313602C4BCC
S315080092B01B6803F400333B607B6801337B603B68C3
S315080092C0002B03D17B68B3F5C06FF0D1244B1B6824
S315080092D003F40033002B02D001233B6001E0002396
S315080092E03B603B68012B36D11D4A1D4B9B6893603A
S315080092F01B4A1B4B9B6843F400439360184A184B60
S315080093009B6843F4A0539360154B164A5A60144A57
S31508009310134B1B6843F08073136000BF104B1B6828
S3150800932003F00073002BF9D00F4B40F203721A605A
S315080093300B4A0B4B9B6823F003039360084A084BC0
S315080093409B6843F00203936000BF054B9B6803F0DC
S315080093500C03082BF9D100BF0C37BD4680BC7047FB
S3150800936000380240193C4005003C024080B500AF79
S3150800937000F008F8FEF784FFFFF782F9FEF788FF8A
S31508009380FAE700BF80B500AFFFF758F900F0D4F848
S3150800939000BF80BD07498D460749084A084B9A42CF
S315080093A0BEBF51F8040B42F8040BF8E7054880479E
S315080093B005480047000002208496000800000020A7
S315080093C07C00002045920008E58100083249334AAE
S315080093D0002301E041F8043B9142FBD3FFF7C6FFA7
S315080093E0FEE7FEE7FEE7FEE7FEE7FEE7FEE7FEE747
S315080093F0FEE7FEE7FEE7FEE7FEE7FEE7FEE7FEE737
S31508009400FEE7FEE7FEE7FEE7FEE7FEE7FEE7FEE726
S31508009410FEE7FEE7FEE7FEE7FEE7FEE7FEE7FEE716
S31508009420FEE7FEE7FEE7FEE7FEE7FEE7FEE7FEE706
S31508009430FEE7FEE7FEE7FEE7FEE7FEE7FEE7FEE7F6
S31508009440FEE7FEE7FEE7FEE7FEE7FEE7FEE7FEE7E6
S31508009450FEE7FEE7FEE7FEE7FEE7FEE7FEE7FEE7D6
S31508009460FEE7FEE7FEE7FEE7FEE7FEE7FEE7FEE7C6
S31508009470FEE7FEE7FEE7FEE7FEE7FEE7FEE7FEE7B6
S31508009480FEE7FEE7FEE7FEE7FEE7FEE7FEE7FEE7A6
S31508009490FEE7FEE7FEE7FEE77C000020F40000207A
S315080094A080B483B000AF03463960FB7197F9073083
S315080094B0002B0BDA0D49FB7903F00F03043B3A68DE
S315080094C0D2B21201D2B20B441A7609E0084997F9CA
S315080094D007303A68D2B21201D2B20B4483F800239D
S315080094E000BF0C37BD4680BC704700BF00ED00E0EA
S315080094F000E100E080B582B000AF78607B68B3F128
S31508009500807F01D3012311E00A4A7B6823F07F4359
S31508009510013B53600F214FF0FF30FFF7C1FF054BAA
S3150800952000229A60034B07221A6000231846083760
S31508009530BD4680BD10E000E080B500AF064B1B6855
S31508009540064AA2FB03239B091846FFF7D3FF002010
S3150800955000F006F800BF80BD10000020D34D621051
S3150800956080B483B000AF7860034A7B68136000BF9D
S315080095700C37BD4680BC7047F000002080B400AFB1
S31508009580024B1B681846BD4680BC7047F000002099
S3150800959080B400AF044B1B680133034A136000BF55
S315080095A0BD4680BC704700BFF000002008B5074BD9
S315080095B0044613B10021AFF30080054B1868836A8F
S315080095C003B19847204600F033F800BF00000000BA
S315080095D0749600080E4B70B51E460E4C0025E41A0C
S315080095E0A410A54204D056F8253098470135F8E767
S315080095F000F020F8084B094C1E46E41AA410002572
S31508009600A54204D056F8253098470135F8E770BDCD
S3150800961074000020740000207400002078000020E8
S3150800962003460244934202D003F8011BFAE7704747
S31508009630FEE70000F8B500BFF8BC08BC9E467047B8
S31508009640F8B500BFF8BC08BC9E467047050206027E
S31508009650060307030803090309040A040B040C0498
S315080096600C050D050E050F050F0610061007100848
S3110800967043000000140000200000000069
S30D0800967C68EBFF7F0100000006
S315080096840000000001020304010203040607080996
S31508009694000E27070000000000000000000000007C
S315080096A400000000000000000000000000000000A8
S315080096B4000000007096000800000000000000008A
S315080096C40000000000000000000000000000000088
S315080096D40000000000000000000000000000000078
S315080096E40000000000000000000000000000000068
S311080096F400000000AD8100088981000814
S7050800800072
