S315080028005007002065290008712900087329000867
S3150800281000000000000000000000000000000000AA
S3150800282000000000000000000000000075290008F4
S31508002830000000000000000077290008913B00080E
S315080028407B2900087B2900087B2900087B290008CA
S315080028507B2900087B2900087B2900087B290008BA
S315080028607B2900087B2900087B2900087B290008AA
S315080028707B2900087B2900087B2900087B2900089A
S315080028807B2900087B2900087B2900087B2900088A
S315080028907B2900087B2900087B2900087B2900087A
S315080028A07B2900087B2900087B2900087B2900086A
S315080028B07B2900087B2900087B290008EE11AA5508
S315080028C000F002F800F03EF80CA030C808382418CA
S315080028D02D18A246671EAB4654465D46AC4201D14A
S315080028E000F030F87E460F3E0FCCB646012633423E
S315080028F000D0FB1AA246AB4633431847941F000084
S31508002900B41F0000103A02D378C878C1FAD8520723
S3150800291001D330C830C101D504680C607047000087
S315080029200023002400250026103A01D378C1FBD8DD
S31508002930520700D330C100D50B6070471FB51FBDC5
S3150800294010B510BD00F07FF91146FFF7F7FF01F04B
S3150800295065FF00F097F903B4FFF7F2FF03BC00F038
S315080029609DF9000008498D460848804708480047F1
S31508002970FEE7FEE7FEE7FEE7FEE7FEE7054806494F
S31508002980064A074B7047000050070020213C000804
S31508002990C1280008500100205007002050030020DD
S315080029A050030020FEB5054610460C46184373D062
S315080029B0AE468C460020AD1A01469C4167D3664652
S315080029C0002701243D46B61A9D4102D313463A46CE
S315080029D02124654676462F04360C3E432D0CB61A3E
S315080029E09D4104D3150C1B042B4312041034654671
S315080029F076462F06360A3E432D0AB61A9D4104D35B
S31508002A00150E1B022B4312020834654676462F071D
S31508002A1036093E432D09B61A9D4104D3150F1B01ED
S31508002A202B431201241D65467646AF07B6083E437A
S31508002A30AD08B61A9D4104D3950F9B002B4392000F
S31508002A40A41C65467646EF0776083E436D08B61A17
S31508002A509D411AD392185B41641C16E0001876460D
S31508002A6065464941B71A9D410191009009D36046D0
S31508002A70B11A98418E468446009801990025401C53
S31508002A806941DD0752082A435B08641EE6D572468B
S31508002A90634603B0F0BDFFE700200146C046C046C6
S31508002AA02A462346F5E701E004C0091F0429FBD29C
S31508002AB08B0701D50280801CC90700D002707047B9
S31508002AC000290BD0C30702D00270401C491E0229F8
S31508002AD004D3830702D50280801C891EE3E70022FF
S31508002AE0EEE70022DFE7002203098B422CD3030A14
S31508002AF08B4211D300239C464EE003460B433CD43D
S31508002B00002243088B4231D303098B421CD3030AA4
S31508002B108B4201D394463FE0C3098B4201D3CB01D4
S31508002B20C01A524183098B4201D38B01C01A524104
S31508002B3043098B4201D34B01C01A524103098B4208
S31508002B4001D30B01C01A5241C3088B4201D3CB00F3
S31508002B50C01A524183088B4201D38B00C01A5241D6
S31508002B6043088B4201D34B00C01A5241411A00D286
S31508002B7001465241104670475DE0CA0F00D04942EF
S31508002B80031000D34042534000229C4603098B425F
S31508002B902DD3030A8B4212D3FC22890112BA030AE7
S31508002BA08B420CD3890192118B4208D38901921169
S31508002BB08B4204D389013AD0921100E08909C309EE
S31508002BC08B4201D3CB01C01A524183098B4201D3F0
S31508002BD08B01C01A524143098B4201D34B01C01ADB
S31508002BE0524103098B4201D30B01C01A5241C30853
S31508002BF08B4201D3CB00C01A524183088B4201D3C2
S31508002C008B00C01A5241D9D243088B4201D34B00DC
S31508002C10C01A5241411A00D20146634652415B101E
S31508002C20104601D34042002B00D5494270476346FF
S31508002C305B1000D3404201B50020C046C04602BD25
S31508002C40704770477047754600F024F8AE46050091
S31508002C5069465346C008C000854618B020B5FFF738
S31508002C608DFE60BC00274908B6460026C0C5C0C50B
S31508002C70C0C5C0C5C0C5C0C5C0C5C0C5403D490062
S31508002C808D46704710B50446C046C0462046FFF735
S31508002C9062FE10BD00487047F00000200149182068
S31508002CA0ABBEFEE72600020070470000BFF34F8F59
S31508002CB004490348C860BFF34F8F00BFFDE7000013
S31508002CC00400FA0500ED00E010B500F005F810BDA7
S31508002CD010B500F03BF810BD70B51A4C00256078A9
S31508002CE0194E00280ED020783018401C00F040FFFE
S31508002CF0012817D000F09CFF61686431884200D92A
S31508002D00657070BD104800F033FF0128F9D130789E
S31508002D10401E3F28F5D800F08BFF606001206070E8
S31508002D20257070BD2078401CC0B220703178814271
S31508002D30F7D165707178FF29F3D10228F1D1FFF731
S31508002D40B5FF0000100000202000002010B50B4839
S31508002D5009490160E1210902416000218160C160E1
S31508002D60016181610C224261C1610122D2020262C3
S31508002D70416200F0D1FD10BD00440040640000200F
S31508002D80F0B5002288E001249440A4462340002B95
S31508002D907ED04C68022C01D0122C0CD1D408A40089
S31508002DA027183D6A5407E40E0F26A640B5430E6958
S31508002DB0A6402E433E62066855000324AC40A6434F
S31508002DC00F79BF07BF0FAF40374307604E68012E24
S31508002DD005D0022E03D0112E01D0122E0ED18668F0
S31508002DE0A643CF68AF403743876047686646B74310
S31508002DF00E79F606F60F96403E434660C668A64329
S31508002E008C68AC403443C4604C68E40043D59508EC
S31508002E10244CAD002F193D6E9407E40E0F26A640EC
S31508002E20B54305263607B04201D100260FE01E4EEF
S31508002E30B04201D101260AE01C4EB04201D1022659
S31508002E4005E01B4EB04201D1032600E00526A64048
S31508002E502E43144D3E66134E803634689C434F68A5
S31508002E60FF0300D51C43346074689C434F68BF0356
S31508002E7000D51C4374602C689C434E68F60200D546
S31508002E801C432C606C689C434E68B60202D500E071
S31508002E9001E01C436C60521C0B681C46D44000D0F1
S31508002EA071E7F0BD00180240000400500008005009
S31508002EB0000C0050002A01D081617047816270477A
S31508002EC001488068704700000400002002488168B5
S31508002ED042688918816070470400002010B50024F4
S31508002EE007480168821511430160002000F00AF8BE
S31508002EF0002801D0012401E000F02CF8204610BD7E
S31508002F000020024070B505460024104E716800295D
S31508002F1019D07D20C000FFF7E6FD01460C48006881
S31508002F20FFF7E1FD00F0DCFC002801D001240BE0EE
S31508002F30042D06D200222946501E00F055F83560A9
S31508002F4002E0012400E00124204670BD04000020B0
S31508002F5000000020F0B587B022480168012421430B
S31508002F6001600068204001901E484038416B2143AB
S31508002F704163416B21400191416B02263143416314
S31508002F80416B31400191C26B61040A43C263C06B55
S31508002F900840019000221146501F00F025F8002233
S31508002FA01146901E00F020F800221146501E00F02F
S31508002FB01BF8202002900394002504950595052703
S31508002FC03F0702A93846FFF7DBFE0C20029003965E
S31508002FD004950595069402A93846FFF7D1FE07B071
S31508002FE0F0BD00004010024010B500F09FFD10BD76
S31508002FF010B50F4C21680322520291430143216008
S31508003000C11FFF39FA390ED10A480621006848431C
S315080030100949FFF768FD401C02E0002805D0401E5C
S3150800302061694905F9D4002010BD032010BD0000D0
S31508003030007000400000002040420F00F0B585B047
S3150800304004460025002002902068784E784F8003B9
S3150800305062D500200190F86BC00008D4F86BB10562
S315080030600843F863F86B0840009001200190714806
S315080030700168821511430160FFF722FF039007E0FC
S31508003080FFF71EFF0399401A022801D9032503E01A
S3150800309068480068C005F3D5002D04D0029501984C
S315080030A0012834D038E0F0690321090208400028D5
S315080030B00FD0216B81420CD0F069032109028843A5
S315080030C0F269012109040A43F261F2698A43F2614D
S315080030D0F061C0070FD0FFF7F3FE039008E0FFF793
S315080030E0EFFE0399411A5448814201D9032502E0AB
S315080030F0F0698007F3D5002D01D00295CFE7F06976
S31508003100032109028843216B0843F061C7E7F86B7E
S31508003110012109078843F8632078C00705D070693C
S31508003120616880088000084370612078800705D5AB
S3150800313070690C218843A16808437061207880066D
S3150800314006D57069032189028843E16808437061DE
S315080031502088800506D57069032189048843A169FA
S31508003160084370612088400506D570690321090562
S315080031708843E169084370612078400606D570697E
S3150800318003210903884321690843706120884004A4
S315080031900ED57069216A8000800808437061012194
S315080031A0206A8907884203D1F86889130843F860BA
S315080031B02068000305D5706940218843616A084381
S315080031C07061206881021D480BD571698210A36A57
S315080031D0914319437161A16A914202D1F968014389
S315080031E0F960216849020AD57169E26A8143114387
S315080031F07161E16A814202D1F9680143F960208868
S3150800320000050FD57069032189038843616908435E
S315080032107061012061698003814203D1F8688900E1
S315080032200843F860029805B0F0BD0000401002405F
S3150800323000100240007000408813000000000001E2
S31508003240F8B504460D46002C0FD0544800684007D0
S31508003250400FA84218D2514F3868C008C00028430A
S315080032603860FFF72DFE064609E00120F8BDFFF796
S3150800327027FE811B4A48814201D90320F8BD3868D8
S315080032804007400FA842F2D12068464E81070DD567
S31508003290400704D5B068072109030843B060B06841
S315080032A00F2109028843A1680843B0602078C00747
S315080032B03BD0606801280CD002280FD0002812D015
S315080032C038494031032813D0C969890715D4012024
S315080032D0F8BD3168890310D40120F8BD3168890129
S315080032E00BD40120F8BD3168490506D40120F8BD84
S315080032F0096A890701D40120F8BDB168C908C9005F
S315080033000143B160FFF7DCFD074607E0FFF7D8FD8C
S31508003310C11B2348814201D90320F8BDB068382172
S3150800332008406168C9008842F0D11C48016849070D
S31508003330490FA94216D90168C908C900294301607D
S31508003340FFF7BEFD074607E0FFF7BAFDC11B1448A5
S31508003350814201D90320F8BD104800684007400F94
S31508003360A842F1D12078400706D5B16807200003A6
S315080033708143E0680143B16000F036F8B1683C2249
S3150800338089091140084A515CC906C90EC84007494F
S31508003390086007480068FFF7B5FDF8BD0020024041
S315080033A08813000000100240304800080000002082
S315080033B00400002001480068704700000000002053
S315080033C000B5FFF7F7FF064989680722120311407F
S315080033D0090B044A8900515CC906C90EC84000BDDC
S315080033E0001002407048000810B5244CA068244A12
S315080033F08006400F16D0A0688006410F501001299C
S315080034000FD0A1688906490F022914D0A068800642
S31508003410400F04282CD0A0688006400F03282AD025
S31508003420002010BD206801218004400F814010460D
S31508003430FFF759FB10BDE1688B079B0FE16849064A
S31508003440490F491C032B0CD01046FFF74CFBE168CB
S315080034504904490E4843E168490F491CFFF743FBF5
S3150800346010BDFFF740FBE1684904490E4843F2E7FF
S315080034700120C00310BD7D20000210BD00100240CF
S315080034800024F400FEB50446002C0DD02078382719
S31508003490C007FE4E002851D0B0683840F168890749
S315080034A0890F102802D003E00120FEBD03290AD0A7
S315080034B0082808D001216068090488420BD13068C1
S315080034C0084330601AE03068800337D56068002802
S315080034D034D10120FEBD052301221B049204984223
S315080034E006D130681043306030680843306005E024
S315080034F030688843306030689043306060680028E0
S315080035000ED0FFF7DDFC054606E0FFF7D9FC401BA9
S31508003510642801D90320FEBD30688003F5D50DE087
S31508003520FFF7CEFC054606E0FFF7CAFC401B6428F9
S3150800353001D90320FEBD30688003F5D420788007C2
S315080035406DD5B0683840F1688A07920F0721C9021D
S31508003550102801D1022A12D0002810D0E0680028CD
S315080035604AD0306888432169084330603068FF21B3
S31508003570013108433060FFF7A3FC054630E03268A6
S31508003580520502D5E268002A0AD072687F231B0218
S315080035909A4363691B021A437260002802D010E03E
S315080035A00120FEBD306888432169084330603068D1
S315080035B001218004400F8140B548FFF794FAB549C8
S315080035C00860B5480068FFF79DFC002827D0012051
S315080035D0FEBDFFF775FC401B022801D90320FEBD7E
S315080035E030684005F5D570687F210902884361690E
S315080035F009020843706012E03168FF2001308143F8
S315080036003160FFF75DFC054606E0FFF759FC401BF5
S31508003610022801D90320FEBD30684005F5D420787C
S315080036209E4D000734D5B0688006400F03280AD09F
S31508003630A06900281AD0286A012108432862FFF7E2
S315080036403FFC07460EE0286A800721D5A0690028B6
S315080036501ED10120FEBDFFF733FCC01B022801D98D
S315080036600320FEBD286A8007F5D511E0286A4008C0
S3150800367040002862FFF724FC074606E0FFF720FC17
S31508003680C01B022801D90320FEBD286A8007F5D48D
S315080036902078400776D500200190B0688006400F54
S315080036A0042818D0F06BC00009D4F16B012000077C
S315080036B00143F163F16B01400091012001907848C4
S315080036C00168C9051AD40168821511430160FFF71C
S315080036D0F7FB07460EE0E869800753D5A06800287F
S315080036E050D10120FEBDFFF7EBFBC01B022801D914
S315080036F00320FEBD6A480068C005F4D5A068012805
S3150800370010D00421052812D0E86940084000E86175
S31508003710E8698843E861A06800281CD0FFF7D0FB59
S31508003720074614E0E86901210843E861F3E7E86918
S315080037300843E861E86901210843E861EBE7FFF718
S31508003740BFFBC11B5748814201D90320FEBDE8696A
S315080037508007F4D50EE0FFF7B3FB074607E0FFF74F
S31508003760AFFBC11B4F48814201D90320FEBDE86962
S315080037708007F4D40198012804D1F06B01210907C8
S315080037808843F063E06900284FD0B1688906490F7D
S31508003790022956D001273F0602280ED03068B843C2
S315080037A03060F06880088000F060F0683E490840A4
S315080037B0F060FFF785FB04463FE03068B8433060A9
S315080037C0FFF77EFB054606E0FFF77AFB401B02285B
S315080037D001D90320FEBD30688001F5D4616A206AEC
S315080037E0A26A0843E16A120211430843216B08439F
S315080037F0616B0843F1682D4A11400843F060306850
S3150800380038433060F068012109070843F060FFF784
S3150800381057FB044606E0FFF753FB001B022801D9B5
S315080038200320FEBD30688001F5D546E0FFF748FB6A
S31508003830001B022801D90320FEBD30688001F5D49B
S315080038403BE0012837D0F068226A8107890F914248
S315080038502FD17021626A014091422AD17F21A26A42
S31508003860090201401202914223D11F214904E26A4A
S31508003870014091421DD107214906226B0140914220
S3150800388017D1400F616B4007884211E000100240D3
S315080038900024F4000000002004000020401002402C
S315080038A00070004088130000FFFFFEEE8C80C111F7
S315080038B003D00120FEBD0120FEBD0020FEBD000094
S315080038C004220549042803D0086990430861704713
S315080038D0086910430861704700E000E0704700007F
S315080038E010B50949401E884201D9012010BD074C70
S315080038F060610321081F00F019F90020A061072064
S315080039002061002010BD0000FFFFFF0000E000E07E
S3150800391010B5FFF7E3FF10BD70B50446002C06D0BE
S315080039202046803005460068002802D007E00120BE
S3150800393070BD00217C200155204600F028F824207F
S31508003940286020680168490849000160204600F09F
S315080039501FFA012819D0A06A002802D0204600F0D4
S315080039607DF9206841680922D202914341602068A6
S3150800397081682A22914381602068016801221143E7
S315080039800160204600F0D0F970BD012070BD704777
S31508003990FFB585B005460F46164628468030049082
S315080039A04068202802D0022009B0F0BD002F0AD0B6
S315080039B0002E08D00120A9680003814209D1286990
S315080039C0002802D005E00120EEE7F80701D0012023
S315080039D0EAE7284660300390007F01281AD003984A
S315080039E0012101770499002088600498222141600A
S315080039F0FFF766FA01902C464034A683E683012138
S31508003A00A8680903FF22884209D12B69002B03D035
S31508003A1022841CE00220C7E7274A228417E07F2376
S31508003A20002809D00122120790420ED12A69002ADD
S31508003A3009D03F2222840AE02E69002E01D0238471
S31508003A4005E0228403E0238401E000222284228CFC
S31508003A500292884202D12869002802D03E460027F1
S31508003A6018E0002616E00898009000222021284633
S31508003A70019B00F097FE002801D0032094E7002E52
S31508003A8012D02868416A029801403170761CE08B92
S31508003A90401EE083E08B0028E5D104982021416090
S31508003AA00399002008777FE72868406A029908404A
S31508003AB03880BF1CEBE70000FF01000010B500F0DE
S31508003AC0A5FEFFF70BFA00F069F800F0B5F800F06C
S31508003AD001F810BD10B50520002220210007FFF7C8
S31508003AE0E9F910BD70B500F0A3F804460E4DFF21A4
S31508003AF06868F531201A88420CD3287805231B07F5
S31508003B00002808D000202870002220211846FFF738
S31508003B10D1F96C6070BD0120287001222021184659
S31508003B20FFF7C8F9F5E70000180000208307FF2211
S31508003B30DB0E9A408907090E994000280BDA000720
S31508003B40000F0838830808489B001818C369934370
S31508003B500B43C3617047830804489B001818036821
S31508003B6093430B430360704700ED00E000E400E078
S31508003B7010B50146002301220448FFF709FF002873
S31508003B8001D0002010BD012010BD000064000020F7
S31508003B9010B5FFF79BF9FFF7BBFE10BD30B59FB018
S31508003BA0382111A8FEF79DFF00240D940E940F945A
S31508003BB0109434216846FEF794FF01204002FFF76F
S31508003BC017FA02251195E8011490159440201690CD
S31508003BD01895199530211A911B90C0021C90000265
S31508003BE01D9048061E9011A8FFF74CFC002800D02F
S31508003BF0FEE707200D900E950F94109402210DA84C
S31508003C00FFF71EFB002800D0FEE7009502946846E1
S31508003C10FFF714FA002800D0FEE71FB030BD0000F9
S31508003C2001200249C00688607047000000ED00E0E8
S31508003C3010B5FFF745F910BD10B5FFF7BBFB7D21A1
S31508003C40C900FEF750FFFFF74BFE0420FFF738FECA
S31508003C5000221146501EFFF7C7F910BD10B5018D99
S31508003C60C90707D001684A6801235B049A43C36AF7
S31508003C701A434A60018D890707D501684A680123F6
S31508003C801B049A43036B1A434A60018D490707D5FB
S31508003C9001684A6801239B049A43436B1A434A60A6
S31508003CA0018D090707D501684A680123DB039A4392
S31508003CB0836B1A434A60018DC90607D501688A686D
S31508003CC001231B039A43C36B1A438A60018D890635
S31508003CD007D501688A6801235B039A43036C1A4374
S31508003CE08A60018D490612D501684B6801221205C2
S31508003CF0446C934323434B60416C914207D101685E
S31508003D004A6803235B059A43836C1A434A60018D0C
S31508003D10090607D501684A680123DB04C06C9A4383
S31508003D2002434A6010BD0000FEB50446254600263B
S31508003D308035AE60FFF7C4F8019020680068134F1D
S31508003D4000070BD501210097002249052046019B53
S31508003D5000F028FD002801D00320FEBD2068006879
S31508003D6040070BD501210097002289052046019BB3
S31508003D7000F018FD002801D00320FEBD2020286091
S31508003D806860603426770020FEBD0000FFFFFF0153
S31508003D90F8B504460027002500202168A368226993
S31508003DA0E6691343626932431343626E1A430B682A
S31508003DB0FD4E334013430B6021684A6803231B03F7
S31508003DC09A43E3681A434A60A169F84B22689A4203
S31508003DD001D0236A19439368F54E33400B43936029
S31508003DE02168CA6A636A120912011A43CA62F14B48
S31508003DF02168F14A994213D152699207920F07D066
S31508003E00012A09D0022A05D0032A07D0102642E043
S31508003E10002640E002263EE004263CE008263AE07A
S31508003E20E64B994213D152690C231A4007D0042A4B
S31508003E3009D0082A05D00C2A07D010262BE0002620
S31508003E4029E0022627E0042625E0082623E0DC4BA5
S31508003E50994201D100261EE0DA4B994201D100268B
S31508003E6019E0D24B994215D1526903239B021A4095
S31508003E700AD00B15D21A0BD0D21A07D09A4201D102
S31508003E80082608E0102606E0002604E0022602E0DE
S31508003E90042600E01026C54A91426ED1002E14D0A1
S31508003EA0022E4CD0042E69D0082E68D00125002891
S31508003EB00AD0616800914A008918814203D800999E
S31508003EC00903814270D201252FE2FFF779FA0246EB
S31508003ED0606A00281AD001281AD002281AD00328A6
S31508003EE01AD004281AD005281AD006281AD0072866
S31508003EF01AD008281AD009281AD00A281AD00B2846
S31508003F001AD001211046FEF7EEFDD0E70121F9E7A8
S31508003F100221F7E70421F5E70621F3E70821F1E78F
S31508003F200A21EFE70C21EDE71021EBE72021E9E76D
S31508003F304021E7E78021E5E7FF210131E2E7606AF2
S31508003F4000281DD001281DD002281DD003281DD009
S31508003F5004281DD005281DD006281DD007281DD0E9
S31508003F6008281DD009281DD00A281ED00B281ED0C7
S31508003F7001219548FEF7B7FD99E7D7E11AE053E026
S31508003F800121F6E70221F4E70421F2E70621F0E72A
S31508003F900821EEE70A21ECE70C21EAE71021E8E719
S31508003FA02021E6E74021E4E776E08021E1E7FF21EA
S31508003FB00131DEE7FFF718FA0246606A00281AD0D0
S31508003FC001281AD002281AD003281AD004281AD091
S31508003FD005281AD006281AD007281AD008281AD071
S31508003FE009281AD00A281AD00B281AD001211046F7
S31508003FF0FEF779FD5BE70121F9E70221F7E70421DE
S31508004000F5E70621F3E70821F1E70A21EFE70C2196
S31508004010EDE71021EBE72021E9E74021E7E78021DA
S31508004020E5E7FF210131E2E7606A00281BD0012895
S315080040301BD002281BD003281BD004281BD0052818
S315080040401BD006281BD007281BD008281BD00928F8
S315080040501BD00A281BD00B281BD001210120C00326
S31508004060FEF741FD23E70121F8E70221F6E70421DF
S31508004070F4E70621F2E70821F0E70A21EEE70C212A
S31508004080ECE71021EAE72021E8E74021E6E780216E
S31508004090E4E7FF210131E1E7002E0FD0022E54D0CC
S315080040A0042E7DD0082E7CD0012503200002474926
S315080040B0381A884276D82068C76069E3FFF780F91E
S315080040C00026626A3146002A26D0012A26D0022A0C
S315080040D026D0032A26D0042A26D0052A26D0062A40
S315080040E026D0072A26D0082A26D0092A26D00A2A20
S315080040F026D00B2A26D001220023FEF753FC020EF7
S315080041000902114362680302500818187141002316
S31508004110FEF748FC0746C8E70122EDE70222EBE76F
S315080041200422E9E70622E7E70822E5E70A22E3E7A9
S315080041300C22E1E71022DFE72022DDE74022DBE759
S315080041408022D9E7FF220132D6E7606A002843D0E9
S31508004150012843D0022843D0032843D0042843D05B
S31508004160052843D0062843D0072843D0082843D03B
S31508004170092843D00A2843D00B2843D00122002619
S31508004180334611483146FEF70DFC020E090211436B
S31508004190020200984008101871410023009A17E09F
S315080041A033E079E0C0E00000F369FFCF008000400B
S315080041B0FFF4FF110038014040100240004400405F
S315080041C000480040004C00400024F400FFFC0F00AB
S315080041D0FEF7E8FB074668E70122D0E70222CEE7AA
S315080041E00422CCE70622CAE70822C8E70A22C6E75D
S315080041F00C22C4E71022C2E72022C0E74022BEE70D
S315080042008022BCE7FF220132B9E7FFF7EDF8002666
S31508004210626A3146002A26D0012A26D0022A26D0EA
S31508004220032A26D0042A26D0052A26D0062A26D0EE
S31508004230072A26D0082A26D0092A26D00A2A26D0CE
S315080042400B2A26D001220023FEF7ACFB020E090238
S315080042501143626803025008181871410023FEF7DB
S31508004260A1FB074621E70122EDE70222EBE704223C
S31508004270E9E70622E7E70822E5E70A22E3E70C2250
S31508004280E1E71022DFE72022DDE74022DBE7802294
S31508004290D9E7FF220132D6E7606A00282BD0012829
S315080042A02BD002282BD003282BD004282BD0052866
S315080042B02BD006282BD007282BD008282BD0092846
S315080042C02BD00A282BD00B282BD001220026012020
S315080042D03346C0033146FEF765FB020E0902114359
S315080042E0020200980023400810187141009AFEF750
S315080042F059FB0746D9E60122E8E70222E6E7042247
S31508004300E4E70622E2E70822E0E70A22DEE70C22D3
S31508004310DCE71022DAE72022D8E74022D6E7802217
S31508004320D4E7FF220132D1E7012531E20120E16914
S31508004330C00381427CD1002E14D0022E53D0042E05
S3150800434077D0082E76D001253846FF49103888429E
S3150800435071D83846491C08403907490F0143206877
S31508004360C16015E2FFF72CF80246606A002821D0E2
S31508004370012821D0022821D0032821D0042821D0C1
S31508004380052821D0062821D0072821D0082821D0A1
S31508004390092821D00A2821D00B2821D0012110462E
S315080043A0FEF7A1FB616840004A088018FEF79BFBF0
S315080043B087B2C9E70121F2E70221F0E70421EEE717
S315080043C00621ECE70821EAE70A21E8E70C21E6E7F7
S315080043D01021E4E72021E2E74021E0E78021DEE73B
S315080043E0FF210131DBE7606A002825D0012825D0A6
S315080043F0022825D0032825D0042825D0052825D02D
S31508004400062825D0072825D0082825D0092825D00C
S315080044100A2825D00B2825D00121CC48FEF763FBB6
S31508004420616840004A088018FEF75DFB87B28BE793
S315080044309BE01AE05AE096E00121EEE70221ECE75C
S315080044400421EAE70621E8E70821E6E70A21E4E786
S315080044500C21E2E71021E0E72021DEE74021DCE736
S315080044608021DAE7FF210131D7E7FEF7BDFF0246D3
S31508004470606A002821D0012821D0022821D00328EB
S3150800448021D0042821D0052821D0062821D00728A4
S3150800449021D0082821D0092821D00A2821D00B2884
S315080044A021D001211046FEF71EFB616840004A082C
S315080044B08018FEF718FB87B246E70121F2E70221CA
S315080044C0F0E70421EEE70621ECE70821EAE70A21EE
S315080044D0E8E70C21E6E71021E4E72021E2E740219E
S315080044E0E0E78021DEE7FF210131DBE7616A002989
S315080044F020D0012920D0022920D0032920D0042940
S3150800450020D0052920D0062920D0072920D008291F
S3150800451020D0092920D00A2920D00B2920D0012112
S31508004520FEF7E1FA616840004A088018FEF7DBFAF0
S3150800453087B209E70121F3E70221F1E70421EFE752
S315080045400621EDE70821EBE70A21E9E70C21E7E771
S315080045501021E5E72021E3E74021E1E78021DFE7B5
S31508004560FF210131DCE7012512E1002E0ED0022ED3
S315080045704CD0042E70D0082E6FD0012538467249CB
S31508004580103888426AD82068C76001E1FEF718FF2C
S315080045900246606A002820D0012820D0022820D0B0
S315080045A0032820D0042820D0052820D0062820D08B
S315080045B0072820D0082820D0092820D00A2820D06B
S315080045C00B2820D001211046FEF78DFA61684A08AB
S315080045D08018FEF788FA87B2D0E70121F3E70221AF
S315080045E0F1E70421EFE70621EDE70821EBE70A21C9
S315080045F0E9E70C21E7E71021E5E72021E3E7402179
S31508004600E1E78021DFE7FF210131DCE7606A002866
S3150800461020D0012823D0022823D0032823D0042819
S3150800462023D0052823D0062823D0072823D00828F6
S3150800463023D0092823D00A2823D00B2823D00121E8
S315080046404248FEF750FA61684A088018FEF74BFAA6
S3150800465087B293E70121F3E718E057E097E00221D4
S31508004660EEE70421ECE70621EAE70821E8E70A2154
S31508004670E6E70C21E4E71021E2E72021E0E7402104
S31508004680DEE78021DCE7FF210131D9E7FEF7ACFE42
S315080046900246606A002820D0012820D0022820D0AF
S315080046A0032820D0042820D0052820D0062820D08A
S315080046B0072820D0082820D0092820D00A2820D06A
S315080046C00B2820D001211046FEF70DFA61684A082A
S315080046D08018FEF708FA87B250E70121F3E70221AE
S315080046E0F1E70421EFE70621EDE70821EBE70A21C8
S315080046F0E9E70C21E7E71021E5E72021E3E7402178
S31508004700E1E78021DFE7FF210131DCE7616A002963
S3150800471024D0012924D0022924D0032924D004290D
S3150800472024D0052924D0062924D0072924D00829ED
S3150800473024D0092924D00A2924D00B2924D00121E0
S31508004740FEF7D1F9616803E0EFFF00000024F400EA
S315080047504A088018FEF7C7F987B20FE70121EFE785
S315080047600221EDE70421EBE70621E9E70821E7E75F
S315080047700A21E5E70C21E3E71021E1E72021DFE73D
S315080047804021DDE78021DBE7FF210131D8E701255C
S31508004790012120464030418501850020E0662067DA
S315080047A02846F8BDFFB581B004460E4617460A9D51
S315080047B009E0681C07D0FEF783FB0499401AA84253
S315080047C00CD8002D0AD02068C169304688431AD013
S315080047D00020B842EDD0002005B0F0BD2068016881
S315080047E0FF22A13291430160206881684908490087
S315080047F081602021204680300160416000206034BD
S3150800480020770320E8E70120E3E700000249014892
S31508004810886070470028000800ED00E0FFF74EF9B1
S31508004820FEF756FAFFF75EF9FEF74EFAFAE70000CA
S31508004830000000000000000000000000000000006A
S31508004840000000000000000000000000000000005A
S315080048500100000002000000030000000400000040
S31508004860060000000700000008000000090000001C
S31508004870000000000000000000000000000000002A
S315080048800100000002000000030000000400000010
S31508004890B048000800000020200000000429000895
S315080048A0D048000820000020300700002029000812
S315080048B00024F400040000000100000000000000CD
S315080048C000000000000000000000000000000000DA
S705080028C109
