S02B0000433A2F576F726B2F736F6674776172652F4F70656E424C542F5461726765742F44656D6F2F41524DEF
S11300009C070020B9000000611600006116000082
S11300106116000061160000611600006116000000
S113002061160000611600006116000061160000F0
S113003061160000611600006116000061160000E0
S113004061160000611600006116000061160000D0
S113005061160000611600006116000061160000C0
S113006061160000611600006116000061160000B0
S113007061160000611600006116000061160000A0
S11300806116000061160000611600006116000090
S11300906116000061160000611600006116000080
S11300A06116000061160000611600006116000070
S10B00B0611600006116000056
S11300B82E49072291438D462D492E480A1A06D007
S11300C80722914381F30988022282F314882A487B
S11300D82A492B4A00F039F82A482B492B4A00F0C0
S11300E834F82B482B492C4A00F02FF82B482C497C
S11300F82C4A00F02AF82C482C492D4A00F025F8FF
S11301082C482D492D4A00F020F82D482D4900226D
S113011800F026F82C482D49091A082903DB002287
S11301280260043001601E481E49884205D00268F6
S1130138043003B4904703BCF7E700208646EC4636
S113014800200021224A9047FEE7884207D0521A2D
S113015805D0037801300B700131013AF9D17047A9
S1130168884202D002700130FAE770479C070020E9
S11301789C0700209C070020501900002001002043
S11301882C010020DC010000DC01000070160000D6
S11301983018000000000020200100207016000024
S11301A8701600007016000070160000701600002B
S11301B87016000070160000701600002D1800005C
S11301C82C0100201A0600201C0600209C06002092
S10701D87D1400008E
S11301DC004B18479908000010B50C4B984798B180
S11301EC0B4B98470B4C0C4B9847A0470B4B20F0F0
S11301FC604020F07F001860A0474468084B984783
S113020C2346BDE81040184710BD00BF410600004E
S113021CC9090000490600008D06000008ED00E045
S113022C9D080000F8B5013A054F4D1E5618441AA6
S113023CB54204D015F8013F6355B847F8E7F8BD4B
S113024C170A00002DE9F04105460C4F0C4E002412
S113025C4FF00C08B84708FB04F39959A94207D886
S113026C33445A680A44954202D2187ABDE8F081A4
S113027C01340F2CEED1FF20BDE8F081170A0000E9
S113028C701600002DE9F347134B05460068984798
S113029CFF2801D100201BE0DFF84080DFF84090FC
S11302AC0024261D2F68AB5904EB070A0193C047A1
S11302BC04220DEB02015046C8470028EAD1E2594A
S11302CC019B9A42E6D1B6F5007F3446E9D1012070
S11302DC02B0BDE8F08700BF51020000170A00000D
S11302EC0100002038B5114B044698420D4606D047
S11302FCB1F5005F05D00E4B984718B911E00D4CC1
S113030C00E01C46C5F308035BB923689D420AD080
S113031C20464FF4007240F8045B2946064B98477C
S113032C01E0002038BD204638BD00BF2C01002060
S113033C9102000030030020310200002DE9F84F37
S113034C9846036821F4FF76013304460D4617469C
S113035C26F0010606D140F8046B4FF400723146C6
S113036C184B984723689E4208D020463146164BBA
S113037C9847044610B90020BDE8F88FB9462368A5
S113038CDFF848A0ED1A2544DFF83CB0043506F537
S113039C0076D047231DEB1AB3F5007F06D3204615
S11303AC3146D84704460028E5D0051D19F8013B11
S11303BC05F8013BC9EB0803DF42EAD10120BDE893
S11303CCF88F00BF31020000F1020000170A000090
S11303DC08B5044B9847044A4FF0FF331360034AA3
S11303EC136008BD21140000300300202C010020F0
S11303FC2DE9F0410F4E04460D461746B047FF2831
S113040C15D0681E2044B047FF2810D024F4FF7385
S113041C23F00103084EB3F5005F3A462B46214600
S113042CB446BDE8F0410CBF0448054860470020C1
S113043CBDE8F08151020000490300002C010020AA
S113044C300300202DE9F84F394E0C460746B047CF
S113045C0546601E3844B0478542814602D90020C7
S113046CBDE8F88F6B1EDBB2FD2BF8D80F28F6D83D
S113047C304B1B78472B08D0492B06D0482B0CBF8C
S113048C4FF480564FF4006601E04FF40076DFF829
S113049CA880DFF8A8B00024C0470C2303FB04B3E6
S11304AC1A7A254FAA42DFF894A001D11D6804E002
S11304BC01340F2CF0D14FF0FF3500244FF00C0811
S11304CCB84708FB04A31A7A4A4501D11C6804E016
S11304DC01340F2CF4D14FF0FF344FF000084FF0DF
S11304EC0C0BB8470BFB08A31A7A4A4501D15B687D
S11304FC05E008F10108B8F10F0FF2D10023641BD9
S113050C1C44B4FBF6F4DFF83890A4B24FF00008A6
S113051C1FFA88F3A34208D2B8472846C84708F103
S113052C010835440028F3D099E70120BDE8F88F81
S113053C51020000FE81E00F170A00007016000043
S113054CAD0000200F4B07B51A68013216D09A681B
S113055C596842F2B8001144DA6811441A6911441A
S113056C5A6911449A691144DA698B185B4202AADC
S113057C42F8043D0421044B984700E0012003B0E9
S113058C5DF804FB2C010020FD0300004FF4005324
S113059C1A6842F204031B68134442F208021268FC
S11305AC134442F20C021268134442F21002116812
S11305BC42F2140212680B441A4442F218031B68E8
S11305CC134442F2B8021268D3420CBF012000203B
S11305DC704700000B4808B50368013304D10A487E
S11305EC0368013306D109E0084B98470028F6D17B
S11305FC002008BD054B98470028F9D0044B9847B8
S113060C012008BD2C0100203003002091020000C1
S113061C411400004FF4005070470000004B184781
S113062CDD030000004B1847FD030000004B184786
S113063C51040000004B184799050000004B184763
S113064C2106000010B5044B984718B1BDE81040C2
S113065C024B184710BD00BF51050000E105000016
S113066C43F2AF61044B00221A60596005219A6071
S113067C1960024B1A60704710E000E0340500204A
S113068C014B00221A60704710E000E0044B1B6819
S113069CDB0341BF034A136801331360704700BF87
S11306AC10E000E03405002008B5024B9847024BDB
S11306BC186808BD99060000340500207FB51D4B51
S11306CC1D4C0FCB8DE80F0001211C48A0471C4E7C
S11306DC0123042206210220B04701220023072112
S11306EC0220B047174E01211748A0470221174892
S11306FC174B98473046174B012198473046012138
S113070CA047154C002669462046144B8DF8006012
S113071C98474FF4165231462046114B9847032301
S113072C636504236363052120460E4B984704B08C
S113073C70BD00BF241700007D0F000000C2020032
S113074CC11200004015160000230400030012001F
S113075CCD110000510E000000440840B1130000FC
S113076C491300009513000040292DE9F8438046F5
S113077C0F4603D96C211948194B9847194CA36897
S113078CD80609D539462046174B9847174DA36808
S113079CD90605D4A847FAE770211048104B98479E
S11307AC124E4546B146C8EB05039BB29F4212D983
S11307BCB047A368DA0608D529780A480A4B984743
S11307CCA368DB0605D4C847FAE779210348044B30
S11307DC98470135E7E7BDE8F88300BF34170000FC
S11307ECA10800000044084005140000170A00008A
S11307FCF8B51E4D06462C781D489CB9C36A5B0798
S113080C01D4002430E01B4B98471B4B1870002874
S113081CF7D01A4B98471A4B18601A4B1C700123CB
S113082C2B7021E0C46A14F0040415D0154C114B40
S113083C27789847104923780F44787001330A7845
S113084CDBB29A422370DCD10F4B0131304698470E
S113085C00232B70012407E0084B9847084B1B68B6
S113086C64339842CDD92C702046F8BD380500204D
S113087C00440840F913000040050020B5060000B0
S113088C3C050020810500203102000072B670473F
S113089C62B6704708B5014CA047FDE7170A000083
S11308AC10B50B4B9847012811D00A4C2378012B17
S11308BC0DD1094B9847094B1B6803F5FA73984201
S11308CC05D300232370BDE81040054B184710BD19
S11308DC0D0A000082050020B506000084050020E6
S11308ECE5010000054B012210B51A70044B984722
S11308FCBDE81040034B1860034B184782050020D9
S113090CB506000084050020AD08000010B5074BA7
S113091C9847074B9847074B9847074B9847074B03
S113092C9847BDE81040064B184700BFDD01000096
S113093C150A00006D060000290600007909000064
S113094CF108000010B5054B9847054B9847054B2B
S113095C9847BDE81040044B184700BF170A000025
S113096C9906000099090000AD08000008B5044B75
S113097C9847044B9847044B00221A7008BD00BFDB
S113098C2D0A0000C90600002001002010B50748FC
S113099C074B9847012807D1BDE81040054B0022AE
S11309AC1A700248044B184710BD00BF880500207C
S11309BCFD07000020010020690A000070470000B8
S11309CC054B10B51B7813B9C9B2044B9847BDE855
S11309DC1040034B184700BF20010020750700008E
S11309EC590A0000034B1B78013B022B8CBF40209F
S11309FC0020704720010020004B1847F10900002B
S1130A0C004B1847490A000070477047034BFE22FD
S1130A1CDA7002221871A3F844207047C80500202C
S1130A2C054B00221A709A6483F84320A3F84420DF
S1130A3C9A705A70704700BFC8050020024B187892
S1130A4C003018BF01207047C8050020024B00225B
S1130A5C83F84320704700BFC80500202DE9F041FE
S1130A6C03780546FF2B814C18D1E3701023002228
S1130A7C012523717E4B62706271257098477D4EFF
S1130A8CA071B047E071B0470823000AA4F84430C1
S1130A9C794B20726572A5729847CFE02678012EA7
S1130AAC40F0E180F32B53D01ED8CF2B00F0BA804A
S1130ABC05D8C92B7FD0CC2B00F0BB80BBE0D12B4D
S1130ACC00F0AA80C0F08A80D22B40F0B480FF23BF
S1130ADC0025E370664B257165719847E571A0712B
S1130AEC25726572072394E0FA2B46D00AD8F52BAD
S1130AFC11D019D3F62B40F09E80FF23E37043688A
S1130B0CA36493E0FD2B47D0FE2B50D0FC2B40F07C
S1130B1C9280002090E0564B98476A78904201DC12
S1130B2C222089E0A16C07E0514B98476B789842DE
S1130B3CF6DD6968A1646A78504B201D9847FF2341
S1130B4CE3706B78A26C1344A3646B78013360E09C
S1130B5CFF23E370A26C4168002311448A4204D041
S1130B6C12F8010B0344DBB2F8E7C4F80730012395
S1130B7C237100236371A3710CE0FF23E370404BDA
S1130B8C0722A364002323716371A371E27123729E
S1130B9C6372A37208233CE0FF236278E3700023A2
S1130BAC2371A371E37123726271062331E0002374
S1130BBC2370637038E02E4FD4F84880B8476A1C11
S1130BCC411E304B40469847002832D0FF23E37037
S1130BDCB847A36C01381844A06427E0244B984709
S1130BEC6B78013898429BDDFF23E370A4F84460D2
S1130BFC697819B9244B984700BB1AE0AA1CA06C5D
S1130C0C204B1A4E9847A0B16B78B26C1344B36462
S1130C1C14E0A4F8443011E041681C4BA06C9847D4
S1130C2C10B906E01A4B9847FF23E370A4F844600C
S1130C3C04E0312000E02020164B984794F8433010
S1130C4C012B02D11020134B9847B4F944100748D8
S1130C5C002908DD012380F8433089B203300E4BA0
S1130C6CBDE8F0411847BDE8F08100BFC80500207D
S1130C7C050A0000F10900002906000031020000F9
S1130C8CB8170000310600005106000039060000B8
S1130C9CE5010000190A0000CD0900001B4AD36AC3
S1130CAC03F47053B3F5805F2AD0B3F5005F04D01E
S1130CBCB3F5006F04D1164B00E0164B186870475F
S1130CCCD36803F4E063B3F5007F13D005D89BB16C
S1130CDCB3F5807F12D110487047B3F5806F07D0FD
S1130CECB3F5A06F0FD0B3F5407F07D10B48704715
S1130CFC0B4870470B4870470B48704700207047EF
S1130D0C4FF4004070470948704700BF00800C4006
S1130D1C2801002024010020C0CF6A00809FD50048
S1130D2C406F4001C0D8A70040420F00003FAB0108
S1130D3C08B5054B9847054B5B6803F00F03D84087
S1130D4C034B186008BD00BFA90C000000800C40C8
S1130D5C1406002070474FF400407047014B18688C
S1130D6C704700BF240100200A4A536803F00701AE
S1130D7C03290CD8DFE801F00202070723F007036C
S1130D8C43F0010303E023F0070343F00303536030
S1130D9C704700BF00000C40104910B5104C114AAC
S1130DAC0144A14253680BD803F00701023901290D
S1130DBC23F0070394BF43F0030343F001030BE058
S1130DCC0949884208D803F007010239012923F0A4
S1130DDC070398BF43F00203536010BDFFDB0BFF06
S1130DECFF23F40000000C400024F400034B5A6D64
S1130DFCD20702D41A6D1042FCD1704700800C400B
S1130E0C0C4B40009B6A10B523FA00F000F0030071
S1130E1C022805D0032807D0012809D1064B00E08D
S1130E2C064BBDE810401847054B9847400810BDC9
S1130E3C002010BD00800C40630D0000690D000003
S1130E4C3D0D0000C0F30313013B10B50C46032BFE
S1130E5C7FD8DFE803F0020E2159B1FA81F43D4A40
S1130E6CE4B29368C4F11F0423F00F031C43946091
S1130E7C10BD394B9847B4FA84F4364AE4B253683B
S1130E8CC4F11F0423F00F031C435460334B9847E5
S1130E9CBDE81040324B1847324B984215D003F53D
S1130EACF633984221D0A3F57F33984251D10420D4
S1130EBC2D4B9847B1FA81F4264AE4B2936EC4F1EF
S1130ECC1F0423F00F031C430DE00420264B98470A
S1130EDCB1FA81F41F4AE4B2936EC4F11F0423F0F7
S1130EECF00343EA0414946610BD04201E4B984787
S1130EFCB1FA81F4174AE4B2936EC4F10F0423F4EB
S1130F0C407343EA0424EEE7184B984204D003F5EB
S1130F1C043398420ED010BD4020134B9847B1FABD
S1130F2C81F40C4AE4B2136FC4F11F0423F00303DD
S1130F3C1C430DE040200C4B9847B1FA81F4054A50
S1130F4CE4B2136FC4F11F0423F0300343EA041416
S1130F5C146710BD00800C40750D00003D0D0000A1
S1130F6CA50D000030140A00F90D00004005140012
S1130F7CC0F30322013A38B50346052A20D8DFE82A
S1130F8C02F0120306090C0F00200E4D0DE0002098
S1130F9C0D4D0AE001200D4D07E010200C4D04E02E
S1130FAC00200C4D01E00C4D0020C3F3043408B1B7
S1130FBC0A4B984705F1047304EBC3039B001960B7
S1130FCC38BD00BF44800C4040800C4058800C401D
S1130FDC60800C4078800C4008800C40F90D0000B7
S1130FEC00F00F000138032803D8DFE800F00416E2
S1130FFC202300207047124BDB6A03F47053B3F5C3
S113100C805F08D0B3F5005F16D0B3F5006F0CBF4A
S113101C04200520704703207047094B9B6A03F09A
S113102C0303013B022B09D8064AD05C7047044BDE
S113103C9B6A03E007207047022070470120704729
S113104C00800C40C017000000F47810B0F5402F5D
S113105C10B548D018D8B0F5802F32D009D8002854
S113106C6FD0B0F5003F6AD1394B9847394B9B6828
S113107C2EE0B0F5002F26D0B0F5202F2BD0B0F5F4
S113108CC02F5CD1002046E0B0F5A01F47D007D894
S113109CB0F5602F2FD0B0F5901F50D101203AE05D
S11310ACB0F5C01F44D0B0F5D01F4ED0B0F5B01F72
S11310BC45D1294B01209847264B1B6FC3F30113D1
S11310CC34E0264B3EE0244B00209847214B9B6E8A
S11310DC03F00F032AE0204B002098471D4B9B6E16
S11310ECC3F3031322E01C4B00209847194B9B6E4F
S11310FCC3F301231AE0184B00209847154A936E4A
S113110CC3F3012320FA03F3D06F00F0070001307E
S113111CB3FBF0F010BD104BBDE8104018470E4B5C
S113112C012098470B4B1B6F03F00303D84010BDF1
S113113C0B480C4B9847072807D0082801D00020EF
S113114C10BD034BBDE810401847074810BD00BF45
S113115CA90C000000800C400D0E00003D0D000099
S113116C04001800ED0F0000809FD50010B4042873
S113117C20D8DFE800F00C09031106000420082332
S113118C0CE01020202309E04020802306E04FF4DB
S113119C80704FF4007301E001200223064C29B146
S11311AC206222B1E26A1342FCD000E02362034BBA
S11311BC10BC184710BC704700800C4095120000FE
S11311CC00F00F00012810B503D04ED3032822D908
S11311DC10BD0239032948D8DFE801F00B020508D9
S11311EC0120032407E00220044604E00320012428
S11311FC01E000200424012211461C4B98471C4B8F
S113120C98471C4B5C621C4B98471C4B9847BDE899
S113121C10401B4B1847022801F1FF310CBF00246E
S113122C0224052921D8DFE801F016030A20201135
S113123C01220E4B11460020984702230CE0012298
S113124C0A4B114610469847012305E00D4B012229
S113125C1A60032300E0002306480322816AA2409B
S113126C21EA0202A3401343836210BD79110000EA
S113127C750D000000800C40951200003D0D00001F
S113128CA50D000008089043024BDA6A024B1A8041
S113129C704700BF00800C401806002024235843DC
S11312AC00F1804000F5C040036823F003031943A8
S11312BC01607047F0B55AB124244443012504F16C
S11312CC80448D4004F5C0440BB1256100E0656198
S11312DC24244443072904F1804404F5C0440AD867
S11312EC67688D000F26AE4027EA060602FA05F55C
S11312FC354365600CE001F18045083DA768AD00FD
S113130C0F26AE4027EA060602FA05F53543A5601A
S113131C62B924225043012400F1804004FA01F103
S113132C00F5C0400BB10161F0BD4161F0BD036C2F
S113133CDB0702D4436C0B42FCD1704738B504462E
S113134C154661B90B4B984205D003F5806398425E
S113135C0FD1094800E00948094B98470146490157
S113136CB1FBF5F22046203A0421064BD2009847F3
S113137CE26038BD004008404015160040051400DA
S113138C551000003B130000CB435B0003F00A0331
S113139C41EA030210B50221014B9847426010BD8B
S11313AC3B13000070B50F4B0D46022104469847C1
S11313BC0A234360666C002EFCD10123236423684A
S11313CC297B6A7B23F01C030B431A43AB7B6968B0
S11313DC13432360AA68044B204698472B78636018
S11313EC266470BD3B1300004913000083689B0600
S11313FCFCD5C069C0B2704710B502460C46936860
S113140CDB06FCD540211046014B9847946210BD75
S113141C3B130000064B9A6842F001029A6041F6B5
S113142C7132DA639A6822F001029A60704700BF45
S113143C00000C40054B9A6842F001029A600022AD
S113144CDA639A6822F001029A60704700000C403B
S113145C06490B6903F03F0303708B6903F0F00238
S113146CCB69C3F30313134343707047D0FF0FE0EE
S113147C564B07B59847564B1B681B0E0ED1554A55
S113148C136823F070031360534B1A6822F0604204
S113149C1A601A6862F060621A6001E0032B0DD8BE
S11314AC4D4A136823F4FC53136002F500520023D5
S11314BC203213605360936113629363474B01A80A
S11314CC98479DF80430012B0FD19DF805302BB9AA
S11314DC434A136843F00203136001E0012B04D860
S11314EC404A136843F0010313603F4B1A683F4BA7
S11314FC9A4220D83B4C3E48236843F490432360E3
S113150C036801681B0403F0FE420368006803F4DB
S113151CFE45090400F07F032B4301F4FE010B4349
S113152C1343344A1360344B1A68344B1A602368DF
S113153C23F490432360012211460020304B98473A
S113154C304A314C136C002143F00F031364536C79
S113155C2E486FEA13436FEA03435364A0470021F8
S113156C2B48A04700212B48A04700212A48A0471C
S113157C00212A48A04700212948A04700212948D6
S113158CA04700212848A04700212848A047002153
S113159C2748A04700212748A04700212648A047F8
S11315AC00212648A04700212548A04701230522F5
S11315BC18460921234CA04702210120224B9847AD
S11315CC224B9847224CA047FDE700BF610D000059
S11315DCFC81E00F0CA00C4020600C405D1400005A
S11315EC40800C4044800C40F081E00FFFB98A4CE1
S11315FCB481E00F34200040C881E00F2C4000403F
S113160C7911000000800C407D0F000000030400E1
S113161C001304000033040000A2020000020200C4
S113162C00120200002202000032020000720200CA
S113163C0082020000B2020000E2020000F202008A
S113164C00D20200C1120000A91200001909000006
S113165C5109000038210148014B1847C3170000F9
S107166CA1080000CD
S113167000200000002000000100000000400000E5
S113168000200000020000000060000000200000B4
S1131690030000000080000000200000040000009F
S11316A000A00000002000000500000000C00000B1
S11316B0002000000600000000E000000020000000
S11316C007000000000001000020000008000000E6
S11316D0002001000020000009000000004001007B
S11316E0002000000A00000000600100002000004B
S11316F00B00000000800100002000000C0000002E
S113170000A00100002000000D00000000C0010046
S1131710002000000E00000000E001000020000096
S11317200F000000050000000000000080250000FC
S113173000000000433A2F576F726B2F736F66746B
S1131740776172652F4F70656E424C542F546172ED
S11317506765742F44656D6F2F41524D434D335F60
S113176045464D33325F4F6C696D65785F454D3347
S113177032473838304631323853544B5F43726FF6
S11317807373776F726B732F426F6F742F69646515
S11317902F2E2E2F2E2E2F2E2E2F2E2E2F536F75B3
S11317A07263652F41524D434D335F45464D33328D
S11317B02F756172742E63004F70656E424C540035
S11317C0030206433A2F576F726B2F736F66747759
S11317D06172652F4F70656E424C542F546172676D
S11317E065742F44656D6F2F41524D434D335F45F2
S11317F0464D33325F4F6C696D65785F454D3332CA
S1131800473838304631323853544B5F43726F7324
S113181073776F726B732F426F6F742F6964652FC8
S11018202E2E2F766563746F72732E630095
S1131830284BF0B51E469C68921044F001049C604D
S113184000254FF0010E4FF0080C9542214C3ADA76
S113185000EB85071F61C3F80CE0DF697F0706D53D
S1131860A3684FF0FF3023F00103A360F0BDDF69EC
S1131870BF0701D4184C08E0A3686FF0010023F0FF
S11318800103A360F0BDACB1013CDF6917F0080FA0
S1131890104FF8D074B151F82540B4610E4CC6F81D
S11318A00CC0DF6917F0010F0A4F02D014B1013CDC
S11318B0F7E734B9BB686FF0020023F00103BB60A3
S11318C0F0BD0135C1E7A368002023F00103A36044
S11318D0F0BD00BF00000C40809698001A4B10B574
S11318E09A6842F001029A6001221861DA60DA69AA
S11318F0510706D59A684FF0FF3022F001029A6032
S113190010BDDA69920706D59A686FF0010022F0DB
S113191001029A6010BD0222DA600C4AD8690A49B1
S113192010F001000C4602D012B1013AF6E732B9C8
S1131930A3686FF0020023F00103A36010BD8B685D
S113194023F001038B6010BD00000C4080969800CA
S10F195004000000008000000048E801D2
S90300B943
