S021000064656D6F70726F675F6F6C696D65785F73746D3332703430352E7372656398
S3150800800000000220919C0008E19C0008E19C000801
S31508008010E19C0008E19C0008E19C000800000000C3
S31508008020000000000000000000000000E19C0008BD
S31508008030E19C000800000000E19C0008199D00086A
S31508008040E19C0008E19C0008E19C0008E19C00080E
S31508008050E19C0008E19C0008E19C0008E19C0008FE
S31508008060E19C0008E19C0008E19C0008E19C0008EE
S31508008070E19C0008E19C0008E19C0008E19C0008DE
S31508008080E19C0008E19C0008E19C0008E19C0008CE
S31508008090E19C0008E19C0008E19C0008E19C0008BE
S315080080A0E19C0008E19C0008E19C0008E19C0008AE
S315080080B0E19C0008E19C0008E19C0008E19C00089E
S315080080C0E19C0008E19C0008E19C0008E19C00088E
S315080080D0E19C0008E19C0008E19C0008E19C00087E
S315080080E0E19C0008E19C0008E19C0008E19C00086E
S315080080F0E19C0008E19C0008E19C0008E19C00085E
S31508008100E19C0008E19C0008E19C0008E19C00084D
S31508008110E19C0008E19C0008E19C0008E19C00083D
S31508008120E19C0008E19C0008E19C0008E19C00082D
S31508008130E19C00080000000000000000E19C000827
S31508008140E19C0008E19C0008E19C0008E19C00080D
S31508008150E19C0008E19C0008E19C0008E19C0008FD
S31508008160E19C0008E19C0008E19C0008E19C0008ED
S31508008170E19C0008E19C00080000000000000000E7
S31108008180E19C0008E19C0008EE11AA55DD
S3150800818C10B5054C237833B9044B13B10448AFF337
S3150800819C00800123237010BD0C0000200000000095
S315080081AC6C9D000808B5034B1BB103490348AFF394
S315080081BC008008BD00000000100000206C9D00081F
S315080081CC53B94AB9002908BF00281CBF4FF0FF3124
S315080081DC4FF0FF3000F07AB9ADF1080C6DE904CE1A
S315080081EC00F006F8DDF804E0DDE9022304B0704778
S315080081FC2DE9F0478C460D460446089E002B51D1B6
S3150800820C8A4217466DD9B2FA82FEBEF1000F0BD020
S3150800821CCEF1200C01FA0EF520FA0CFC02FA0EF738
S3150800822C4CEA050C00FA0EF44FEA174A250CBCFB6F
S3150800823CFAF81FFA87F90AFB18CC45EA0C4508FB2D
S3150800824C09F3AB420AD9ED1908F1FF3280F0238104
S3150800825CAB4240F22081A8F102083D44ED1AA4B2C3
S3150800826CB5FBFAF00AFB105544EA054400FB09F97C
S3150800827CA14509D9E41900F1FF3380F00A81A1451B
S3150800828C40F2078102383C44A4EB090440EA084052
S3150800829C0021002E61D024FA0EF40023346073609A
S315080082ACBDE8F0878B4207D9002E54D0002186E80A
S315080082BC21000846BDE8F087B3FA83F1002940F09F
S315080082CC8E80AB4202D3824200F2FA80841A65EBA6
S315080082DC03050120AC46002E3FD086E81010BDE8F9
S315080082ECF08712B90127B7FBF2F7B7FA87FEBEF18A
S315080082FC000F34D1EB1B3A0C1FFA87FC0121B3FB98
S3150800830CF2F8250C02FB183345EA03450CFB08F377
S3150800831CAB4207D9ED1908F1FF3002D2AB4200F295
S3150800832CD1808046ED1AA3B2B5FBF2F002FB1055CC
S3150800833C43EA05440CFB00FCA44507D9E41900F1F3
S3150800834CFF3302D2A44500F2B8801846A4EB0C04FD
S3150800835C40EA08409DE731463046BDE8F087CEF145
S3150800836C200405FA0EF307FA0EF720FA04F83A0C6D
S3150800837C25FA04F448EA0308B4FBF2F14FEA184567
S3150800838C02FB11441FFA87FC45EA044501FB0CF372
S3150800839CAB4200FA0EF409D9ED1901F1FF3080F061
S315080083AC8A80AB4240F2878002393D44EB1A1FFAA9
S315080083BC88F5B3FBF2F002FB103345EA034500FBE4
S315080083CC0CF3AB4207D9ED1900F1FF386FD2AB426B
S315080083DC6DD902383D44EB1A40EA01418FE7C1F1E9
S315080083EC200722FA07F88B4005FA01F448EA03033A
S315080083FC20FA07FE4FEA134CFD404EEA040EB5FB75
S3150800840CFCF94FEA1E440CFB19551FFA83F844EA8B
S3150800841C054509FB08F4AC4202FA01F200FA01FA26
S3150800842C08D9ED1809F1FF3043D2AC4241D9A9F16C
S3150800843C02091D442D1B1FFA8EFEB5FBFCF00CFB26
S3150800844C10554EEA054400FB08F8A04507D9E41870
S3150800845C00F1FF3529D2A04527D902381C4440EA39
S3150800846C0940A4EB0804A0FB02894C45C6464D46B8
S3150800847C15D312D056B1BAEB0E0364EB050404FA05
S3150800848C07F7CB401F43CC40376074600021BDE82A
S3150800849CF0871846F8E69046E0E6C245EAD2B8EB0D
S315080084AC020E69EB03050138E4E72846D7E7404690
S315080084BC91E78146BEE7014678E702383C4445E732
S315080084CC084608E7A8F102083D442BE7704700BFA9
S315080084DC08B50848084B03604FF461434360002312
S315080084EC8360C360036183610C224261C36101F03E
S315080084FCF2F908BD50000020004400402DE9F04177
S3150800850C04460D461746984600F0F0FF154BA3FB9C
S3150800851C00308009002201E00132D2B2112A1ED89D
S3150800852C114B13F8121003EB420393F801E001EB1D
S3150800853C0E0303FB0443B0FBF3FC03FB1C06002EE3
S3150800854CEAD11FFA8CF32B80013B9BB2B3F5806FF3
S3150800855CE2D2397088F800E00120BDE8F0810020ED
S3150800856CBDE8F081D34D6210849D000830B58DB0FE
S3150800857C0025ADF82E508DF82D500CAB03F8045D84
S3150800858C0DF12D020DF12E014FF4FA70FFF7B6FF1F
S3150800859C1A4C1B4B236025766576A576E5762577EA
S315080085AC6577A560E5609DF82D30013B1B042361BA
S315080085BC9DF82C30013B1B056361BDF82E306360BA
S315080085CC204600F042F906950795012308934CF6C8
S315080085DCE042019202954FF6E0720392042204924D
S315080085EC059509930E230A930DEB0201204600F01C
S315080085FCD3F9204600F068FA0DB030BD28000020EB
S3150800860C0064004008B5002301220146034801F026
S3150800861C91F908B1002008BD012008BD50000020C2
S3150800862C08B5FFF755FFFFF7A1FF08BDBFF34F8F3E
S3150800863C0549CA6802F4E062044B1343CB60BFF3E6
S3150800864C4F8F00BFFDE700BF00ED00E00400FA0500
S3150800865C08B5214B1B78B3B92048FFF7D3FF01287F
S3150800866C00D008BD1D4B1B78013BDBB23F2BF8D85D
S3150800867C01F048FB1A4B18600122174B1A7000229E
S3150800868C184B1A7008BD174B1B780133134818443E
S3150800869CFFF7B8FF01280AD001F034FB104B1B6812
S315080086AC64339842DDD900220B4B1A70D9E70D4A70
S315080086BC13780133DBB21370084A12789342D0D17F
S315080086CC0021054A1170054A5278FF2AC9D1022B96
S315080086DCC7D1FFF7ABFF00BFD100002090000020E8
S315080086ECD4000020D200002000B58BB001AB03AA41
S315080086FC00210E4800F016FA30B940F26763039A67
S3150800870C9A4204D0002343B90BB05DF804FB059BD1
S3150800871C0BB10023F7E70123F5E79DF80430FF2B8F
S3150800872CF2D1079B022BEFD1FFF780FF2800002020
S3150800873C08B5FFF78DFFFFF7D7FF08BD08B501226F
S3150800874C4FF48051014800F0E3FB08BD00080240D5
S3150800875C10B501F0D7FA104B1B68C31AB3F5FA7F9C
S3150800876C0ED304460D4B1B785BB901220B4B1A70C2
S3150800877C00224FF480510A4800F0CAFB064B1C60D5
S3150800878C10BD0022054B1A7001224FF48051044883
S3150800879C00F0BEFBF2E700BFDC000020D80000208A
S315080087AC0008024010B504460E4B18784FF47A733D
S315080087BCB3FBF0F30C4A1068B0FBF3F000F096FA32
S315080087CC68B90F2C01D9012010BD002221464FF0A3
S315080087DCFF3000F059FA054B1C60002010BD012033
S315080087EC10BD00BF00000020080000200400002077
S315080087FC08B50B4B1A6842F400721A601A6842F4F0
S3150800880C80621A601A6842F480721A60032000F0BB
S3150800881C29FA0020FFF7C6FF01F08EF9002008BDE3
S3150800882C003C0240034A1168034B1B780B44136047
S3150800883C704700BFE000002000000020014B1868BC
S3150800884C704700BFE00000207047002800F0A180A8
S3150800885C38B5044690F82030D3B12268136823F053
S3150800886C02031360FFF7EAFF054623685A6812F0FD
S3150800887C020F10D0FFF7E2FF401B0A28F5D9636AEE
S3150800888C43F400336362052384F82030012038BD95
S3150800889CFFF7DAFFE1E71A6842F001021A60FFF700
S315080088ACCDFF054623685A6812F0010F0DD1FFF764
S315080088BCC5FF401B0A28F5D9636A43F40033636283
S315080088CC052384F82030012038BD227E012A3DD0AC
S315080088DC1A6822F080021A60637E012B3BD022684C
S315080088EC136823F040031360A37E012B39D022684A
S315080088FC136823F020031360E37E012B37D022681C
S3150800890C136843F010031360237F012B35D02268BC
S3150800891C136823F008031360637F012B33D0226896
S3150800892C136823F0040313602168A368E2681343F1
S3150800893C22691343626913436268013A1343CB6194
S3150800894C00206062012384F8203038BD1A6842F092
S3150800895C80021A60C0E72268136843F0400313606C
S3150800896CC2E72268136843F020031360C4E7226841
S3150800897C136823F010031360C6E72268136843F0E4
S3150800898C08031360C8E72268136843F004031360EE
S3150800899CCAE701207047000090F82030DBB2012BA3
S315080089AC0AD090F82030DBB2022B05D0436A43F488
S315080089BC802343620120704770B4424BD3F80022DF
S315080089CC42F00102C3F80022D3F8002222F47C52AA
S315080089DCC3F80022D3F80022486A42EA0022C3F8F8
S315080089EC00224A69012000FA02F2D3F81C42D0434D
S315080089FC0440C3F81C42CB69B3B9324BD3F80C42CA
S31508008A0C0440C3F80C424C69CE688D8845EA064585
S31508008A1C483443F834504D698E680C8844EA064449
S31508008A2C483503EBC5035C60CB69012B1DD08B69FC
S31508008A3C002B32D1234CD4F804320340C4F8043248
S31508008A4C0B698BBB1F4BD3F814422040C3F8140296
S31508008A5C0B6A012B2FD01B4AD2F8003223F00103E4
S31508008A6CC2F80032002070BC7047164BD3F80C4283
S31508008A7C1443C3F80C424C690E688D8845EA0645C2
S31508008A8C483443F834504D698E688C8944EA064458
S31508008A9C483503EBC5035C60C9E70A4CD4F80432C5
S31508008AAC1343C4F80432CBE70648D0F81432134300
S31508008ABCC0F81432CCE7034BD3F81C120A43C3F89C
S31508008ACC1C22C8E70064004038B590F82030DBB2A9
S31508008ADC012B05D0436A43F400234362012038BDB9
S31508008AEC0446022380F820300268136823F0010339
S31508008AFC1360FFF7A3FE054623685B6813F0010FA6
S31508008B0C0DD0FFF79BFE401B0A28F5D9636A43F480
S31508008B1C00336362052384F82030012038BD002019
S31508008B2C606238BD30B490F82040E4B2012C0BD00A
S31508008B3C90F82040E4B2022C06D0436A43F4802312
S31508008B4C4362012030BC704751B90468E46814F0DC
S31508008B5C030F07D1436A43F4001343620120F1E77C
S31508008B6C01295DD0056801F11B0424012C5904F078
S31508008B7C04049460002C5ED1056801F11B042401E1
S31508008B8C2C59640D1460056801F11B0424012D5938
S31508008B9CC5F34005D560056825446D6805F00F05D5
S31508008BAC1561056825446D68C5F307259561056843
S31508008BBC2C446468240C546104680A011444D4F8DF
S31508008BCCB8411C7004681444D4F8B841240A5C7083
S31508008BDC04681444D4F8B841240C9C7004681444F2
S31508008BECD4F8B841240EDC7004681444D4F8BC419B
S31508008BFC1C7104681444D4F8BC41240A5C710468DA
S31508008C0C1444D4F8BC41240C9C7104682244D2F850
S31508008C1CBC21120EDA71B1B101291BD0002091E7E3
S31508008C2C0468246914F0030F9CD1436A43F40013B7
S31508008C3C4362012086E7056801F11B0424012C59BF
S31508008C4CE40854609FE70268D36843F02003D360B6
S31508008C5C002077E70268136943F0200313610020AC
S31508008C6C70E70000074AD36823F4E0631B041B0C67
S31508008C7C000200F4E060184340F0BF6040F4003096
S31508008C8CD060704700ED00E030B4164BDB68C3F3D8
S31508008C9C0223C3F10704042C28BF04241D1D062D2A
S31508008CAC17D9033B012505FA04F4013C21409940E8
S31508008CBC05FA03F3013B1340194300280BDB0901A2
S31508008CCCC9B200F1604000F5614080F8001330BC71
S31508008CDC70470023E6E700F00F000901C9B2024B02
S31508008CEC1954F4E700ED00E014ED00E00138B0F19A
S31508008CFC807F0AD2064B5860F021064A82F8231068
S31508008D0C0020986007221A6070470120704700BF40
S31508008D1C10E000E000ED00E0042805D0054A1368D1
S31508008D2C23F0040313607047024A136843F00403E4
S31508008D3C1360704710E000E0704708B5FFF7FCFFBA
S31508008D4C08BD0000F0B583B000244BE04FEAD40E02
S31508008D5C0EF1080E50F82E2004F00706B6000F2761
S31508008D6CB74022EA07020F6907FA06F6324340F8BB
S31508008D7C2E2046E0072600E0002606FA0EF63243B9
S31508008D8C02335E4E46F823205D4B1A68EB4302EA23
S31508008D9C03064F6817F4803F01D045EA0206584A85
S31508008DAC1660526803EA02064F6817F4003F01D0B2
S31508008DBC45EA0206524A5660926803EA02064F686A
S31508008DCC17F4801F01D045EA02064D4A9660D26810
S31508008DDC13404E6816F4001F01D045EA0203484AB0
S31508008DECD36001340F2C00F286800123A3400A6855
S31508008DFC03EA0205AB42F4D14A68022AA6D0122A23
S31508008E0CA4D006684FEA440E032202FA0EF2D243A5
S31508008E1C16404F6807F0030707FA0EF73E4306603D
S31508008E2C4E68771E012F03D9112E01D0122E0FD1A1
S31508008E3C86681640CF6807FA0EF73E438660466882
S31508008E4C26EA03034E68C6F30016A640334343606E
S31508008E5CC3681A408B6803FA0EF31A43C2604B6850
S31508008E6C13F0805FBDD000230193264B5A6C42F455
S31508008E7C80425A645B6C03F480430193019BA308FC
S31508008E8C9E1C1E4A52F8262004F003064FEA860E4C
S31508008E9C0F2606FA0EF622EA06021B4FB8423FF4D4
S31508008EAC6BAF1A4EB0421AD006F58066B04218D08F
S31508008EBC06F58066B04216D006F58066B04214D028
S31508008ECC06F58066B04212D006F58066B04210D020
S31508008EDC06F58066B0423FF44DAF08264DE70126ED
S31508008EEC4BE7022649E7032647E7042645E7052606
S31508008EFC43E7062641E703B0F0BD00BF0038014042
S31508008F0C003C0140003802400000024000040240C8
S31508008F1C12B909048161704781617047002800F015
S31508008F2CBB8170B582B00446036813F0010F3BD0C1
S31508008F3CA74B9B6803F00C03042B2CD0A44B9B6803
S31508008F4C03F00C03082B21D06368B3F5803F4FD090
S31508008F5CB3F5A02F52D09E4B1A6822F480321A60B1
S31508008F6C1A6822F480221A606368002B50D0FFF727
S31508008F7C65FC0546964B1B6813F4003F14D1FFF7A6
S31508008F8C5DFC401B6428F5D903208AE1904B5B688D
S31508008F9C13F4800FD8D08E4B1B6813F4003F03D004
S31508008FAC6368002B00F07A81236813F0020F55D002
S31508008FBC874B9B6813F00C0F3ED0854B9B6803F0D0
S31508008FCC0C03082B33D0E368002B68D00122814BA5
S31508008FDC1A60FFF733FC05467D4B1B6813F0020F2E
S31508008FEC54D1FFF72BFC401B0228F5D9032058E176
S31508008FFC774A136843F480331360B5E7744B1A68E1
S3150800900C42F480221A601A6842F480321A60ABE77E
S3150800901CFFF714FC05466E4B1B6813F4003FC3D0D0
S3150800902CFFF70CFC401B6428F5D9032039E1684B83
S3150800903C5B6813F4800FC6D1654B1B6813F0020FDF
S3150800904C04D0E368012B01D001202AE1604A136899
S3150800905C23F0F803216943EAC1031360236813F06C
S3150800906C080F40D0636963B301225B4B1A60FFF7A4
S3150800907CE5FB0546564B5B6F13F0020F33D1FFF732
S3150800908CDDFB401B0228F5D903200AE1504A136878
S3150800909C23F0F803216943EAC1031360DEE70022D3
S315080090AC4C4B1A60FFF7CAFB0546494B1B6813F075
S315080090BC020FD3D0FFF7C2FB401B0228F5D90320B9
S315080090CCEFE00022444B1A60FFF7B8FB0546404B0D
S315080090DC5B6F13F0020F06D0FFF7B0FB401B02289C
S315080090ECF5D90320DDE0236813F0040F79D0384B4B
S315080090FC1B6C13F0805F33D100230193344B1A6C2D
S3150800910C42F080521A641B6C03F080530193019B46
S3150800911C0125324B1B6813F4807F23D0A368012BDF
S3150800912C34D0052B38D02A4B1A6F22F001021A6755
S3150800913C1A6F22F004021A67A368002B36D0FFF7C1
S3150800914C7DFB0646224B1B6F13F0020F48D1FFF727
S3150800915C75FB801B41F288339842F3D90320A0E0B3
S3150800916C0025D6E71D4A136843F480731360FFF78E
S3150800917C65FB0646194B1B6813F4807FCED1FFF7A7
S3150800918C5DFB801B0228F5D903208AE0104A136F71
S3150800919C43F001031367CFE70D4B1A6F42F0040235
S315080091AC1A671A6F42F001021A67C5E7FFF746FB02
S315080091BC0646074B1B6F13F0020F11D0FFF73EFB49
S315080091CC801B41F288339842F3D9032069E000BF2B
S315080091DC0038024000004742800E474200700040AB
S315080091ECE5B9A369002B5BD0304A926802F00C02F1
S315080091FC082A58D0022B17D000222D4B1A60FFF7DD
S3150800920C1DFB0446294B1B6813F0007F42D0FFF761
S3150800921C15FB001B0228F5D9032042E0234A136CE0
S3150800922C23F080531364DCE70022214B1A60FFF706
S3150800923C05FB05461D4B1B6813F0007F06D0FFF790
S3150800924CFDFA401B0228F5D903202AE0E369226AB5
S3150800925C1343626A43EA8213A26A5208013A43EA42
S3150800926C0243E26A43EA0263104A53600122104B36
S3150800927C1A60FFF7E3FA04460C4B1B6813F0007FE1
S3150800928C06D1FFF7DBFA001B0228F5D9032008E004
S3150800929C002006E0002004E001207047012000E0D1
S315080092AC002002B070BD0120FBE700BF0038024069
S315080092BC60004742F8B5314B9B6803F00C03042B4E
S315080092CC59D0082B01D02E48F8BD2C4B5A6802F001
S315080092DC3F025B6813F4800F2AD0284B5B68C3F3F4
S315080092EC88131E4600275C010025E41A65EB070562
S315080092FCA90141EA9461A001001B61EB0501CB00B1
S3150800930C43EA5073C400A01943EB07014B0243EA26
S3150800931CD0534402204619460023FEF751FF174B3B
S3150800932C5B68C3F3014301335B00B0FBF3F0F8BD94
S3150800933C124B5B68C3F388131E4600275C01002595
S3150800934CE41A65EB0705A90141EA9461A001001B23
S3150800935C61EB0501CB0043EA5073C400A01943EB3B
S3150800936C07018B0243EA90538402204619460023D0
S3150800937CFEF726FFD3E70348F8BD00BF00380240C6
S3150800938C0024F40000127A00002800F09D8070B5C5
S3150800939C04464F4B1B6803F00F038B4209D2CBB222
S315080093AC4B4A1370136803F00F03994201D001203E
S315080093BC70BD236813F0020F17D013F0040F04D0F6
S315080093CC444A936843F4E0539360236813F0080FF8
S315080093DC04D0404A936843F4604393603D4A9368CB
S315080093EC23F0F003A068034393600D46236813F03B
S315080093FC010F32D06368012B21D09A1E012A25D978
S3150800940C344A126812F0020F60D032498A6822F088
S3150800941C030213438B60FFF711FA06462D4B9B6824
S3150800942C03F00C036268B3EB820F16D0FFF706FA4B
S3150800943C801B41F288339842F0D9032070BD254A27
S3150800944C126812F4003FE0D1012070BD214A12685F
S3150800945C12F0007FD9D1012070BD1D4B1B6803F09B
S3150800946C0F039D4209D2EAB2194B1A701B6803F016
S3150800947C0F039D4201D0012070BD236813F0040F21
S3150800948C06D0144A936823F4E053E1680B439360BF
S3150800949C236813F0080F07D00E4A936823F4604329
S315080094AC216943EAC1039360FFF704FF094B9B68E4
S315080094BCC3F30313084AD35CD840084B1860002042
S315080094CCFFF770F9002070BD01207047012070BDB0
S315080094DC003C024000380240A89D00080800002005
S315080094EC014B1868704700BF0800002008B5FFF745
S315080094FCF7FF044B9B68C3F38223034AD35CD8401B
S3150800950C08BD00BF00380240B89D000808B5FFF733
S3150800951CE7FF044B9B68C3F34233034AD35CD8403A
S3150800952C08BD00BF00380240B89D00082DE9F04779
S3150800953C04460268136923F44053C1680B4313614C
S3150800954C0168CB6823F4164323F00C038268006980
S3150800955C024360690243E06902431343CB60226805
S3150800956C536923F44073A1690B435361E369B3F55B
S3150800957C004F62D0D4F80080BB4B984500F01B8195
S3150800958C03F58063984500F01681FFF7AFFF00EBF3
S3150800959C800000EB80006568AD00B0FBF5F5B34FB5
S315080095ACA7FB05356D092E01FFF7A0FF00EB800020
S315080095BC00EB80006568AD00B0FBF5FAFFF796FF87
S315080095CC00EB800000EB80006568AD00B0FBF5F59C
S315080095DCA7FB05356D094FF0640909FB15A52D0187
S315080095EC3235A7FB05356D0905F0F0053544FFF74F
S315080095FC7DFF00EB800000EB80006668B600B0FBD0
S3150800960CF6F6FFF773FF00EB800000EB800063684B
S3150800961C9B00B0FBF3F0A7FB0030400909FB10696F
S3150800962C4FEA091909F13209A7FB0937C7F343179A
S3150800963C2F44C8F80870BDE8F087D4F8008003F109
S3150800964C804303F5104398455CD003F58063984531
S3150800965C58D0FFF74BFF00EB800000EB80006568E5
S3150800966C6D00B0FBF5F5814FA7FB05356D092E018D
S3150800967CFFF73CFF00EB800000EB800065686D008F
S3150800968CB0FBF5FAFFF732FF00EB800000EB800029
S3150800969C65686D00B0FBF5F5A7FB05356D094FF050
S315080096AC640909FB15A5ED003235A7FB05356D09CF
S315080096BC6D0005F4F8753544FFF718FF00EB8000CC
S315080096CC00EB800066687600B0FBF6F6FFF70EFF37
S315080096DC00EB800000EB800063685B00B0FBF3F3E3
S315080096ECA7FB03235B0909FB13694FEAC90909F1AF
S315080096FC3209A7FB0937C7F342172F44C8F8087075
S3150800970CBDE8F087FFF702FF00EB800000EB800056
S3150800971C65686D00B0FBF5F5544FA7FB05356D096B
S3150800972C2E01FFF7F3FE00EB800000EB8000656866
S3150800973C6D00B0FBF5FAFFF7E9FE00EB800000EBD5
S3150800974C800065686D00B0FBF5F5A7FB05356D095E
S3150800975C4FF0640909FB15A5ED003235A7FB053555
S3150800976C6D096D0005F4F8753544FFF7CFFE00EB6F
S3150800977C800000EB800066687600B0FBF6F6FFF713
S3150800978CC5FE00EB800000EB800063685B00B0FB55
S3150800979CF3F3A7FB03235B0909FB13694FEAC90912
S315080097AC09F13209A7FB0937C7F342172F44C8F842
S315080097BC0870BDE8F087FFF7A9FE00EB800000EB08
S315080097CC80006568AD00B0FBF5F5284FA7FB05359D
S315080097DC6D092E01FFF79AFE00EB800000EB800066
S315080097EC6568AD00B0FBF5FAFFF790FE00EB80005C
S315080097FC00EB80006568AD00B0FBF5F5A7FB0535F9
S3150800980C6D094FF0640909FB15A52D013235A7FB27
S3150800981C05356D0905F0F0053544FFF777FE00EBC5
S3150800982C800000EB80006668B600B0FBF6F6FFF722
S3150800983C6DFE00EB800000EB800063689B00B0FBBC
S3150800984CF3F3A7FB03235B0909FB13694FEA091911
S3150800985C09F13209A7FB0937C7F343172F44C8F890
S3150800986C0870BDE8F08700BF001001401F85EB515A
S3150800987C2DE9F04105460F4616469846069C2B6878
S3150800988C1B6837EA03030CBF01230023B3421ED11E
S3150800989CB4F1FF3FF3D02CB1FEF7D0FFA0EB0800D4
S315080098AC8442ECD22A68D36823F4D073D3602A682E
S315080098BC536923F001035361202385F8393085F861
S315080098CC3A30002385F838300320BDE8F0810020B3
S315080098DCBDE8F081704758B310B5044690F8393096
S315080098EC0BB3242384F839302268D36823F4005345
S315080098FCD3602046FFF71AFE2268136923F49043B7
S3150800990C13612268536923F02A0353612268D368CA
S3150800991C43F40053D3600020E063202384F83930E5
S3150800992C84F83A3010BD80F83830FFF7D3FFD8E703
S3150800993C012070472DE9F04182B01E4690F83A3066
S3150800994CDBB2202B03D0022002B0BDE8F08104461E
S3150800995C0D469046002958D0002A58D090F8383031
S3150800996C012B01D10220EFE7012380F838300023C0
S3150800997CC363222380F83A30FEF760FF0746A4F843
S3150800998C2C80A4F82E801DE000963B460022202150
S3150800999C2046FFF76DFF00283BD1236933B92368AE
S315080099AC5B68C3F3080325F8023B0BE023685B6886
S315080099BCDBB225F8013B05E023685B6803F07F03FF
S315080099CC2B700135E38D9BB2C3B1E38D9BB2013B82
S315080099DC9BB2E385A368B3F5805FD5D000963B466A
S315080099EC002220212046FFF743FFA0B92369002B4C
S315080099FCE2D123685B682B700135E3E7202384F8F2
S31508009A0C3A30002084F838009EE701209CE70120B4
S31508009A1C9AE7032098E7032096E700000F49D1F848
S31508009A2C883043F47003C1F888300D4B1A6842F03D
S31508009A3C01021A60002098601A6822F0847222F4D7
S31508009A4C80321A60074A5A601A6822F480221A6011
S31508009A5CD8604FF000638B60704700BF00ED00E0E4
S31508009A6C0038024010300024014B024A9A607047B5
S31508009A7C00ED00E00080000800B595B000210191CA
S31508009A8C204B1A6C42F080521A641B6C03F08053FC
S31508009A9C0193019B02911C4B1A6842F480421A608E
S31508009AAC1B6803F480430293029B012308934FF42B
S31508009ABC8033099302230E934FF480020F920822E7
S31508009ACC10924FF4A872119212930723139308A8B5
S31508009ADCFFF724FA00B1FEE70F230393022304933E
S31508009AEC002305934FF4A05306934FF48053079322
S31508009AFC052103A8FFF748FC00B1FEE715B05DF891
S31508009B0C04FB00BF003802400070004008B5FFF7A0
S31508009B1CABFFFEF76DFEFFF7AFFF00F0DDF8FEF7C3
S31508009B2C0DFE08BD08B5FFF7F1FFFEF779FDFEF748
S31508009B3C0FFEFEF7FDFDFAE770B58CB00024009415
S31508009B4C4C4B5A6C42F480425A645A6C02F480426A
S31508009B5C0092009A01941A6C42F080521A641A6C9C
S31508009B6C02F080520192019A02941A6B42F0010299
S31508009B7C1A631A6B02F001020292029A03941A6B88
S31508009B8C42F002021A631A6B02F002020392039A5B
S31508009B9C04941A6B42F004021A631A6B02F004025C
S31508009BAC0492049A05941A6C42F400321A641A6CDC
S31508009BBC02F400320592059A06941A6C42F0007269
S31508009BCC1A641B6C03F000730693069B0320FFF7BD
S31508009BDC49F8224621466FF00B00FFF755F8224646
S31508009BEC21466FF00A00FFF74FF8224621466FF020
S31508009BFC0900FFF749F8224621466FF00400FFF7E3
S31508009C0C43F8224621466FF00300FFF73DF822463B
S31508009C1C21466FF00100FFF737F8224621464FF030
S31508009C2CFF30FFF731F84FF4805307930125089559
S31508009C3C09940A9407A91048FFF784F80C2307938C
S31508009C4C02260896099503250A9507230B9307A957
S31508009C5C0A48FFF777F84FF4407307930896099468
S31508009C6C0A9509230B9307A90548FFF76BF80CB05F
S31508009C7C70BD00BF003802400008024000000240D8
S31508009C8C00040240DFF834D0002103E00C4B5B588B
S31508009C9C435004310B480C4B42189A42F6D30B4AE4
S31508009CAC02E0002342F8043B094B9A42F9D3FFF72A
S31508009CBCB5FE00F031F8FFF735FF704700000220BB
S31508009CCCD09D0008000000200C0000200C0000208D
S31508009CDCE4000020FEE7000008B5FFF701FC084B7E
S31508009CECA3FB00308009FFF701F80420FFF714F8EE
S31508009CFC002211464FF0FF30FEF7C6FF08BD00BF25
S31508009D0CD34D621008B5FEF799FD08BD08B5FEF7E8
S31508009D1C89FDFFF712F808BD70B50D4E0D4CA41B46
S31508009D2CA4100025A54209D10B4E0C4C00F018F8CE
S31508009D3CA41BA4100025A54205D170BD56F82530E4
S31508009D4C98470135EEE756F8253098470135F2E77E
S31508009D5CC89D0008C89D0008C89D0008CC9D000831
S31508009D6CF8B500BFF8BC08BC9E467047F8B500BFEE
S30D08009D7CF8BC08BC9E467047BE
S31508009D8405020602060307030803090309040A046D
S31508009D940B040C040C050D050E050F050F0610061D
S31508009DA41007100800000000000000000102030468
S31108009DB40607080900000000010203046D
S30D08009DC03CE4FF7F01000000EE
S30908009DC8B18100084F
S30908009DCC8D8100086F
S31108009DD001000000100000000024F40050
S70508009C91C5
