S02B0000433A2F576F726B2F736F6674776172652F4F70656E424C542F5461726765742F44656D6F2F41524DEF
S1132000EC0100209721000039250000392500004B
S11320103925000039250000392500003925000044
S11320203925000039250000392500003925000034
S1132030392500003925000039250000E525000078
S11320403925000039250000392500003925000014
S11320503925000039250000392500003925000004
S113206039250000392500003925000039250000F4
S113207039250000392500003925000039250000E4
S113208039250000392500003925000039250000D4
S113209039250000392500003925000039250000C4
S11320A039250000392500003925000039250000B4
S11320B039250000392500003925000039250000A4
S11320C03925000039250000392500003925000094
S11320D03925000039250000392500003925000084
S11320E03925000039250000392500003925000074
S10720F0EE11AA55EA
S11320F42A498D462A482B492B4A00F039F82B48A3
S11321042B492C4A00F034F82B482C492C4A00F073
S11321142FF82C482C492D4A00F02AF82C482D4934
S11321242D4A00F025F82D482D492E4A00F020F8B8
S11321342D482E49002200F026F82D482D49091A6D
S1132144082903DB00220260043001601E481F4991
S1132154884205D00268043003B4904703BCF7E70F
S113216400208646EC4600200021234A9047FEE7DF
S1132174884207D0521A05D0037801300B7001311C
S1132184013AF9D17047884202D002700130FAE76B
S113219470471A481A490160AAE70000EC010020BC
S11321A4A4450000000000200000002008220000D4
S11321B40822000064430000A4450000000000203D
S11321C400000020644300006443000064430000F2
S11321D4644300006443000064430000644300005B
S11321E464430000A4450000000000206C000020AB
S11321F46C000020EC000020AD24000008ED00E099
S107220400200000B2
S113220880B581B000AF42F29153C0F20003984701
S11322184FF0F1033B603B68984707F10407BD465C
S113222880BD00BF90B500AF4FF00100C1F20000BF
S113223842F65963C0F2000398474FF00100C2F216
S1132248000042F65963C0F2000398474FF040205B
S11322584FF0030142F65133C0F20003984743F2AA
S11322686913C0F20003984703464FF44040C4F290
S1132278000019464FF461424FF0600343F2F954E9
S1132288C0F20004A04790BD80B500AF40F200033F
S1132298C2F200031B78002B1AD140F20400C2F2E8
S11322A8000042F26D33C0F2000398470346012B45
S11322B856D140F20003C2F200034FF001021A7033
S11322C840F24803C2F200034FF000021A7047E0DC
S11322D840F24803C2F200031B7803F1010240F202
S11322E80403C2F20003D318184642F26D33C0F255
S11322F8000398470346012B32D140F24803C2F247
S113230800031B7803F10103DAB240F24803C2F276
S113231800031A7040F20403C2F200031A7840F270
S11323284803C2F200031B789A4219D140F2000311
S1132338C2F200034FF000021A7040F20403C2F222
S113234800035B78FF2B0BD140F20403C2F20003B5
S11323589B78002B04D142F20923C0F2000398476A
S113236880BD00BF80B582B000AF38604FF44040F4
S1132378C4F2000043F69503C0F2000398470346ED
S11323887B607B68B3F1FF3F06D07B68DAB23B68B9
S11323981A704FF0010301E04FF00003184607F1EB
S11323A80807BD4680BD00BF80B500AF42F6B9330B
S11323B8C0F20003984780BD80B500AF4FF02000FD
S11323C8C2F2000042F65963C0F2000398474FF482
S11323D8A040C4F202004FF0010142F6E923C0F222
S11323E8000398474FF4A040C4F202004FF00101E3
S11323F84FF0000242F69923C0F20003984780BDCB
S113240880B581B000AF42F2CD53C0F200039847C3
S113241803463B6040F24C03C2F200031B683A686F
S1132428D21A40F2F3139A4236D940F25003C2F258
S113243800031B78002B14D140F25003C2F20003AE
S11324484FF001021A704FF4A040C4F202004FF09A
S113245801014FF0010242F69923C0F200039847A4
S113246813E040F25003C2F200034FF000021A7066
S11324784FF4A040C4F202004FF001014FF00002F3
S113248842F69923C0F20003984740F24C03C2F283
S113249800033A681A6000E000BF07F10407BD466C
S11324A880BD00BF80B500AF42F2DD43C0F2000337
S11324B8984742F22D23C0F20003984742F2094399
S11324C8C0F20003984742F29123C0F200039847F0
S11324D8F4E700BF80B500AF4FF46070C0F2C010DD
S11324E842F6DD63C0F20003984742F2C133C0F2FA
S11324F80003984742F24153C0F20003984742F25E
S1132508B133C0F20003984780BD00BF80B482B0E5
S113251800AF7860396040F25403C2F200037A686D
S11325281A6040F25803C2F200033A681A60FEE7E0
S113253880B400AFFEE700BF80B500AF43F2691373
S1132548C0F200039847024644F6D353C1F262032B
S1132558A3FB02134FEA9313184643F26953C0F2DC
S11325680003984743F2D943C0F20003984743F263
S11325782153C0F2000398474FF0000042F2AD53D4
S1132588C0F20003984780BD80B500AF43F24553BD
S1132598C0F20003984743F2FD43C0F20003984792
S11325A880BD00BF80B481B000AF386040F25C03E6
S11325B8C2F200033A681A6007F10407BD4680BCFA
S11325C8704700BF80B400AF40F25C03C2F200035E
S11325D81B681846BD4680BC704700BF80B400AF76
S11325E840F25C03C2F200031B6803F1010240F2EB
S11325F85C03C2F200031A60BD4680BC704700BF8A
S1132608EFF3108062B670472346184680B481B051
S113261800AF38603B68B3F1402F76D03A684FF486
S11326280043C4F205039A426FD03A684FF4A043BA
S1132638C4F200039A4268D03A684FF41043C4F2D3
S113264805039A4261D03A684FF4C043C4F20003C8
S11326589A425AD03A684FF42043C4F205039A4286
S113266853D03A684FF4E043C4F200039A424CD082
S11326783A684FF43043C4F205039A4245D03A68A5
S11326884FF48043C4F202039A423ED03A684FF4AE
S11326984043C4F205039A4237D03A684FF4A04342
S11326A8C4F202039A4230D03A684FF45043C4F259
S11326B805039A4229D03A684FF4C043C4F202038E
S11326C89A4222D03A684FF46043C4F205039A420E
S11326D81BD03A684FF4E043C4F202039A4214D080
S11326E83A684FF47043C4F205039A420DD03A682D
S11326F84FF45043C4F203039A4206D03A684FF0A9
S11327080003C4F206039A4202D14FF0010301E028
S11327184FF00003DBB2184607F10407BD4680BC3E
S1132728704700BF80B583B000AFB8600B463A600D
S11327383B71B86842F21563C0F200039847034638
S1132748002B0AD144F26430C0F200004FF0E401D7
S113275842F21553C0F2000398473B68002B10D08F
S11327683B68012B0DD03B68022B0AD044F264303D
S1132778C0F200004FF0E60142F21553C0F2000324
S11327889847BB6803F580631A463B6803F0010366
S1132798DBB2002B06D0BB6803F5806319683B796C
S11327A80B4307E0BB6803F5806319683B796FEA5C
S11327B803030B401360BB6803F584631A463B6844
S11327C803F00203002B06D0BB6803F58463196881
S11327D83B790B4307E0BB6803F5846319683B79CD
S11327E86FEA03030B40136007F10C07BD4680BD75
S11327F880B584B000AFF8607A603B600B463B72EA
S1132808F86842F21563C0F2000398470346002BA8
S11328180AD144F26430C0F200004FF4DD7142F290
S11328281553C0F2000398477B68012B13D07B68CB
S1132838022B10D07B68042B0DD07B680C2B0AD09C
S113284844F26430C0F200004FF4DF7142F21553D1
S1132858C0F2000398473B68082B1CD03B680A2B3E
S113286819D03B680C2B16D03B68092B13D03B6856
S11328780B2B10D03B680D2B0DD03B68002B0AD0D6
S113288844F26430C0F2000040F2C51142F215531C
S1132898C0F200039847FB6803F5A0631A467B68F7
S11328A803F00103DBB2002B06D0FB6803F5A06339
S11328B819683B7A0B4307E0FB6803F5A0631968C2
S11328C83B7A6FEA03030B401360FB6803F5A063CC
S11328D803F104031A467B6803F00203002B08D0B3
S11328E8FB6803F5A06303F1040319683B7A0B43FF
S11328F809E0FB6803F5A06303F1040319683B7A54
S11329086FEA03030B401360FB6803F5A1631A46DF
S11329187B6803F00403002B06D0FB6803F5A1636E
S113292819683B7A0B4307E0FB6803F5A163196850
S11329383B7A6FEA03030B401360FB6803F5A36358
S11329481A467B6803F00803002B06D0FB6803F5DE
S1132958A36319683B7A0B4307E0FB6803F5A36399
S113296819683B7A6FEA03030B401360FB6803F5AD
S1132978A06303F10C031A463B6803F00103DBB2BE
S1132988002B08D0FB6803F5A06303F10C03196856
S11329983B7A0B4309E0FB6803F5A06303F10C03DE
S11329A819683B7A6FEA03030B401360FB6803F56D
S11329B8A2631A463B6803F00203002B06D0FB68A7
S11329C803F5A26319683B7A0B4307E0FB6803F538
S11329D8A26319683B7A6FEA03030B401360FB6830
S11329E803F5A26303F104031A463B6803F00403E6
S11329F8002B08D0FB6803F5A26303F104031968EC
S1132A083B7A0B4309E0FB6803F5A26303F1040373
S1132A1819683B7A6FEA03030B401360FB6803F5FC
S1132A28A26303F10C031A463B6803F00803002B66
S1132A3808D0FB6803F5A26303F10C0319683B7A19
S1132A480B4309E0FB6803F5A26303F10C0319685F
S1132A583B7A6FEA03030B401360FB6803F5A56335
S1132A681A463B68002B06D1FB6803F5A563196871
S1132A783B7A0B4307E0FB6803F5A56319683B7AC7
S1132A886FEA03030B40136007F11007BD4680BDCE
S1132A9880B583B000AFB86013460A463A713B70FC
S1132AA8B86842F21563C0F2000398470346002B46
S1132AB80AD144F26430C0F200004FF4517142F27A
S1132AC81553C0F2000398473B794FEA83031A462B
S1132AD8BB68D3183A781A6007F10C07BD4680BD65
S1132AE890B582B000AF78600B463B70786842F2CC
S1132AF81563C0F2000398470346002B0AD144F239
S1132B086430C0F2000040F2044142F21553C0F2AE
S1132B18000398473B78786819464FF0010242F25F
S1132B282D73C0F2000398473B78786819464FF034
S1132B3801024FF0080342F2F974C0F20004A047FE
S1132B4807F10807BD4690BD90B582B000AF786024
S1132B580B463B70786842F21563C0F2000398474D
S1132B680346002B0AD144F26430C0F2000040F25C
S1132B781F5142F21553C0F2000398473B78786816
S1132B8819464FF0020242F22D73C0F2000398472F
S1132B983B78786819464FF001024FF0080342F277
S1132BA8F974C0F20004A04707F10807BD4690BDB8
S1132BB880B500AF42F20963C0F2000398470346A8
S1132BC8DBB2184680BD00BF80B481B000AF386066
S1132BD83A684FF00103C0F210039A4200F02B81C7
S1132BE83A684FF00203C0F210039A4200F02381BE
S1132BF83A684FF48073C0F210039A4200F01B81C4
S1132C083A684FF40073C0F210039A4200F013813B
S1132C183A684FF48063C0F210039A4200F00B81C3
S1132C283A684FF48073C1F210039A4200F00381AA
S1132C383A684FF40073C1F210039A4200F0FB8023
S1132C483A684FF48063C1F210039A4200F0F380AB
S1132C583A684FF48043C1F210039A4200F0EB80C3
S1132C683A684FF4A043C2F210039A4200F0E3809A
S1132C783A684FF00103C2F200039A4200F0DB8085
S1132C883A684FF00203C2F200039A4200F0D3807C
S1132C983A684FF00403C2F200039A4200F0CB8072
S1132CA83A684FF00803C2F200039A4200F0C38066
S1132CB83A684FF01003C2F200039A4200F0BB8056
S1132CC83A684FF02003C2F200039A4200F0B3803E
S1132CD83A684FF04003C2F200039A4200F0AB8016
S1132CE83A684FF08003C2F200039A4200F0A380CE
S1132CF83A684FF48073C2F200039A4200F09B8052
S1132D083B68402B00F097803B68B3F1102F00F02C
S1132D1892803A684FF48043C1F200039A4200F06B
S1132D288A803A684FF48053C1F210039A4200F043
S1132D3882803A684FF48073C2F210039A427AD0C0
S1132D483A684FF08003C3F200039A4273D03A689A
S1132D584FF01003C3F200039A426CD03B68B3F1FE
S1132D68101F68D03A684FF48073C1F200039A4286
S1132D7861D03A684FF40073C1F200039A425AD002
S1132D883A684FF01003C1F200039A4253D03A68EC
S1132D984FF02003C1F200039A424CD03A684FF036
S1132DA82003C3F200039A4245D03A684FF0010366
S1132DB8C1F210039A423ED03A684FF00203C1F2BE
S1132DC810039A4237D03A684FF00403C1F2100353
S1132DD89A4230D03A684FF00803C1F210039A427D
S1132DE829D03A684FF00103C1F200039A4222D075
S1132DF83A684FF00203C1F200039A421BD03A68C2
S1132E084FF00403C1F200039A4214D03B68B3F1B3
S1132E18202F10D03A684FF00103C2F210039A42EF
S1132E2809D03B68082B06D03A684FF48053C0F2A7
S1132E3810039A4202D14FF0010301E04FF000035E
S1132E48DBB2184607F10407BD4680BC704700BFD3
S1132E5880B581B000AF3860386842F6D133C0F22B
S1132E68000398470346002B0AD144F23840C0F2C5
S1132E7800004FF4FC7142F21553C0F20003984766
S1132E883B684FEA137244F2D033C0F2000353F89C
S1132E9822301A463B684FEA137144F2D033C0F229
S1132EA8000353F8213019683B684FEA03434FEA9B
S1132EB81343386800F4F8104FEA104003FA00F39B
S1132EC80B43136007F10407BD4680BD0138FDD1EB
S1132ED8704700BF80B584B000AF38604FF46043DA
S1132EE8C4F20F031B6803F0E043002B0CD04FF42B
S1132EF86043C4F20F031A684FF00003C7F2FF03DC
S1132F081340B3F1805F03D13B68002BC0F22381E7
S1132F184EF26003C4F20F031B68BB604EF27003E9
S1132F28C4F20F031B687B60BB6843F40063BB6097
S1132F38BB6823F48003BB607B6843F400637B6055
S1132F484EF26003C4F20F03BA681A604EF27003BB
S1132F58C4F20F037A681A60BB6803F00203002BFB
S1132F6804D03B6803F00203002B0AD0BB6803F0CB
S1132F780103DBB2002B34D03B6803F00103002BC0
S1132F882FD13B6863F00303BA681340BB604EF269
S1132F986003C4F20F03BA681A607B68002B09DA6D
S1132FA87B6803F07003302B0CD07B6803F070034C
S1132FB8702B07D07B68002B0CDBBB6803F0300355
S1132FC8302B07D14FF4805042F6D563C0F200038A
S1132FD8984706E04FF4002042F6D563C0F2000398
S1132FE89847BB6823F45E5323F07003BB603A68C8
S1132FF843F2F0731340BA681343BB607A684DF622
S11330088F73C7F6FF7313407B603A6842F230034C
S1133018C8F2000313407A6813437B603B6803F0EB
S113302808034FEAC3037A6813437B604EF25803DC
S1133038C4F20F034FF040021A607B68002B0CDACD
S11330484EF27003C4F20F037A681A604EF26003FA
S1133058C4F20F03BA681A600BE04EF26003C4F2BC
S11330680F03BA681A604EF27003C4F20F037A6849
S11330781A604FF0100042F6D563C0F20003984777
S1133088BB6823F0F86323F00303BB603A684FF08E
S11330980303C0F2C0731340BA681343BB607B6870
S11330A823F0FC537B603B6803F0FC537A681343BA
S11330B87B603B6803F08043002B11D0BB6843F46A
S11330C88003BB607B6823F480037B603A684FF01D
S11330D80003C4F2400313407A6813437B6003E09F
S11330E87B6823F080437B603B6803F40063002B18
S11330F81DD14FF40043FB600CE04EF25003C4F2C0
S11331080F031B6803F04003002B07D1FB6803F18E
S1133118FF33FB60FB68002BEFD100E000BFBB6806
S113312823F40063BB607B6823F400637B604EF286
S11331386003C4F20F03BA681A604EF27003C4F253
S11331480F037A681A604FF0100042F6D563C0F294
S11331580003984700E000BF07F11007BD4680BD93
S113316880B484B000AF4EF26003C4F20F031B684E
S1133178FB604EF27003C4F20F031B687B607B682C
S1133188002B03DA7B6803F0700302E0FB6803F0AA
S11331983003202B7CD0202B04D8002B0CD0102BF0
S11331A817D0E0E0602B00F0D680702B00F0D780B9
S11331B8302B00F0CC80D6E0FB6803F4F8634FEAC8
S11331C8931244F2DC33C0F2000353F82230BB609C
S11331D8CCE04FF46043C4F20F031B6803F0E043F0
S11331E8002B0CD04FF46043C4F20F031A684FF05D
S11331F80003C7F2FF031340B3F1805F05D14EF219
S1133208C013C0F2E403BB6041E04FF46043C4F26E
S11332180F031A684FF00003C7F2FF0313404FF07F
S11332280002C1F2010293420AD14FF46043C4F28E
S11332380F031B684FEA03434FEA1343022B1AD0C8
S11332484FF46043C4F20F031A684FF00003C7F247
S1133258FF0313404FF00002C1F20302934210D15E
S11332684FF46043C4F20F031B684FEA03434FEA69
S11332781343002B05D14FF4D853C0F2B703BB60F6
S113328805E04FF41053C0F2F403BB606EE06DE048
S11332984FF46043C4F20F031B6803F0E043002BB0
S11332A80CD04FF46043C4F20F031A684FF00003C4
S11332B8C7F2FF031340B3F1805F05D143F67003EF
S11332C8C0F23903BB6041E04FF46043C4F20F031A
S11332D81A684FF00003C7F2FF0313404FF00002CF
S11332E8C1F2010293420AD14FF46043C4F20F03BE
S11332F81B684FEA03434FEA1343022B1AD04FF4D7
S11333086043C4F20F031A684FF00003C7F2FF03C7
S113331813404FF00002C1F20302934210D14FF45C
S11333286043C4F20F031B684FEA03434FEA134395
S1133338002B05D14CF2C063C0F22D03BB6005E03D
S11333484FF41063C0F23D03BB600FE00EE047F298
S11333583053BB600AE04FF48003BB6006E04FF4CF
S11333680043BB6002E04FF00003ABE07B68002B36
S113337804DA7B6803F40063002B07D07B68002B16
S11333885DDBFB6803F40063002B58D14EF2640341
S1133398C4F20F031B683B604FF46043C4F20F038D
S11333A81B6803F0E043002B0CD04FF46043C4F2D5
S11333B80F031A684FF00003C7F2FF031340B3F179
S11333C8805F13D13A6843F6E07313404FEA53130E
S11333D803F10203BA6802FB03F23B6803F01F031C
S11333E803F10203B2FBF3F3BB6012E03A6843F65D
S11333F8E07313404FEA5313BA6802FB03F23B68C5
S113340803F01F0303F101034FEA4303B2FBF3F391
S1133418BB603B6803F48043002B03D0BB684FEACE
S11334285303BB603B6803F40043002B03D0BB6821
S11334384FEA9303BB60FB6843F48003FB60FB68BB
S113344803F48003002B3CD07B68002B2EDA7B68C6
S113345803F08043002B1DD07B68002B04DA7B68C3
S113346803F40063002B07D07B68002B12DBFB6896
S113347803F40063002B0DD1BB684FEA43027B6859
S113348803F0FE534FEA935303F10103B2FBF3F342
S1133498BB6016E07B6803F0FC534FEAD35303F197
S11334A80103BA68B2FBF3F3BB600AE0FB6803F0FC
S11334B8F0634FEAD35303F10103BA68B2FBF3F3A1
S11334C8BB60BB68184607F11007BD4680BC70474F
S11334D880B400AF4EF21003CEF200034EF2100295
S11334E8CEF20002126842F005021A60BD4680BCA2
S11334F8704700BF80B400AF4EF21003CEF2000351
S11335084EF21002CEF20002126822F001021A6092
S1133518BD4680BC704700BF80B400AF4EF21003B4
S1133528CEF200034EF21002CEF20002126842F00C
S113353802021A60BD4680BC704700BF80B400AF69
S11335484EF21003CEF200034EF21002CEF2000245
S1133558126822F002021A60BD4680BC704700BFA0
S113356880B581B000AF38603B68002B03D03B685E
S1133578B3F1807F0AD944F2A440C0F200004FF0AE
S1133588D00142F21553C0F2000398474EF21403D7
S1133598CEF200033A6802F1FF321A6007F1040719
S11335A8BD4680BD80B481B000AF38603A684FF43E
S11335B84043C4F200039A420DD03A684FF4504392
S11335C8C4F200039A4206D03A684FF46043C4F246
S11335D800039A4202D14FF0010301E04FF00003C7
S11335E8DBB2184607F10407BD4680BC704700BF2C
S11335F880B585B000AFF860B9607A603B60F86860
S113360843F2AD53C0F2000398470346002B0AD196
S113361844F21050C0F2000040F20D1142F215536A
S1133628C0F2000398477B68002B0AD144F210507B
S1133638C0F200004FF4877142F21553C0F2000340
S113364898474FF46043C4F20F031B6803F0E04348
S1133658002B42D04FF46043C4F20F031A684FF0B2
S11336680003C7F2FF031340B3F1805F35D04FF472
S11336786043C4F20F031A684FF00003C7F2FF0354
S113368813404FF00002C1F2010293420AD14FF4F1
S11336986043C4F20F031B684FEA03434FEA134322
S11336A8022B1AD04FF46043C4F20F031A684FF088
S11336B80003C7F2FF0313404FF00002C1F20302F4
S11336C893420DD14FF46043C4F20F031B684FEAD1
S11336D803434FEA1343002B02D14FF0100301E0D8
S11336E84FF008037A6802FB03F2BB689A420AD9CE
S11336F844F21050C0F2000040F20F1142F2155388
S1133708C0F200039847F86843F61D03C0F20003AB
S113371898477B684FEA0312BB689A420ED9FB6844
S113372803F13003FA6802F13002126842F0200211
S11337381A607B684FEA53037B6009E0FB6803F176
S11337483003FA6802F13002126822F020021A608B
S1133758BB684FEAC3027B68B2FBF3F303F10103CE
S11337684FEA53033B61FB6803F124033A694FEAC8
S113377892121A60FB6803F128033A6902F03F02C7
S11337881A60FB6803F12C033A681A60FB6803F1BA
S113379818034FF000021A60F86843F2B573C0F2D8
S11337A80003984707F11407BD4680BD80B581B072
S11337B800AF3860386843F2AD53C0F2000398474D
S11337C80346002B0AD144F21050C0F200004FF413
S11337D8CF7142F21553C0F2000398473B6803F1D6
S11337E82C033A6802F12C02126842F010021A60A3
S11337F83B6803F130031A463B6803F130031B6846
S113380843F4407343F00103136007F10407BD4612
S113381880BD00BF80B581B000AF3860386843F21E
S1133828AD53C0F2000398470346002B0AD144F273
S11338381050C0F200004FF4DF7142F21553C0F289
S11338480003984700BF3B6803F118031B6803F0A3
S11338580803002BF7D13B6803F12C033A6802F103
S11338682C02126822F010021A603B6803F130033C
S11338781A463B6803F130031B6823F4407323F0B2
S11338880103136007F10407BD4680BD80B581B00C
S113389800AF3860386843F2AD53C0F2000398476C
S11338A80346002B0AD144F21050C0F2000040F243
S11338B8094142F21553C0F2000398473B6803F1EB
S11338C818031B6803F01003002B02D13B681B6824
S11338D801E04FF0FF33184607F10407BD4680BDE9
S11338E82DE9F04F86B006460D4602924FF00003CC
S11338F8036044F28458C0F2000844F29459C0F2B8
S11339080009E9E105F10105252903D12B464FF00A
S1133918000203E0304600F0A3FCDDE11C4613F886
S1133928010B1D46A0F120010B2913D8DFE801F093
S1133938061212091212120C1212120F42F040024D
S1133948ECE742F08002E9E742F40042E6E742F09D
S11339582002E3E768280CD16078682805D142F092
S11339680802A07804F1030503E004F1020542F01B
S1133978040278287AD8DFE810F0BD0179007900CC
S11339887900790079007900790079007900790063
S11339987900790079007900790079007900790053
S11339A87900790079007900790079007900790043
S11339B87900790079007900790079007900790033
S11339C87900790089007900790079007900790013
S11339D87900790079007900790079007900790013
S11339E87900790079007900790079007900790003
S11339F879007900790079007900790079007900F3
S1133A0879007900790079007900790079007900E2
S1133A1879007900790079007900790079007900D2
S1133A2879007900790079007900C8007900790073
S1133A3879007900790079007900790079007900B2
S1133A488F00DC007900790079007900DC007900C6
S1133A587900790079009800D500BA0079007900D6
S1133A68A4007900E10079007900CA0040F26003FB
S1133A78C2F200031C68002C00F02E814FF0FF33C3
S1133A88009302A901913146A04725E130464FF041
S1133A98250100F0E5FB1FE1029B03F104020292F9
S1133AA81978304600F0DCFB16E112F0080F029B8F
S1133AB803F1040202921B68326814BF1A701A6078
S1133AC80AE1029B03F1040202921C681CB944F245
S1133AD87C54C0F200042178002900F0FD803046AF
S1133AE800F0BEFB14F8011F0029F8D1F4E0029B92
S1133AF803F1040102911B6802F08007002F14BF30
S1133B082327002742F4807266E042F4005212F040
S1133B18800F16D043F2780343F25807782808BF79
S1133B281F4610E002F08007002F14BF302700273B
S1133B3809E042F480424FF0000704E04FF0000728
S1133B4801E04FF0000712F4804F1DD0029B03F1EF
S1133B58040102911B6812F0040F01D01BB203E0A8
S1133B6812F0080F18BFDBB2002B04DAC3F100030C
S1133B784FF02D0719E012F0200F14D102F0400184
S1133B88002918BF202710E0029B03F104010291C9
S1133B981B6812F0040F01D09BB206E012F0080F64
S1133BA803D0DBB201E04FF02B07A0F15800202826
S1133BB879D8DFE800F011787878787878787878A8
S1133BC8787845787878784578787878783011787E
S1133BD8787878457878110033B94FF030038DF848
S1133BE80C304FF0010460E04FF0000402F400527E
S1133BF832B103F00F0119F8010003A9605405E07C
S1133C0803F00F0118F8010003A9605404F101043A
S1133C181B09EDD149E033B94FF030038DF80C306E
S1133C284FF0010441E04FF0000403F0070101F1F3
S1133C38300103AAA15404F10104DB08F5D134E0EE
S1133C4833B94FF030038DF80C304FF001042CE0F9
S1133C584FF0000402F400424FF02C0B4CF6CD4A0E
S1133C68CCF6CC4A5AB104F00301032907D10DF16B
S1133C78180C0CEB040101F80CBC04F1010406A9AE
S1133C880819AAFB03C14FEAD10101EB810CA3EB8C
S1133C984C0303F1300300F80C3C04F101040B4617
S1133CA80029DFD101E04FF00004FF2F04D9C7F346
S1133CB80721304600F0D4FA1FB1F9B2304600F0BB
S1133CC8CFFA012C08D403AF3C1914F8011D30466F
S1133CD800F0C6FABC42F8D1297800297FF412AE64
S1133CE8B3682BB1326871688A423CBF0021995489
S1133CF8306801E04FF0FF3006B0BDE8F08F00BF38
S1133D0810B504460B783BB1B0F1FF3F06D04B68C1
S1133D1803F1FF334B6001E08B689847204610BDE0
S1133D282DE9F04F82468B4690469946099F4FF0FD
S1133D38FF3500E0354605F10106504600F07CFAEF
S1133D48044600F0DFFA0028F4D1B4F1FF3F00F094
S1133D58848028F4C068002F3DDD18F0800F0FD050
S1133D682B2C03D02D2C09D148F4806805F10206C8
S1133D78504600F061FA044607F1FF37002F2ADDA8
S1133D88302C28D148F4007807F1FF3706F10105F3
S1133D98504600F051FA0446002F16DD782801D069
S1133DA8582812D1B9F1000F02D0B9F1100F5CD123
S1133DB828F4007807F1FF3706F10205504600F0B1
S1133DC83BFA04464FF010094FE0B9F1000F08BF61
S1133DD84FF0080949E0B9F1000F08BF4FF00A098C
S1133DE8002F10DC4FF0000515E048F4007807F1C7
S1133DF8FF3709FB050506F10106504600F01CFAD9
S1133E08044617B907E04FF000052046494600F07C
S1133E185BFA0028E9DA20465146FFF771FF18F4E7
S1133E28007F1DD018F0010F1CD1DBF8003003F11E
S1133E380402CBF800201B6808F49062B2F5906F76
S1133E4808BF6D4218F0100F01D01D700AE018F079
S1133E58080F14BF1D801D6004E04FF0FF3601E019
S1133E686FF001063046BDE8F08F2E46B8E700BF74
S1133E782DE9F04F85B00190894604924FF0000B6C
S1133E88CDF808B04CF6CC4AC0F6CC4A4C4614F8E7
S1133E98016B002E00F0CB81252E35D0304600F082
S1133EA831FA08B918E02C4604F10105207800F02D
S1133EB829FA0028F7D101E00BF1010B019800F071
S1133EC8BBF9054600F01EFA0028F5D128460199E9
S1133ED8FFF716FFA146D9E7019800F0ADF90546AA
S1133EE8B04203D10BF1010BA146CFE70199FFF7CB
S1133EF807FFB5F1FF3F40F09A81029A002A08BFF4
S1133F084FF0FF32029292E199F801302A2B06BF52
S1133F1809F102044FF001084FF000084FF00005C2
S1133F280CE0554500F3838105EB8505A6F13006C1
S1133F3816EB450500F17B8148F02008274604F17B
S1133F4801043E78A146304600F0B6F90028E8D1CD
S1133F5808F02002002A08BF6FF000454C2E05D156
S1133F687E7807F1020948F044080EE0682E0CD167
S1133F787E78682E05D148F01008BE7807F1030949
S1133F8803E007F1020948F00808A6F12506532EB4
S1133F9800F24D81DFE816F054004B014B014B0150
S1133FA84B014B014B014B014B014B014B014B01A5
S1133FB84B014B014B014B014B014B014B014B0195
S1133FC84B014B014B014B014B014B014B014B0185
S1133FD84B014B014B014B014B014B014B014B0175
S1133FE84B014B014B014B014B014B014B014B0165
S1133FF84B014B014B014B014B014B014B012C0174
S11340084B014B014B014B014B014B014B014B0144
S11340184B014B016B009C004B014B014B014B01C5
S1134028A7004B014B014B014B01B200C900D4005E
S11340384B014B01DF004B0121014B014B012C01CA
S1134048019800F0F9F80446252802D10BF1010B78
S11340581CE70199FFF754FEB4F1FF3F40F0E780F5
S1134068029B002B08BF4FF0FF330293DFE008F0F8
S11340782003002B08BF012518F0010405D1049B77
S113408803F1040204921E6801E04FF00006002DBB
S113409800F0CD80002D13DD019800F0CDF8B0F1CB
S11340A8FF3F06D1029B002B08BF4FF0FF3302935A
S11340B8BDE00CB906F8010B0BF1010B013DEBD186
S11340C8002C7FF4E3AE029B03F101030293DDE6C7
S11340D848F080020095019804A94FF00A03FFF7FD
S11340E81FFE04468EE048F080020095019804A95A
S11340F84FF00003FFF714FE044683E018F0010FA5
S11341087FF4C4AE049B03F1040204921B6818F004
S1134118100F02D083F800B0B8E618F0080F14BFE7
S1134128A3F800B0C3F800B0B0E648F080020095E8
S1134138019804A94FF00803FFF7F2FD044661E073
S113414828F01E020095019804A94FF01003FFF708
S1134158E7FD044656E04FF0FF3404F101040198EA
S113416800F06AF8064600F0CDF80028F5D1B6F15B
S1134178FF3F2FD018F0010706D1049B03F1040276
S113418804921B68039302E04FF000020392002D8F
S113419811DC15E005F1FF351FB9039B03F8016B2A
S11341A8039304F10104019800F046F806463DB172
S11341B8B0F1FF3F04D0304600F0A4F80028E9D05D
S11341C830460199FFF79CFDE7B94FF00002039BC5
S11341D81A7017E04FF0FF3414E048F0800200959D
S11341E8019804A94FF00A03FFF79AFD044609E071
S11341F848F080020095019804A94FF01003FFF7D6
S11342088FFD0446002C09DAB4F1FF3F0FD1029A5E
S1134218002A08BF4FF0FF32029208E018F0010F9D
S113422803D1029A02F101020292A3442EE60298F3
S113423805B0BDE8F08F00BF00B5034602783AB177
S11342484268107840B102F101025A605DF804FB3B
S1134258436898475DF804FB4FF0FF305DF804FBB2
S113426830B50446C8B2A16849B12368626803F14D
S11342780105954208BF0020934238BFC854E3683B
S11342882BB121686268914201D22146984723687C
S113429803F10103236030BDA0F1410019288CBF4C
S11342A800200120704700BFA0F1610019288CBFCD
S11342B800200120704700BFA0F1300009288CBFFE
S11342C800200120704700BF30B504460D46FFF7B3
S11342D8F3FF10B1A4F130000FE02046FFF7E4FF2C
S11342E810B1A4F1570008E02046FFF7D5FF10B13C
S11342F8A4F1370001E04FF0FF30A842A8BF4FF007
S1134308FF3030BDA0F10903042B04D9202814BFC1
S11343180020012070474FF00100704730B5044673
S11343280D4600F017F840F26403C2F200031D6062
S113433840F26803C2F200031C601A461368002B9B
S1134348FCD100F009F840F26403C2F200031868D3
S10F435830BD00BF704700BF704700BFBD
S1134364433A2F576F726B2F736F6674776172655C
S11343742F4F70656E424C542F5461726765742FCD
S113438444656D6F2F41524D434D335F4C4D335350
S11343945F454B5F4C4D3353383936325F43726F4C
S11343A47373776F726B732F50726F672F696465C1
S11343B42F2E2E2F6C69622F6472697665726C6974
S11343C4622F6770696F2E630000000000E10F40E4
S11343D404E10F4008E10F4040420F0000201C009C
S11343E480841E0000802500999E36000040380019
S11343F400093D0000803E0000004B00404B4C008F
S113440400204E00808D5B0000C05D0000807000C1
S113441400127A0000007D0080969800001BB7000B
S11344240080BB00C0E8CE00647ADA000024F40003
S11344340000FA00433A2F576F726B2F736F667440
S1134444776172652F4F70656E424C542F546172BC
S11344546765742F44656D6F2F41524D434D335F2F
S11344644C4D33535F454B5F4C4D335338393632DF
S11344745F43726F7373776F726B732F50726F67CE
S11344842F6964652F2E2E2F6C69622F64726976EE
S113449465726C69622F73797363746C2E630000A4
S11344A4433A2F576F726B2F736F6674776172651B
S11344B42F4F70656E424C542F5461726765742F8C
S11344C444656D6F2F41524D434D335F4C4D33530F
S11344D45F454B5F4C4D3353383936325F43726F0B
S11344E47373776F726B732F50726F672F69646580
S11344F42F2E2E2F6C69622F6472697665726C6933
S1134504622F7379737469636B2E6300433A2F5774
S11345146F726B2F736F6674776172652F4F70655A
S11345246E424C542F5461726765742F44656D6FE9
S11345342F41524D434D335F4C4D33535F454B5FD5
S11345444C4D3353383936325F43726F7373776F1C
S1134554726B732F50726F672F6964652F2E2E2F21
S11345646C69622F6472697665726C69622F756115
S113457472742E6300000000286E756C6C290000B0
S113458430313233343536373839616263646566C1
S11345943031323334353637383941424344454671
S903219744
