S02000006F70656E62746C5F6F6C696D65785F73746D3332653430372E737265630B
S315080000002836002029AB00088DAB00088DAB000808
S315080000108DAB00088DAB00088DAB00088DAB0008D2
S315080000208DAB00088DAB00088DAB00088DAB0008C2
S315080000308DAB00088DAB00088DAB00088DAB0008B2
S315080000408DAB00088DAB00088DAB00088DAB0008A2
S315080000508DAB00088DAB00088DAB00088DAB000892
S315080000608DAB00088DAB00088DAB00088DAB000882
S315080000708DAB00088DAB00088DAB00088DAB000872
S315080000808DAB00088DAB00088DAB00088DAB000862
S315080000908DAB00088DAB00088DAB00088DAB000852
S315080000A08DAB00088DAB00088DAB00088DAB000842
S315080000B08DAB00088DAB00088DAB00088DAB000832
S315080000C08DAB00088DAB00088DAB00088DAB000822
S315080000D08DAB00088DAB00088DAB00088DAB000812
S315080000E08DAB00088DAB00088DAB00088DAB000802
S315080000F08DAB00088DAB00088DAB00088DAB0008F2
S315080001008DAB00088DAB00088DAB00088DAB0008E1
S315080001108DAB00088DAB00088DAB00088DAB0008D1
S315080001208DAB00088DAB00088DAB00088DAB0008C1
S315080001308DAB00088DAB00088DAB00088DAB0008B1
S315080001408DAB00088DAB00088DAB00088DAB0008A1
S315080001508DAB00088DAB00088DAB00088DAB000891
S315080001608DAB00088DAB00088DAB00088DAB000881
S315080001708DAB00088DAB00088DAB00088DAB000871
S30D080001808DAB00088DAB0008E9
S3150800018803E00B780370491C401C13005A1E002B09
S31508000198F7D1704701E00170401C13005A1E002B66
S315080001A8F9D1704710B400231400621E002C06D03B
S315080001B803780C781B1B491C401C002BF4D018002C
S315080001C810BC704700E0401C0278002A02D002786A
S315080001D88A42F8D10078704770B50400207900285B
S315080001E823D0256B01232A0014F13401607803F023
S315080001F88BFA002801D0012018E000202071606AD7
S31508000208854212D3606AE169081885420DD2E678F4
S3150800021809E0E069451901232A0014F134016078D8
S3150800022803F072FA761E022EF3D2002070BD38B596
S3150800023804000D00206B854212D02000FFF7CCFF82
S31508000248002801D001200CE001232A0014F134010A
S31508000258607803F01EFA002801D0012001E0256322
S31508000268002032BD38B504002000FFF7B5FF0500A9
S31508000278EDB2002D5DD12078032852D16079002887
S315080002884FD0002020634FF40072002114F1340087
S31508000298FFF780FF552084F83202AA2084F8330233
S315080002A8522084F83400522084F83500612084F8F6
S315080002B83600412084F83700722084F81802722024
S315080002C884F81902412084F81A02612084F81B026E
S315080002D8206984F81C02206980B2000A84F81D0285
S315080002E82069000C84F81E022069000E84F81F0293
S315080002F8E06884F82002E06880B2000A84F82102DF
S31508000308E068000C84F82202E068000E84F82302EC
S315080003180123626914F13401607803F0F5F90020C5
S31508000328607100220021607803F02CFA002800D0BA
S3150800033801252800C0B232BD891E8269921E9142E3
S3150800034801D3002003E08278C06A02FB01007047E7
S31508000358F8B504000D00022D02D3A069854201D321
S31508000368012014E02078012804D00ED303284AD0A7
S3150800037832D30AE02E0016EB5606606A10EB5621B1
S315080003882000FFF754FF002802D05FF0FF30F2BDC7
S315080003984FF40070B6FBF0F101FB1061081990F8EC
S315080003A83470761C606A10EB56212000FFF73FFF71
S315080003B80028EAD14FF40070B6FBF0F101FB106192
S315080003C8081990F8340057EA0027E80701D53809CC
S315080003D801E03805000DDAE7606A10EB1521200000
S315080003E8FFF725FF0028D0D168004FF40071B0FB4D
S315080003F8F1F202FB1102101934304178007850EAFC
S31508000408012080B2C3E7606A10EBD5112000FFF718
S315080004180EFF0028B9D1A8004FF40071B0FBF1F21D
S3150800042802FB110210193430C1788278120452EA94
S315080004380161427851EA022100780843000100095F
S31508000448A5E7F8B504000D001600022D02D3A06929
S31508000458854201D3022082E02078012804D07BD384
S31508000468032858D040D377E02F0017EB5707606A60
S3150800047810EB57212000FFF7DAFEC0B200286CD12E
S315080004884FF40070B7FBF0F101FB1071081910F171
S315080004983401E80705D5087810F00F0050EA061069
S315080004A800E0300008707F1C01202071606A10EB9C
S315080004B857212000FFF7BBFEC0B200284DD14FF4E4
S315080004C80071B7FBF1F202FB117211193431EA0710
S315080004D801D5320906E00A7812F0F002330A13F059
S315080004E80F031A430A7038E0606A10EB15212000DA
S315080004F8FFF79DFEC0B200282FD169004FF400729D
S31508000508B1FBF2F303FB1213191934310E70B6B2A4
S31508000518320A4A7021E0606A10EBD5112000FFF70D
S3150800052886FEC0B2002818D1A9004FF40072B1FBA4
S31508000538F2F303FB121319193431CA78120612F0AA
S31508000548704216430E70320092B2120A4A70320C82
S315080005588A70320ECA7000E0022001212171C0B2E9
S31508000568F2BDF8B504000E00022E02D3A069864231
S3150800057801D3022527E0002509E0206910F1010FBB
S3150800058804D02069401C2061012060713E00A069E2
S31508000598864218D231002000FFF7DAFE0700002F3E
S315080005A811D0012F01D102250DE017F1010F01D154
S315080005B8012508E0002231002000FFF742FF050068
S315080005C8EDB2002DD9D02800C0B2F2BDF8B50400A6
S315080005D80E00002E07D1E768002F02D0A0698742CF
S315080005E80DD301270BE031002000FFF7B1FE0228E2
S315080005F801D2012043E0A169884240D337003D0073
S315080006086D1CA069854204D30225AF4201D2002099
S3150800061835E029002000FFF79BFE00281DD17FF052
S31508000628704229002000FFF70CFFC0B2002806D147
S31508000638002E04D02A0031002000FFF702FFC0B2BE
S31508000648002814D1E560206910F1010F16D0206939
S31508000658401E20610120607110E010F1010F01D0E1
S31508000668012800D10BE0BD42CAD1002007E0C0B27C
S31508000678012802D15FF0FF3500E001252800F2BD08
S3150800068870B504000D00E580A068012803D021682C
S315080006988969884201D3022048E0002805D12168E3
S315080006A80978032901D12068806A00280ED1E060FC
S315080006B820680089ADB2854201D3022036E0206859
S315080006C8806AADB210EB1510206123E0216889789D
S315080006D889B20E0100E0AD1BADB2B6B2B54210D371
S315080006E801002068FFF734FE10F1010F01D101203F
S315080006F81CE0022803D3216889698842EBD30220C3
S3150800070814E0E06001002068FFF716FEADB210EBB2
S3150800071815102061ADB21020B5FBF0F101FB1051A0
S31508000728206810EB411034306061002070BDF8B5C0
S3150800073804000D00E088461CB6B2002E02D02069D7
S31508000748002801D1042087E0B6B21020B6FBF0F1E4
S3150800075801FB1061002972D12069401C2061E068FC
S31508000768002806D120680089B6B2864267D30420D5
S3150800077872E0B6B220688078401E10EA161F5ED16D
S31508000788E1682068FFF7E4FD0700022F01D202207E
S3150800079862E017F1010F01D101205DE02068806948
S315080007A8874246D3002D01D1042055E0E168206828
S315080007B8FFF70CFF0700002F01D107204CE0012F97
S315080007C801D1022048E017F1010F01D1012043E0C9
S315080007D82068FFF701FD002801D001203CE04FF40E
S315080007E80072002120683430FFF7D4FC39002068ED
S315080007F8FFF7A2FD21680863002505E02068006B5D
S31508000808401C216808636D1C20688078EDB2854213
S3150800081809D22068012101712068FFF7DDFC00284C
S31508000828ECD0012018E02068006BEDB2401B216867
S315080008380863E76039002068FFF77EFD2061E680D7
S31508000848B6B21020B6FBF0F101FB1061206810EB78
S315080008584110343060610020F2BD70B504000D0007
S3150800086800212000FFF70CFFC0B200281BD1002684
S3150800087821692068FFF7DBFCC0B2002813D161693B
S315080008880978E52903D061690978002903D1761C16
S31508000898AE4201D107E0002601212000FFF747FFF5
S315080008A8C0B20028E4D0C0B270BDCA7E8B7E53EAB7
S315080008B8022292B20078032806D1487D097D51EABA
S315080008C8002080B252EA00421000704781760A007A
S315080008D892B2120AC2760A0C0275090C89B2090A7A
S315080008E8417570472DE9F04104000D00287830F06D
S315080008F84000401E0D2101FB00F600275FF00108A5
S31508000908DFF8180D385C40194078DFF8101D795C57
S31508000918495D51EA00201FFA88F8B8F1000F11D08E
S3150800092880B202F0A0FF8046FF2E09D234F81600DE
S3150800093802F099FF761C1FFA88F880B2804508D01D
S31508000948002018E080B24FF6FF71884201D00020D7
S3150800095811E07F1C0D2FD3D3287840060AD51FFA35
S3150800096888F8B8F1000F05D034F81600002801D029
S31508000978002000E00120BDE8F08170B40A7812F082
S315080009883F02521E0D235A4300230124DFF88C5CCC
S315080009985D5D6D186D78DFF8846C9E5D765C56EA49
S315080009A80525A4B2002C11D0FF2A01D3002018E08F
S315080009B82C0020F81240521C5B1C0D2BE6D3097834
S315080009C849060DD5FF2A08D300200AE0ADB24FF62E
S315080009D8FF76B542F0D0002003E0002120F8121077
S315080009E8012070BC7047F0B44B730F23CB720023F9
S315080009F80B7300238B760023CB76D2B2531E0D24B5
S31508000A08634300242500A4B2ADB24FF6FF76B5427B
S31508000A1802D030F813505B1CDFF8006CA65D7554DD
S31508000A28DFF8F86BA65D7618ADB22F0A7770ADB207
S31508000A38002D01D14FF6FF75641C0D2CE4D3ADB219
S31508000A484FF6FF74A54203D030F81300002801D1E9
S31508000A5852F040020A70F0BC70477CB504001600D4
S31508000A681D000B222000FFF78BFBADB2062D09DB14
S31508000A78ADB2E80310EB550031880D18B61C30885E
S31508000A880028F5D10720ADB2102195FBF1F202FB3B
S31508000A98115212F13001C9B23A2900DBC91D00AA60
S31508000AA88154401EADB2102195FBF1F5ADB2002D6B
S31508000AB8E9D100A97E224254002100E0491C81425E
S31508000AC802D20A5D202AF9D10A00511C082803D245
S31508000AD800ABC35C401C00E0202313550829F3D358
S31508000AE873BD00210B22C9B2CB0113EB5101037860
S31508000AF85918401C521E002AF5D10800C0B2704782
S31508000B082DE9F041050000212800FFF7B9FD04008A
S31508000B18E4B2002C02D02000C0B226E0FF27B8466F
S31508000B2829692868FFF783FB0400E4B2002C1AD168
S31508000B386E693078C0B2002801D1042413E0F17A2E
S31508000B4811F03F01C0B2E52804D00A070FD5C9B28B
S31508000B580F290CD0FF2700212800FFF7E8FD04001D
S31508000B68E4B2002CDCD02000C0B2BDE8F081C9B2DE
S31508000B780F291ED1E9690029EDD0410606D596F850
S31508000B880D8010F0BF000700E9882984C0B2FFB2BB
S31508000B98B8420CD1707B5FFA88F8804507D13100D6
S31508000BA8E869FFF79FFE002801D07F1E00E0FF27AF
S31508000BB8D1E7FFB2002F06D13000FFF792FF5FFAA0
S31508000BC888F88045CFD0FF274FF6FF702884A86994
S31508000BD8C07AC007BFD40B22A9693000FFF7E2FA2A
S31508000BE80028B8D1BFE72DE9F04104000D00FF261B
S31508000BF8FF275FF00408206900282ED0216920689D
S31508000C08FFF715FB80465FFA88F8B8F1000F24D17C
S31508000C1860690278D2B2002A02D15FF004081CE0A3
S31508000C28C17A11F03F01D2B2E52A0BD0D2B22E2AE8
S31508000C3808D0C9B2082901D1012300E00023DBB294
S31508000C48AB4215D0FF2600212000FFF770FD80462D
S31508000C585FFA88F8B8F1000FCDD05FFA88F8B8F1CE
S31508000C68000F01D0002020614046C0B2BDE8F081DF
S31508000C78C9B20F2919D1510605D5477B12F0BF020B
S31508000C881600E1882184D2B2F6B2B2420BD1417B72
S31508000C98FFB28F4207D10100E069FFF76EFE002810
S31508000CA801D0761E00E0FF26CDE7F6B2002E04D165
S31508000CB8FFF717FFFFB2874202D04FF6FF7020846E
S31508000CC8CBE72DE9F04184B00400A669E7690C2250
S31508000CD8310000A8FFF754FA9DF80B00C0072CD579
S31508000CE80020F0720020E0615FF0010801E018F1C9
S31508000CF801081FFA88F8B8F1640F0DDA43469BB263
S31508000D083A0000A93000FFF7A8FE2000FFF7F8FE12
S31508000D180500EDB2002DEAD01FFA88F8B8F1640F7D
S31508000D2801D107207DE0EDB2042D02D02800C0B21B
S31508000D3877E09DF80B00F072E7619DF80B008007D5
S31508000D4812D55FF0000801E018F101081FFA88F8C3
S31508000D5837F818000028F7D11FFA88F818F119008B
S31508000D680D2190FBF1F600E00126B6B2310020000D
S31508000D78FFF773FD0500EDB2002D32D1761E30005F
S31508000D8880B200282DD0E088811B89B22000FFF7A1
S31508000D9877FC0500EDB2002D23D1A069FFF7A1FE67
S31508000DA8070021692068FFF742FA0500EDB2002D11
S31508000DB817D13B00DBB23200D2B26169E069FFF7AE
S31508000DC812FE20680121017100212000FFF7AFFCFF
S31508000DD80500EDB2002D04D1761E300080B2002839
S31508000DE8DFD1EDB2002D1AD121692068FFF71FFA65
S31508000DF80500EDB2002D12D1202200216069FFF707
S31508000E08C9F90B22A1696069FFF7BAF9A069C07A1E
S31508000E1810F018006169087320680121017128001B
S31508000E28C0B204B0BDE8F08138B50400E588208C66
S31508000E384FF6FF71884201D1290000E0218C89B25A
S31508000E482000FFF71DFCC0B200281BD121692068C5
S31508000E58FFF7EDF9C0B2002810D16169E5220A70DA
S31508000E68216801220A71E188ADB2A94206D2002199
S31508000E782000FFF75CFCC0B20028E7D0C0B20428FF
S31508000E8800D10220C0B232BD2DE9F14F8846D8F804
S31508000E98009001E019F1010999F800002F28F9D006
S31508000EA899F800005C28F5D00098C6690024250042
S31508000EB802E026F815706D1C14F80970641CBFB298
S31508000EC8202F05DBBFB22F2F02D0BFB25C2F09D166
S31508000ED814EB0900C8F80000BFB2202F1FDA5FF02C
S31508000EE804081EE0FF2D01D3062090E0FFB2012179
S31508000EF8380080B202F090FC0700BFB2002F01D17B
S31508000F08062084E0BFB2802FD3DABFB23900DFF8F3
S31508000F18F808FFF757F90028CBD0062077E05FF0E6
S31508000F28000800E06D1E002D09D016EB450030F8C4
S31508000F38027CBFB2202FF5D0BFB22E2FF2D0002DDB
S31508000F4801D1062063E0002026F815000B2220218F
S31508000F5800988069FFF71EF9002400E0641C36F83B
S31508000F6814002028FAD036F814002E28F6D0002CBB
S31508000F7803D058F0030800E06D1E002D05D016EBC7
S31508000F88450030F8020C2E28F6D15FF00009CB464A
S31508000F985FF0080A01E058F0030836F81470641C74
S31508000FA8BFB2002F35D1009880690078E52803D1AB
S31508000FB80098806905210170BAF1080F01D15FEA26
S31508000FC889095FFA89F919F00C000C2805D05FFA27
S31508000FD889F919F00300032801D158F002085FEAD5
S31508000FE888700FD45FFA89F919F00300012801D12E
S31508000FF858F010085FFA89F919F00C00042801D18D
S3150800100858F008080098806980F80B800020BDE829
S31508001018F28FBFB2202FBED0BFB22E2F01D1AC425D
S31508001028B9D1D34501D2AC4213D1BAF10B0F02D1CB
S3150800103858F00308B7E7AC4201D058F00308A542B0
S31508001048B1D32C005FF0080B5FF00B0A5FEA890939
S31508001058A3E7BFB2802F10DB0021380080B202F068
S31508001068DBFB0700BFB2002F05D0BFB2DFF89C072D
S31508001078381810F8807C58F00208BFB2002F07D03D
S31508001088BFB23900DFF88807FFF79CF8002803D0B5
S315080010985F2758F003080FE0BFB2B7F141001A28D6
S315080010A802D259F0020907E0BFB2B7F161001A285F
S315080010B802D259F00109203F009880690BF80070A0
S315080010C81BF1010B69E7F8B50C0004F2090102697E
S315080010D8002A48D04269137B00250EE0F6B2052E91
S315080010E800D1E5261F0705D5F6B2B6F141071A2F2E
S315080010F800D220360E70491C6D1C082D03D2AE5C32
S31508001108F6B2202EEAD1157A202D15D02E250D7087
S31508001118491C08250AE0DF0605D5F6B2B6F14107E7
S315080011281A2F00D220360E70491C6D1C0B2D03D2BF
S31508001138AE5CF6B2202EEED1D37A2372D37F957F92
S315080011482D0455EA0363557F53EA0523157F2B4378
S315080011582360537E157E55EA0323A380D37D927DAB
S3150800116852EA0322E28000220A70A169002926D0E1
S31508001178E169002923D0A6690025016900291CD040
S31508001188018C4FF6FF72914217D0C76901E0A8553E
S315080011986D1C3888BF1C010089B200290DD00021B2
S315080011A880B202F039FB80B2002801D1002504E09C
S315080011B8E169491E8D42EAD300250020A855F1BDEC
S315080011C813B50400019800782F2803D001980078F1
S315080011D85C2802D10198401C01900020A060019863
S315080011E8007820280AD200212000FFF749FA0021B2
S315080011F8616120E02068FFF758FBA06001A920007C
S31508001208FFF742FEC0B2002815D12000FFF778FC88
S31508001218A169C97AC0B2002806D0C0B204280AD182
S31508001228490700D4052006E0490704D46169C87A45
S31508001238C006DFD40520C0B216BD10B504000123C8
S315080012480A0014F13401607802F023FA002801D064
S3150800125803202DE094F8330294F8321251EA00205C
S3150800126880B24AF65521884201D0022020E094F837
S315080012786C0094F86B10090251EA004094F86A1059
S315080012880843DFF8681C884201D1002010E094F86A
S31508001298880094F88710090251EA004094F88610E5
S315080012A80843DFF8481C884201D1002000E00120E5
S315080012B810BDF8B5150002681378B3F130060A2E82
S315080012C805D253783A2B02D1921C026000E0002618
S315080012D800200860002E01D00B209DE1DFF8100CD5
S315080012E850F82640002C01D10C2095E10C60207896
S315080012F800280DD0607802F0B8F9C10708D4EDB215
S31508001308002D03D0400701D50A2085E1002083E196
S31508001318002020706670607802F08FF9C10701D541
S31508001328032079E1EDB2002D03D0400701D50A2044
S3150800133872E1002529002000FFF77FFF0600F6B2B4
S31508001348012E1CD10020C0B2002800D0401EC0B211
S3150800135814EB001000F2F210017900290FD0C17AB7
S31508001368827A120452EA0161427A51EA0221007A23
S3150800137850EA010529002000FFF75FFF0600F6B2CC
S31508001388032E01D1012047E1F6B2002E01D00D2027
S3150800139842E194F8400094F83F1051EA002080B2E0
S315080013A8B0F5007F01D00D2036E194F84B0094F88B
S315080013B84A1051EA002080B200280DD194F85B0043
S315080013C894F85A10090451EA006094F8591050EA3A
S315080013D8012094F858100843E06194F84410E17025
S315080013E8C9B2012904D0C9B2022901D00D2013E1D6
S315080013F8C9B2484394F84110A170C9B2002903D06C
S315080014084A1EC9B2114201D00D2005E194F84610CA
S3150800141894F8452052EA0121218121891022B1FB3D
S31508001428F2F303FB1213002B01D00D20F4E094F815
S31508001438481094F8472052EA012292B2002A0DD1A0
S3150800144894F8571094F85620120452EA016194F851
S31508001458552051EA022194F854200A4394F8431077
S3150800146894F8423053EA012189B2002901D10D20A6
S31508001478D2E010FA81F3268913EB16139A4201D2A1
S315080014880D20C9E0D21AA678B2FBF6F2002A01D1D5
S315080014980D20C1E0012640F6F677BA4200D30226A7
S315080014A84FF6F677BA4200D30326921CA261256244
S315080014B815FA81F161625919E162F6B2032E16D15D
S315080014C82089002801D00D20A6E094F8630094F836
S315080014D86210090451EA006094F8611050EA012084
S315080014E894F860100843A062A069800015E0218975
S315080014F8002901D10D208FE0616A4018A062F6B272
S31508001508022E02D1A069400007E0A06903214843DA
S31508001518217E11F0010111EB5000E16900F2FF107C
S31508001528B1EB502F01D20D2076E05FF0FF30206135
S315080015380020E060F6B2032E60D10020607194F8AE
S31508001548650094F8641051EA002015FA80F0606185
S315080015580123626914F13401607802F09AF80028C8
S315080015684CD194F8330294F8321251EA002080B22A
S315080015784AF65521884241D194F8370094F836102E
S31508001588090451EA006094F8351050EA012094F8E5
S3150800159834100843DFF8281A88422FD194F81B021A
S315080015A894F81A12090451EA006094F8191250EAD4
S315080015B8012094F818120843DFF8081A88421DD142
S315080015C894F8230294F82212090451EA006094F860
S315080015D8211250EA012094F820120843E06094F892
S315080015E81F0294F81E12090451EA006094F81D12A5
S315080015F850EA012094F81C12084320612670DFF887
S31508001608C8090088401CDFF8C0190880E080002057
S315080016182063002020710020F2BD00003CAB0008C2
S3150800162880B500280BD00168002908D00168097818
S31508001638002904D00168C9888288914201D0092006
S3150800164808E00068407802F010F8C00701D50320C2
S3150800165800E0002002BDC0B2002801D00B2012E02D
S31508001668C0B2DFF88C2852F82020002A01D00023BF
S315080016781370002901D000220A70C0B2DFF870285A
S3150800168842F82010002070472DE9F2438CB0040078
S315080016981500002C01D10920B3E00020206015F0C0
S315080016A81F0515F0FE0200A90CA8FFF702FE0600A2
S315080016B8F6B2002E40F0A38009A80690DFF80C09B8
S315080016C807900C9900A8FFF77BFD0600059FF6B260
S315080016D8002E02D1002F00D106261C20054258D01C
S315080016E8F6B2002E0AD0F6B2042E03D100A8FFF7E8
S315080016F8E8FA060055F00805059F08E0F87A11216A
S31508001708084201D0072602E0680700D50826F6B27F
S31508001718002E4CD128074AD502F069F8804687F882
S315080017280E80404680B2000AF8735FEA184038749B
S315080017385FEA186078740020F8720020387700206D
S3150800174878770020B8770020F87739000098FFF7EF
S31508001758ACF8814600213800FFF7B8F8009801214F
S315080017680171B9F1000F22D00098D0F830804946A7
S315080017780098FEF7F6FE0600F6B2002E17D1009876
S31508001788B9F10101C16041460098FEF750FD06000F
S315080017980DE0F6B2002E0AD1F87AC00601D504265D
S315080017A805E0A80703D5F87AC00700D50726F6B2D4
S315080017B8002E07D1280701D555F020050098006B9B
S315080017C8E0612762F6B2002E19D1A5713900009892
S315080017D8FFF76BF82061F87FB97F090451EA0060C2
S315080017E8797F50EA0120397F0843E0600020A0602D
S315080017F80020A061009820600098C088A08030006A
S31508001808C0B20DB0BDE8F0839CAB000850A500082F
S31508001818C0AB00082DE9F047050016001F000C00AC
S31508001828002038602800FFF7FBFEC0B2002801D068
S31508001838C0B2E3E0A879000601D50220DEE0A8795F
S31508001848C00701D40720D9E0E868A968401AB04259
S3150800185829D2060027E0C5F81890A8684FF4007141
S31508001868B0FBF1F202FB1102D2F50078464500D228
S31508001878B0464246A8684FF40071B0FBF1F303FB83
S315080018881103581910F124012000FEF779FC18EB0A
S315080018980404A86818EB0000A860386818EB00006C
S315080018A83860B6EB0806002E00F0A780A8684FF443
S315080018B80071B0FBF1F202FB1102002ACDD1A8682B
S315080018C8400A29688978491E11EA00085FFA88F8E3
S315080018D8B8F1000F1AD1A868002801D1286903E0D1
S315080018E869692868FEF734FD022805D2A87950F0F8
S315080018F88000A871022081E010F1010F05D1A879AE
S3150800190850F08000A871012078E068616969286844
S31508001918FEF712FD8146B9F1000F05D1A87950F0F6
S315080019288000A871022069E059FA88F95FEA562A00
S31508001938BAF1000F35D0286880785AFA88F18842B3
S3150800194805D2286880785FFA88F8B0EB080A534603
S31508001958DBB24A4621002868407801F09AFE00283A
S3150800196805D0A87950F08000A871012046E0A8792A
S31508001978400611D5A869B0EB090050450CD24FF4BA
S31508001988007215F12401A869B0EB09004FF4007339
S3150800199803FB0040FEF7F4FB4FF4007000FB0AF85F
S315080019A875E7A86948453FF456AFA879400613D5A0
S315080019B80123AA6915F124012868407801F0A4FED4
S315080019C8002805D0A87950F08000A871012015E0F4
S315080019D8A87910F0BF00A87101234A4615F1240119
S315080019E82868407801F055FE00283FF434AFA879F6
S315080019F850F08000A871012000E00020BDE8F087BB
S31508001A082DE9F047050016001F000C000020386075
S31508001A182800FFF705FEC0B2002801D0C0B270E062
S31508001A28A879000601D502206BE0A879800701D4B9
S31508001A38072066E0E8683018E96888422DD200264B
S31508001A482BE0C5F81890A8684FF40071B0FBF1F2BE
S31508001A5802FB1102D2F50078464500D2B046424646
S31508001A682100A8684FF40073B0FBF3FC0CFB130CB9
S31508001A781CEB05002430FEF783FBA87950F04000DC
S31508001A88A87118EB0404A86818EB0000A860386861
S31508001A9818EB00003860B6EB0806002E26D0A868B2
S31508001AA84FF40071B0FBF1F202FB1102002ACAD109
S31508001AB8A868400A29688978491E11EA00085FFA61
S31508001AC888F8B8F1000F30D1A868002808D1286925
S31508001AD8002809D100212868FEF778FD286103E067
S31508001AE869692868FEF772FD00280CD1E868A968B4
S31508001AF8884201D2A868E860A87950F02000A87141
S31508001B080020BDE8F087012805D1A87950F08000A3
S31508001B18A8710220F5E710F1010F05D1A87950F050
S31508001B288000A8710120ECE76861A879400613D5FA
S31508001B380123AA6915F124012868407801F0E4FD13
S31508001B48002805D0A87950F08000A8710120D8E7A8
S31508001B58A87910F0BF00A87169692868FEF7ECFB38
S31508001B688146B9F1000F05D1A87950F08000A8710F
S31508001B780220C6E759FA88F95FEA562ABAF1000F29
S31508001B8836D0286880785AFA88F1884205D22868B3
S31508001B9880785FFA88F8B0EB080A5346DBB24A46FB
S31508001BA821002868407801F0AFFD002805D0A879FB
S31508001BB850F08000A8710120A3E7A869B0EB0900D6
S31508001BC8504510D24FF40072A869B0EB09004FF4DB
S31508001BD8007101FB004115F12400FEF7D1FAA87936
S31508001BE810F0BF00A8714FF4007000FB0AF848E728
S31508001BF8A86948453FF425AFA868E9688842BFF44C
S31508001C0820AF01234A4615F124012868407801F0D7
S31508001C1840FD00283FF415AFA87950F08000A87158
S31508001C2801206EE738B504002000FFF7F9FCC0B2BA
S31508001C3800284AD1A179890647D5A07940060FD543
S31508001C480123A26914F124012068407801F05CFD9B
S31508001C58002801D0012039E0A07910F0BF00A07152
S31508001C68E1692068FEF7E3FAC0B200282DD1256A93
S31508001C78E87A50F02000E872E0682877E06880B2D1
S31508001C88000A6877E068000CA877E068000EE8772D
S31508001C9821692800FEF71AFE01F0A9FDA8750100BA
S31508001CA889B2090AE975010C2976000E68760020BA
S31508001CB8A8740020E874A07910F0DF00A0712068E5
S31508001CC8012101712068FEF7CDFAC0B232BD10B500
S31508001CD804002000FFF7A6FFC0B2002801D10021A2
S31508001CE82160C0B210BD2DE9F04104000D002000A6
S31508001CF8FFF796FC0600F6B2002E02D03000C0B2F6
S31508001D08CCE0A079000601D50220C7E0E068A84221
S31508001D1803D2A079800700D4E568A0680027A760E1
S31508001D28002D7BD0216889784FF4007202FB01F8F0
S31508001D38002810D0411EB1FBF8F16A1EB2FBF8F272
S31508001D488A4208D3401EB8F101018843A060A068FA
S31508001D582D1A606919E02069002815D10021206824
S31508001D68FEF734FC012805D1A07950F08000A0714F
S31508001D78022093E010F1010F05D1A07950F08000F8
S31508001D88A07101208AE020616061002807D145E03A
S31508001D986061A16818EB0101A160B5EB0805A845C3
S31508001DA809D2A17989071ED501002068FEF70EFC1D
S31508001DB800281CD14546A1686918A1604FF400712E
S31508001DC8B5FBF1F202FB1152002A27D00100206860
S31508001DD8FEF7B2FA0700002F1ED1A07950F080004E
S31508001DE8A07102205AE001002068FEF7B1FA10F146
S31508001DF8010F05D1A07950F08000A07101204DE0AF
S31508001E08022803D3216889698842C1D3A07950F08A
S31508001E188000A071022041E017EB5527A0684FF40F
S31508001E280071B0FBF1F202FB1102002A2AD0A06960
S31508001E38874227D0A079400613D50123A26914F151
S31508001E4824012068407801F05FFC002805D0A079B5
S31508001E5850F08000A071012020E0A07910F0BF00A2
S31508001E68A07101233A0014F124012068407801F092
S31508001E7810FC002805D0A07950F08000A071012038
S31508001E880CE0A761E068A168884205D2A068E0600E
S31508001E98A07950F02000A0713000C0B2BDE8F081EA
S31508001EA831B58CB00C00002203A90CA8FFF701FA7B
S31508001EB80500EDB2002D15D100A80990DFF80C0130
S31508001EC80A900C9903A8FFF77BF90500EDB2002DD7
S31508001ED808D10898002804D0210003A8FFF7F3F8CA
S31508001EE800E006252800C0B20DB030BD46415400B2
S31508001EF8AC2D002071B595B0012200A915A8FFF7E9
S31508001F08D8F90400E4B2002C56D109A806902F483F
S31508001F180790159900A8FFF753F90400E4B2002CB6
S31508001F284AD1059D002D01D1062403E0E87AC007A9
S31508001F3800D5072429000098FEF7B7FC0600E4B286
S31508001F48002C21D1E87AC0061ED5022E01D2022419
S31508001F581AE0242200A90CA8FEF712F90E96022107
S31508001F680CA8FEF78DFB0400E4B2002C0CD1002166
S31508001F780CA8FEF738FE0400E4B2002C00D10724AA
S31508001F88E4B2042C00D10024E4B2002C14D100A831
S31508001F98FEF74AFF0400E4B2002C0DD1002E04D047
S31508001FA831000098FEF7DDFA0400E4B2002C03D1EC
S31508001FB80098FEF757F904002000C0B216B070BDA5
S31508001FC85252614172724161082E00202424002071
S31508001FD82DE9FC4104000F00904600252600FFE77E
S31508001FE8781E854213DA00AB012201A94046FFF79D
S31508001FF811FC009801280AD19DF80400C0B20D28E2
S31508002008EED03070761C6D1CC0B20A28E8D10020C4
S315080020183070002D00D100242000BDE8F68130B5C7
S3150800202883B004000D00E4B20A2C03D129000D2060
S31508002038FFF7F5FF8DF80040012401AB220000A93F
S315080020482800FFF7DDFC0198A04201D1012001E034
S315080020585FF0FF303EBD70B504000D00002601E0B4
S31508002068641C761C2078002809D029002078FFF7F8
S31508002078D6FF10F1010FF3D15FF0FF3000E0300012
S3150800208870BD10B450F8041B81B102681218001DFF
S3150800209850F8043BDC0744BFA9F10104E31852F8D9
S315080020A8044B43F8044B091FF9D1EBE710BC7047FA
S315080020B880B500208DF8000001F05AFA01F0F2FB0D
S315080020C800F089F88DF800009DF80000002802D075
S315080020D89DF8000046E000F0A2F98DF800009DF88A
S315080020E80000002802D09DF800003BE0DFF86C0BE2
S315080020F800210175DFF8640B00210160DFF85C0B2D
S3150800210800214160DFF8540B00218160DFF84C0B91
S315080021180021C160DFF8440B00210161DFF83C0BA0
S3150800212801F0CCFBDFF8380B00F048FA8DF8000010
S315080021389DF80000002809D1DFF8240BB0F85400F0
S315080021480004002100F068FC8DF800009DF80000E6
S31508002158002805D14FF4006000F0FDFB8DF800005B
S315080021689DF8000002BD10B5042400F00DF804001F
S31508002178E4B2042C01D1002005E0E4B2FF2C01D119
S31508002188022000E0012010BD80B50020009000F074
S3150800219810F801280BD100A800F082FE002801D00B
S315080021A8FF2005E00098400A10F00F0000E0FF2025
S315080021B802BD80B501208DF800004FF40061DFF8F4
S315080021C8A40A01F058FC002802D100208DF8000066
S315080021D89DF8000002BDF8B500208DF8000000261D
S315080021E8002400270025DFF8740A76210175DFF830
S315080021F86C0A00210160DFF8640A00214160DFF8F3
S315080022085C0A00218160DFF8540A0021C160DFF802
S315080022184C0A00210161DFF8440A01F04FFB03204C
S3150800222801F065FB012001F05EFBDFF83C0A00219E
S315080022380160DFF8340A00214160DFF82C0A002122
S315080022488160DFF8240A0021C160DFF81C0A4FF410
S3150800225880610161DFF8100A01F051FB00F062FEA7
S315080022688DF800009DF80000002802D09DF80000AF
S31508002278D4E0DFF8F4094FF4D5710160DFF8E8090E
S3150800228808214160DFF8E00940218160DFF8D809B4
S315080022980021C160DFF8D0094FF480610161DFF8D9
S315080022A8C80901F02CFB00F057FE8DF800009DF8D0
S315080022B80000002806D1DFF8B409012101605FF0A3
S315080022C880451DE0DFF8A00900210160DFF89809BC
S315080022D837214160DFF8900940218160DFF88809D5
S315080022E80021C160DFF880094FF480610161DFF8D9
S315080022F8780901F004FB372000F056FE8DF8000037
S31508002308DFF8640900210160DFF85C0937214160BC
S31508002318DFF8540940218160DFF84C090021C160C3
S31508002328DFF844094FF480610161DFF83C0901F0E0
S31508002338E6FA372000F038FE8DF800009DF8000010
S31508002348002869D105E0002001F0F1FA0600F70F28
S31508002358641C002F4ED14FF6FF7084424AD2DFF82C
S31508002368080900210160DFF8000937214160DFF814
S31508002378F80840218160DFF8F0080021C160DFF81D
S31508002388E8084FF480610161DFF8DC0801F0B7FA64
S31508002398372000F009FE8DF800009DF80000002897
S315080023A802D09DF8000039E0DFF8C4082843DFF8B2
S315080023B8B8180860DFF8B00829214160DFF8A808CE
S315080023C840218160DFF8A0080021C160DFF898087D
S315080023D84FF480610161DFF8900801F090FA00F087
S315080023E86BFE8DF800009DF800000028ABD09DF81C
S315080023F8000013E04FF6FF70844205D31B208DF8C2
S3150800240800009DF8000009E016F08046002E03D06B
S31508002418DFF85808022101609DF80000F2BD10B5E2
S3150800242882B000240120ADF8000001F063FA002804
S3150800243803D125242000C0B2BFE0DFF830080068C1
S31508002448042839D0DFF8200800210160DFF81808C9
S3150800245802214160DFF81008C0218160DFF808080A
S315080024680021C160DFF800084FF480610161DFF8D8
S31508002478F80701F044FA00F03DFE0400E4B2002C27
S3150800248802D02000C0B298E0002001F050FADFF828
S31508002498001A0860042001F04AFADFF8F4194860BF
S315080024A8082001F044FADFF8E81988600C2001F0E2
S315080024B83EFADFF8DC19C860DFF8B00700680028BC
S315080024C80ED0DFF8A8070068012809D0DFF89C07AE
S315080024D80068062804D0DFF894070068022823D184
S315080024E8DFF8840700210160DFF87C0703214160D3
S315080024F8DFF8740740218160DFF86C070021C160A6
S31508002508DFF864074FF480610161DFF85C0701F0C2
S31508002518F6F900A9032000F012FE0400E4B2002C24
S3150800252802D02000C0B248E0DFF840070068042857
S3150800253840D0DFF86009BDF800100160BDF800005A
S315080025480004DFF824170860DFF81C070921416032
S31508002558DFF81407C0218160DFF80C070021C16085
S31508002568DFF804074FF480610161DFF8FC0601F023
S31508002578C6F900F0BFFD0400E4B2002C02D0200022
S31508002588C0B21AE0002001F0D2F9DFF80C19086089
S31508002598042001F0CCF9DFF800194860082001F09A
S315080025A8C6F9DFF8F41888600C2001F0C0F9DFF8DE
S315080025B8E818C86000242000C0B216BD2DE9D0036B
S315080025C800210024DFF8A426126880F85620DFF8D0
S315080025D8C4281268A0F85420DFF8BC281268120E1E
S315080025E81400E4B2A2090270C4F38302427014F01C
S315080025F803028270DFF8A0281268140CC470DFF88A
S3150800260898281268140A0471DFF88C28146844712B
S31508002618DFF884285268140EE4B22201C280DFF873
S3150800262878285268140CC288E4B22309DBB21A4324
S31508002638C28014F00F020272DFF85C285268140A86
S31508002648E4B2E2094272C4F380128272C4F34012F9
S31508002658C272C4F30012027300224273DFF80C2612
S315080026681268002A04D0DFF804261268012A59D10C
S31508002678E4B214F0030292020261DFF81C285468D7
S315080026880269E4B252EA84020261DFF80C28926809
S31508002698140E0269E4B2A309DBB21A430261C4F351
S315080026A8C202027514F007024275DFF8EC27926831
S315080026B8140CE4B262098275C4F38202C27514F076
S315080026C8030252000276DFF8D0279268140A027EBF
S315080026D8E4B252EAD41202760269521C0023C0E90F
S315080026E81223D0E912670122037E9B1C9A40D3174E
S315080026F8A2FB068902FB079903FB0699C0E912891A
S31508002708012290F908309A400265D0E91267026DED
S315080027180023A2FB068902FB079903FB0699C0E971
S31508002728128934E0DFF844251268022A2FD1DFF827
S3150800273868275468E4B214F03F0212040261DFF80D
S3150800274858279268140E0269E4B252EA0422026112
S31508002758DFF844279268140C0269E4B2224302613E
S31508002768DFF834279268140A02690023521C53F1C9
S3150800277800035FF400260027A6FB028906FB0399D7
S3150800278807FB0299C0E912894FF400720265C4F37F
S315080027988012427614F03F0252008276DFF8F82655
S315080027A89468827EE4B252EAD412827614F07F02E2
S315080027B8C276DFF8E426D268140EE4B2E209027794
S315080027C8C4F341124277C4F38202827714F00302F3
S315080027D89200C277DFF8C026D268140CC27FE4B22A
S315080027E852EA9412C277C4F3401280F820200022D5
S315080027F880F8212014F0010280F82220DFF89826B4
S31508002808D268140AE4B2E20980F82320C4F38012D5
S3150800281880F82420C4F3401280F82520C4F3001257
S3150800282880F82620C4F3810280F8272014F00302D2
S3150800283880F82820DFF86026D468E4B2620880F8B1
S315080028482920012280F82A20DFF844261268140E67
S3150800285880F82C40DFF838261268140CE4B22202F5
S31508002868C285DFF82C261268140AC28DE4B2224300
S31508002878C285DFF81C261468E4B222060263DFF86C
S3150800288810265268140E026BE4B252EA0442026336
S31508002898DFF8FC255268140C026BE4B252EA0422EB
S315080028A80263DFF8EC255268140A026BE4B2224385
S315080028B80263DFF8DC25546880F83440DFF8D02551
S315080028C89268140E80F83540DFF8C4259268140C0F
S315080028D8E4B222068263DFF8B8259268140A826B86
S315080028E8E4B252EA04428263DFF8A4259468826B4C
S315080028F8E4B252EA04228263DFF89425D268140EF9
S31508002908826BE4B222438263DFF88425D268140C0A
S3150800291890F83C20E4B252EA141280F83C20E4B25B
S3150800292814F00F021202C287DFF86425D268140A67
S31508002938C28FE4B22243C287DFF85425D468E4B2CA
S31508002948620880F84020012280F841200800C0B2B9
S31508002958BDE8D003704710B50024DFF810130968DE
S31508002968032903D127242000C0B254E0DFF8FC125B
S315080029780968002909D0DFF8F4120968012904D082
S31508002988DFF8E8120968022943D1B0F5805F03D158
S3150800299827242000C0B23EE0B0F5006F1DD1012003
S315080029A800F016FC0400E4B2002C32D1AB48002132
S315080029B80175AA4800210160A84800214160A74876
S315080029C800218160A5484FF40061C160A348002131
S315080029D80161A24800F072FF1BE0002000F0F8FB36
S315080029E80400E4B2002C14D19C48002101759B48C8
S315080029F800210160994800214160984800218160BA
S31508002A0896480021C160954800210161934800F065
S31508002A1855FF2000C0B210BD10B50024DFF84822C3
S31508002A281060DFF8440207214160DFF83C024021C4
S31508002A388160DFF834020021C160DFF82C024FF408
S31508002A4880610161DFF8200200F059FF072000F0D5
S31508002A58ABFA04002000C0B210BD2DE9F8431400F3
S31508002A681D005FF000085FF000090600DFF89C0407
S31508002A7800210170DFF8980400210160DFF894044A
S31508002A8800210160DFF8900400210160089FDFF843
S31508002A98DC010068022805D14FF40077640A44EA85
S31508002AA8C5546D0ADFF8C001BFB20760DFF8B80180
S31508002AB810214160DFF8B00140218160DFF8A801E4
S31508002AC80021C160DFF8A0014FF480610161664802
S31508002AD800F015FF5FF4803801E0B8F10108B8F195
S31508002AE8000F04D0802000F049FF0028F5D01020F8
S31508002AF800F05AFA80465FFA88F8B8F1000F02D053
S31508002B084046C0B2A6E0DFF814045FF0FF31016062
S31508002B18DFF80804BFB24760DFF800049021816037
S31508002B28DFF8F8030221C160DFF8F003002101612C
S31508002B38DFF8E80301214161DFF8E00300F001FF4F
S31508002B484948046048481121416047484021816046
S31508002B5845480021C16044484FF4806101614248F4
S31508002B6800F0CDFE112000F01FFA80465FFA88F8BB
S31508002B78B8F1000F0CD04046C0B26BE000F0F8FE82
S31508002B8846F8290019F10109B9F1080FF6D32036D4
S31508002B98DFF88C03006840F22A61084208D14FF42E
S31508002BA8004000F0EBFE0028F2D05FF00009EBE7E2
S31508002BB8082000F0E3FE002807D0082000F0E9FE08
S31508002BC85FF004084046C0B244E0022000F0D6FE92
S31508002BD8002807D0022000F0DCFE5FF00208404615
S31508002BE8C0B237E0202000F0C9FE002807D0202010
S31508002BF800F0CFFE5FF006084046C0B22AE04FF460
S31508002C08007000F0BBFE002808D04FF4007000F0F2
S31508002C18C0FE5FF007084046C0B21BE05FF0FF3908
S31508002C2805E000F0A5FE3060361DB9F101095FF42C
S31508002C38001000F0A3FE002802D0B9F1000FF0D169
S31508002C4840F2FF5000F0A5FEDFF868040021016095
S31508002C584046C0B2BDE8F28300000000542C0020AC
S31508002C68C029002000080240842C0020B02D00202E
S31508002C78000010802DE9F84F14001D005FF00009C8
S31508002C885FF000085FF0000A5FF0000B0600DFF847
S31508002C987C0200210170DFF8780200210160DFF864
S31508002CA8740200210160DFF87002002101600A9FA2
S31508002CB87A480068022805D14FF40077640A44EA7E
S31508002CC8C5546D0ADFF80405BFB20760DFF8FC04CF
S31508002CD810214160DFF8F40440218160DFF8EC0434
S31508002CE80021C160DFF8E4044FF480610161DFF870
S31508002CF8DC0400F004FE102000F056F981465FFA5D
S31508002D0889F9B9F1000F02D04846C0B2BDE0DFF82C
S31508002D18BC040460DFF8B40418214160DFF8AC0489
S31508002D2840218160DFF8A4040021C160DFF89C0413
S31508002D384FF480610161DFF8940400F0E0FD182083
S31508002D4800F032F981465FFA89F9B9F1000F02D025
S31508002D584846C0B299E0DFF8C4015FF0FF31016068
S31508002D68DFF8B801BFB24760DFF8B001902181608B
S31508002D78DFF8A8010021C160DFF8A0010021016180
S31508002D88DFF8980101214161DFF8900100F0D9FDCB
S31508002D980BE056F82A0000F0EEFD1AF1010ABAF11E
S31508002DA8080FF6D3203618F12008DFF874010068F2
S31508002DB840F21A6108422CD14FF4804000F0DEFD3B
S31508002DC80028F2D0D8F5007020281FD2D8F5007050
S31508002DD80421B0FBF1F202FB1102002A04D1D8F54E
S31508002DE800705FEA900B04E0D8F50070800810F1CF
S31508002DF8010B5FF0000ADA45D7D2306800F0BBFD50
S31508002E081AF1010A361D18F10408F4E75FF0000AFA
S31508002E18C5E7082000F0B2FD002807D0082000F012
S31508002E28B8FD5FF004094846C0B22EE0022000F05B
S31508002E38A5FD002807D0022000F0ABFD5FF00209C7
S31508002E484846C0B221E0102000F098FD002807D0B7
S31508002E58102000F09EFD5FF005094846C0B214E050
S31508002E684FF4007000F08AFD002808D04FF400706F
S31508002E7800F08FFD5FF007094846C0B205E0DFF8A5
S31508002E887002002101604846C0B2BDE8F28F000012
S31508002E98A82C0020B42D0020982C0020B02D002046
S31508002EA838B504000025002C03D126252800C0B211
S31508002EB82BE0DFF8A80400680004DFF810130860A0
S31508002EC8DFF808030D214160DFF80003402181601F
S31508002ED8DFF8F8020021C160DFF8F0024FF48061DC
S31508002EE80161DFF8E80200F00AFD0D2000F05CF841
S31508002EF80500EDB2002D02D02800C0B205E000207A
S31508002F0800F015FD20602800C0B232BD182E00203A
S31508002F18BC2D0020B82D00202C2C01406C2C00203C
S31508002F28342C014038B500245FF4803500E06D1E66
S31508002F38002D04D0802000F021FD0028F7D0002DB0
S31508002F4803D103242000C0B205E040F2FF5000F088
S31508002F5820FD2000C0B232BD10B500245FF48031D0
S31508002F68DFF89008006803E0491EDFF8880800685B
S31508002F7810F0450F01D10029F6D1002901D04107E3
S31508002F8806D50324042000F004FD2000C0B20AE098
S31508002F98400606D50024402000F0FBFC2000C0B2FD
S31508002FA801E02000C0B210BD38B505000024DFF8DE
S31508002FB84408006802E0DFF83C08006810F0450F8E
S31508002FC8F9D0410706D50324042000F0E2FC2000C6
S31508002FD8C0B26DE0C00706D50124012000F0D9FC6F
S31508002FE82000C0B264E000F09EFCEDB2A84203D00F
S31508002FF810242000C0B25BE040F2FF5000F0C9FC84
S31508003008002000F094FCDFF8F017084202D12000EF
S31508003018C0B24DE0002801D51C2049E0410001D581
S31508003028092045E0810001D50A2041E0C10001D503
S315080030380B203DE0010101D50C2039E0410101D5FD
S315080030480D2035E0C10101D50E2031E0010201D578
S315080030580F202DE0410201D5102029E0810201D573
S31508003068112025E0C10201D5122021E0010301D56E
S3150800307813201DE0410301D5142019E0810301D569
S31508003088152015E0C10301D5162011E0010401D564
S3150800309817200DE0410401D5182009E0810401D55F
S315080030A8192005E0000701D51A2001E02000C0B262
S315080030B832BD0000D400002010B50024DFF834071C
S315080030C8006802E0DFF82C07006810F0450FF9D011
S315080030D8400706D50324042000F05BFC2000C0B294
S315080030E805E040F2FF5000F054FC2000C0B210BDC5
S315080030F8D400002010B50024DFF8F806006802E0BE
S31508003108DFF8F006006810F0450FF9D0410706D534
S315080031180324042000F03DFC2000C0B20EE0C007DE
S3150800312806D50124012000F034FC2000C0B205E0D1
S3150800313840F2FF5000F02DFC2000C0B210BD70B55B
S3150800314806000C000025DFF8AC06006802E0DFF888
S31508003158A406006810F0450FF9D0410706D50325DF
S31508003168042000F016FC2800C0B22EE0C00706D5D9
S315080031780125012000F00DFC2800C0B225E000F06A
S31508003188D2FBF6B2B04203D010252800C0B21CE024
S3150800319840F2FF5000F0FDFB002000F0C8FB10F4D9
S315080031A8604F04D1000C20802800C0B20DE08104CD
S315080031B801D5132009E0410401D5102005E00004D3
S315080031C801D50F2001E02800C0B270BD842C00206C
S315080031D830B583B00400002500A80021002206C0E7
S315080031E80838002000F0A3FB800103D50E25280027
S315080031F8C0B2B2E000A95948006880B200F0B0F839
S315080032080500EDB2002D02D02800C0B2A5E0E4B250
S31508003218012C51D1019840034AD55048006800044A
S31508003228DFF8D8150860DFF8D40537214160DFF8DC
S31508003238CC0540218160DFF8C4050021C160DFF8AC
S31508003248BC054FF480610161DFF8B00500F057FB53
S315080032583720FFF7A9FE0500EDB2002D02D0280099
S31508003268C0B27AE0DFF8940502210160DFF88C0520
S3150800327806214160DFF8840540218160DFF87C0576
S315080032880021C160DFF874054FF480610161DFF839
S315080032986C0500F034FB0620FFF786FE0500EDB244
S315080032A8002D02D02800C0B257E02800C0B254E06A
S315080032B825252800C0B250E00198C0034AD52748FA
S315080032C800680004DFF834150860DFF83005372190
S315080032D84160DFF8280540218160DFF820050021D4
S315080032E8C160DFF818054FF480610161DFF80C0545
S315080032F800F005FB3720FFF757FE0500EDB2002D55
S3150800330802D02800C0B228E0DFF8F00400210160E6
S31508003318DFF8E80406214160DFF8E004402181600F
S31508003328DFF8D8040021C160DFF8D0044FF48061C3
S315080033380161DFF8C80400F0E2FA0620FFF734FE58
S315080033480500EDB2002D02D02800C0B205E028001D
S31508003358C0B202E025252800C0B23EBDB42D002023
S31508003368F0B583B00C000025002600A8002100222D
S3150800337806C008380027DFF8840408210160DFF84A
S315080033887C0410214160DFF8740440218160DFF86D
S315080033986C040021C160DFF864044FF480610161A0
S315080033A8DFF8580400F0ABFA1020FFF7FDFD060019
S315080033B8F6B2002E02D03000C0B2D7E0DFF84004DB
S315080033C800680004DFF834140860DFF83004372191
S315080033D84160DFF8280440218160DFF820040021D5
S315080033E8C160DFF818044FF480610161DFF80C0446
S315080033F800F085FA3720FFF7D7FD0600F6B2002E4B
S3150800340802D03000C0B2B1E0DFF8F8035FF0FF3150
S315080034180160DFF8F00308214160DFF8E80330218E
S315080034288160DFF8E0030221C160DFF8D8030021D4
S315080034380161DFF8D00301214161DFF8C80300F014
S3150800344880FADFF8B80300210160DFF8B0033321FA
S315080034584160DFF8A80340218160DFF8A003002156
S31508003468C160DFF898034FF480610161DFF88C03C7
S3150800347800F045FA3320FFF797FD0600F6B2002E4E
S3150800348802D03000C0B271E0DFF86803006840F285
S315080034982A61084212D15FF4001000F06FFA00287A
S315080034A805D000F065FA00A941F825006D1C7F1CB7
S315080034B842F211708742E7D3042057E0082000F04B
S315080034C85DFA002806D0082000F063FA04263000C2
S315080034D8C0B24BE0022000F051FA002806D00220BC
S315080034E800F057FA02263000C0B23FE0202000F06C
S315080034F845FA002806D0202000F04BFA06263000A8
S31508003508C0B233E04FF4007000F038FA002807D04C
S315080035184FF4007000F03DFA07263000C0B225E0E7
S3150800352840F2FF5000F035FA0098009911F47F41EF
S31508003538090251EA00600099090A11F47F41084313
S31508003548009950EA116060600198019911F47F4169
S31508003558090251EA00600199090A11F47F410843F2
S31508003568019950EA116020603000C0B2FEBD000023
S3150800357800B583B001210C2000F034FB0C22082189
S31508003588DFF8840200F082FA0C220921DFF87802B3
S3150800359800F07CFA0C220A21DFF86C0200F076FAB1
S315080035A80C220B21DFF8600200F070FA0C220C21BD
S315080035B8DFF8540200F06AFA0C220221DFF84C02FE
S315080035C800F064FA4FF47060009001208DF8050049
S315080035D802208DF8040000208DF8060001208DF8D9
S315080035E8070000A9884800F0F3F90420009000A90C
S315080035F8864800F0EDF94FF48050009000208DF8C9
S31508003608070000A9804800F0E3F94FF4006000902D
S3150800361802208DF8040000208DF8070000A97A48D2
S3150800362800F0D6F901214FF4006000F00BFB0121E8
S315080036385FF4800000F0D6FA07BD00B597B0FEF72C
S3150800364837FDC0B200280AD17148007810F0FE008C
S315080036586F49087000A8FEF7B1FF002003E06C4820
S3150800366801210170032017B000BD80B56849012201
S315080036780A70C0B2002809D1FEF775FD002805D1E1
S315080036886348007810F0FE006149087060480078C1
S3150800369802BD70B5ADF5027D0C0015001E000021AF
S315080036A8C0B2002801D001202BE03000461EC0B267
S315080036B8002825D04FF40070009055FA86F04FF48C
S315080036C8007101FB00F2002301A8FFF7C6F9010003
S315080036D8C9B2002901D0012013E0FEF744FD0128EC
S315080036E8FBD04FF4007201A9F6B24FF4007000FB44
S315080036F8064000F0EDFAF6B2002ED6D1002000E01A
S3150800370801200DF5027D70BD70B5ADF5027D0C0082
S3150800371815001E000021C0B2002801D001202EE0A5
S315080037283000461EC0B2002828D04FF40072F6B200
S315080037384FF4007000FB064101A800F0C9FA4FF4DF
S315080037480070009055FA86F04FF4007101FB00F2FC
S31508003758002301A8FFF78EFA0100C9B2002904D090
S31508003768C9B2052901D0012009E0FEF7FCFC0128A9
S31508003778FBD0F6B2002ED3D1002000E001200DF5CB
S31508003788027D70BD10B596B0030014000120204ACA
S315080037981278D20701D5032027E0C9B2002905D037
S315080037A8022914D004D3032916D01CE000201BE0F4
S315080037B8DBB2002B09D100A8FEF700FFDDE91201EC
S315080037C8400A40EAC150490A206000200CE04FF43C
S315080037D800702080002007E0DBB2002B01D12020F2
S315080037E82060002000E00420C0B216B010BD0948C9
S315080037F870470000342C014008E0FFFD842C0020A7
S31508003808B42D00206C2C002000080240000C024051
S31508003818E10000200000AA4280B2802801DA0100EF
S315080038281EE000290CD080B2FF2801DD002106E041
S3150800383880B2194911EB4000B0F5807001880FE095
S31508003848002100E0491C89B2802906DA89B2124AA1
S3150800385832F8112080B29042F4D111F18000C1B239
S31508003868080080B27047002100E0491C0B4A32F86C
S315080038781120002A05D0094A32F8112080B2904250
S31508003888F3D1064A32F81120002A03D0044830F842
S315080038981100FFE780B27047CCA20008C89D00084F
S315080038A8A89F000880B501214FF4006000F0EAF9E6
S315080038B800214FF4006000F0E5F901BD0021364A01
S315080038C812681100354A1140027D83681A43436815
S315080038D81A43C3681A4303681A4300691043014325
S315080038E82D48016070472E49C0B2086070472D49B7
S315080038F8086070472B48006810F0030070470021DD
S31508003908294A03681360294A12681100C90AC902B4
S31508003918426883681A43C3681A4300691043014317
S3150800392822480160704722480068C0B2704781B0D3
S31508003938002100911F49081800900098006801B0F6
S31508003948704700211C4A0368136042681B4B1A60BB
S315080039581B4A1268110031F0F7018268C3681A43D6
S3150800396803691A43406910430143154801607047C3
S315080039781448006870471349086070470021124ABE
S315080039881268024201D0012100E000210800C0B2F5
S3150800399870470E4908607047042C01400081FFFFF4
S315080039A8A0802542002C0140082C01400C2C01401F
S315080039B8102C0140142C0140242C0140282C0140CD
S315080039C82C2C0140802C0140342C0140382C014015
S315080039D830B400220023002400252A0047E00123EA
S315080039E893400C681C409C4240D103680324150088
S315080039F8EDB26D00AC40A343036003680C7915006B
S31508003A08EDB26D00AC40234303600B79012B02D05D
S31508003A180B79022B1AD1836803241500EDB26D00C1
S31508003A28AC40A343836083684C791500EDB26D00FA
S31508003A38AC4023438360436801249440A34343600E
S31508003A4843688C799440A4B223434360C36803242B
S31508003A581500EDB26D00AC40A343C360C368CC79CA
S31508003A681500EDB26D00AC402343C360521C102A02
S31508003A78B5D330BC70470022006989B2084201D024
S31508003A88012200E000221000C0B27047F0B40023FB
S31508003A980024D2B211F00705EDB2AD00AA40130012
S31508003AA889B2CA1010EB820289B2CD1010EB8505CF
S31508003AB82D6A0F2611F00707FFB2BF00BE40B543AF
S31508003AC8156289B2CA1010EB8202126A1A431400E8
S31508003AD889B2C91010EB81000462F0BC704750F82F
S31508003AE8041B61B150F8042BD30744BFA9F101039D
S31508003AF89A18002342F8043B091FFAD1EFE77047E2
S31508003B08F0B4002100220023022400250226DFF84B
S31508003B1894713F6817F00C073900002904D0042966
S31508003B2806D0082908D035E0DFF88011016034E0AE
S31508003B38DFF87C11016030E0DFF86C110968C1F321
S31508003B488055DFF86411096811F03F06002D0BD07F
S31508003B58DFF85C11B1FBF6F1DFF84C211268C2F305
S31508003B68881202FB01F30AE0DFF84011B1FBF6F10F
S31508003B78DFF834211268C2F3881202FB01F3DFF872
S31508003B8828110968C1F30141491C4C00B3FBF4F13B
S31508003B98016002E0DFF814110160DFF8081109680E
S31508003BA811F0F0010909DFF80C218A5C0168D14097
S31508003BB84160DFF8F010096811F4E051890ADFF866
S31508003BC8F4208A5C4168D14081603649096811F455
S31508003BD86041490BDFF8DC208A5C4168D140C16046
S31508003BE8F0BC7047C9B2002905D0334909680843AB
S31508003BF83149086005E03049096831EA00002E496C
S31508003C0808607047C9B2002905D02C4909680843D5
S31508003C182A49086005E02949096831EA0000274960
S31508003C2808607047C9B2002905D0254909680843BC
S31508003C382349086005E02249096831EA0000204955
S31508003C4808607047C9B2002905D01E4909680843A3
S31508003C581C49086005E01B49096831EA000019494A
S31508003C6808607047C9B2002905D01749096808438A
S31508003C781549086005E01449096831EA000012493F
S31508003C8808607047C9B2002905D010490968084371
S31508003C980E49086005E00D49096831EA00000B4934
S31508003CA80860704708380240043802400024F400C7
S31508003CB8001BB700C40000203038024034380240E0
S31508003CC8403802404438024010380240243802403E
S31508003CD810B50400200000F003F8200010BD00000D
S31508003CE862B38B0708D0521E11F8013B00F8013B56
S31508003CF800F024808B07F6D1830740F0208000BFA8
S31508003D08103A07D330B4B1E83810103AA0E838109A
S31508003D18F9D230BC530724BFB1E80810A0E8081048
S31508003D2844BF51F8043B40F8043BD20724BF31F896
S31508003D38022B20F8022B44BF0B7803707047083A09
S31508003D4807D3B1E80810083A40F8043B40F804CB12
S31508003D58F7D25307E4E70000C2788A18DFF8183262
S31508003D68DA70827889B20B0A9A18DFF80C329A70D8
S31508003D78DFF8042243785370DFF8FC2100781070C6
S31508003D88DFF8F401807889B20A0AD2B2904212D2D0
S31508003D98DFF8E4014078401CDFF8DC215070DFF8D2
S31508003DA8D8014078002806D1DFF8CC010078401CF5
S31508003DB8DFF8C4211070DFF8C001C07889B2C9B22B
S31508003DC8884217DADFF8B0018078401C6A4988709B
S31508003DD86948807800280DD167484078401C6649AC
S31508003DE8487065484078002804D163480078401C24
S31508003DF861490870704710B492B25218531E0AE007
S31508003E080A7812024C781219101880B292B29042A7
S31508003E1800D2401C891C9942F2D3994207D10978E5
S31508003E280A02101880B292B2904200D2401C80B2A0
S31508003E3810BC704780B5142250490020FFF7DBFFF5
S31508003E4880B2002802D14FF6FF7002E080B201F076
S31508003E585FF880B202BD10B54949097C0902484A8B
S31508003E68527C8918B1F1140454FA80F0082245499D
S31508003E7880B2FFF7C0FF220092B2434980B2FFF72B
S31508003E88BAFF80B2002802D14FF6FF7002E080B26E
S31508003E9801F03EF880B210BD80B50620FFF7DBFFBB
S31508003EA802BD3A48002101700AE0384800783849C6
S31508003EB8002221F8102035480078401C334908703C
S31508003EC8324800780028F0D03048002101700CE00C
S31508003ED82E48007868212F4A01FB002000214176E8
S31508003EE82A480078401C294908702848007800287C
S31508003EF8EED029484FF48061018070472349002293
S31508003F080A7004E021490978491C204A11701F499A
S31508003F18097800290CD11D4909781D4A32F811106B
S31508003F280029EFD119490978194A22F81100FFE73B
S31508003F38704780B5010089B2DFF8DC0D00680830E3
S31508003F48FFF70AFFDFF8D00D00680B4909780172F8
S31508003F58DFF8C40D0068084949784172DFF8B80DDA
S31508003F680068054989788172DFF8AC0D006802494E
S31508003F78C978C17201BD0000E82D0020F2000020B2
S31508003F88E4000020FE000020060100201C2E002068
S31508003F980E2E0020A8280020122E002010B5DFF8C3
S31508003FA8781D0C68DFF8C41DDFF8C42D1160DFF82A
S31508003FB8C42D1160C0B2032818D1607E10F00F0016
S31508003FC803280AD1208A002807D1DFF8AC0D082172
S31508003FD8017001F03CF800F064BEDFF8A00D00217E
S31508003FE80180DFF8940D0021017010BDC0B20228C7
S31508003FF840F0CB80DFF8880DC078401CDFF8801DBC
S31508004008C870C0B200281AD1DFF8740D8078401C31
S31508004018DFF86C1D8870C0B2002810D1DFF8600D73
S315080040284078401CDFF8581D4870C0B2002806D1F1
S31508004038DFF84C0D0078401CDFF8441D0870DFF8DF
S315080040483C0D00210180DFF83C0D00210180607ECF
S31508004058072802D0607E052808D1A07E401CA076D5
S31508004068A07E782801D100206076B6E7607E002811
S31508004078FBD0208A00287AD0A07E411EA176C0B23D
S315080040880028F2D1E07E082808D0607E022802D0EF
S31508004098607E012810D1E07E05280DD100206076C3
S315080040A8DFF8D40C8021017000F0D1FFDFF8A40DE9
S315080040B8142180F82F108DE1E07E052801DB042005
S315080040C800E0E07E032111FA00F0A076E07E401CAD
S315080040D8E076607E10F00F00C0B201280AD00228E8
S315080040E835D0032839D004283FD006283DD00828DB
S315080040F83BD0BAE7DFF85C0D102180F82F10DFF8FF
S31508004108540D90F82F0050F00200DFF8481D81F88A
S315080041182F00DFF8400D022180F83610DFF8340D3D
S31508004128042180F83710DFF82C0D062180F838109E
S31508004138DFF8200D0A2180F83910DFF8400C2C2109
S315080041480180DFF8100D602180F82E104BE1DFF8AA
S31508004158040D002180F82F10D1E7DFF81C0C042184
S31508004168017000F074FF00F0DEBD00F041BD607E0E
S3150800417810F00F0003287FF478AFDFF8FC0B08214E
S31508004188017000F064FF00F08CBDDFF8C80C807B76
S3150800419845287FF422AFDFF8E40B0088DFF8B41C63
S315080041A8097C0902DFF8AC2C527C8918884216DB90
S315080041B8DFF8A00C007C0002DFF8981C497C401840
S315080041C8DFF8B81B0880DFF88C0C007D3F21084211
S315080041D804D1DFF8800C407D002801D0FDE6FCE616
S315080041E8DFF8240D0088DFF8241D0988884207D1DE
S315080041F8DFF8140D4088DFF8141D4988884210D066
S31508004208DFF8500CC08BDFF8001D0988884207D1F3
S31508004218DFF8400C008CDFF8F01C4988884200D08B
S31508004228DBE6FFF707FE4FF6FF7188427FF4D5AE47
S31508004238DFF8200CC07D062808D1FFF72DFE4FF6BB
S31508004248FF71884244D1DFF8F84C43E0DFF8040CE4
S31508004258C07D01287FF4C1AEDFF8F80B90F822007C
S3150800426808287FF4BAAEDFF8EC0B002180F8221094
S31508004278DFF8E00B808C4FF6F771884207DBDFF82A
S31508004288D40B808C0930DFF8CC1B888406E0DFF86D
S31508004298C40B808C0830DFF8BC1B8884DFF8B40BA5
S315080042A8DFF8B01B498BC183DFF8A80BDFF8A41B1E
S315080042B8898B0184DFF89C0BDFF84C1C098841833D
S315080042C8DFF8900BDFF8401C4988818300F016BE9A
S315080042D883E66834DFF8680CA042C0F0DB80607EAD
S315080042E80028F6D0DFF86C0B808CA1888842F0D1BC
S315080042F8DFF8600B408CE1888842EAD1DFF8540B76
S31508004308408B21888842E4D1DFF8480B808B618886
S315080043188842DED1DFF8000A0460DFF85C0A00216B
S315080043280170DFF8300B90F82F00400700F1BC82C7
S31508004338DFF8200B90F82E00C0B200098000DFF8DD
S31508004348041C0870DFF8340A0088DFF8F81B0978B7
S31508004358401A1438DFF8241A0880607E10F00F0017
S31508004368022808D1DFF8EC0A90F82F0010F03F0071
S31508004378122800F0A382DFF8040A0088002807D16B
S31508004388DFF8D00A90F82F000321084200F0968239
S31508004398DFF8C00A90F82600217A884215D1DFF896
S315080043A8B40A90F82700617A88420ED1DFF8A40A81
S315080043B890F82800A17A884207D1DFF8980A90F879
S315080043C82900E17A884200F07982DFF8880A102104
S315080043D880F82F10DFF8A40928210180DFF8740A6D
S315080043E8502180F82E10DFF86C0A217A80F82A10F6
S315080043F8DFF8600A617A80F82B10DFF8580AA17A84
S3150800440880F82C10DFF84C0AE17A80F82D10DFF8CE
S31508004418440A217B80F82610DFF8380A617B80F881
S315080044282710DFF8300AA17B80F82810DFF8240A5D
S31508004438E17B80F82910DFF81C0A0621C175DFF828
S31508004448140AA1884184DFF80C0AE1888184DFF818
S31508004458040ADFF8B41A09884183DFF8F809DFF88F
S31508004468A81A49888183DFF8EC092188C183DFF80F
S31508004478E40961880184607EC00640F1F984002059
S31508004488DFF8D01981F83100DFF8C81981F830004B
S3150800449800F0F6BCDFF8BC0990F82F0010F03F00D2
S315080044A8022806D0DFF8AC0990F82F00400729D56E
S315080044B893E5DFF8A009808CDFF88C1A0880DFF806
S315080044C8840A0021017006E0DFF8780A0078401CA3
S315080044D8DFF8701A0870DFF86C0A00780028E1D14E
S315080044E8DFF8640A0088DFF85C1A0978DFF85C2ABE
S315080044F832F811108842E7D10024DFF8480A00216B
S315080045080170E6E0DFF84C09142180F82F10DFF86F
S315080045186C0828210180DFF83C09502180F82E1004
S31508004528DFF8300990F82900DFF8181A0870DFF85C
S315080045382409DFF8201991F82D1080F82910DFF8DA
S315080045481409DFF8001A097880F82D10DFF804092D
S3150800455890F82800DFF8EC190870DFF8F808DFF893
S31508004568F41891F82C1080F82810DFF8E808DFF816
S31508004578D419097880F82C10DFF8D80890F827009D
S31508004588DFF8C0190870DFF8CC08DFF8C81891F802
S315080045982B1080F82710DFF8BC08DFF8A819097867
S315080045A880F82B10DFF8AC0890F82600DFF8941985
S315080045B80870DFF8A008DFF89C1891F82A1080F828
S315080045C82610DFF89008DFF87C19097880F82A1091
S315080045D8DFF8800890F82D00401CDFF8781881F875
S315080045E82D00C0B2002820D1DFF8680890F82C0002
S315080045F8401CDFF8601881F82C00C0B2002814D1D6
S31508004608DFF8500890F82B00401CDFF8481881F8A6
S315080046182B00C0B2002808D1DFF8380890F82A001D
S31508004628401CDFF8301881F82A00DFF82808408C83
S31508004638DFF814190880DFF81C08DFF81818898CC1
S315080046484184DFF81008DFF8001909888184DFF843
S315080046580408DFF80018498BC183DFF8F807DFF884
S31508004668F417898B0184DFF8EC07DFF89C180988AA
S315080046784183DFF8E007DFF890184988818300F05E
S31508004688FFBBDFF8C00800786821DFF8B42801FB0B
S315080046980020407E072815D1002C0BD0A07EDFF815
S315080046A8A41809786822DFF8983802FB0131897E50
S315080046B8884207D2DFF88C0800786821DFF8802856
S315080046C801FB0024DFF87C080078401CDFF8741822
S315080046D80870DFF870080078002812D1DFF8640837
S315080046E800786821DFF8582801FB0020407E00285A
S315080046F8C7D1DFF8500800786821DFF8442801FB9D
S315080047080024002C3FF469ACDFF80C06046003208B
S31508004718A07620760020A0750420E0750020E076B3
S31508004728DFF83007808CA080DFF82807408CE08007
S31508004738DFF82007408B2080DFF81807808B608019
S3150800474801206076DFF8380600782073DFF830062F
S3150800475840786073DFF828068078A073DFF82006AB
S31508004768C078E07301202082DFF8E80690F829006F
S31508004778E072DFF8E00690F82800A072DFF8D406A1
S3150800478890F827006072DFF8CC0690F826002072A9
S315080047980120FFF7CEFBDFF8BC0690F82E0010F0D4
S315080047A8F0005128FFF6A6ACDFF89807002101703B
S315080047B806E0DFF890070078401CDFF888170870CD
S315080047C8DFF880070078DFF88C1691F82E10C9B242
S315080047D80909C9B2491FB0EB810FBFF68BACDFF8E0
S315080047E864070078DFF86C16401890F83600DFF88A
S315080047F860170870DFF85807007800283FF47AAC85
S31508004808DFF84C0700780128D3D0DFF8440700788A
S3150800481802282ED1DFF82C070078DFF8381640185A
S3150800482890F83700042824D1DFF818070078DFF84D
S315080048382416401890F83800DFF808170978DFF8C2
S315080048481426891891F8391051EA0020DFF8F81665
S315080048580880DFF8F406008840F20B61884202DB1C
S3150800486840F20A6002E0DFF8E00600886082A0826B
S3150800487840E4DFF8D0060078DFF8D815401890F835
S31508004888370000283FF436ACDFF8B8060078DFF8BA
S31508004898B4160978DFF8BC25891891F8371008186E
S315080048A8DFF8A01608708BE700206076DFF8C804E2
S315080048B82021017000F0CBFBFFF78FBBDFF89405CA
S315080048C890F82F00C00664D5208A002861D0218A6E
S315080048D814F10C00FFF740FADFF8780590F82A007B
S315080048E8DFF870160978884253D1DFF8680590F81A
S315080048F82B00DFF86016497888424AD1DFF8540554
S3150800490890F82C00DFF84C168978884241D1DFF8F0
S31508004918440590F82D00DFF83C16C978884238D146
S31508004928DFF8300600782073DFF8280640786073C9
S31508004938DFF820068078A073DFF81806C078E073D9
S31508004948E07E00281DD194F9180094F91A10401A27
S31508004958A17DC9B2B0EBD100A17D4118A17540B2BD
S31508004968002801D540B24042E17DC9B2B0EB9100BA
S31508004978E17D4018E075A07DC0B2E17D11EBD0005D
S315080049882076DFF8F40301210170207EA076002046
S315080049982082607E10F00F00C0B2012813D0C0F044
S315080049A86582032800F0FA8035D3052800F02F829F
S315080049B8C0F0F881072800F04F82C0F04F82082817
S315080049C800F0E48152E2DFF8B0030078C00720D58A
S315080049D803206076DFF8A0034021017000202082BA
S315080049E8DFF89803008800280CD0DFF88C030078D5
S315080049F850F00200DFF880130870DFF8800300889B
S31508004A08FFF797FADFF87C030021018000F01FFB07
S31508004A1847E1FFF7E2BADFF860030078C00740F11C
S31508004A28B380DFF8300490F82F0010F03F00122802
S31508004A3840F0AA80DFF81C0490F82E0010F0F00069
S31508004A48512829DBDFF8FC040021017006E0DFF8AD
S31508004A58F4040078401CDFF8EC140870DFF8E40466
S31508004A680078DFF8F01391F82E10C9B20909C9B20F
S31508004A78491FB0EB810F0FDADFF8C8040078DFF8B2
S31508004A88D413401890F83600DFF8C4140870DFF815
S31508004A98C0040078002826D103206076DFF8B4031E
S31508004AA890F826002072DFF8AC0390F827006072A9
S31508004AB8DFF8A00390F82800A072DFF8980390F8AA
S31508004AC82900E0720120FFF734FAAB484221017049
S31508004AD800202082A94800210180AA4800210180D7
S31508004AE800F0B5FADDE0DFF8680400780128AED0F2
S31508004AF8DFF85C04007802282ED1DFF8480400782D
S31508004B08DFF85013401890F83700042824D1DFF846
S31508004B1834040078DFF83C13401890F83800DFF8BA
S31508004B2824140978DFF82C23891891F8391051EAE2
S31508004B380020DFF814140880DFF80C04008840F217
S31508004B480B61884202DB40F20A6002E0DFF8F803EC
S31508004B5800886082A0829FE7DFF8E8030078BD49ED
S31508004B68401890F83700002896D0DFF8D803007860
S31508004B78DFF8D0130978B74A891891F83710081852
S31508004B88DFF8C013087069E77B482021017000F038
S31508004B985EFA614800680021417683E4AD4890F8DA
S31508004BA82F00C0072AD5607EC00627D4208A002889
S31508004BB87FF413AA71480088401C80B2FFF7B9F938
S31508004BC86D48007850F010006B4908706B480088EB
S31508004BD8002805D06848007850F002006649087031
S31508004BE800F035FA01202082082060760020E07659
S31508004BF89848112180F82F10FFF7ECBB954890F8D4
S31508004C082F00800619D5934890F83400914991F8F1
S31508004C18351051EA00205649096840185449086071
S31508004C28564800888B4991F834108A4A92F83520F4
S31508004C3852EA0121401A514908805048008800283C
S31508004C480CD0607EC00609D44B48007850F00200A4
S31508004C584949087049480088FFF76BF97D4890F874
S31508004C68300000027B4991F831104018B64908808F
S31508004C78A08AB5490988884203D3B348008800281A
S31508004C8802D1A08AB0490880AF48008860823A48AD
S31508004C9800780321084277D03A480021018000F0BD
S31508004CA8D6F93548007880060AD5364800210180A5
S31508004CB8002060766748142180F82F10FFF78ABB12
S31508004CC82D480078C0060ED52E48002101800120FF
S31508004CD82082042060760020E0765E48112180F85C
S31508004CE82F10FFF777BB27480088002819D02248D5
S31508004CF80078C00701D500202082208A00280DD117
S31508004D08608A20490988884202D2608A1D49088033
S31508004D181C480088208204E0E02D0020208A1949D2
S31508004D2808800020E076124812490968016015488B
S31508004D38008800280CD0208A002809D0208A283024
S31508004D480E4908804348182180F82F10FFF746BBFC
S31508004D5809480078800717D50848282101803D4862
S31508004D68102180F82F10FFF739BB00BF1A01002061
S31508004D78D82D0020DC2D00201B2E00200A2E00200E
S31508004D88E42D00200C2E0020FFF727B9724800787A
S31508004D98C00706D5002060766F481021017000F01C
S31508004DA856F963E06D480088002803D06B480088E8
S31508004DB8FFF7BFF8274890F82F00C00716D56648AA
S31508004DC80078C00706D5072060760020A076002060
S31508004DD8208201E0062060760120FFF7AAF85E48DF
S31508004DE81021017000F033F9FFF7EFBA5A48007836
S31508004DF8C00705D50520607600202082FFF7EDB8A4
S31508004E085648008800287FF4E0AAFFF7E6B8534812
S31508004E180088002803D051480088FFF78AF80D480B
S31508004E2890F82F00C0070DD5072060760020A076D9
S31508004E380120FFF77EF848481021017000F007F9AD
S31508004E48FFF7C3BA4548008800287FF4BEAAFFF7CB
S31508004E58C4B800BFE4000020FFF7B7BA3E48007898
S31508004E68C00703D5072060760020A076FFF7B5B8F7
S31508004E783B48062180F8301039480A2180F8311055
S31508004E8837484021817536483449098889B2090A5C
S31508004E98017433483149098841740020304981F83A
S31508004EA835002F4981F834002D4800214186FEF740
S31508004EB8F3FFC0432A49488629484521817328486B
S31508004EC80021C173002026494875254908752548D3
S31508004ED80088401C2349088021482249098889B244
S31508004EE8090A81741E481F490988C1741C4800218B
S31508004EF80183FEF79FFFC043194908831648002116
S31508004F080170FFF772B80000CC2D0020F0AB00083E
S31508004F1880B2010A51EA002080B2704780B501299B
S31508004F280CDB114A118011490968884206D00E49D6
S31508004F380A8801000D480068FEF7CAFE01BD000090
S31508004F48A82800201C2E0020142E00200E2E002033
S31508004F581D2E0020E82D00201B2E00200A2E0020DA
S31508004F68E4000020102E00200C2E0020DC2D002046
S31508004F7880B500F01BF900F019FB10F5FA708049A6
S31508004F88086000F013FB00F51C5010307D490860D6
S31508004F98FEF787FF4FF6A960ADF8000043F61370D1
S31508004FA8ADF802007848BDF8001001807648BDF8CB
S31508004FB8021041804FF6FF70ADF800000020ADF8EA
S31508004FC802007248BDF8001001807048BDF802104A
S31508004FD841804FF6A960ADF8000040F21310ADF80D
S31508004FE802006B48BDF8001001806948BDF8021038
S31508004FF841804EF60300FEF781FF00F0C2F901BDB5
S3150800500838B5644A126812F11C04226862600022E4
S3150800501805E092B2131992B2155C1D72521C0B0068
S31508005028DBB292B29BB29A42F3D3C9B2081DA4F86E
S315080050384800B4F84810201DFFF770FF2068401C88
S31508005048206031BD80B500F032F8002002BD10B5E9
S315080050585048006810F11C044F480078400605D5EA
S31508005068012020600020A4F848001FE04A4800787C
S31508005078C00702D50020A4F848004748007840072A
S3150800508808D5B4F84800002804D0B4F84810201DFC
S31508005098FFF744FF40480078800707D50020A4F8A2
S315080050A848003E480068001D00F0BAFA10BD10B561
S315080050B800F094F900282DD0394908804FF400608B
S315080050C8FFF726FF3749898980B281420ED1012028
S315080050D8FEF764FF3248008800281BD000F0F1FD6F
S315080050E800F098F92E480021018013E040F60600E2
S315080050F8FFF70EFF2B49898980B281420AD100F051
S315080051087AFD27480088002804D000F083F9244847
S315080051180021018000F04AFA1949096888421ED315
S315080051281748006810F5FA7015490860002414E055
S3150800513868201D4900FB0410164908600220FEF77E
S315080051482DFF17480088002806D000F0BAFD00F0A1
S3150800515861F9134800210180641C002CE8D000F08E
S3150800516825FA08490968884208D30648006800F5F8
S315080051781C5010300349086000F072FC10BD00008E
S31508005188C02D0020C42D0020CC2D0020D42D0020B1
S31508005198D02D0020E02D00201B2E0020D82D002021
S315080051A80A2E0020E4000020A828002010B5B2B076
S315080051B801215FF0F050FEF715FD01214720FEF7A3
S315080051C811FD01214FF48040FEF73CFD012000F057
S315080051D851FE8E20009000208DF8060002208DF8DA
S315080051E8040000208DF8070002208DF8050000A9A4
S315080051F8DFF83803FEF7ECFB0B220121CB48FEF754
S3150800520845FC0B220221C948FEF740FC0B22032164
S31508005218C648FEF73BFC0B220721C448FEF736FCB6
S315080052284FF40060009000208DF8060002208DF8E3
S31508005238040000208DF8070002208DF8050000A953
S31508005248BB48FEF7C5FB0B220B21B948FEF71EFC27
S315080052583220009000208DF8060002208DF8040000
S3150800526800208DF8070002208DF8050000A9B1482E
S31508005278FEF7AEFB0B220121AE48FEF707FC0B2210
S315080052880421AC48FEF702FC0B220521A948FEF7C3
S31508005298FDFB4FF4C040009000208DF80600022060
S315080052A88DF8040000208DF8070002208DF8050007
S315080052B800A99F48FEF78CFB0B220D219C48FEF798
S315080052C8E5FB0B220E219A48FEF7E0FB00F0D8FD15
S315080052D801F052F801F059F80128FBD003A800F0AC
S315080052E831FF0020039000200A904FF400700D90BB
S315080052F800200E905FF000401190202014900020A6
S31508005308169000201790002018904FF400600B9014
S315080053184FF480400890002400E0641C202C15D225
S315080053280221200080B200F092FFADF80A0003219E
S31508005338200080B200F08BFFADF8080002987E497D
S31508005348884203D002987D498842E6D1212C04D3A5
S3150800535840F247117A4801F077F8210089B203A884
S3150800536800F09AFD002804D14FF4A671744801F09C
S315080053786BF800F0C4F800F098F800F058FF32B05F
S3150800538810BD82B008208DF8000000208DF80100B5
S3150800539827208DF8020069208DF803005B208DF818
S315080053A8040045208DF8050066489DF80010017030
S315080053B864489DF80110417062489DF80210817092
S315080053C860489DF80310C1705E489DF80410017185
S315080053D85C489DF80510417102B0704710B55A48E7
S315080053E80068C00F002813D157480068C0F30D4459
S315080053F8220056495648FEF76BFC5348006850F099
S31508005408004051490860534801210160200000E026
S31508005418002010BD80B550480068C00F0028FAD192
S315080054284E4802884A494E48FEF752FC4A484C49B3
S3150800543881604948002101604748006850F4801097
S31508005448454908604448006850F0005042490860D9
S315080054584148006850F080503F4908603E48006857
S3150800546830F000603C4908603B48006830F08060CE
S315080054783949086038480021416038480088364963
S31508005488496860F30B01344841603348406830F492
S315080054988050314948603048006850F000402E492D
S315080054A8086030480121016001BD27482749816005
S315080054B825480021016024482349C1602248002163
S315080054C841602148406830F400401F4948601E483A
S315080054D8406850F480401C4948604FF4C8601A492F
S315080054E8496860F30C01184841601748006850F08D
