S01900006F70656E626C745F73746D3332683734332E73726563F9
S31508000000000008248D090008A1080008A3080008B4
S31508000010A5080008A7080008A908000800000000AD
S31508000020000000000000000000000000AB08000807
S31508000030AD08000800000000AF080008B108000875
S31508000040DD090008DD090008DD090008DD090008EA
S31508000050DD090008DD090008DD090008DD090008DA
S31508000060DD090008DD090008DD090008DD090008CA
S31508000070DD090008DD090008DD090008DD090008BA
S31508000080DD090008DD090008DD090008DD090008AA
S31508000090DD090008DD090008DD090008DD0900089A
S315080000A0DD090008DD090008DD090008DD0900088A
S315080000B0DD090008DD090008DD090008DD0900087A
S315080000C0DD090008DD090008DD090008DD0900086A
S315080000D0DD090008DD090008DD090008DD0900085A
S315080000E0DD090008DD09000800000000DD09000838
S315080000F0DD090008DD090008DD090008DD0900083A
S31508000100DD090008DD090008DD090008DD09000829
S31508000110DD090008DD090008DD090008DD09000819
S31508000120DD090008DD090008DD090008DD09000809
S31508000130DD090008DD090008DD090008DD090008F9
S3150800014000000000000000000000000000000000A1
S31508000150DD090008DD090008DD090008DD090008D9
S31508000160DD090008DD090008DD090008DD090008C9
S31508000170DD090008DD090008DD09000800000000A7
S31508000180DD090008DD090008DD090008DD090008A9
S31508000190DD090008DD090008DD090008DD09000899
S315080001A0DD090008DD090008DD090008DD09000889
S315080001B0DD090008DD090008DD090008DD09000879
S315080001C0DD090008DD090008DD090008DD09000869
S315080001D0DD090008DD090008DD090008DD09000859
S315080001E0DD090008DD090008DD090008DD09000849
S315080001F0DD090008DD090008DD090008DD09000839
S31508000200DD090008DD090008DD090008DD09000828
S31508000210DD090008DD090008DD090008DD09000818
S31508000220DD090008DD090008DD09000800000000F6
S31508000230DD090008DD09000800000000DD090008E6
S31508000240DD090008DD090008DD090008DD090008E8
S31508000250DD090008DD090008DD090008DD090008D8
S31508000260DD090008DD090008DD090008DD090008C8
S31508000270DD090008DD090008DD09000800000000A6
S31508000280DD090008DD090008DD0900080000000096
S30D0800029000000000DD0900086A
S3150800029810B5054C237833B9044B13B10448AFF3AA
S315080002A800800123237010BD90010024000000007F
S315080002B80063000808B5034B1BB103490348AFF3AD
S315080002C8008008BD000000009401002400630008AF
S315080002D808B505F075FA08BD08B505F07FFA08BD32
S315080002E808B5054B1B6913F4005F03D100F040F805
S315080002F8012008BD0020FCE70008025808B564205C
S3150800030800F008F808BD08B500F00AF808BD7047F7
S3150800031870477047014B1880704700BFAC0100242E
S3150800032808B505F001F80E4B1B6898420FD30D4B1C
S315080003381B786BB90B4B01221A700B4B80229A61FA
S3150800034804F0F2FF094B1B880344054A136008BDED
S31508000358044B00221A70044B4FF400029A61EFE727
S31508000368B0010024AE01002400040258AC010024A0
S31508000378024B4FF400029A61704700BF0004025806
S3150800038830B58DB0002406940794089409940A9405
S315080003980B942A4BD3F8E02042F00402C3F8E02075
S315080003A8D3F8E02002F004020592059AD3F8E02073
S315080003B842F08002C3F8E020D3F8E02002F0800279
S315080003C80492049AD3F8E02042F00802C3F8E02021
S315080003D8D3F8E02002F008020392039AD3F8E02043
S315080003E842F00102C3F8E020D3F8E02002F0010247
S315080003F80292029AD3F8E02042F00202C3F8E020FB
S31508000408D3F8E03003F002030193019B0C4D4FF437
S315080004180003AB614FF40053069306A9094802F096
S315080004284FFC8023069301230793089409940A949A
S3150800043806A9284602F044FC0DB030BD004402580F
S31508000448000402580008025810B590B0202200216E
S315080004580DEB020005F048FF002402940394049467
S315080004680594069407942C4BD3F8E82042F4802286
S31508000478C3F8E820D3F8E82002F480220192019A0A
S31508000488D3F8E02042F00802C3F8E020D3F8E030B9
S3150800049803F008030093009B4FF44073029302236A
S315080004A803930723079302A91C4802F009FC08943A
S315080004B84FF4E13309930A940B940C940C230D9387
S315080004C80E940F94164C08A9204602F083FFA368D9
S315080004D823F06043A360A36823F06063A3602368DE
S315080004E823F000532360636823F490436360A3688A
S315080004F823F02A03A360236843F001032360084B0B
S31508000508DB6913F4001FFAD0054BDB6913F4800F77
S31508000518F5D010B010BD00BF00440258000C0258B0
S315080005280048004010B5574A136823F00F0343F0F4
S3150800053804031360534B1B6803F00F03042BF9D10C
S31508000548514AD36823F0070343F00203D36093693B
S3150800055843F4404393614D4B1A6842F480221A606B
S315080005681A6842F480321A60484B1B6813F4003F35
S31508000578FAD0464B9A6A22F0030242F002029A62BD
S31508000588DA6A42F48032DA62DA6A42F40032DA6205
S31508000598DA6A22F00C0242F00402DA62DA6A22F017
S315080005A80202DA629A6A22F47C7242F040029A627D
S315080005B81A6B3749114040F2DF120A431A631A6B5D
S315080005C822F47E4242F400721A631A6B22F4FE027F
S315080005D842F498121A631A6B22F0FE4242F08072AD
S315080005E81A631A6842F080721A60284B1B6813F05F
S315080005F8007FFAD0254CA36923F00F0343F00803BC
S31508000608A361236923F0070343F003032361A3695E
S3150800061823F47063A361A36923F00F0343F0080367
S31508000628A361E36923F0700343F04003E361E369D8
S3150800063823F4E06343F48063E361A36923F070035A
S3150800064843F04003A361236A23F0700343F0400391
S315080006582362104803F00AFD002000F0FFF90E4A4D
S31508000668D2F8543423F00703C2F85434236D23F020
S3150800067840532365636D23F4401343F4801363657D
S3150800068810BD00BF00200052004802580044025816
S3150800069800FEFFFF00389C1C0040025808B500F011
S315080006A805FAFFF73FFFFFF76BFEFFF7CDFEFFF7EB
S315080006B80FFEFFF711FEFCE782B0074BD3F8F420CC
S315080006C842F00202C3F8F420D3F8F43003F0020328
S315080006D80193019B02B070470044025800B589B0DF
S315080006E80023039304930593069307930268154B0F
S315080006F89A4202D009B05DF804FB134BD3F8EC20F4
S3150800070842F48072C3F8EC20D3F8EC2002F4807225
S315080007180192019AD3F8E02042F00202C3F8E020D9
S31508000728D3F8E03003F002030293029B4FF44073B8
S315080007380393022304930923079303A9034801F0A3
S31508000748CBF8D7E700A00040004402580004025836
S3150800075810B588B00023039304930593069307936B
S315080007680268154B9A4201D008B010BD134CD4F84C
S31508000778E03043F00103C4F8E030D4F8E03003F081
S3150800078801030193019B4FF4C05303930223049377
S315080007980A23079303A90A4801F09EF8D4F8D83023
S315080007A843F00063C4F8D830D4F8D83003F00063AF
S315080007B80293029BD8E700BF00000840004402588D
S315080007C80000025808B50268084B9A4200D008BDCE
S315080007D8074AD2F8D83023F00063C2F8D8304FF465
S315080007E8C051044801F076F9F1E700BF0000084057
S315080007F8004402580000025810B502F0D7FA214CF6
S315080008084FF40003A361204802F06EF91F4802F06E
S315080008186BF9204602F068F91D4802F065F91D4B88
S31508000828D3F8D82022F00062C3F8D820D3F8EC20F1
S3150800083822F48072C3F8EC20D3F8E82022F4802248
S31508000848C3F8E820D3F8E02022F00802C3F8E0202D
S31508000858D3F8E02022F00402C3F8E020D3F8E02019
S3150800086822F00202C3F8E020D3F8E02022F00102C1
S31508000878C3F8E020D3F8F42022F00202C3F8F420E3
S3150800088810BD00BF00040258000C025800080258A0
S3150800089800000258004402587047FEE7FEE7FEE7E4
S315080008A8FEE770477047704708B500F02DF908BD90
S315080008B8294AD2F8883043F47003C2F88830274B9F
S315080008C81B6803F00F03062B06D8244A136823F07F
S315080008D80F0343F007031360214B1A6842F001021D
S315080008E81A6000221A6119681E4A0A401A601B4BC8
S315080008F81B6813F0080F06D0184A136823F00F036D
S3150800090843F007031360164B00229A61DA611A62EC
S31508000918154999621549D962154919635A6399633C
S31508000928DA6319645A64196821F4802119601A6609
S31508000938104B1A68104B1340B3F1005F03D20F4BE4
S315080009480122C3F808210E4B43F2D2021A60024B61
S315080009584FF000629A60704700ED00E000200052F0
S31508000968004402587FEDF6EA000202020000FF0181
S31508000978800201010010005C0000FFFF00800051A2
S3150800098800400052DFF834D0FFF792FF002103E059
S315080009980B4B5B58435004310A480B4B42189A4292
S315080009A8F6D30A4A02E0002342F8043B084B9A4267
S315080009B8F9D305F067FCFFF771FE704700000824B5
S315080009C85C660008000000249001002490010024B9
S315080009D884160024FEE7000010B5194B194ADA6791
S315080009E80024DC67184AC3F88020C3F8804040F220
S315080009F87122C3F88420C3F88440144AC3F88820AF
S31508000A08C3F888401822C3F88C20C3F88C40104ACB
S31508000A18C3F89020C3F890404FF49B72C3F894200B
S31508000A28C3F894400B4AC3F89820C3F898400A4A72
S31508000A38C3F89C20C3F89C40FFF7DEFE204610BD8D
S31508000A48004402583150010023C0000AFF07280352
S31508000A58FFC3FFE83330D731AADE2000104B1B78D6
S31508000A680BB90120704710B504464FF47A70B0FBED
S31508000A78F3F30C4A1068B0FBF3F000F0ADF868B968
S31508000A880F2C01D901200AE0002221464FF0FF3039
S31508000A9800F06CF8044B1C60002000E0012010BD33
S31508000AA808000024000000240C00002410B50320C8
S31508000AB800F04AF801F0FCFE0F498B69C3F30323DB
S31508000AC80E4AD35C03F01F03D8408B6903F00F0363
S31508000AD8D35C03F01F0320FA03F3094A1360094B92
S31508000AE818600020FFF7BAFF10B10124204610BD90
S31508000AF80446FFF7E1FDF9E7004402586463000875
S31508000B080400002400000024034B1B78034A1168DC
S31508000B180B441360704700BF08000024BC05002476
S31508000B2838B5044604F008FC0546B4F1FF3F02D080
S31508000B38044B1B781C4404F0FFFB401BA042FAD365
S31508000B4838BD00BF080000240649CB6823F4E063D3
S31508000B581B041B0C000200F4E0600343024A1A4314
S31508000B68CA60704700ED00E00000FA0500B5174BAB
S31508000B78DB68C3F30223C3F1070CBCF1040F28BFD3
S31508000B884FF0040C03F1040EBEF1060F14D9033B0B
S31508000B984FF0FF3E0EFA0CFC21EA0C0199400EFABA
S31508000BA803F322EA03031943002807DB0901C9B23C
S31508000BB8074B19545DF804FB0023E9E700F00F001A
S31508000BC80901C9B2034B1954F4E700BF00ED00E068
S31508000BD800E400E014ED00E00138B0F1807F0BD2A4
S31508000BE84FF0E0235861054AF02182F823100020C7
S31508000BF8986107221A6170470120704700ED00E0E6
S31508000C0830B4446B0368D3F884106F4A114041EA3C
S31508000C188401C3F884100368D3F8841021F47F018B
S31508000C28856B41EA0541C3F88410836B234404683D
S31508000C38D4F88810114041EA8301C4F8881004687A
S31508000C48D4F8881021F4FE01C56B41EA0541C4F8B9
S31508000C588810C16B03EB41030468D4F8A01011404F
S31508000C6841EA8301C4F8A0100468D4F8A01021F456
S31508000C78FE01056C41EA0541C4F8A010016C446CF4
S31508000C8804FB01330468D4F8B010114041EA830123
S31508000C98C4F8B0100468D4F8B01021F4FE01856CC5
S31508000CA841EA0541C4F8B010816CC46C04FB0133F1
S31508000CB80468D4F8AC10114041EA8301C4F8AC10B2
S31508000CC8016D446D04FB01330468D4F8F010114033
S31508000CD841EA8301C4F8F0100468D4F8F01021F446
S31508000CE87C11856D41EA0541C4F8F010816D03EB66
S31508000CF841030468D4F8C0100A4042EA8303C4F8DA
S31508000D08C0300268D2F8C03023F47C13C16D43EAB8
S31508000D180143C2F8C0300268D2F8C03023F07C53C9
S31508000D28016E43EA0163C2F8C030436B274A1A4486
S31508000D389200C266836B02EB83030367C16B03EBFE
S31508000D48C1034367016C446C04FB01F103EB81039F
S31508000D588367816CC46C04FB01F103EB8103C367E9
S31508000D68016D446D04FB01F103EB8103C0F8803083
S31508000D78816D03EBC103C0F88430816EC46D01FB35
S31508000D8804FC03EB8C03C0F88830046E04FB01F1FD
S31508000D9803EB8103C0F890300D498B420DD9D0F882
S31508000DA89C3043F02003C0F89C30032380F8983021
S31508000DB8012007E0002342F8043BD0F8903093421C
S31508000DC8F8D8002030BC70470300FFFF002B00103E
S31508000DD8FCD3004070B54C68F4B90D698C68254396
S31508000DE80C6845EA84450E6ACC6944EA06648E6945
S31508000DF834434E693443CE683443D0F88460806EF1
S31508000E0800FB03F306EB830E46F82350CEF804409E
S31508000E180EF1080E002019E00C698D6825430C6848
S31508000E28254345F08045DEE702EB000C9CF80340B5
S31508000E389CF802301B0443EA04639CF8014043EA21
S31508000E480423145C23434EF8043B0430CB89024C34
S31508000E58E35C8342E8D870BD7463000830B595B082
S31508000E6804464C22A04901A805F030FA002C00F0E7
S31508000E78388123689D4A934220D094F898300BB35A
S31508000E882268936923F01003936104F055FA05461E
S31508000E9823689A6912F0080F1AD004F04DFA431B12
S31508000EA80A2BF5D9D4F89C3043F00103C4F89C30D2
S31508000EB8032384F89830012015B030BD03F58073F4
S31508000EC86360DAE784F899302046FFF707FCD7E726
S31508000ED89A6942F001029A6104F02EFA05462368D7
S31508000EE89A6912F0010F0FD104F026FA401B0A2856
S31508000EF8F5D9D4F89C3043F00103C4F89C30032391
S31508000F0884F898300120D7E79A6942F002029A6174
S31508000F18237C012B40D02268936943F040039361F0
S31508000F28637C012B3ED02268936923F4804393613E
S31508000F38A37C012B3CD02268936943F480539361C0
S31508000F482268936923F44073A1680B439361226866
S31508000F58936923F0A40393612268136923F01003A5
S31508000F681361E368012B29D0002B2CD0022B00F043
S31508000F789B802268936943F080039361226813690A
S31508000F8843F010031361E368032B1CD122689369A5
S31508000F9843F02003936116E02268936923F040031F
S31508000FA89361BDE72268936943F480439361BFE779
S31508000FB82268936923F480539361C1E72268936989
S31508000FC843F004039361A3695A1EE369013B1B02B4
S31508000FD843EA4263226A013A13436269013A21687D
S31508000FE843EA0243CB61A368B3F5407F62D0236E18
S31508000FF833B12268D2F8C030616E0B43C2F8C030EC
S31508001008E36D226ED3420DD02168D1F8C83023F09B
S315080010180703A26E14A800EB820252F84C2C13435D
S31508001028C1F8C830236C6BB12168D1F8BC3023F0FD
S315080010380703626C14A800EB820252F84C2C13437F
S31508001048C1F8BC30A36C73B12168D1F8BC3023F061
S315080010587003E26C14A800EB820252F84C2C43EA9F
S315080010680213C1F8BC30236D73B12168D1F8BC30BE
S3150800107823F4E063626D14A800EB820252F84C2C44
S3150800108843EA0223C1F8BC302268184B9A4222D098
S315080010980023C4F89430C4F89C30012384F89830A7
S315080010A82046FFF7ADFD07E72268936943F020035A
S315080010B8936188E7A36A013BE26A013A43EA022395
S315080010C8226B013A43EA0213626A013A216843EA43
S315080010D80243CB608BE76268936823F00303936047
S315080010E8D6E70120E8E600BF1863000800A000401C
S315080010F890F89830013BDBB2012B07D9D0F89C3021
S3150800110843F00203C0F89C3001207047CB680A6890
S31508001118D2B9072B0ED08A68DB0643EA82730A69B6
S3150800112843EA02434A691343C26E496842F82130C2
S31508001138002070470A69CB691B0243EA02438A6999
S31508001148134343F06053EFE710B40A6942EA43725F
S31508001158072B0FD04B698C6843EA8473006F49687C
S3150800116800EBC10C40F83120CCF8043000205DF8BB
S31508001178044B70478B69F1E790F898C05FFA8CFCC6
S31508001188BCF1010F07D0D0F89C3043F00403C0F82F
S315080011989C3001207047920042EA011242EA430253
S315080011A8036800990A43C3F880200020704790F81E
S315080011B89830DBB2012B07D0D0F89C3043F00403F3
S315080011C8C0F89C3001207047022380F898300268DE
S315080011D8936923F0010393610023C0F89C301846ED
S315080011E8704738B590F898C00CF1FF3C5FFA8CFC4C
S315080011F8BCF1010F26D893FAA3FEBEFA8EFE05683F
S31508001208D5F8C040C4F3054CE6450BD2D5F8CC4012
S315080012181C420FD0D0F89C3043F04003C0F89C30ED
S31508001228012016E0D0F89C3043F02003C0F89C3023
S3150800123801200EE093FAA3F3B3FA83F3FFF7CAFD86
S31508001248002006E0D0F89C3043F00203C0F89C3032
S31508001258012038BD90F89830DBB2022B07D0D0F8B9
S315080012689C3043F00803C0F89C3001207047036897
S31508001278C3F8D0100020704790F898C05FFA8CFC25
S31508001288BCF1020F40F0DE8070B540290CD0412928
S315080012983BD0046D8C4269D8D0F89C3043F02003C3
S315080012A8C0F89C300120BFE00468D4F8A05015F4B3
S315080012B8FE0F0CD0D4F8A45015F07F0F0FD1D0F834
S315080012C89C3043F48073C0F89C300120ACE0D0F819
S315080012D89C3043F02003C0F89C300120A4E0D4F8E1
S315080012E8A450C5F3006615F0807F02D0D4F8A05044
S315080012F80026D4F8A440C4F305242644456F446C54
S3150800130806FB04F405EB840C37E00468D4F8B050FF
S3150800131815F4FE0F0CD0D4F8B45015F07F0F0FD182
S31508001328D0F89C3043F48073C0F89C3001207BE0E9
S31508001338D0F89C3043F02003C0F89C30012073E0B5
S31508001348D4F8B450C5F3006615F0807F02D0D4F8F7
S31508001358B0500026D4F8B440C4F305242644856F53
S31508001368C46C06FB04F405EB840C06E0C56F446DF3
S3150800137801FB04F405EB840C0026DCF8004004F0B5
S315080013888044546074BBDCF80040C4F38A44146093
S31508001398DCF8004004F000549460DCF8004004F0DF
S315080013A800441461BCF80440D461DCF8044004F431
S315080013B87024D460DCF8044004F480145461DCF822
S315080013C8044004F4001494619CF8074004F07F0470
S315080013D81462DCF80440E40F54620CF1080E4FF06E
S315080013E8000C0BE0DCF8004024F060441460CFE7FA
S315080013F81EF80C4003F80C400CF1010CD489154D65
S315080014082C5D6445F4D840290AD041290DD01F29F6
S315080014180FD80268012303FA01F1C2F8981002E00E
S315080014280368C3F8A860002070BD0368C3F8B860ED
S31508001438F9E701F01F010268012303FA01F1C2F86E
S315080014489C10F0E7D0F89C3043F00803C0F89C30AD
S3150800145801207047746300080368D3F8CC00084075
S3150800146800D001207047402905D00368D3F8B40096
S3150800147800F07F0070470368D3F8A40000F07F00E7
S3150800148870470000144BDB6813F0010F09D0124BA4
S31508001498124A5A6002F188325A60DB6813F0010F63
S315080014A814D10D4BD3F80C3113F0010F10D00A4B99
S315080014B80A4AC3F8042102F18832C3F80421D3F88A
S315080014C80C3113F0010F05D1002070470120704731
S315080014D80020704701207047002000522301674505
S315080014E80D4BDA6842F00102DA60DB6813F0010F87
S315080014F80DD0094BD3F80C2142F00102C3F80C2190
S31508001508D3F80C3113F0010F03D0002070470120DF
S3150800151870470120704700BF002000522DE9F041AE
S3150800152805460F46374B1E6903F006FF8046022F0D
S3150800153807D026F0684626F48016760C7604042426
S3150800154823E0304BD3F8106126F0684626F4801657
S31508001558760C760446F000462B4C16E003F0ECFEB3
S31508001568A0EB0800A84247D87DB9032034E0254BEC
S31508001578D3F8103124EA030333F000430CBF0123E0
S3150800158800236BB1B5F1FF3FE8D134F00403EED17F
S315080015981C4B1B6934EA03030CBF01230023F0E73D
S315080015A836F000420ED1012F1BD0164BD3F8103156
S315080015B813F4803F24D0134B4FF48032C3F8142118
S315080015C8002009E011498B6933438B61002E05DA3F
S315080015D80C4BC3F814210120BDE8F081094B5E6164
S315080015E8F9E7084B1B6913F4803F07D0054B4FF4FE
S315080015F880325A610020EFE70320EDE70020EBE789
S315080016080020E9E70020005204000080C0050024F5
S315080016182D4B1B7D012B53D070B50D4614462A4B0E
S3150800162801221A7501F17843B3F5801F3AD3A1F15F
S315080016380161B1F5801F45D20226234B00229A6123
S3150800164831464CF25030FFF769FF38BB012E2BD0D4
S315080016581E4AD2F80C3143F00203C2F80C31BFF324
S315080016686F8FBFF34F8F082354F8042B45F8042BC4
S31508001678013B13F0FF03F7D1BFF36F8FBFF34F8F0B
S3150800168831464CF25030FFF749FF012E12D00F4A67
S31508001698D2F80C3123F00203C2F80C310A4B0022A7
S315080016A81A7570BD0126C8E7084AD36843F00203CD
S315080016B8D360D4E7054AD36823F00203D360EDE77D
S315080016C8022070470120ECE7C005002400200052DC
S315080016D801F00303032B24D011F0010F0BD01D4B87
S315080016E8DA6822F03002DA60DA680243DA60DA6821
S315080016F842F08802DA6011F0020F11D0154BD3F8C0
S315080017080C2122F03002C3F80C21D3F80C2110431F
S31508001718C3F80C01D3F80C2142F08802C3F80C214F
S3150800172870470C4BDA6822F03002DA60D3F80C21DD
S3150800173822F03002C3F80C21DA680243DA60D3F8DB
S315080017480C211043C3F80C019A6942F010029A61F9
S31508001758704700BF0020005210B411F0010F0CD0DA
S31508001768114CE36823F4E663E360E36842EA002C75
S3150800177843EA0C0343F08403E36011F0020F0FD029
S315080017880949D1F80C3123F4E663C1F80C31D1F8CC
S315080017980C3142EA00221A4342F08402C1F80C21AD
S315080017A85DF8044B704700BF00200052F8B5474B58
S315080017B81B7D012B00F0888004460F46434B012207
S315080017C81A7500229A61436813F0010F0DD1002596
S315080017D8636813F0020F12D1CDB92368012B1BD009
S315080017E84FF0FF333B60A6684CE001214CF25030BD
S315080017F8FFF794FE05460028EAD00125E8E7022106
S315080018084CF25030FFF78AFE0028E5D001252F4B09
S3150800181800221A752846F8BD61682069FFF758FF3F
S31508001828636813F0010F12D1636813F0020FEED044
S3150800183802214CF25030FFF771FE00B10125244A07
S31508001848D2F80C3123F00803C2F80C31DFE701217E
S315080018584CF25030FFF762FE00B101251C4AD368E6
S3150800186823F00803D360DFE701214CF25030FFF775
S3150800187855FE0546164AD168164B0B40D3600FE04D
S3150800188805BB0136E368A2681344B342BFD9226987
S3150800189861683046FFF760FF636813F0010FE3D10C
S315080018A8636813F0020FEBD002214CF25030FFF7B1
S315080018B835FE0546064AD2F80C11064B0B40C2F807
S315080018C80C31DDE73E60A2E70225A3E7C005002440
S315080018D800200052FBF8FFFFF0B583B0002340E074
S315080018E8092400E00024B44044EA0C040235764E84
S315080018F846F825404FF0B044D4F88050D44325EA3A
S3150800190802064F6817F4803F01D042EA05064FF0F1
S31508001918B045C5F88060D5F8845004EA05064F68CE
S3150800192817F4003F01D042EA05064FF0B045C5F85E
S3150800193884602D6804EA05064F6817F4801F01D0ED
S3150800194842EA05064FF0B0452E606D682C404E6891
S3150800195816F4001F01D042EA05044FF0B04254605D
S3150800196801330A6832FA03F400F0AB804FF0010C31
S315080019780CFA03FC1CEA0202F2D04C68651E112C0C
S3150800198818BF012D01D9122C13D185685E000324CE
S31508001998B44025EA0405CC68B4402C4384604468FE
S315080019A824EA0C0C4C68C4F300149C4044EA0C0462
S315080019B84460C6684FEA430C032505FA0CF5EC4360
S315080019C826EA050E8D6805FA0CF545EA0E05C56082
S315080019D84D68122D18BF022D12D1DE08083650F8A8
S315080019E8267003F007054FEA850E0F2505FA0EF54A
S315080019F827EA05070D6905FA0EF53D4340F826500E
S31508001A08056825404C6804F0030404FA0CF42C43D2
S31508001A1804604C6814F0805FA2D02C4CD4F8F450BB
S31508001A2845F00205C4F8F450D4F8F44004F002046A
S31508001A380194019C9D08AE1C234C54F8267003F0AB
S31508001A480304A6000F24B44027EA040C204CA0423D
S31508001A583FF448AF04F58064A04222D004F58064B8
S31508001A68A04220D004F58064A0421ED004F5806404
S31508001A78A0421CD004F58064A0421AD004F58064FC
S31508001A88A04218D004F58064A04216D004F58064F4
S31508001A98A04214D004F58064A0423FF421AF0A247A
S31508001AA821E701241FE702241DE703241BE7042472
S31508001AB819E7052417E7062415E7072413E7082472
S31508001AC811E703B0F0BD00BF0004005800440258EF
S31508001AD800000258002331FA03F200F09D80F0B5A1
S31508001AE82EE0092500E0002505FA0CFCA44572D06D
S31508001AF804685D004FF0030C0CFA05FC44EA0C0474
S31508001B0804604FEAD30E0EF1080E50F82E4003F083
S31508001B180705AE000F25B54024EA050440F82E400F
S31508001B28C46824EA0C04C460446824EA02024260D1
S31508001B38826822EA0C028260013331FA03F26AD01B
S31508001B4801229A4012EA010EF6D09E08B51C334CBB
S31508001B5854F8254003F0030C4FEA8C0C0F2505FAB8
S31508001B680CF73C402E4DA842BDD005F58065A84225
S31508001B7821D005F58065A8421FD005F58065A842DD
S31508001B881DD005F58065A8421BD005F58065A842D5
S31508001B9819D005F58065A84217D005F58065A842CD
S31508001BA815D005F58065A84213D005F58065A842C5
S31508001BB897D00A2598E7012596E7022594E703258D
S31508001BC892E7042590E705258EE706258CE707257D
S31508001BD88AE7082588E74FF0B044D4F8805025EA04
S31508001BE80E05C4F88050D4F8845025EA0E05C4F8C2
S31508001BF88450256825EA0E052560656825EA0E05D8
S31508001C086560DFF818C0B41C5CF8245025EA070597
S31508001C184CF824506CE7F0BD704700BF0004005824
S31508001C28000002582DE9F04383B0D0F80080C1EBD4
S31508001C38C10300EB83035A6D1B6D9A4254D80746B5
S31508001C480C469B1AC1EBC10200EB8202526C9A42FF
S31508001C5800D31A4602F103094FEA990915E006F175
S31508001C6803094FEA9909C4EBC40507EB8505A96C6E
S31508001C783B7C0093B3B2E2B2404601F09DFFAB6CE1
S31508001C883344AB646B6D33446B6508EB441303F557
S31508001C9810639B699BB24B4512D3C4EBC40207EB8E
S31508001CA88202516D136D99420AD24BB15B1AC4EB85
S31508001CB8C40207EB8202566C9E42D0D31E46CEE774
S31508001CC8C4EBC40007EB80073A6D7B6D9A420FD8C0
S31508001CD804F00F040123A340D8F8344824EA03047F
S31508001CE8C8F83448002000E0012003B0BDE8F083B6
S31508001CF80020FAE770B58AB0002800F097800546F4
S31508001D08046890F8BD333BB3032385F8BD33E36B0A
S31508001D1813F4807F01D100232B61286801F0E0FCC9
S31508001D282C4654F8106BEC460FCCACE80F000FCCD9
S31508001D38ACE80F0094E803008CE803002B1D0ECBD3
S31508001D48304601F00FFC044658B1022385F8BD3326
S31508001D58012420460AB070BD80F8BC33FEF7F8FCAB
S31508001D68D2E70021286801F0C1FC234616E0C3EB38
S31508001D78C30205EB8202012182F83D1082F83C3045
S31508001D88A2F84230002182F83F1051649164C3EBEF
S31508001D98C30205EB820211650133DBB269688B421F
S31508001DA8E5D316E0C4EBC40305EB8303002283F8E6
S31508001DB8FD2183F8FC4183F8FF21C3F80422C3F800
S31508001DC80822C4EBC40305EB8303C3F810220134C5
S31508001DD8E4B2A142E6D82C4654F8106BEC460FCC70
S31508001DE8ACE80F000FCCACE80F0094E803008CE8C9
S31508001DF803002B1D0ECB304601F0BEFC044660B925
S31508001E08002385F83830012385F8BD336B6A012B22
S31508001E1808D0286802F0A8F89BE7022385F8BD339E
S31508001E28012496E7284600F025FDF2E7012490E705
S31508001E38026890F8BC33012B19D010B50446012363
S31508001E4880F8BC33836A012B09D0206802F080F831
S31508001E58206801F03FFC002084F8BC0310BD8369A4
S31508001E68012BF2D0936B43F480339363EDE702209A
S31508001E78704738B590F8BC33012B18D004460123AF
S31508001E8880F8BC33006801F02BFC206802F030F8B3
S31508001E98054628B1002384F8BC330125284638BDF1
S31508001EA8206802F061F8002384F8BC33F6E70225B7
S31508001EB8F4E768B110B50446032380F8BD33FFF785
S31508001EC8D8FF2046FEF77EFC002084F8BD0310BD27
S31508001ED80120704770B504460D460068066C00EB8D
S31508001EE8411303F530639A682169012911D03449E9
S31508001EF88E424ED03DB9C5EBC50304EB8303D3F830
S31508001F081032002B56D0E9B2204604F089F8002092
S31508001F1870BD12F0080F09D02A498E42F7D912F473
S31508001F28004FF4D04FF400429A60F0E712F0200F01
S31508001F3802D020229A60EAE712F0280FE7D1214951
S31508001F488E4206D912F4004F03D04FF400429A6025
S31508001F58DDE7C5EBC50204EB8202D2F804121B6959
S31508001F68C3F31203CB1AC2F81432D2F808320B4458
S31508001F78C2F8083215B9D2F8103223B1E9B22046A8
S31508001F8804F04EF8C3E704F57172012102F03EF831
S31508001F98F4E712F4004F03D04FF400429A60B6E70C
S31508001FA812F0200F01D020229A60E9B2204604F0E8
S31508001FB837F8ACE704F57172002102F027F8A2E7B2
S31508001FC80A31544F0A30544F38B5044603681D6C15
S31508001FD803EB4113D3F8081B0E4A954207D903F5B4
S31508001FE8306311F4004F02D04FF400429A6020463D
S31508001FF804F00EF8074B9D4202D92369012B01D03C
S31508002008002038BD04F571720121206801F0FEFF31
S31508002018F6E700BF0A30544F2DE9F84F044605681D
S31508002028284601F0DEFF08B1BDE8F88F06462068A5
S3150800203801F0A6FF0028F7D0206801F0A1FF10F0EC
S31508002048020F04D02268536903F00203536120681B
S3150800205801F096FF10F0100F14D02268936923F048
S31508002068100393612F6A07F00F08C7F34343022B3F
S3150800207800F08580062B00F0A1802268936943F05A
S3150800208810039361206801F07BFF10F4002F40F0DD
S31508002098A780206801F074FF10F4802F40F0E980CB
S315080020A8206801F06DFF0028C0F25381206801F00E
S315080020B867FF10F4006F0AD0D5F8083813F0010F37
S315080020C840F061812268536903F40063536120680C
S315080020D801F056FF10F0006F15D02268536903F017
S315080020E80063536194F8F433002B40F050810121C2
S315080020F884F8F41323685B6DC3F38303C4F8F833D1
S31508002108204600F0CBFB206801F03AFF10F4805F08
S3150800211840F04181206801F033FF10F4005F40F079
S315080021289581206801F02CFF10F0080F40F0A68171
S31508002138206801F025FF10F4801F40F0A881206868
S3150800214801F01EFF10F4001F40F0AB81206801F073
S3150800215817FF10F0804F40F0AE81206801F010FF9D
S3150800216810F0040F3FF460AF23685D6815F0040F9C
S3150800217840F0AA81226853682B43536054E747F610
S31508002188F0731F423FF479AF4FEA171BC8EBC8092B
S3150800219804EB8909C7F30A12D9F80812284601F088
S315080021A83DFECBF30A02D9F808321344C9F80832B7
S315080021B8D9F814321A44C9F814225EE7082204F535
S315080021C87171284601F02AFEC7F30A17C8EBC80238
S315080021D804EB8202D2F814321F44C2F814724CE790
S315080021E8206801F0D1FE0746B04616E005EB48130D
S315080021F80122C3F8082B41462046FFF76BFE1BE071
S3150800220805EB48130822C3F8082B41462046FFF772
S31508002218DBFE14E008F101087F08002F3FF439AF08
S3150800222817F0010FF6D05FFA88F1206801F0BCFEB6
S31508002238814610F0010FD9D119F0080FE0D119F02D
S31508002248100F04D005EB48131022C3F8082B19F011
S31508002258200F04D005EB48132022C3F8082B19F4DD
S31508002268005FD7D005EB48134FF40052C3F8082B84
S31508002278D0E7206801F090FE0746B04629E05146A7
S31508002288204603F0D9FE19F0080F04D005EB4813C9
S315080022980822C3F8082919F0100F04D005EB4813CB
S315080022A81022C3F8082919F0400F04D005EB481383
S315080022B84022C3F8082919F0020F04D005EB481381
S315080022C80222C3F8082919F0800F3DD108F1010840
S315080022D87F08002F3FF4E4AE17F0010FF6D05FFA37
S315080022E888FA5146206801F068FE814610F0010F09
S315080022F8C9D008F00F03012101FA03F2D5F83438DA
S3150800230823EA0203C5F8343805EB4813C3F8081955
S3150800231823698B42B3D1C8EBC80304EB8303596C12
S315080023289A6C0A449A64B8F1000FA8D1C8EBC80396
S3150800233804EB83031B6D002BA1D104F571720121EF
S31508002348206801F063FE9AE741462046FFF76AFCD3
S31508002358BCE7D5F8043823F00103C5F8043894F81F
S31508002368F433012B08D0204603F0ACFE22685369E3
S3150800237803F00043536199E6002184F8F4132046D4
S3150800238800F08CFAF2E7204603F082FE9AE6204629
S3150800239803F07EFEB7E605F500677B6823F00103C0
S315080023A87B601021206801F0B9F920E005EB461397
S315080023B84FF67F31C3F80819D3F8002922F400121A
S315080023C8C3F80029D3F8002942F00062C3F80029A7
S315080023D8C3F8081BD3F8002B22F40012C3F8002B05
S315080023E8D3F8002B42F00062C3F8002B0136636865
S315080023F8B342DBD8FB6943F00113FB61236BDBB1FE
S31508002408D7F8843043F00B03C7F884307B6C43F065
S315080024180B037B64D5F8003823F4FE63C5F8003847
S3150800242804F57172217C206801F0F0FD2268536971
S3150800243803F4805353616DE67A6942F22B0313431A
S315080024487B613B6943F00B033B61E3E7206801F0D6
S31508002458CDFD206801F054FAE060256800F022FBFB
S315080024680146227B284601F0C3F8204603F0F6FD0C
S315080024782268536903F40053536152E6204603F071
S31508002488E6FD2268536903F00803536150E6002104
S31508002498204603F026FE2268536903F48013536125
S315080024A84DE60021204603F016FE2268536903F418
S315080024B8001353614AE6204603F019FE2268536959
S315080024C803F08043536148E6204603F01AFE51E6B6
S315080024D8026890F8BC33012B16D010B504460123C0
S315080024E880F8BC33836A012B06D0206801F030FDDA
S315080024F8002084F8BC0310BD8369012BF5D0936BC3
S3150800250843F480339363F0E70220704790F8BC33AE
S31508002518012B0BD010B50446012380F8BC3300689C
S3150800252801F022FD002084F8BC0310BD0220704784
S3150800253890F8BC33012B0DD010B50446012380F85A
S31508002548BC3380F83810006801F0F2FC002084F8E3
S31508002558BC0310BD0220704738B505468C4611F0F5
S31508002568800F29D101F00F0ECEEBCE04A40004F596
S31508002578FC740444211DCEEBCE0E00EB8E0E002013
S315080025888EF8FD010CF00F0C81F800C08A60CB703C
S315080025984A780AB1A1F806C0022B1DD095F8BC33B3
S315080025A8012B1CD0012385F8BC33286801F0B8F93B
S315080025B8002085F8BC0338BD01F00F00C0EBC00148
S315080025C88900383129440431C0EBC00005EB800086
S315080025D8012480F83D40D5E700230B71DEE7022089
S315080025E8E9E710B504460A4611F0800F20D101F034
S315080025F80F00C0EBC0039B0003F5FC732344191DA9
S31508002608C0EBC00004EB8000002380F8FD3102F01F
S315080026180F020A7094F8BC33012B19D0012384F8E9
S31508002628BC33206801F0CAF9002084F8BC0310BD41
S3150800263801F00F00C0EBC0039B0038332344191D73
S31508002648C0EBC00004EB8000012380F83D30DEE7CC
S315080026580220ECE710B501F00F04C4EBC4018900A9
S3150800266801F5FC7101440431C4EBC40C00EB8C0C75
S31508002678CCF80822CCF810320023CCF814328CF89F
S31508002688FD318CF8FC410369012B06D064B9DAB22E
S31508002698006801F003FA002010BDC4EBC40C00EB77
S315080026A88C0CCCF80C22F1E7DAB2006801F09CFA37
S315080026B8F1E701F00F01C1EBC10100EB8101D1F887
S315080026C81402704710B501F00F04C4EBC401890061
S315080026D8383101440431C4EBC40C00EB8C0CCCF83B
S315080026E84820CCF850300023CCF8543001238CF815
S315080026F83D308CF83C400369012B06D064B9DAB240
S31508002708006801F0CBF9002010BDC4EBC40C00EB3F
S315080027188C0CCCF84C20F1E7DAB2006801F064FAC0
S31508002728F1E738B501F00F054268954239D80446ED
S315080027380B4611F0800F1FD1C1EBC101890001F5C5
S31508002748FC7101440431C3EBC30300EB8303002285
S3150800275883F8FD2101238B700D7094F8BC33012B87
S3150800276821D0012384F8BC33206801F066FB8DB1BB
S31508002778002084F8BC0338BDC5EBC501890038318B
S3150800278801440431C5EBC50300EB8303012283F832
S315080027983D20DFE704F57172217C206801F036FCDC
S315080027A8E6E70120E7E70220E5E701F00F034268BC
S315080027B8934231D810B5044611F0800F1ED1C3EBE9
S315080027C8C301890001F5FC7101440431C3EBC30256
S315080027D800EB8202002082F8FD0100228A700B7045
S315080027E894F8BC33012B19D0012384F8BC3320682C
S315080027F801F050FB002084F8BC0310BDC3EBC301ED
S315080028088900383101440431C3EBC30200EB820264
S31508002818012082F83D00E0E7012070470220ECE736
S3150800282810B40468606A31B940EA0240A062002020
S315080028385DF8044B70478C46A36A00EB13400023E7
S3150800284808E003F1400104EB8101496800EB1140F7
S315080028580133DBB20CF1FF318B42F2D340EA024076
S315080028680CF13F0104EB81014860E0E7036859620F
S3150800287800207047034602680121C0F8FC130020AF
S3150800288883F8F403936943F000639361516D024B2F
S315080028980B435365704700BF0300001070470000DC
S315080028A8024AD36843F08073D360704700480258D9
S315080028B8744B1B6903F03803102B00F0DE80182BC5
S315080028C810D00BB1704870476E4B1B6813F0200F79
S315080028D800F0D5806B4B1868C0F3C1006B4B23FA20
S315080028E800F0704710B4674A916A01F00301946AC8
S315080028F8C4F30510D36A03F0010C536BC3F3CC0376
S315080029080CFB03F307EE903AF8EE677A14F47C7F2B
S3150800291800F09380012965D0022900F09180E1B181
S3150800292807EE100AF8EE476A9FED596A86EE267A88
S31508002938544B1B6BC3F3080306EE903AF8EE666A27
S315080029489FED546A67EE867A76EEA77AF7EE006AFE
S3150800295877EEA67A27EE277A60E0136813F0200F39
S3150800296823D011461268C2F3C102484BD34007EE7A
S31508002978103AF8EE476A07EE100AB8EE476A86EE86
S31508002988867A0B6BC3F3080306EE903AF8EE666A86
S315080029989FED406A67EE867A76EEA77AF7EE006AC2
S315080029A877EEA67A27EE277A38E007EE100AF8EEC9
S315080029B8476A9FED396A86EE267A324B1B6BC3F354
S315080029C8080306EE903AF8EE666A9FED326A67EEF5
S315080029D8867A76EEA77AF7EE006A77EEA67A27EE73
S315080029E8277A1BE007EE100AF8EE476A9FED286A71
S315080029F886EE267A234B1B6BC3F3080306EE903A3A
S31508002A08F8EE666A9FED236A67EE867A76EEA77A07
S31508002A18F7EE006A77EEA67A27EE277A194B1B6B2C
S31508002A28C3F34623013307EE903AF8EE677AC7EE02
S31508002A38276AFCEEE67A17EE900A5DF8044B7047AB
S31508002A4807EE100AF8EE476A9FED146A86EE267AAC
S31508002A580C4B1B6BC3F3080306EE903AF8EE666A4E
S31508002A689FED0C6A67EE867A76EEA77AF7EE006A25
S31508002A7877EEA67A27EE277AD0E7094870470348FB
S31508002A88704700BF0044025800093D000090D00373
S31508002A980024744A000000390024744C0024F44ABF
S31508002AA800127A0008B5FFF703FF0B4A9369C3F3C8
S31508002AB803230A49CB5C03F01F0320FA03F3926940
S31508002AC802F00F02885C00F01F0023FA00F0044A9F
S31508002AD81060044A136008BD00440258646300087D
S31508002AE804000024000000246A4B984222D06A4B4E
S31508002AF898422FD0694B98423CD0694B984249D0A6
S31508002B08684B984256D0684B984263D0674B9842B0
S31508002B1870D0674B98427DD0664B984200F08A8001
S31508002B28654B984200F09680644B984200F0A28064
S31508002B380120704703F58843D3F8882042F001023C
S31508002B48C3F88820D3F8882022F00102C3F8882021
S31508002B580020704703F58043D3F8882042F0020224
S31508002B68C3F88820D3F8882022F00202C3F8882000
S31508002B780020704703F57053D3F8882042F0040202
S31508002B88C3F88820D3F8882022F00402C3F88820DE
S31508002B980020704703F56053D3F8882042F00802EE
S31508002BA8C3F88820D3F8882022F00802C3F88820BA
S31508002BB80020704703F55053D3F8882042F01002D6
S31508002BC8C3F88820D3F8882022F01002C3F8882092
S31508002BD80020704703F54053D3F8882042F02002B6
S31508002BE8C3F88820D3F8882022F02002C3F8882062
S31508002BF80020704703F53053D3F8882042F0400286
S31508002C08C3F88820D3F8882022F04002C3F8882021
S31508002C180020704703F52053D3F8882042F0800235
S31508002C28C3F88820D3F8882022F08002C3F88820C1
S31508002C380020704703F51053D3F8882042F48072B1
S31508002C48C3F88820D3F8882022F48072C3F888202D
S31508002C580020704703F50053D3F8882042F4007221
S31508002C68C3F88820D3F8882022F40072C3F888208D
S31508002C780020704703F5E053D3F8882042F48062B1
S31508002C88C3F88820D3F8882022F48062C3F88820FD
S31508002C98002070470000025800040258000802582D
S31508002CA8000C02580010025800140258001802585E
S31508002CB8001C02580020025800240258002802580E
S31508002CC80B6893FAA3F3B3FA83FC3CE08C68826832
S31508002CD803FB03F505EB450622EA060205FB04F4A1
S31508002CE8224382600C68CD68426822EA040205FB22
S31508002CF804F42243426034E0FF2B0ED84D69046A77
S31508002D080EFB03F606FB03F3C3EB031624EA0604D5
S31508002D1805FB03F32343036233E04C69456A1B0A40
S31508002D2803FB03F603FB06F606FB03F3C3EB0316DE
S31508002D3825EA060504FB03F32B43436221E000203A
S31508002D4870BD0CF1010C0B6833FA0CF22CD0012279
S31508002D5802FA0CF21340F4D070B54A68013A012A0F
S31508002D68B4D9C46803FB03FE0EEB4E05EA4324EA0E
S31508002D7805040D690EFB05F52C43C4604C68022C46
S31508002D88BAD04C68036813400EFB04F42343036067
S31508002D980CF1010C0B6833FA0CF2D0D0012202FAB6
S31508002DA80CF21340F4D0D8E7002070472C4B1B6868
S31508002DB803F00F03062B06D8294A136823F00F03D6
S31508002DC843F007031360274A136843F001031360A7
S31508002DD8244B1B6813F0040FFAD0224B00221A6101
S31508002DE81968214A0A401A601E4B1B6813F0007FAF
S31508002DF8FAD11C4B1B6813F0006FFAD1194B1B68E4
S31508002E0813F0005FFAD1174B00229A61DA611A6249
S31508002E18164999621649D962164919635A63996314
S31508002E28DA6319645A64196821F4802119601A66E4
S31508002E38996E40F2FF720A439A66D3F8D02042F494
S31508002E488032C3F8D020064B1B6813F0080F06D04B
S31508002E58034A136823F00F0343F007031360704708
S31508002E68002000520044025845EDF6EA0002020224
S31508002E780000FF018002010105EE900A06EE101A0D
S31508002E8807EE902A07EE103AF8EE655AB8EE466A43
S31508002E98C5EE866AF8EE677AB8EE477A9FED096A4C
S31508002EA827EE067A77EE877A66EEA77A9DED007A98
S31508002EB8B8EE477AC7EE876AFCEEE67A17EE900A06
S31508002EC8704700BF000000392DE9F04182B004467A
S31508002ED8394B9B6A03F00303012B5ED0022B63D0A0
S31508002EE8002B4FD00026002323606360A360324B73
S31508002EF89F6AC7F305171A6BC2F3080202F101089D
S31508002F08DD6A15F0010502D05D6BC5F3CC05002F07
S31508002F1835D0294BDB6A13F4803F0CD0264B1B6B44
S31508002F28C3F34623013300932B46424639463046B7
S31508002F38FFF7A2FF2060204BDB6A13F4003F0CD092
S31508002F481D4B1B6BC3F30643013300932B464246BE
S31508002F5839463046FFF790FF6060174BDB6A13F473
S31508002F68802F0CD0144B1B6BC3F3066301330093F5
S31508002F782B46424639463046FFF77EFFA06002B028
S31508002F88BDE8F0810C4B1E6816F00406ABD01B682A
S31508002F98C3F3C103094EDE40A5E7074B1E6816F4BE
S31508002FA88076A0D0064E9EE7034B1E6816F40036B8
S31508002FB899D0044E97E700BF004402580090D00302
S31508002FC800093D0000127A002DE9F04182B0044656
S31508002FD8394B9B6A03F00303012B5ED0022B63D09F
S31508002FE8002B4FD00026002323606360A360324B72
S31508002FF89F6AC7F305379A6BC2F3080202F10108FC
S31508003008DD6A15F0100502D0DD6BC5F3CC05002F77
S3150800301835D0294BDB6A13F4002F0CD0264B9B6B53
S31508003028C3F34623013300932B46424639463046B6
S31508003038FFF722FF2060204BDB6A13F4801F0CD0B1
S315080030481D4B9B6BC3F30643013300932B4642463D
S3150800305839463046FFF710FF6060174BDB6A13F4F2
S31508003068001F0CD0144B9B6BC3F306630133009304
S315080030782B46424639463046FFF7FEFEA06002B0A8
S31508003088BDE8F0810C4B1E6816F00406ABD01B6829
S31508003098C3F3C103094EDE40A5E7074B1E6816F4BD
S315080030A88076A0D0064E9EE7034B1E6816F40036B7
S315080030B899D0044E97E700BF004402580090D00301
S315080030C800093D0000127A002DE9F04182B0044655
S315080030D83A4B9B6A03F00303012B60D0022B65D099
S315080030E8002B51D00026002323606360A360334B6E
S315080030F89F6AC7F305571A6CC2F3080202F101085A
S31508003108DD6A15F4807502D05D6CC5F3CC05002F11
S3150800311818BF002E35D0294BDB6A13F4800F0CD064
S31508003128264B1B6CC3F34623013300932B464246B2
S3150800313839463046FFF7A0FE2060204BDB6A13F4B9
S31508003148000F0CD01D4B1B6CC3F3064301330093C9
S315080031582B46424639463046FFF78EFE6060174BC7
S31508003168DB6A13F0807F0CD0144B1B6CC3F3066321
S31508003178013300932B46424639463046FFF77CFE14
S31508003188A06002B0BDE8F0810C4B1E6816F0040674
S31508003198A9D01B68C3F3C103094EDE40A3E7074B52
S315080031A81E6816F480769ED0064E9CE7034B1E686A
S315080031B816F4003697D0044E95E700BF0044025827
S315080031C80090D00300093D0000127A00154B1B69D0
S315080031D803F03803182B0ED8DFE803F00F0D0D0D92
S315080031E80D0D0D0D210D0D0D0D0D0D0D160D0D0DDC
S315080031F80D0D0D0D1800002070470A4B1B68C3F308
S31508003208C1030948D84070470848704700B585B0D3
S3150800321801A8FFF759FE019805B05DF804FB0448B4
S31508003228704700BF004402580090D00300127A0085
S3150800323800093D00044B9B6903F00F03034AD35C5E
S3150800324803F01F03D84070470044025884630008F7
S31508003258044BDB69C3F30213034AD35C03F01F0369
S31508003268D84070470044025884630008044BDB6959
S31508003278C3F30223034AD35C03F01F03D8407047FD
S31508003288004402588463000800B585B0C2B2484BAA
S31508003298D358020EC0F304218A401340CB4040EAB3
S315080032A80340444B98420CD03DD8A3F500339842C6
S315080032B86ED010D9404B984229D003F57D439842E1
S315080032C821D13E4B186810F0005019D001A8FFF715
S315080032D8FBFE029814E0A3F5407398420FD1FFF756
S315080032E875FF364B9B69C3F30323354AD35C03F052
S315080032F81F03D840FFF79EFFFFF7AAFF00E000204C
S3150800330805B05DF804FBA3F58033984209D12B4B29
S31508003318186810F00060F3D001A8FFF755FE029868
S31508003328EEE70020ECE7274B984217D00ED9264B34
S31508003338984203D003F54073984227D11F4B186F5C
S3150800334810F00200DCD04FF40040D9E7A3F580332B
S3150800335898420ED003F57D43984206D1174B186854
S3150800336810F48070CCD01948CAE7A3F58033984280
S315080033780AD1124B186810F00400C1D01B68C3F3B1
S31508003388C1031348D840BBE70020B9E70020B7E7D0
S31508003398FFF71CFF094B9B69C3F30323084AD35C51
S315080033A803F01F03D840FFF745FFFFF75FFFA7E7BE
S315080033B84C44025808030207080301070044025848
S315080033C884630008080304070800050700093D0088
S315080033D80090D00338B5036813F0010F40F08980D0
S315080033E804460D460368444A1A408B6809690B4324
S315080033F869690B43E9690B4313430360EB68426841
S3150800340822F4405213434360AB69826822F440723F
S3150800341813438360394B984216D0394B98421CD0CF
S31508003428384B98421DD0384B98421ED0374B984295
S315080034381FD0374B984220D0364B984221D0364B6E
S31508003448984222D001204DE03448FFF71DFF002896
S3150800345847D06A68EAB9012044E03148FFF714FF03
S31508003468F5E72F48FFF710FFF1E72D48FFF70CFFA0
S31508003478EDE72B48FFF708FFE9E72848FFF704FFB9
S31508003488E5E72748FFF700FFE1E72548FFF7FCFED1
S31508003498DDE72B68E9690B2B0ED8B1F5004F0DD07F
S315080034A8DBB2204951F82330B0FBF3F000EB5203A6
S315080034B8B3FBF2F39BB2E360002013E0DBB21949D1
S315080034C851F82330B0FBF3F0530803EB4000B0FB88
S315080034D8F2F34FF6F0721A40C3F342031343E3605C
S315080034E8EAE70120E26A22F00F022B881343E36217
S315080034F838BD0120FCE700BFF369FFEF0010014063
S315080035080044004000480040004C0040005000407D
S315080035180014014000780040007C004008030007BA
S315080035280800000794630008002301330C4A9342F5
S3150800353811D80269002AF8DA036943F0010303611E
S3150800354800230133064A934207D8026912F0010F8D
S31508003558F7D100207047032070470320704700BF43
S31508003568400D030084B010B5044603A880E80E0091
S31508003578089B012B1DD1A36B23F48033A363E26850
S315080035881A4B1340E360E36823F44013E3600F9B88
S31508003598012B09D02046FFF7C7FF069B012B1BD036
S315080035A8BDE8104004B07047E36843F48013E3604D
S315080035B8F0E7E36843F04003E3602046FFF7B4FF0B
S315080035C80C9B23B9A36B43F48033A363E5E7A36B8A
S315080035D823F48033A363E0E7A36843F00603A360F4
S315080035E8A36843F02003A360DAE700BFBFFFBDFF67
S315080035F8022A0AD00921C26822F47052C260C36836
S3150800360843EA8123C36000207047204B0B44204AB5
S31508003618934229D91F4B0B441F4A934226D91F4B5D
S315080036280B441F4A934223D91E4B0B441E4A934206
S3150800363820D31E4B0B441E4A93421DD91D4B0B44DF
S315080036481D4A93421AD31D4B0B441D4A934217D35E
S315080036581C4B0B441C4A934214D31C4B0B441C4A60
S31508003668934211D20721C6E70F21C4E70E21C2E704
S315080036780D21C0E70C21BEE70B21BCE70A21BAE7F2
S315080036880921B8E70821B6E70621B4E7405327FF1A
S31508003698FF340C00401E1BFF3F420F0000DC0BFFE7
S315080036A87F4F1200808CF9FE20D6130060B6E5FE1F
S315080036B85FE3160000D3CEFE40771B00C05BB3FE5F
S315080036C8C091210000CA91FE20753800E05459FEC1
S315080036D8E09C4100836843F001038360002070473B
S315080036E8836823F0010383600020704708B5C36820
S315080036F823F0C043C360012909D069B9C36843F0F8
S315080037088043C3603220FDF70BFA002008BDC36862
S3150800371843F00053C360F5E70120F7E7890141F054
S315080037282001016100230133054A934205D802693D
S3150800373812F0200FF7D1002070470320704700BF0A
S31508003748400D03001023036100230133054A934201
S3150800375805D8026912F0100FF7D100207047032028
S31508003768704700BF400D0300D0F800381943C0F869
S31508003778001800207047000084B02DE9F04104467F
S3150800378807A880E80E00002306E003F1400204EBD0
S3150800379882020021516001330E2BF6D9119F27BBEF
S315080037A8D4F8043843F00203C4F80438A36B23F4A6
S315080037B80013A363236843F040032360236843F098
S315080037C8800323600023C4F8003E04F50065D4F896
S315080037D80038C4F800380C9B012B10D1099B4BB94B
S315080037E800212046FFF7C0FF0DE0A36B43F4001342
S315080037F8A363E7E701212046FFF7B6FF03E00321A5
S315080038082046FFF7B1FF10212046FFF787FF8046BD
S3150800381808B14FF001082046FFF794FF08B14FF0AA
S31508003828010800232B616B61EB610AE0C3B94FF00D
S315080038380060C2F8000900220A614FF67F328A60E2
S3150800384801330799994210D904EB431202F510611E
S31508003858D2F800090028E9DB0020C2F80009EAE7DF
S315080038684FF09040C2F80009E5E700230AE0C3B123
S315080038784FF0904CC2F800CB002202614FF67F3217
S3150800388882600133994211D904EB431202F530607C
S31508003898D2F8006B002EEADB4FF0000CC2F800CB1A
S315080038A8EAE74FF0006CC2F800CBE5E72B6923F48A
S315080038B880732B610023A3616FF0804363610A9BC1
S315080038C81BB9A36943F01003A361A2690A4B134302
S315080038D8A3610D9B1BB1A36943F00803A361012FDC
S315080038E804D04046BDE8F04104B07047A269034BCE
S315080038F81343A361F5E700BF00383C800400004085
S31508003908D0F8083813F0060305D0062B18BF022B83
S3150800391803D102207047002070470F207047000027
S3150800392810B591F800C04B78012B21D000F5006E30
S31508003938D0F81C380CF00F040122A24043EA0243CF
S31508003948C0F81C3800EB4C10D0F8003B13F4004FB5
S315080039580CD1D0F8002B8B68C3F30A03C97843EA5D
S3150800396881431343144A1A43C0F8002B002010BD9C
S31508003978D0F81C280CF00F0E03FA0EF39BB213436B
S31508003988C0F81C3800EB4C10D0F8003913F4004F77
S31508003998ECD1D0F800298B68C3F30A03C97843EA3F
S315080039A8814343EA8C5C42EA0C0C034B4CEA03035A
S315080039B8C0F80039DAE700BF0080001030B40B7889
S315080039C84A78012A26D000EB4313D3F8002B002A9D
S315080039D852DBD0F83C480A7802F00F024FF0010C87
S315080039E80CFA02F224EA0242C0F83C28D0F81C284D
S315080039F8097801F00F010CFA01FC22EA0C42C0F81A
S31508003A081C28D3F8001B234A0A40C3F8002B0020B9
S31508003A1830BC704700EB4313D3F80029002A1EDB95
S31508003A28D0F83C580A7802F00F02012404FA02F288
S31508003A3892B225EA0202C0F83C28D0F81C28097870
S31508003A4801F00F018C40A4B222EA0404C0F81C480D
S31508003A58D3F80019104A0A40C3F80029D7E7D3F85B
S31508003A68002942F00062C3F80029D3F8002942F079
S31508003A788042C3F80029D3E7D3F8002B42F0006246
S31508003A88C3F8002BD3F8002B42F08042C3F8002B6A
S31508003A989FE700BF0078F3EF007833EC70B40B7833
S31508003AA84C78012C25D000EB431000F530631D69CE
S31508003AB83F4C2C401C611D693E4C2C401C614C69CE
S31508003AC80CB18C684C611C6944F400241C611C699F
S31508003AD88D68C5F3120C44EA0C041C61012A62D0ED
S31508003AE8D0F8003B43F00443C0F8003B002070BC04
S31508003AF870474C695CBB00EB4314D4F810692D4D2C
S31508003B083540C4F81059D4F8105945F40025C4F8B6
S31508003B181059D4F81069264D3540C4F81059012AA9
S31508003B2832D000EB4313D3F8002942F00442C3F815
S31508003B3800294B69002BD9D0D0F834380A7802F016
S31508003B480F0101228A401343C0F83438CEE700EB48
S31508003B58431404F510642669154D35402561266910
S31508003B68144D354025618D684E69AE4200D94D61C0
S31508003B78256945F40025256125694E69C6F3120CA1
S31508003B8845EA0C052561CAE70A691AB100EB43112B
S31508003B98C1F8142900EB4310D0F8002942F0044272
S31508003BA8C0F80029A2E7CA68002A99D05A6197E797
S31508003BB80000F8FFFFFF07E010B59DF8084084B934
S31508003BC803334FEA930E4FF0000C08E000EB02337C
S31508003BD803F5805351F8044B1C600CF1010CF445AD
S31508003BE8F4D3002010BD0000F0B583B00B784C78EC
S31508003BF8012C31D000EB431303F5306CDCF8105078
S31508003C08834C2C40CCF81040DCF81050814C2C40E2
S31508003C18CCF810404C69002C40F0C680DCF81040FF
S31508003C288D68C5F312052C43CCF81040DCF8104013
S31508003C3844F40024CCF81040012A00F0CF80CA7852
S31508003C48012A00F0D280D3F8002B42F00442C3F8C8
S31508003C58002B002003B0F0BD4C6974BB00EB43147D
S31508003C68D4F810696B4D3540C4F81059D4F8105972
S31508003C7845F40025C4F81059D4F81069644D354040
S31508003C88C4F81059012A4DD000EB4313D3F800495C
S31508003C9844F00444C3F80049CC78012C6BD04B692E
S31508003CA8002BD6D0D0F834380A7802F00F01012252
S31508003CB88A401343C0F83438CBE700EB4314D4F8EA
S31508003CC81069534D3540C4F81059D4F81069514D48
S31508003CD83540C4F81059D4F810598E684F6907EB5F
S31508003CE8060C0CF1FF3CBCFBF6FC4B4E06EACC4C2A
S31508003CF845EA0C05C4F81059D4F810594E69C6F3A4
S31508003D0812063543C4F8105904F51064CD78012D08
S31508003D18B8D1256925F0C0452561256945F00055BE
S31508003D282561AFE70A691AB100EB4314C4F81429E8
S31508003D38CA78012A08D000EB4313D3F8002942F0C1
S31508003D480442C3F8002984E7D0F8082812F4807FCB
S31508003D5808D100EB4311D1F8002942F00052C1F806
S31508003D680029E8E700EB4311D1F8002942F0805210
S31508003D78C1F80029DFE7D0F8084814F4807F0CD189
S31508003D88D3F8004944F00054C3F8004900928B8AD6
S31508003D980A78C968FFF710FF5BE7D3F8004944F0CB
S31508003DA88054C3F80049F1E78D682C44013CB4FBFC
S31508003DB8F5F4DCF810501FFA84FE174E06EAC444D8
S31508003DC82543CCF81050DCF810508C680EFB04F428
S31508003DD8C4F312042C43CCF810402DE7CA68002A0D
S31508003DE83FF42DAFCCF8142029E7D0F8082812F4A8
S31508003DF8807F06D1D3F8002B42F00052C3F8002B77
S31508003E0821E7D3F8002B42F08052C3F8002B1AE7B3
S31508003E180000F8FFFFFF07E00000F81F8446084681
S31508003E28D11C8908002305E00CF58052126840F871
S31508003E38042B01338B42F7D370470B784A78012A4B
S31508003E4814D000EB4310D0F8002B002A06DB2BB160
S31508003E58D0F8003B23F08043C0F8003BD0F8003B7D
S31508003E6843F40013C0F8003B0020704700EB4310EA
S31508003E78D0F80029002A06DB2BB1D0F8003923F040
S31508003E888043C0F80039D0F8003943F40013C0F865
S31508003E980039E9E70B784A78012A0ED000EB431077
S31508003EA8D0F8003B23F40013C0F8003BCB78023B5C
S31508003EB8DBB2012B15D90020704700EB4310D0F868
S31508003EC8003923F40013C0F80039CB78023BDBB27B
S31508003ED8012BF0D8D0F8003943F08053C0F80039E0
S31508003EE8E9E7D0F8003B43F08053C0F8003BE2E727
S31508003EF810B50446002208E004EB42134FF67F315A
S31508003F08C3F80819C3F8081B01320E2AF4D9002287
S31508003F18C4F81028C4F81428C4F81C282046FFF743
S31508003F2811FC00B110BD10212046FFF7F7FBF9E791
S31508003F38D0F8003823F4FE63C0F80038D0F8003803
S31508003F48090101F4FE611943C0F8001800207047FA
S31508003F5808B5D0F8043823F00203C0F8043803205B
S31508003F68FCF7DEFD002008BD08B5D0F8043843F094
S31508003F780203C0F804380320FCF7D2FD002008BD68
S31508003F884269806910407047D0F8183800F5006013
S31508003F98C0691840000C7047D0F8183800F500605A
S31508003FA8C069184080B2704700EB4111D1F8082B58
S31508003FB800F5006040691040704710B4D0F8104802
S31508003FC8D0F8343801F00F02D340DB01DBB22343C3
S31508003FD800EB411000F51060806818405DF8044B46
S31508003FE87047406900F0010070470000D0F80029C2
S31508003FF8054B1340C0F80039D0F8043843F48073E9
S31508004008C0F804380020704700F8FFFF10B4046CA5
S31508004018154B9C4203D9D0F8003B002B16DB00242D
S31508004028C0F8104BD0F8104B44F40024C0F8104BD5
S31508004038D0F8104B44F01804C0F8104BD0F8104BC1
S3150800404844F0C044C0F8104B012903D000205DF89D
S31508004058044B7047C0F8142BD0F8003B43F0802374
S31508004068C0F8003BF2E700BF0A30544F014B18600E
S31508004078704700BF00000024C0B108B50346D0F851
S31508004088B80210B10020C3F8B802D3F8CC0210B1B0
S315080040980020C3F8CC0209B1C3F8B412012183F889
S315080040A89C121A70184602F037F808BD03207047A4
S315080040B810B50446012380F89C32D0F8B83213B1FB
S315080040C85B6801799847D4F8CC3213B10023C4F851
S315080040D8CC32204602F093F800B110BD204602F013
S315080040E87EF8FAE710B582B00023ADF8063059B164
S315080040F80446C0F8B812CB6A0DF106009847C4F80A
S31508004108CC02002002B010BD0320FBE708B502F078
S315080041186EF808BD08B5D0F8B83213B11B689847C9
S3150800412808BD0320FCE708B5D0F8B8320BB15B68C0
S315080041389847002008BD38B5044600F2AA2528463F
S3150800414800F02EF90123C4F89432B4F8B032C4F852
S31508004158983294F8AA1201F01F03012B0DD0022BEE
S3150800416810D02BB101F08001204602F063F803E075
S315080041782946204600F0E0FA38BD2946204600F0D0
S3150800418813FBF9E72946204600F042FBF4E738B561
S3150800419804460D4631BB1346D0F89422032A01D0AB
S315080041A8084638BDD0F85C11D0F8602191420CD881
S315080041B8D0F8B8321B691BB190F89C22032A0FD095
S315080041C8204600F054FC2846EBE7891AC0F85C112B
S315080041D88A4228BF0A46194600F041FC2846E0E705
S315080041E89847EDE7D0F8B8329B692BB190F89C222E
S315080041F8032A03D19847D4E70320D2E70320D0E758
S3150800420838B504460D46002948D11346D0F89422F5
S31508004218022A05D094F8A032012B3AD0284638BD90
S31508004228C269016A8A4211D88A421BD0D4F8B832C0
S31508004238DB681BB194F89C22032A27D080212046E4
S3150800424801F0F8FF204600F01DFCE3E7521AC261A8
S31508004258194600F0FCFB00231A461946204602F0C8
S3150800426809F8D7E783699942E0D8D0F898229342A3
S31508004278DCD20022114600F0EAFB0021C4F89812A5
S315080042880B460A46204601F0F5FFC3E7204698473D
S31508004298D4E7002384F8A0322846C0E7D0F8B83215
S315080042A85B692BB190F89C22032A03D19847B6E795
S315080042B80320B4E70320B2E770B50446012380F863
S315080042C89C320023C0F894324360C0F8A432D0F870
S315080042D8BC3223B1D0F8B8325B680021984740232E
S315080042E800221146204601F092FF0126A4F86461CF
S315080042F84025C4F860512B4600228021204601F04B
S3150800430886FFA6842562002070BD017400207047C8
S3150800431890F89C3280F89D32042380F89C3200205D
S31508004328704790F89C32042B01D00020704790F80B
S315080043389D3280F89C32F8E708B590F89C32032B32
S3150800434801D0002008BDD0F8B832DB69002BF8D0B8
S315080043589847F6E700207047002070470020704706
S3150800436808B5012380F89C32D0F8B83213B15B68D7
S3150800437801799847002008BD0346002002E001306D
S31508004388C0B201331A78002AF9D1704708B54B88A4
S31508004398012B00D008BDC0F8A43200F068FBF9E785
S315080043A80B7803704B7843708B78CA7843EA0223F4
S315080043B843800B794A7943EA022383808B79CA7941
S315080043C843EA0223C380704710B50446802101F0EA
S315080043D831FF0021204601F02DFF10BD30B583B00E
S315080043E804460D460023ADF806304A88130A013BF1
S315080043F80E2B00F2BC80DFE803F0153044BABA9EEB
S31508004408ABBABABABABABABA0800D0F8B432DB69DB
S3150800441823B10DF10601007C98470AE02946FFF703
S31508004428D3FF18E0D0F8B4321B680DF10601007CFA
S315080044389847EA88002A00F0A380BDF80630002BC2
S3150800444800F099809A4228BF1A46ADF80620014618
S31508004458204600F0EFFA03B030BD037C43B9D0F824
S31508004468B8329B6A0DF10600984702234370E0E7C5
S31508004478D0F8B832DB6A0DF1060098470223437074
S31508004488D7E7D2B2052A52D8DFE802F003101D2A68
S315080044983744D0F8B4325B6823B10DF10601007CC5
S315080044A89847C6E72946FFF78FFFD4E7D0F8B4320E
S315080044B89B6823B10DF10601007C9847B9E72946A0
S315080044C8FFF782FFC7E7D0F8B432DB6823B10DF1EE
S315080044D80601007C9847ACE72946FFF775FFBAE757
S315080044E8D0F8B4321B6923B10DF10601007C984750
S315080044F89FE72946FFF768FFADE7D0F8B4325B694E
S3150800450823B10DF10601007C984792E72946FFF783
S315080045185BFFA0E7D0F8B4329B6923B10DF1060119
S31508004528007C984785E72946FFF74EFF93E7294613
S31508004538FFF74AFF8FE7037C33B9D0F8B8325B6BCD
S315080045480DF10600984774E72946FFF73DFF82E70D
S31508004558037C43B9D0F8B8321B6B0DF106009847AF
S315080045680723437065E72946FFF72EFF73E72946B1
S31508004578FFF72AFF6FE729462046FFF725FF6AE770
S31508004588204600F074FA66E738B504468B88F3B90E
S31508004598CB88E3B94B887F2B19D803F07F0590F8A9
S315080045A89C32032B0CD080F89E52294601F052FE05
S315080045B8204600F05CFA35B1022384F89C3209E0FB
S315080045C8FFF702FF06E0012384F89C3202E0204642
S315080045D8FFF7FAFE38BD000070B504460E468D781A
S315080045E82D4B1D70012D0FD890F89C32022B0FD039
S315080045F8032B23D0FFF7E8FE274B19782046FFF749
S3150800460892FD0325284670BDFFF7DEFE0325F9E768
S315080046188DB145602946FFF77DFD054620B131462F
S315080046282046FFF7D1FEEDE7204600F020FA0323DF
S3150800463884F89C32E6E700F01AFAE3E7CDB1416858
S315080046488D4225D0C9B2FFF76EFD134B1978616004
S315080046582046FFF75FFD0546B0B131462046FFF70D
S31508004668B3FE21792046FFF75EFD022384F89C32C3
S31508004678C8E7022380F89C3245602946FFF753FDB0
S31508004688204600F0F4F9BDE7204600F0F0F9B9E74E
S3150800469800F0EDF90025B5E7DC05002408B5CB8858
S315080046A8012B0AD190F89C32022B09D9032B09D180
S315080046B80122011D00F0BEF901E0FFF785FE08BDDD
S315080046C85BB213B9FFF780FEF9E70146002341F804
S315080046D8083F012200F0AEF9F1E708B590F89C32D8
S315080046E8013B022B12D8CB88022B0CD10123C360BD
S315080046F8D0F8A4320BB10323C360022200F10C01DF
S3150800470800F098F908BDFFF75FFEFBE7FFF75CFEC8
S31508004718F8E708B590F89C32013B022B09D84B8874
S31508004728012B00D008BD0023C0F8A43200F09FF979
S31508004738F8E7FFF749FEF5E738B50C7804F06004A2
S31508004748202C06D0402C04D054B1FFF73DFE002497
S3150800475804E0D0F8B8329B6898470446204638BD26
S315080047684D78092D1DD8DFE805F012191C161C0806
S31508004778051C0F0BFFF732FEF0E7FFF705FFEDE71D
S31508004788FFF72AFF0446E9E7FFF788FFE6E7FFF79A
S31508004798A4FF2C46E2E7FFF7F9FDDFE7FFF7B9FFC5
S315080047A8DCE7FFF711FED9E770B505460C460B7826
S315080047B803F06003202B07D0402B05D023B1FFF761
S315080047C803FE0026304670BD95F89C32013B022B45
S315080047D818D82379012B0FD8D5F8B8329B68214603
S315080047E8284698470646E388002BEBD10028E9D1E6
S315080047F8284600F03CF9E5E721462846FFF7E4FD98
S315080048080026DFE721462846FFF7DEFD0026D9E71A
S31508004818F8B506460D468B880C7804F06004202CFB
S3150800482808D0D9B2402C05D06CB12946FFF7CCFD83
S31508004838002406E0D6F8B8329B68294630469847D9
S3150800484804462046F8BD6F78012F2FD0032F05D0D0
S31508004858002F57D02946FFF7B7FDF2E790F89C32A4
S31508004868022B05D0032B12D02946FFF7ADFDE8E742
S31508004878002918BF802906D001F0DCFC80213046C3
S3150800488801F0D8FCDDE72946FFF79EFDD9E76B88D6
S315080048982BB9002918BF802901D0EB881BB13046EF
S315080048A800F0E5F8CDE701F0C5FCF8E790F89C328A
S315080048B8022B05D0032B12D02946FFF785FDC0E742
S315080048C8002918BF802906D001F0B4FC802130469B
S315080048D801F0B0FCB5E72946FFF776FDB1E76B8826
S315080048E8002BAED111F07F0F09D1304600F0BFF882
S315080048F8D6F8B8329B68294630469847A1E701F0AA
S31508004908A1FCF2E790F89C22022A06D0032A2AD0AC
S315080049182946FFF759FD3C4693E7002918BF802921
S3150800492813D113F0800F15D101F07F0101EB810136
S31508004938890001F5A8710144043100230B6002229D
S31508004948304600F077F83C467BE72946FFF73CFDFA
S315080049583C4676E701F07F0101EB810189001031B9
S3150800496801440431E9E75BB2002B20DB01F00F02B2
S3150800497802EB820200EB8202B2F864212AB3002B0A
S3150800498828DB01F07F0303EB83039C0004F5A87476
S3150800499834440434802918BF002924D1002323600D
S315080049A802222146304600F045F83C4649E701F020
S315080049B80F0202EB820200EB8202928C002ADED1F9
S315080049C82946FFF701FD3C463BE72946FFF7FCFC6D
S315080049D83C4636E701F07F0303EB83039C0010345B
S315080049E834440434D6E7304601F0D2FB10B101232B
S315080049F82360D5E700232360D2E7D0B170B50D460A
S31508004A0816460446FFF7B8FC431C5B009BB2338086
S31508004A182B7003236B70022307E0EA5401345A1CEF
S31508004A28D2B20021A9540233DBB22278002AF4D183
S31508004A3870BD704708B513460222C0F894228361F0
S31508004A48C3610A46002101F00DFC002008BD08B51F
S31508004A5813460A46002101F005FC002008BD08B5E2
S31508004A6813460A46002101F005FC002008BD08B5D2
S31508004A780423C0F8943200231A46194601F0F2FBBB
S31508004A88002008BD08B50523C0F8943200231A4645
S31508004A98194601F0EFFB002008BD72B6704762B6EA
S31508004AA87047000070B5174D2C6D24F040542C65DE
S31508004AB84FF0000C03E00CF1010C5FFA8CFCBCF11A
S31508004AC8110F1DD8104C14F81C5004EB4C046678CA
S31508004AD8AC1904FB00044FF4FA5EBEFBF4FE04FBB3
S31508004AE80EFEBEF5FA5FE6D1BEFBF4F40C80013C77
S31508004AF8A4B2B4F5007FDED215701E70012000E05E
S31508004B08002070BD004402581464000870B58CB0C3
S31508004B180023ADF82E308DF82D308DF82C300BABE0
S31508004B280DF12D020DF12E014FF4FA70FFF7BAFFB9
S31508004B38002842D0234C244B23600025A560E56055
S31508004B48012626746574A574BDF82E306361A661BE
S31508004B589DF82D30E3619DF82C3023626662A662C3
S31508004B68E66226636563A663E563266404236364CD
S31508004B78A564E36425656365A565E66525666566D2
S31508004B88A3662046FCF76AF90395049505960696E2
S31508004B9840F2676307930893099503A92046FCF72B
S31508004BA8A7FA00963346022211462046FCF7E4FA8D
S31508004BB82046FCF7FCFA0CB070BDB821034800F093
S31508004BC8B1FDB7E7E005002400A00040C46300086B
S31508004BD810B58AB0024640F2E173019300230293A6
S31508004BE8039309040491059306930793089352239C
S31508004BF80993012301A90E48FCF7F3FA08B10AB08C
S31508004C0810BD01210A48FCF725FB0028F7D100F05A
S31508004C188BFB00F1320401210548FCF71DFC00282E
S31508004C28EDD000F087FE00F07FFBA042F3D9E6E757
S31508004C38E005002430B58BB004460D4640210E48E1
S31508004C48FCF711FC10B900200BB030BD23466A46A4
S31508004C5840210948FCF710FB60B9009A40F26763DF
S31508004C689A42F1D1019B002BEED19DF80E302B709C
S31508004C780120E9E70020E7E7E005002408B5FFF783
S31508004C880CFF08BD10B500F061FA00B910BDFBF7B6
S31508004C9827FB0028FAD000F0F9FDFBF79DFE00F087
S31508004CA81BFB00F057FA054B0340054A936000F0D2
S31508004CB851FA4468FFF7F3FEA047E7E780FFFF1FAE
S31508004CC800ED00E070B50D46044606E015F8013B10
S31508004CD804F8013B00F02EFE3246531E9EB2002A07
S31508004CE8F4D170BD38B50546002401E00134E4B2B4
S31508004CF80E2C12D800F01EFE04EB4403084A52F89C
S31508004D082330AB42F2D804EB4402054901EB820290
S31508004D1852681344AB42E9D900E0FF24204638BD5F
S31508004D288C64000808B5C1F3090363B903688B42A4
S31508004D3801D1012008E040F8041B4FF48062FFF710
S31508004D48C1FF012000E0002008BD2DE9F041074613
S31508004D580068FFF7C7FFFF2804D14FF00008404650
S31508004D68BDE8F081FCF78EFB00264FF0010804E049
S31508004D78E046B8F1000F1ED001361F2E1BD83C6836
S31508004D8804EB461407EB4615043500F0D3FD2A460E
S31508004D9821460120FCF73CFC844650B903461F2BE4
S31508004DA8E7D8195DEA5CD2B29142E1D10133DBB2A8
S31508004DB8F5E74FF00008FCF793FBD0E770B50D460A
S31508004DC80E4B984212D004460D4B994209D10B4E08
S31508004DD8344626B129462046FFF7A4FF58B130467F
S31508004DE870BDFFF7B2FF20B12646F2E7054E3446F6
S31508004DF8EFE70026EDE70026F1E700BF840A00245E
S31508004E0800000208800600242DE9F84306460C46E9
S31508004E1817461D46DFF8848001EA08080368B3F1D7
S31508004E28FF3F0AD0336843450ED14FF00109B9F15F
S31508004E38010F12D04846BDE8F8834146FFF772FFCE
S31508004E4881460028F3D0EDE741463046FFF7B6FF1E
S31508004E580646E8B14FF00109E9E73168641A3444AF
S31508004E68043405E017F8013B04F8013B013DE1D09D
S31508004E7800F060FD311D611AB1F5806FF2D308F5AF
S31508004E8880613046FFF79AFF064620B1041DE9E718
S31508004E984FF00009CEE74FF00009CBE700FCFFFF0B
S31508004EA870B5144B00EB400253F8225003EB82000E
S31508004EB8466815F0030F02D116F0030F04D040F226
S31508004EC82B310D4800F02EFC002405E02B68B3F1C1
S31508004ED8FF3F0CD104350134B4EB960F05D214F014
S31508004EE8FF0FF3D100F026FDF0E7012070BD002082
S31508004EF8FCE700BF8C64000838640008F0B587B082
S31508004F0804460D4600230093884203D80E2939D84B
S31508004F18012600E00026012E02D0304607B0F0BD73
S31508004F28FCF7B0FA01E00134E4B2AC4227D82046CF
S31508004F38FFF7B6FF07460028F5D100F0FBFC124B31
S31508004F4804EB440203EB820153F822204B68002B3A
S31508004F5818BFB2F1FF3F11D0002301932023059310
S31508004F684A7A02920B7A039301230493694601A8A5
S31508004F78FCF71CFC0028D6D03E4600E03E46FCF767
S31508004F88AFFACAE70026C8E78C6400084FF0FF3373
S31508004F98024A1360024A1360704700BF800600245D
S31508004FA8840A002470B504460D4616460139154B81
S31508004FB81B1A994203D9002001280ED070BDFFF7A5
S31508004FC891FEFF2801D10020F8E728190138FFF7D4
S31508004FD889FEFF2814D00120EEE70B4B23400B4A25
S31508004FE8934206D02B46324621460948FFF70CFF5E
S31508004FF8E4E72B46324621460648FFF705FFDDE774
S315080050080020DBE7FFFF1F0800FCFFFF000002087F
S3150800501880060024840A002470B54A1E0F4B1B1A02
S315080050289A4205D9FF210E460020012812D070BDE4
S3150800503805460C46FFF756FE06462C44601EFFF743
S3150800504851FE0146FF2818BFFF2E01D00120ECE7C4
S315080050580020EAE73046FFF751FFE8E7FFFF1F0899
S3150800506800B583B000230193134B1B68B3F1FF3FC8
S3150800507803D1012003B05DF804FB0F4A5368019376
S3150800508891680B440193D1680B44019311690B4449
S31508005098019351690B44019391690B440193D269B1
S315080050A813440193DB4301930133019301AA0421B5
S315080050B80248FFF777FFDDE7840A0024980202080A
S315080050C80A4B1A68596811449A681144DA681144EF
S315080050D81A6911445A6911449A690A44D3F89832E4
S315080050E8D34201D10120704700207047000002080A
S315080050F808B50C4B1B68B3F1FF3F06D10A4B1B6872
S31508005108B3F1FF3F07D1012008BD0648FFF71DFE8A
S315080051180028F9D0F2E70448FFF717FE0028F3D06D
S315080051280120F1E7840A0024800600240048704715
S315080051380000020808B5FFF729FF08BD08B5FFF7FC
S3150800514831FF08BD08B5FFF767FF08BD08B5FFF7C3
S31508005158B7FF08BD08B5FFF7E9FF08BD08B5FFF7AB
S315080051687FFF00B908BDFFF7C3FFFBE7054BDB69FF
S3150800517813F0200F04D0034B5B6A037001207047B5
S31508005188002070470048004010B5094B986200F0A7
S31508005198CBF800F10A04064BDB6913F0800F05D13A
S315080051A800F0C8FB00F0C0F8A042F4D910BD00BF53
S315080051B80048004010B588B00D4C236823F0010359
S315080051C82360002300934FF46142019202930393EC
S315080051D804930C2205920693079369462046FEF720
S315080051E8F9F8236843F00103236008B010BD00BF2F
S315080051F80048004070B506460D46812904D8284659
S31508005208FFF7C2FF00240BE08421074800F08AFA5A
S31508005218F5E700F08FFB305DFFF7B6FF0134A4B25F
S31508005228ABB2A342F5D870BD4065000870B5254BEA
S315080052381C78BCB92448FFF799FF012801D02046F5
S3150800524870BD214B1B78013BDBB2802BF7D800F0E9
S315080052586BF81E4B18601E4B00221A70194B012258
S315080052681A70ECE706460D46194B1B7801331648A3
S315080052781844FFF77BFF0446012815D1144B1A7802
S315080052880132D2B21A70104B1B789A4201D0002408
S31508005298D5E710493046FFF715FD0A4B00221A7064
S315080052A80B4B1B782B70CAE700F03EF8074B1B68B8
S315080052B8C833984203D90024024B1C70BFE7002460
S315080052C8BDE700BF0A0F0024880E00240C0F00242F
S315080052D80B0F0024890E00244FF0E02300221A61E0
S315080052E85A619A617047000008B5FFF7F5FF4FF055
S315080052F8E023044A5A6100229A6105211961024B82
S315080053081A6008BDFF520700100F00244FF0E0236B
S315080053181B6913F4803F03D0024A136801331360EC
S31508005328704700BF100F002408B5FFF7EFFF014BC1
S31508005338186808BD100F002408B5FFF7F5FF08BD63
S31508005348094B03F11801002232B19A7400225A61F6
S31508005358064B054A1A6070479A745961183318310A
S315080053680132D2B2F0E700BF540F0024840F00249C
S315080053780A4B1B6883B110B4084A5C69146019742F
S315080053889860D86000225A74186001390844586031
S31508005398987C5DF8044B7047FF207047840F0024FB
S315080053A838B504460D46012824D804EB4403164AA2
S315080053B802EBC3035A7C1B7C9A4221D004EB4403B4
S315080053C8114A02EBC303DA6815705A7C01325A741B
S315080053D8DA680132DA605B689A4213D90A4B04EB39
S315080053E8440253F8322004EB440403EBC404E26095
S315080053F8012008E04FF4E171044800F093F9D4E776
S31508005408002000E0012038BD540F002494650008E8
S3150800541808B50146024B1878FFF7C2FF08BD00BF5A
S31508005428880F002438B504460D46012822D804EB0F
S315080054384403144A02EBC303587C10B304EB440331
S3150800544802EBC3039A6812782A705A7C013A5A748E
S315080054589A6801329A605B689A4211D9094B04EB3B
S31508005468440253F8322004EB440403EBC404A26054
S31508005478012006E04FF4F271034800F053F9D6E725
S31508005488012038BD540F00249465000808B5014664
S31508005498024B1878FFF7C6FF08BD00BFCC0F0024DB
S315080054A810B50446012806D804EB4404054800EB61
S315080054B8C404607C10BD4FF40171034800F032F94A
S315080054C8F2E700BF540F00249465000838B5FFF7C3
S315080054D837FF1B4C4021601CFFF74AFF2070194D07
S315080054E84021681CFFF744FF28702378FF2B1DD03E
