S31508000000702500247903000881030008830300088B
S31508000010850300088703000889030008000000001C
S315080000200000000000000000000000008B0300082C
S315080000308D030008000000008F030008294000080F
S31508000040930300089303000893030008930300082A
S31508000050930300089303000893030008930300081A
S31508000060930300089303000893030008930300080A
S3150800007093030008930300089303000893030008FA
S3150800008093030008930300089303000893030008EA
S3150800009093030008930300089303000893030008DA
S315080000A093030008930300089303000893030008CA
S315080000B093030008930300089303000893030008BA
S315080000C093030008930300089303000893030008AA
S315080000D0930300089303000893030008930300089A
S315080000E09303000893030008000000009303000828
S315080000F0930300089303000893030008930300087A
S315080001009303000893030008930300089303000869
S315080001109303000893030008930300089303000859
S315080001209303000893030008930300089303000849
S315080001309303000893030008930300089303000839
S3150800014000000000000000000000000000000000A1
S315080001509303000893030008930300089303000819
S315080001609303000893030008930300089303000809
S315080001709303000893030008930300080000000097
S3150800018093030008930300089303000893030008E9
S3150800019093030008930300089303000893030008D9
S315080001A093030008930300089303000893030008C9
S315080001B093030008930300089303000893030008B9
S315080001C093030008930300089303000893030008A9
S315080001D09303000893030008930300089303000899
S315080001E09303000893030008930300089303000889
S315080001F09303000893030008930300089303000879
S315080002009303000893030008930300089303000868
S315080002109303000893030008930300089303000858
S3150800022093030008930300089303000800000000E6
S3150800023093030008930300080000000093030008D6
S315080002409303000893030008930300089303000828
S315080002509303000893030008930300089303000818
S315080002609303000893030008930300089303000808
S315080002709303000893030008930300080000000096
S315080002809303000893030008930300080000000086
S31508000290000000009303000800F002F800F05CF884
S315080002A00AA090E8000C82448344AAF10107DA45C3
S315080002B001D100F051F8AFF2090EBAE80F0013F0B9
S315080002C0010F18BFFB1A43F001031847687A0000AC
S315080002D0887A00000A444FF0000C10F8013B13F02E
S315080002E0070408BF10F8014B1D1108BF10F8015B81
S315080002F0641E05D010F8016B641E01F8016BF9D174
S3150800030013F0080F1EBF10F8014BAD1C0C1B09D1CA
S315080003106D1E58BF01F801CBFAD505E014F8016B3C
S3150800032001F8016B6D1EF9D59142D6D370470000CE
S315080003300023002400250026103A28BF78C1FBD8E0
S31508000340520728BF30C148BF0B6070471FB507F07A
S3150800035075FC1FBD10B510BD00F025F91146FFF755
S31508000360F5FF06F004FB00F043F903B4FFF7F2FFCC
S3150800037003BC00F04BF900000948804709480047CC
S31508000380FEE7FEE7FEE7FEE7FEE7FEE7FEE7FEE737
S31508000390FEE7FEE704480549054A064B7047000094
S315080003A0B541000899020008701F00247025002432
S315080003B0702100247021002440EA010310B59B0730
S315080003C00FD1042A0DD310C808C9121F9C42F8D0B1
S315080003D020BA19BA884201D9012010BD4FF0FF3062
S315080003E010BD1AB1D30703D0521C07E0002010BD78
S315080003F010F8013B11F8014B1B1B07D110F8013B04
S3150800040011F8014B1B1B01D1921EF1D1184610BDE4
S31508000410032A40F2308010F0030C00F0158011F822
S31508000420013BBCF1020F624498BF11F801CB00F8FA
S31508000430013B38BF11F8013BA2F1040298BF00F84E
S3150800044001CB38BF00F8013B11F0030300F025800B
S31508000450083AC0F0088051F8043B083A51F804CB32
S31508000460A0E80810F5E7121D5CBF51F8043B40F8F8
S31508000470043BAFF30080D20724BF11F8013B11F803
S3150800048001CB48BF11F8012B24BF00F8013B00F847
S3150800049001CB48BF00F8012B704710B5203AC0F0D1
S315080004A00B80B1E81850203AA0E81850B1E8185067
S315080004B0A0E81850BFF4F5AF5FEA027C24BFB1E8A4
S315080004C01850A0E8185044BF18C918C0BDE8104015
S315080004D05FEA827C24BF51F8043B40F8043B08BF1E
S315080004E07047D20728BF31F8023B48BF11F8012BE5
S315080004F028BF20F8023B48BF00F8012B704702F0DE
S31508000500FF0343EA032242EA024200F002B84FF030
S3150800051000020429C0F0128010F0030C00F01B80C2
S31508000520CCF1040CBCF1020F18BF00F8012BA8BFD0
S3150800053020F8022BA1EB0C0100F00DB85FEAC17C94
S3150800054024BF00F8012B00F8012B48BF00F8012B47
S3150800055070474FF0000200B5134694469646203978
S3150800056022BFA0E80C50A0E80C50B1F12001BFF45E
S31508000570F7AF090728BFA0E80C5048BF0CC05DF8C4
S3150800058004EB890028BF40F8042B08BF704748BF12
S3150800059020F8022B11F0804F18BF00F8012B704786
S315080005A0704770477047754600F02CF8AE46050050
S315080005B06946534620F00700854618B020B5FFF770
S315080005C0E9FEBDE820404FF000064FF000074FF067
S315080005D000084FF0000B21F00701AC46ACE8C00953
S315080005E0ACE8C009ACE8C009ACE8C0098D4670475C
S315080005F010B50446AFF300802046BDE81040FFF76B
S31508000600B4BE000000487047101F00240149182096
S31508000610ABBEFEE726000200704700F0ECF8FCE7E8
S3150800062010B500F0A1F8012812D00A4C207801284C
S315080006300ED103F031FED4E90112114401F5FA7125
S31508000640884205D300202070BDE8104000F030B97C
S3150800065010BD0000040200240148406870470000ED
S315080006600402002410B504490120087000F006F8B9
S31508000670BDE81040FFF7D4BF0402002410B5044CAF
S315080006802078012802D103F007FEA06010BD000003
S31508000690040200240149486070470000040200244F
S315080006A010B500F0ADF800F0A1F803F0FDFD03F079
S315080006B039FB00F04DF8BDE81040FFF7D3BF10B581
S315080006C000F099F803F052FE00F056F8BDE8104025
S315080006D0FFF7A6BF10B503F007FA03490420087010
S315080006E0BDE81040FFF7CABF1002002405F0B4BBEE
S315080006F00A48007805280ED2DFE800F00305070946
S315080007000B008120704700207047082070473F2063
S31508000710704781207047812070470000100200242E
S315080007200A48007805280ED2DFE800F00305070915
S315080007300B008120704700207047082070473F2033
S3150800074070478120704781207047000010020024FE
S3150800075010B505F07BFE05F08FFB024903200870F3
S3150800076010BD00001002002410B5002405F07CFE20
S3150800077000B10124204610BD38B50E48694605F07B
S31508000780DFFB0D4C012806D1032020709DF80010D0
S31508000790084805F075FE0748694603F0F7F9012889
S315080007A006D1042020709DF80010024805F068FE66
S315080007B038BD00008C0A00241002002470B50646D5
S315080007C00C46094D2878032803D13046E1B205F0D6
S315080007D03DFC2878042803D13046E1B203F072FACA
S315080007E0BDE8704005F0BABE10020024AFF30080E1
S315080007F0642003F0D1B8AFF3008003F0D3B800004B
S3150800080070B500F041F81E4801688A034FF00001F0
S315080008100DD5BFF34F8FBFF36F8F026822F40032F6
S315080008200260184A1160BFF34F8FBFF36F8F0268DB
S31508000830D20324D5124A70321160BFF34F8F016874
S3150800084021F480310160BFF34F8F101F0068C0F399
S315080008504E310C4A43F6FF762432C0F3C9052846C2
S3150800086006EA411343EA80741460401E441CF9D119
S31508000870491E481CF3D1BFF34F8FBFF36F8F70BD6E
S3150800088014ED00E050EF00E072B6704762B67047AC
S3150800089070B505460C46164605E014F8010B05F832
S315080008A0010BFFF7A8FF761EB6B2F6D270BD0000A0
S315080008B010B503F039FAC0B100F024F8C8B1FFF753
S315080008C015FF00F02DFF03F039FD03F029FA0B4957
S315080008D008400B49086003F023FA4468FFF7D6FF7F
S315080008E0A047BDE81040FFF7F5BEBDE81040FFF78A
S315080008F0F1BEBDE81040FFF7EDBE000080FFFF1F08
S3150800090008ED00E010B54FF400500749096988431F
S3150800091003D0002018B1002010BD0120FAE703F02B
S3150800092033F8012010BD00000008025810B5002257
S315080009300023016902EB420401EBC4010B604B6022
S315080009408B60CB600B614B6100EB8204A164521C87
S31508000950042AEED3C36503668366C36683650322EA
S31508000960016801F58051C1F830210168026901F575
S315080009708051C1F81C2101690068483100F5805092
S31508000980C0F8281110BD10B500220023C16802EB7B
S31508000990420401EBC4010B604B608B60CB6000EB3B
S315080009A08204A161521C042AF0D3836203220168DF
S315080009B001F58051C1F82C210168C26801F5805102
S315080009C0C1F81421C168006800F58050C0F82011EC
S315080009D010BD70B5A2B0064601258DF83350002427
S315080009E012948DF841408DF843408DF828508DF8C3
S315080009F056508DF832508DF84C408DF88450680367
S31508000A000F908DF85C4018948DF885408DF88640D7
S31508000A104FF4C36016908DF830400B948DF835501E
S31508000A208DF836408DF840401D941B9414948DF82B
S31508000A3064408DF87A408DF84250202020908DF839
S31508000A4044508DF855404FF040500990A8030E9039
S31508000A508DF8314002201F908DF878408DF8794046
S31508000A608DF854408DF834501A948DF8705009A9B1
S31508000A70304600F049FA8DF80450029500948DF836
S31508000A801C408DF80D408DF80C40690506918DF8CF
S31508000A90144004918DF81D404FF40670089069467D
S31508000AA0304600F0E1F922B070BD0020704703F02F
S31508000AB0F3BB000010B5024801F086F9002010BD0E
S31508000AC09802002410B5002413460A460146034836
S31508000AD001F0FCF800B1641E204610BD98020024FF
S31508000AE010B5002413460A460146034801F046FAA3
S31508000AF000B1641E204610BD980200242DE9F04F6F
S31508000B0000F11806346927464FF0000C56F82430D1
S31508000B108D68E046D3F80C90B9F1000F06DB06EBBA
S31508000B208409D9F81490B9F1000F02D00220BDE863
S31508000B30F08F91F800905FEA497943D5D3F80C9085
S31508000B40D1F824A06FF30F0949EA0A09C3F80C90F3
S31508000B50D3F80C9049F48039C3F80C90D0F800907B
S31508000B60D9F860A04AF4801AC9F860A091F80090F4
S31508000B705FEA097926D5B1F82CA0D3F808906AF36C
S31508000B801F49C3F80890D3F80C9049F40039C3F804
S31508000B900C90D3F80C90D1F830A029F4402949EAF2
S31508000BA00A09C3F80C90D0F80090D9F864A04AF462
S31508000BB0801AC9F864A00068D0F8509049F0806996
S31508000BC0C0F850900878C0060BD59868D1F81890E8
S31508000BD06FF30D0040EA09009860D86840F080601D
S31508000BE0D860087810F0140F1ED0D86840F08040FE
S31508000BF0D860BFF35F8FD86840F00040D860641CA7
S31508000C00042C00D3241F56F824304FF0010CD86862
S31508000C10002809DA56F82700BFF35F8FC16821F06C
S31508000C200041C160022082E70CF1010C28681860B7
S31508000C309868D5F804906FF30D0040EA09009860AB
S31508000C40DFF820924FF0000AA86858B105462868D0
S31508000C505860D3F808B0A8880BEA090B4BEA00409D
S31508000C60986005E0C3F804A0986800EA090098604F
S31508000C700878C00614D5D868B1F820B020F4F0007A
S31508000C8040EACB40D860D868D1F81CB06FF31100A1
S31508000C9040EA0B00D860D86840F48020D8601DE090
S31508000CA0D868D1F804B06FF30E0040EA0B00D8609C
S31508000CB00878C00707D0D868D1F814B020F44030B7
S31508000CC040EA0B00D8600878800607D5D868D1F8BE
S31508000CD010B020F0406040EA0B00D8600878400762
S31508000CE007D59868D1F828B020F4404040EA0B00B0
S31508000CF09860D86840F00050D860D86820F08040E6
S31508000D00D860BFF35F8FD86840F00040D860087895
S31508000D10800707D5D868D1F80CB020F0607040EA93
S31508000D200B00D86079E0D86820F08050D860641C41
S31508000D30042C00D3241F56F82430D86820F000501D
S31508000D40D860D868002803DB06EB84004069A0B1A8
S31508000D5056F8271000200CE0BFF35F8FCA6822F010
S31508000D600042CA607F1C042F00D33F1F56F8271085
S31508000D70401C6045F0D30220D9E60CF1010CAD68A1
S31508000D80286818609868D5F804B06FF30D0040EA33
S31508000D900B009860A86858B1054628685860D3F8CB
S31508000DA008B0A8880BEA090B4BEA0040986005E0F2
S31508000DB0C3F804A0986800EA090098600878C00695
S31508000DC00CD5D868D1F81CB06FF3110040EA0B00B7
S31508000DD0D860D86840F48020D86012E0D868D1F886
S31508000DE004B06FF30E0040EA0B00D8600878C0071D
S31508000DF007D0D868D1F814B020F4403040EA0B0088
S31508000E00D86008F10108BFF35F8FD86840F000404A
S31508000E10D860D86820F08040D860A868002882D1B9
S31508000E2022B1986840F00040986003E0986820F086
S31508000E3000409860D86840F08050D86006EB84017E
S31508000E40706A48613461EFF31080012181F31088DC
S31508000E50B16A08F101084144B16280F310880020A4
S31508000E6065E60000FFFF00C030B5026802F5805253
S31508000E70136847F60204A3430C68234313600A79F0
S31508000E800B7B120342EAC3338A681343026802F5EE
S31508000E90805254684DF20105AC431C4354604B7BA9
S31508000EA00A6A42EA0343026802F58052D2F8004110
S31508000EB0124D2C401C43C2F800410A7D4B7F12019B
S31508000EC042EA03330A691343026802F58052D2F8EC
S31508000ED004410B4D2C401C43C2F804418A69097F22
S31508000EE042EAC171006800F58050D0F80821054B28
S31508000EF01A400A43C0F8082130BD000000C0FEFFB2
S31508000F00EFEFC0FFFFFFC07F30B50B688A680C7B28
S31508000F101A430B79DB0643EAC4531A434B7B42EA6E
S31508000F2083528B7B42EA4352CB7B42EA03530A7CC9
S31508000F30002A7CD0002243EAC2434A7C002A77D0A2
S31508000F40002243EA42428B7C42EA03424B691A4337
S31508000F508B691A430B7F42EA03324B7F42EAC3236B
S31508000F608A7F002A65D0002243EA8222CB7F42EAA2
S31508000F70432391F82020002A7CD0002243EA02224B
S31508000F8051F8243F1A430B7942EA03138A6813433C
S31508000F90026814683F4D2C401C4314600A7E0B7D82
S31508000FA0520642EA03620B7B42EA83424B7B42EAE1
S31508000FB043438A7B2439002A65D0002243EA024348
S31508000FC04A6B134302685468334D2C401C435460E3
S31508000FD091F840304A6C42EA03230268D46840F22A
S31508000FE00F15AC431C43D46091F854300A6D42EA9D
S31508000FF0430391F84C20E2B3002231F8484FD2015E
S3150800100042EA044213430268146F4FF60D752C40EA
S315080010101C4314674B7B8A7B42EA4303026852F8F7
S31508001020904F24F003041C431460026802E022E097
S3150800103023E024E0D2F8003D0C6923F07203234331
S31508001040C2F8003D0A7E4B69483902B3002243EADA
S31508001050821211F8613F49781B0143EAC1010A432C
S315080010600068D0F8301D21F07B011143C0F8301D0F
S3150800107030BD0AE005E001225DE7012261E70122B1
S3150800108072E701227AE7012298E70122B5E70122F1
S31508001090DDE70000838004000080F8C02DE9F843EE
S315080010A00646002000904FF00108B46E06EB840057
S315080010B0856CF76E1FE0286930B9684600F03BFE7C
S315080010C0009850B128612860B8F1000F13D0B06DB0
S315080010D030B14FF04140E86005E04FF00008F3E713
S315080010E04FF00140E860641C042C00D3241F06EB73
S315080010F08400856C7F1E17B1B8F1000FDBD1F06E46
S31508001100B84210D0601C00F00300BFF35F8F31694E
S3150800111000EB400001EBC001306800F58050C0F8D4
S315080011202811B466F766BDE8F883000030B50E4BA3
S315080011304FF08404CD0744EA002007D0DC6824F485
S31508001140E664DC60DC6814430443DC60890709D57F
S3150800115003F58673196821F4E66119601968114365
S315080011600143196030BD000000200052CA439307AE
S315080011701A4A1CD0CB070AD0D36823F03003D360B1
S31508001180D3680343D360D36843F08803D3608907E1
S315080011900CD502F58672116821F0300111601168CC
S315080011A001431160106840F0880010607047D168EC
S315080011B021F03001D160D2F80C1121F03001C2F8CB
S315080011C00C11D1680143D160D2F80C110143C2F861
S315080011D00C11906940F01000906170470020005291
S315080011E02DE9F04705460F46042401F039F98246F1
S315080011F0022F00D1274CDFF8A090284E04EA0908F0
S3150800120008E0681C06D001F02BF9A0EB0A00A842FA
S3150800121023D815B3B8F1000F21D0D6F8100124EA67
S3150800122000004000EDD0012F1ED0D6F810011C4951
S31508001230084040F0004041001AD01A4A916901431B
S31508001240916110EA090F01D1706103E020F00040B6
S31508001250C6F814010120BDE8F0870320FBE73069D2
S3150800126034EA0000CDD0DEE730690F490840E2E7EE
S31508001270012F4FF4803007D0D6F81011C90301D5D5
S31508001280C6F814010020E6E73169C903FAD570618A
S31508001290F8E7000004000080F0FF10E0002000528C
S315080012A00000EE977C0200240000EE172DE9F047B7
S315080012B004460D461646984601274FEA952A4FEAF0
S315080012C08A2A2068401C05D15146204600F02CF990
S315080012D000B90027012F09D12068504506D051468C
S315080012E0204600F031F9044604B90027012F1DD124
S315080012F02068281A05192D1D4FF480690AF5806A99
S31508001300FFF779FA281B001F484506D351462046A1
S3150800131000F01AF9044664B1251D16F8010B05F804
S31508001320010BA8F10108B8F1000FE9D13846BDE86C
S31508001330F0870027FAE7000010B501240A4800687C
S31508001340401C04D0084800F077F900B90024012CA5
S3150800135008D106480068401C04D0044800F06CF91F
S3150800136000B90024204610BDA00F00249C0B0024C1
S315080013702DE9F0410127124900EB400051F82050B1
S3150800138001EB80004668A80750EA867004D00DA0D5
S3150800139040F21E31FFF741F900240BE014F0FF0F6D
S315080013A001D1FFF728FA2868401C01D0002704E07D
S315080013B02D1D641CB4EB960FF0D33846BDE8F081BA
S315080013C0707C00082E2E5C2E2E5C2E2E5C2E2E5C3B
S315080013D0536F757263655C41524D434D375F535485
S315080013E04D333248375C666C6173682E63000000C3
S315080013F02DE9F04107460D460124FF26FF210F4837
S31508001400C21B681E824200D20024012C0DD1384628
S3150800141000F05CF806467819401E00F057F80146B9
S31508001420FF2E01D0FF2900D10024012C03D130461C
S3150800143000F006F804462046BDE8F081FFFF1F08C5
S315080014402DE9F04186B004460E460125002700978F
S31508001450B44200D90025012D02D10E2E00D900254F
S31508001460012D2CD100F0C8FEDFF85C8023E0204671
S31508001470FFF77EFFE8B9FFF7BEF904EB440058F81A
S31508001480201008EB80004268491C10D07AB10197F9
S3150800149020210591417A0291007A03900120049057
S315080014A001A8694600F09CFD18B1002505E0002555
S315080014B003E0641CE4B2B442D9D900F01FFE06B0BA
S315080014C02846BDE8F0810000707C00082DE9F0414F
S315080014D00546FF2600240C4FFFF78DF904EB440060
S315080014E057F82010A94207D807EB8000406808443F
S315080014F0A84201D9264603E0641CE4B20F2CEBD3BC
S315080015003046BDE8F0810000707C0008004870474E
S315080015100000020803494FF0FF30086001F2044159
S31508001520086070479C0B002410B501248A0500D07A
S315080015300024012C06D102688A4203D002C0A20206
S31508001540FFF7A6F9204610BD70B505460E460E48AB
S31508001550854203D1A0F204452C460CE00B4886428E
S3150800156003D1094D06462C4605E02C46284600F0D0
S3150800157063F800B900242CB131462846FFF7D4FF9A
S3150800158000B90024204670BDA00F00240000020800
S3150800159001200A490A684B681A448B681A44CB68C2
S315080015A01A440B691A444B691A448B691A44D1F8D0
S315080015B098121144002900D0002070470000020844
S315080015C02DE9F04105460E46174601241648411BEB
S315080015D0701E814200D20024012C0BD12846FFF749
S315080015E075FFFF2805D0A819401EFFF76FFFFF28D3
S315080015F000D10024012C13D1A80A80020B49884285
S3150800160007D10B4833463A462946FFF74FFE0446AC
S3150800161006E0084833463A462946FFF747FE044699
S315080016202046BDE8F0810000FFFF1F080000020801
S31508001630A00F00249C0B00242DE9F0410746012544
S315080016403868FFF743FFFF2800D10025012D25D173
S3150800165000F0D2FD0024386800EB441607EB441866
S3150800166008F10408FFF7C7F801204246314600F0A2
S315080016705FFD08B100250FE00023F05C18F80310A1
S31508001680884201D0002503E05B1CDBB2202BF4D393
S3150800169015B1641C202CDED300F030FD2846BDE8C9
S315080016A0F081000008B50120002100910C490A6864
S315080016B0521C14D048688A681044CA6810440A69DB
S315080016C010444A6910448A691044C9690844C043E9
S315080016D0401C0090034804216A46FFF771FF08BDC5
S315080016E0A00F00249802020810B50B480168001DD7
S315080016F00468001D0068084400280BD00749082222
S3150800170001F069FE054904222046BDE81040103163
S3150800171001F061BE10BD000000E8F11FEA010024D7
S3150800172010B516491448086000200860091D144AB7
S315080017300A600860091D40F271220A600860091DE6
S31508001740104A0A6008601822091D0A600860091D07
S315080017500D4A0A600860091D4FF49B720A6008600A
S31508001760091D0A4A0A600860091D094A0A600860D4
S3150800177000F0CCFE002010BD315001007C44025818
S3150800178023C0000AFF072803FFC3FFE83330D73119
S31508001790AADE200070B5044600F062FE0546601C0D
S315080017A002D004480078044400F05AFE401BA042C8
S315080017B0FAD370BD4C00002400297DD00268126857
S315080017C002F00C02CA6202681268C2F3001281F8BB
S315080017D028200268126802F060024A6202681268EB
S315080017E042F30022521C81F8202002681268C2F3D4
S315080017F04022CA770268126842F38022521C8A770E
S3150800180002681268C2F3C0224A7702681268C2F3F5
S3150800181000320A770268126802F400528A61026886
S31508001820126802F480424A6102681268C2F30042F2
S315080018308A740268126842F34042521C4A7402686B
S31508001840126842F3C042521C0A7402681268C2F354
S315080018500052CA7302681268C2F340528A73026859
S315080018601268C2F380524A7302681268C2F3C05201
S315080018700A730268126802F0E0628A6002681268F7
S31508001880C2F3C0620A710268126802F0E0420A6096
S3150800189002685268C2F30D024A630268526842F34C
S315080018A00042521C81F8322002685268C2F3404254
S315080018B081F83120026800E062E05268C2F3804293
S315080018C081F8302002685268C2F3006281F8382035
S315080018D002685268C2F34462CA630268D268C2F3F5
S315080018E0002281F840200268D26802F00F024A649A
S315080018F00268126FC2F3400281F854200268126F20
S3150800190042F3C012521C81F84C200268126F02F092
S3150800191070020A650268126F120C8A640268D2F8AD
S315080019209020C2F3000281F856200268D2F890206F
S31508001930C2F3400281F855200268D2F8002D02F061
S3150800194072028A650268D2F8302D02F02302CA654F
S315080019500268D2F8302DC2F3C00281F8622002680C
S31508001960D2F8302DC2F3001281F861200068D0F851
S31508001970300D40F38010401C81F86000002070474D
S3150800198001207047F8B50446002C03D0D4F884002B
S3150800199010B107E00120F8BD2320C4F884002046D2
S315080019A000F09EF84948016841F0020101600068AC
S315080019B000F002000090207A98B14FF4000001F080
S315080019C0E3FC43480068206800F58050016841F050
S315080019D00101016000F044FD0546E0264FF4FA7760
S315080019E00EE0002001F0D0FCEBE700F039FD401BCB
S315080019F0B84205D904208434606026600120F8BD09
S31508001A00206800F580500068C007EED1204600F037
S31508001A10DBF901F0BDFB2F49B0FBF1F02168401E50
S31508001A20C1F8DC002046FEF7D4FF206800F5805098
S31508001A30D0F8001121F4E01141F40021C0F800119A
S31508001A406169880704D00120843460602660F8BD87
S31508001A50206800F58050D0F8082147F6FE739A43AF
S31508001A6042EA4101C0F808112046FEF78CFF2046DD
S31508001A70FEF75CFF60680179407941EA0020216839
S31508001A80C1F800036068C278017841EA0261827889
S31508001A904078120442EA002001432068C0F8041383
S31508001AA02068D0F80C170C4A1143C0F80C172068A8
S31508001AB0D0F81017094A1143C0F810170020C4F8C7
S31508001AC088001020C4F884000020F8BDF4440258A9
S31508001AD00404005840420F006000020C00C0200CAD
S31508001AE0F0B587B00446142102A8FEF732FD37493F
S31508001AF02068884267D13648016841F40041016090
S31508001B00016801F400410191016841F480310160E6
S31508001B10016801F480310191016841F400310160E6
S31508001B20006800F40030019029480830016841F047
S31508001B3004010160016801F004010191016841F0A6
S31508001B4001010160016801F001010191016841F09C
S31508001B5002010160016801F002010191016841F08A
S31508001B6040010160006800F04000019032200290B8
S31508001B700224039400250495032605960B27069749
S31508001B80144802A900F05AFB862002900394049593
S31508001B900596069702A9104800F050FB200302900C
S31508001BA0039404950596069702A90C4800F046FB8F
S31508001BB04FF420500290039404950596069702A9BF
S31508001BC0074800F03BFB07B0F0BD0000008002406C
S31508001BD0D844025800080258000002580004025867
S31508001BE0001802582DE9F35F04460027B846019805
S31508001BF0002806D0D4F88400232809D00120BDE89F
S31508001C00FC9F54F8880F40F0010020600120F6E799
S31508001C10E66D04EB8600856CE06EC0F1040B4FF0B0
S31508001C20000A37E0E868400003D56868A0672868B6
S31508001C306067E868800001D4E06F18B3E868800040
S31508001C4003D5C4F860A0C4F864A0E868616EC0F360
S31508001C500E00A0EB0109E868C00003D5E868206714
S31508001C604FF0010804F180012A691FFA89F3081F59
S31508001C7000F068F8206E401C2066606E4844606676
S31508001C80C5F810A0761C042E00D3361F04EB860078
S31508001C90856C7F1CE868002804DB5F4502D2B8F132
S31508001CA0000FBFD0E06E3844E06610B12046FFF75B
S31508001CB0F5F9E665B8F1010F01D001209FE7019813
S31508001CC0E16F0160C4F87CA0002098E72DE9F04197
S31508001CD004461F462068D0F80032DB0702D00120F0
S31508001CE0BDE8F081D0F8003223F0787343EA415119
S31508001CF021F4F81141EA024141F00C0141F00101D9
S31508001D00C0F8001200F0ACFB05464FF47A7606E000
S31508001D1000F0A6FB401BB04201D90120E0E720688D
S31508001D20D0F80002C007F3D12068D0F8040280B2C8
S31508001D3038600020D4E710B5044604F06DFF206033
S31508001D4010BD000030B5A2F1200400252560E5800D
S31508001D50A3800568002D04D00D682C600C6000680F
S31508001D6005E00460FAE7C1881944C18000680028C4
S31508001D70F9D10B480068C00310D5002B0EDD02F020
S31508001D801F001844BFF34F8F06490A6020322038D7
S31508001D900028FADCBFF34F8FBFF36F8F30BD00000A
S31508001DA014ED00E05CEF00E010B5002905D0D0F88E
S31508001DB08420102A03D0012010BD012010BDFFF792
S31508001DC0A3F8002010BD000070B505462868D0F8B5
S31508001DD0000220F4706401F0DBF91049884202D24F
S31508001DE044F4007416E00E49884202D244F4407462
S31508001DF010E00C4988420DD30B49884202D244F4BC
S31508001E00807407E00949884202D244F4806401E0FC
S31508001E1044F4A0642868C0F8004270BDC00E1602DB
S31508001E200087930300E1F50580D1F00880B2E60E3D
S31508001E3070B50446D4F88400102801D0012070BD7E
S31508001E402325C4F884500420E0662046FFF726F9C7
S31508001E502068016841F0020101602068016841F0CC
S31508001E60010101602068D0F8001D41F00101C0F8A9
S31508001E70001D206800F58050D0F8041141F00101DA
S31508001E80C0F80411206800F58050D0F8081141F018
S31508001E900101C0F80811206800F58050D0F86011DB
S31508001EA041F48171C0F86011C4F88450002070BDF7
S31508001EB02DE9F04104461546002906D0D4F88400D9
S31508001EC0232809D00120BDE8F08154F8880F40F096
S31508001ED0010020600120F6E700222046FEF70EFEEC
S31508001EE030B154F8880F40F0020020600120EAE77C
S31508001EF0BFF34F8FA06A04EB80018E69401CA06275
S31508001F00042801D3001FA062A06A04EB800081693F
S31508001F10206800F58050C0F8201100F0A1FA0746A5
S31508001F201CE0206800F58050D0F86001C0040DD58B
S31508001F3054F8880F40F00800206054F8880C00F523
S31508001F408050D0F8600160600120BCE7681C05D0AD
S31508001F5000F086FAC01BA84205D825B1F06800280B
S31508001F60DFDB0020AFE754F8880F40F0040020605C
S31508001F704FF04050F0600120A5E7000070B5054617
S31508001F802868D0F80042E40701D0012070BDD0F8D7
S31508001F90000220F0787040EA415020F4F81040EA38
S31508001FA0024020F00C00001D40F001000B499AB2D7
S31508001FB04A60086000F054FA04464FF47A7606E060
S31508001FC000F04EFA001BB04201D9012070BD286806
S31508001FD0D0F80002C007F3D170BD000000820240AD
S31508001FE02DE9F05F044689460025DFF808A19AF82E
S31508001FF0140001281CD001208AF814004FF0000BA9
S31508002000CAF818B02079C00706D001214CF2503022
S31508002010FFF7E6F800B101252079800706D50221E9
S315080020204CF25030FFF7DCF800B101251DB15CE039
S315080020300220BDE8F09F20682F4F012807D04FF0F7
S31508002040FF30C9F80000A66840F2047848E06168E5
S315080020502069FFF78BF82079C0070AD001214CF2D6
S315080020605030FFF7BDF800B10125F86820F00800E8
S31508002070F8602079800738D502214CF25030FFF7F6
S31508002080AFF800B10125D7F80C0120F00800C7F811
S315080020900C012AE0226930466168FFF747F8207983
S315080020A0C00709D001214CF25030FFF799F80546D0
S315080020B0F86820EA0800F860207980070BD5022125
S315080020C04CF25030FFF78CF80546D7F80C0120EA99
S315080020D00800C7F80C0115B1C9F8006005E0761CC0
S315080020E0D4E902100844B042D4D88AF814B0284675
S315080020F09FE700007C020024002000520B48C168BC
S3150800210041F00101C160C168C9070AD000F58670AF
S31508002110016841F0010101600068C00703D0002092
S3150800212070470120704701207047000000200052C8
S315080021302DE9F05F15460C460826DFF8B49099F8A5
S315080021401400012809D0012089F814007204A1F1AD
S315080021500060904204D2012707E00220BDE8F09F04
S31508002160A1F1016191420CD202274FF0000AC9F889
S3150800217018A04CF2503B39465846FFF731F810B1D3
S3150800218025E00120EAE7DFF86C80012F22D0D8F895
S315080021900C0140F00200C8F80C01BFF36F8FBFF3C3
S315080021A04F8F01CD01C4761EF6B2002EF9D1BFF3CA
S315080021B06F8FBFF34F8F39465846FFF711F8012F37
S315080021C00FD0D8F80C1121F00201C8F80C1189F8C3
S315080021D014A0C3E7D8F80C0040F00200C8F80C00B9
S315080021E0DBE7D8F80C1021F00201C8F80C10EEE76E
S315080021F07C020024002000520D48C1680E4ACB0715
S315080022000C4906D041604260C368DB0701D0012053
S315080022107047D0F80C31DB0708D000F582700160F2
S3150800222002608068C00701D001207047002070470F
S315080022300020005223016745AB89EFCD2DE9F84F01
S3150800224000227B4D03264FF001080F274FF0B04CB4
S31508002250E6E008FA02F31C409A46002C7ED00B7979
S3150800226003F00303012B01D0022B1BD1D0F80890F1
S31508002270530006FA03FB29EA0B09D1F80CB00BFA4E
S3150800228003FB4BEA090BC0F808B0436823EA0A03C4
S3150800229091F80490C9F3001909FA02F949EA030901
S315080022A0C0F804900B79DB439B070ED0D0F80C904E
S315080022B0530006FA03FA29EA0A09D1F808A00AFA25
S315080022C003FA4AEA090AC0F80CA00B7903F00303DB
S315080022D0022B14D1D30800EB8303D3F820A04FEACE
S315080022E042794FEAD96907FA09FB2AEA0B0AD1F8B3
S315080022F010B00BFA09FB4BEA0A0BC3F820B0D0F86A
S315080023000090530006FA03FA29EA0A0991F804A08C
S315080023100AF0030A0AFA03FA4AEA090AC0F800A008
S315080023204B6813F4403F7AD0424BD3F8009049F0FB
S315080023300209C3F800901B6803F00203009322F019
S31508002340030909F1B049D9F808B493074FEA137A93
S3150800235007FA0AF32BEA030B374B00E05FE09842D3
S3150800236001D100232DE0354B984201D1012328E005
S31508002370334B984201D1022323E0324B984201D1D4
S3150800238003231EE0304B984201D1042319E02F4B5A
S31508002390984201D1052314E02D4B984201D106231A
S315080023A00FE02C4B984201D107230AE02A4B9842AA
S315080023B001D1082305E0294B984201D1092300E001
S315080023C00A2303FA0AF343EA0B03C9F80834DCF8CC
S315080023D00030A343D1F804905FEAC92900D5234306
S315080023E0CCF80030DCF80430A343D1F804905FEA57
S315080023F0892900D52343CCF804306B68A343D1F868
S3150800240004905FEA893900D523436B602B68A343A0
S31508002410D1F804905FEAC93900D523432B60521CD2
S315080024200C6834FA02F37FF414AFBDE8F88F0000A5
S3150800243080000058F444025800000258000402586C
S3150800244000080258000C02580010025800140258DE
S3150800245000180258001C025800200258002402588E
S3150800246001F01ABF10B5032000F002F900F0B2FE21
S315080024700F490A68C2F303230E4AD35C03F01F030D
S31508002480D840096801F00F01515C0B4A01F01F01A1
S3150800249020FA01F1116009490860002000F010F8DF
S315080024A008B1012010BD00F073F8002010BD00002F
S315080024B018440258467C00084400002440000024C2
S315080024C070B504460F4D2A78002A0CD04FF47A705E
S315080024D00D49B0FBF2F00968B1FBF0F000F05EFFC1
S315080024E018B1012070BD012070BD102C07D2002242
S315080024F02146501E00F09CF86C60002070BD01203B
S3150800250070BD00004C0000244000002410B501F006
S315080025109BF91A4C4FF40001A161194801F072F8B1
S31508002520184801F06FF8204601F06CF8164801F0DB
S3150800253069F81648016821F000610160082001F079
S315080025403DF8042001F03AF8022001F037F801209E
S3150800255001F034F80D481C30016821F002010160D1
S3150800256001F052F9002001F057F9012001F054F961
S31508002570BDE81040022001F04FB9000000040258DF
S31508002580000C02580008025800000258D8440258A5
S3150800259010B588B02248016841F002010160006860
S315080025A000F002000190012001F010F8022001F06D
S315080025B00DF8042001F00AF8082001F007F8802039
S315080025C0029001200390002404940594069402A91D
S315080025D0144801F0A7F84FF40050029003940694AB
S315080025E002A9114801F09EF84FF4C050029002204B
S315080025F0039003200490059406940A20079002A9E4
S315080026000A4801F08FF806481C38016841F0006155
S315080026100160006800F00060019008B010BD00007D
S31508002620F4440258000402580008025800000258F0
S31508002630F0B40D460D4B1B68C3F30223C3F1070420
S31508002640042C00D90424191D072901D2002300E00F
S31508002650DB1E012606FA04F1491E294099409E40D0
S31508002660761E16403143F0BC03F09DBF0CED00E02A
S3150800267000F00701054A10684FF6FF03184040EAC4
S315080026800120034908431060704700000CED00E084
S315080026900000FA0501680122C0F8D824002280F853
S315080026A0CC24886940F000608861486D024A10436E
S315080026B04865002070470000030000107047006856
S315080026C041620020704770B50368586A002907D030
S315080026D09C6A00EB14440020491E4FF482750AE0F8
S315080026E040EA024098620DE005EB80069E5904EB2D
S315080026F01644401CC0B28842F6D305EB810144EA71
S3150800270002405850002070BD10B50446012003F061
S31508002710D6FAD4F8E004BDE8104002F0F9B901EBA6
S31508002720C10200EB8202D0F8E004126A02F039B95D
S3150800273001EBC10200EB8202D0F8E004D2F8602275
S3150800274002F09AB910B50446002C08D0032084F884
S315080027509504206803F07EFA18B1012010BD012007
S3150800276010BD204600F060FC002084F8950410BDDA
S3150800277010B50446206894F89414012909D001215B
S3150800278084F89414C168490609D5617B012902D0E9
S3150800279005E0022010BD816B41F480318163206819
S315080027A002F01EFE002084F8940410BD70B504469D
S315080027B0256894F8940401280CD0012084F8940420
S315080027C0284602F01BFEE868400609D5607B01280A
S315080027D002D005E0022070BDA86B20F48030A86303
S315080027E0002084F8940470BD10B50446002003F058
S315080027F066FAD4F8E004BDE8104002F08BB90A0680
S3150800280001F00F0101EBC10100EB810101D5143183
S3150800281001E001F51571006803F062B870B5044669
S315080028204FF0010201F00F004FF000050B0600EB18
S31508002830C00104EB810102D514314A7002E001F5AA
S3150800284015714D70087094F89404012808D084F81E
S315080028509424206802F060FD84F89454002070BD2A
S31508002860022070BD70B5044601F00F00227990422F
S3150800287001D9012070BD0B064FF0010201F00F01CE
S315080028804FF0000501EBC10104EB810102D51431BB
S315080028904A7002E001F515714D708D70087094F854
S315080028A09404012808D084F89424206802F09AFE3B
S315080028B084F89454002070BD022070BD01F00F0109
S315080028C001EBC10100EB8100D0F8680270472DE9E1
S315080028D0F04104464FF0010601F00F004FF00005E5
S315080028E00F0600EBC00104EB810102D514314E70CE
S315080028F002E001F515714D7008708A600B714A780F
S3150800290002B14883022B00D14D7194F89404012832
S3150800291009D084F89464206802F03EFC284684F8BE
S315080029209454BDE8F0810220FBE710B501F00F04CE
S3150800293004EBC40100EB810101F51571CA600B6156
S3150800294000234B614B700C708379012B00D1CA614F
S315080029508279006802F09EFE002010BD70B504461C
S315080029600D4605F00F002179884201D9012070BD76
S3150800297029064FF000064FF0010206D500EBC0010C
S3150800298004EB810114314A7006E005EBC50104EB3E
S31508002990810101F515714E708A70087094F89404D7
S315080029A0012807D084F89424206802F047FE2807F7
S315080029B002D007E0022070BDA17904F29C4220688B
S315080029C002F0E6FD84F89464002070BD10B501F0AD
S315080029D00F0404EBC40100EB81011431CA600B61DA
S315080029E000234B6101234B700C708379012B00D1B6
S315080029F0CA618279006802F04DFE002010BD2DE9FB
S31508002A00F84F04462568284603F014F800287ED1B6
S31508002A10206803F03BF8002879D0D5F80808C0F3F9
S31508002A200D20C4F8D404206803F030F8800704D5D4
S31508002A302068416901F002014161206803F026F827
S31508002A40C10604F29C40009035D52068816921F0C2
S31508002A50100181612F6A07F00F0000EBC00004EB3C
S31508002A60800606F51576C7F34340022802D00628E5
S31508002A7012D01BE047F6F070074217D0C7F30A12C8
S31508002A80F1681746284603F005F8F0683844F06000
S31508002A9070693844706109E000990822284602F0F6
S31508002AA0F9FF7069C7F30A110844706120688169E3
S31508002AB041F010018161206802F0E8FF00034FF041
S31508002AC0080B4FF000094FF001085ED50026206874
S31508002AD002F0BBFF824655E05FEACA704FD0206815
S31508002AE0F1B202F0CBFF0746F80707D005EB461010
S31508002AF0C0F8088B3146204601F03EF9380709D55B
S31508002B0005EB4610C0F808BB3146204600E015E242
S31508002B1001F00EF9F80604D505EB46111020C1F8A8
S31508002B20080BB8071CD56869000605D5D5F804084A
S31508002B3040F48061C5F8041806EBC60004EB800073
S31508002B4000F51570C178012905D180F80390204653
S31508002B50F1B200F0F9F905EB46100221C0F8081B9E
S31508002B60B80604D505EB46102021C0F8081BB804A2
S31508002B7005D505EB46104FF40051C0F8081B761C26
S31508002B804FEA5A0ABAF1000FA6D1206802F07EFF72
S31508002B9040036CD5206802F051FF8246002663E0A8
S31508002BA05FEACA705DD02068F1B202F055FF0746A9
S31508002BB0F80723D006F00F0108FA01F0D5F8341803
S31508002BC08143C5F8341805EB4610C0F80889A07982
S31508002BD001280FD106EBC60004EB8000D0E90721D7
S31508002BE01144016236B9606A20B920680121009A49
S31508002BF002F0CEFC2046F1B2FFF791FD380703D567
S31508002C0005EB4610C0F808B9F80604D505EB4611D9
S31508002C101020C1F80809780604D505EB46104021AE
S31508002C20C0F80819B80716D53146284602F0D0FE6E
S31508002C3006EBC60004EB80001430C178012905D1E3
S31508002C4080F803902046F1B200F07AF905EB4611B8
S31508002C500220C1F80809380603D53146204601F096
S31508002C60FDF8761C4FEA5A0ABAF1000F98D1206887
S31508002C7002F00CFF002811DAD5F8040820F001014B
S31508002C80C5F8041894F8CC04012839D0204600F079
S31508002C90EFF92068416901F000414161206802F0BE
S31508002CA0F5FE00050BD5D5F80808C00702D0204662
S31508002CB000F04CFA2068416901F40061416120681E
S31508002CC002F0E4FE00010AD52068416901F00061BE
S31508002CD0416194F8CC04D0B1204600F037FA206858
S31508002CE002F0D4FEC0046ED5D5F8040820F0010120
S31508002CF0C5F804182068102102F06AFE00212DE0AC
S31508002D0084F8CC9400212046FFF7D8FCC1E784F864
S31508002D10CC842068406DC0F38300C4F8D004012138
S31508002D202046FFF7CBFCDAE705EB41104FF67F327A
S31508002D3000F510608260036823F400130360C0F88E
S31508002D400822D0F8002222F40012C0F80022D0F897
S31508002D50002242F00062C0F80022491C207988420D
S31508002D60E2D8D5F81C0840F00111C5F81C18E07B1C
S31508002D7060B1D5F8840840F00B01C5F88418D5F879
S31508002D80440840F00B01C5F844180CE0D5F81408BF
S31508002D9042F22B010843C5F81408D5F8100840F08C
S31508002DA00B01C5F81018D5F8000820F4FE61C5F81F
S31508002DB00018A1792068009A02F0EAFB20684169A8
S31508002DC001F480514161206802F060FE800415D547
S31508002DD0206802F023FA206802F01CFEE07100F079
S31508002DE0D7F9E2790146206802F0BAFE204600F0DB
S31508002DF01DF92068416901F400514161206802F01B
S31508002E0045FE000707D5204600F03CF920684169D1
S31508002E1001F008014161206802F038FE000615D568
S31508002E20A86920F08001A96101260CE006EBC6001E
S31508002E3004EB800090F85702012803D12046F1B22E
S31508002E40FFF7DDFC761C2079B042EFD8206802F047
S31508002E501DFEC0021FD5012615E005EB4610D0F869
S31508002E60001906EBC60004EB8000027E012A09D190
S31508002E70002907DA80F81780F0B240F08001204672
S31508002E80FFF7BDFC761C2079B042E6D82068416978
S31508002E9001F480114161206802F0F8FD800230D506
S31508002EA0012026E005EB4011D1F8001B00EBC0021B
S31508002EB004EB820292F85832012B19D1002917DA4D
S31508002EC094F8D43401F4803103F0010399420FD108
S31508002ED082F85782A96941F08002AA6169690906E0
S31508002EE006D4D5F8040840F40070C5F8040803E0D1
S31508002EF0401C21798142D5D82068416901F4001126
S31508002F004161206802F0C2FD400007D52046FFF760
S31508002F10FBFB2068416901F080414161206802F0AD
S31508002F20B5FD40070AD520684568680702D52046DA
S31508002F30FFF75AFC2068416829434160BDE8F88FCD
S31508002F40D0F8E00401F043BED0F8E00401F041BE39
S31508002F50F8B50446002C04D094F89504002510B161
S31508002F6006E00120F8BD84F89454204600F05DF888
S31508002F70032084F89504206802F004FB207C8DF871
S31508002F80000094E80F0002F057F9022618B184F8F9
S31508002F9095640120F8BD2068002102F09AFD18B159
S31508002FA084F895640120F8BD002101270CE001EBA7
S31508002FB0C10004EB800047750175C1850576C561BA
S31508002FC005624562491CC9B220798842EFD80021BA
S31508002FD00DE001EBC10004EB800000F515704570AB
S31508002FE0017005718560C5600561491CC9B2207903
S31508002FF08842EED8207C8DF8000094E80F0002F095
S315080030000BFA18B184F895640120F8BD657484F844
S315080030109574207B012802D12046FFF73BFB2068E8
S3150800302002F0ECF90020F8BD7047704770B5044609
S315080030300125E079002810D0022803D0912108A0A4
S31508003040FDF7EBFAD4F8E004294601F018FED4F8A7
S31508003050E004BDE8704001F0D3BD0025F2E70000AA
S315080030602E2E5C757362645F636F6E662E63000056
S3150800307010B5044602F05AFFD4F8E004BDE8104043
S3150800308001F0E7BDD0F8E00401F0EDBD10B5044647
S3150800309094F8940401280AD0012084F894046174F1
S315080030A0206802F046FD002084F8940410BD022032
S315080030B010BDD0F8E02400F29C41104601F0EBBDAB
S315080030C010B50446206894F89414012909D0012102
S315080030D084F89414C168490609D5617B012902D090
S315080030E005E0022010BD816B41F4803181632068C0
S315080030F002F048FC206802F073F9002084F8940472
S3150800310010BD70B50446256894F89404012813D0B8
S31508003110012084F89404284602F034FA206802F064
S315080031206DF92068102102F053FCE868400609D5BD
S31508003130607B012802D005E0022070BDA86B20F450
S315080031408030A863002084F8940470BD10B5044646
S31508003150D4F8E00401F0E7FD2068D0F8001E41F03D
S315080031600101C0F8001EE07A20B10448016841F068
S3150800317006010160BDE8104002F0A2BD10ED00E0B6
S315080031800248016841F08071016070470C48025896
S3150800319000B500F01FF80B490A68C2F303230A4A70
S315080031A0D35C03F01F03D840096801F00F01515C96
S315080031B0064A01F01F0120FA01F11160044A106065
S315080031C0084600BD18440258467C000844000024FE
S315080031D04000002430B564480068654C10F038019A
S315080031E0624808D0021108290DD010290DD01829D7
S315080031F00DD0104630BD21688906FBD52168C1F37C
S31508003200C101C84030BD104630BD5A4830BD564988
S3150800321018310A6802F003020968C1F30511524B16
S315080032201C331B6803F001034F4D24352D68C5F385
S31508003230CC0515FB03F300EE103AB8EE400A002958
S3150800324077D0DFED4D0A484BB7EE001A20333AB374
S315080032509FED4A2A012A58D0022A6CD001EE901A0C
S315080032601868F8EE611AC2EE212AC0F3080001EECA
S31508003270900AF8EE611A40EE201A31EE810A22EE23
S31508003280800A1868C0F34620401C00EE900AF8EE43
S31508003290600A80EE201ABCEEC10A10EE100A30BD94
S315080032A0226892061BD52268C2F3C102D04001EEFD
S315080032B0900A1868F8EE612A01EE901AF8EE611A7B
S315080032C082EEA12AC0F3080001EE900AF8EE611A10
S315080032D040EE201A31EE810A22EE000AD1E701EE0D
S315080032E0901ADFED272A1868F8EE611A82EEA12AED
S315080032F0C0F3080001EE900AF8EE611A40EE201AB3
S3150800330031EE810A22EE000ABBE701EE901A186830
S31508003310F8EE611AC2EE212AC0F3080001EE900AFF
S31508003320F8EE611A40EE201A31EE810A22EE800A82
S31508003330A7E716E0FFE701EE901ADFED122A1868F4
S31508003340F8EE611A82EEA12AC0F3080001EE900A8F
S31508003350F8EE611A40EE201A31EE810A22EE000AD2
S315080033608FE7002030BD0000104402580090D003BB
S315080033700044025800127A00000000390024744AFA
S315080033800024744C0024F44A03490A6822F46002B3
S3150800339002430A60704700000404005810B5401E36
S315080033A0B0F1807F01D3012010BD4FF0E0246061A9
S315080033B00F21601703F0F7F80020A06107202061AD
S315080033C0002010BD10B500F00BFBFFF74BF8BDE869
S315080033D0104000F02BBEF0B500230A25302637270B
S315080033E0002412E0B5EB107F04D906EB107C01F837
S315080033F013C003E007EB107C01F813C0000101EBD2
S31508003400430C8CF801405B1CDBB29342EAD3F0BD57
S3150800341038B5044600200090012163696A46206891
S31508003420984700286FF0040501DA284638BD636915
S31508003430012120686A469847002801DA284638BDDF
S315080034400098400701D4012038BD6369002120682F
S315080034506A469847002801DA284638BD0098C1040C
S315080034600FD44FF40451814303D0810403D50320BC
S3150800347038BD022038BDC00501D5042038BD052059
S3150800348038BD63691F2120686A469847002801DA13
S31508003490284638BD0098C10401D4062038BDC0F3BB
S315080034A08200062805D0022805D0052805D0052063
S315080034B038BD022038BD032038BD042038BD2DE9AB
S315080034C0F84304460020009000260025606800287E
S315080034D04DD1A06800B18047202020606FF0040716
S315080034E0636912216A4630469847002801DA3D4644
S315080034F007E0009800F01F00B04202D126600025C0
S3150800350002E0761C1F2EEBD920681F2801D96FF020
S31508003510020505BB236900214FF40042984700289D
S3150800352023DB6369002120686A46984700281ADB6E
S31508003530A069804706464FF4FA7810E0A0698047EC
S31508003540801B404508D86369002120686A46984769
S31508003550002804DA3D460AE06FF0010507E0009806
S315080035600004EBD403E03D4601E06FF003055DB9C6
S31508003570A069804706464FF4FA67A0698047801B12
S31508003580B842FAD9012060602846BDE8F8830028C9
S3150800359011D0CA687AB18A686AB10A695AB10A68E2
S315080035A082604A68C260CA6842618A6802610969BB
S315080035B08161002070474FF0FF30704702490A6862
S315080035C082430A6070470000E044025808B504497F
S315080035D00A6802430A6009680140009108BD0000B4
S315080035E0E044025802490A6802430A60704700002C
S315080035F08844025802490A6882430A6070470000F4
S315080036008844025870B500243B49884206D10120F7
S31508003610FFF7E8FF0120FFF7EDFF6AE03749884228
S3150800362006D10220FFF7DEFF0220FFF7E3FF60E086
S315080036303349884206D10420FFF7D4FF0420FFF758
S31508003640D9FF56E02F49884206D10820FFF7CAFF5E
S315080036500820FFF7CFFF4CE02B49884206D11020FF
S31508003660FFF7C0FF1020FFF7C5FF42E02749884251
S3150800367006D12020FFF7B6FF2020FFF7BBFF38E072
S315080036802349884206D14020FFF7ACFF4020FFF7C8
S31508003690B1FF2EE01F49884206D18020FFF7A2FF1E
S315080036A08020FFF7A7FF24E01B49884208D14FF482
S315080036B080752846FFF796FF2846FFF79BFF18E018
S315080036C01649884208D14FF400752846FFF78AFF45
S315080036D02846FFF78FFF0CE01149884208D14FF4BE
S315080036E080652846FFF77EFF2846FFF783FF00E040
S315080036F00124204670BD000000000258000402584C
S3150800370000080258000C025800100258001402580B
S3150800371000180258001C02580020025800240258BB
S3150800372000280258F0B50A6892FAA2F2B2FA82F4B0
S3150800373053E00123A3401A40CAB34B68012B01D0BA
S31508003740022B10D18D68134686685B4303EB43074B
S315080037506B43BE431E438660CD680B6846689E432E
S315080037606B431E4346600D691346D0F80CC05B4395
S315080037701E4603EB43076B432CEA070C4CEA030C83
S31508003780C0F80CC04B68022B20D1FF2A10D84D690F
S31508003790D0F820C006FB02F35343C3EB03126B4376
S315080037A02CEA020C4CEA030CC0F820C00EE013E029
S315080037B04B69150A05FB05F26A436A43456AC2EB7B
S315080037C0021C5A4325EA0C05154345624A680368F4
S315080037D05643BB4333430360641C0A6832FA04F356
S315080037E0A7D10020F0BD000010B5064C206022F0DD
S315080037F01F00221D106043EA0120111D40F0010040
S31508003800086010BD98ED00E0BFF35F8F0149002006
S315080038100860704794ED00E00449086003480830E2
S31508003820016821F0010101607047000098ED00E091
S315080038300449086003480830016841F00101016045
S315080038407047000098ED00E070B5314D286800F02B
S315080038500F00072804D2286820F00F00C01D286032
S315080038602C4E306840F00100306000F05DF800280A
S31508003870FBD02848002410300460306826490840E8
S31508003880306000F059F80028FBD100F05DF80028F8
S31508003890FBD100F061F80028FBD11E4818300460FF
S315080038A0001D0460001D04601A491C482831086080
S315080038B0091D1B480860091D1A480860091D0C6087
S315080038C0091D0860091D0C60091D0860081D0460B3
S315080038D0306820F4802030600E48603004600D485F
S315080038E06830016840F2FF72114301600948D03020
S315080038F0016841F480310160286800F00F0007284C
S3150800390004D9286820F00F00C01D286070BD00008B
S31508003910002000520044025845EDF6EA0002020271
S315080039200000FF018002010102480068C0F3800020
S31508003930704700000044025802480068C0F340601F
S31508003940704700000044025802480068C0F3C0608F
S31508003950704700000044025802480068C0F34070EF
S31508003960704700000044025803490A6822F00F0213
S3150800397002430A607047000018440258014908606B
S31508003980704700004000002402494FF40000886197
S31508003990704700000004025801494880704700003B
S315080039A07C00002410B500F077FC0B4C6168884257
S315080039B00CD32078094950B1002020704FF400003C
S315080039C0886100F069FC61880844606010BD0120C8
S315080039D0207080208861F4E77C00002400040258E7
S315080039E010B5FFF711FF0022114B87211046FFF78C
S315080039F0FBFE0020FFF71CFF0E4B00210E4A01209C
S31508003A00FFF7F2FE0120FFF713FF0C4B00210220FF
S31508003A104FF01052FFF7E8FE0220FFF709FF0849AA
S31508003A2005200860BFF34F8FBFF36F8F10BD0000EE
S31508003A303E0004101C000513000004300A000C1395
S31508003A4094ED00E02DE9F041234804681C34234E28
S31508003A504FF001074FF000053078410607D56E3460
S31508003A6044F86E7CA583A577E577BDE8F081C107A4
S31508003A7001D084F88D50400708D594F88D000128A8
S31508003A8004D1B4F88A10201D04F058F830780007DD
S31508003A900DD594F88C00012809D184F88C50B4F817
S31508003AA08A1021B184F88D70201D04F047F830780B
S31508003AB08007DAD50A480188091F8129D5DC94F8D8
S31508003AC08D000028D1D107480068C9B2BDE8F04189
S31508003AD0001D02F0D5BC00005C0200244002002450
S31508003AE0440200245402002404480021417000784E
S31508003AF0002801D100F004B8704700001402002421
S31508003B0038B51E4C6078002836D102F057FF00F011
S31508003B10C3FB00F5FA70606000F0BEFB42F2107558
S31508003B202844A06003F0FAFA0021154A1180518052
S31508003B30144801804180ADF80010ADF80210124813
S31508003B40018041804EF6030003F028FB02F092FF45
S31508003B5004F10C0002F022FF062104F10C0002F029
S31508003B60D3FD02F0EBFDFCF777FDA84202D228460A
S31508003B70FCF790FD0120207038BD000014020024D7
S31508003B8050020024700200246C02002410B5044878
S31508003B900078012801D100F005F8002010BD0000CA
S31508003BA0140200242DE9F05F02F078FF3E4D00264E
S31508003BB008B328804FF4006002F0D4FE3B4CA1897C
S31508003BC088420AD1012003F0FFFA288898B103F049
S31508003BD071F902F08DFF2E800DE040F6060002F026
S31508003BE0C1FEA189884206D103F00EF9288810B1D2
S31508003BF002F07EFF2E8000F04FFB2D4FDFF8B480D9
S31508003C00DFF8B490796888422CD301F5FA717960A7
S31508003C1000242B20604308EB8000C9F8000002202E
S31508003C2003F0D2FA288820B103F044F902F060FFC5
S31508003C302E80641C002CECD00024DFF880A0DFF86E
S31508003C4080B00AEB8410CBF80000052003F0BCFA1C
S31508003C50288820B103F02EF902F04AFF2E80641C52
S31508003C60002CEED000F018FBB968884205D342F262
S31508003C7010700844B86003F0CBF900242B20604389
S31508003C8008EB8000C9F80000032003F09DFA288895
S31508003C9020B103F00FF902F02BFF2E80641C002CD4
S31508003CA0ECD0BDE8F09F000044020024D0170024A1
S31508003CB014020024C41D00245C020024701E002483
S31508003CC06002002430B50E4A1278012A16D10D4A30
S31508003CD013681C331A685A60002204E09D18845C35
S31508003CE02C72521C92B28A42F8D3091DA3F88A1084
S31508003CF0012083F88C001868401C186030BD00004D
S31508003D00140200245C02002410B5FDF7CBFC18B1A0
S31508003D10BDE81040FDF710BB002010BDFDF768BBDD
S31508003D20FDF7F4BBFDF7F6BBFDF732BCFDF748BC63
S31508003D3070B504462068056C00EB4110D0F8081BE6
S31508003D400C4EB54205D9090403D54FF40041C0F815
S31508003D50081B2046FFF7ADF9B54208D9A079012816
S31508003D6005D12068012104F29C4201F011FC0020D3
S31508003D7070BD00000A30544F2DE9F04105460C4647
S31508003D802E68306C06EB4411D1F8083B4FF4004717
S31508003D9095F8068005F29C424FF0200CB8F1010F09
S31508003DA008D0DFF8B080404545D118043AD5C1F8A7
S31508003DB0087B4CE0284E5FEA037806D5B04246D920
S31508003DC0180444D5C1F8087B41E05FEA836802D548
S31508003DD0C1F808CB3BE013F0280F38D1B04204D91C
S31508003DE0180402D5C1F8087B31E004EBC40005EBE2
S31508003DF0800000F51570D1F8101B036AC1F3120193
S31508003E00591A416124B903693BB1C2681144C160BA
S31508003E102846E1B2FEF78CFC19E02868012101F07A
S31508003E20B7FBF5E7980601D5C1F808CB2846E1B2F5
S31508003E30FEF77EFC0BE034B9D5F8640218B9002108
S31508003E40304601F0A5FB2846E1B2FEF771FC0020DA
S31508003E50BDE8F0810A31544F0A30544F2DE9F84F26
S31508003E6080460E46D8F8007006EBC60008EB8004BC
S31508003E701434D4E90410884202D90120BDE8F88F29
S31508003E80081AA168814200D20846C01C4FEA900A67
S31508003E9007EB461916E0151AA268AA4200D215467B
S31508003EA0E81C4FEA900A98F806000090ABB2E16861
S31508003EB03846F2B201F0EFFEE0682844E060606937
S31508003EC028446061D9F8180980B2504505D3D4E969
S31508003ED00420904201D2002ADDD1D4E904018842A7
S31508003EE008D8012006F00F018840D7F83418814316
S31508003EF0C7F834180020C1E70B4A1068C1B2C0F3EE
S31508003F0007231944C0F30743194401EB1061002045
S31508003F1013181B79194489B2401C3828F8D3C843AA
S31508003F20401C80B270470000000000241CB51148F0
S31508003F30A0F11052B2F5002F00F140010FD220F087
S31508003F40070021F0070102684368CDE90023DDE98F
S31508003F5000320360426008308842F4D11CBD20F06C
S31508003F60030021F0030102680192019A04C0884205
S31508003F70F9D11CBD0000002410B500F029F800286E
S31508003F800DD1084906480860002000220B181A714E
S31508003F90401C3828FAD3BDE8104000F039B810BDE7
S31508003FA0A2E742CE0000002470B504460D4600265E
S31508003FB000F00EF838B1382C05D225B10348204454
S31508003FC0007928700126304670BD000000000024E4
S31508003FD010B50024054806490068884203D100F058
S31508003FE009F800B10124204610BD00000000002495
S31508003FF0A2E742CE10B50024FFF77EFF0349898F5A
S31508004000884200D10124204610BD0000000000248B
S3150800401010B5FFF771FF03498887BDE81040FFF721
S3150800402085BF0000000000247047000010B55A48FC
S31508004030016821F00F0141F004010160006800F0F9
S315080040400F00042803D08D2154A0FCF7E6FA564841
S31508004050016821F0070141F00201016052480C3065
S31508004060016841F4404101605049086840F48020E5
S315080040700860086840F4803008600868C0F340406B
S315080040800028FAD0494A2832106820F0030040F088
S3150800409002001060101D036843F480330360036850
S315080040A043F400330360036823F00C0343F004036E
S315080040B00360036823F002030360106820F47C7031
S315080040C040F04000106039483030026840F2DF1393
S315080040D06FF308021A430260026822F47E4242F431
S315080040E000720260026822F4FE0242F4981202602C
S315080040F0026822F0FE4242F080720260086840F0D0
S31508004100807008600868C0F340600028FAD008206C
S31508004110FFF72AFC25481030016821F0070141F015
S3150800412003010160214C1834206820F47060206077
S315080041300820FFF719FC201D016821F0700141F0E5
S3150800414040010160016821F4E06141F48061016089
S31508004150206820F0700040F04000206013482030AE
S31508004160016821F0700141F0400101600F485430A8
S31508004170016821F007010160011F0A6822F0405218
S315080041800A60016821F4401141F480110160BDE81C
S3150800419010400748FFF7F2BB002000522E2E5C6D38
S315080041A061696E2E630000000C48025800440258EC
S315080041B000389C1C10B52E48016841F47001016056
S315080041C02C4A106800F00F00072804D2106820F067
S315080041D00F00C01D10602849086840F001000860FB
S315080041E0254B0020103318600B68244C23400B60C5
S315080041F0136803F00F03072B04D9136823F00F0382
S31508004200DB1D13601C4A18321060121D1060121D47
S315080042101060194B1A4A28331A601B1D194A1A606E
S315080042201B1D194A1A601B1D18601B1D1A601B1DD1
S3150800423018601B1D1A601A1D10600A6822F4802275
S315080042400A600D4960310860104800686FF30F0076
S31508004250B0F1005F02D20E490120086043F2D20095
S315080042600C490860480302498039086010BD0000FF
S3150800427088ED00E000200052004402587FEDF6EA7F
S31508004280000202020000FF01800201010010005C2A
S31508004290088100510040005200B500F067F8014857
S315080042A0406800BD2802002408B51E48016841F090
S315080042B001010160006800F0010000901948D83833
S315080042C0006800F00F00184A1849105C096800F0E9
S315080042D01F00C1401348D438036803F4E0631B0A7F
S315080042E0D25C02F01F02D140006800F4E0600028AA
S315080042F016D0022041430E48012202604FF6FF7293
S31508004300C2620C4AB1FBF2F1491E8162416941F071
S3150800431001014161084900224A60406A088008BDD7
S315080043200120E7E7F0440258567C000840000024C4
S3150800433000000140A0860100280200240A480168FE
S3150800434041F001010160016821F0010101600648A0
S315080043505830016821F0010101604FF0E02100208A
S315080043600861486188617047984402580A48406A5B
S315080043700A4A1188401A80B264280CD36423B0FB19
S31508004380F3F053680344536000EBC00303EB0010DB
S3150800439001EB8000108070470000014028020024CD
S315080043A010B501F08BFE002010BD084610B501F0CF
S315080043B005FE002010BD70B505460024284681215B
S315080043C000F0E6FA0121284600F0E2FA204670BD20
S315080043D00A210180004870478800002420210180B6
S315080043E0004870479400002400487047680300247A
S315080043F070B505460024284640230222812100F094
S31508004400EAFB402328460222012100F0E4FB044A85
S3150800441040230121284600F0EAFB204670BD000033
S315080044206803002410B590F89C02032801D101F016
S3150800443045FE002010BD000070B517221E4C0B78F3
S3150800444013F060030DD0402B2ED14A78012A2BD1C8
S315080044508988072928D104F117019E2200F06FF8F0
S3150800446022E04B78062B04D00A2B11D00B2B1BD13C
S3150800447014E04B882125B5EB132F05D10E4C0934D2
S31508004480CA88172A00D91722214600F058F80BE0E7
S3150800449009490122193900F052F805E04A8812F054
S315080044A0FF0F03D000F034F8002070BD0249D0B2E7
S315080044B019390860F8E700009D00002410B5D0F807
S315080044C0B42252689047002010BD90F89C22012A19
S315080044D005D0022A03D0032A01D000F019B849886A
S315080044E0012904D10021C0F8A41200F035B870479C
S315080044F010B513460A46002100F079FB002010BDCE
S3150800450010B513460A46002100F015FC002010BD20
S3150800451010B504468021204600F0EAFB2046BDE897
S315080045201040002100F0E4BB10B50521C0F8941234
S3150800453000231A46194600F05AFB002010BD10B594
S315080045400223C0F89432C261026213460A46002169
S3150800455000F0F1FB002010BD10B50421C0F894123C
S3150800456000231A46194600F0E6FB002010BD10B5D8
S315080045700446012084F89C02D4F8B40221794268E2
S3150800458020469047204600F0C5FB204600F0B7FAC3
S31508004590002010BD10B5002806D007A00A46054918
S315080045A000F0A6F9034810BD03A00A46014900F029
S315080045B09FF9F7E78C08002444656661756C7400FA
S315080045C01220088000487047B001002410B5002862
S315080045D006D007A00A46054900F08AF9034810BD27
S315080045E003A00A46014900F083F9F7E78C0800247E
S315080045F057696E5553422042756C6B20496E746537
S3150800460072666163650000000420088000487047F0
S31508004610AC01002410B504A00A46024900F068F966
S31508004620004810BD8C0800244F70656E424C54201B
S31508004630557365720000000010B5002806D007A063
S315080046400A46054900F054F9034810BD03A00A4676
S31508004650014900F04DF9F7E78C08002457696E55B3
S3150800466053422042756C6B20446576696365000089
S3150800467010B51A200880FDF737F8014810BD00006C
S31508004680E80100242120088000487047C40100245E
S315080046900A46D188012902D01146FFF739BF90F89A
S315080046A09C12012906D0022904D0032909D01146F3
S315080046B0FFF72EBF00218160012200F10801FFF7F4
S315080046C03EBF0122011DFFF73ABF2DE9F843044614
S315080046D00F4600200090002600257988080A06283B
S315080046E074D006DC012833D0022839D0032804D137
S315080046F04CE007286BD00F281BD039462046FFF719
S3150800470007FF0125002D12D1BDF8000048B1FA882F
S315080047103AB1824200D90246009231462046FFF756
S315080047200EFFF888002802D12046FFF715FFBDE8DE
S31508004730F883D4F8B002C26922B1207C6946904752
S315080047400646DFE739462046FFF7E2FE0125D9E7A8
S31508004750D4F8B012207C0A68694690470646D1E725
S31508004760207C4FF0020840B1D4F8B402C16A68460A
S315080047708847064686F80180C4E7D4F8B402816AF9
S3150800478068468847064686F80180BBE7C8B2062809
S3150800479060D2DFE800F0031223324150D4F8B002A9
S315080047A0426822B1207C694690470646AAE7394600
S315080047B02046FFF7ADFE0125A4E7D4F8B0028268CB
S315080047C032B1207C6946904706469BE748E056E0AA
S315080047D039462046FFF79CFE012593E7D4F8B00238
S315080047E0C26822B1207C6946904706468AE7394660
S315080047F02046FFF78DFE012584E7D4F8B00202694A
S3150800480022B1207C6946904706467BE73946204612
S31508004810FFF77EFE012575E7D4F8B002426922B19A
S31508004820207C6946904706466CE739462046FFF7DE
S315080048306FFE012566E7D4F8B002826922B1207CB2
S315080048406946904706465DE739462046FFF760FE0B
S31508004850012557E739462046FFF75AFE012551E755
S31508004860207C28B139462046FFF752FE012549E744
S31508004870D4F8B402416B68468847064642E7207C6E
S3150800488028B139462046FFF743FE01253AE7D4F812
S31508004890B402016B6846884706460721717031E7FE
S315080048A0002102E0491CC9B2401C0278002AF9D14D
S315080048B0084670470A4690F89C12012906D0022934
S315080048C004D0032902D01146FFF722BED188022957
S315080048D002D01146FFF71CBE0121C160D0F8A41210
S315080048E009B10321C160022200F10C01FFF727BEBE
S315080048F070B504460D461646002C17D02046FFF71D
S31508004900CFFF022101EB4000308030782870032168
S3150800491002206970002306E0411C641C2A54C9B2AF
S31508004920481CC0B26B542278002AF5D170BD0146E6
S315080049300020002906D0012905D0022905D003291F
S3150800494005D00220704702207047012070470220D8
S31508004950704710B5002810D0D0F8B43213B1002330
S31508004960C0F8B43209B1C0F8B012012180F89C121F
S31508004970027000F0DFF8002010BD022010BD10B54F
S31508004980D0F8C002FDF76EFFBDE81040FFF7CFBFB5
S3150800499010B5D0F8C002FDF741FFBDE81040FFF79B
S315080049A0C6BF70B504461346002909D0D4F8B40228
S315080049B042691AB194F89C02032859D0022070BDA6
S315080049C004F11400D4F894120025022903D004290E
S315080049D040D0F1B342E0D0E903218A420DD9511AF9
S315080049E0C1608AB219462046FFF78AFD0023204691
S315080049F01A46194600F0FBF830E08068B0FBF1F281
S31508004A0001FB12029AB9884211D3D4F89812884247
S31508004A100DD2002220461146FFF772FDC4F89852BF
S31508004A2000231A461946204600F0E1F816E0D4F8A5
S31508004A30B402C16829B194F89C02032801D1204622
S31508004A4088478021204600F053F92046FFF76CFD81
S31508004A5004E0FFE78021204600F04AF994F8A00216
S31508004A60012807D1204600F08CF984F8A05201E00D
S31508004A7020469047002070BD70B50446084611468A
S31508004A80002809D0D4F8B4128A691AB194F89C128D
S31508004A9003292FD0022070BD04F5AA70D4F89432E9
S31508004AA0032B02D0052B1DD027E0D0E903539D42E6
S31508004AB00AD9EB1AC3600069834200D3034620462D
S31508004AC09AB2FFF715FD18E0D4F8B402016929B1C6
S31508004AD094F89C02032801D1204688472046FFF710
S31508004AE03BFD0AE00020C4F894020021204600F0AD
S31508004AF0FFF802E0014620469047002070BD10B539
S31508004B00D0F8C002FDF71EFEBDE81040FFF70FBF44
S31508004B100020704710B5012180F89C12D0F8B42205
S31508004B20017952689047002010BDD0F8C002FDF701
S31508004B30C5BE000010B5017800292BD11649C1F869
S31508004B40E004C0F8C012154808600920087102225E
S31508004B50CA71002088714A7201228A72C872087363
S31508004B6048738873C8730846FEF7F2F920B10CA09B
S31508004B704FF49371FBF751FD07488021FDF79FFD20
S31508004B80054840220021FDF79EFD034880220121A9
S31508004B90FDF799FD002010BDA80300240000084079
S31508004BA02E2E5C757362645F636F6E662E630000FB
S31508004BB00A06D0F8C00201F07F0101EBC10100EB43
S31508004BC0810001D5807D704790F856027047002015
S31508004BD070470020704710B514461A46D0F8C00230
S31508004BE02346FDF774FEBDE81040FFF7A0BE10B5DA
S31508004BF0D0F8C002FDF799FEBDE81040FFF797BE52
S31508004C0070B504460022204640231146FFF7E3FF0D
S31508004C100125C4F858514026C4F86461402320464B
S31508004C2000228021FFF7D7FFA561666284F89C52AF
S31508004C300020C4F894026060C4F8A402D4F8B8024C
S31508004C4028B1D4F8B40200214268204690470020D3
S31508004C5070BD90F89C12042903D190F89D1280F833
S31508004C609C120020704710B590F89C12032904D1B5
S31508004C70D0F8B412C96901B18847002010BD017483
S31508004C800020704710B5D0F8C002FEF7FFF9BDE85E
S31508004C901040FFF74CBE70B5044604F52A70054669
S31508004CA000F052F80120C4F89402B4F8AE02C4F831
S31508004CB0980294F8A82212F01F000AD001280DD0F5
S31508004CC0022810D002F08001204600F011F80020DA
S31508004CD070BD2946204600F002F9F8E72946204625
S31508004CE000F024FAF3E72946204600F02DF9EEE70E
S31508004CF010B5D0F8C002FDF731FEBDE81040FFF749
S31508004D0016BE10B5D0F8C002FEF7DAF9BDE81040B5
S31508004D10FFF70DBE10B5D0F8C002FEF7F2F9BDE8F0
S31508004D201040FFF704BE00F5277001784170042192
S31508004D3001700020704710B5D0F8C002FDF746FE96
S31508004D40BDE81040FFF7F3BD0A7802704A78427052
S31508004D50CB788A7802EB032242804B790A7902EBF8
S31508004D60032282808A79C97902EB0121C1807047C2
S31508004D7002460020002902D0C2F8B4127047022069
S31508004D8070470020704770B504468888002821D1EE
S31508004D90C888F8B9488880281CD200F07F0594F89E
S31508004DA09C0203280DD084F89E5229462046FFF718
S31508004DB069FF2046FFF7D0FB45B1022084F89C0224
S31508004DC070BD2046BDE87040FFF7A2BB012084F8FD
S31508004DD09C0270BD2046BDE87040FFF799BB10B530
S31508004DE00224D0F8B422002A03D01268904700B9EA
S31508004DF00024204610BD000070B504460E46304D0E
S31508004E00B1782970012905D931462046BDE8704098
S31508004E10FFF77EBB94F89C0202280BD0032823D008
S31508004E2031462046FFF774FB29782046BDE87040D6
S31508004E30FFF744BB99B16160032084F89C022046C1
S31508004E40FFF7CDFF022804D02046BDE87040FFF7E3
S31508004E5083BB31462046BDE87040FFF759BB204664
S31508004E60BDE87040FFF778BB91B16068884221D0F1
S31508004E70C1B22046FFF722FB297861602046FFF77A
S31508004E80AEFF022810D02046BDE87040FFF764BB8D
S31508004E90022084F89C0261602046FFF70FFB20463B
S31508004EA0BDE87040FFF758BB31462046BDE8704064
S31508004EB0FFF72EBB2046BDE87040FFF74DBB00004C
S31508004EC0480000244988012903D1C0F8A412FFF735
S31508004ED043BB704710B5FFF714FF002010BD10B58F
S31508004EE000240A7812F060020CD0202A05D0402A45
S31508004EF003D0FFF70DFB204610BDD0F8B422926808
S31508004F009047F8E74A780A2A1BD2DFE802F0111719
S31508004F101A141A08051A0E0BFFF7D7FBEBE7FFF76B
S31508004F2032FFE8E7FFF768FFE5E7FFF7B1FBE2E7DF
S31508004F30FFF7C0FCDFE7FFF7C5FFDCE7FFF7C5FAB9
S31508004F40D9E7FFF7E5FAD6E72DE9F04104460A4620
S31508004F5000261179137813F0600011D0202808D0A4
S31508004F60402806D011462046FFF7D2FA3046BDE85B
S31508004F70F081D4F8B4021146836820469847F5E7CD
S31508004F80C3F3411001280BD05078002860D00128BF
S31508004F9037D003280CD011462046FFF7B9FAE5E7C3
S31508004FA0D4F8B402114683682046BDE8F041184794
S31508004FB094F89C02022806D0032814D011462046ED
S31508004FC0FFF7A6FAD2E749B1802907D02046FFF7AE
S31508004FD08FFE80212046FFF78BFEC7E71146204645
S31508004FE0FFF796FAC2E7508838B931B1802904D05C
S31508004FF0D08810B92046FFF77BFE2046FFF7ACFAAB
S31508005000B4E794F89C02022806D0032814D0114667
S315080050102046FFF77DFAA9E749B1802907D020463F
S31508005020FFF766FE80212046FFF762FE9EE71146DF
S315080050302046FFF76DFA99E75088002896D148066A
S3150800504002D02046FFF79BFC2046FFF785FA8DE73E
S3150800505094F89C020027022806D0032824D011467B
S315080050602046FFF755FA81E731B1802904D0114669
S315080050702046FFF74DFA79E7080607D501F07F00C5
S3150800508000EB800004EB8001143107E001F07F009B
S3150800509000EB800004EB800101F5AA710F60022283
S315080050A02046FFF74CFA61E708060CD501F00F0019
S315080050B000EB800004EB8000806968B91146204641
S315080050C0FFF726FA52E701F00F0000EB800004EB29
S315080050D08000D0F8580148B108060CD501F07F00C9
S315080050E000EB800004EB800514350CE011462046E1
S315080050F0FFF70EFA3AE701F07F0000EB800004EBB9
S31508005100800505F5AA7541B1802906D02046FFF726
S315080051104FFD20B10120286002E02F6000E02F60DB
S31508005120022229462046FFF70AFA1FE770B5054608
S315080051300C46207810F0600209D0202A07D0402AB1
S3150800514005D021462846FFF7E3F9002070BD95F8FB
S315080051509C22012A08D0022A06D0032A04D0214616
S315080051602846FFF7D5F9F0E7207901280ED8D5F8B3
S31508005170B4022146826828469047E1880029E4D18E
S315080051800028E2D12846FFF7E7F9DEE72146284658
S31508005190FFF7BEF9D9E7000070B50A7801234E7803
S315080051A002F00F041C4DA340012E19D0D0F81C485C
S315080051B044EA0343C0F81C3800EB4210D0F8002B31
S315080051C012040BD4D0F8002B0B890979C3F30A0310
S315080051D01A4345EA81410A43C0F8002B002070BDF6
S315080051E0D0F81C489BB21C43C0F81C4800EB421080
S315080051F0D0F800391B04F1D4D0F800390C890979A4
S31508005200C4F30A048904234341EA82510B432B431E
S31508005210C0F80039E2E7000000800010D0F8001955
S315080052206FF30A01C0F80019D0F8041841F4807128
S31508005230C0F80418002070470FB410B504469DF84E
S315080052401100012823D0E06840F04000E0602046C5
S3150800525000F040F89DF8151089B3A16B21F4803150
S31508005260A1639DF80E1001290ED1E16D89B2E165A1
S31508005270E16D164A1143E165A16841F00601A16096
S31508005280A16841F02001A16010BC5DF814FBA06B79
S3150800529020F48030A063E0680D490840E060E068CB
S315080052A020F44010E0609DF81800012803D1E0685A
S315080052B040F48010E060204600F00CF8D1E7FFE7E4
S315080052C0A16B41F48031A163CBE700000000EE0337
S315080052D0BFFFBDFF08B5002300934FF07062009929
S315080052E0491C00910099914201D9032008BD016922
S315080052F00029F4DA0093016941F00101016100997E
S31508005300491C00910099914201D9032008BD016901
S31508005310C907F4D1002008BD70B50A7801254B7875
S31508005320012B00EB42122BD0D2F8003B002B0BDAF4
S31508005330D2F8003B43F00063C2F8003BD2F8003BCA
S3150800534043F08043C2F8003B00F61C00046A0B7861
S3150800535003F00F0605FA06F324EA03440462046818
S31508005360097801F00F0105FA01F324EA0341016007
S31508005370D2F8000B18490840C2F8000B002070BD8F
S31508005380D2F80039002B0BDAD2F8003943F0006363
S31508005390C2F80039D2F8003943F08043C2F8003920
S315080053A000F61C00046A0B7803F00F0605FA06F3EC
S315080053B09EB2B44304620468097801F00F0105FA45
S315080053C001F399B28C430460D2F8000903490840F6
S315080053D0C2F80009D2E700000078F3EF007833EC52
S315080053E0D0F8001E21F00301C0F8001ED0F80418FA
S315080053F021F00201C0F8041800207047D0F8001EFA
S3150800540021F00301C0F8001ED0F8041841F002018B
S31508005410C0F80418002070470FB42DE9F04304467D
S3150800542000250020002704EB8001C1F80471401C08
S315080054300F28F8D39DF82A6046B3A06B40F40011F4
S31508005440A163C4F8007E9DF82500012831D0032108
S31508005450204600F07DFB1021204600F0B9FA00B185
S315080054600125204600F094FA00B10125C4F8107809
S31508005470C4F81478C4F81C7800209DF820204FF052
S3150800548000634FF0904C4FF67F3834E0D4F80408A8
S3150800549040F00201C4F80418A06B20F40011A163BF
S315080054A0206840F040012160206840F080012160BA
S315080054B0C7E79DF8230020B10121204600F048FBEC
S315080054C0C9E70021204600F043FBC4E704EB40117E
S315080054D0D1F80099B9F1000F06DA10B1C1F800C980
S315080054E004E0C4F8003901E0C1F80079C1F8107980
S315080054F0C1F80889401C8242E8D8002014E004EB71
S315080055004011D1F8009BB9F1000F06DA10B1C1F8C5
