S01700006F70656E626C745F786D63313430302E73726563AD
S31510001000500900201910001000000000991000105F
S3151000101000180400000100001149124A124B00F09A
S3151000102018F8124880471249124A134B00F011F86B
S315100010301249134A134B00F00CF81349134A0020B7
S31510001040521A02DD043A8850FCDC114880471148D8
S3151000105080479B1A03DD043BC858D050FBDC704711
S31510001060502B00100C0000205001002075110010AC
S31510001070942C00105009002054090020982C0010C0
S31510001080540900205409002058090020940C00200F
S31510001090A927001099270010FEE70000024A936E58
S315100010A001218B439366704700000140004870474A
S315100010B0002D310138B51D4B1B681B041B0E1C4A35
S315100010C0136026D019480268FF211140194C21607F
S315100010D0C26903252A40120211432160C269920592
S315100010E008D49B02C918144800F0C4FA0001134B27
S315100010F018601AE0FFF7DAFF80010D4B19688902B4
S315100011000C4B1B68C91800F0B5FA00010B4B1860A0
S315100011100BE0064BDB699B0503D4094A074B1A60A3
S3151000112003E0FFF7C3FF054B186038BD000301400D
S31510001130580900205C09002000001BB7FC3F002066
S31510001140006CDC0208B50749C0234B62064BD86910
S31510001150064A0240DA61064A1A60C3234B62FFF759
S31510001160A9FF08BD0000014000030140FFFDFFFF7D
S315100011700001F13F08B5FFF791FFFFF7E3FF08BD48
S31510001180034A9188C0239B010B4393807047C04646
S3151000119000000540014B188880B2704700000540DA
S315100011A008B5021C82235B001B68081C111C98479B
S315100011B008BDC04670B5051C0E1C00240BE080232C
S315100011C05B001B68281C9847FFF7E4FFC307FBD496
S315100011D00135FF350134B442F1D370BD08B5102185
S315100011E0FFF7E8FF08BDC04608B5FFF7D9FF08BDF1
S315100011F0F0B54F464646C0B48B08994604339B005B
S315100012001E5803250D40ED00FC27AF40BE431E506F
S31510001210436F4F000326BE40B3434367CB081033DA
S315100012209B001C5807260E40B6000427B740BC4347
S315100012301C501F58BC465778B7403E1C67463E4365
S315100012401E500C4B984204D1036E01268E40B343B8
S31510001250036653688B4043604B4604339B00195812
S315100012601278AA40151C0D431D500CBC9046994689
S31510001270F0BDC04600020440C322014B5A627047BB
S3151000128000000140C022034B5A62024B5B6A5B07A7
S31510001290FBD470470000014010B5041CFFF7F2FFA5
S315100012A0054B1A6914431C61034B1B685B00FBD486
S315100012B0FFF7E2FF10BDC04600030140014B18685E
S315100012C07047C046FC3F0020F0B55F465646C0B496
S315100012D085B083460F1C454B9A4600230293039311
S315100012E001253AE03B689800C0184000291C00F020
S315100012F0C1F901907C68211C00F0BCF9061C0A217A
S3151000130000F0C2F9052905D9301C0A2100F0B2F9FE
S31510001310461C04E0301C0A2100F0ACF9061C002E15
S3151000132006D0B10089194900019800F0A3F904E02C
S3151000133001980A2100F09EF90126A04201D3041B50
S3151000134000E0241A142E07D8A24505D9284B9C4232
S3151000135006D9A246029603950135402DC2D901E061
S3151000136002960395214E0124402512E0681C1F4B5E
S315100013705843029900F07EF93B89834201D8C21A7C
S3151000138000E01A1A964201D9161C2C1C984202D358
S31510001390013D022DEAD8029B191B5B461B684022B1
S315100013A01343584603608B1E1903E023DB011940D3
S315100013B0081C7B89013B9B01FF210B401843071C2E
S315100013C0013C2402F0231B011C402743039B013BD5
S315100013D0C0390B401F435B461F611B6893435A4637
S315100013E0136005B00CBC92469B46F0BD102700005A
S315100013F0E703000010B5E2235B00C4583D33FF330A
S315100014001C42F8D10131120402231A430906114372
S31510001410C333FF33C15010BD10B5041C80208003A8
S31510001420FFF73AFF236801229343236023689B0743
S31510001430FCD410BD10B5E422520083580F24A343E8
S315100014401943815010BDC046E4235B00C058BA3B17
S31510001450FF3B18407047C04608B5FFF7F5FF012857
S3151000146002D0022803D005E0FFF728FF03E0FFF7BC
S315100014701DFE00E0002008BDF0B5474680B4051CEF
S315100014800C1C161CFFF7C8FF281C211CFFF7D2FFE7
S31510001490281CFFF7E1FF041C311C00F0EBF8802735
S315100014A0FF003F1A194B9F4200D91F1C8021C9000B
S315100014B0C91B201C00F0DEF88046B009A409800282
S315100014C0211C00F0D7F8114B984200D9181C444340
S315100014D0A40AA4014346F21A341B002394425B412A
S315100014E0DBB2002B00D0381C002B01D0012300E00A
S315100014F00223E968064A0A40EA60EA689B03184331
S315100015001043E86004BC9046F0BDC046FF030000DF
S31510001510003CFFFF10B5037E012B18D10368202273
S31510001520DA61046821680B4B1940037B1B06F02215
S31510001530120513400B432360036802691A6103689E
S3151000154042695A610368044ADA61002000E0032008
S3151000155010BDC046FFFFFFF04000280010B502681E
S31510001560204BD318990A49039B05DB0E1B020B432C
S3151000157094681D4921409160026891680B439360FD
S31510001580037E012B2CD803682022DA61C3799B06CF
S315100015900ED441684B0F5A078B04134302689361AC
S315100015A081684B0F5A078B0413430268D36005E01A
S315100015B0036842689A6103688268DA60041C037ED5
S315100015C0012B06D1FFF7A6FF236880221205DA61E8
S315100015D003E0036880221201DA612368034ADA61A4
S315100015E010BDC04600F0FBAFFF00FFFF4000A00695
S315100015F00268D169D369DB05DB0F890606D5012B95
S3151000160006D0E023DB04D361002002E0042000E0D2
S31510001610022070470268D169D3695B07DB0F0905A1
S315100016200FD4012B0FD01369036153694361D1693C
S31510001630D3691B07DB0F490707D5002BF3D1002011
S3151000164004E0032002E0022000E000207047C046BC
S3151000165030B58B0804339B001C5803252940C9005C
S31510001660F9358D40AC431C501C588A40111C21433F
S31510001670195030BD034B04225A6318625962986A96
S315100016807047C04600000340034B04225A63186299
S315100016905962D96A986A70470000034070B5051CF4
S315100016A00E1C00F0EFF8F479002C00D11034281C31
S315100016B03168221C00F050F8B379013B5B006408D6
S315100016C0013424021C43114B1C43EC633379013B58
S315100016D01B068122520013436B637379002B05D0CE
S315100016E06A6B013B1B0413436B6305E0696B32792C
S315100016F0531E1B040B436B63A023DB00AB63012358
S315100017005B42EB6433892B6470BDC0460100030055
S3151000171084235B00C258E023DB041A4208D1836B92
S315100017201B06FCD480239B01C3648023C15002E0B6
S31510001730C0235B00C150704786235B00C258E0236C
S31510001740DB041A4202D1406D80B203E08E235B00A7
S31510001750C05880B27047C046F0B55F464E46C0B41A
S3151000176083B063293DD9002A3DD0151C0C1C834635
S31510001770FFF7A4FD6421FFF77DFF8146201C64213D
S31510001780FFF778FF071C1B4E012301930093341CAF
S3151000179011E048466043291C7943FFF76BFF830A23
S315100017A08005800D134A934204D8B04202D2061C1B
S315100017B001930094013C002CEBD180231B02009F67
S315100017C01F435B461F615A690B4B1340013DAD0227
S315100017D01D43019E013E360435435B465D61002084
S315100017E002E0012000E0012003B00CBC91469B46AC
S315100017F0F0BDC046FF030000EF8000FC70B58425E5
S315100018006D004659064C344044514659054C264005
S315100018101B02194314060A1C22433243425170BD5F
S31510001820FFFFFFF8C0C0FFF870B586256D0046595A
S31510001830084C344044514659074C26401B02194364
S3151000184014060A1C22433243802149050A43425199
S3151000185070BDC046FFFFFFF8C0C0FFEF08B5074BCD
S31510001860984203D10820FFF717FD06E0044B984273
S3151000187003D18020C002FFF70FFD08BD0800004805
S315100018800840004810B5041C9023DB05984202D08E
S315100018900C4B984203D10C48FFF7E0FF08E00B4BC6
S315100018A0984202D00A4B984202D10A48FFF7D6FF57
S315100018B00323E360E368DB07FCD5236C0F22934315
S315100018C0236410BD0002004808000048004000488C
S315100018D000420048084000487047C04672B670473C
S315100018E062B6704730B585B0FFF7E8FC041C00E01F
S315100018F06400484B9C42FBD900E06408464B9C426E
S31510001900FBD846480121221CFFF7B6FD01A9019418
S31510001910434B4B60FA235B010B8101254D81414CF2
S31510001920201CFFF7D1FC2268402313432360236851
S315100019301D4325603C4A3D4B1360D3793F210B4034
S31510001940BF390B43D37153685B0F5B0738480343AA
S3151000195053609168490F4907014391601B0E20207F
S315100019608343D371090E20231943D17208231373AD
S31510001970002305E02C4AD218002111740133DBB282
S31510001980072BF7D9284801230376FFF7E7FD2348ED
S3151000199001210022FFF72EFD264A274B1360D3792B
S315100019A03F210B40BF390B43D37153685B0F5B0765
S315100019B02248034353609168490F490701439160D8
S315100019C01B0E20208343D371090E20231943D17295
S315100019D008231373002305E0164AD2180021117448
S315100019E00133DBB2072BF7D9124800230376FFF732
S315100019F0B5FD0A4801210122FFF7FCFC094B1A68C4
S31510001A0040218A431A601A683F398A431A6005B022
S31510001A1030BDC046FF1AB700000E2707000004505D
S31510001A2020A1070000030450600900200010045094
S31510001A30E10700008009002020100450670600000E
S31510001A4010B50F4B1973002305E0C45C0C4AD2186D
S31510001A5014740133DBB28B42F7D3094C201CFFF709
S31510001A6059FD23680222DA61201CFFF7C1FD01E04F
S31510001A7000F010FC024B1B68DB699B07F8D410BD05
S31510001A806009002010B5114B1B68DB69DB071AD5FE
S31510001A90041C0E48FFF7BEFD002809D000200DE0FB
S31510001AA00A4AD218127CE2540133DBB2012001E05B
S31510001AB000200023054A127B9A42F1D8034B1B687B
S31510001AC00122DA6100E0002010BDC0468009002026
S31510001AD008B5FFF703FF08BD10B500F00FFA002890
S31510001AE00DD000F0C7FD002809D000F08DFB00F0E6
S31510001AF015FA00F007FA4468FFF7F2FEA04710BD8A
S31510001B0070B508E0461C4D1C0B78037000F0C2FB44
S31510001B10221C301C291C531E9CB2002AF2D170BD07
S31510001B2038B5051C002419E000F0B4FB63001B193E
S31510001B309B000C495958A9420ED863001B199B00EB
S31510001B400848C3185B68C918A94205D963001A1951
S31510001B5092008218107A04E00134E4B22F2CE3D9F3
S31510001B60FF2038BDF427001038B5051C002410E0FE
S31510001B7000F090FB63001B199B00084AD3181B7AD0
S31510001B80AB4204D1630019198900885805E0013465
S31510001B90E4B22F2CECD90120404238BDF4270010B6
S31510001BA008B5FF230B4209D103688B4208D002C047
S31510001BB080225200FFF7A4FF012002E0002000E07F
S31510001BC0012008BD38B5041C0068FFF7A9FFFF28DF
S31510001BD026D0FFF7D5FA00F0C9F9451D211C01C919
S31510001BE0FFF702FB05E000F0C1F9A8421AD800F091
S31510001BF051FBFFF7CFFAC307F5D4FFF7CBFA00284E
S31510001C0012D1002308E02268D2181278D2B2E11855
S31510001C1009798A420AD10133FF2BF4D9012006E053
S31510001C20002004E0002002E0002000E0002038BD83
S31510001C3038B5041C0D1C0C4B984207D00B4B99421F
S31510001C4006D0FFF7BFFF002803D109E0084C00E0DB
S31510001C50054C201C291CFFF7A3FF002802D102E027
S31510001C60002000E0201C38BDA00900200030001024
S31510001C70A40A0020F0B5474680B4071C0C1C151C9E
S31510001C801E1C0B0A1B0298460368013304D14146F9
S31510001C90FFF786FF002827D03B68434505D0381C40
S31510001CA04146FFF7C5FF071E1BD03B68E41A3C19D7
S31510001CB0043400F0EFFA3B1DE31AFF2B08D9434614
S31510001CC0591CFF31381CFFF7B3FF071E0BD0041D3C
S31510001CD02B78237001340135013E002EE9D1012005
S31510001CE002E0002000E0002004BC9046F0BDC04693
S31510001CF0F8B5051C0F1C88422AD802282AD9322981
S31510001D0022D929E000F0C6FA281CFFF72DFF061C81
S31510001D10431C23D0FFF734FA00F028F90A30041CCC
S31510001D20301CFFF75BFA05E000F020F9A04217D847
S31510001D3000F0B0FAFFF72EFAC307F5D4FFF72AFA28
S31510001D4000280FD10135EDB2BD42DBD901200AE0E2
S31510001D50002008E0002006E0002004E0002002E059
S31510001D60002000E00020F8BD01235B42024A136008
S31510001D70024A13607047C046A40A0020A00900203A
S31510001D8070B5041C0D1C161CFFF7CAFEFF2818D0D0
S31510001D9060190138FFF7C4FEFF2814D0230A1B026E
S31510001DA00A4A934206D10A48211C321C2B1CFFF703
S31510001DB061FF09E00748211C321C2B1CFFF75AFF54
S31510001DC002E0002000E0002070BDC0460030001088
S31510001DD0A0090020A40A0020F8B5061C0C1CFFF769
S31510001DE09FFE051C30190138FFF79AFE011CFF2DC6
S31510001DF005D0FF2805D0281CFFF77AFF02E0002047
S31510001E0000E00020F8BDC04600B583B00F4B1B683C
S31510001E10013318D00D4B5A68986884466244111CD9
S31510001E20DA68944661441A69944661445A6994463C
S31510001E3061449A698B185B4201930548042101AAF3
S31510001E40FFF79EFF00E0012003B000BDA0090020AF
S31510001E50183000100C4B1A680C4B1B68D3180C4A20
S31510001E601268D3180B4A1268D3180B4A1268D31883
S31510001E700A4A1268D3180A4A1268D318002B01D1DD
S31510001E80012000E0002070470030001004300010E0
S31510001E90083000100C3000101030001014300010F4
S31510001EA01830001008B50B4B1B68013304D00948D5
S31510001EB0FFF788FE00280CD0074B1B68013305D0AE
S31510001EC00548FFF77FFE002802D102E0012000E05E
S31510001ED0012008BDA0090020A40A00200048704770
S31510001EE00030001008B5FFF73FFF08BD08B5FFF733
S31510001EF047FF08BD08B5FFF76FFF08BD08B5FFF728
S31510001F00A9FF08BD08B5FFF7E9FF08BD08B5FFF73B
S31510001F107BFF002801D0FFF7C5FF08BD0022014B4B
S31510001F201A60704710E000E008B5FFF7F7FF054BA1
S31510001F30054A5A6000229A6005211960034B1A60FF
S31510001F4008BDC04610E000E07FBB0000A80B0020D3
S31510001F50044B1B68DB0303D5034A13680133136074
S31510001F607047C04610E000E0A80B002008B5FFF748
S31510001F70EFFF014B186808BDA80B002008B58A238F
S31510001F805B000B4AD358DB0410D481B2101CFFF748
S31510001F90BFFB8A235B00064AD358DB05F9D580219F
S31510001FA049008C235B00D150012000E0002008BDC1
S31510001FB00002004810B58A235B00064AD3581B0757
S31510001FC006D4041C101CFFF7B7FB2070012000E09C
S31510001FD0002010BD0002004810B584B001A9E1230D
S31510001FE01B02019308230B714B71073B8B710F3347
S31510001FF0CB7100230B810C4C201CFFF74FFB201CD0
S31510002000102104220123FFF7F9FB201C00210422D2
S315100020100123FFF709FC236C0F2293430D3A134358
S31510002020236404B010BDC0460002004870B5061CFB
S315100020300D1E402D03D91048752100F071F8281C8B
S31510002040FFF79CFF012803D00B48792100F068F8B0
S3151000205000240CE000F01EF9305DFFF78FFF012819
S3151000206003D00548822100F05BF80134A4B2ABB26C
S31510002070A342EFD870BDC046342A001038B5051CEF
S31510002080234B1C78002C13D12248FFF793FF01280D
S315100020903CD1204B1B78002B33D0FFF767FF1E4B2C
S315100020A0186000221D4B1A700132194B1A702DE060
S315100020B01A4B18780130174B1818FFF77BFF041EC0
S315100020C0012C12D1154B1A780132D2B21A70114B5B
S315100020D01B789A4217D192B2281C0E490131FFF78C
S315100020E00FFD00220A4B1A7010E0FFF73FFF0A4B54
S315100020F01B686433984208D90022054B1A700024D5
S3151000210004E01C1C02E0002400E00024201C38BD62
S31510002110F10B0020AC0B0020F40B0020F00B00207C
S3151000212008B500F0B7F8FCE708B500F0ABF80128E1
S3151000213010D0094B1B78012B0CD1FFF717FF074B5B
S315100021401B68F533FF33984204D30022024B1A70F2
S31510002150FFF7C2FC08BDC046F80B0020FC0B0020A0
S3151000216008B50122044B1A70FFF700FF034B1860E5
S31510002170FFF7DAFF08BDC046F80B0020FC0B002065
S3151000218008B5FFF7A5FC00F081F8FFF7CDFEFFF7C5
S31510002190A9FE00F00DF8FFF7E3FF08BD08B500F043
S315100021A079F8FFF7D5FE00F013F8FFF7BDFF08BD6D
S315100021B010B500F0E5F9FFF795FB044C01232370E9
S315100021C0FFF70AFF0023237010BDC04650090020F8
S315100021D008B50B48FFF756FC012805D10122094B1B
S315100021E01A70074800F0EAF90548FFF747FF01287B
S315100021F005D10022034B1A70014800F0DFF908BD23
S31510002200000C0020500900207047C04638B5051C48
S315100022100C1C094B1B78012B02D1C9B2FFF710FC1D
S31510002220054B1B78002B03D1E1B2281CFFF7FEFEED
S3151000223000F0BCF938BDC04650090020074B1B788A
S31510002240022B05D0032B05D0012B05D0402004E02E
S31510002250002002E0002000E008207047500900200E
S31510002260074B1B78022B05D0032B05D0012B05D06D
S31510002270402004E0002002E0002000E00820704723
S315100022805009002008B500F089F908BD08B500F01E
S31510002290F7F908BD08B500F0F9F908BD10B5002327
S315100022A004E00178CB18DBB20130211C4C1E00294A
S315100022B0F7D11360012010BD0022014B5A707047F0
S315100022C0400C0020034BFE22DA7018710221BA3A34
S315100022D099527047400C002010B5054C002323700E
S315100022E0FFF7EAFFFF23E3700122BB3BE25210BD6A
S315100022F0400C0020064BFF22DA7000221A71597822
S3151000230059719A71DA711A720621443299527047CC
S31510002310400C002008B50020FFF7D4FF08BDC046CA
S31510002320094BFF22DA70094A9A6400221A715A710F
S315100023309A710721D971002119725972997208314F
S31510002340442299527047C046400C0020482B00107A
S31510002350044BFF22DA7042689A6401214422995292
S315100023607047C046400C002010B5084CFF23E370A0
S315100023704168E21DA06CFFF791FF20710023637185
S31510002380A37108224433E25210BDC046400C00200F
S3151000239008B53120FFF796FF08BDC04638B5084C82
S315100023A0FF23E370002525716571FFF747FFA071C4
S315100023B0E5712572657207224423E25238BDC04684
S315100023C0400C002038B5FFF777FF0D4C012525701E
S315100023D0FF23E370EF3B237100236371FFF72EFF9A
S315100023E0A071FFF73DFFE071FFF73AFF000A207278
S315100023F06572A57208224423E252FFF773FD38BDB9
S31510002400400C002038B5051C4478FFF717FF01383B
S31510002410844203DD2220FFF755FF10E0084C201DF3
S315100024206A78A16CFFF76CFBFF23E3706B78A26CE4
S3151000243094466344A3646B7801334422A35238BD97
S31510002440400C002038B5041C4578FFF7F7FE01381C
S31510002450854203DD2220FFF735FF11E06168094D43
S31510002460A964281D6278FFF74BFBFF23EB70637896
S31510002470AA6C94466344AB64637801334422AB522E
S3151000248038BDC046400C002038B5041C0E4B9D6C60
S31510002490FFF7D4FE411E621C281CFFF727FD0028FB
S315100024A003D13130FFF70EFF0CE0074CFF23E3702A
S315100024B0FFF7C4FE0138A36C9C466044A064012259
S315100024C04423E25238BDC046400C002038B5041CE7
S315100024D04578FFF7B3FE0238854203DD2220FFF769
S315100024E0F1FE21E0114BFF22DA700121BB3A99521D
S315100024F06178002907D1FFF709FD002814D1313082
S31510002500FFF7E0FE10E0094B986CA21CFFF7EEFCFB
S31510002510002803D13130FFF7D5FE05E06378034A72
S31510002520916C8C466344936438BDC046400C0020C1
S3151000253008B5094B9B6C4168181CFFF7DBFC00289B
S3151000254003D13130FFF7BEFE05E0034BFF22DA70F0
S315100025500121BB3A995208BD400C002008B5FFF77F
S31510002560BBFA034BFF22DA700121BB3A995208BD20
S31510002570400C002008B589B2FFF748FE08BDC046DA
S31510002580054B00221A709A6443215A5401315A524B
S315100025909A705A707047C046400C0020024B18784B
S315100025A0002800D001207047400C00200021432352
S315100025B0014AD1547047C046400C002008B5037834
S315100025C0FF2B02D1FFF7FEFE38E0284A1278012AC7
S315100025D04AD13733DAB2352A2DD89300244AD35844
S315100025E09F46FFF70FFF29E0FFF72CFF26E0FFF7C6
S315100025F0AFFE23E0FFF7B8FE20E0FFF791FE1DE0E7
S31510002600FFF788FE1AE0FFF775FE17E0FFF764FE86
S3151000261014E0FFF739FF11E0FFF758FF0EE0FFF760
S31510002620BDFE0BE0FFF784FF08E0FFF797FF05E01C
S31510002630FFF7AEFE02E02020FFF744FE43230B4ACD
S31510002640D35C012B02D11020FFF73CFE4423074A2E
S31510002650D15A0BB2002B07DD101C01224323C254A2
S31510002660033009B2FFF786FF08BDC046400C0020B4
S31510002670702A001008B500F049F8012008BDC046C0
S3151000268008B5642000F006F808BDC04608B500F08D
S3151000269013F808BD38B5051C054C201C00218022F6
S315100026A0FEF7D6FF01236360024B1D8038BDC0467E
S315100026B0000404408E0C002008B5FFF757FC0F4BA2
S315100026C01B68984218D30E4B1B78002B07D101229A
S315100026D00B4B1A70802252020A4B5A6005E00022F8
S315100026E0074B1A700132074B5A60FFF73FFC064B37
S315100026F01B88C018014B186008BDC046900C0020FE
S315100027008C0C0020000404408E0C00200122014B8A
S315100027105A6070470004044030B589B006AA0025F7
S315100027201570194C201C0321FEF762FD04AA9C2388
S315100027301370201C0221FEF75BFD144BDA69502141
S315100027408A43DA61DA690724A243DA6102AA1570AC
S315100027500F4D281C4839FEF74BFDA4236A4613700B
S31510002760281C0921FEF744FD0A4B1A684020024333
S315100027701A60DA68A24302210A43DA601A688243B1
S315100027801A6009B030BDC04600010440000200487E
S31510002790000404400003045008B5FFF7F1FCFFF7EE
S315100027A0BBFFFFF7FBFCFCE70E4B70B500251E1CAC
S315100027B00D4CE41AA410A54204D0AB00F358984768
S315100027C00135F8E7FFF788F8084B00251E1C084C62
S315100027D0E41AA410A54204D0AB00F358984701356B
S315100027E0F8E770BD54090020540900205409002050
S315100027F054090020003000100010000003000000F3
S3151000280000400010001000000400000000500010EE
S31510002810001000000500000000600010001000000D
S3151000282006000000007000100010000007000000F5
S31510002830008000100010000008000000009000103A
S31510002840001000000900000000A000100010000099
S315100028500A00000000B00010001000000B0000007D
S3151000286000C00010001000000C00000000D0001086
S31510002870001000000D00000000E000100010000025
S315100028800E00000000F00010001000000F00000005
S3151000289000000110001000001000000000100110D0
S315100028A000100000110000000020011000100000B0
S315100028B0120000000030011000100000130000008C
S315100028C0004001100010000014000000005001101C
S315100028D0001000001500000000600110001000003C
S315100028E01600000000700110001000001700000014
S315100028F00080011000100000180000000090011068
S31510002900001000001900000000A0011000100000C7
S315100029101A00000000B00110001000001B0000009B
S3151000292000C00110001000001C00000000D00110B3
S31510002930001000001D00000000E001100010000053
S315100029401E00000000F00110001000001F00000023
S3151000295000000210001000002000000000100210FD
S3151000296000100000210000000020021000100000DE
S3151000297022000000003002100010000023000000AA
S315100029800040021000100000240000000050021049
S31510002990001000002500000000600210001000006A
S315100029A02600000000700210001000002700000032
S315100029B00080021000100000280000000090021095
S315100029C0001000002900000000A0021000100000F6
S315100029D02A00000000B00210001000002B000000BA
S315100029E000C00210001000002C00000000D00210E1
S315100029F0001000002D00000000E002100010000082
S31510002A002E00000000F00210001000002F00000041
S31510002A10000003100010000030000000001003102A
S31510002A20001000003100000000200310001000000C
S31510002A3032000000433A2F576F726B2F736F667414
S31510002A40776172652F4F70656E424C542F546172C8
S31510002A506765742F536F757263652F41524D434DE1
S31510002A60305F584D43312F756172742E630000002C
S31510002A7012260010362600103626001030260010BA
S31510002A8036260010362600102A26001018260010AA
S31510002A90242600101E26001036260010362600109A
S31510002AA03626001036260010362600103626001060
S31510002AB03626001036260010362600103626001050
S31510002AC03626001036260010362600103626001040
S31510002AD03626001036260010362600103626001030
S31510002AE03626001036260010362600103626001020
S31510002AF03626001036260010362600103626001010
S31510002B0036260010362600103626001036260010FF
S31510002B103626001036260010F4250010E825001081
S31510002B20E2250010EE25001036260010362600107D
S31510002B3036260010FA250010362600100026001042
S31510002B40062600100C2600104F70656E424C54007D
S31510002B502C480047000000000000000000000000A4
S31510002B60000000000000000000000000000000004F
S31510002B7025480047000000000000000023480047D9
S31510002B802348004723480047234800472348004767
S31510002B902348004723480047234800472348004757
S31510002BA02348004723480047234800472348004747
S31510002BB02348004723480047234800472348004737
S31510002BC02348004723480047234800472348004727
S31510002BD02348004723480047234800472348004717
S31510002BE02348004723480047234800472348004707
S31510002BF023480047234800472348004723480047F7
S31510002C0023480047991000109910001099100010D1
S31510002C1099100010991000109910001099100010BA
S31510002C2099100010991000109910001099100010AA
S31510002C30991000109910001099100010991000109A
S31510002C40991000109910001099100010991000108A
S31510002C50991000109910001099100010991000107A
S31510002C60991000109910001099100010991000106A
S31510002C70991000109910001099100010991000105A
S31510002C80991000109910001099100010991000104A
S30910002C909910001071
S30910002C940400000022
S70510001019C1
