S02B0000433A2F576F726B2F736F6674776172652F4F70656E424C542F5461726765742F44656D6F2F41524DEF
S1130000740700207B0100006514000065140000E3
S113001065140000651400006514000065140000F8
S113002065140000651400006514000065140000E8
S113003065140000651400006514000065140000D8
S113004065140000651400006514000065140000C8
S113005065140000651400006514000065140000B8
S113006065140000651400006514000065140000A8
S11300706514000065140000651400006514000098
S11300806514000065140000651400006514000088
S11300906514000065140000651400006514000078
S11300A06514000065140000651400006514000068
S11300B06514000065140000651400006514000058
S11300C06514000065140000651400006514000048
S11300D06514000065140000651400006514000038
S11300E06514000065140000651400006514000028
S11300F072B64B484B4901604B498D464B484C49BD
S11301004C4A00F07BF84C484C494D4A00F076F8D4
S11301104C484D494D4A00F071F84D484D494E4AFE
S113012000F06CF84D484E494E4A00F067F84E48CE
S11301304E494F4A00F062F84E484F49002200F001
S113014068F84E484E49091A082903DB0022026068
S1130150043001603F484049884205D002680430B9
S113016003B4904703BCF7E700208646EC4601F051
S113017067FD00200021434A904772B62A498D4604
S11301802A482B492B4A00F039F82B482B492C4A92
S113019000F034F82B482C492C4A00F02FF82C4856
S11301A02C492D4A00F02AF82C482D492D4A00F0FC
S11301B025F82D482D492E4A00F020F82D482E49C7
S11301C0002200F026F82D482D49091A082903DBDE
S11301D000220260043001601E481F49884205D095
S11301E00268043003B4904703BCF7E70020864656
S11301F0EC4600200021234A9047FEE7884207D0BE
S1130200521A05D0037801300B700131013AF9D14B
S11302107047884202D002700130FAE7704700004C
S113022008ED00E00000000074070020082400002E
S11302300000002004000020880200008802000062
S1130240C01E000008240000000000200000002060
S1130250C01E0000C01E0000C01E0000C01E000022
S1130260C01E0000C01E0000C01E0000C01E000012
S11302700724000004000020F4040020F4040020FB
S10B02807405002025140000A0
S1130288A0F58013013B012B40F28780454B98422F
S113029800F0838003F5807398427ED003F50073E1
S11302A898427AD0404B984277D003F580739842AD
S11302B873D003F5007398426FD003F570539842D6
S11302C86BD003F11023984267D0384B984264D01E
S11302D80133984261D0023398425ED00433984285
S11302E85BD00833984258D01033984255D0203305
S11302F8984252D0403398424FD0803398424CD0E1
S113030840284AD0B0F1102F47D0294B984244D006
S113031803F57D23984240D0264B98423DD0264B86
S113032898423AD0703B984237D0B0F1101F34D07D
S1130338224B984231D003F5807398422DD0A3F50F
S1130348F873984229D01033984226D003F1005309
S1130358984222D01A4B98421FD0013398421CD09D
S11303680233984219D00433984216D0154B984258
S113037813D00133984210D0023398420DD0B0F113
S1130388202F0AD0104B984207D0082807D00F4BCB
S1130398C31A584240EB03007047012070470120FC
S11303A8704700BF00011000000110100100002078
S11303B800400010000110208000003000010010EF
S11303C8010010100100001001001020001010009E
S11303D810B50446FFF754FF20B909484FF4FC71DF
S11303E801F06AFB220FA1B2C4F3044401FA04F435
S11303F8044B53F822301A6814431C6010BD00BF24
S11304081C1F0000881F00000138FDD17047000040
S1130418444B70B51A68044612F0E04F05D01A68C8
S1130428414B1340B3F1805F01D1002C79DB3F4984
S11304383F4A0B68166843F4006323F4800546F4C6
S113044800669B070D60166001D5A00703D5E90770
S113045819D5E20717D464F003031D40334B002E6B
S11304681D6005DA06F07003302B05D0702B02E00E
S113047805F03003302B02D14FF4805001E04FF4E3
S11304880020FFF7C1FF25F45E5543F2F0732340C3
S113049825F070051D43274B274A3340274E40213A
S11304A826401E4304F0080356EAC306204B116095
S11304B802F108024BBF1E60156015601E60102013
S11304C8FFF7A2FF1E4B25F0F865234025F003052E
S11304D81D4326F0FC5604F0FC531E43630007D565
S11304E8184B26F48006234045F480051E4301E09A
S11304F826F0804620050BD4134A4FF400431168B4
S1130508490601D4013BFAD125F4006526F40066B6
S1130518064B10201D6010331E60BDE87040FFF7C5
S113052873BF70BD00E00F400000FF7060E00F4033
S113053870E00F408FDFFF7F58E00F4030200080CD
S11305480300C0070000404050E00F40624B70B504
S11305581A6810331B68002BB4BF03F0700102F053
S11305683001202936D004D869B1102940F0B1806F
S11305780FE0602956D0702951D0302940F0A98065
S113058847F230505CE05549C2F3841051F820001A
S113059856E05349086810F0E04F46D00C685148BB
S11305A82040B0F1805F40D00C684E4820404E4C4B
S11305B8A04203D1096889B2022938D04848494978
S11305C804682140494CA14233D10068484980B2AB
S11305D8484C1FE04249086810F0E04F2BD00C68E3
S11305E840482040B0F1805F25D00C683D48204049
S11305F83D4CA04203D1096889B202291DD038486C
S1130608384904682140394CA14218D100683A4954
S11306183A4C80B200280CBF2046084610E04FF43C
S113062800400DE04FF480000AE0354808E0314806
S113063806E02F4804E0334802E0304800E02E4842
S1130648002B02DA13F4006F01E012F4006F28D1D2
S11306582D49234D09682C6814F0E04F43F6E074E3
S113066801EA04044FEA541405D02E681D4D3540A0
S1130678B5F1805F05D1023401F01F0560430235EE
S113068804E0604301F01F0501356D00B0FBF5F08F
S113069811F4804F18BF4008090448BF800842F489
S11306A88002510216D5002B0DDA590005D51A051A
S11306B803D44000C3F3865301E0C3F3C5530133A5
S11306C8B0FBF3F070BDC2F3C3520132B0FBF2F0D9
S11306D870BD002070BD00BF60E00F40C01E000068
S11306E800E00F400000FF7000000110000003103C
S11306F80024F400001BB70000093D00C0C62D000B
S1130708C0E1E4007038390064E00F40462810B5B1
S1130718044605D91A484FF4D57101F0CDF90DE016
S1130728042804D1174B1A6842F4803213E00528D0
S113073804D1144B1A6842F400320CE0062C04D19C
S1130748104B1A6842F4802205E00F2C05D10E4B99
S11307581A6842F002021A6010BDA4F110031F2B9C
S113076805D8012202FA03F3084A136010BD2F2C9E
S113077805D90123303C03FA04F4054B1C6010BD71
S1130788941F000024ED00E010E000E000E100E028
S113079804E100E0462810B5044605D91A484FF488
S11307A8F77101F089F90DE0042804D1174B1A6890
S11307B822F4803213E0052804D1144B1A6822F479
S11307C800320CE0062C04D1104B1A6822F4802263
S11307D805E00F2C05D10E4B1A6822F002021A60AC
S11307E810BDA4F110031F2B05D8012202FA03F34C
S11307F8084A136010BD2F2C05D90123303C03FA95
S113080804F4054B1C6010BD941F000024ED00E0A7
S113081810E000E080E100E084E100E0B0F1402F66
S113082845D0254B984242D0A3F5A62398423ED002
S113083803F5A82398423AD0A3F5A623984236D0C4
S113084803F5A823984232D0A3F5A62398422ED0C4
S113085803F5A82398422AD0A3F55C33984226D0FE
S113086803F56033984222D0A3F55C3398421ED036
S113087803F5603398421AD0A3F55C33984216D036
S113088803F56033984212D0A3F55C3398420ED036
S113089803F5603398420AD0A3F50833984208D088
S11308A803F50C33C31A584240EB03007047012088
S11308B870470120704700BF0080054070B50446AA
S11308C81646CDB2FFF7AAFF18B91048E42101F083
S11308D8F3F8022E03D90D48E62101F0EDF8D4F817
S11308E8003416F0010F14BF2B43AB4304F58062A8
S11308F81360D4F8202416F0020F04F5846314BF9F
S1130908154322EA05051D6070BD00BF02200000E2
S1130918F0B5044615461F46CEB2FFF77FFF20B94F
S113092842484FF4DD7101F0C7F86B1E012B08D95A
S1130938042D06D00C2D04D03C484FF4DF7101F08F
S1130948BBF8082F0FD00A2F0DD00C2F0BD0092F6E
S113095809D00B2F07D00D2F05D027B1334840F20B
S1130968C51101F0A9F8D4F8003515F0010F14BF2A
S11309783343B34304F5A0621360D4F8042515F097
S1130988020F04F5A06314BF3243B24303F1040316
S11309981A60D4F8083515F0040F14BF3343B34371
S11309A804F5A1621360D4F8183515F0080F14BFC4
S11309B83343B34304F5A3621360D4F80C2517F04A
S11309C8010F04F5A06314BF3243B24303F10C03CF
S11309D81A60D4F8103517F0020F14BF3343B34329
S11309E804F5A2621360D4F8142517F0040F04F573
S11309F8A26314BF3243B24303F104031A60D4F868
S1130A081C2517F0080F04F5A26303F10C0314BFA7
S1130A183243B2431A60D4F8282504F5A5630FB904
S1130A28164301E022EA06061E60F0BD022000001B
S1130A3830B50446CDB2FFF7F1FE20B908484FF4AB
S1130A48647101F039F8204629460222FFF736FF7F
S1130A582046294604220823BDE83040FFF758BF42
S1130A680220000030B50446CDB2FFF7D7FE20B906
S1130A78084840F21F5101F01FF820462946022277
S1130A88FFF71CFF2046294601220823BDE8304011
S1130A98FFF73EBF02200000830510B5044603D0CB
S1130AA80B48842101F008F80A4B01221A6043F824
S1130AB8144C094A143B08331A601A689207FCD488
S1130AC8064B186810F0010018BF4FF0FF3010BD36
S1130AD86B20000014D00F40020042A40CD00F4039
S1130AE82DE9F041054688070C46164603D02848E8
S1130AF8C82100F0E1FFB10703D02548C92100F05F
S1130B08DBFF244B01221A60234B1B68DA071ED42F
S1130B18224B234F234824491A462EE024F07F030E
S1130B28CCF8003007E0214B0434434455F8048BD7
S1130B38043EC3F8008014F07C0801D13B680BB96B
S1130B48002EF0D110600B68DB07FCD405E0184ACE
S1130B58DFF84CC0174F14481146002EDED10EE0C2
S1130B683C6055F804CBC0F800C01960D2F800C046
S1130B781CF0010FFAD10434043E002EF0D10E4BC0
S1130B88186810F0010018BF4FF0FF30BDE8F0817D
S1130B986B20000014D00F40A0E10F4008D00F4094
S1130BA800D00F4004D00F40010042A400D10F40F0
S1130BB820D00F4030D00F400CD00F40084B984243
S1130BC80AD003F58053984208D003F58053C31A1A
S1130BD8584240EB030070470120704701207047DA
S1130BE800C0004010B50446FFF7E8FF20B90848E4
S1130BF84FF4CF7100F060FFE36A43F01003E3623F
S1130C08236B43F4407343F00103236310BD00BF17
S1130C18D820000010B50446FFF7D0FF20B90948D2
S1130C284FF4DF7100F048FFA3691907FCD4E36AA5
S1130C3823F01003E362236B23F4407323F00103CE
S1130C48236310BDD8200000F0B504460D461646AF
S1130C581F46FFF7B3FF20B92C4840F20D1100F0EE
S1130C682BFF26B929484FF4877100F025FF284B3C
S1130C781A6812F0E04F1DD01968264A0A40B2F1EA
S1130C88805F17D01968234A0A4023498A4203D14E
S1130C981B689BB2022B0DD01D4A1E4B11680B40DA
S1130CA81E498B4208D113689BB2002B0CBF10233A
S1130CB8082302E0102300E0082373439D4204D272
S1130CC8124840F20F1100F0F7FE2046FFF7A2FF8A
S1130CD8B5EB061F236B04D243F020032363760885
S1130CE802E023F020032363ED00B5FBF6F601369A
S1130CF8F3096362C6F3450600232046A662E76249
S1130D08A361BDE8F040FFF76DBF00BFD820000025
S1130D1800E00F400000FF70000001100000031005
S1130D2810B50446FFF74AFF20B9064840F2E931F6
S1130D3800F0C2FEA36913F0200F14BF00200120A5
S1130D4810BD00BFD820000010B50446FFF736FFD9
S1130D5820B9064840F2094100F0AEFEA369D8065E
S1130D6854BF20684FF0FF3010BD00BFD8200000EA
S1130D7830B50446CDB2FFF721FF20B9064840F24A
S1130D885B4100F099FEA3699A0602D4256001200C
S1130D9830BD002030BD00BFD8200000084B984269
S1130DA80AD003F58053984208D003F58053C31A38
S1130DB8584240EB030070470120704701207047F8
S1130DC800000440094B98420DD003F58053984223
S1130DD807D0A3F5005398420CBF37204FF0FF30DB
S1130DE87047392070473820704700BF001004400E
S1130DF881B00160002301E0009B01330093009B54
S1130E08042BF9DD01B0704771B5054620F47E6006
S1130E1820F01F00FFF7D6FF421C044603D11048F8
S1130E28F92100F049FE0126A4F1300206FA02F67F
S1130E380C4B1B681E4002D02046FFF7ABFC2B6806
S1130E48002301E0009B01330093009B042BF9DD90
S1130E582D6816B12046FFF759FC284678BD00BF17
S1130E684421000004E100E0F0B50446FFF796FFD2
S1130E7820B9224840F2D91100F01EFE2046012173
S1130E88FFF7B6FF04F120052846FFF7BDFF10F46D
S1130E980046F9D104F124073846B021FFF7A8FF2A
S1130EA8314604F13400FFF7A3FF314604F138005A
S1130EB8FFF79EFF01262846FFF7A6FF0004FAD491
S1130EC8314628460136FFF793FF212EF3D13846E1
S1130ED80C21FFF78DFF01262846FFF795FF010433
S1130EE8FAD4314628460136FFF782FF212EF3D182
S1130EF8201DBDE8F040FFF787BF00BF4421000074
S1130F0810B50446FFF74AFF20B9074840F23A21D2
S1130F1800F0D2FD2046FFF777FF20F001012046BC
S1130F28BDE81040FFF764BF4421000070B50546D2
S1130F380C46FFF733FF20B932484FF4597100F0DB
S1130F48BBFD24B92F4840F2653100F0B5FD236894
S1130F58023B0E2B04D92B4840F26B3100F0ACFD58
S1130F686368013B072B04D926484FF45C7100F0F1
S1130F78A3FDA368013B032B04D9224840F2753131
S1130F8800F09AFDE368013BB3F5806F04D31D4874
S1130F9840F27B3100F090FD2846FFF735FF064606
S1130FA840F041012846FFF723FF616823680139AF
S1130FB8013B09031B0203F4706301F4E041194384
S1130FC8E36805F10C00013B03F03F031943A368F0
S1130FD8013B9B01DBB21943FFF70AFFE16805F106
S1130FE818000139C1F38311FFF702FFF30726F054
S1130FF84001284648BF26F04101BDE87040FFF78C
S1131008F7BE00BF4421000030B504460D46FFF783
S1131018C5FE20B91A4840F2925100F04DFD032D47
S11310282AD8DFE805F0020D151D04342046FFF721
S1131038EBFE6FF01F0105462046FFF7D9FE1CE0C2
S113104804F58070FFF7E0FE054604F582700EE0B3
S113105804F59070FFF7D8FE054604F5927006E093
S113106804F5B070FFF7D0FE054604F5B270FFF73B
S1131078CBFE45EA004500E00025284630BD00BF08
S1131088442100002DE9F04F85B00446039115462C
S11310981E46FFF783FE20B9704840F25F6100F0F6
S11310A80BFD039A531E1F2B04D96C484FF4CC61D3
S11310B800F002FD042E04D9684840F2666100F08D
S11310C8FBFC04F1200304930498FFF79DFE03043A
S11310D8FAD42968B1F5006F3ABFAA68C2F380024E
S11310E80122042E00F2B780DFE806F0031E070A87
S11310F8160001234FF4807711E000231F4616E001
S113110800234FF480574FF4005E41F6FF764FF604
S1131118FF784FF0D30C0FE001234FF490570026CB
S11311284FF4005EB04605E000234FF480779E46F6
S11311381E4698464FF0930CA86810F0080F09D083
S11311486E6822B11FFA86F8C6F30C4602E07605EB
S1131158F60C904600F02809B9F1280F00F0180998
S113116808BF46F40046B9F1180F08BF46F4804694
S113117810F0380F1CBF4FF0D30C47F480574CF0D5
S1131188200C4AB18AB2C1F30C4141F4404141EA0E
S11311980E010192029107E049054EEAD14E4EF440
S11311A8004ECDF808E00192D5F80CA081050AF0AC
S11311B80F0247EA02075CBF47F08007BFB2C207C5
S11311C848BF47F40067800748BF47F48067DBB12E
S11311D8D5F810B004F13C09002313E05D1C554513
S11311E81BF8031004DA1BF805209D1C41EA0221B0
S11311F84846CDF800C0FFF7FBFDDDF800C009F153
S113120804092B465345E9DB614604F12400FFF742
S1131218EFFD04F128004146FFF7EAFD04F12C0034
S11312283146FFF7E5FD04F130000199FFF7E0FDD1
S113123804F134000299FFF7DBFD04F13800394664
S1131248FFF7D6FD039B049803F03F0105B0BDE802
S1131258F04FFFF7CDBD05B0BDE8F08F4421000085
S11312682DE9F34F04460D461646DFB2FFF796FD07
S113127820B9694840F2C17100F01EFC6B1E1F2B97
S113128804D9654840F2C27100F016FC04F18408E0
S1131298002F14BF7B217321404604F1800705F019
S11312A83F05FFF7A5FD38462946FFF7A1FD384657
S11312B8FFF7AAFD10F40042F9D104F18800009266
S11312C8FFF7A2FD834604F18C00FFF79DFD8246DB
S11312D804F19000FFF798FD034604F1940001938C
S11312E8FFF792FD1FFA80F904F19800FFF78CFDCF
S11312F8009A80B210F4807FB260019B09F4005216
S113130801D10AB902E00AB94022B26019F4804254
S11313184FEAC9494FEAD94908D09BB243EA09437D
S11313283360B36843F00403B36002E04FEAA903EF
S11313383360410403D5B36843F48073B360C304D2
S113134828D51FFA8AFA4FEACA43DB0C3AB11FFAC6
S11313588BFB4BEA034373606FF0604203E09B101E
S1131368736040F2FF72934202D1B368590603D402
S1131378B36843F00803B3601AF4004F03D0B368AA
S113138843F02803B3601AF4804F03D0B36843F0E2
S11313981803B360020503D5B36843F00103B360CF
S11313A8430503D5B36843F00203B36001042FD5A2
S11313B8B36800F00F0A13F04009C6F80CA015D161
S11313C8D6F810B09C340FE02046FFF71DFD09F154
S11313D80103043453450BF8090004DA000A0BF836
S11313E8030009F102039946D145EDDB4046042187
S11313F8FFF7FEFC38462946FFF7FAFC3846FFF7A4
S113140803FD0204FAD4B36843F08003B36001E037
S11314180023F360BDE8FC8F4421000000B50B48AD
S1131428FEF7F6FF0A48FEF7D3FF03214FF04020EA
S1131438FFF718FB0748FEF7CBFF07480321FFF720
S1131448F7FA00F071FB00F07CFBFCE78003C001B5
S113145801000020080000200070004001483D21E0
S113146800F02ABBAF21000000B500F0D1F958B153
S113147800F0AEFB00F0E8F9044B4FF480421A6028
S113148844F204031B6898475DF804FB08ED00E088
S113149870B50C4695B2064607E014F8013B013DC9
S11314A806F8013B00F0D1FBADB2002DF5D170BDBB
S11314B8FEF75FBE70B50C4D0646002400F0C5FB70
S11314C82B689E4209D36A689B189E4205D2064B34
S11314D80C2202FB0434207A70BD01340C35122C22
S11314E8ECD1FF2070BD00BF342200002DE9F1418A
S11314F805460068FFF7DEFFFF2818D000242F6890
S1131508261DAB5904EB0708009300F09EFB6846C0
S113151841460422FFF7E4FA48B9E259009B9A428B
S113152806D1B6F5007F3446E9D1012000E0002059
S1131538BDE8F881114B30B5984204460D4606D0F3
S1131548B1F5804F05D0FFF7D1FF18B910E00C4C66
S113155800E01C46EB050DD12368AB420BD02046B6
S113156840F8045B29464FF40072FFF791FF02E04C
S1131578044600E00024204630BD00BF04000020DB
S1131588080200202DE9F0439846036821F4FE7709
S1131598013304460D46164627F0030706D140F8E2
S11315A8047B39464FF40072FFF772FF2368BB428D
S11315B805D020463946FFF7BDFF0446F0B123683D
S11315C840F2FF19ED1A0435651907F5007700F0A4
S11315D83CFB231DEB1A4B4506D920463946FFF739
S11315E8A9FF044660B1051D16F8013BB8F10108CE
S11315F805F8013BEBD10120BDE8F083BDE8F08399
S1131608BDE8F083034A4FF0FF331360024A1360C6
S1131618704700BF080200200400002070B504468B
S11316280D461646FFF746FFFF2815D0601E4019E1
S1131638FFF740FFFF280FD024F4FE7323F00303C1
S1131648B3F5804F0CBF05480548214632462B4662
S1131658BDE87040FFF796BF002070BD040000206D
S1131668080200202DE9F0410E460446FFF722FF48
S1131678013C0546A019FFF71DFFFF2D074659D069
S1131688FF285AD0854255D8012D53D9132851D84B
S11316982B4E0024B04600F0D8FA98F80830AB4234
S11316A804D10C235C43264B1C5906E00134122C4C
S11316B808F10C08EFD14FF0FF34DFF884800025DF
S11316C800F0C3FA98F80830BB4205D10C235D43F7
S11316D81B4B53F8058006E00135122D08F10C0860
S11316E8EED14FF0FF38002500F0AFFA337ABB4251
S11316F805D1134B0C2202FB05356B6804E0013558
S11317080C36122DF0D10023C4EB0806F618C6F3E4
S11317188F26002509E000F098FA2046FFF7BCF967
S113172804F5806430B90135ADB2B542F3D3012074
S1131738BDE8F0810020BDE8F0810020BDE8F0811B
S1131748342200000F4B01B51A68013217D05A68C9
S1131758996844F2F0008918DA6889181A698918AE
S11317685A6989189A698918DA698B185B4201AA37
S113177842F8043D04216A46FFF750FF00E00120C7
S113178808BD00BF0400002044F2040318684FF4A5
S113179880431B68C01844F208031B68C01844F24D
S11317A80C031B68C01844F210031B68C01844F2E9
S11317B814031B68C01844F218031B68C01844F2C9
S11317C8F0031B68C018D0F1010038BF002070472F
S11317D80A4800B50368013302D0FFF787FE58B101
S11317E807480368013306D0FFF780FE003018BFAE
S11317F801205DF804FB01205DF804FB04000020CF
S113180808020020FFF7FEBEFFF708BFFFF72ABF54
S1131818FFF7BABF00B5FFF795FF18B15DF804EB01
S1131828FFF7D6BF5DF804FB054B00224CF24F319D
S11318381A60596005219A601960024B1A60704752
S113184810E000E00C040020014B00221A607047ED
S113185810E000E0044B1B68DB0303D5034B1A6854
S113186801321A60704700BF10E000E00C04002049
S113187800B5FFF7EFFF024B18685DF804FB00BFE3
S11318880C04002000B50748FEF7A2FDFEF75EFE33
S1131898014605484FF4614260235DF804EBFFF705
S11318A8D3B900BF0100001000C0004070B5CDB22C
S11318B8402D064603D91848572100F0FDF817486B
S11318C82946FFF755FA40B101E000F0BEF9134884
S11318D8FFF726FA0028F8D003E00F485B2100F050
S11318E8EBF8002414E000F0B0F9315D0B48FFF781
S11318F83FFA40B101E000F0A8F90848FFF710FAF0
S11319080028F8D003E00448642100F0D5F8013435
S1131918A3B2AB42E7D370BD0C23000000C0004063
S1131928F0B5174C064625785DB91648FFF70CFA4A
S1131938421C1FD0144B187001232370134B1D70C5
S113194818E0124D0F482F78FFF7FEF9431C13D007
S11319580D492B78CF19787001330A78DBB29A4293
S11319682B700BD130460131FFF792FD0023237011
S11319780120F0BD2846F0BD0020F0BD0020F0BDD8
S11319885204002000C0004010040020510400202C
S113199870B5264889B0FEF71BFD2548FFF764FAA1
S11319A804230793102340F2A4601C4608225D1CFC
S11319B81AE0A918B0FBF1F6413EF6B20A2E12D885
S11319C8B4FBF1F64E43102E0DD1032A059398BFAC
S11319D807921023B3FBF1F10891154805A9069263
S11319E8FFF7A4FA06E0013A002AE2D16438013B81
S11319F8DCD113E00E48FFF783FA40F267630093E3
S1131A0803F5CC7301930823029303930848012137
S1131A186A460223FFF736FB09B070BD05489021DA
S1131A280693059300F048F8E4E700BF00011000AE
S1131A38000004408323000030B5044685B0CDB2CD
S1131A4810480121FFF7E0FA820703D50E48AB21BD
S1131A5800F032F840F2E17300930A4800230221AF
S1131A686A46029303950494FFF70CFB0121054889
S1131A78FFF7CAFA044600F0E8F8A307F6D405B05D
S1131A8830BD00BF000004408323000010B50221CC
S1131A9885B004460748FFF7B7FA10F0010007D0ED
S1131AA8012104486A460B460494FFF7D9FB012038
S1131AB805B010BD00000440034B00B51860034B8B
S1131AC8196000F0C2F8FCE7540400205804002010
S1131AD810B500F0B7F8012810D0094C2378012B71
S1131AE80CD1FFF7C5FE074B1B683233984205D368
S1131AF800232370BDE81040FFF7B6BC10BD00BF3B
S1131B085C04002060040020054B012200B51A7013
S1131B18FFF7AEFE034B18605DF804EBFFF7D8BF80
S1131B285C0400206004002000B500F08DF8FFF785
S1131B387BFEFFF767FE00F00FF85DF804EBFFF794
S1131B48E3BF00B500F081F8FFF784FE00F022F847
S1131B585DF804EBFFF7BCBF31B5FF2300250B4C40
S1131B688DF800308DF8015000F07AF8FFF710FF77
S1131B7801232360FFF786FE054B25601B78012BA4
S1131B8802D1684600F08AF838BD00BF0000002082
S1131B986404002000B50C48FFF778FF012804D13D
S1131BA80A4B1860084800F079F80748FFF7B8FEB0
S1131BB8012807D1054B044800221A605DF804EB9C
S1131BC800F06CB85DF804FB6504002000000020F8
S1131BD87047000070B5094E044633688DB2012B76
S1131BE802D1E9B2FFF728FF33681BB9E9B22046EE
S1131BF8FFF75CFEBDE8704000F048B80000002024
S1131C08044B1B68013B022B9ABF034AD05C40205B
S1131C18704700BF00000020F9230000044B1B6834
S1131C28013B022B9ABF034AD05C4020704700BF97
S1131C3800000020FC230000014B01221A707047A9
S1131C486404002000F01AB870477047034BFE2262
S1131C58DA7002221871A3F844207047A8040020FF
S1131C68054B00221A709A6483F84320A3F8442091
S1131C789A705A70704700BFA8040020024B187865
S1131C88003018BF01207047A8040020024B00222E
S1131C9883F84320704700BFA8040020F0B50378F8
S1131CA80546FF2B824C14D100220125E370102332
S1131CB86270237162712570FFF7A2FFA071FFF7AC
S1131CC8ADFFE071FFF7AAFF000A20726572A572E2
S1131CD872E02678012E40F0EA80F32B46D012D821
S1131CE8CF2B00F0C18005D8C92B78D0CC2B40F07D
S1131CF8C480C0E0D12B00F0B180C0F08380D22B27
S1131D0840F0BB809BE0FA2B49D006D8F52B0CD0C9
S1131D1813D3F62B40F0B18023E0FD2B50D0FE2BDB
S1131D2859D0FC2B40F0A98048E0FFF769FF6A7896
S1131D3890426DDD201DA16C08E0FFF761FF6B7810
S1131D48984265DD6968201DA1646A78FFF7A0FBE5
S1131D58FF23E3706A78A36CD318A3646B78013308
S1131D6879E0FF23E3704368A36481E0FF23E37011
S1131D780023A06C69681A4603E01C5C013312193D
S1131D88D2B28B42F9D14A4BC3F8072001221A7107
S1131D9800225A719A710822A3F8442070E0FF23A4
S1131DA8E370444B0722A364002323716371A37176
S1131DB8E27123726372A37208234CE000205DE091
S1131DC8FF236278E37000232371A371E371237204
S1131DD8627106233FE000232370637046E0A76C1A
S1131DE8FFF70EFF6A1C411E3846FFF70DFD002859
S1131DF841D0FF23E370A56CFFF702FF013D2D18C6
S1131E08A56435E0FFF7FCFE6B780138984201DCE5
S1131E18222033E0FF23E370A4F84460697819B9F9
S1131E28FFF7F8FC60BB26E0214CAA1CA06CFFF766
S1131E38EBFC00B36A78A36CD318A36420E00025F4
S1131E48FF23E37025716571FFF7DAFEE571A07170
S1131E58257265720723A4F8443011E0A06C696800
S1131E68FFF7D4FC10B906E0FFF722FBFF23E37069
S1131E78A4F8446004E0312000E02020FFF7E6FEE7
S1131E880B4C94F84330012B02D11020FFF7DEFEEF
S1131E98B4F8441006480BB2002B08DD012380F87F
S1131EA8433089B20330BDE8F040FFF793BEF0BD7C
S10B1EB8A8040020FF23000030
S1131EC040420F0000201C0080841E00008025007A
S1131ED0999E36000040380000093D0000803E0015
S1131EE000004B00404B4C0000204E00808D5B00F6
S1131EF000C05D000080700000127A0000007D00C8
S1131F0080969800001BB7000080BB00C0E8CE009C
S1131F10647ADA000024F4000000FA00433A2F57F0
S1131F206F726B2F736F6674776172652F4F706574
S1131F306E424C542F5461726765742F44656D6F03
S1131F402F41524D434D335F4C4D33535F454B5FEF
S1131F504C4D3353383936325F43726F7373776F36
S1131F60726B732F426F6F742F6964652F2E2E2F3F
S1131F706C69622F6472697665726C69622F737919
S1131F807363746C2E63000000E10F4004E10F40A2
S1131F9008E10F40433A2F576F726B2F736F6674CB
S1131FA0776172652F4F70656E424C542F54617285
S1131FB06765742F44656D6F2F41524D434D335FF8
S1131FC04C4D33535F454B5F4C4D335338393632A8
S1131FD05F43726F7373776F726B732F426F6F749B
S1131FE02F6964652F2E2E2F6C69622F64726976B7
S1131FF065726C69622F696E746572727570742E85
S11320006300433A2F576F726B2F736F6674776157
S113201072652F4F70656E424C542F546172676520
S1132020742F44656D6F2F41524D434D335F4C4DBA
S113203033535F454B5F4C4D3353383936325F432E
S1132040726F7373776F726B732F426F6F742F6934
S113205064652F2E2E2F6C69622F64726976657207
S11320606C69622F6770696F2E6300433A2F576F54
S1132070726B2F736F6674776172652F4F70656E24
S1132080424C542F5461726765742F44656D6F2FF1
S113209041524D434D335F4C4D33535F454B5F4C81
S11320A04D3353383936325F43726F7373776F72BF
S11320B06B732F426F6F742F6964652F2E2E2F6CF4
S11320C069622F6472697665726C69622F666C61ED
S11320D073686C69622E6300433A2F576F726B2FDB
S11320E0736F6674776172652F4F70656E424C54DE
S11320F02F5461726765742F44656D6F2F41524D83
S1132100434D335F4C4D33535F454B5F4C4D33531D
S1132110383936325F43726F7373776F726B732F14
S1132120426F6F742F6964652F2E2E2F6C69622F96
S11321306472697665726C69622F756172746C6918
S1132140622E6300433A2F576F726B2F736F66745E
S1132150776172652F4F70656E424C542F546172D3
S11321606765742F44656D6F2F41524D434D335F46
S11321704C4D33535F454B5F4C4D335338393632F6
S11321805F43726F7373776F726B732F426F6F74E9
S11321902F6964652F2E2E2F6C69622F6472697605
S11321A065726C69622F63616E6C69622E630043B1
S11321B03A2F576F726B2F736F6674776172652F46
S11321C04F70656E424C542F5461726765742F448E
S11321D0656D6F2F41524D434D335F4C4D33535F0B
S11321E0454B5F4C4D3353383936325F43726F730E
S11321F073776F726B732F426F6F742F6964652FDF
S11322002E2E2F2E2E2F2E2E2F2E2E2F536F7572F5
S113221063652F41524D434D335F4C4D33532F4330
S1132220726F7373776F726B732F766563746F72EB
S1132230732E630000400000002000000200000034
S11322400060000000200000030000000080000087
S1132250002000000400000000A000000020000096
S11322600500000000C0000000200000060000007F
S113227000E0000000200000070000000000010052
S113228000200000080000000020010000200000E1
S11322900900000000400100002000000A000000C6
S11322A000600100002000000B000000008001001D
S11322B0002000000C00000000A00100002000002D
S11322C00D00000000C00100002000000E0000000E
S11322D000E00100002000000F00000000000200E8
S11322E00080000010000000008002000080000058
S11322F01100000000000300008000001200000034
S1132300008003000080000013000000433A2F57B0
S11323106F726B2F736F6674776172652F4F706580
S11323206E424C542F5461726765742F44656D6F0F
S11323302F41524D434D335F4C4D33535F454B5FFB
S11323404C4D3353383936325F43726F7373776F42
S1132350726B732F426F6F742F6964652F2E2E2F4B
S11323602E2E2F2E2E2F2E2E2F536F757263652F28
S113237041524D434D335F4C4D33532F756172744D
S11323802E6300433A2F576F726B2F736F66747707
S11323906172652F4F70656E424C542F54617267A1
S11323A065742F44656D6F2F41524D434D335F4C1F
S11323B04D33535F454B5F4C4D3353383936325FA1
S11323C043726F7373776F726B732F426F6F742FD7
S11323D06964652F2E2E2F2E2E2F2E2E2F2E2E2F6C
S11323E0536F757263652F41524D434D335F4C4DAE
S11323F033532F63616E2E63000800000800004F02
S10A240070656E424C5400AC
S107240804000000C8
S903017B80
