S01900006F70656E626C745F73746D3332663230372E7372656300
S315080000007018002029690008916900089569000898
S31508000010996900089D690008A169000800000000A8
S31508000020000000000000000000000000A5690008AC
S31508000030A969000800000000AD690008795F00089A
S31508000040B1690008B5690008B9690008BD69000802
S31508000050C1690008C5690008C9690008CD690008B2
S31508000060D1690008D5690008D9690008DD69000862
S31508000070E1690008E5690008E9690008ED69000812
S31508000080F1690008F5690008F9690008FD690008C2
S31508000090016A0008056A0008096A00080D6A00086E
S315080000A0116A0008156A0008196A00081D6A00081E
S315080000B0216A0008256A0008296A00082D6A0008CE
S315080000C0316A0008356A0008396A00083D6A00087E
S315080000D0416A0008456A0008496A00084D6A00082E
S315080000E0516A0008556A0008596A00085D6A0008DE
S315080000F0616A0008656A0008696A00086D6A00088E
S31508000100716A0008756A0008796A00087D6A00083D
S31508000110816A0008856A0008896A00088D6A0008ED
S31508000120916A0008956A0008996A00089D6A00089D
S31508000130A16A0008A56A0008A96A0008AD6A00084D
S31508000140B16A0008B56A0008B96A0008BD6A0008FD
S31508000150C16A0008C56A0008C96A0008CD6A0008AD
S31508000160D16A0008D56A0008D96A0008DD6A00085D
S31508000170E16A0008E56A0008E96A0008ED6A00080D
S31508000180F16A00084178007850EA012080B2704789
S31508000190C178827852EA0122417851EA0221007830
S315080001A050EA012070470170401C89B2090A0170A3
S315080001B0401C70470170401C090A0170401C090A5E
S315080001C00170401C090A0170401C7047C0B2002823
S315080001D001D0002000E000207047C0B2002801D0FE
S315080001E0002000E000207047F8B504002068057874
S315080001F0461C2800C0B2FFF7E9FF002810D0377860
S31508000200761C3800C0B2FFF7E8FF002802D15FF07D
S31508000210FF301AE0ADB228003D00EDB215EB00251F
S31508000220280080B200280DD040F2B511280080B20F
S3150800023002F083F90500280080B2002802D15FF099
S31508000240FF3002E0ADB226602800F2BD38B50D00D9
S31508000250140040F2B51102F04DF9010089B2B1F56A
S31508000260807F0CDB022C01D2002013E0010089B24A
S31508000270090A2970691C0870481C02200AE0010056
S3150800028089B2002901D0002C01D1002002E0287093
S31508000290681C012032BD38B50400002520790028E5
S315080002A01ED00123226B14F13401607802F0EAFCB7
S315080002B0002814D100202071216B606A091AE069B0
S315080002C081420DD2E07802280AD10123226BE06927
S315080002D0821814F13401607802F0D4FC00E001259C
S315080002E02800C0B232BD70B504000D000026206B90
S315080002F0854214D02000FFF7CEFF06003000C0B2BA
S3150800030000280CD101232A0014F13401607802F088
S3150800031070FC002802D05FF0FF3501262563300007
S31508000320C0B270BD70B504002000FFF7B4FF050029
S315080003302800C0B200283DD12078032832D1607940
S3150800034001282FD14FF40071002214F13406300031
S3150800035002F01AFE4AF6552104F23220FFF723FF6F
S31508000360DFF8801814F13400FFF724FFDFF8781857
S3150800037014F50670FFF71EFF616914F50770FFF79D
S3150800038019FF216914F50870FFF714FF206A401C4D
S3150800039020630123226B14F13401607802F072FCA9
S315080003A00020607100220021607802F0C2FC00285B
S315080003B000D001252800C0B270BD891E8269921E30
S315080003C0914201D3002004E0C26A408901FB002162
S315080003D0080070472DE9F0410C000568022C02D38D
S315080003E0A869844202D35FF001085BE05FF0FF383A
S315080003F02878012804D053D303283DD02AD34FE0C8
S31508000400270017EB5707696A11EB57212800FFF7F2
S315080004106AFF002846D1F805C00D284490F83460D4
S315080004207F1C696A11EB57212800FFF75CFF00283B
S3150800043038D1FF05FF0D05EB070090F8340056EAA2
S315080004400026E00702D53609B04602E03605360D25
S31508000450B04627E0696A11EB14212800FFF743FF2D
S3150800046000281FD16400E405E40D05EB04003430D0
S31508000470FFF788FE804615E0696A11EBD41128005B
S31508000480FFF731FF00280DD1A400E405E40D05EBC4
S3150800049004003430FFF77CFE804628F0704801E0FF
S315080004A05FF001084046BDE8F0812DE9F0410600FD
S315080004B00C0015000227022CC0F08680B069844221
S315080004C080F082803078012804D07DD303285BD061
S315080004D042D379E0A04618EB5808716A11EB582107
S315080004E03000FFF700FF07003800C0B200286BD1C4
S315080004F05FEAC850C00D3044343018F10108E107EE
S3150800050005D5017811F00F0151EA051100E029001F
S31508000510017001203071716A11EB58213000FFF724
S31508000520E2FE07003800C0B200284DD15FEAC8587D
S315080005305FEAD85806EB08003430E10701D52D09E3
S3150800054006E0017811F0F0012D0A15F00F050D43AC
S3150800055005700120307137E0716A11EB1421300003
S31508000560FFF7C1FE07003800C0B200282CD12900C9
S3150800057089B26400E405E40D06EB04003430FFF7A5
S3150800058012FE012030711FE0716A11EBD4113000A0
S31508000590FFF7A9FE07003800C0B2002814D1A00052
S315080005A0C005C00D30443430FFF7F2FD000F60F38C
S315080005B01F752900A400E405E40D06EB0400343099
S315080005C0FFF7F8FD012030713800C0B2BDE8F081B0
S315080005D0F8B505000E00110000202F68022E02D380
S315080005E0B869864201D3022032E0002928D05FF09C
S315080005F0FF323800FFF759FF0100C9B200291FD0A2
S31508000600C0B225E0012C24D014F1010F23D000221A
S3150800061031003800FFF749FF0100C9B200291CD193
S315080006207869B969891E884206D27869401C78615A
S31508000630787950F0010078712600B869864206D2AA
S3150800064031002800FFF7C6FE0400002CDAD100208E
S31508000650F2BD0220FCE70120FAE7C0B2F8E72DE96F
S31508000660F04107000C00D7F80080002C09D1D8F813
S315080006701050002D03D0D8F81800854211D3012553
S315080006800FE021003800FFF7A5FE022801D201205D
S315080006907CE010F1010F79D0D8F81810884275D38C
S315080006A02500D8F81400002801D100206EE00026A5
S315080006B0A5421BD16E1CD8F81800864200D3022624
S315080006C031003800FFF786FE012802D010F1010F2D
S315080006D000D15BE0002809D0D8F81000022804D31E
S315080006E0D8F81810884200D205000026002E18D126
S315080006F02E00761CD8F81800864202D30226B54288
S315080007000DD331003800FFF765FE002809D001280F
S3150800071031D010F1010F2ED0AE42EAD12CE00020E4
S3150800072034E05FF0FF3231004046FFF7BEFE0100BD
S31508000730C9B2002906D1002C04D032002100404657
S31508000740FFF7B3FE0100C9B2002917D1C8F8106037
S31508000750D8F81800801ED8F81410884204D3D8F8A0
S315080007601400401EC8F8140098F8050050F001005F
S3150800077088F8050009E009E0002007E0C0B2012872
S3150800078002D15FF0FF3600E001263000BDE8F081B7
S315080007902DE9F04104000D002000FFF77CFD00283C
S315080007A001D0012025E029002000FFF706FE0500FC
S315080007B025634FF40071002214F13406300002F06C
S315080007C0E3FB14F134080127002600E0BE1960890E
S315080007D0864207D23B0072194146607802F052FA07
S315080007E00028F3D06089864201D1002000E001206C
S315080007F0C0B2BDE8F0812DE9F04105000E002F6872
S31508000800B6F5001F02D216F01F0F01D0022043E0F2
S315080008102E61AC68002C03D13878032800DBBC6A4B
S31508000820002C09D1300040093989884201D30220B9
S3150800083032E0B86AA8611EE0B7F80A805FEA48287D
S3150800084006E0022C10D3B86984420DD2B6EB08062E
S3150800085046450BD321002800FFF7BCFD040014F120
S31508000860010FEED1012017E0022015E02100380023
S31508000870FFF7A3FDA8616C61A869002801D10220D1
S315080008800AE0A86910EB5620A861F605F60D07EBF5
S3150800089006003430E8610020BDE8F0812DE9F0411A
S315080008A006000C00D6F8008037692037B7F5001F18
S315080008B001D30020B061B069002801D1042057E0B7
S315080008C0F8054DD1B069401CB0617069002809D19E
S315080008D038004009B8F80810884241D30020B061B2
S315080008E0042045E0B8F80A00401E10EA572F37D111
S315080008F071693000FFF76EFD0500022D01D2022056
S3150800090036E015F1010F01D1012031E0D8F81800C1
S3150800091085421FD3002C03D10020B061042027E0B4
S3150800092071693000FFF79BFE0500002D01D10720F5
S315080009301EE0012D01D102201AE015F1010F01D1A7
S31508000940012015E029004046FFF722FF002801D0C4
S3150800095001200DE0756129004046FFF72EFDB061C4
S315080009603761FF05FF0D08EB07003430F061002002
S31508000970BDE8F081F8B504000E00256800212000C6
S31508000980FFF739FF0100C9B200291FD10027A16965
S315080009902800FFF7A8FC0100C9B200290BD1E169BC
S315080009A00978E52903D0E1690978002905D17F1C72
S315080009B0B74203D100E009E008E000270121200042
S315080009C0FFF76CFF0100C9B20029E0D00100C9B2E7
S315080009D0042900D10720C0B2F2BD70B504000D008D
S315080009E015F11A00FFF7CEFB06002078032805D17B
S315080009F015F11400FFF7C6FB56EA0046300070BD35
S31508000A0070B504000D001600310089B215F11A0000
S31508000A10FFF7C9FB2078032806D1360C310089B2C6
S31508000A2015F11400FFF7BFFB70BD2DE9F84304006C
S31508000A300D0015F11A00FFF7A5FB002801D00020CC
S31508000A4042E0287810F03F00401E0D2606FB00F60F
S31508000A505FF00109002713E0B6F5807F0DD2404606
S31508000A6080B201F087FD814634F8160001F082FD58
S31508000A70761C814501D1C14601E0002024E07F1C97
S31508000A800D2F12D2DFF8EC0BC05D2844FFF77AFB76
S31508000A908046484680B20028DED14FF6FF701FFA1E
S31508000AA088F88045EBD000200EE0287840060AD565
S31508000AB01FFA89F9B9F1000F05D034F81600002895
S31508000AC001D0002000E00120BDE8F2832DE9F041C5
S31508000AD006000C0014F11A00FFF754FB002801D099
S31508000AE0002039E0207830F04000401E0D2505FB37
S31508000AF000F55FF0010800270AE0B5F5807F04D20B
S31508000B00804626F815806D1C01E0002024E07F1C35
S31508000B100D2F10D2DFF85C0BC05D2044FFF732FBC7
S31508000B20414689B20029E8D14FF6FF7180B2884262
S31508000B30EDD0002010E0207840060CD51FFA88F882
S31508000B40B8F1000F07D0B5F5807F01D3002003E088
S31508000B50002026F815000120BDE8F0812DE9F047B0
S31508000B6006000C00150063730F20E0720020207346
S31508000B70002114F11A00FFF716FB2800C0B2401E28
S31508000B800D2707FB00F75FF00008C1461FFA89F931
S31508000B904FF6FF7A4046514680B2884202D036F870
S31508000BA017807F1C414689B2DFF8C80A10F8090089
S31508000BB02044FFF7F8FA404680B2002800D1D04614
S31508000BC019F10109B9F10D0FE2D31FFA88F8D045DA
S31508000BD003D036F81700002801D155F040052570D6
S31508000BE0BDE8F0875252614172724161FEB5060056
S31508000BF015001C000B223700380002F0F9F9062C04
S31508000C0018D32888002815D02988AD1C002010285C
S31508000C10F7D222000C00A4B214F0010414EB42042B
S31508000C2089B24908E20303D584F4883494F0210490
S31508000C30401CECE7072514F00F00303024090100AA
S31508000C40C9B23A2900DBC01D6F4678556D1E002DC6
S31508000C5001D0002CEFD17E207855002401E0641CD9
S31508000C60641CAC420AD2305D202807D0305DFFF7FD
S31508000C70ADFA0028F4D0681E8442F0D12000441C46
S31508000C80082D02D2795D6D1C00E020213154082C14
S31508000C90F4D3F7BD020000200B210300DBB25B088A
S31508000CA013EBC0131078C018521C491E0029F4D142
S31508000CB0C0B270472DE9F04704000D005FF0040A42
S31508000CC02668FF27B846B946A06900282DD0A1692D
S31508000CD03000FFF708FB82465046C0B200281ED1F6
S31508000CE0E06900780100C9B2002919D0E169C97A1A
S31508000CF011F03F01A1710200D2B2E52A0DD002001F
S31508000D00D2B22E2A09D00A00D2B232F02002082A1C
S31508000D1009D10122D2B2AA4211D0B84631E004E084
S31508000D205FF0040A01E00022F4E75046C0B200284A
S31508000D3001D00020A0615046C0B2BDE8F087C9B214
S31508000D400F2928D1410607D5E16991F80D9010F0D1
S31508000D50BF0080462169E1624146C0B2C9B28842F5
S31508000D600ED14846E169497BC0B2884208D1E1699B
S31508000D70F068FFF7ABFE002802D0B8F1010800E0E2
S31508000D80B84600212000FFF789FD82465046C0B2CA
S31508000D90002899D0C9E75FFA88F8B8F1000F06D19C
S31508000DA0E069FFF777FF5FFA89F9814502D05FF0BE
S31508000DB0FF30E062B9E72DE9F04704002568002115
S31508000DC02000FFF718FD0100C9B2002901D0C0B202
S31508000DD07BE0FF263700B8465FF0FF39C4F82C9051
S31508000DE0A1692800FFF77FFA82465046C0B200285C
S31508000DF018D1E06900780100C9B2002913D0E16969
S31508000E00C97A11F03F01A1710200D2B2E52A05D0D4
S31508000E100A070BD50A00D2B20F2A07D0B046C4F883
S31508000E202C9045E04FE05FF0040A4CE0C9B20F2968
S31508000E3022D194F82B1049063AD4410606D5E16921
S31508000E404F7B10F0BF0080462169E1624146C0B27F
S31508000E50C9B288420ED13800E169497BC0B28842DE
S31508000E6008D1E169E868FFF7E0FD002802D0B8F18B
S31508000E7001081DE0B0461BE05FFA88F8B8F1000FDC
S31508000E8007D1B846E069FFF705FF5FFA88F880459D
S31508000E9018D094F82B00C00707D40B2214F12001B0
S31508000EA0E06902F0F9F800280DD0B046C4F82C9095
S31508000EB000212000FFF7F2FC82465046C0B2002807
S31508000EC08ED000E0FFE75046C0B2BDE8F0872DE9B6
S31508000ED0FE4305002E6895F82B0010F0A00F01D0F0
S31508000EE00620AAE0002700E07F1CF06830F817000B
S31508000EF00028F9D10C2215F12001E846404602F0F7
S31508000F0077F8E84698F80B00C00729D5402085F8F9
S31508000F102B005FF0010901E019F10109B9F1640F2D
S31508000F200ED24B46F268694615F12000FFF75EFEC1
S31508000F302800FFF740FF04002000C0B20028EBD0CD
S31508000F40B9F1640F01D1072077E02000C0B2042868
S31508000F5002D02000C0B270E098F80B0085F82B008C
S31508000F6098F80B00800705D50C370D20B7FBF0F471
S31508000F70641C00E0012421002800FFF7FBFC0700A1
S31508000F803800C0B2002834D1641E002C31D029693B
S31508000F907FF01F0000FB04112800FFF72CFC070058
S31508000FA03800C0B2002824D115F12000FFF772FEE0
S31508000FB08046A9693000FFF796F907003800C0B2E5
S31508000FC0002816D14346DBB22200D2B2E969F0689E
S31508000FD0FFF7C4FD0120307100212800FFF75EFCF1
S31508000FE007003800C0B2002803D1641E002CE0D1E7
S31508000FF0FFE73800C0B200281DD1A9693000FFF705
S3150800100072F907003800C0B2002814D12021002246
S31508001010EC69200001F0B8FF0B2215F12001EC69FC
S31508001020200001F0E5FF95F82B0010F01800E9699B
S315080010300873012030713800C0B2BDE8FE8370B570
S31508001040040025682669E06A10F1010F01D1002025
S3150800105003E0E16A2000FFF7CEFB0100C9B20029D0
S315080010601ED1A1692800FFF73EF90100C9B200297F
S3150800107010D1E521E2691170012129712169B14276
S3150800108009D200212000FFF709FC0100C9B2002996
S31508001090E7D000E0FFE70100C9B2042900D1022029
S315080010A0C0B270BD2DE9F84304000D002668002083
S315080010B0A875A069002800F0A780E06A10F1010F62
S315080010C037D00027B8465FF0000900E08146F0688F
S315080010D030F81800002822D0F06830F8180018F107
S315080010E00108494689B2002906D1010089B2B1F53D
S315080010F05841B1F5006FE9D3D7F1FF0205EB0701B7
S3150800110016314B469BB280B250EA0340FFF79EF871
S31508001110002803D0C7195FF00009D8E700271FFA8F
S3150800112089F9B9F1000F00D00027002005EB070167
S31508001130887500210800FFE70B2819D2E269125CBE
S31508001140401C13009BB2202BF6D013009BB2052B34
S3150800115000D1E522092806D10C2904D22E2305EB55
S3150800116001067372491C05EB01035A72491CE3E731
S31508001170002005EB01025072A87D002830D1002915
S3150800118005D13F2005EB01029075491C1FE000219F
S315080011900B00082216E005EB0300407A0600B6B2FB
S315080011A02E2E00D110220600B6B2413E1A2E04D2C7
S315080011B0E669367B164200D0203005EB0106B0758D
S315080011C05B1C491C05EB0300407A0028E3D100208C
S315080011D029448875E069007B002801D100206872DF
S315080011E0E069C07A10F03F002872E0691C30FEF70B
S315080011F0CFFF2860E0691630FEF7C4FFE880E06993
S315080012001830FEF7BFFFA880BDE8F1832DE9FE4F31
S3150800121006000D00286800903068C0680190002418
S3150800122026E0B7F5803F05D33800000C019921F870
S315080012301400641C380080B2202822DB380080B2F3
S315080012402F281ED0380080B25C281AD0380080B209
S31508001250802807DA390089B2DFF8C00901F050FFA3
S31508001260002813D1FF2C13D2019820F81470641C9F
S315080012706846FEF7B9FF070017F1010FD1D106201E
S31508001280B0E0BFB2202F08DA042714E00620A9E050
S315080012900620A7E00098401C0090009800782F28A8
S315080012A0F8D0009800785C28F4D0002700980078D9
S315080012B0202800D204270098286000E0641E002C2D
S315080012C00BD0019800EB440030F8020C010089B2FB
S315080012D02029F3D080B22E28F0D00020019921F8D9
S315080012E01400002C01D106207CE0002500E06D1CCE
S315080012F0019830F815002028F9D0002D04D101985E
S3150800130030F815002E2803D157F0030700E0641EB5
S31508001310002C06D0019800EB440030F8020C2E2869
S31508001320F5D10B21202216F12008404601F02CFEAB
S315080013305FF00008C1465FFA89F95FF0080A01E024
S3150800134057F00307019830F815B06D1C584680B25F
S3150800135000281ED0584680B22028F1D0584680B2C0
S315080013602E2801D1A542EBD1D14501D2A5423FD1C4
S31508001370BAF10B0F38D0A54201D057F00307AC429B
S3150800138035D325005FF008095FF00B0A5FEA880885
S31508001390D8E796F82000E52802D1052086F820002F
S315080013A0BAF1080F01D15FEA88084046C0B210F0CA
S315080013B00C000C2805D04046C0B210F003000328E4
S315080013C001D157F00207B80709D45FEAC87001D5FA
S315080013D057F010075FEA487001D557F0080786F8F6
S315080013E02B700020BDE8FE8F57F00307D1E7D0E742
S315080013F0584680B2802814DB57F0020740F2B51130
S315080014001FFA8BFB584601F075F883465FEA0B60B6
S3150800141007D5DFF80C081FFA8BFB1BF07F0B10F8BB
S315080014200BB0584680B2B0F5807F11DBBAF10100E7
S31508001430814503D357F00307D14683E7584680B260
S31508001440000A06EB090181F8200019F1010920E0DC
S31508001450584680B2002807D0594689B2DFF8C40733
S3150800146001F04EFE002804D05FF05F0B57F003072B
S315080014700FE0584680B241381A2801D258F00208BF
S31508001480584680B261381A2803D258F00108BBF1D1
S31508001490200B06EB090080F820B019F1010951E785
S315080014A032B50400256802E00098401C00900098B8
S315080014B000782F28F8D0009800785C28F4D000200F
S315080014C0A0600098007820281FD2802084F82B007E
S315080014D000212000FFF78FF92AE02000FFF76BFCB8
S315080014E094F82B100200D2B2002A17D149071DD44E
S315080014F0A079C0061BD52069C005C00D284410F187
S3150800150034012800FFF769FAA06069462000FFF752
S315080015107DFE0100C9B20029DFD009E00200D2B27F
S31508001520042A02D1490700D4052001E000E005207D
S31508001530C0B232BD30B402005FF0FF3011680B0054
S3150800154000291CD01C785B1C2500EDB2202D03D386
S315080015502500EDB23A2DF5D1E4B23A2C0ED101248C
S315080015600D78303D0A2D04D28D1C9D4201D10C7890
S31508001570303C012C01DA2000136000E0002030BC6A
S31508001580704738B50400002020715FF0FF302063F3
S315080015902000FEF7A8FE002801D0042068E004F227
S315080015A03220FEF7EFFD050094F834000100C9B2B9
S315080015B0EB2906D00100C9B2E92902D0C0B2E82851
S315080015C04ED128004AF6552180B288420AD108220F
S315080015D0DFF8F81A14F1860001F05EFD002801D143
S315080015E0002045E014F13F00FEF7CCFD94F84110C9
S315080015F0421E03009BB2134232D180B2B0F500708E
S3150800160000282DD10800C0B2002829D0481EC9B22A
S31508001610014225D114F14200FEF7B4FD00281FD07F
S3150800162094F84400401E02281AD214F14500FEF729
S31508001630A9FD002814D014F14700FEF7A3FD802861
S3150800164006DA14F15400FEF7A3FDB0F5803F07D380
S3150800165014F14A00FEF796FD002801D0002007E0A5
S315080016604AF65520ADB2854201D1022000E003209A
S3150800167032BD0000E86800087FB505000C000021AF
S315080016802800FFF77EFF022804D0032801D2002C89
S3150800169000D125E0002609E03001284410F5FD7048
S315080016A0FEF776FD694641F82600761C042EF3D32C
S315080016B0002C01D0661E00E00026694651F8260077
S315080016C0002805D051F826102800FFF75AFF00E039
S315080016D00320002C04D1022802D3761C042EECD356
S315080016E004B070BDF8B50E00150000213160FFF793
S315080016F021FF002801D50B2032E1DFF8D41951F873
S315080017002040002C01D10C202AE1346015F0FE059A
S31508001710207800280DD0607801F062FAC10708D455
S31508001720EDB2002D03D0400701D50A2018E10020AC
S3150800173016E100202070607801F0B1F9C10701D5E3
S3150800174003200DE1EDB2002D03D0400701D50A2094
S3150800175006E100212000FFF78FFF042801D10120B0
S31508001760FEE0022801D30D20FAE0266B14F13F00B3
S31508001770FEF708FDB0F5007F01D00D20F0E014F16A
S315080017804A00FEF7FFFC0700002F04D114F15800A9
S31508001790FEF7FEFC0700E76194F84400E070E07885
S315080017A0012804D0E078022801D00D20D8E0E0789E
S315080017B0474394F8410060816089002804D0608915
S315080017C06189491E084201D00D20C9E014F145007F
S315080017D0FEF7D8FC2081207A10F00F0F01D00D20DB
S315080017E0BEE014F14700FEF7CDFC0500002D04D13C
S315080017F014F15400FEF7CCFC050014F14200FEF784
S31508001800C1FC0100080080B2002801D10D20A7E024
S315080018100A0092B2BA18208912EB1012954201D228
S315080018200D209DE0AD1A6089B5FBF0F0002801D1C6
S315080018300D2095E00025DFF89C38984200D2032554
S315080018404FF6F673984200D2022540F6F673984290
S3150800185000D20125002D01D10D2081E0801CA06158
S31508001860266289B2891961629219E262032D14D13E
S3150800187014F15E00FEF786FC002801D00D206FE00B
S315080018802089002801D00D206AE014F16000FEF7D7
S315080018907FFCA062A069800014E02089002801D19D
S315080018A00D205DE0606A3F18A762022D02D1A0698B
S315080018B0400007E0A16903204143207E10F00100A3
S315080018C010EB5100E16900F2FF10B1EB502F01D285
S315080018D00D2045E05FF0FF3060616069206180207F
S315080018E06071032D30D114F16400FEF74BFC01281A
S315080018F02AD1761C31002000FEF7F5FC002823D1FA
S315080019000020607104F23220FEF73CFC4AF65521AD
S31508001910884219D114F13400FEF73AFCDFF8B817FB
S31508001920884211D114F50670FEF732FCDFF8AC17C1
S31508001930884209D114F50770FEF72AFC606114F590
S315080019400870FEF725FC20612570DFF894070188EA
S31508001950491C01800088E080DFF88807E0600020E5
S31508001960F2BD70B504000D000926002C12D02068BF
S3150800197000280FD02068007800280BD0A08821689E
S31508001980C988884206D12068407801F029F9C0073D
S3150800199000D400263000C0B2002801D1206800E03B
S315080019A0002028603000C0B270BD13B582B01400A4
S315080019B0039800906846FFF7BDFD0100002901D590
S315080019C00B2020E0DFF8082752F82100002804D071
S315080019D0002342F82130002303700298002807D01C
S315080019E0029841700020029B1870029842F8210064
S315080019F0E4B2002C01D1002005E0002202A903A8C8
S31508001A00FFF770FEC0B204B010BD2DE9F2418DB0EB
S31508001A1004001700002C01D10920FBE017F03F074E
S31508001A203A00D2B269460DA8FFF75CFE0600300000
S31508001A30C0B2002840F0E680009801900D9901A8F0
S31508001A40FFF72EFD06003000C0B2002804D19DF82D
S31508001A502F00000600D5062617F01C0F57D03000B9
S31508001A60C0B200280AD03000C0B2042803D101A8A9
S31508001A70FFF72DFA060057F0080709E09DF80A0057
S31508001A8010F0110F01D0072602E0780700D50826C6
S31508001A903000C0B200284BD1380749D5DFF8485680
S31508001AA0290008980E30FEF785FB2900089816309D
S31508001AB0FEF780FB08990098FEF78FFF05002020A7
S31508001AC00899C872002208990098FEF799FF002124
S31508001AD008981C30FEF76EFB012000990871002D4E
S31508001AE026D00098D0F830800022290001A8FEF7F9
S31508001AF06FFD06003000C0B2002819D14146009893
S31508001B00FEF7F1FB06006D1E0098056110E0300037
S31508001B10C0B200280CD19DF80A00C00601D50426DB
S31508001B2006E0B80704D59DF80A00C00700D50726C1
S31508001B303000C0B2002808D1380701D557F0400751
S31508001B400098006B2062089860623000C0B20028D6
S31508001B5058D108990098FEF740FFA06008981C30F5
S31508001B60FEF716FBE060009820600098C088A08009
S31508001B702774002060740020E061002060614FF443
S31508001B800071002214F12805280001F0FDF9B806B5
S31508001B9038D5E068002835D0E06860610098478944
S31508001BA07F02A168E5680BE02000FEF713FC010040
S31508001BB0022900D2022611F1010F00D10126ED1BE0
S31508001BC03000C0B2002801D1AF42EDD3A161300088
S31508001BD0C0B2002816D1E80514D00098FEF7EDFB30
S31508001BE0002801D102260DE010EB5520E061012303
S31508001BF0E26914F128010098407800F0FAFF0028FD
S31508001C0000D001263000C0B2002801D00020206094
S31508001C103000C0B20EB0BDE8F08100003869000897
S31508001C20E4630008686900082DE9FC47804614004B
S31508001C3099468A460020C9F8000069464046FFF7DB
S31508001C4090FE0100C9B2002905D198F811100800C4
S31508001C50C9B2002901D0C0B2CAE098F81000C0077E
S31508001C6001D40720C4E0D8F80C10D8F81400091AD3
S31508001C70A14246D20C0044E010F1010F63D0C8F827
S31508001C801800D8F818100098FEF797FB0600002EE3
S31508001C905ED0BE1925006D0A002D63D000984089D4
S31508001CA0E919884202D200984589ED1B2B003200BB
S31508001CB051460098407800F09CFF00284DD198F8CE
S31508001CC01000000610D5D8F81C00801BA8420BD2BD
S31508001CD04FF4007218F12801D8F81C00861B76020A
S31508001CE05644300001F084F96D02641BD9F80000EF
S31508001CF02818C9F80000AA44D8F814002D18C8F8FE
S31508001D001450002C73D0D8F81400C0054FD1D8F859
S31508001D10140000994F897F1E17EA5027002FB0D16B
S31508001D20D8F81400002802D1D8F8080004E0D8F83A
S31508001D3018104046FEF74EFB02289DD2022088F86E
S31508001D401100022054E0012088F8110001204FE01C
S31508001D50022088F8110002204AE0012088F81100C4
S31508001D60012045E0D8F81C00B0421ED098F81000B3
S31508001D70000610D50123D8F81C2018F12801009870
S31508001D80407800F07FFF002827D198F8100010F05F
S31508001D907F0088F810000123320018F12801009806
S31508001DA0407800F026FF00281CD1C8F81C60D8F837
S31508001DB01450ED05ED0DD5F50075AC4200D22500A1
S31508001DC02A00D8F81400C005C00D404410F12801B7
S31508001DD05646300001F00CF987E7012088F8110013
S31508001DE0012005E0012088F81100012000E000200C
S31508001DF0BDE8F6872DE9FC478046170099468A46CE
S31508001E000020C9F8000069464046FFF7AAFD010010
S31508001E10C9B2002905D198F811100800C9B20029DD
S31508001E2001D0C0B2CCE098F81000800701D4072092
S31508001E30C6E0D8F814003818D8F8141088423BD2EF
S31508001E405FF0FF37D8F814003F1A35E0D8F80C00D1
S31508001E5030E0C8F81C60D8F81450ED05ED0DD5F53E
S31508001E600075AF4200D23D002A005146D8F814004A
S31508001E70C005C00D404410F12804200001F0B8F850
S31508001E8098F8100050F0800088F810007F1BD9F8E9
S31508001E9000002818C9F80000AA44D8F814002D181C
S31508001EA0C8F81450D8F80C00D8F814108842CDD2C7
S31508001EB0D8F81400C8F80C00002F7AD0D8F8140007
S31508001EC0C005C8D1D8F8140000994C89641E14EAD4
S31508001ED05024002C20D1D8F81400002808D1D8F8AE
S31508001EE00800002809D100214046FEF7B8FB04E0A7
S31508001EF0D8F818104046FEF7B2FB002859D001283A
S31508001F0060D010F1010F62D0C8F81800D8F8081090
S31508001F10002901D1C8F8080098F81000000610D565
S31508001F200123D8F81C2018F128010098407800F001
S31508001F30A9FE002850D198F8100010F07F0088F804
S31508001F401000D8F818100098FEF737FA0600002E89
S31508001F5047D0A6193D006D0A002D4CD0009840893F
S31508001F602919884202D2009845892D1B2B00320078
S31508001F7051460098407800F085FE002836D1D8F8FA
S31508001F801C00801BA84212D24FF40072D8F81C001D
S31508001F90861B76020AEB060118F12804200001F0D8
S31508001FA027F898F8100010F07F0088F810006D02E6
S31508001FB06CE798F8100050F0400088F810000020F0
S31508001FC0BDE8F687022088F811000220F8E701200C
S31508001FD088F811000120F3E7012088F81100012094
S31508001FE0EEE7022088F811000220E9E7012088F8C8
S31508001FF011000120E4E7D8F81C00B0423FF429AFED
S31508002000D8F81400D8F80C108842BFF422AF012380
S31508002010320018F128010098407800F0EAFD0028FF
S315080020203FF417AF012088F811000120C8E77CB5F6
S31508002030040069462000FFF794FC0100C9B2002994
S3150800204041D1217C49063ED5207C00060FD50123C7
S31508002050E26914F128010098407800F013FE002880
S3150800206001D0012030E0207C10F07F0020741E4D46
S31508002070216A0098FEF737F90100C9B2002922D172
S31508002080666AF07A50F02000F072A2683100206883
S31508002090FEF7B6FCE16816F11C00FEF78BF829007E
S315080020A016F11600FEF786F8002116F11200FEF763
S315080020B07AF80120009908710098FEF733F9217C17
S315080020C011F0BF012174C0B276BD00004469000852
S315080020D04C100020F6FFFF0F5252614172724161A7
S315080020E0601000209C0A0020000021541CB5040042
S315080020F02000FFF79CFF0100C9B2002909D16946F3
S315080021002000FFF72EFC0100C9B2002901D10021E9
S315080021102160C0B216BD2DE9FC4106000D006946D6
S315080021203000FFF71EFC07003800C0B2002800D1B7
S31508002130777C3800C0B2002802D03800C0B2ACE0C4
S31508002140F068A84203D2307C800700D4F56870692D
S3150800215000247461002D6AD00099B1F80A805FEAFC
S315080021604828002810D0411EB1FBF8F16A1EB2FBC0
S31508002170F8F28A4208D3401EB8F10101884370611B
S3150800218070692D1AB06915E0B068002811D10021D0
S315080021903000FEF764FA012803D102207074022089
S315080021A07BE010F1010F03D101207074012074E067
S315080021B0B060B061002807D139E0022831D3009910
S315080021C0896988422DD2B061A8450FD2B5EB0805BA
S315080021D0716918EB01017161317C890716D5010017
S315080021E03000FEF73CFA002814D1002571696918F9
S315080021F07161E9051BD001000098FEF7DEF80400BE
S31508002200002C12D102207074022046E00100300032
S31508002210FEF7E0F810F1010FCFD10120707401200C
S315080022203BE002207074022037E014EB5524F06876
S315080022307169884205D27069F060307C50F04000C0
S3150800224030747069C00526D0F069844223D0307C8A
S31508002250000611D50123F26916F128010098407885
S3150800226000F010FD002803D001207074012014E04E
S31508002270307C10F07F0030740123220016F128010B
S315080022800098407800F0B5FC002803D0012070744F
S31508002290012002E0F4613800C0B2BDE8F68131B52C
S315080022A08CB00C00002269460CA8FFF71BFA050043
S315080022B02800C0B2002814D10C996846FFF7F0F838
S315080022C005002800C0B200280BD19DF82B00000697
S315080022D001D5062505E0002C03D021006846FEF747
S315080022E0E1FE2800C0B20DB030BD31B59AB0002469
S315080022F0022269461AA8FFF7F5F905002800C0B2B8
S31508002300002859D1009801901A9901A8FFF7C8F832
S3150800231005002800C0B200284ED19DF82F000006FF
S3150800232001D5062504E09DF80A00C00700D5072553
S315080023302800C0B2002823D108990098FEF74DFB63
S3150800234004009DF80A00C0061AD500980D900F944F
S3150800235000210DA8FEF74FFA05002800C0B2002894
S315080023600ED100210DA8FEF7A5FC05002800C0B275
S31508002370002800D107252800C0B2042800D100256E
S315080023802800C0B2002817D101A8FEF758FE05009C
S315080023902800C0B2002807D1002C05D00022210051
S315080023A001A8FEF715F905002800C0B2002803D1D8
S315080023B00098FDF7B7FF05002800C0B21BB030BD76
S315080023C02DE9FC4105000E0017000024A846761EDC
S315080023D0FFE7B44213DA6B46012201A93800FFF77A
S315080023E023FC009801280AD19DF804000D28F0D096
S315080023F088F8000018F10108641C0A28E9D10020B1
S3150800240088F80000002C00D100252800BDE8F681D8
S31508002410F8B504000D002800C0B20A2803D10D2122
S315080024202000FFF7F5FF6668002E17D4A76804EBAF
S3150800243006000573761C3C2E0DDB6B46320014F144
S315080024400C012068FFF7D6FC0098B04201D100269F
S3150800245001E05FF0FF3666607F1CA760F1BD1CB522
S315080024600400606800280ED46B46626814F10C01FB
S315080024702068FFF7BFFC002805D1606800998842EC
S3150800248001D1A06801E05FF0FF3016BD70B5040009
S315080024900D004C2100222600300000F075FD256055
S315080024A070BD18B593B004006846FFF7EFFF04E067
S315080024B021786846FFF7ACFF641C20780028F7D11E
S315080024C06846FFF7CCFF14B010BD0EE002684368FB
S315080024D0024408305FEAC37C44BF4B445B1E52F893
S315080024E004CB43F804CB091FF9D150F8041B002983
S315080024F0ECD1704710B4020000204C4B802A01D260
S31508002500100017E0B2F5803F14D240F2B51489B234
S31508002510A1420FD1002000E0401C010089B28029A9
S3150800252005DA010089B233F811108A42F4D18030F5
S3150800253000F0FF0080B210BC704710B40200002003
S315080025403A4B1400A4B2802C01DA10000FE040F2D6
S31508002550B51489B2A1420AD1110089B2B1F5807FBA
S3150800256005DA92B203EB4200B0F58070008880B2BB
S3150800257010BC7047F0B4B0F5803F55D2010089B25F
S31508002580B1F5805F01DA2A4A07E02A4A05E0ADB2CA
S31508002590002D02D1A4B202EB44021388911C1A0042
S315080025A092B2002A05D002001C0092B2A4B2A2423E
S315080025B000D238E00C888A1C2500ADB22D0A04F03A
S315080025C0FF040600B6B21F00BFB2210089B2CF19B8
S315080025D0BE42DCDAADB2002D0CD0022D15D00FD3D9
S315080025E0042D16D013D3062D17D014D3082D18D0C2
S315080025F015D318E080B29BB2C01A32F8100012E068
S31508002600C31A13F00103C01A0DE010380BE0203886
S3150800261009E0303807E01A3805E0083003E050389A
S3150800262001E0B0F5E35080B2F0BC704728620008BC
S31508002630346000082863000881B0DFF830190A689A
S3150800264002430A60096808400090009801B0704784
S3150800265081B0DFF81C190A6802430A600968084055
S315080026600090009801B07047816170470904816144
S315080026707047016851F0400101607047016831F008
S31508002680400101607047426832F010021143416010
S315080026907047806810F0010070478068400810F0A5
S315080026A001007047C068C0B27047017370472DE9D2
S315080026B0F04186B00421DFF8BC08FFF7D5FF4FF4D8
S315080026C0805400940120019002200290002003907B
S315080026D000200490DFF8A0586946280000F00AFE9A
S315080026E04FF480512800FFF7BFFF002620E000F0D6
S315080026F0C6FE07006437DFF884884046FFF7CDFF3B
S31508002700002803D100F0BBFE8742F4D2FF214046E1
S31508002710FFF7CBFF00F0B3FE070064374046FFF72C
S31508002720B8FF002803D100F0AAFE8742F6D2761C2D
S315080027300A2EDCD300940220019003200290002088
S31508002740039000200490062005906946280000F0B2
S31508002750D1FD06B0BDE8F08110B590B00420FFF7B2
S315080027606BFF0820FFF768FF4FF40040FFF770FF84
S31508002770042000900120019002200290002003907E
S3150800278000200490DFF8EC476946200000F0B2FD0F
S3150800279004212000FFF768FF4FF4E0500090022064
S315080027A00190032002900020039000200490062048
S315080027B005906946DFF8C00700F09CFD00200690EA
S315080027C04FF482700790002008900020099000209E
S315080027D00A904FF400700B9030200C9000200D905A
S315080027E000200E9007200F90DFF8904706A92000DA
S315080027F000F078FE00212000FFF745FF2000FFF7D4
S3150800280038FFFFF754FF10B010BD10B58AB0DFF8D7
S315080028106C472000FFF732FF002000904FF48270CB
S3150800282001900020029000200390002004904FF4AD
S315080028300070059000200690002007900020089060
S31508002840072009906946200000F04CFE0021200070
S31508002850FFF719FF2000FFF70CFF0AB010BDDFF8DD
S315080028602007017851F0010101707047F8B50100A1
S3150800287000240026DFF80477C9B23800FFF715FFF1
S3150800288000F0FDFD050032353800FFF702FF00288D
S3150800289006D100F063FE00F0F2FD8542F4D201266F
S315080028A0F6B2002E03D13800FFF7FCFE0400200024
S315080028B0C0B2F2BD10B50400FF20FFF7D7FF2070A5
S315080028C010BD38B500F0DBFD050015F5FA75FF20DB
S315080028D0FFF7CCFF040000F041FE2000C0B2FF283D
S315080028E003D000F0CCFDA842F1D3E4B2FF2C01D10D
S315080028F0012000E0002032BD80B50421DFF874060F
S31508002900FFF7B2FEFF20FFF7B1FF01BD80B5042136
S31508002910DFF86006FFF7AAFEFF20FFF7A7FFFFF71D
S31508002920D0FF002801D0012002E0FFF7E5FF0020D4
S3150800293002BDF8B505000C0000F0A1FD07006437DC
S31508002940FF20FFF793FF060000F008FE3000C0B234
S31508002950FF2803D100F093FDB842F1D3F6B2FE2E5C
S3150800296001D0002013E02800FFF7A4FF6D1C280003
S31508002970FFF7A0FF6D1C00F0F1FDA41E002CF2D19C
S31508002980FF20FFF773FFFF20FFF770FF0120F2BD5E
S3150800299038B505000C00FFF794FF002801D1002088
S315080029A026E02000C0B2FFF761FFE4B2FD2C1ED07E
S315080029B04FF400742878FFF759FF6D1C2878FFF745
S315080029C055FF6D1C00F0CAFDA41E002CF2D1FF2095
S315080029D0FFF74CFFFF20FFF749FFFF20FFF746FFF1
S315080029E0C0B210F01F00052801D0002000E0012029
S315080029F032BD38B504000D0020060BD514F07F044F
S31508002A0000213720FFF7F5FF0100C9B2022901DBD3
S31508002A10C0B243E0FFF770FFFFF778FF002801D147
S31508002A20FF203BE054F04000C0B2FFF71FFF28002C
S31508002A30000EC0B2FFF71AFF2800000CC0B2FFF75D
S31508002A4015FF2800000AC0B2FFF710FF2800C0B221
S31508002A50FFF70CFF01202100C9B2002900D19520FB
S31508002A602100C9B2082900D18720C0B2FFF7FEFEAF
S31508002A70E4B20C2C02D1FF20FFF7F8FE0A24FF204F
S31508002A80FFF7F4FE050000F069FD280604D5641E6C
S31508002A902000C0B20028F2D12800C0B232BDF8B575
S31508002AA0C0B2002801D0012099E0DFF8D44420788C
S31508002AB0800701D5207892E0FFF74EFE0421DFF863
S31508002AC0B404FFF7D3FD002500210020FFF791FF8E
S31508002AD0012870D100F0D3FC060016F57A764FF47B
S31508002AE0D5710820FFF785FF01283FD1002707E0A9
S31508002AF0FF20FFF7BBFE69463A00D2B288547F1C16
S31508002B003800C0B20428F3DB6F46B878012852D1E2
S31508002B109DF80300AA284ED100F0B1FCB04206D2B7
S31508002B205FF08041A920FFF764FF0028F4D100F088
S31508002B30A6FCB0423FD200213A20FFF75AFF0028F0
S31508002B4039D1002506E0FF20FFF790FE2900C9B21B
S31508002B5078546D1C2800C0B20428F4DB9DF80000E8
S31508002B60400601D50C2526E0042524E00021A920ED
S31508002B70FFF73FFF022802DA0225A92704E001250C
S31508002B80012701E000F0EAFC00F079FCB04206D229
S31508002B9000213800C0B2FFF72CFF0028F2D100F060
S31508002BA06EFCB04206D24FF400711020FFF721FFE9
S31508002BB0002800D000252800C0B2DFF8C813086036
S31508002BC0FFF79AFEEDB2002D06D0207810F0FE0031
S31508002BD02070FFF71AFE01E0FFF741FE2078F2BDEC
S31508002BE0C0B2002801D0012002E0DFF89403007883
S31508002BF0704738B50D0011001C00C0B2002801D17D
S31508002C00002C01D104203CE0DFF874030078C007EB
S31508002C1001D5032035E0DFF86C030078000700D4FF
S31508002C204902012C0DD11120FFF7E3FE002820D11F
S31508002C304FF400712800FFF77CFE002819D0002405
S31508002C4017E01220FFF7D5FE002812D14FF40071C5
S31508002C502800FFF76EFE002807D015F5007500F06E
S31508002C607DFC641E002CF1D1FFE700210C20FFF744
S31508002C70C0FEFFF741FE002C01D0012000E0002035
S31508002C80C0B232BD70B50D0016001C00C0B20028D7
S31508002C9001D1002C01D104204AE0B9480178C907BE
S31508002CA001D5032044E00078400701D502203FE023
S31508002CB0B4480178090700D47602012C0DD13100F9
S31508002CC01820FFF796FE00282AD1FE212800FFF7D4
S31508002CD05FFE002824D0002422E0007810F0060FBA
S31508002CE003D021009720FFF784FE31001920FFF753
S31508002CF080FE002814D1FC212800FFF749FE002891
S31508002D0007D015F5007500F029FC641E002CF2D1D9
S31508002D10FFE7FD210020FFF73BFE002800D1012434
S31508002D20FFF7EAFD002C01D0012000E00020C0B228
S31508002D3070BD7FB514002200C0B2002801D004205F
S31508002D4011E18F480078C00701D503200BE1012562
S31508002D50C9B2002913D0012917D0032955D00A2949
S31508002D6000F0AF800B2900F0B1800C2900F0BC8080
S31508002D700D2900F0C7800E2900F0DB80EEE0FFF792
S31508002D80C5FD002800D00025E9E000210920FFF74D
S31508002D9030FE002838D110216846FFF7CAFD002802
S31508002DA032D09DF80000C0B2800901280DD16946CD
S31508002DB0487A0A7A10EB0220C97911F03F0110EB24
S31508002DC00140401C800220601DE06A46517911F0DE
S31508002DD00F01907AC0B211EBD011507A400010F072
S31508002DE006004018801C117AC9B28909C9B2D3797C
S31508002DF011EB8301927912F0030211EB8221491C2F
S31508002E000938814021600025A9E05E4E30784007E8
S31508002E1021D500218D20FFF7ECFD002850D1FF2099
S31508002E20FFF724FD10216846FFF783FD002847D0E9
S31508002E30302503E0FF20FFF719FD6D1E2800C0B2FC
S31508002E400028F7D110209DF80A10C9B20909884050
S31508002E502060002534E000210920FFF7CAFD00287C
S31508002E602ED110216846FFF764FD002828D0307857
S31508002E70800712D56846817A490011F07E01C07A2A
S31508002E80C0B2C009C0B24118491C9DF80D00C0B2B5
S31508002E908009401E8140216011E06846817AC1F3AD
S31508002EA0840189B2491CC27AD20012F01802C07A8B
S31508002EB0C0B24009C0B28218521C51432160002595
S31508002EC04DE0304800681070002548E000210920D0
S31508002ED0FFF78FFD002806D110212000FFF729FDF6
S31508002EE0002800D000253AE000210A20FFF781FDDE
S31508002EF0002806D110212000FFF71BFD002800D06E
S31508002F0000252CE000213A20FFF773FD00280FD199
S31508002F10002508E0FF20FFF7A9FC2900C9B2605484
S31508002F2000F01CFB6D1C2800C0B20428F2DB00254B
S31508002F3015E01448007840070FD500218D20FFF7CB
S31508002F4058FD002809D1FF20FFF790FC40212000FA
S31508002F50FFF7EFFC002800D0002500E00425FFF766
S31508002F60CBFC2800C0B204B070BD00003038024067
S31508002F7040380240000C024000080240003C004075
S31508002F80090000205410002062F30F2262F31F424A
S31508002F90401810F0030308D0C91A1FD3DB0748BF2F
S31508002FA000F8012D28BF20F8022D130030B414466E
S31508002FB01546103928BF20E93C00FAD8490728BF2A
S31508002FC020E90C0048BF40F8042D890028BF20F8E6
S31508002FD0022D48BF00F8012D30BC7047C91818BF2C
S31508002FE000F8012DCB0728BF00F8012D7047000017
S31508002FF062B38B0708D0521E11F8013B00F8013B5B
S3150800300000F024808B07F6D1830740F0208000BFAC
S31508003010103A07D330B4B1E83810103AA0E838109F
S31508003020F9D230BC530724BFB1E80810A0E808104D
S3150800303044BF51F8043B40F8043BD20724BF31F89B
S31508003040022B20F8022B44BF0B7803707047121F1F
S3150800305017D35B0009D151F8043B20F8023B1B0C3F
S31508003060121F20F8023BF6D20BE051F8043B00F899
S31508003070013B1B0A20F8023B1B0C121F00F8013B00
S31508003080F3D238BF121D521E24BF11F8013B00F8B7
S31508003090013BF8D8704700000300002013F0030F27
S315080030A009D0521E22BF13F8010B11F801CBB0EB61
S315080030B00C00F3D0704711F0030F14D1121F22BF72
S315080030C053F8040B51F804CB6045F7D0121D0AD209
S315080030D000BA9CFA8CFCB0EB0C0038BF6FF000000D
S315080030E088BF01207047521E22BF13F8010B11F842
S315080030F001CBB0EB0C00F6D0521C08BF1046704747
S31508003100C9B202788A421AB11CBF10F8012FF9E732
S3150800311018BF00207047000030B4046891FAA1F384
S31508003120B3FA83F303255B009D40AC4391FAA1F102
S31508003130B1FA81F149008A402243026030BC7047E7
S3150800314043688B43514319434160704730B48468E0
S3150800315091FAA1F3B3FA83F303255B009D40AC43D0
S3150800316091FAA1F1B1FA81F149008A4022438260BD
S3150800317030BC704730B4C46891FAA1F3B3FA83F34C
S3150800318003255B009D40AC4391FAA1F1B1FA81F1A8
S3150800319049008A402243C26030BC704730B4046A92
S315080031A091FAA1F3B3FA83F30F259B009D40AC4334
S315080031B091FAA1F1B1FA81F189008A4022430262AB
S315080031C030BC704730B4446A0B001B0A93FAA3F369
S315080031D0B3FA83F30F259B009D40AC43090A91FA85
S315080031E0A1F1B1FA81F189008A402243426230BCDA
S315080031F0704736490A6810430860704733490A68B9
S3150800320032EA00000860704710B500243049884249
S3150800321006D10120FFF7EDFF0120FFF7EFFF52E08F
S315080032202C49884206D10220FFF7E3FF0220FFF768
S31508003230E5FF48E02849884206D10420FFF7D9FF70
S315080032400420FFF7DBFF3EE02449884206D1082028
S31508003250FFF7CFFF0820FFF7D1FF34E02049884267
S3150800326006D11020FFF7C5FF1020FFF7C7FF2AE099
S315080032701C49884206D12020FFF7BBFF2020FFF714
S31508003280BDFF20E01849884206D14020FFF7B1FF6C
S315080032904020FFF7B3FF16E01449884206D1802084
S315080032A0FFF7A7FF8020FFF7A9FF0CE01049884227
S315080032B008D14FF48070FFF79CFF4FF48070FFF73A
S315080032C09DFF00E001242000C0B210BD1038024066
S315080032D0000002400004024000080240000C0240C0
S315080032E0001002400014024000180240001C024070
S315080032F000200240F8B505000E00306890FAA0F0EC
S31508003300B0FA80F734E0726921002800FFF75AFF07
S3150800331028E030680124BC400440002C27D070689F
S31508003320012802D07068022809D1B2682100280055
S31508003330FFF70CFFF26831682800FFF701FF3269D2
S3150800334021002800FFF716FF706802280AD194FAB0
S31508003350A4F0B0FA80F00828D5D2726921002800B6
S31508003360FFF71CFF726821002800FFF7D5FE7F1CB7
S315080033703068F8400028CCD10020F2BD81B043491E
S315080033800A6802430A60096808400090009801B07C
S3150800339070473E490A6832EA0000086070473C49AF
S315080033A00A6810430860704739490A6832EA00001B
S315080033B0086070473748006810F46040704710B5D9
S315080033C00120FFF7DBFFFFF7F5FF33490C683349A8
S315080033D0400B085CC440FFF7EDFF002801D101202F
S315080033E000E00220C0B200FB04F001212C4A116063
S315080033F04FF6FF712B4A11602B49B0FBF1F0401EC6
S315080034002A4908602A48016851F001010160002034
S3150800341028490860284800682849088010BD80B5F2
S315080034200120FFF7BCFF0120FFF7BEFF0120FFF7D1
S31508003430B0FF0020224908600020224908600020C9
S315080034402149086001BD10B41B4801681B4A108851
S31508003450091A080080B264280FD389B26420B1FB28
S31508003460F0F1144B1C68080080B204191C6013881C
S3150800347089B2642000FB0131118010BC704780B509
S31508003480FFF7E1FF0B48006802BD00004438024020
S3150800349024380240083802400400002080690008E9
S315080034A0000001402C000140A086010028000140D0
S315080034B0140001405C100020240001406410002024
S315080034C010E000E014E000E018E000E080B5FFF747
S315080034D0D6FF02BD0068800910F00100704789B266
S315080034E00161704770B504000D0001262000FFF742
S315080034F0F1FF002825D121681548014028680143B5
S3150800350068680143A8680143E868014328690143DC
S3150800351068690143A8690143E8690143286A0143C8
S315080035202160606830F00400696950EA1140606003
S31508003530286AB0F5005F03D1696A2000FFF7CFFF5C
S315080035400026E06930F40060E0613000C0B270BD6A
S315080035504000FFFF80B500F029F801BD80B500F0F6
S315080035602AF801BD00690840884201D1012000E01F
S315080035700020C0B270470068800910F0010070474B
S315080035800068C00910F001007047C9B24160704771
S3150800359080B54FF400514748FFF7E4FF002801D1F2
S315080035A0002002E000F0B9F8012002BD80B56420D1
S315080035B000F08FF801BD80B500F08EF801BD80B52A
S315080035C0C6B04FF48C720021684600F0B5F869461B
S315080035D03948FEF764FE002808D10098002805D06F
S315080035E09DF80800C00601D4012000E0002047B07D
S315080035F000BD3148704710B5304C002084F82802C9
S315080036000A222F492000FEF700FA002802D10120DD
S3150800361084F8280210BD10B5284890F82812012908
S3150800362001D1FEF763FDFFF72AFF0400643425483D
S31508003630FFF7A1FF002803D1FFF721FF8442F6D246
S315080036401D48FEF752FE10BD80B51C4890F828129A
S31508003650012901D1FEF74AFD01BD70B50400174DD9
S3150800366095F82802012821D129002000FEF719FF24
S3150800367000281BD5002085F828022800FEF736FD0D
S3150800368014E0104E21783000FFF77FFFFFF7F7FEB2
S3150800369005000A353000FFF773FF002805D1FFF74C
S315080036A05DFFFFF7ECFE8542F4D2641C2078002803
S315080036B0E7D170BD00080240806800086804002051
S315080036C00869000800480040816170470904816163
S315080036D0704715490880704710B5FFF7D0FE134CA0
S315080036E02168884218D312490878002807D1012092
S315080036F008704FF480710F48FFF7E6FF06E00020D8
S3150800370008704FF480710B48FFF7E0FFFFF7B7FE2C
S31508003710054909880818206010BD80B54FF48071E6
S315080037200448FFF7D3FF01BD6210002050100020A7
S31508003730681000200014024010B5044610460A46D8
S3150800374001462046FFF720FC204610BD80B5002024
S31508003750DFF8B8160870002217A1DFF8B406FEF7DE
S3150800376024F9C0B2002804D07721DFF8A80600F0B3
S31508003770DDFB01BDDFF894060078002801D10120A1
S3150800378000E00020704710B500F04CFC012801D17C
S3150800379000200FE0DFF874462078002801D00020CA
S315080037A008E0FFF70CFF012803D101202070012053
S315080037B000E0002010BD0000303A00002DE9F84F67
S315080037C00025DFF848462078002800F01A8220787D
S315080037D0012834D100F030FCFFF70DFFDFF838067A
S315080037E0FFF73BFFDFF83406FFF737FFFFF701FF68
S315080037F001220100DFF82806FEF707F9002809D09C
S3150800380000202070DFF81C06FFF727FF0120FFF7CE
S315080038101BFFF6E1DFF81006FFF71FFFDFF80C06BF
S31508003820FFF71BFFDFF80806FFF717FFDFF80406A8
S31508003830002101600021416002202070E1E120782A
S31508003840022840F02481DFF8C87517F50D76DFF8F1
S31508003850E88532004FF480714046FEF7B1FD97F8CF
S31508003860451200290CD000202070DFF8B805FFF7B4
S31508003870F4FE0220FFF7E8FE3000FEF737FCC0E151
S31508003880002819D0002218F5C071404600F0FCF94E
S31508003890050028005FF0FF3100B288420CD10020F5
S315080038A02070DFF88005FFF7D8FE0320FFF7CCFE6F
S315080038B03000FEF71BFCA4E1280000B201287BDBE0
S315080038C0DFF87095D9F80400002807D1D8F88001E8
S315080038D0C9F800002DB2C9F804506DE0D8F8801177
S315080038E0D9F80020D9F804008218914206D1D9F8EF
S315080038F004002DB22D18C9F804505DE0DFF828A59C
S315080039005046FFF7AAFEDFF83405FFF7A6FEDFF8F4
S3150800391030B55946D9F8040000F0C6FA5846FFF7FC
S315080039209CFEDFF82005FFF798FE5946D9F80000F7
S31508003930000EC0B200F0A5FA1BF10201D9F800008A
S31508003940000CC0B200F09DFA1BF10401D9F8000082
S31508003950000AC0B200F095FA1BF10601D9F800007A
S31508003960C0B200F08EFA5846FFF777FEA6A0FFF71A
S3150800397074FED9F80410D9F8000000F065FB002899
S315080039800CD100202070DFF89C04FFF766FE0520A6
S31508003990FFF75AFE3000FEF7A9FB32E15046FFF763
S315080039A05CFEDFF88C04FFF758FED8F88001C9F8EA
S315080039B000002DB2C9F80450D7F84802D7F84012CB
S315080039C0884240F01E8100213000FEF7A4FB002843
S315080039D00CD000202070DFF84C04FFF73EFE0420D0
S315080039E0FFF732FE3000FEF781FB0AE1DFF84454A8
S315080039F06868002844D0DFF83004FFF72EFEDFF8A9
S31508003A003C04FFF72AFEDFF838743900686800F0CE
S31508003A104BFA3800FFF721FEDFF82804FFF71DFEF2
S31508003A2039002868000EC0B200F02BFAB91C2868C5
S31508003A30000CC0B200F025FA391D2868000AC0B289
S31508003A4000F01FFAB91D2868C0B200F01AFA38004B
S31508003A50FFF703FE6CA0FFF700FE6968286800F010
S31508003A60F3FA00280CD100202070DFF8B803FFF71E
S31508003A70F4FD0520FFF7E8FD3000FEF737FBC0E050
S31508003A80DFF8A403FFF7E9FD03202070B9E02078EA
S31508003A90032840F0B680DFF8787317F50D76DFF85F
S31508003AA0988332004FF480714046FEF789FC97F8F8
S31508003AB0451200290CD000202070DFF88C03FFF790
S31508003AC0CCFD0220FFF7C0FD3000FEF70FFB98E0A3
S31508003AD000281AD018F5807218F5C071404600F013
S31508003AE0D3F8050028005FF0FF3100B288420CD1F8
S31508003AF000202070DFF85403FFF7AFFD0320FFF71F
S31508003B00A3FD3000FEF7F2FA7BE0280000B2012898
S31508003B104CDBCF48FFF7A1FDDFF824934946280080
S31508003B2000B200F0C1F94846FFF797FDC948FFF70C
S31508003B3094FD4946D8F88001000EC0B200F0A1F9FC
S31508003B4019F10201D8F88001000CC0B200F099F909
S31508003B5019F10401D8F88001000AC0B200F091F901
S31508003B6019F10601D8F88001C0B200F08AF9484672
S31508003B70FFF773FD24A0FFF770FD18F580722DB2CC
S31508003B802900D8F8800100F05BFA00280BD1002044
S31508003B902070A448FFF761FD0620FFF755FD3000A9
S31508003BA0FEF7A4FA2DE0A048FFF757FDD7F848021C
S31508003BB0D7F84012884224D1A748FFF74EFD00F0F7
S31508003BC04FFA00280BD1002020709648FFF745FDD4
S31508003BD00720FFF739FD3000FEF788FA11E0924812
S31508003BE0FFF73BFD9D48FFF738FD3000FEF77EFAEC
S31508003BF09B48FFF732FD00202070FFF70CFD00F010
S31508003C003DFABDE8F18F00002E2E2E0010B50400F7
S31508003C10207800F066FA532804D1607800F067FA35
S31508003C20002801D103200FE06078312801D1002057
S31508003C300AE06078322801D1012005E0607833284F
S31508003C4001D1022000E0032010BD70B50026841CB7
S31508003C50200000F041F90500AE19A41C200000F070
S31508003C603BF986196D1EA41C280080B20228F5DAD5
S31508003C70F6B2F643200000F02FF9F6B2864201D0DC
S31508003C80002000E0012070BD2DE9F04106000D007E
S31508003C9014000027002D01D0002E04D140F2632124
S31508003CA05C4800F043F93000FFF7B0FF8046404615
S31508003CB0C0B2032801D10020A6E03000FFF7C5FFF7
S31508003CC0002802D15FF0FF309EE05FFA88F8B8F16D
S31508003CD0000F04D0B8F1020F5AD028D392E0B71CCF
S31508003CE0380000F0F9F80600BF1C380000F0F4F8B8
S31508003CF000022860BF1C380000F0EEF82968C0B240
S31508003D0040182860BD1CF71E002C0FD0002607E0BF
S31508003D10280000F0E1F8310089B26054AD1C761C29
S31508003D20300080B2390009B28842F1DB6AE0B71C7C
S31508003D30380000F0D1F80600BF1C380000F0CCF8B7
S31508003D4000042860BF1C380000F0C6F82968C0B215
S31508003D5011EB00212960BF1C380000F0BDF8296866
S31508003D60C0B240182860BD1C371F002C0FD0002693
S31508003D7007E0280000F0B0F8310089B26054AD1CA5
S31508003D80761C300080B2390009B28842F1DB39E08E
S31508003D90B71C380000F0A0F80600BF1C380000F079
S31508003DA09BF800062860BF1C380000F095F82968C3
S31508003DB0C0B211EB00412960BF1C380000F08CF836
S31508003DC02968C0B211EB00212960BF1C380000F039
S31508003DD083F82968C0B240182860BD1C771F002CDC
S31508003DE00FD0002607E0280000F076F8310089B2E7
S31508003DF06054AD1C761C300080B2390009B2884286
S31508003E00F1DBFFE7380000B2BDE8F081671000205B
S31508003E100C0000204C6600084C670008D8660008AD
S31508003E204002002070690008786900087067000879
S31508003E307C6600083C1000209C0C00205069000895
S31508003E40B40F00204868000894670008B86700089F
S31508003E50F8680008B868000864680008D0680008B0
S31508003E60AC66000880B5010011F00F003030C9B209
S31508003E700A2901DBC01D02E0C0B200F032F9C0B267
S31508003E8002BD38B504000D002000C0B20009FFF7D6
S31508003E90E9FF287014F00F042000FFF7E3FF6870AD
S31508003EA00020A870280032BD0200491C0A23B2FB74
S31508003EB0F3F2002AF9D100220A70491E0A22B0FB41
S31508003EC0F2F302FB130230320A700A22B0FBF2F058
S31508003ED00028F2D10800704770B5040000250026B6
S31508003EE00CE030380100C9B20A2900DBC01FEDB268
S31508003EF029000500EDB215EB0115761C3000C0B29D
S31508003F00022810DA3000C0B2205C00F0EAF801009E
S31508003F10C9B23039172904D20100C9B23A3907297A
S31508003F20DFD2002001E02800C0B270BD80B5FFF7DF
S31508003F3015FBFCE710B500F0DFF800F076FB374C10
S31508003F400220207000F05AFC0020207010BD1CB51D
S31508003F50334C6946200000F000FC012807D10220F6
S31508003F602E4908709DF80010200000F0EAF869460E
S31508003F70200000F082FC012807D10020274908709C
S31508003F809DF80010200000F0DCF813BD704770B5EE
S31508003F9004000D00214E3078022804D12900C9B248
S31508003FA0200000F0ABFB3078002804D12900C9B204
S31508003FB0200000F041FC00F0BEF870BD17480078FC
S31508003FC0002806D0022808D005D3042809D006D32D
S31508003FD009E0812008E0002006E0082004E000202F
S31508003FE002E0002000E0812080B270470B4800788C
S31508003FF0002806D0022808D005D3042809D006D3FD
S3150800400009E0812008E0002006E0082004E00020FE
S3150800401002E0002000E0812080B2704708000020FE
S31508004020AC0E002010B5002400F07BF8002800D064
S3150800403001242000C0B210BD80B500F09BFC01BD74
S3150800404080B500F0A0FC02BD80B500F0CEFC02BD34
S3150800405080B500F02AFD02BD80B500F068FD02BDFE
S3150800406080B500F0EBFC002801D1002001E000F04B
S3150800407045FD02BD80B500F0B3FE01BD10B5FFF7E2
S31508004080E7FF002816D0FFF783FA002812D0FFF7BB
S315080040907DFF00F0C1FEFFF7C2F9FFF7DDFF064915
S315080040A0084006490860FFF7D7FF001D046800F0BE
S315080040B099FEA04710BD000080FFFF1F08ED00E035
S315080040C070B504000D00160005E0287820706D1CF8
S315080040D0641CFFF743FA3000461E80B20028F4D16C
S315080040E070BDA0F161011A2938BF203870473038F1
S315080040F00A288041C00F7047DFF86804002180F85D
S3150800410081100021C0F88810002180F88410002151
S31508004110A0F88610002180F88310002180F882100C
S315080041207047DFF8400490F88100002801D100208C
S3150800413000E0012070470020DFF8281481F8840089
S31508004140704710B50178FF2917D100F0A6F8DFF8F7
S31508004150144494F88400012802D1102000F07DF858
S31508004160B4F98600012807DB012084F88400B4F935
S315080041708610200000F054F810BDDFF8E81391F817
S31508004180811001294BD10178C92932D0CC293FD0D9
S31508004190CF293AD0D0292FD0D12933D0D2292ED021
S315080041A0F32917D0F4290FD0F5290AD0F6290ED00D
S315080041B0FA2912D0FC2913D0FD2914D0FE2915D0CE
S315080041C029E000F0E0F8C2E700F0FFF8BFE700F0EA
S315080041D0CDF8BCE700F020F9B9E700F0B2F8B6E789
S315080041E000F0AAF8B3E700F095F8B0E700F085F814
S315080041F0ADE700F042F9AAE700F061F9A7E700F099
S3150800420027F9A4E700F08CF9A1E700F0A0F99EE7EA
S3150800421000F0ACF99BE7202000F01FF897E7ABE722
S3150800422080B589B2FFF7B3FE01BDF8B504000D00ED
S315080042301600002704E02078C719641CFFF78EF9DA
S315080042402800451E0028F6D1FFB237600120F2BDCE
S315080042500020C44981F882007047C249FE220A70CC
S3150800426048700220A1F886007047010000200A78ED
S3150800427010434A7850EA02208A7850EA0240C97800
S3150800428050EA0160704708700200120A4A7002007C
S31508004290120C8A70000EC870704710B5FFF76AFADC
S315080042A0002803D11020FFF7D8FF25E0FFF7D0FF3D
S315080042B0AC4C012084F88100FF202070002060703B
S315080042C0607850F0100060700020A070A078A07090
S315080042D0FFF774FEE070FFF789FE2071FFF786FE90
S315080042E080B2000A60710120A0710120E0710820E7
S315080042F0A4F88600FFF7A0FE10BD10B5994C002063
S3150800430084F88100FFF7A4FFFF2020700120A4F89D
S31508004310860010BD9348FF2101700021417090F876
S31508004320821081700021C170002101710021417144
S315080043300621A0F88610704780B50020FFF78DFF8C
S3150800434001BD10B5874CFF2020708748C4F8880047
S31508004350002060700020A0700020E0700720211D5A
S31508004360FFF791FF0820A4F8860010BD10B57D4C14
S31508004370FF212170001DFFF778FFC4F8880001208F
S31508004380A4F8860010BD38B50400FFF717FE80B202
S31508004390401E6178884203DA2220FFF75EFF13E0A9
S315080043A06278704D681C92B2D5F88810FFF788FEBF
S315080043B0FF202870D5F8881060784118C5F888104D
S315080043C06078401CA5F8860031BD38B50400FFF7B3
S315080043D0F5FD80B2401E6178884203DA2220FFF795
S315080043E03CFF18E05F4D201DFFF73FFFC5F888002A
S315080043F06278681C92B2D5F88810FFF761FEFF2034
S315080044002870D5F8881060784118C5F88810607843
S31508004410401CA5F8860031BD1CB500210091514C01
S31508004420FF212170001DFFF720FF01006A46D4F81E
S315080044308800FFF7FAFE6070211D0098FFF723FF3A
S315080044400020A0700020E0700820A4F8860013BDA4
S3150800445010B5444CFF202070002060700020A0702A
S31508004460FFF7ACFDE070002020710020607100208D
S31508004470A0710720A4F8860010BD38B50400FFF720
S315080044809DFD0100374D621C89B2491ED5F888008A
S31508004490FFF7D6FD002803D13120FFF7DEFE0DE039
S315080044A0FF202870FFF78AFDD5F8881080B2401ED5
S315080044B04018C5F888000120A5F8860031BD38B532
S315080044C00400FFF77BFD80B2801E6178884203DA1C
S315080044D02220FFF7C2FE22E0224DFF20287001208D
S315080044E0A5F886006078002807D1FFF7B9FD0028EF
S315080044F002D13120FFF7B1FE11E0A21C6178D5F890
S315080045008800FFF79DFD002803D13120FFF7A5FE9F
S3150800451005E0D5F8881060784118C5F8881031BDCF
S3150800452038B5104CD4F88850001DFFF79EFE0100E0
S315080045302800FFF789FD002803D13120FFF78DFEFB
S3150800454004E0FF2020700120A4F8860031BD80B564
S31508004550FFF794FD0348FF2101700121A0F886109A
S3150800456001BD0000200E00208869000880B53120B2
S31508004570FFF773FE01BD0000F8B584B004000D0016
S3150800458016001F00684600F0E8FC02984FF47A719E
S31508004590B0FBF1F1002200E0521C1000C0B2122854
S315080045A040D2834BA4461FFA8CFC1000C0B213F805
S315080045B010E01000C0B203EB4000407810EB0E008C
S315080045C0401C00FB0CF0B1FBF0FC00FB1C100028A3
S315080045D0E2D1A4461FFA8CFC1000C0B213F810E012
S315080045E01000C0B203EB4000407810EB0E0E1EF12F
S315080045F0010E0EFB0CFCB1FBFCF028802888002875
S31508004600CAD0288840F2014C6045C5DA1000C0B20D
S3150800461013F810003070D2B203EB420040783870BD
S31508004620012000E0002005B0F0BD30B58BB00020B9
S31508004630ADF8020000208DF8010000208DF800007A
S3150800464040F267656B460DF101020DF102014FF468
S31508004650FA70FFF791FF002803D1B5215548FFF7F7
S3150800466065FC554C55482060002020760020607671
S315080046700020A0760120E0760020207700206077D1
S315080046800020A0600020E0609DF80100401E0004A4
S3150800469020619DF80000401E00056061BDF802001B
S315080046A06060200000F0DAFC002D02D46D05444855
S315080046B005E025F00045ED0055F0040541480021C8
S315080046C0069100210791012108912900090C019101
S315080046D0ADB202950100090C039180B20490002046
S315080046E00590012009900E200A9001A9200000F0EB
S315080046F06BFD200000F0FDFD0BB030BD30B587B076
S31508004700020040F2E170002803D4019000200390D3
S3150800471004E020F00040029004200390002004905A
S31508004720C9B20591244D6B4601A9280000F012FE76
S31508004730C0B200280FD1FEF7A2FE04003234009959
S31508004740280000F08CFE002805D0FEF707FFFEF7CC
S3150800475096FE8442F3D207B030BD78B587B0030021
S315080047600C0040F2676600256A460021124800F0F0
S315080047708CFE002812D1002E07D40098B0420DD125
S31508004780029800280AD1012508E026F0004601987B
S31508004790B04203D10298042800D101252800C0B2EE
S315080047A0012801D1049820702800C0B208B070BD55
S315080047B028670008D8650008F40F00200064004048
S315080047C00400E0FFFCFF1F00C16851F40051C160FE
S315080047D07047C16831F40051C160704700684009EC
S315080047E010F0010070470068C00910F0010070471A
S315080047F04068C0B27047C9B24160704718B587B003
S31508004800564C2000FFF7E5FF4FF46140009000206A
S31508004810019000200290002003900C2004900020B4
S315080048200590002006906946200000F06CFF2000E5
S31508004830FFF7CAFF08B010BD70B504000D002800C8
S31508004840C0B2822803DB7B214548FFF76FFB2800AF
S31508004850C0B200F06BF8002607E0FEF77FFE3000D6
S3150800486080B2205C00F062F8761C30002900C9B2DC
S3150800487080B289B28842F0D370BD2DE9F0410500B7
S315080048800E00384C2078002815D1374D280000F046
S315080048903DF8012837D12878002834D0287882288E
S315080048A031DAFEF7ECFD314908600020304908701E
S315080048B00120207027E02E4FDFF8AC80387840447E
S315080048C0401C00F023F8012814D13878401C3870B1
S315080048D0387898F80010884215D13A7892B218F1CB
S315080048E001012800FFF7ECFB0020207038783070B3
S315080048F0012009E0FEF7C3FD1C490968C831814259
S3150800490001D2002020700020BDE8F08138B50400EF
S31508004910124D2800FFF762FF002805D02800FFF790
S3150800492067FF2070012000E0002032BD38B5010085
S315080049300A4DC9B22800FFF75EFFFEF7A0FD040086
S315080049400A342800FFF74FFF002805D1FEF706FEB8
S31508004950FEF795FD8442F4D231BD000000480040C0
S31508004960986500086A100020300F002058100020B3
S31508004970691000205FF0FF30DFF854140860DFF894
S31508004980541408607047F8B504000D001600DFF8E7
S315080049904874F96B386C4118491E091B681E814218
S315080049A001D2002020E0200000F0EAF9FF2805D017
S315080049B02819401E00F0E4F9FF2801D1002013E071
S315080049C0600A40023968884207D12B00320021006C
S315080049D0DFF8000400F0DFF806E02B0032002100C3
S315080049E0DFF8EC0300F0D7F8F2BD70B504000D004F
S315080049F0DFF8E403C16B006C4118491E091B681EE9
S31508004A00814201D2002018E0200000F0B9F9060022
S31508004A102C19641E200000F0B3F93100C9B2FF2931
S31508004A2003D00100C9B2FF2901D1002005E0010029
S31508004A30C9B23000C0B200F05CF970BD80B5002084
S31508004A400090DFF89013086810F1010F01D10120DA
S31508004A502AE0009A486882180092009A88688218A4
S31508004A600092009AC86882180092009A086982180B
S31508004A700092009A486982180092009A88698218FA
S31508004A800092009AC869821800920098C043009064
S31508004A900098401C00906A460421DFF83C03006831
S31508004AA010F5C270FFF76FFF02BD0021DFF828235B
S31508004AB01068006841181068001D006841181068E1
S31508004AC008300068411810680C30006841181068F2
S31508004AD010300068411810681430006841181068D2
S31508004AE0183000684118106810F5C270006841183F
S31508004AF0002901D1012000E00020704780B5B548A3
S31508004B00016811F1010F05D000F08EF8002801D1D7
S31508004B1000200BE0AE48016811F1010F05D000F046
S31508004B2083F8002801D1002000E0012002BDAA4830
S31508004B300068704780B5CA0501D000200BE00268FE
S31508004B408A4201D1012006E001604FF40072001D7F
S31508004B50FFF7B6FA012002BD38B504000D009D48DE
S31508004B60844208D19A4C29002000FFF7E3FF002869
S31508004B700FD100200EE098490A68954202D1040038
S31508004B800D68F0E7200000F04FF80028EBD1002070
S31508004B9000E0200032BD2DE9F041040088461600E9
S31508004BA01D005FEA58277F02206810F1010F07D120
S31508004BB039002000FFF7BEFF002801D1002031E0B0
S31508004BC02068B84208D039002000FFF7C5FF040066
S31508004BD0002C01D1002025E02068B8EB000804EB82
S31508004BE0080010F10408FEF7B9FC201DB8EB000018
S31508004BF0B0F5007F09D317F500712000FFF7ACFF69
S31508004C000400002C0BD014F10408307888F8000052
S31508004C1018F10108761C6D1E002DE4D101E0002074
S31508004C2000E00120BDE8F0812DE9F04105000126EC
S31508004C3000F008FE002704E0D8F80000A04215D1CD
S31508004C407F1C802F13D2D5F8008018EB870805EB58
S31508004C5087004468FEF782FC2200002341460220B2
S31508004C6000F0B0FD0028E7D0002600E0002600F09E
S31508004C70F9FD3000C0B2BDE8F081F8B50024002186
S31508004C8000E0491C0A00D2B2062A2FD20C22524B47
S31508004C900D00EDB255431D442D7A0600F6B2B54215
S31508004CA0EFD10800C0B250431D58C9B2514303EBB7
S31508004CB00100466815F0030F02D116F0030F04D061
S31508004CC040F2A9214548FFF731F90124002701E000
S31508004CD02D1D7F1CB7EB960F08D2380601D1FEF7BB
S31508004CE03DFC286810F1010FF2D000242000C0B264
S31508004CF0F2BD70B586B004000D00012600200090B4
S31508004D0028002100C0B2C9B2884200D20026324823
S31508004D102100027AC9B2914205D390F844002900CD
S31508004D20C9B2884200D200263000C0B2012823D179
S31508004D3000200190022005900120049000F082FDD9
S31508004D4000E0641C28002100C0B2C9B2884211D311
S31508004D502000C0B2FFF791FF0028F2D1FEF7FEFB54
S31508004D602000C0B20390694601A800F02BFE002877
S31508004D70E7D0002600F076FD3000C0B206B070BD60
S31508004D8070B50400FF25002600E0761C3000C0B28E
S31508004D9006281AD2FEF7E2FB0C210F4A3000C0B2F1
S31508004DA0484310588442F0D33000C0B248431358E1
S31508004DB03000C0B2484310444068C3189C42E4D24D
S31508004DC0F6B24E4302EB0600057A2800C0B270BD63
S31508004DD09406002098080020106500085865000809
S31508004DE072B6704762B6704780B51948016851F4C3
S31508004DF000710160016851F480610160016851F435
S31508004E0080710160032000F0F8FE002000F01CFF0E
S31508004E1001F00BF8002002BD80B50E485FF0FF31A7
S31508004E200160002202600C480160002202600B4803
S31508004E300160002202600A480160002202600948F7
S31508004E4001600021016001F04CF8002002BD00005D
S31508004E50003C024020380240243802401038024004
S31508004E6014380240183802406F48016851F00101B1
S31508004E70016070476C480068400810F001007047F0
S31508004E8069490A6832F0F80252EAC0020A607047B5
S31508004E906648006810F00C0070476448006810F017
S31508004EA0F00070476148006810F4E05070475F48AA
S31508004EB0006810F4604070475B480068400E10F0C8
S31508004EC0010070475A480068C0F388107047584870
S31508004ED0006810F4403070475548006810F48000A8
S31508004EE070475348006810F03F0070474E48006806
S31508004EF0C00E10F0010070474F48016851F08071EC
S31508004F000160704780B50020FFF7AEFFFFF7B2FFDC
S31508004F100128FBD10020454908605FF0FF3147486A
S31508004F20014031F08061404801601020FFF7A8FF7A
S31508004F30FFF7C2FF0028FBD1FFF7D8FF0028FBD1F7
S31508004F403F483B4908603F483A49086000203E49C7
S31508004F500860FFF7D1FF002002BD10B5040000F07D
S31508004F600EF82060206800F01EF86060606800F0A7
S31508004F7025F8A060606800F02BF8E06010BD80B5E9
S31508004F800020FFF785FF002804D0042804D008284D
S31508004F9004D006E02D4805E02D4803E000F022F88D
S31508004FA000E02A4802BD10B50400FFF776FF29493C
S31508004FB0C0F30310085CC440200010BD10B50400FF
S31508004FC0FFF770FF2449800A085CC440200010BD22
S31508004FD010B50400FFF76BFF1F49400B085CC4407F
S31508004FE0200010BD70B500200020FFF775FF0028CF
S31508004FF003D0B0F5800F02D003E0144C02E0144C45
S3150800500000E0124CFFF76DFF0500FFF75BFF060097
S31508005010B4FBF5F006FB00F6FFF759FF000C401C41
S315080050204000B6FBF0F070BD003802400838024078
S31508005030043802408438024074380240FFFFF2FE0A
S3150800504010300024003000200C3802400024F40000
S3150800505040787D01186900088069000838B50400A1
S31508005060002C01D10120AEE094F82000002802D1DE
S31508005070200000F082FF2068006830F002002168F6
S315080050800860FEF723FA05002068406880070DD5FA
S31508005090FEF71CFA401B0B28F6D3606A50F4003062
S315080050A06062052084F8200001208CE020680068F2
S315080050B050F0010021680860FEF708FA050020682C
S315080050C04068C0070DD4FEF701FA401B0B28F6D33B
S315080050D0606A50F400306062052084F820000120E0
S315080050E071E0207E012806D12068006850F0800013
S315080050F02168086005E02068006830F080002168B3
S315080051000860607E012806D12068006850F04000DB
S315080051102168086005E02068006830F040002168D2
S315080051200860A07E012806D12068006850F020009B
S315080051302168086005E02068006830F020002168D2
S315080051400860E07E012806D12068006830F010006B
S315080051502168086005E02068006850F010002168A2
S315080051600860207F012806D12068006850F00800F2
S315080051702168086005E02068006830F008002168AA
S315080051800860607F012806D12068006850F0040096
S315080051902168086005E02068006830F0040021688E
S315080051A00860A168E068014320690143606901431A
S315080051B06068401E01432068C161002060620120CA
S315080051C084F82000002032BD30B4026890F8202010
S315080051D01300DBB2012B03D0D2B2022A40F0828040
S315080051E05B4AD2F8000250F00100C2F80002D2F879
S315080051F0000230F47C50C2F80002D2F800024B6A72
S3150800520050EA0320C2F800020123087D10F01F00AF
S315080052108340D2F81C029843C2F81C02C8690028C9
S3150800522018D1D2F80C029843C2F80C02486902EB6E
S31508005230C000CC684D68ADB255EA0445C0F8405286
S31508005240486902EBC0008C680D68ADB255EA0445A2
S31508005250C0F84452C869012818D1D2F80C0218437C
S31508005260C2F80C02486902EBC0000C684D68ADB282
S3150800527055EA0445C0F84052486902EBC0008C68FC
S31508005280CD68ADB255EA0445C0F84452886900288D
S3150800529005D1D2F804029843C2F8040204E0D2F811
S315080052A004021843C2F804020869002805D1D2F896
S315080052B014029843C2F8140204E0D2F81402184300
S315080052C0C2F81402086A012804D1D2F81C02034362
S315080052D0C2F81C32D2F8000240084000C2F80002A8
S315080052E0002004E0416A51F480214162012030BC6B
S315080052F0704738B5040094F82000012821D102200F
S3150800530084F820002068006840084000216808608A
S31508005310FEF7DCF8050020684068C0070DD5FEF7E3
S31508005320D5F8401B0B28F6D3606A50F4003060624B
S31508005330052084F82000012008E000206062002093
S3150800534004E0606A50F400206062012032BD00006B
S315080053500064004070B490F820500468A6688C6811
S31508005360002CFFD02C00E4B2012C02D0EDB2022DA5
S315080053706ED116F0E05F65D0C6F30164032C05D341
S31508005380416A51F400014162012066E00125A54009
S315080053901D608B68002B09D10B68CD6855EA43550B
S315080053A0036826013344C3F880510AE04B688D68C8
S315080053B055EAC305CB681D43036826013344C3F881
S315080053C080510B69056826013544C5F88431097D85
S315080053D001290BD1016823011944D1F8841151F42C
S315080053E08071036825012B44C3F88411D179937918
S315080053F01B0453EA0163517953EA012311790B43DC
S31508005400016825012944C1F88C31D17893781B04A9
S3150800541053EA0163517853EA012311780B43016873
S3150800542022011144C1F88831016822011144D1F8DA
S31508005430801151F00101006824012044C0F8801150
S3150800544000200AE0416A51F400114162012004E09B
S31508005450416A51F480214162012070BC704710B442
S315080054600200002092F820301C00E4B2012C02D081
S31508005470DBB2022B07D11268926812EA8162B2EB9C
S31508005480816F00D0012010BC704730B490F82040DE
S315080054902500EDB2012D03D0E4B2022C40F098802D
S315080054A000290AD10468E46814F0030F10D1416A90
S315080054B051F40011416201208FE00468246914F058
S315080054C0030F05D1416A51F400114162012084E0BD
S315080054D004680D012C44D4F8B04114F00404946017
S315080054E09468002C07D104680D012C44D4F8B04107
S315080054F0640D146006E004680D012C44D4F8B0412C
