S02B000062696E2F6F70656E626C745F64656D6F70726F675F6E75636C656F5F73746D33326631303372622EC3
S31508000000FC0600200D100008F10F0008F10F00088B
S31508000010F10F0008F10F0008F10F0008F10F0008B2
S31508000020F10F0008F10F0008F10F0008F10F0008A2
S31508000030F10F0008F10F0008F10F0008F10F000892
S31508000040F10F0008F10F0008F10F0008F10F000882
S31508000050F10F0008F10F0008F10F0008F10F000872
S31508000060F10F0008F10F0008F10F0008F10F000862
S31508000070F10F0008F10F0008F10F0008F10F000852
S31508000080F10F0008F10F0008F10F0008F10F000842
S31508000090F10F0008F10F0008F10F0008F10F000832
S315080000A0F10F0008F10F0008F10F0008F10F000822
S315080000B0F10F0008F10F0008F10F0008F10F000812
S315080000C0F10F0008F10F0008F10F0008F10F000802
S315080000D0F10F0008F10F0008F10F0008F10F0008F2
S315080000E0F10F0008F10F0008F10F0008F10F0008E2
S315080000F0F10F0008F10F0008F10F0008F10F0008D2
S31508000100F10F0008F10F0008F10F0008F10F0008C1
S31508000110F10F0008F10F0008F10F0008F10F0008B1
S31508000120F10F0008F10F0008F10F0008F10F0008A1
S31508000130F10F0008F10F0008F10F0008F10F000891
S31508000140F10F0008F10F0008F10F0008F10F000881
S3150800015000B583B00023009301934FF48053C4F293
S3150800016002031A6842F001021A6059680022CFF6A3
S31508000170FF020A405A601A6822F0847222F480321A
S315080001801A601A6822F480221A605A6822F4FE025B
S315080001905A604FF41F029A601A6842F480321A6055
S315080001A04FF48053C4F2020340F2DC52196801F49A
S315080001B000310191009901310091019911B9009915
S315080001C09142F3D14FF48053C4F202031B6813F42F
S315080001D0003F06D141F26800C0F600006E2100F02B
S315080001E0FDFA4FF40053C4F202031A6842F01002F3
S315080001F01A601A6822F003021A601A6842F00202AC
S315080002001A604FF48053C4F202035A685A605A6857
S3150800021042F400525A605A6842F480625A605A6838
S3150800022022F47C125A605A6842F4E8125A601A6834
S3150800023042F080721A604FF48053C4F202031A68BF
S3150800024012F0007FFBD04FF48053C4F202035A68C1
S3150800025022F003025A605A6842F002025A604FF4CA
S315080002608053C4F202035A6802F00C02082AFAD133
S315080002704FF48053C4F20203DA6942F40032DA61B9
S315080002809A6942F005029A614FF40063C4F20103C9
S315080002901A6822F470621A601A6842F430621A60A8
S315080002A01A6822F470421A601A6842F480421A6088
S315080002B000F004F800F010F8FCE700BF08B500F0FD
S315080002C09BFA00F087FA00F0D1FB00F0B1FB00F0D2
S315080002D00DF800F06DFA08BD08B500F07DFA00F0DB
S315080002E0E1FB00F00FF800F043FA08BD08B500F08E
S315080002F063F800F0D7FA40F20003C2F200030022C6
S315080003001A7008BD08B540F20400C2F2000000F0F9
S3150800031013FB01280BD140F20003C2F200030022AE
S315080003201A7040F20400C2F2000000F065F808BD39
S31508000330704700BF08B540F20003C2F200031B78FD
S3150800034013B9C9B200F0C4FA00F04EF808BD00BFF0
S3150800035040F20003C2F200031878022806D00328E8
S3150800036006D001280CBF082040207047002070479F
S315080003700020704740F20003C2F2000318780228F2
S3150800038006D0032806D001280CBF08204020704755
S31508000390002070470020704708B500F01BF808BD1C
S315080003A040F24403C2F20003FE22DA7018710222F8
S315080003B0A3F84420704700BF40F24403C2F200038A
S315080003C000221A709A6483F84320A3F844209A708E
S315080003D05A70704740F24403C2F20003187800309E
S315080003E018BF0120704700BF40F24403C2F2000361
S315080003F0002283F84320704738B504460178FF2960
S315080004001CD140F24404C2F20004002363700125A3
S315080004102570FF22E270102222716371FFF798FFA0
S31508000420A071FFF7A7FFE071FFF7A4FF000A20728B
S315080004306572A5720823A4F8443079E140F24403B2
S31508000440C2F200031B78012B40F09081C939352987
S3150800045000F26B81DFE811F0DB00690169016501D3
S31508000460690169015901FC0042012F01690169010D
S31508000470690169016901690169016901690169011E
S31508000480690169016901690169016901690169010E
S3150800049069016901690169016901690169016901FE
S315080004A06901690169016901690169017F005400EF
S315080004B036007300690169016901A1006901B90083
S315080004C0BD00CE004578FFF743FF0138854203DDBE
S315080004D02220FFF765FF2BE140F24405C2F2000532
S315080004E0281DA96C627800F0A5F9FF23EB706278E5
S315080004F0AB6C1344AB6463780133A5F8443017E159
S315080005004578FFF725FF0138854203DD2220FFF7EE
S3150800051047FF0DE1616840F24405C2F20005A9648F
S31508000520281D627800F086F9FF23EB706278AB6CC1
S315080005301344AB6463780133A5F84430F8E040F21D
S315080005404403C2F20003FF22DA7042689A64012269
S31508000550A3F84420ECE040F24403C2F20003FF2271
S31508000560DA709B6C406840B11844002213F8011BEE
S315080005700A44D2B28342F9D100E0002240F2440391
S31508000580C2F20003C3F8072001221A7100225A7129
S315080005909A710822A3F84420CAE040F24403C2F242
S315080005A00003FF22DA7041F27002C0F600029A6474
S315080005B000221A715A719A710721D9711A725A72E0
S315080005C09A720822A3F84420B2E00020FFF7E8FE5A
S315080005D0AEE040F24403C2F20003FF22DA700022C2
S315080005E01A71597859719A71DA711A720622A3F832
S315080005F044209DE040F24403C2F2000300221A7030
S315080006005A70FF22DA700122A3F8442090E040F2E3
S315080006104403C2F200039D6CFFF79AFE411E28466A
S31508000620621C00F009FA18B93120FFF7B9FE7FE01D
S3150800063040F24404C2F20004FF23E370A56CFFF7FE
S3150800064087FE013D2844A0640123A4F844306FE0E6
S315080006504578FFF77DFE0238854203DD2220FFF745
S315080006609FFE65E040F24403C2F20003FF22DA70FF
S315080006700122A3F84420617839B900F0EDF9002881
S3150800068056D13120FFF78CFE52E040F24403C2F205
S315080006900003986CA21C00F0CFF918B93120FFF7B7
S315080006A07FFE45E040F24403C2F2000361789A6C8B
S315080006B00A449A643CE040F24404C2F20004FF2370
S315080006C0E370002525716571FFF742FEA071E5719B
S315080006D0257265720723A4F8443029E040F24403E2
S315080006E0C2F20003986C616800F0AAF918B93120C3
S315080006F0FFF756FE1CE040F24403C2F20003FF2255
S31508000700DA700122A3F8442012E000F079F840F2EA
S315080007104403C2F20003FF22DA700122A3F8442040
S3150800072006E03120FFF73CFE02E02020FFF738FE06
S3150800073040F24403C2F2000393F84330012B02D17E
S315080007401020FFF72DFE40F24403C2F20003B3F86F
S3150800075044100BB2002B09DD40F24400C2F200003F
S31508000760012380F843300330FFF7E4FD38BD00BFAE
S3150800077008B5FFF711FE012819D040F29003C2F21E
S3150800078000031B78012B12D100F09EF940F2940366
S31508000790C2F200031B6803F5FA73984207D340F2C6
S315080007A09003C2F2000300221A7000F029F808BD6F
S315080007B008B540F29003C2F2000301221A7000F055
S315080007C083F940F29403C2F200031860FFF7D0FFE2
S315080007D008BD00BF704700BF704700BF08B540F2AC
S315080007E09803C2F20003186040F29C03C2F20003A9
S315080007F01960FFF7F1FFFCE708B500F003FC08BD38
S3150800080010B500F021F9A0B1FFF792FD00F042F90A
S3150800081000F01EF920F0604020F07F004EF60853E5
S31508000820CEF20003186000F013F9446800F0ECFB00
S31508000830A04710BD70B5561EB6B24AB14C1E0E443E
S31508000840451A14F8013F2B55FFF7C6FFB442F8D1F5
S3150800085070BD00BF10B54FF48843C4F200031B886F
S3150800086003F080039BB2B3B14FF48843C4F200038C
S3150800087098801B8803F080039BB273B94FF48844B1
S31508000880C4F20004FFF7A8FF238803F080039BB295
S31508000890002BF7D003E0002010BD012010BD012079
S315080008A010BD00BF4FF48843C4F2000300221A812A
S315080008B09A811A829A821A8340F271221A819A8937
S315080008C092B242F4005242F00C029A81704700BF7D
S315080008D02DE9F04106460C46402906D941F2780032
S315080008E0C0F600008D21FFF779FF2046FFF7B2FF1B
S315080008F0012806D041F27800C0F600009121FFF7E2
S315080009006DFF2546ACB1002441F27807C0F6000712
S315080009104FF09A08FFF760FF305DFFF79BFF01284D
S3150800092003D038464146FFF759FF0134A3B2AB421C
S31508000930F0D3BDE8F08100BF10B540F2EC03C2F277
S3150800094000031B785BBB4FF48843C4F200031B8883
S3150800095003F020039BB2002B56D04FF48843C4F211
S3150800096000039A8892B240F2A803C2F200031A70F2
S3150800097012F0FF0F4AD000F0A7F840F2A003C2F227
S315080009800003186040F2A403C2F2000300201870A6
S3150800099040F2EC03C2F2000301221A7010BD40F2C5
S315080009A0A403C2F200031A784FF48843C4F2000382
S315080009B01B8803F020039BB263B34FF48843C4F249
S315080009C000039C8840F2A803C2F2000399184C70F1
S315080009D00132D2B240F2A401C2F200010A701B78B9
S315080009E0934215D11149FFF725FF40F2EC03C2F2F5
S315080009F0000300221A70012010BD40F2EC03C2F277
S31508000A0000030020187010BD002010BD002010BD86
S31508000A10002010BD00F058F840F2A003C2F200030F
S31508000A201B6864339842E8D8002010BDA90000204E
S31508000A3008B500F05BF908BD08B500F065F908BD12
S31508000A4008B500F089F908BD08B500F071FA08BDC7
S31508000A5008B500F0C7FA08BD08B500F03DFA10B1B0
S31508000A6000F09AFA08BD002008BD00BF4EF2100338
S31508000A70CEF2000300221A6041F63F11C0F20101CE
S31508000A8059609A600521196040F2F003C2F200032A
S31508000A901A6070474EF21003CEF2000300221A6065
S31508000AA0704700BF4EF21003CEF200031B6813F422
S31508000AB0803F1FBF40F2F003C2F200031A680132FA
S31508000AC018BF1A60704700BF08B5FFF7EBFF40F282
S31508000AD0F003C2F20003186808BD00BF4FF40053C4
S31508000AE0C4F202031A6942F080021A61704700BF15
S31508000AF0F8B507460024254641F29C06C0F60006CE
S31508000B00FFF76AFEA359BB420ED8311949680B4450
S31508000B109F4209D241F29C03C0F6000305EB450249
S31508000B2003EB8203187AF8BD01350C349C2CE7D107
S31508000B30FF20F8BD2DE9F84380460068FFF7D8FF87
S31508000B40FF285CD04FF40053C4F2020340F223128C
S31508000B50C4F267525A6048F6AB12CCF6EF525A60A6
S31508000B603422DA60DB6813F0010F04D0FFF7B6FF12
S31508000B700020BDE8F8834FF40053C4F202031A6953
S31508000B8042F001021A61002508F104094FF40054E5
S31508000B90C4F20204D8F80030EF1859F80560B2B26A
S31508000BA0EA52E36813F0010F05D0FFF715FEE36874
S31508000BB013F0010FF9D1330C7B80E36813F0010FB2
S31508000BC005D0FFF709FEE36813F0010FF9D13B687A
S31508000BD0B34204D10435B5F5007FDBD101E000242A
S31508000BE000E001244FF40053C4F202031A6922F00C
S31508000BF001021A61FFF772FF2046BDE8F88300205C
S31508000C00BDE8F88338B504460D4640F2F403C2F24F
S31508000C100003984209D04FF4C043C0F60003994236
S31508000C200BD0FFF787FF20B917E040F2F824C2F28D
S31508000C300004C5F3080393B903E040F2F404C2F2D2
S31508000C40000423689D420CD0204640F8045B2946E0
S31508000C504FF40072FFF7EEFD03E0002038BD0020D8
S31508000C6038BD204638BD00BF2DE9F04106460C4682
S31508000C7017461D464FEA51284FEA48280368B3F13C
S31508000C80FF3F06D140F8048B41464FF40072FFF748
S31508000C90D1FD3368434505D030464146FFF7B2FFDC
S31508000CA00646D0B13368E41A3444043408F50078AB
S31508000CB0FFF792FD331DE31AB3F5007F06D33046DE
S31508000CC04146FFF79FFF064650B1041D17F8013B42
S31508000CD004F8013B013DEBD105E00020BDE8F081B9
S31508000CE00020BDE8F0810120BDE8F08140F2F8233C
S31508000CF0C2F200034FF0FF321A6040F2F403C2F268
S31508000D0000031A60704700BF70B504460D461646C4
S31508000D10FFF7EEFEFF281BD0681E2044FFF7E8FE0B
S31508000D20FF2817D0620A4FF4C043C0F60003B3EB9E
S31508000D30422F07BF40F2F400C2F2000040F2F8204A
S31508000D40C2F20000214632462B46FFF78DFF70BDE2
S31508000D50002070BD002070BD2DE9F84304460E46FC
S31508000D60FFF7C6FE0546701E2044FFF7C1FE04467F
S31508000D70FF2D18BFFF2800F0AB80854200F29F8048
S31508000D80022D40F29F800F2800F29F804FF40053F7
S31508000D90C4F2020340F22312C4F267525A6048F6BC
S31508000DA0AB12CCF6EF525A603422DA60DB6813F0E5
S31508000DB0010F04D0FFF792FE0020BDE8F8834FF438
S31508000DC00053C4F202031A6942F002021A6141F2A0
S31508000DD09C09C0F600094F460026FFF7FDFC3B7A42
S31508000DE0AB4208D141F29C03C0F6000306EB46026B
S31508000DF053F8227005E001360C370D2EEDD14FF071
S31508000E00FF37C8460025FFF7E7FC98F80830A342E5
S31508000E1008D141F29C03C0F6000305EB450253F8DE
S31508000E20228006E0013508F10C080D2DEBD14FF0B4
S31508000E30FF384E460025FFF7CFFC337AA34209D187
S31508000E4041F29C03C0F6000305EB450203EB82035F
S31508000E505B6804E001350C360D2DECD10023C7EB99
S31508000E6008084344C3F38F23E3B1013B9EB201361E
S31508000E70B60200254FF40054C4F20204EB1963616C
S31508000E80236943F040032361E36813F0010F05D09B
S31508000E90FFF7A2FCE36813F0010FF9D105F58065A9
S31508000EA0B542EBD14FF40053C4F202031A6922F09B
S31508000EB002021A61FFF712FE0120BDE8F88300203E
S31508000EC0BDE8F8830020BDE8F8830020BDE8F88374
S31508000ED00020BDE8F88300BF00B583B040F2F403F4
S31508000EE0C2F200031B68B3F1FF3F08BF01201CD004
S31508000EF040F2F403C2F2000399685A681144DA68AA
S31508000F0011441A6911445A6911449A690A44D969FB
S31508000F1053185B4202AA42F8043D46F25010C0F646
S31508000F2000000421FFF7F0FEFFE703B05DF804FBBD
S31508000F3046F20402C0F600024FF4C043C0F60003AE
S31508000F4010681B68184446F20803C0F600031B68BD
S31508000F50184446F20C03C0F600031B68184446F210
S31508000F601003C0F600031B68184446F21403C0F6C3
S31508000F7000031B68184446F21803C0F600031B68F2
S31508000F80184446F25013C0F600031B681844D0F103
S31508000F90010038BF0020704708B540F2F403C2F2DA
S31508000FA000031B68B3F1FF3F06D040F2F400C2F21B
S31508000FB00000FFF7BFFD88B140F2F823C2F2000334
S31508000FC01B68B3F1FF3F0BD040F2F820C2F20000D5
S31508000FD0FFF7B0FD003018BF012008BD002008BD8E
S31508000FE0012008BD4FF4C040C0F60000704700BF9E
S31508000FF008B541F23810C0F600003121FFF7EEFBC4
S3150800100008BD00BF72B6704762B6704710B540F2A9
S315080010100002C2F2000240F20103C2F200039A4241
S3150800102010D2131D0D4CE41A24F0030404340023D3
S31508001030104641F26411C0F600015A581A5004339A
S31508001040A342FAD1064807494FF000028842B8BFC2
S3150800105040F8042BFADBFFF77BF810BD04000020EC
S3150800106004000020FC0400206D61696E2E630000F8
S315080010704F70656E424C54002E2E2F2E2E2F2E2E7C
S315080010802F536F757263652F41524D434D335F532E
S31508001090544D33322F756172742E63000060000858
S315080010A00020000003000000008000080020000067
S315080010B00400000000A00008002000000500000051
S315080010C000C00008002000000600000000E000083C
S315080010D000200000070000000000010800200000B2
S315080010E00800000000200108002000000900000098
S315080010F000400108002000000A0000000060010806
S31508001100002000000B0000000080010800200000FD
S315080011100C00000000A00108002000000D000000DF
S3150800112000C00108002000000E00000000E00108D1
S31508001130002000000F0000002E2E2F2E2E2F2E2E00
S315080011402F536F757263652F41524D434D335F536D
S31508001150544D33322F4743432F766563746F72734A
S309080011602E630000EC
S306080011640478
S70508000000F2
