S01A000064656D6F70726F675F73746D3332673433312E7372656396
S3150800300000800020AD3B0008813B0008833B000898
S31508003010853B0008873B0008893B00080000000044
S315080030200000000000000000000000008B3B0008C4
S315080030308D3B0008000000008F3B0008913B00080C
S31508003040FD3B0008FD3B0008FD3B0008FD3B000872
S31508003050FD3B0008FD3B0008FD3B0008FD3B000862
S31508003060FD3B0008FD3B0008FD3B0008FD3B000852
S31508003070FD3B0008FD3B0008FD3B0008FD3B000842
S31508003080FD3B000800000000FD3B0008FD3B000872
S31508003090FD3B0008FD3B0008FD3B0008FD3B000822
S315080030A0FD3B0008FD3B0008FD3B0008FD3B000812
S315080030B0FD3B0008FD3B0008FD3B0008FD3B000802
S315080030C0FD3B0008FD3B0008FD3B0008FD3B0008F2
S315080030D0FD3B0008FD3B0008FD3B0008FD3B0008E2
S315080030E0FD3B0008FD3B0008FD3B0008FD3B0008D2
S315080030F0FD3B0008FD3B0008FD3B00080000000002
S3150800310000000000FD3B000800000000FD3B000831
S31508003110FD3B000800000000FD3B0008FD3B0008E1
S31508003120FD3B0008FD3B0008FD3B0008FD3B000891
S31508003130FD3B00080000000000000000FD3B000801
S31508003140FD3B0008FD3B00080000000000000000F1
S315080031500000000000000000000000000000000061
S31508003160000000000000000000000000FD3B000811
S31508003170FD3B000800000000000000000000000001
S3150800318000000000FD3B00080000000000000000F1
S315080031900000000000000000000000000000000021
S315080031A00000000000000000FD3B0008FD3B000891
S315080031B0FD3B0008FD3B0008FD3B00080000000041
S315080031C000000000FD3B00080000000000000000B1
S311080031D0FD3B0008FD3B0008EE11AA5567
S315080031DC10B5054C237833B9044B13B10448AFF337
S315080031EC00800123237010BD0C0000200000000095
S315080031FCB05D000808B5034B1BB103490348AFF390
S3150800320C008008BD0000000010000020B05D00081A
S3150800321C53B94AB9002908BF00281CBF4FF0FF3123
S3150800322C4FF0FF3000F088B9ADF1080C6DE904CE0B
S3150800323C00F006F8DDF804E0DDE9022304B0704777
S3150800324C2DE9F047089D8E4604468846002B4AD140
S3150800325C8A42174662D9B2FA82F64EB1C6F12003F3
S3150800326C01FA06F820FA03F3B74043EA0808B44013
S3150800327C4FEA174E1FFA87FCB8FBFEF1230C0EFB20
S3150800328C118843EA084301FB0CF29A4209D9FB1848
S3150800329C01F1FF3080F0EA809A4240F2E780023969
S315080032AC3B449A1AA3B2B2FBFEF00EFB102243EA79
S315080032BC024300FB0CFC9C4509D9FB1800F1FF32B4
S315080032CC80F0D6809C4540F2D3803B44023840EAD5
S315080032DC0140A3EB0C0300211DB1F3400022C5E904
S315080032EC0032BDE8F0878B4205D90DB1C5E900015E
S315080032FC00210846F5E7B3FA83F1002946D1734550
S3150800330C02D3824200F20581841A6EEB0302012075
S3150800331C9046002DE5D0C5E90048E2E7002A00F002
S3150800332C9080B2FA82F6002E40F0A4808A1A030C1A
S3150800333C4FEA174E80B2BCB20121B2FBFEFC0EFB63
S3150800334C1C2243EA024304FB0CF29A4207D9FB18E7
S3150800335C0CF1FF3802D29A4200F2E080C4469B1A5E
S3150800336CB3FBFEF20EFB123340EA034302FB04F4F2
S3150800337C9C4207D9FB1802F1FF3002D29C4200F29C
S3150800338CCA8002461B1B42EA0C40A5E7C1F120067F
S3150800339C8B4022FA06F71F430EFA01F420FA06F3BD
S315080033AC2EFA06FE4FEA1749234300FA01F81FFACC
S315080033BC87FCBEFBF9F01C0C09FB10EE44EA0E4424
S315080033CC00FB0CFEA64502FA01F209D93C1900F1DC
S315080033DCFF3A80F09C80A64540F2998002383C441E
S315080033ECA4EB0E041FFA83FEB4FBF9F309FB134492
S315080033FC4EEA044403FB0CFCA44508D93C1903F11A
S3150800340CFF3E80F08280A4457FD9023B3C4443EAC8
S3150800341C0040A4EB0C04A0FB02EC64457346E146A1
S3150800342C62D35FD05DB1B8EB030264EB090404FA0E
S3150800343C06F622FA01F31E43CC40C5E900640021C6
S3150800344C4FE7B1FBF2FC010C41EA0E4180B240EAAF
S3150800345C01423B4638463C46B846BE462026B1FB9A
S3150800346CF7F1A2EB080241EA0C4166E7014618E7B8
S3150800347C10462CE7C6F120022EFA02F3B740B140EB
S3150800348C20FA02F24FEA174E0A43B3FBFEF8BCB217
S3150800349C0EFB1833110C41EA034108FB04F9B04042
S315080034AC89454FEA104380B23ED9791808F1FF3C9A
S315080034BC01D289451FD8A1EB0901B1FBFEF909FB1D
S315080034CC04F80EFB191192B242EA0142424529D27E
S315080034DCBA1809F1FF31C4D24245C2D2A9F1020188
S315080034EC3A44BEE7F0459DD2BEEB02036CEB070CE3
S315080034FC0138E14696E7A7EB09094944A8F1020CFD
S3150800350CB1FBFEF909FB04F8DBE773467FE7504687
S3150800351C66E70846FDE63B44023A33E7ACF1020C93
S3150800352C3B441CE749469CE7A1EB0901C446B1FBA1
S3150800353CFEF909FB04F8C4E7704700BF08B500F0AC
S3150800354CE3F900F0B3F900F02FF908BD08B500F05F
S3150800355CB5F900F0A5F908BDBFF34F8F0549CA6840
S3150800356C02F4E062044B1343CB60BFF34F8F00BFEA
S3150800357CFDE700BF00ED00E00400FA052DE9F04F69
S3150800358C83B0A0F51C53103B404CA34274D80029B9
S3150800359C76D0002A76D00D898B89019305EB030C1E
S315080035AC1FFA8CFC0CF1010C1FFA8CFC4E89B1F835
S315080035BC0E8006EB080E1FFA8EFE0EF1010E1FFA90
S315080035CC8EFE8B8804E00120D08056E001339BB236
S315080035DCCC889C424ED30C6800FB0CF94C4553D353
S315080035ECB4FBF3F903FB1947002FEFD14C46B9FB93
S315080035FCF0F900FB1949B9F1000FE7D1B4FBF0F467
S3150800360C1FFA84F9CC45E1D8CE45DFD34C464FEAB0
S3150800361C490A0AF1090ADFF878B0ABFB0AAB4FEA9C
S3150800362CDB0AA9EBDB091FFA89F909F1FF391FFA3D
S3150800363C89F94D45CAD84E45C8D3019F5745C5D8B3
S3150800364CD045C3D34FF0640B09FB0BBBBBFBF4F49F
S3150800365CE4B2413CE4B20F2CB8D81380A2F802901D
S3150800366CA2F804A04FEA5A03D380BAF1010FAAD9DB
S3150800367C012002E0002000E0002003B0BDE8F08F36
S3150800368C0020FAE70020F8E70020F6E7F0EA7900D0
S3150800369CCDCCCCCC08B50A480A4B03604FF4614331
S315080036AC436000238360C360036183610C2242611B
S315080036BCC361036204224262836202F014FB08BDF2
S315080036CC1C0100200044004070B58EB000260296FE
S315080036DC03962B4C2B4B2360204600F0C1F94FF474
S315080036EC805001F06FFC04900125ADF814504FF48E
S315080036FC0073ADF81630ADF818504FF48073ADF86A
S3150800370C1A30ADF81C508023ADF81E3002AA04A955
S3150800371C1D48FFF733FF6660A660E660257465747E
S3150800372CA674BDF808306361BDF80A30E361BDF8CC
S3150800373C0C302362BDF80E30A3616562A562E562A2
S3150800374C25636563A663E663204600F03BFB089693
S3150800375C09960A950B9540F267630C930D9308A985
S3150800376C204600F019FC00952B46022211462046ED
S3150800377C00F045FC204600F063FC0EB070BD00BF9F
S3150800378CB80000200064004020A1070008B50146D7
S3150800379C00230122034802F0B5F908B1002008BD40
S315080037AC0120FCE71C01002008B5FFF773FFFFF7A3
S315080037BC8BFF08BD08B5FFF7CFFE000008B5214BF7
S315080037CC1B78B3B92048FFF7E1FF012800D008BDE4
S315080037DC1D4B1B78013BDBB2802BF8D800F095F813
S315080037EC1A4B1860174B01221A70194B00221A70C3
S315080037FCEDE7174B1B78013313481844FFF7C6FF40
S3150800380C012813D1124A13780133DBB213700E4A0E
S3150800381C12789342DBD10B4A002111700A4A52786E
S3150800382CFF2AD4D1022BD2D1FFF7C4FF00F06DF8D2
S3150800383C064B1B6864339842C9D9024B00221A708E
S3150800384CC5E700BFB4000020300000202C00002083
S3150800385C2800002000B58DB04021104800F0ACFCC3
S3150800386C10B90DB05DF804FB6B4602AA40210B4853
S3150800387C00F0FEFB0028F4D1029A40F267639A42E4
S3150800388CEFD1039B002BECD19DF814209DF800304A
S3150800389CFF2BE6D1022AE4D1FFF78CFFB8000020F3
S315080038AC08B5FFF78BFFFFF7D5FF08BD08B5002253
S315080038BC20214FF0904000F077FD08BD10B500F0C0
S315080038CC24F80F4B1B68C31AB3F5FA7F0DD30446BD
S315080038DC0C4B1B7853B901220A4B1A7020214FF056
S315080038EC904000F061FD064B1C6010BD0022054B94
S315080038FC1A7020214FF0904000F056FDF3E700BFF8
S3150800390CB4010020B0010020704708B500F0B6F9E4
S3150800391C08BD0000014A024B9A6070470030000847
S3150800392C00ED00E010B588B00024039404940594C7
S3150800393C06940794174BDA6C42F02002DA64DA6CB8
S3150800394C02F020020092009ADA6C42F00102DA6464
S3150800395CDA6C02F001020192019ADA6C42F0020268
S3150800396CDA64DB6C03F002030293029B22462021E5
S3150800397C4FF0904000F018FD202303930123049385
S3150800398C0594069403A94FF0904000F023FC08B068
S3150800399C10BD00BF0010024072B6FEE700B595B028
S315080039AC3822002106A802F0D1F9002001900290D5
S315080039BC03900490059000F0FDFC012306934FF448
S315080039CC8033079302230D9303220E920F9228221B
S315080039DC1092119304221292139306A800F0A4FDD8
S315080039EC80B90F23019303230293002303930493B3
S315080039FC059304210DEB010001F04CF820B915B024
S31508003A0C5DF804FBFFF7C8FFFFF7C6FF08B5FFF71D
S31508003A1C81FF00F017F9FFF7C1FFFFF783FFFFF7E8
S31508003A2C8DFDFFF793FDFCE700B583B00B4B1A6EC3
S31508003A3C42F001021A661A6E02F001020092009A0E
S31508003A4C9A6D42F080529A659B6D03F080530193F0
S31508003A5C019B00F035FD03B05DF804FB0010024035
S31508003A6C10B598B00446002113911491159116912E
S31508003A7C1791442202A802F069F92268194B9A4256
S31508003A8C01D018B010BD4FF4805302934FF08073D9
S31508003A9C0E9302A801F024F908BB134B9A6D42F059
S31508003AAC00729A659A6D02F000720092009ADA6CAE
S31508003ABC42F00202DA64DB6C03F002030193019B09
S31508003ACC4FF4407313930223149300231593169300
S31508003ADC0923179313A9054800F07CFBD1E7FFF7D8
S31508003AEC5BFFDAE70064004000100240000400485F
S31508003AFC10B598B00446002113911491159116919E
S31508003B0C1791442202A802F021F92268174B9A420F
S31508003B1C01D018B010BD0223029302A801F0E0F8F8
S31508003B2C08BB134B9A6D42F400329A659A6D02F4EF
S31508003B3C00320092009ADA6C42F00102DA64DB6C0D
S31508003B4C03F001030193019B0C2313930223149393
S31508003B5C0023159316930723179313A94FF0904038
S31508003B6C00F038FBD5E7FFF717FFDAE7004400400B
S31508003B7C00100240FEE7FEE7FEE7FEE7FEE77047A9
S31508003B8C7047704708B500F06DF808BD034AD2F8BF
S31508003B9C883043F47003C2F88830704700ED00E0B3
S31508003BAC0D4885460D480E490E4A002302E0D458A6
S31508003BBCC4500433C4188C42F9D30B4A0B4C00235B
S31508003BCC01E013600432A242FBD3FFF7DFFF02F0D9
S31508003BDCC5F8FFF71BFFFEE7008000200000002059
S31508003BEC0C000020185E00080C000020BC01002008
S31508003BFCFEE70000104B1B680BB90120704710B587
S31508003C0C04464FF47A70B0FBF3F30C4A1068B0FB19
S31508003C1CF3F000F08FF868B90F2C01D901200AE0EF
S31508003C2C002221464FF0FF3000F074F8044B1C605C
S31508003C3C002000E0012010BD040000200000002038
S31508003C4C0800002010B5032000F052F80020FFF7FA
S31508003C5CD1FF10B10124204610BD0446FFF7E4FE3F
S31508003C6CF9E70000034A1368034909680B44136013
S31508003C7C704700BFB801002004000020014B1868EB
S31508003C8C704700BFB8010020002808DB0901C9B23B
S31508003C9C00F1604000F5614080F80013704700F0B1
S31508003CAC0F000901C9B2014B1954704714ED00E015
S31508003CBC00B500F00700C0F1070CBCF1040F28BFD3
S31508003CCC4FF0040C031D062B0FD9C31E4FF0FF3EF5
S31508003CDC0EFA0CF021EA000199400EFA03FE22EACC
S31508003CEC0E0241EA02005DF804FB0023EEE7000031
S31508003CFC074AD36823F4E0631B041B0C000200F488
S31508003D0CE060034343F0BF6343F40033D36070476A
S31508003D1C00ED00E010B50446054BD868C0F3022048
S31508003D2CFFF7C6FF01462046FFF7AEFF10BD00BFE2
S31508003D3C00ED00E00138B0F1807F0BD24FF0E023A4
S31508003D4C5861054AF02182F8231000209861072251
S31508003D5C1A6170470120704700ED00E010B4154B4E
S31508003D6C03640168D1F8802022F4F812446B42EA05
S31508003D7C0442C1F88020104A42640168D1F88020B8
S31508003D8C22F07062846B42EA0462C1F880200B4A06
S31508003D9C8264D832C264D83202651832426502E0AF
S31508003DAC002243F8042B064A9342F9D95DF8044BD2
S31508003DBC704700BF00A4004070A40040B0A40040A7
S31508003DCC4FA70040002800F0E38038B5044690F869
S31508003DDC5C30D3B12268936923F010039361FFF723
S31508003DEC4DFF054623689A6912F0080F12D0FFF7A3
S31508003DFC45FF401B0A28F5D9236E43F001032366B9
S31508003E0C032384F85C30012038BD80F85D30FFF759
S31508003E1C27FEDFE79A6942F001029A61FFF72EFF47
S31508003E2C054623689A6912F0010F0DD1FFF726FF94
S31508003E3C401B0A28F5D9236E43F001032366032396
S31508003E4C84F85C300120DFE79A6942F002029A6135
S31508003E5C2268504B9A4242D0237C012B45D02268CB
S31508003E6C936943F040039361637C012B43D022682A
S31508003E7C936923F480439361A37C012B41D0226878
S31508003E8C936943F4805393612268936923F44073CE
S31508003E9CA1680B4393612268936923F0A403936189
S31508003EAC2268136923F010031361E368012B2ED0E3
S31508003EBC002B31D0022B54D02268936943F080032F
S31508003ECC93612268136943F010031361E368032BAB
S31508003EDC22D12268936943F0200393611CE062683F
S31508003EECA3F58063C3F80025B6E72268936923F027
S31508003EFC40039361B8E72268936943F4804393615E
S31508003F0CBAE72268936923F480539361BCE7226865
S31508003F1C936943F004039361A3695A1EE369013B51
S31508003F2C1B0243EA4263226A013A13436269013A65
S31508003F3C216843EA0243CB61A368B3F5407F16D0E8
S31508003F4C2268D2F8C030E16B0B43C2F8C030204669
S31508003F5CFFF704FF0020A0652066012384F85C3077
S31508003F6C52E72268936943F020039361D4E7A36A66
S31508003F7C013BE26A013A43EA0223226B013A43EA1D
S31508003F8C0213626A013A216843EA0243CB60D7E717
S31508003F9C012070470064004090F85C30013BDBB2AE
S31508003FAC012B05D9036E43F0020303660120704703
S31508003FBC0B68A3B110B4CA680B6943EA42724B6921
S31508003FCC8C6843EA8473406C496800EBC10C40F872
S31508003FDC3120CCF8043000205DF8044B70478A6811
S31508003FECCB68DB0643EA82730A6943EA02434A69E9
S31508003FFC1343026C496842F821300020704790F848
S3150800400C5CC05FFA8CFCBCF1010F05D0036E43F063
S3150800401C040303660120704710B40468D4F88000C2
S3150800402C20F03F00920042EA011242EA4303019A49
S3150800403C1A430243C4F8802000205DF8044B7047ED
S3150800404C90F85C30DBB2012B05D0036E43F0040309
S3150800405C036601207047022380F85C300268936976
S3150800406C23F001039361002303661846704700008A
S3150800407C70B590F85C40E4B2022C40F0958040296B
S3150800408C0BD00468D4F8985015F00F0F27D1036E8F
S3150800409C43F48073036601208BE00468D4F89050CF
S315080040AC15F00F0F05D1036E43F4807303660120D8
S315080040BC7FE0D4F8906016F0807605D0D4F880604E
S315080040CC16F4007600D00126D4F89040C4F30124E7
S315080040DC2644846C06EBC60504EBC50E14E0D4F82E
S315080040EC986016F0807605D0D4F8806016F4807641
S315080040FC00D00126D4F89840C4F301242644C46C95
S3150800410C06EBC60504EBC50EDEF8004004F0804449
S3150800411C546064BBDEF80040C4F38A441460DEF8CD
S3150800412C004004F000549460DEF8004004F00044AB
S3150800413C1461BEF80440D461BEF8064004F00F04BE
S3150800414CD460DEF8044004F480145461DEF80440AC
S3150800415C04F4001494619EF8074004F07F0414627A
S3150800416CDEF80440E40F54624FF0000C0CE0DEF865
S3150800417C004024F060441460D1E70EEB0C04247A5A
S3150800418C03F80C400CF1010CD4680A4D2C5D6445FF
S3150800419CF3D8402904D00368C3F89C60002008E0D3
S315080041AC0368C3F89460F9E7036E43F008030366E3
S315080041BC012070BDE05D0008402905D00368D3F8DE
S315080041CC980000F00F0070470368D3F8900000F0D1
S315080041DC0F007047F0B583B0002362E085685E0077
S315080041EC0324B44025EA0405CC68B4402C43846007
S315080041FC456825EA0C054C68C4F300149C402C430E
S3150800420C44605FE0DD08083550F8254003F0070CDC
S3150800421C4FEA8C0C4FF00F0E0EFA0CFE24EA0E0E1B
S3150800422C0C6904FA0CF444EA0E0440F8254060E0E4
S3150800423C052400E0002404FA0EF42C430CF1020CBD
S3150800424C554D45F82C40554CA568D44325EA02062D
S3150800425C4F6817F4801F01D042EA05064F4DAE6031
S3150800426CED6804EA05064F6817F4001F01D042EA08
S3150800427C05064A4DEE606D6804EA05064F6817F4A4
S3150800428C003F01D042EA0506444D6E602D682C406D
S3150800429C4E6816F4803F01D042EA05043F4A146082
S315080042AC01330A6832FA03F474D04FF0010C0CFA95
S315080042BC03FC1CEA0202F3D04C6804F00304013C2C
S315080042CC012C8BD94C6804F00304032C0CD0C4685D
S315080042DC5D004FF0030C0CFA05FC24EA0C0C8C68F8
S315080042ECAC4044EA0C04C4604C6804F00304022C89
S315080042FC88D004684FEA430E4FF0030C0CFA0EFCF8
S3150800430C24EA0C0C4C6804F0030404FA0EF444EA90
S3150800431C0C0404604C6814F4403FC1D0204C256E44
S3150800432C45F001052566246E04F001040194019CF0
S3150800433C4FEA930C0CF10205174C54F8255003F070
S3150800434C030E4FEA8E0E0F2404FA0EF425EA040522
S3150800435CB0F1904F3FF46EAF124CA04212D004F558
S3150800436C8064A04210D004F58064A0420ED004F5F7
S3150800437C8064A0420CD004F58064A0423FF458AF88
S3150800438C062458E7012456E7022454E7032452E787
S3150800439C042450E703B0F0BD0000014000040140BE
S315080043AC00100240000400480AB18161704781621E
S315080043BC70470000002836D13E4B1B6803F4C063D7
S315080043CCB3F5806F08D03B4AD2F8803023F480735B
S315080043DCC2F8803000207047364AD2F8803023F471
S315080043EC8073C2F88030136823F4C06343F40073F7
S315080043FC1360314B1B68322202FB03F32F4AA2FBD4
S3150800440C03239B0C013300E0013B2A4A526912F440
S3150800441C806F01D0002BF7D1264B5B6913F4806FA4
S3150800442C44D100207047B0F5007F08D0214A1368A4
S3150800443C23F4C06343F480631360002070471D4B5C
S3150800444C1B6803F4C063B3F5806F08D0194AD2F819
S3150800445C803043F48073C2F8803000207047154AC8
S3150800446CD2F8803043F48073C2F88030136823F492
S3150800447CC06343F4007313600F4B1B68322202FBB4
S3150800448C03F30E4AA2FB03239B0C013300E0013B0A
S3150800449C084A526912F4806F01D0002BF7D1054BEC
S315080044AC5B6913F4806F03D10020704703207047B3
S315080044BC03207047007000400000002083DE1B4379
S315080044CC024A936843F48043936070470070004037
S315080044DC124BDA6802F00302DB68C3F303130133E9
S315080044EC032A11D00E48B0FBF3F00C4BDB68C3F370
S315080044FC062303FB00F0094BDB68C3F34163013366
S3150800450C5B00B0FBF3F070470648B0FBF3F0034BC7
S3150800451CDB68C3F3062303FB00F0ECE7001002404C
S3150800452C0024F40000366E01002800F04F8270B5A6
S3150800453C82B00446036813F0010F37D0A44A936877
S3150800454C03F00C03D26802F003020C2B23D0082BC1
S3150800455C23D06368B3F5803F4ED0B3F5A02F51D066
S3150800456C9B4B1A6822F480321A601A6822F480224D
S3150800457C1A606368002B52D0FFF780FB0546944BF4
S3150800458C1B6813F4003F11D1FFF778FB401B642816
S3150800459CF5D9032023E2032AD9D18D4B1B6813F4D2
S315080045AC003F03D06368002B00F01282236813F0D7
S315080045BC020F5DD0864A936803F00C03D26802F0AA
S315080045CC03020C2B3AD0042B3AD0E368002B75D097
S315080045DC7F4A136843F480731360FFF74FFB054655
S315080045EC7B4B1B6813F4806F5FD1FFF747FB401BAF
S315080045FC0228F5D90320F2E1754A136843F480338F
S3150800460C1360B6E703F18043A3F53C331A6842F40A
S3150800461C80221A601A6842F480321A60A9E7FFF7FA
S3150800462C2DFB05466A4B1B6813F4003FBED0FFF7FB
S3150800463C25FB401B6428F5D90320D0E1022AC2D1F8
S3150800464C634B1B6813F4806F03D0E368002B00F0F0
S3150800465CC1815F4A536823F0FE43216943EA01632B
S3150800466C53605C4B1868FFF7C5FA002840F0B48114
S3150800467C236813F0080F4CD063699BB3544AD2F8DD
S3150800468C943043F00103C2F89430FFF7F7FA054665
S3150800469C4F4BD3F8943013F0020F3AD1FFF7EEFADA
S315080046AC401B0228F4D9032099E1494A536823F0A0
S315080046BCFE43216943EA01635360D9E7444A136808
S315080046CC23F480731360FFF7D9FA0546404B1B6831
S315080046DC13F4806FCCD0FFF7D1FA401B0228F5D91A
S315080046EC03207CE13A4AD2F8943023F00103C2F84D
S315080046FC9430FFF7C3FA0546354BD3F8943013F0CC
S3150800470C020F06D0FFF7BAFA401B0228F4D9032089
S3150800471C65E1236813F0040F00F081802C4B9B6D28
S3150800472C13F0805F36D12A4B9A6D42F080529A6507
S3150800473C9B6D03F080530193019B0125264B1B6847
S3150800474C13F4807F28D0A368012B39D0052B45D0CC
S3150800475C1F4BD3F8902022F00102C3F89020D3F80F
S3150800476C902022F00402C3F89020A368002B43D0B3
S3150800477CFFF784FA0646164BD3F8903013F0020F5F
S3150800478C4CD1FFF77BFA801B41F288339842F2D959
S3150800479C032024E10025D1E70F4A136843F48073FC
S315080047AC1360FFF76BFA06460B4B1B6813F4807FF6
S315080047BCC9D1FFF763FA801B0228F5D903200EE14D
S315080047CC034AD2F8903043F00103C2F89030CCE794
S315080047DC001002400800002000700040884BD3F8F7
S315080047EC902042F00402C3F89020D3F8902042F0AF
S315080047FC0102C3F89020B8E7FFF740FA0646804B4B
S3150800480CD3F8903013F0020F08D0FFF737FA801B55
S3150800481C41F288339842F2D90320E0E0E5B92368DF
S3150800482C13F0200F35D0A369E3B1754AD2F8983046
S3150800483C43F00103C2F89830FFF720FA0546704B8F
S3150800484CD3F8983013F0020F23D1FFF717FA401B51
S3150800485C0228F4D90320C2E0694A936D23F08053E9
S3150800486C9365DCE7664AD2F8983023F00103C2F860
S3150800487C9830FFF703FA0546614BD3F8983013F0D6
S3150800488C020F06D0FFF7FAF9401B0228F4D90320C9
S3150800489CA5E0E369002B00F0A180594A926802F062
S315080048AC0C020C2A64D0022B13D0554A136823F039
S315080048BC80731360FFF7E2F90446514B1B6813F03B
S315080048CC007F4ED0FFF7DAF9001B0228F5D9032032
S315080048DC85E04B4A136823F080731360FFF7CEF913
S315080048EC0546474B1B6813F0007F06D0FFF7C6F941
S315080048FC401B0228F5D9032071E0414AD368414987
S3150800490C1940236A606A013843EA0013A06A43EA2D
S3150800491C0023206B4008013843EA4053606B40087B
S3150800492C013843EA4063E06A43EAC0631943D1603D
S3150800493C136843F080731360D36843F08073D360B5
S3150800494CFFF79CF904462E4B1B6813F0007F06D123
S3150800495CFFF794F9001B0228F5D903203FE0002045
S3150800496C3DE0274AD168284B0B40D360002036E03F
S3150800497C012B36D0224BDB6803F00301226A9142E5
S3150800498C31D103F0F002616A0139B2EB011F2CD167
S3150800499C03F4FE42A16AB2EB012F28D103F0784248
S315080049ACE16AB2EBC16F24D103F4C001226B520841
S315080049BC013AB1EB425F1ED103F0C063626B520839
S315080049CC013AB3EB426F18D1002008E0012070477A
S315080049DC012004E0012002E0012000E0002002B0E2
S315080049EC70BD0120FBE70120F9E70120F7E701205C
S315080049FCF5E70120F3E70120F1E70120EFE700BF17
S31508004A0C001002400C809F01FCFFEEFE1E4B9B68BB
S31508004A1C03F00C03042B33D01B4B9B6803F00C03DD
S31508004A2C082B2FD0184B9B6803F00C030C2B01D0CA
S31508004A3C00207047144BDA6802F00302DB68C3F3F4
S31508004A4C03130133032A11D01048B0FBF3F00E4BB5
S31508004A5CDB68C3F3062303FB00F00B4BDB68C3F3DD
S31508004A6C416301335B00B0FBF3F070470848B0FBB9
S31508004A7CF3F0054BDB68C3F3062303FB00F0ECE706
S31508004A8C0248704702487047001002400024F400A0
S31508004A9C00366E01002800F0E680F8B50C4605468F
S31508004AAC744B1B6803F00F038B420BD2714A1368C5
S31508004ABC23F00F030B431360136803F00F038B42A9
S31508004ACC40F0D3802E6816F001065FD06B68032B76
S31508004ADC2FD0022B4DD0684B1B6813F4806F00F057
S31508004AECC680FFF793FF654B98424DD9624A936887
S31508004AFC23F0F00343F08003936080265E4A9368A4
S31508004B0C23F0030369680B439360FFF7B7F807466E
S31508004B1C594B9B6803F00C036A68B3EB820F35D0CC
S31508004B2CFFF7ACF8C01B41F288339842F0D9032042
S31508004B3C78E0514B1B6813F0007F01D1012071E01E
S31508004B4CFFF7C6FC4D4B98421AD94B4B9B6813F092
S31508004B5CF00F05D02E6816F00206CFD0AB688BB9CD
S31508004B6C454A936823F0F00343F08003936080264C
S31508004B7CC4E7414B1B6813F4003FB2D1012051E046
S31508004B8C0026BBE70026B9E70026B7E72B6813F023
S31508004B9C020F48D013F0040F04D0374A936843F435
S31508004BACE06393602B6813F0080F06D0324A9368BB
S31508004BBC23F47C5343F4E06393602F4A936823F001
S31508004BCCF003A9680B4393602A4B1B6803F00F0389
S31508004BDCA34230D82B6813F0040F06D0264A9368E4
S31508004BEC23F4E063E9680B4393602B6813F0080F12
S31508004BFC07D0214A936823F46053296943EAC10311
S31508004C0C9360FFF703FF1C4B9B68C3F303131C4A03
S31508004C1CD35C03F01F03D8401A4B18601A4B18685C
S31508004C2CFEF7E8FFF8BD802ECED1134A936823F021
S31508004C3CF0039360C8E70F4A136823F00F03234366
S31508004C4C1360FFF71BF806460A4B1B6803F00F03A5
S31508004C5CA342BFD0FFF712F8801B41F28833984263
S31508004C6CF2D90320DEE7012070470120DAE701209C
S31508004C7CD8E700BF002002400010024000B4C4046C
S31508004C8CD05D00080000002008000020014B1868C1
S31508004C9C704700BF0000002008B5FFF7F7FF054B6B
S31508004CAC9B68C3F30223044AD35C03F01F03D84062
S31508004CBC08BD00BF00100240C85D000808B5FFF724
S31508004CCCE5FF054B9B68C3F3C223044AD35C03F088
S31508004CDC1F03D84008BD00BF00100240C85D00087D
S31508004CECF0B583B00446036813F4002F69D0AE4BB5
S31508004CFC9B6D13F0805F1ED1AB4B9A6D42F08052C0
S31508004D0C9A659B6D03F080530193019B0126A74A74
S31508004D1C136843F480731360FEF7B0FF0546A34B84
S31508004D2C1B6813F4807F08D1FEF7A8FF401B0228E6
S31508004D3CF5D9032502E00026E9E7002545BB9A4B81
S31508004D4CD3F8903013F4407318D0226C9A4212D0D0
S31508004D5C954AD2F8903023F44073D2F8901041F467
S31508004D6C8031C2F89010D2F8901021F48031C2F834
S31508004D7C9010C2F8903013F0010F10D145B98A4A39
S31508004D8CD2F8903023F44073216C0B43C2F8903060
S31508004D9CC6B1854A936D23F08053936512E0FEF7EE
S31508004DAC6DFF0746804BD3F8903013F0020FE5D110
S31508004DBCFEF764FFC01B41F288339842F2D90325EB
S31508004DCCDCE70025236813F0010F08D0764AD2F8E1
S31508004DDC883023F0030361680B43C2F888302368D4
S31508004DEC13F0020F08D0704AD2F8883023F00C035F
S31508004DFCA1680B43C2F88830236813F0040F08D057
S31508004E0C694AD2F8883023F03003E1680B43C2F8BC
S31508004E1C8830236813F0080F08D0634AD2F8883014
S31508004E2C23F0C00321690B43C2F88830236813F0BA
S31508004E3C200F08D05C4AD2F8883023F440636169A5
S31508004E4C0B43C2F88830236813F0400F08D0564A33
S31508004E5CD2F8883023F44053A1690B43C2F8883042
S31508004E6C236813F0800F08D04F4AD2F8883023F401
S31508004E7C4043E1690B43C2F88830236813F4807FFA
S31508004E8C08D0494AD2F8883023F44033216A0B43B8
S31508004E9CC2F88830236813F4007F08D0424AD2F847
S31508004EAC883023F44023616A0B43C2F888302368A0
S31508004EBC13F4806F0CD03C4AD2F8883023F4401394
S31508004ECCA16A0B43C2F88830A36AB3F5801F57D082
S31508004EDC236813F4006F0CD0334AD2F8883023F4C5
S31508004EEC4003E16A0B43C2F88830E36AB3F5800FD6
S31508004EFC4BD0236813F4805F0CD02B4AD2F8883039
S31508004F0C23F04073216B0B43C2F88830236BB3F143
S31508004F1C807F3FD0236813F4005F0CD0224AD2F866
S31508004F2C883023F04063616B0B43C2F88830636B9F
S31508004F3CB3F1006F33D0236813F4804F0CD01A4AA0
S31508004F4CD2F8883023F04063A16B0B43C2F8883043
S31508004F5CA36BB3F1006F2BD0236813F4004F0CD05E
S31508004F6C114AD2F8883023F04053E16B0B43C2F850
S31508004F7C8830E36BB3F1805F1FD0284603B0F0BDD1
S31508004F8CD36843F48013D360A2E7D36843F4801341
S31508004F9CD360AEE7D36843F48013D360BAE7D3681B
S31508004FAC43F48013D360C6E700100240007000403B
S31508004FBCD36843F48013D360CEE7D36843F48033C5
S31508004FCCD360DAE708B5B0F5002F43D0A84BDB68F9
S31508004FDC03F00303022B61D0A54BDB6803F0030334
S31508004FEC032B62D00022A24BDB68C3F303130133F5
S31508004FFCB2FBF3F2B0F5807F00F0AB817AD82028AB
S3150800500C5AD8002800F0B98201381F2800F2B78256
S3150800501CDFE810F0CB00ED00B5020F01B502B502C2
S3150800502CB5023701B502B502B502B502B502B5022D
S3150800503CB502B502B502B502B502B502B502B5029E
S3150800504CB502B502B502B502B502B502B502B5028E
S3150800505CB5025901864AD2F8903003F44073D2F857
S3150800506C902012F0020F03D0B3F5807F00F07D82FA
S3150800507C7F4AD2F8942012F0020F03D0B3F5007FC2
S3150800508C00F076827A4A106810F4003000F07882C4
S3150800509CB3F5407F00F06F82002071E2744B1A68FA
S315080050AC12F480629FD0734A9DE7714B1A6812F40A
S315080050BC003298D0704A96E7402800F0298180285B
S315080050CC16D16B4BD3F8883013F4404300F03B8170
S315080050DCB3F5804F00F03A81654A106810F4806089
S315080050EC00F04E82B3F5004F00F06682002047E2CE
S315080050FC002045E2B0F5805F00F0AD8133D8B0F5FD
S3150800510C806F00F04481B0F5006F00F07281B0F545
S3150800511C007F26D1564BD3F8883013F4402300F081
S3150800512C3381534AD2F8942012F0020F03D0B3F508
S3150800513C802F00F045824E4A126812F4806F03D015
S3150800514CB3F5002F00F03F82494AD2F8900010F0D0
S3150800515C020000F01582B3F5402F00F036820020CD
S3150800516C0EE200200CE2B0F5804F00F0AD81B0F5F0
S3150800517C004F00F0CC81B0F5005F14D13C4BD3F84E
S3150800518C883003F04063B3F1006F00F08C81384A25
S3150800519CD2F8980010F0020000F0F281002B00F013
S315080051AC21820020ECE10020EAE1314BD3F888306B
S315080051BC13F0030315D0012B16D02D4A126812F4DE
S315080051CC806F02D0022B00F0DC81294AD2F89000BD
S315080051DC10F0020000F0D481032B00F0D4810020DB
S315080051ECCEE1FFF76BFDCBE1FFF710FCC8E1204BD6
S315080051FCD3F8883013F00C0315D0042B16D01C4AA0
S3150800520C126812F4806F02D0082B00F0BF81184A7E
S3150800521CD2F8900010F0020000F0B2810C2B00F0CE
S3150800522CB7810020ACE1FFF737FDA9E1FFF7EEFBEC
S3150800523CA6E10F4BD3F8883013F0300315D0102B9A
S3150800524C1CD00B4A126812F4806F02D0202B00F087
S3150800525CA281074AD2F8900010F0020000F0908163
S3150800526C302B00F09A8100208AE1FFF715FD87E1C3
S3150800527C001002400024F40000366E01FFF7C6FB4E
S3150800528C7EE1B74BD3F8883013F0C00315D0402B0A
S3150800529C16D0B34A126812F4806F02D0802B00F035
S315080052AC7F81AF4AD2F8900010F0020000F06881B6
S315080052BCC02B00F07781002062E1FFF7EDFC5FE17F
S315080052CCFFF7A4FB5CE1A64BD3F8883013F44063D4
S315080052DC18D0B3F5806F18D0A14A126812F4806FF3
S315080052EC03D0B3F5006F00F060819D4AD2F89000A8
S315080052FC10F0020000F04481B3F5406F00F05781BE
S3150800530C00203DE1FFF7C8FC3AE1FFF77FFB37E1E8
S3150800531C934BD3F8883013F440530ED0B3F5805F13
S3150800532C0ED08F4A106810F4806000F02981B3F50E
S3150800533C005F00F03F81002022E1FFF7ADFC1FE182
S3150800534CFFF764FB1CE1FFF7A7FC19E1FFF75EFB0F
S3150800535C16E1834BD3F8883013F440330ED0B3F5EB
S3150800536C803F0ED07E4A106810F4806000F00881E9
S3150800537CB3F5003F00F02281002001E1FFF78CFC19
S3150800538CFEE0FFF743FBFBE0FFF786FCF8E0744B07
S3150800539CD3F8883013F4401312D0B3F5801F12D00B
S315080053ACB3F5001F00F014816D4A106810F4806084
S315080053BC00F0E680B3F5401F00F00C810020DFE01A
S315080053CCFFF724FBDCE003F18043A3F55F23D868E1
S315080053DC10F4801000F0D480D868C0F3062002FBC5
S315080053EC00F0DB68C3F3415301335B00B0FBF3F009
S315080053FCC6E05B4BD3F8883013F4400312D0B3F5F0
S3150800540C800F12D0B3F5000F00F0E680544A1068EE
S3150800541C10F4806000F0B480B3F5400F00F0DE8025
S3150800542C0020ADE0FFF7F2FAAAE003F17F5303F58B
S3150800543C0433D86810F4801000F0A280D868C0F342
S3150800544C062002FB00F0DB68C3F3415301335B0013
S3150800545CB0FBF3F094E0424BD3F8883003F040737A
S3150800546CB3F1007F07D0002B00F0BA80B3F1807F30
S3150800547C04D0002084E0FFF70FFC81E003F17C5395
S3150800548C03F50433D86810F4801079D0D868C0F3C3
S3150800549C062002FB00F0DB68C3F3415301335B00C3
S315080054ACB0FBF3F06CE003F1605303F50433D868F2
S315080054BCC0F3062002FB00F0DB68C3F3415301334B
S315080054CC5B00B0FBF3F05BE0254BD3F8883003F0B8
S315080054DC4063B3F1006F09D0214AD2F8980010F056
S315080054EC02004DD0002B7FD0002049E003F1605319
S315080054FC03F50433D868C0F3062002FB00F0DB681A
S3150800550CC3F3415301335B00B0FBF3F038E0144BA3
S3150800551CD3F8883003F04053B3F1805F04D0B3F16D
S3150800552C005F1FD000202BE003F1405303F5043332
S3150800553CD86810F4803023D0D968C1F30621DB680B
S3150800554CDB0E05D1064BDB6813F4003F05D011239F
S3150800555C01FB02F2B2FBF3F012E00723F8E700BFF7
S3150800556C00100240FFF752FA0AE04FF4004007E039
S3150800557C4FF4FA4004E01D4802E0002000E0002049
S3150800558C08BD1B48FCE74FF40040F9E71848F7E755
S3150800559C4FF40040F4E71648F2E74FF40040EFE703
S315080055AC1348EDE74FF40040EAE71148E8E74FF4F3
S315080055BC0040E5E70E48E3E70D48E1E70C48DFE76E
S315080055CC4FF4FA40DCE70A48DAE74FF40040D7E72D
S315080055DC0848D5E70648D3E70648D1E70448CFE795
S315080055EC0548CDE70548CBE70448C9E7B0710B0079
S315080055FC0024F4000080BB0000366E01006CDC024F
S3150800560C026852E8003F23F4907342E800310029FF
S3150800561CF6D1026802F1080353E8003F23F08053E1
S3150800562C23F00103083242E800310029F1D1C36E98
S3150800563C012B06D02023C0F88C300023C3664367A1
S3150800564C7047026852E8003F23F0100342E8003125
S3150800565C0029F6D1EEE7000070B5044683680269A6
S3150800566C134342691343C2691343016808688B4A9A
S3150800567C02401A430A602268536823F44053E168CF
S3150800568C0B435360A1692268854B9A4201D0236A61
S3150800569C1943936823F06E4323F430630B439360EA
S315080056AC2268D36A23F00F03616A0B43D36223681B
S315080056BC7C4A934223D07C4A934234D07B4A934209
S315080056CC4AD07B4A934259D0754A934268D01022E5
S315080056DC73498B4200F09580E069B0F5004F00F0F5
S315080056ECD280082A00F24F81DFE812F01201340149
S315080056FC10014D0137014D014D014D013A0102F5DD
S3150800570C5842D2F8882002F00302032A09D8DFE8A7
S3150800571C02F002045C060122DAE70422D8E7082222
S3150800572CD6E71022D4E702F5E632D2F8882002F042
S3150800573C0C020C2A0ED8DFE802F0070D0D0D090D28
S3150800574C0D0D4A0D0D0D0B000022C1E70422BFE713
S3150800575C0822BDE71022BBE702F5E432D2F888200E
S3150800576C02F03002202A34D004D8A2B3102A34D13D
S3150800577C0422ADE7302A32D10822A9E702F5E23233
S3150800578CD2F8882002F0C002802A2AD004D852B354
S3150800579C402A2AD104229BE7C02A28D1082297E757
S315080057AC02F5C832D2F8882002F44062B2F5006FCE
S315080057BC1FD005D8FAB1B2F5806F1ED1042287E73F
S315080057CCB2F5406F1BD1082282E7022280E702223B
S315080057DC7EE702227CE700227AE7102278E710227D
S315080057EC76E7022274E7002272E7102270E710228D
S315080057FC6EE702226CE700226AE7102268E710229D
S3150800580C66E7082A00F2AF80DFE802F008AD3BAD88
S3150800581C38ADADAD05004FF4004004E0FFF73CFA97
S3150800582C002800F0A280626A224B33F81220B0FBE3
S3150800583CF2F3656805EB4501994200F29880B3EBE3
S3150800584C053F00F29680002633463146FDF7E0FC0C
S3150800585C090241EA106100026B08C0182A46334651
S3150800586C41F10001FDF7D4FCA0F54072124B9A42A7
S3150800587C00F281802368D860304662E0FFF7C6F8EC
S3150800588CCEE70E48CFE7082A77D8DFE802F01939B1
S3150800589C05763C7676761D00084815E0F369FFCF49
S315080058AC0080004000380140004400400048004099
S315080058BC004C0040F05D0008FFFC0F000024F400CB
S315080058CCFFF7EAF900285AD0626A324B33F81230DD
S315080058DCB0FBF3F06268530803EB4003B3FBF2F337
S315080058ECA3F110014FF6EF7291424AD89AB222F000
S315080058FC0F02C3F3420313432268D360002020E04F
S3150800590CFFF7DCF9DEE7FFF781F8DBE7224803E06F
S3150800591CFFF7C2F9002838D0626A1E4B33F81230EA
S3150800592CB0FBF3F0636800EB5300B0FBF3F0A0F1A7
S3150800593C10024FF6EF739A4229D8236880B2D860C2
S3150800594C00200123A4F86A30A4F8683000236367A2
S3150800595CA36770BDFFF7B2F9DCE7FFF757F8D9E78D
S3150800596C4FF40040D8E70120EBE70020E9E70120D7
S3150800597CE7E70120E5E70120E3E70120E1E700205E
S3150800598CDFE70120DDE70120DBE70020D9E701206E
S3150800599CD7E700BFF05D00080024F400836A13F013
S315080059AC080F06D00268536823F40043816B0B4337
S315080059BC5360836A13F0010F06D00268536823F408
S315080059CC0033C16A0B435360836A13F0020F06D087
S315080059DC0268536823F48033016B0B435360836A64
S315080059EC13F0040F06D00268536823F48023416B26
S315080059FC0B435360836A13F0100F06D00268936842
S31508005A0C23F48053C16B0B439360836A13F0200F06
S31508005A1C06D00268936823F40053016C0B43936019
S31508005A2C836A13F0400F0AD00268536823F4801374
S31508005A3C416C0B435360436CB3F5801F0BD0836AE0
S31508005A4C13F0800F06D00268536823F40023C16C48
S31508005A5C0B43536070470268536823F4C003816C88
S31508005A6C0B435360EBE72DE9F84305460E461746FC
S31508005A7C9946DDF820802B68DC6936EA04040CBFED
S31508005A8C01240024BC4236D1B8F1FF3FF3D0FEF70F
S31508005A9CF5F8A0EB0900404530D8B8F1000F2FD027
S31508005AAC2B681A6812F0040FE5D0802EE3D0402E2E
S31508005ABCE1D0DA6912F0080F11D1DA6912F4006F25
S31508005ACCD9D04FF400621A622846FFF799FD2023B5
S31508005ADCC5F89030002385F8843003200CE00824A0
S31508005AEC1C622846FFF78CFDC5F89040002385F804
S31508005AFC8430012000E00020BDE8F8830320FBE792
S31508005B0C0320F9E72DE9F04383B01E46D0F88C3014
S31508005B1C202B7DD104460D46904600297CD00AB927
S31508005B2C012076E00023C0F890302222C0F88C20A1
S31508005B3CC366FEF7A3F80746A4F85C80A4F85E8053
S31508005B4CA368B3F5805F06D0A3B9226972B9FF22A0
S31508005B5CA4F8602014E0226922B940F2FF12A4F8D6
S31508005B6C60200DE0FF22A4F8602009E07F22A4F84B
S31508005B7C602005E0B3F1805F0AD00022A4F860200B
S31508005B8CB4F86080B3F5805F0CD04FF0000923E0C1
S31508005B9C22691AB97F22A4F86020F1E73F22A4F8FB
S31508005BAC6020EDE7236913B14FF0000914E0A9460C
S31508005BBC002511E02023C4F88C30032029E0236843
S31508005BCC5B6A08EA030329F8023BB4F85E2092B232
S31508005BDC013A92B2A4F85E20B4F85E309BB293B147
S31508005BEC00963B46002220212046FFF73CFF002862
S31508005BFCE0D1002DE3D023685A6A5FFA88F3134084
S31508005C0C05F8013BE1E72023C4F88C30002000E0BE
S31508005C1C022003B0BDE8F0830120FAE730B583B063
S31508005C2C04460023C0F89030FEF728F8054622688B
S31508005C3C126812F0080F10D123681B6813F0040FB2
S31508005C4C28D12023C4F88830C4F88C300020E066AC
S31508005C5C206784F8840003B030BD6FF07E43009350
S31508005C6C034600224FF400112046FFF7FCFE0028DD
S31508005C7CE2D0226852E8003F23F0800342E8003164
S31508005C8C0029F6D12023C4F88830002384F8843000
S31508005C9C0320E0E76FF07E4300932B4600224FF477
S31508005CAC80012046FFF7DFFE0028CAD0226852E89A
S31508005CBC003F23F4907342E800310029F6D122689C
S31508005CCC02F1080353E8003F23F00103083242E8C7
S31508005CDC00310029F3D12023C4F88C30002384F832
S31508005CEC84300320B7E778B310B50446D0F888306B
S31508005CFC0BB32423C4F888302268136823F00103F5
S31508005D0C1360A36AE3B92046FFF7A6FC012811D055
S31508005D1C2268536823F4904353602268936823F0EF
S31508005D2C2A0393602268136843F001031360204624
S31508005D3CFFF774FF10BD80F88430FDF7D9FED8E75D
S31508005D4C2046FFF72BFEDEE7012070470244034688
S31508005D5C934200D1704703F8011BF9E770B50D4D56
S31508005D6C0D4C641BA4100026A64209D10B4D0C4CF5
S31508005D7C00F018F8641BA4100026A64205D170BDC5
S31508005D8C55F8043B98470136EEE755F8043B984717
S31508005D9C0136F2E7105E0008105E0008105E000877
S31508005DAC145E0008F8B500BFF8BC08BC9E467047E0
S31108005DBCF8B500BFF8BC08BC9E4670474E
S31508005DC800000000010203040000000000000000B3
S31508005DD80102030406070809000102030405060769
S31508005DE8080C1014182030400100020004000600B0
S31508005DF808000A000C00100020004000800000017E
S30D08005E0844D4FF7F01000000ED
S30908005E100132000845
S30908005E14DD31000866
S31108005E180024F400010000001000000047
S70508003BAD0A
