S01A000064656D6F70726F675F73746D3332663330332E7372656399
S3150800400010080020095300086D5300087153000872
S3150800401075530008795300087D5300080000000016
S3150800402000000000000000000000000081530008A6
S315080040308553000800000000895300087F510008D6
S315080040408D530008915300089553000899530008AA
S315080040509D530008A1530008A5530008A95300085A
S31508004060AD530008B1530008B5530008B95300080A
S31508004070BD530008C1530008C5530008C9530008BA
S31508004080CD530008D1530008D5530008D95300086A
S31508004090DD530008E1530008E5530008E95300081A
S315080040A0ED530008F1530008F5530008F9530008CA
S315080040B0FD53000801540008055400080954000877
S315080040C00D54000811540008155400081954000826
S315080040D01D540008215400082554000829540008D6
S315080040E02D54000831540008355400083954000886
S315080040F03D54000841540008455400084954000836
S315080041000000000000000000000000004D540008F8
S315080041105154000855540008595400085D540008C5
S315080041206154000865540008695400086D54000875
S3150800413071540008755400080000000000000000D3
S31508004140795400087D5400088154000800000000D6
S315080041500000000000000000000000000000000051
S31508004160000000000000000085540008895400087B
S315080041708D54000800000000000000000000000048
S315080041800000000091540008EE11AA5570B582B0DF
S31508004190040000252078C00740F1EA80DFF8140AF9
S315080041A0006810F00C0004280BD0DFF8080A006835
S315080041B010F00C0008282ED1DFF8F8090068C003B3
S315080041C029D54FF48040B0FA80F050F02000C0B2F4
S315080041D04009C0B2012803D1DFF8D40900680AE013
S315080041E04FF48040B0FA80F04FF48040B0FA80F087
S315080041F0DFF8D00900684FF48041B1FA81F111F077
S315080042001F01C840C00740F1B3806068002840F02D
S31508004210AF80012077E36068B0F5803F08D1DFF80A
S315080042209009006850F48030DFF88419086038E097
S315080042306068002810D1DFF87809006830F480300B
S31508004240DFF86C190860DFF86809006830F4802028
S31508004250DFF85C19086024E06068B0F5A02F10D17B
S31508004260DFF84C09006850F48020DFF8441908602C
S31508004270DFF83C09006850F48030DFF8341908602C
S315080042800FE0DFF82C09006830F48030DFF82019D9
S315080042900860DFF81C09006830F48020DFF8101980
S315080042A00860DFF81409006800090001A1680843DE
S315080042B0DFF804190860606800282CD000F098FC24
S315080042C005004FF48040B0FA80F050F02000C0B2EC
S315080042D04009C0B2012803D1DFF8D40800680AE013
S315080042E04FF48040B0FA80F04FF48040B0FA80F086
S315080042F0DFF8D00800684FF48041B1FA81F111F077
S315080043001F01C840C00733D400F072FC401B652863
S31508004310D7D30320F7E200F06BFC05004FF480408A
S31508004320B0FA80F050F02000C0B24009C0B20128AF
S3150800433003D1DFF87C0800680AE04FF48040B0FA41
S3150800434080F04FF48040B0FA80F0DFF87808006813
S315080043504FF48041B1FA81F111F01F01C840C0073E
S3150800436006D500F045FC401B6528D7D30320CAE2D2
S315080043702078800749D5DFF83C08006810F00C0F54
S315080043800BD0DFF83008006810F00C00082871D14F
S31508004390DFF820080068C0036CD45FF08040B0FAEC
S315080043A080F050F02000C0B24009C0B2012803D105
S315080043B0DFF8FC0700680AE05FF08040B0FA80F09A
S315080043C05FF08040B0FA80F0DFF8F80700685FF029
S315080043D08041B1FA81F111F01F01C840C00704D528
S315080043E02069012801D001208DE2DFF8C4070068A2
S315080043F05FF0F851B1FA81F130F0F800626912FA0B
S3150800440001F10843DFF8A81708602078000740F193
S31508004410E080A069002800F0B08001205FF000412C
S31508004420B1FA81F1DFF8A02712EB8101086000F0EC
S31508004430DFFB05005FF08040B0FA80F05FF0804057
S31508004440B0FA80F05FF08040B0FA80F0DFF87407C9
S3150800445000685FF08041B1FA81F111F01F01C84090
S31508004460C00700F1B68000F0C3FB401B0328E1D368
S31508004470032048E22069002847D001205FF0004168
S31508004480B1FA81F1DFF8442712EB8101086000F0E8
S31508004490AFFB05005FF08040B0FA80F050F02000D6
S315080044A0C0B24009C0B2012803D1DFF8040700688A
S315080044B00AE05FF08040B0FA80F05FF08040B0FA22
S315080044C080F0DFF8000700685FF08041B1FA81F1FB
S315080044D011F01F01C840C00706D400F089FB401B35
S315080044E00328D7D303200EE2DFF8C40600685FF07E
S315080044F0F851B1FA81F130F0F800626912FA01F167
S315080045000843DFF8AC1608607FE700205FF000413B
S31508004510B1FA81F1DFF8B42612EB8101086000F0E8
S3150800452067FB05005FF08040B0FA80F050F020008D
S31508004530C0B24009C0B2012803D1DFF8740600688A
S315080045400AE05FF08040B0FA80F05FF08040B0FA91
S3150800455080F0DFF8700600685FF08041B1FA81F1FB
S3150800456011F01F01C840C0077FF54FAF00F040FBB0
S31508004570401B0328D6D30320C5E100205FF0004185
S31508004580B1FA81F1DFF8402612EB8101086000F0EC
S315080045902FFB05005FF08040B0FA80F05FF08040A6
S315080045A0B0FA80F05FF08040B0FA80F0DFF81406C9
S315080045B000685FF08041B1FA81F111F01F01C8402F
S315080045C0C00706D500F014FB401B0328E2D30320DE
S315080045D099E12078400740F1E2800026DFF8F005EF
S315080045E00068C0000FD4DFF8E805006850F0805076
S315080045F0DFF8DC150860DFF8D805006810F0805091
S31508004600009000980126DFF8CC050068C00516D48E
S31508004610DFF8C005006850F48070DFF8B815086048
S3150800462000F0E6FA0500DFF8AC050068C00506D418
S3150800463000F0DEFA401B6528F5D3032063E1E06845
S31508004640012808D1DFF89005006850F00100DFF86E
S315080046508815086037E0E068002810D1DFF878058B
S31508004660006840084000DFF870150860DFF8680544
S31508004670006830F00400DFF86015086023E0E068A1
S31508004680052810D1DFF85005006850F00400DFF85F
S3150800469048150860DFF84005006850F00100DFF8AB
S315080046A0381508600FE0DFF830050068400840005C
S315080046B0DFF824150860DFF82005006830F00400EC
S315080046C0DFF814150860E06800282ED000F090FA8C
S315080046D005005FF08040B0FA80F05FF08040B0FAE5
S315080046E080F050F04000C0B24009C0B2022803D1A1
S315080046F0DFF8E404006806E05FF08040B0FA80F076
S31508004700DFF8C00400685FF08041B1FA81F111F06A
S315080047101F01C840C00737D400F06AFA401B41F2AF
S3150800472089318842D5D30320EDE000F061FA05000F
S315080047305FF08040B0FA80F05FF08040B0FA80F019
S3150800474050F04000C0B24009C0B2022803D1DFF8D9
S315080047508804006806E05FF08040B0FA80F0DFF871
S31508004760640400685FF08041B1FA81F111F01F011D
S31508004770C840C00708D500F03BFA401B41F2893112
S315080047808842D5D30320BEE0F6B2012E07D1DFF862
S315080047904004006830F08050DFF834140860E0699F
S315080047A0002800F0AF80DFF80C04006810F00C0059
S315080047B0082800F0A580E06902286FD10020802132
S315080047C0B1FA81F1DFF8042412EB8101086000F0E8
S315080047D00FFA05004020B0FA80F050F02000C0B271
S315080047E04009C0B2012803D1DFF8C403006808E015
S315080047F04020B0FA80F04020B0FA80F0DFF8C40319
S3150800480000684021B1FA81F111F01F01C840C007C4
S3150800481006D500F0EDF9401B0328DBD3032072E030
S31508004820DFF89003006830F47410616A0843216A5F
S315080048300843DFF88013086001208021B1FA81F16E
S31508004840DFF8882312EB8101086000F0D1F9050032
S315080048504020B0FA80F050F02000C0B24009C0B243
S31508004860012803D1DFF84803006808E04020B0FAC1
S3150800487080F04020B0FA80F0DFF848030068402155
S31508004880B1FA81F111F01F01C840C0073AD400F00F
S31508004890AFF9401B0328DBD3032034E00020802136
S315080048A0B1FA81F1DFF8242312EB8101086000F0E8
S315080048B09FF905004020B0FA80F050F02000C0B201
S315080048C04009C0B2012803D1DFF8E402006808E015
S315080048D04020B0FA80F04020B0FA80F0DFF8E40219
S315080048E000684021B1FA81F111F01F01C840C007E4
S315080048F008D500F07DF9401B0328DBD3032002E02E
S31508004900012000E0002076BD70B504000D000026E9
S31508004910DFF8C802006810F00700A84211D2DFF8D5
S31508004920BC020068C008C0002843DFF8B01208605F
S31508004930DFF8A802006810F00700A84201D001209D
S31508004940FEE02078800709D5DFF86802006830F0B5
S31508004950F000A1680843DFF85C1208602078C007F9
S3150800496040F1AE806068012824D14FF48040B0FA47
S3150800497080F050F02000C0B24009C0B2012803D12F
S31508004980DFF82C0200680AE04FF48040B0FA80F0A5
S315080049904FF48040B0FA80F0DFF8280200684FF440
S315080049A08041B1FA81F111F01F01C840C0074AD40D
S315080049B00120C5E06068022820D14020B0FA80F0C6
S315080049C050F02000C0B24009C0B2012803D1DFF878
S315080049D0E001006808E04020B0FA80F04020B0FA14
S315080049E080F0DFF8E00100684021B1FA81F111F0AA
S315080049F01F01C840C00726D40120A1E05FF080400F
S31508004A00B0FA80F050F02000C0B24009C0B20128C8
S31508004A1003D1DFF89C0100680AE05FF08040B0FA35
S31508004A2080F05FF08040B0FA80F0DFF89801006807
S31508004A305FF08041B1FA81F111F01F01C840C0074B
S31508004A4001D401207CE05B4800688008800061682A
S31508004A5008435849086000F0CBF80600606801284A
S31508004A600ED15448006810F00C00042828D000F035
S31508004A70BFF8801B41F289318842F2D303205FE0F8
S31508004A80606802280ED14B48006810F00C00082810
S31508004A9016D000F0ADF8801B41F289318842F2D376
S31508004AA003204DE04348006810F00C0F08D000F0D2
S31508004AB09FF8801B41F289318842F3D303203FE0F7
S31508004AC04648006810F0070085420ED24348006841
S31508004AD0C008C0002843414908604048006810F0F3
S31508004AE00700A84201D001202AE02078400707D510
S31508004AF03048006830F4E060E16808432D490860F2
S31508004B002078000708D52B48006830F460502169E2
S31508004B1050EAC1002749086000F013F825490968DA
S31508004B202F4A11F0F0015FF07063B3FA83F3D940AE
S31508004B30515CC84022490860002000F05FF8002058
S31508004B4070BD10B400200021002000220020194862
S31508004B50006810F00C01042902D0082902D020E0D0
S31508004B6016481FE01F4910F470124FF47053B3FA39
S31508004B7083F3DA408A5C104909681B4B11F00F0170
S31508004B805FF07044B4FA84F4E140595CC00304D57C
S31508004B900A48B0FBF1F0504302E0144800FB02F06B
S31508004BA000E0064810BC70470548006870470000DA
S31508004BB000100240041002402C10024000127A0035
S31508004BC000000020241002408004424200004242B5
S31508004BD01C100240007000402010024000200240D5
S31508004BE040530008205300083053000800093D00D0
S31508004BF001480068704700BF0800002010B504008F
S31508004C00074800684FF47A71B0FBF1F000F079F8C4
S31508004C10002221005FF0FF3000F062F8002010BD8E
S31508004C200000002010F00701404800684FF6FF0218
S31508004C3010403F4A52EA012108433C490860704740
S31508004C403A480068C0F30220704740B2002808D5E9
S31508004C500901384A40B210F00F00104400F8041C4D
S31508004C6003E00901344A40B21154704710B410F0F9
S31508004C700700D0F10703052B01D3042301E0D0F187
S31508004C800703041D072C01D2002000E0C01E0124E2
S31508004C9014FA03F35B1E19408140012313FA00F04E
S31508004CA0401E1040084310BC704780B5411EB1F144
S31508004CB0807F01D301200EE0401E204908600F21A5
S31508004CC05FF0FF30FFF7C1FF00201D49086007208D
S31508004CD01C490860002002BD80B5FFF7A3FF01BD8F
S31508004CE070B504000D0016000020FFF7A9FF32007A
S31508004CF02900FFF7BBFF0100200040B2FFF7A5FF20
S31508004D0070BD80B5FFF7D1FF02BD042806D10D4856
S31508004D10006850F004000B49086005E0094800687F
S31508004D2030F0040007490860704700000CED00E009
S31508004D300000FA0518ED00E000E400E014E000E0E9
S31508004D4018E000E010E000E080B500F001F801BDD1
S31508004D507047000078B40022002300242FE00525C0
S31508004D6012F00306F6B2B600B5402C43684D960815
S31508004D7045F82640674C24689C434D68ED0300D5EA
S31508004D801C43644D2C60644C24689C434D68AD03F9
S31508004D9000D51C43604D2C60604C24689C434D68CC
S31508004DA0ED0200D51C435D4D2C605D4C24689C4388
S31508004DB04D68AD0200D51C43594B1C60521C0B684C
S31508004DC0D340002B00F098800B68012494402340C0
S31508004DD0002BF3D04C68022C02D04C68122C15D14B
S31508004DE0D40800EB8404246A0F2512F00706F6B2ED
S31508004DF0B600B540AC430D6912F00706F6B2B60028
S31508004E00B5402C43D50800EB85052C6204680325BC
S31508004E101600F6B27600B540AC430D7915F00305D9
S31508004E201600F6B27600B5402C4304604C68012C97
S31508004E3008D04C68022C05D04C68112C02D04C685E
S31508004E40122C17D1846803251600F6B27600B540F1
S31508004E50AC43CD681600F6B27600B5402C438460A4
S31508004E60446801259540AC434D68C5F30015954047
S31508004E702C434460C46803251600F6B27600B54094
S31508004E80AC438D681600F6B27600B5402C43C46074
S31508004E904C68E40092D5234C246854F00104214D53
S31508004EA02C60204C246814F001040094009C184CD3
S31508004EB0950854F825400F2512F00306F6B2B600F9
S31508004EC0B540AC43B0F1904F01D1002548E7164DE7
S31508004ED0A84201D1012543E7144DA84201D1022574
S31508004EE03EE7134DA84201D1032539E7114DA842E3
S31508004EF07FF435AF042533E771BC7047D2B2002A78
S31508004F0002D089B2816101E089B2816270470000EE
S31508004F10080001400004014004040140080401405F
S31508004F200C0401401810024000040048000800481C
S31508004F30000C00480010004880B500F003F800F0A7
S31508004F40C9F8FCE780B500F0EFF800F005F800F0C6
S31508004F50FFF800F0B7F801BD00B58FB00120059045
S31508004F605FF4A020069000200790012009900220F7
S31508004F700C905FF480300D905FF4E0100E9005A859
S31508004F80FFF704F9002800D0FEE70F200090022062
S31508004F900190002002904FF4806003900020049056
S31508004FA002216846FFF7B0FC002800D0FEE70FB0E4
S31508004FB000BD00B587B04048006850F001003E4982
S31508004FC008603D48006810F00100009000983B48D2
S31508004FD0006850F48000394908603848006810F4C1
S31508004FE08000009000983548006850F40010334956
S31508004FF008603248006810F40010009000982F48A6
S31508005000006850F400302D4908602C48006810F4F8
S315080050100030009000980320FFF75EFE0022002172
S315080050207FF00B00FFF75CFE002200217FF00A00EC
S31508005030FFF756FE002200217FF00900FFF750FE19
S31508005040002200217FF00400FFF74AFE002200211B
S315080050507FF00300FFF744FE002200217FF00100E5
S31508005060FFF73EFE002200215FF0FF30FFF738FE13
S315080050704FF48050019001200290002003900320F5
S31508005080049001A95FF09040FFF764FE00224FF4F8
S3150800509080515FF09040FFF731FF4FF48070019028
S315080050A001200290002003900020049001A90448E2
S315080050B0FFF750FE07B000BD18100240141002405A
S315080050C00010004880B500224FF480711348FFF79E
S315080050D015FF01BD10B500F04EF804001048006831
S315080050E0201AB0F5FA7F18D30E480078002809D19F
S315080050F001200C49087001224FF480710748FFF718
S31508005100FDFE08E000200749087000224FF4807170
S315080051100248FFF7F3FE0248046010BD001000487D
S31508005120040000200C00002080B50848006850F0F4
S315080051301000064908600320FFF7CEFD0020FFF7A0
S315080051405DFDFFF736FF002002BD0000002002408B
S3150800515080B5FFF729FD4FF47A71B0FBF1F0FFF740
S31508005160D0FD0420FFF7D1FD002200215FF0FF30BB
S31508005170FFF7B6FD01BD80B5FFF73AFD02BD80B564
S3150800518000F004F8FFF7E0FD01BD000002480068E2
S31508005190401C014908607047080000201B48006849
S315080051A050F47000194908601948006850F0010069
S315080051B017490860174800681749084015490860E4
S315080051C013480068154908401149086010480068E6
S315080051D030F480200E4908600E48006830F4FE005E
S315080051E00C4908600E480068000900010C4908606F
S315080051F00C4800680C4908400A49086000200B4919
S3150800520008600B480B4908607047000088ED00E00D
S3150800521000100240041002400CC07FF8FFFFF6FEA3
S315080052202C10024030100240CCFC00FF081002404F
S315080052300040000808ED00E010B450F8041B79B1EE
S315080052400268436802440830DC0744BFA9F1010438
S31508005250E31852F8044B43F8044B091FF9D1ECE75D
S3150800526010BC704710B5074979441831064C7C4480
S31508005270163404E00A68081D114488470146A1420D
S31508005280F8D110BD2C0000003C0000004EF68851F5
S31508005290CEF20001086840F470000860BFF34F8F33
S315080052A0BFF36F8F4FF00070E1EE100A70470000F1
S315080052B089FFFFFF10000000980000000000002092
S315080052C00000000000F00BF8002801D0FFF7CAFF25
S315080052D00020AFF30080FFF72FFE00F002F8012050
S315080052E0704700F001B800000746384600F002F89B
S315080052F0FBE7000080B5AFF30080024A11001820D2
S31508005300ABBEFBE7260002000248854602488047F6
S3150800531002480047100800209D5100086153000804
S3150800532002030405060708090A0B0C0D0E0F1010D8
S315080053300102030405060708090A0B0C0D0E0F10D7
S315080053400000000000000000010203040607080927
S3150800535000127A00000000000000000000000000B3
S31508005360AFF30080FFF792FFFFF7ACFFFFF7FEBF32
S31508005370FFF7FEBFFFF7FEBFFFF7FEBFFFF7FEBF53
S31508005380FFF7FEBFFFF7FEBFFFF7FEBFFFF7FEBF43
S31508005390FFF7FEBFFFF7FEBFFFF7FEBFFFF7FEBF33
S315080053A0FFF7FEBFFFF7FEBFFFF7FEBFFFF7FEBF23
S315080053B0FFF7FEBFFFF7FEBFFFF7FEBFFFF7FEBF13
S315080053C0FFF7FEBFFFF7FEBFFFF7FEBFFFF7FEBF03
S315080053D0FFF7FEBFFFF7FEBFFFF7FEBFFFF7FEBFF3
S315080053E0FFF7FEBFFFF7FEBFFFF7FEBFFFF7FEBFE3
S315080053F0FFF7FEBFFFF7FEBFFFF7FEBFFFF7FEBFD3
S31508005400FFF7FEBFFFF7FEBFFFF7FEBFFFF7FEBFC2
S31508005410FFF7FEBFFFF7FEBFFFF7FEBFFFF7FEBFB2
S31508005420FFF7FEBFFFF7FEBFFFF7FEBFFFF7FEBFA2
S31508005430FFF7FEBFFFF7FEBFFFF7FEBFFFF7FEBF92
S31508005440FFF7FEBFFFF7FEBFFFF7FEBFFFF7FEBF82
S31508005450FFF7FEBFFFF7FEBFFFF7FEBFFFF7FEBF72
S31508005460FFF7FEBFFFF7FEBFFFF7FEBFFFF7FEBF62
S31508005470FFF7FEBFFFF7FEBFFFF7FEBFFFF7FEBF52
S31508005480FFF7FEBFFFF7FEBFFFF7FEBFFFF7FEBF42
S30908005490FFF7FEBF57
S705080053613E
