S02000006F70656E626C745F6F6C696D65785F73746D3332703430352E7372656302
S31508000000000002204D0B0008190B00081B0B000806
S315080000101D0B00081F0B0008210B0008000000003C
S31508000020000000000000000000000000230B00088C
S31508000030250B000800000000270B0008290B000804
S315080000409D0B00089D0B00089D0B00089D0B0008E2
S315080000509D0B00089D0B00089D0B00089D0B0008D2
S315080000609D0B00089D0B00089D0B00089D0B0008C2
S315080000709D0B00089D0B00089D0B00089D0B0008B2
S315080000809D0B00089D0B00089D0B00089D0B0008A2
S315080000909D0B00089D0B00089D0B00089D0B000892
S315080000A09D0B00089D0B00089D0B00089D0B000882
S315080000B09D0B00089D0B00089D0B00089D0B000872
S315080000C09D0B00089D0B00089D0B00089D0B000862
S315080000D09D0B00089D0B00089D0B00089D0B000852
S315080000E09D0B00089D0B00089D0B00089D0B000842
S315080000F09D0B00089D0B00089D0B00089D0B000832
S315080001009D0B00089D0B00089D0B00089D0B000821
S315080001109D0B00089D0B00089D0B00089D0B000811
S315080001209D0B00089D0B00089D0B00089D0B000801
S315080001309D0B000800000000000000009D0B000851
S315080001409D0B00089D0B00089D0B00089D0B0008E1
S315080001509D0B00089D0B00089D0B00089D0B0008D1
S315080001609D0B00089D0B00089D0B00089D0B0008C1
S315080001709D0B00089D0B0008000000000000000011
S30D080001809D0B00089D0B000809
S3150800018810B5054C237833B9044B13B10448AFF3BB
S3150800019800800123237010BD8C0100200000000098
S315080001A8308E000808B5034B1BB103490348AFF363
S315080001B8008008BD0000000090010020308E00086D
S315080001C853B94AB9002908BF00281CBF4FF0FF31A8
S315080001D84FF0FF3000F06AB9ADF1080C6DE904CEAE
S315080001E800F006F8DDF804E0DDE9022304B07047FC
S315080001F82DE9F047089D0C46002B4ED194468C45B0
S315080002088646B2FA82F262D94AB1C2F1200391400F
S3150800021820FA03F30CFA02FC194300FA02FE4FEA25
S315080002281C471FFA8CF6B1FBF7F44FEA1E4307FB87
S31508000238141143EA014304FB06F199420AD91CEB57
S31508000248030304F1FF3080F01281994240F20F81CE
S31508000258023C6344591A1FFA8EF3B1FBF7F007FB01
S31508000268101143EA014300FB06F69E420AD91CEB25
S31508000278030300F1FF3180F0FC809E4240F2F980CA
S31508000288634402389B1B40EA044000211DB1D34051
S315080002980022C5E90032BDE8F0878B4205D90DB1C1
S315080002A8C5E9000100210846F5E7B3FA83F10029F4
S315080002B846D1A34202D39042C0F0F080861A64EB76
S315080002C803030120002DE6D0C5E90063E3E7002A09
S315080002D840F09080A1EB0C044FEA1C481FFA8CF7F3
S315080002E80121B4FBF8F64FEA1E4308FB164443EA15
S315080002F8044307FB06F0984208D91CEB030306F1EA
S31508000308FF3402D2984200F2CD8026461C1A1FFAFC
S315080003188EF3B4FBF8F008FB104443EA044300FBE9
S3150800032807F79F4208D91CEB030300F1FF3402D2F2
S315080003389F4200F2B0802046DB1B40EA0640A5E74C
S31508000348C1F120068B4022FA06F71F4320FA06FC5D
S3150800035804FA01F343EA0C03F44000FA01F8380CEE
S315080003684FEA1349B4FBF0FE1FFA87FC00FB1E444C
S3150800037849EA04440EFB0CF9A14502FA01F20AD926
S315080003883C190EF1FF3A80F08480A14540F281803D
S31508000398AEF1020E3C44A4EB09041FFA83F9B4FB38
S315080003A8F0F300FB134449EA044403FB0CFCA44598
S315080003B807D93C1903F1FF3067D2A44565D9023B32
S315080003C83C4443EA0E40A0FB0293A4EB0C049C426F
S315080003D8CE469C4651D34ED055B1B8EB0E0364EBC6
S315080003E80C0404FA06F6CB401E43CC40C5E9006463
S315080003F8002150E7C2F1200320FA03F10CFA02FCA7
S3150800040824FA03F394400C434FEA1C4800FA02FE08
S315080004181FFA8CF7B3FBF8F008FB1031230C43EAF4
S31508000428014300FB07F1994208D91CEB030300F1C5
S31508000438FF362CD299422AD9023863445B1AA4B2E9
S31508000448B3FBF8F108FB113344EA034401FB07F34D
S31508000458A34208D91CEB040401F1FF3613D2A342C0
S3150800046811D902396444E41A41EA004139E70446D5
S31508000478F0E6084606E7C845AED2B9EB020E63EBC6
S31508000488070C0138A8E73146EDE7034699E73046F1
S31508000498D4E7D6467FE7634402384DE7064623463F
S315080004A808460FE7023E634430E700BF704700BFBF
S315080004B808B505F055FA08BD08B505F061FA08BD8E
S315080004C808B5054B1B6913F0010F01D0002008BDBC
S315080004D800F006F90120FAE70000024008B5642092
S315080004E800F0CEF808BD08B500F0D0F808BD000041
S315080004F830B589B00446154B1B783BB1012C1FD083
S31508000508134B4FF400629A6109B030BD114B1A6B50
S3150800051842F004021A631B6B03F004030193019B60
S315080005284FF4006302930125039500230493059568
S31508000538069302A9064802F015FA044B1D70DDE772
S31508000548034B4FF000629A61DEE700BFA80100205E
S3150800055800080240003802407047704700B5C7B027
S315080005684FF48C720021684608F017FC694608485B
S3150800057808F033F840B9009B3BB19DF8083013F0F2
S31508000588100F02D1012000E0002047B05DF804FBF7
S31508000598588E000800487047588E000808B507485E
S315080005A8002380F828320A22054907F0E7FB18B91C
S315080005B8024B012283F8282208BD00BFAC0100209F
S315080005C8488E000810B50D4B93F82832012B10D029
S315080005D804F070FF00F16404094B1B6813F0400F20
S315080005E803D104F067FFA042F6D9064808F017F8C1
S315080005F810BD024807F01EFFEAE700BFAC0100205D
S3150800060800440040588E000808B5054B93F8283270
S31508000618012B00D008BD024807F00CFFFAE700BF17
S31508000628AC01002038B50546134B93F82832012B40
S315080006380CD1114908F076F8002807DA0E48002385
S3150800064880F8283207F0F6FE00E001352B788BB1E2
S315080006580A4A536004F02EFF00F10A04074B1B6888
S3150800066813F0800FF1D105F03DFA04F023FFA042FC
S31508000678F4D9EAE738BD00BFAC01002000440040C1
S31508000688014B1880704700BFE003002008B504F046
S3150800069811FF0F4B1B68984210D30E4B1B7873B982
S315080006A80C4B01221A700C4B4FF080529A6104F0D9
S315080006B801FF0A4B1B880344054A136008BD054B0E
S315080006C800221A70044B4FF480529A61EFE700BF74
S315080006D8DC030020D803002000080240E0030020BD
S315080006E8024B4FF480529A61704700BF00080240D7
S315080006F82DE9F0418AB000240494059406940794D9
S3150800070808940994244B1A6B42F080021A631A6BF0
S3150800071802F080020392039A1A6B42F001021A63E6
S315080007281A6B02F001020292029A1A6B42F002024E
S315080007381A631A6B02F002020192019A1A6B42F0C6
S3150800074804021A631B6B03F004030093009BDFF88B
S3150800075854804FF48055C8F81850104FBD610126CB
S31508000768049604A90E4802F0FDF804950596022396
S3150800077806930794089404A9404602F0F3F80495EA
S31508000788059606940794089404A9384602F0EAF8E8
S315080007980AB0BDE8F08100BF0038024000080240F0
S315080007A8000002400004024030B591B000240994C4
S315080007B80A940B940C940D940E940F940394049431
S315080007C805940694079408941D4B1A6C42F4003253
S315080007D81A641A6C02F400320292029A1A6B42F0F0
S315080007E801021A631B6B03F001030193019B0C2595
S315080007F803950223049303230593072308930DEB14
S315080008080501104802F0AEF84FF4E13309930A944B
S315080008180B940C940D950E940F940B4C09A920462D
S3150800082802F04AFA236923F490432361636923F0A3
S315080008382A036361E36843F40053E36011B030BDEB
S3150800084800380240000002400044004008B5304A1B
S31508000858136823F0070343F0050313602C4B1B6842
S3150800086803F00703052BF9D12A4A136843F4804392
S31508000878136002F5E432136843F480331360264B99
S315080008881B6813F4003FFAD0234B5A6823491140D2
S31508000898234A0A435A605A6822F440325A605A6808
S315080008A820491140204A0A435A601A6842F0807261
S315080008B81A60194B1B6813F0007FFAD0154B5B6852
S315080008C813F4804FFAD0144B9A6822F0F0029A6013
S315080008D89A6822F4E05242F4A0529A609A6822F47E
S315080008E8604242F400429A609A6822F0030242F093
S315080008F802029A60084B9B6803F00C03082BF9D18F
S315080009080A4803F013F8002000F064F908BD00BF90
S31508000918003C024000700040003802400080BFFFDB
S31508000928085440000080BFF008544007007A030ABC
S3150800093808B500F075F9FFF789FFFFF7D9FEFFF745
S3150800094833FFFFF7B5FDFFF7B7FDFCE782B00021D7
S3150800095800910B4B5A6C42F480425A645A6C02F462
S3150800096880420092009A01911A6C42F080521A64E9
S315080009781B6C03F080530193019B02B0704700BFBC
S315080009880038024000B589B0002303930493059301
S31508000998069307930268154B9A4202D009B05DF888
S315080009A804FB0021019103F5EA331A6C42F0007240
S315080009B81A641A6C02F000720192019A02911A6B73
S315080009C842F002021A631B6B03F002030293029BAE
S315080009D84FF44073039302230493032306930923CE
S315080009E8079303A9024800F041FED7E700640040D0
S315080009F80004024030B589B0002303930493059395
S31508000A08069307930368B3F1A04F01D009B030BD28
S31508000A1800250195124C236B43F001032363236BCE
S31508000A2803F001030193019B4FF4C0530393022378
S31508000A380493032306930A23079303A9094800F096
S31508000A4815FE636B43F0800363630295636C43F496
S31508000A5880436364636C03F480430293029BD5E77F
S31508000A68003802400000024008B50368B3F1A04FF9
S31508000A7800D008BD054A536B23F0800353634FF42F
S31508000A88C051034800F0E8FEF3E700BF003802400B
S31508000A980000024010B501F0AFFF184C636B23F055
S31508000AA880036363164801F0C1FE164801F0BEFECE
S31508000AB8154801F0BBFE236C23F000732364134A20
S31508000AC8D36823F40053D360236C23F400332364D8
S31508000AD8236B23F004032363236B23F002032363A6
S31508000AE8236B23F001032363236C23F080532364C9
S31508000AF8636C23F48043636410BD00BF003802406A
S31508000B080008024000040240000002400044004079
S31508000B187047FEE7FEE7FEE7FEE77047704770474F
S31508000B2808B500F097F808BD054BD3F8882042F4B5
S31508000B387002C3F888204FF000629A60704700BFB9
S31508000B4800ED00E0DFF834D0002103E00C4B5B58D9
S31508000B58435004310B480C4B42189A42F6D30B4AB9
S31508000B6802E0002342F8043B094B9A42F9D3FFF7FF
S31508000B78DBFF08F027F9FFF7DBFE704700000220C5
S31508000B88D4970008000000208C0100208C01002062
S31508000B98601D0020FEE7000010B50A4B0A4A1A62D3
S31508000BA800241C62094A5A625C62094A1A611C6175
S31508000BB8C1225A615C6101229A619C61FFF76AFF4A
S31508000BC8204610BD00380240FFC9FEF6337977047F
S31508000BD8FF11602010B504460E4B1A784FF47A7345
S31508000BE8B3FBF2F30C4A1068B0FBF3F000F056FBBF
S31508000BF868B90F2C01D901200AE0002221464FF0D6
S31508000C08FF3000F03BFB054B1C60002000E001208C
S31508000C1810BD00BF040000200000002008000020C6
S31508000C2808B50B4B1A6842F400721A601A6842F43F
S31508000C3880621A601A6842F480721A60032000F00B
S31508000C480BFB0020FFF7C6FFFFF780FE002008BD54
S31508000C58003C0240034A1168034B1B780B44136097
S31508000C68704700BFC80800200400002038B50446AD
S31508000C7804F028FC0546B4F1FF3F02D0044B1B7864
S31508000C881C4404F01FFC401BA042FAD338BD00BF21
S31508000C9804000020002800F0A18038B5044690F822
S31508000CA82030D3B12268136843F00103136004F0B7
S31508000CB809FC054623685A6812F0010F10D104F09A
S31508000CC801FC401B0A28F5D9636A43F400336362BA
S31508000CD8052384F82030012038BDFFF753FEE1E7E5
S31508000CE81A6822F002021A6004F0ECFB054623682B
S31508000CF85A6812F0020F0DD004F0E4FB401B0A28CC
S31508000D08F5D9636A43F400336362052384F820300F
S31508000D180120E1E7227E012A3DD01A6822F08002E6
S31508000D281A60637E012B3BD02268136823F04003C0
S31508000D381360A37E012B39D02268136823F0200399
S31508000D481360E37E012B37D02268136843F010033B
S31508000D581360237F012B35D02268136823F0080314
S31508000D681360637F012B33D02268136823F00403CA
S31508000D781360A368E268134322691343626913433D
S31508000D886268013A21681343CB6100206062012337
S31508000D9884F82030A0E71A6842F080021A60C0E793
S31508000DA82268136843F040031360C2E72268136891
S31508000DB843F020031360C4E72268136823F010037E
S31508000DC81360C6E72268136843F008031360C8E788
S31508000DD82268136843F004031360CAE701207047C2
S31508000DE890F82030013BDBB2012B05D9436A43F45E
S31508000DF8802343620120704730B5464BD3F800225A
S31508000E0842F00102C3F80022D3F8002222F47C52E9
S31508000E18C3F80022D3F80022486A42EA0022C3F837
S31508000E2800224A6902F01F02012000FA02F2D3F8EA
S31508000E381C026FEA020C20EA0200C3F81C02CB69FE
S31508000E48C3B9344BD3F80C020CEA0000C3F80C02F9
S31508000E588C884869CD6844EA0544483043F83040E8
S31508000E688C68088840EA04404C6904F1480E03EB8C
S31508000E78CE035860CB69012B1ED08B69002B33D162
S31508000E882448D0F804320CEA0303C0F804320B6984
S31508000E988BBB2048D0F814320CEA0303C0F8143286
S31508000EA80B6A012B2ED01B4AD2F8003223F0010315
S31508000EB8C2F80032002030BD164BD3F80C02104396
S31508000EC8C3F80C028C8848690D6844EA054448301A
S31508000ED843F8304088894C698D6840EA05404834AB
S31508000EE803EBC4035860C8E70A48D0F8043213432A
S31508000EF8C0F80432CBE70748D0F814321343C0F8D1
S31508000F081432CDE70349D1F81C321343C1F81C3211
S31508000F18C9E700BF0064004070B5044690F8205041
S31508000F28EDB2012D06D0436A43F400234362012536
S31508000F38284670BD022380F820300268136823F01B
S31508000F480103136004F0BEFA064623685B6813F0CB
S31508000F58010F0CD004F0B6FA831B0A2BF5D9636A7D
S31508000F6843F400336362052384F82030E0E700255C
S31508000F786562DDE730B590F820C00468A4680CF10E
S31508000F88FF3C5FFA8CFCBCF1010F62D814F0E05FF5
S31508000F9859D0C4F3016C012404FA0CF41C608B685C
S31508000FA8002B3DD10D68CB68046843EA45550CF11A
S31508000FB818031B01E55003680C690CF1180E03EBBE
S31508000FC80E135C600B7D012B35D0D17993791B0400
S31508000FD843EA0163517943EA0123147901682343F3
S31508000FE801EB0C11C1F88C31D17893781B0443EACC
S31508000FF80163517843EA0123117802680B4302EB2F
S315080010080C12C2F8883102680CF1180C4FEA0C1C4D
S3150800101852F80C3043F0010342F80C3000201DE06A
S315080010284C6843EAC403CC6823430CF1180424012A
S3150800103805682B51BFE7036803EB0E13596841F49B
S3150800104880715960C1E7436A43F40013436201207B
S3150800105804E0436A43F480234362012030BD90F8D4
S315080010682030013BDBB2012B01D900207047036809
S315080010789B6803EA8163B3EB816F01D0012070474F
S315080010880020704790F820C00CF1FF3C5FFA8CFCF2
S31508001098BCF1010F00F2A58030B451B90468E468C0
S315080010A814F0030F10D1436A43F400134362012076
S315080010B87EE00468246914F0030F05D1436A43F4F3
S315080010C800134362012073E0056801F11B0424013B
S315080010D82C5904F004049460002C6BD1056801F1BE
S315080010E81B0424012C59640D1460046801F11B0CB7
S315080010F84FEA0C1C54F80C4004F00204D460046847
S31508001108A444DCF8045015F0080F5BD008241461D1
S31508001118046801F11B0C04EB0C146468C4F3072477
S315080011289461046804EB0C146468240C546102681E
S3150800113802EB0112D2F8B8211A70026802EB011202
S31508001148D2F8B821C2F307225A70026802EB0112D4
S31508001158D2F8B821C2F307429A70026802EB011264
S31508001168D2F8B821120EDA70026802EB0112D2F828
S31508001178BC211A71026802EB0112D2F8BC21C2F32B
S3150800118807225A71026802EB0112D2F8BC21C2F38F
S3150800119807429A71026802EB0112D2F8BC21120EB4
S315080011A8DA71C1B90268D36843F02003D360002016
S315080011B830BC7047056801F11B0424012C59E40862
S315080011C8546092E701F11B0504EB0514646804F002
S315080011D80F0414619CE70268136943F0200313613E
S315080011E8E5E7436A43F48023436201207047000019
S315080011F8002808DB0901C9B200F1604000F5614022
S3150800120880F80013704700F00F000901C9B2014BB6
S315080012181954704714ED00E000B500F00700C0F156
S31508001228070CBCF1040F28BF4FF0040C031D062B4E
S315080012380FD9C31E4FF0FF3E0EFA0CF021EA000143
S3150800124899400EFA03FE22EA0E0241EA02005DF808
S3150800125804FB0023EEE70000074AD36823F4E0639B
S315080012681B041B0C000200F4E060034343F0BF6351
S3150800127843F40033D360704700ED00E010B5044628
S31508001288054BD868C0F30220FFF7C6FF014620467B
S31508001298FFF7AEFF10BD00BF00ED00E00138B0F162
S315080012A8807F0BD24FF0E0235861054AF02182F877
S315080012B823100020986107221A6170470120704799
S315080012C800ED00E010B40A490C6924F440740C6176
S315080012D80C6944F440740C610C6944F001040C610F
S315080012E80260BFF36F8F43605DF8044B704700BF19
S315080012F8003C0240074B1A6922F440721A611A69BF
S3150800130842F400721A611A6942F001021A61016010
S31508001318704700BF003C0240074B1A6922F4407226
S315080013281A611A6942F480721A611A6942F001024E
S315080013381A610180704700BF003C0240064B1A69D3
S3150800134822F440721A611A691A611A6942F001028E
S315080013581A610170704700BF003C0240204BDB68E9
S3150800136813F0100F07D01F4AD36943F01003D3614F
S315080013781B4B1022DA601A4BDB6813F0200F07D0D4
S31508001388184AD36943F00803D361154B2022DA605B
S31508001398134BDB6813F0400F07D0124AD36943F0A2
S315080013A80403D3610E4B4022DA600D4BDB6813F059
S315080013B8800F07D00B4AD36943F00203D361084B61
S315080013C88022DA60064BDB6813F0020F07D0054A5D
S315080013D8D36943F02003D361014B0222DA607047D0
S315080013E8003C0240CC080020094B1B69002B01DB96
S315080013F800207047064B074A5A6002F188325A603D
S315080014081B69002B01DB002070470120704700BFCD
S31508001418003C024023016745034A136943F0004329
S3150800142813610020704700BF003C024038B50446E7
S31508001438144B0022DA6104F045F80546124BDB68BE
S3150800144813F4803F0AD0B4F1FF3FF7D024B104F073
S3150800145839F8401BA042F1D903200DE00A4BDB6896
S3150800146813F0010F02D0084B0122DA60064BDB683D
S3150800147813F0F20F01D1002038BDFFF76FFF0120E6
S31508001488FAE700BFCC080020003C0240F8B516462B
S315080014981B4A127E012A30D004460D461F46184BB1
S315080014A801221A764CF25030FFF7C0FF90B9ACB15A
S315080014B8012C18D0022C1BD032463B462846FFF78B
S315080014C801FF4CF25030FFF7B1FF0E4A136923F0BB
S315080014D8010313610A4B00221A76F8BDF1B22846B1
S315080014E8FFF72CFFEDE7B1B22846FFF715FFE8E747
S315080014F831462846FFF7FEFEE3E70220EDE700BF80
S31508001508CC080020003C0240074B1A6922F44072B6
S315080015181A611A6942F004021A611A6942EA002233
S3150800152842F480321A617047003C024001291BD0F8
S3150800153802291CD009B14FF440710E4B1A6922F4DE
S3150800154840721A611A690A431A611A6922F0F8027E
S315080015581A611A6942EAC00040F0020018611A695D
S3150800156842F480321A6170474FF48071E5E74FF408
S315080015780071E2E7003C0240164B1B6813F4007F33
S3150800158810D0144B1A6822F400721A601A6842F4CA
S3150800159800621A601A6822F400621A601A6842F42D
S315080015A800721A600B4B1B6813F4806F10D0094B36
S315080015B81A6822F480621A601A6842F480521A601D
S315080015C81A6822F480521A601A6842F480621A600D
S315080015D8704700BF003C0240F8B5224B1B7E012B22
S315080015E83ED004460E461F4B01221A764CF250305E
S315080015F8FFF71CFF074670BB4FF0FF3333602368BD
S31508001608012B16D0A568E368A2681344AB4220D913
S31508001618217C2846FFF78AFF4CF25030FFF706FF71
S31508001628114A136923F0FA031361074680B901358D
S31508001638E9E76168207CFFF767FF4CF25030FFF74F
S31508001648F5FE0746084A136923F00403136100E008
S315080016583560FFF791FF034B00221A763846F8BD26
S315080016680227FBE7CC080020003C024000230F2B8A
S3150800167800F2E98070B582B065E085684FEA430EE6
S31508001688032404FA0EF425EA0405CC6804FA0EF4D1
S315080016982C438460446824EA02044A68C2F30012A8
S315080016A89A40224342605CE0DC08083450F824205B
S315080016B803F00705AD004FF00F0E0EFA05FE22EAF5
S315080016C80E0E0A69AA4042EA0E0240F824205CE097
S315080016D8072200E0002202FA0EF22A4302345A4D83
S315080016E845F82420594A94686FEA0C0224EA0C053E
S315080016F84E6816F4801F01D04CEA0405534CA560C1
S31508001708E46802EA04054E6816F4001F01D04CEA9C
S3150800171804054E4CE560646802EA04054E6816F44A
S31508001728003F01D04CEA0405484C6560246822400D
S315080017384D6815F4803F01D04CEA0402434C2260F8
S3150800174801330F2B7DD801229A400C6804EA020C53
S3150800175832EA0404F4D14C6804F00304013C012C71
S315080017688BD94A6802F00302032A09D0C4685D00C7
S315080017780322AA4024EA02048A68AA402243C260CD
S315080017884A6802F00302022A8ED004684FEA430E1A
S31508001798032202FA0EF224EA02044A6802F0030255
S315080017A802FA0EF2224302604A6812F4403FC7D092
S315080017B800220192264A546C44F480445464526CBC
S315080017C802F480420192019A9C08A51C1E4A52F806
S315080017D8255003F0030E4FEA8E0E0F2202FA0EF278
S315080017E825EA02051B4A90423FF474AF02F5806267
S315080017F890421AD002F58062904218D002F58062AB
S31508001808904216D002F58062904214D002F58062A2
S31508001818904212D002F58062904210D002F580629A
S3150800182890423FF455AF082255E7012253E70222B2
S3150800183851E703224FE704224DE705224BE7062224
S3150800184849E702B070BD704700380140003C0140C6
S31508001858003802400000024000230F2B00F28F8058
S31508001868F0B52DE0072500E0002505FA0CF5A54298
S3150800187869D004685D004FF0030C0CFA05FC24EAED
S315080018880C0404604FEAD30E0EF1080E50F82E40E9
S3150800189803F00706B6000F25B54024EA050440F804
S315080018A82E40C46824EA0C04C460446824EA020288
S315080018B84260826822EA0C02826001330F2B5DD8E7
S315080018C801229A4002EA010632EA0104F5D14FEAF2
S315080018D8930E0EF102052A4C54F8254003F0030C22
S315080018E84FEA8C0C0F2505FA0CF73C40254DA84203
S315080018F8BAD005F58065A84219D005F58065A842CD
S3150800190817D005F58065A84215D005F58065A84263
S3150800191813D005F58065A84211D005F58065A8425B
S315080019280FD005F58065A8429CD008259DE70125B6
S315080019389BE7022599E7032597E7042595E70525F3
S3150800194893E7062591E7104C256825EA06052560DC
S31508001958656825EA06056560E56825EA0605E56019
S31508001968A56825EA0605A560054E0EF1020456F88F
S31508001978245025EA070546F824507AE7F0BD70474B
S315080019880038014000000240003C01402DE9F043C0
S3150800199883B0D0F8008001EBC10300EB83039A6A91
S315080019A85B6A9A4254D807460C469B1A01EBC10251
S315080019B800EB8202D2699A4200D31A4602F1030959
S315080019C84FEA990915E006F103094FEA9909BB791F
S315080019D804EBC40507EB8505296A0093B3B2E2B29E
S315080019E8404601F0FCFC2B6A33442B62AB6A33444D
S315080019F8AB6208EB441303F510639B699BB24B452E
S31508001A0812D304EBC40307EB83039A6A5B6A9A4208
S31508001A180AD24BB19B1A04EBC40207EB8202D669B9
S31508001A289E42D0D31E46CEE704EBC40307EB8307D2
S31508001A387A6ABB6A9A420FD804F00F040122A240B8
S31508001A48D8F8343823EA0203C8F83438002000E006
S31508001A58012003B0BDE8F0830020FAE730B583B06B
S31508001A6800287AD00446056890F89534C3B103234C
S31508001A7884F89534B5F1A04F17D0206801F062FABA
S31508001A88237C8DF80030231D0ECB206801F099F9C8
S31508001A9870B1022384F895340125284603B030BD71
S31508001AA880F89434FEF7A6FFE1E70023A371E4E77C
S31508001AB80021206801F0C9FE024608B9034617E066
S31508001AC8022384F895340125E7E703EBC30104EB01
S31508001AD88101012048750B75CB8500200876C861F9
S31508001AE8086203EBC30104EB810148620133DBB2E8
S31508001AF820799842E9D816E002EBC20304EB83037F
S31508001B08002183F8551283F8542283F85812C3F82B
S31508001B185C12C3F8601202EBC20304EB8303C3F832
S31508001B2864120132D2B29042E6D8237C8DF800308E
S31508001B38231D0ECB206801F05BFA054620B1022367
S31508001B4884F895340125A8E700236374012384F8EB
S31508001B589534206801F038FE9FE701259DE738B5DA
S31508001B6890B10446032380F89534006801F0EEFD29
S31508001B78054610B10125284638BD2046FEF774FFEC
S31508001B88002384F89534F6E70125F4E7036890F806
S31508001B989424012A1AD010B50446012280F8942400
S31508001BA8DA6812F0400F02D0427B012A09D0206871
S31508001BB801F0C2F9206801F0F9FD002084F89404C0
S31508001BC810BD9A6B42F480329A63F0E70220704798
S31508001BD838B5056890F89434012B1DD004460123BE
S31508001BE880F89434284601F0ADF9206801F0ECFD38
S31508001BF81021206801F0ACF9EB6813F0400F02D009
S31508001C08637B012B03D0002084F8940438BDAB6BA2
S31508001C1823F48033AB63F6E70220F7E770B504468A
S31508001C280D460068066C00EB411303F530639A68A5
S31508001C38A179012911D038498E4256D03DB905EB0C
S31508001C48C50304EB8303D3F86432002B5ED0E9B2EC
S31508001C58204606F033FF002070BD12F0080F09D0A1
S31508001C682E498E42F7D912F4004FF4D04FF40042A9
S31508001C789A60F0E712F0200F02D020229A60EAE76D
S31508001C8812F0280FE7D125498E4206D912F4004FDB
S31508001C9803D04FF400429A60DDE705EBC50204EB72
S31508001CA88202D2F874121B69C3F31203CB1AC2F85C
S31508001CB868327DB905EBC50204EB8202D2F86422C4
S31508001CC86AB105EBC50204EB8202D2F86012194420
S31508001CD8C2F86012E9B2204606F0F0FEBBE704F245
S31508001CE89C42012101F0F2FDF4E712F4004F03D0FB
S31508001CF84FF400429A60AEE712F0200F01D0202276
S31508001D089A60E9B2204606F0D9FEA4E704F29C4296
S31508001D18002101F0DBFD9AE70A31544F0A30544F87
S31508001D2838B5044603681D6C03EB4113D3F8081B42
S31508001D380E4A954207D903F5306311F4004F02D0CD
S31508001D484FF400429A60204606F0B0FE074B9D42C3
S31508001D5802D9A379012B01D0002038BD04F29C4290
S31508001D680121206801F0B2FDF6E700BF0A30544F9A
S31508001D78036890F89424012A17D010B5044601225E
S31508001D8880F89424DA6812F0400F02D0427B012AC0
S31508001D9806D0206801F00AFD002084F8940410BDD6
S31508001DA89A6B42F480329A63F3E70220704738B593
S31508001DB8056890F89434012B16D00446012380F858
S31508001DC89434284601F000FDEB6813F0400F02D062
S31508001DD8637B012B03D0002084F8940438BDAB6BD1
S31508001DE823F48033AB63F6E70220F7E790F89434D8
S31508001DF8012B0CD010B50446012380F8943441749D
S31508001E08006801F0C3FC002084F8940410BD022081
S31508001E18704738B505468C4611F0800F29D101F070
S31508001E280F0E0EEBCE04A40004F514740444211D09
S31508001E380EEBCE0E00EB8E0E00208EF855020CF037
S31508001E480F0C81F800C08A600B714A780AB1A1F8AC
S31508001E581AC0022B1CD095F89434012B1BD00123E9
S31508001E6885F89434286801F09EF9002085F89404CA
S31508001E7838BD01F00F0000EBC00189001031294474
S31508001E88043100EBC00005EB800001244475D6E751
S31508001E9800234B71DFE70220EAE710B504460A4635
S31508001EA811F0800F20D101F00F0000EBC0039B0052
S31508001EB803F514732344191D00EBC00004EB8000D6
S31508001EC8002380F8553202F00F020A7094F8943409
S31508001ED8012B18D0012384F89434206801F0B0F94E
S31508001EE8002084F8940410BD01F00F0000EBC0032D
S31508001EF89B0010332344191D00EBC00004EB800037
S31508001F0801234375DFE70220EDE710B5144601F013
S31508001F180F0C0CEBCC01890001F51471014404314E
S31508001F280CEBCC0E00EB8E0ECEF86022CEF864329F
S31508001F380023CEF868328EF855328EF854C2827964
S31508001F48012A04D0006801F061FA002010BDCEF815
S31508001F587042F7E701F00F0101EBC10100EB8100C0
S31508001F68D0F86802704710B5144601F00F0C0CEB50
S31508001F78CC0189001031014404310CEBCC0E00EB7E
S31508001F888E0ECEF82020CEF824300023CEF828303E
S31508001F9801238EF815308EF814C082799A4204D037
S31508001FA8006801F033FA002010BDCEF83040F7E794
S31508001FB838B501F00F050279AA4238D304460B460C
S31508001FC811F0800F1FD101EBC101890001F51471C9
S31508001FD80144043103EBC30300EB8303002283F8AF
S31508001FE8552201238B700D7094F89434012B20D058
S31508001FF8012384F89434206801F04DFB85B100204C
S3150800200884F8940438BD05EBC501890010310144EC
S31508002018043105EBC50300EB830301225A75E0E793
S3150800202804F29C42A179206801F050FCE7E70120F8
S31508002038E8E70220E6E701F00F0302799A4230D36F
S3150800204810B5044611F0800F1ED103EBC3018900B1
S3150800205801F514710144043103EBC30200EB820253
S31508002068002082F8550200228A700B7094F894347E
S31508002078012B18D0012384F89434206801F038FB22
S31508002088002084F8940410BD03EBC30189001031BD
S315080020980144043103EBC30200EB820201205075A8
S315080020A8E1E7012070470220EDE708B511F0800F37
S315080020B80CD101F00F0101EBC101890001F514717A
S315080020C801440431006801F02BF908BD01F00F013D
S315080020D801EBC1018900103101440431F2E72DE909
S315080020E8F04F83B004460568284601F0AAFB10B1EC
S315080020F803B0BDE8F08F0646206801F073FB002898
S31508002108F6D005F50067BB68C3F30D23C4F8D434C5
S31508002118206801F067FB10F0020F04D022685369A3
S3150800212803F002035361206801F05CFB10F0100FFE
S3150800213813D02268936923F010039361D5F8208099
S3150800214808F00F09C8F34343022B4BD0062B6FD070
S315080021582268936943F010039361206801F042FBF3
S3150800216810F4002F76D1206801F03CFB10F4802F7C
S3150800217840F0E080206801F035FB0028C0F2618154
S31508002188206801F02FFB10F4006F09D0BB6813F024
S31508002198010F40F06E812268536903F400635361A6
S315080021A8206801F01FFB10F4805F40F06681206804
S315080021B801F018FB10F4005F40F0B381206801F0C5
S315080021C811FB10F0080F40F0C481206801F00AFBE3
S315080021D810F0800F00F0D781AB6923F08003AB615C
S315080021E80126C0E147F6F07318EA030FB0D04FEAA4
S315080021F8181A4FEAC903019309EBC90B04EB8B0BB1
S31508002208C8F30A12DBF86012284601F021FADBF84F
S315080022186032CAF30A0A5344CBF86032DBF86832EC
S31508002228019A4A4404EB82025344C2F868328FE79B
S31508002238082204F29C41284601F00AFA09EBC90368
S3150800224804EB8303D3F86822C8F30A184244C3F890
S3150800225868227DE7206801F0C9FA8046B14635E06C
S3150800226805EB49130122C3F8082B49462046FFF710
S31508002278D5FC3CE005EB49130822C3F8082B494668
S315080022882046FFF74DFD35E009EBC90304EB830348
S3150800229893F85732012B41D005EB49130222C3F8AC
S315080022A8082B1AF0200F04D005EB49132022C3F88F
S315080022B8082B1AF4005F05D005EB49134FF40052B2
S315080022C8C3F8082B09F101094FEA5808B8F1000FB5
S315080022D83FF449AF18F0010FF4D05FFA89FB594665
S315080022E8206801F093FA824610F0010FB8D11AF067
S315080022F8080FBFD11AF0100F04D005EB49131022A6
S31508002308C3F8082B1AF0020FCBD06B6913F0800FAD
S31508002318BAD07B6843F480637B60B5E709EBC903E9
S3150800232804EB8303002283F857225946204606F011
S3150800233814FCB1E7206801F061FA8046B14625E049
S315080023485946204606F0C6FB1AF0080F04D005EBD6
S3150800235849130822C3F808291AF0100F04D005EB08
S3150800236849131022C3F808291AF0400F04D005EBC0
S3150800237849134022C3F808291AF0020F40D11AF067
S31508002388800F59D109F101094FEA5808B8F1000F29
S315080023983FF4F0AE18F0010FF4D05FFA89FB5946FE
S315080023A8206801F03CFA824610F0010FCCD009F0FB
S315080023B80F02012101FA02F27B6B23EA02037B630F
S315080023C805EB4913C3F80819A3798B42B8D109EB69
S315080023D8C90304EB83031A6AD9690A441A62B9F16C
S315080023E8000FADD109EBC90304EB83035B6A002B25
S315080023F8A6D104F29C420121206801F067FA9FE7FA
S315080024084946284600F0A4FD09EBC90304EB8303F3
S31508002418DB7D012B05D005EB49130222C3F80829F1
S31508002428ADE709EBC90304EB83030022DA755946BD
S31508002438204606F098FBEEE749462046FFF7A6FA37
S31508002448A0E77B6823F001037B6094F8CC34012B62
S3150800245808D0204606F078FB2268536903F0004343
S3150800246853618DE6002184F8CC14204600F03FF924
S31508002478F2E7204606F04EFB8DE67B6823F001035B
S315080024887B601021206800F063FD1AE005EB46130F
S315080024984FF67F31C3F80819D3F8002922F4001239
S315080024A8C3F80029C3F8081BD3F8002B22F4001236
S315080024B8C3F8002BD3F8002B42F00062C3F8002BB0
S315080024C801362379B342E1D8FB6943F00113FB616E
S315080024D8E37BDBB1D7F8843043F00B03C7F88430C5
S315080024E87B6C43F00B037B64D5F8003823F4FE6352
S315080024F8C5F8003804F29C42A179206801F0E6F98B
S315080025082268536903F48053536150E67B6943F4A0
S31508002518005343F02B037B613B6943F00B033B6194
S31508002528E2E7206801F0C2F9206800F02BFEE071A6
S31508002538266800F0DDF80146E279304600F08AFCA4
S31508002548204606F0D8FA2268536903F40053536103
S3150800255834E6204606F0C9FA2268536903F00803E8
S31508002568536132E601362379B3420CD906EBC60322
S3150800257804EB830393F85732012BF3D1F1B22046C3
S31508002588FFF793FDEEE7206801F02CF910F4801F99
S3150800259825D1206801F026F910F4001F59D0012327
S315080025A826E001362379B3421BD905EB4613D3F83F
S315080025B8002906EBC60304EB83031B7E012BF0D127
S315080025C8002AEEDA06EBC60304EB83030122DA7562
S315080025D866F07F01C9B22046FFF767FDE1E70126E5
S315080025E8E0E72268536903F480135361D1E701339E
S315080025F822799A4228D905EB4312D2F8001B03EB35
S31508002608C30204EB820292F85822012AEFD1002964
S31508002618EDDA01F48031D4F8D42402F001029142AB
S31508002628E5D103EBC30204EB8202012182F85712B3
S31508002638AA6942F08002AA616A6912F0800FD6D1A7
S315080026487B6843F400737B602268536903F40013BC
S315080026585361206801F0C6F810F0804F10D1206841
S3150800266801F0C0F810F0040F3FF442AD23685D6826
S3150800267815F0040F0DD1226853682B43536037E5CC
S31508002688204606F076FA2268536903F080435361B8
S31508002698E5E7204606F077FAEDE710B40468606ABD
S315080026A831B940EA0240A06200205DF8044B704741
S315080026B88C46A36A00EB1340002308E003F14001A7
S315080026C804EB8101496800EB11400133DBB20CF1D8
S315080026D8FF318B42F2D340EA02400CF13F0104EB8A
S315080026E881046060E0E70368596200207047704714
S315080026F8014B1868704700BF0000002010B4046832
S3150800270891FAA1F3A3B1B3FA83F35B004FF0030C74
S315080027180CFA03F324EA030391FAA1F151B1B1FAC9
S3150800272881F149008A40134303605DF8044B7047FA
S315080027382023EAE72021F4E710B4846891FAA1F384
S31508002748A3B1B3FA83F35B004FF0030C0CFA03F357
S3150800275824EA030391FAA1F151B1B1FA81F14900CA
S315080027688A40134383605DF8044B70472023EAE7E1
S315080027782021F4E710B4C46891FAA1F3A3B1B3FA17
S3150800278883F35B004FF0030C0CFA03F324EA030304
S3150800279891FAA1F151B1B1FA81F149008A4013437E
S315080027A8C3605DF8044B70472023EAE72021F4E765
S315080027B810B4046A91FAA1F3A3B1B3FA83F39B00A0
S315080027C84FF00F0C0CFA03F324EA030391FAA1F16C
S315080027D851B1B1FA81F189008A40134303625DF861
S315080027E8044B70472023EAE72021F4E710B4446A2B
S315080027F8090A91FAA1F3A3B1B3FA83F39B004FF040
S315080028080F0C0CFA03F324EA030491FAA1F151B167
S31508002818B1FA81F189008A40144344625DF8044B91
S3150800282870472023EAE72021F4E70000444B984242
S3150800283819D0444B984222D0434B98422BD0434B4D
S31508002848984234D0424B98423DD0424B984246D0A3
S31508002858414B98424FD0414B984258D0404B9842EA
S3150800286861D00120704703F560531A6942F00102E6
S315080028781A611A6922F001021A610020704703F5E5
S3150800288850531A6942F002021A611A6922F00202C2
S315080028981A610020704703F540531A6942F004028A
S315080028A81A611A6922F004021A610020704703F5B2
S315080028B830531A6942F008021A611A6922F00802A6
S315080028C81A610020704703F520531A6942F010026E
S315080028D81A611A6922F010021A610020704703F576
S315080028E810531A6942F020021A611A6922F0200266
S315080028F81A610020704703F500531A6942F040022E
S315080029081A611A6922F040021A610020704703F515
S31508002918E0531A6942F080021A611A6922F08002A5
S315080029281A610020704703F5C0531A6942F4807289
S315080029381A611A6922F480721A610020704700BF6A
S31508002948000002400004024000080240000C024051
S31508002958001002400014024000180240001C024001
S3150800296800200240F8B507460E460D6895FAA5F503
S3150800297815B1B5FA85F51AE0202518E0B26821469A
S315080029883846FFF7D9FEF2687B6823EA040304FB96
S3150800299802F213437B6016E0726921463846FFF750
S315080029A825FF726821463846FFF7A8FE01353468C0
S315080029B834FA05F21DD00122AA401440F6D07368ED
S315080029C8013B012BDAD9326921463846FFF7D2FE90
S315080029D87368022BE5D194FAA4F3002BDCD0B3FA7A
S315080029E883F3072BD8D8726921463846FFF7E0FEE5
S315080029F8D7E70020F8BD000082B0234A136843F0E1
S31508002A0801031360204B1B6813F0020FFAD01E4B04
S31508002A1800229A601A680192019A22F0867222F4B4
S31508002A2880320192019A22F080620192019A1A6014
S31508002A381A6822F0F80242F080021A60124B1B68E4
S31508002A4813F0007FFAD1104B104A5A60104AC3F89F
S31508002A588420DA6822F4F852DA60DA6822F4005236
S31508002A68DA60DA6842F41F02DA60DA6842F40012B9
S31508002A78DA605A6F22F001025A675A6F42F080727A
S31508002A885A67002002B07047003802401030002408
S31508002A9800300020034B9B68C3F30313024AD35C38
S31508002AA8D840704700380240808E0008034B9B6860
S31508002AB8C3F38223024AD35CD840704700380240E1
S31508002AC8788E0008034B9B68C3F34233024AD35CEB
S31508002AD8D840704700380240788E00080F4B5B686C
S31508002AE803F4800323B90E4B082803D00020704747
S31508002AF80C4BF9E7094A516801F03F01B3FBF1F0BD
S31508002B085368C3F3881303FB00F05368C3F3014300
S31508002B1801335B00B0FBF3F0704700BF0038024092
S31508002B280024F40000127A0008B5084B9B6803F0E5
S31508002B380C03042B05D0082B05D10820FFF7CEFF78
S31508002B4802E0034800E0034808BD00BF0038024019
S31508002B5800127A000024F40010B50446FFF7E4FFD3
S31508002B682060FFF797FF6060FFF7A0FFA060606826
S31508002B78FFF7A8FFE06010BD0246036813F0400F90
S31508002B882ED110B4006820F47F4020F0BF000B68EF
S31508002B984C6823438C682343CC6823430C69234336
S31508002BA84C6923438C692343CC6923430C6A234322
S31508002BB818431060536823F00403C88A0343536014
S31508002BC80B6AB3F5005F07D00020D36923F40063C6
S31508002BD8D3615DF8044B70478B8C13610020F4E7CA
S31508002BE80120D36923F40063D361704710B50446FE
S31508002BF8B2F5004F2FD04FF0000C48184CEB0C0CD0
S31508002C0840184CF1000C4FEACC0C4CEA507CC0003A
S31508002C1840184FEA83024FEA93734CF10001FDF717
S31508002C28CFFA2449A1FB00235B091A0192B24FF097
S31508002C38640C0CFB13031B013233A1FB0313C3F308
S31508002C484F1303F0F0010A4492B203F00F0313443A
S31508002C589BB2A36010BD4FF0000C48184CEB0C0251
S31508002C68401842F10002D20042EA5072C0004018E9
S31508002C7842F10001DA184CEB0C03FDF7A1FA0D49ED
S31508002C88A1FB00235B091A0192B24FF0640C0CFBF6
S31508002C981303DB003233A1FB0313C3F34F135900A5
S31508002CA801F4F8710A4492B203F0070313449BB27D
S31508002CB8A360CFE71F85EB51C36813F4005F01D003
S31508002CC80120704730B585B004460D46C36823F41D
S31508002CD8164323F00C034A68C9680A4329690A4354
S31508002CE8A9690A431343C360AB68026922F44052D0
S31508002CF8134303616B69426922F4407213434361C3
S31508002D086846FFF729FF164B9C4210D0154B9C4284
S31508002D1813D0154B9C4212D0144B9C4211D0144B1D
S31508002D289C4210D0134B9C420FD0012016E0039901
S31508002D3899B12B685BB9012010E00299F8E7029966
S31508002D48F6E70399F4E70299F2E70299F0E7AA6920
S31508002D582046FFF74BFF002000E0012005B030BDF4
S31508002D68001001400044004000480040001401409B
S31508002D78004C00400050004082B000230193019B9C
S31508002D8801330193019BB3F1706F15D80369002BC2
S31508002D98F5DA00230193036943F001030361019BF4
S31508002DA801330193019BB3F1706F08D8036913F0D7
S31508002DB8010FF4D1002000E0032002B07047032079
S31508002DC8FBE784B010B5044603A880E80E009DF812
S31508002DD81130012B21D1A36B23F48033A363E36855
S31508002DE823F4840323F04003E360E36823F44013E1
S31508002DF8E3609DF81830012B0AD02046FFF7BCFF80
S31508002E089DF80E30012B1CD0BDE8104004B0704761
S31508002E18E36843F48013E360EFE7E36843F04003AD
S31508002E28E3602046FFF7A8FF9DF8153023B9A36B82
S31508002E3843F48033A363E3E7A36B23F48033A363E4
S31508002E48DEE7A36843F00603A360A36843F02003FC
S31508002E58A360D9E7022A0AD00922C36823F4705363
S31508002E68C360C36843EA8223C36000207047234BC4
S31508002E780B44234A93422FD9224B0B44224A9342A6
S31508002E882CD9A1F57403A3F51053204A934227D9E0
S31508002E98A1F18373A3F5E7431D4A934222D31D4B39
S31508002EA80B441D4A93421FD91C4B0B441C4A934298
S31508002EB81CD31C4B0B441C4A934219D3A1F1B77374
S31508002EC8A3F55853194A934214D3194B0B44194A74
S31508002ED8934211D20722C0E70F22BEE70E22BCE7AB
S31508002EE80D22BAE70C22B8E70B22B6E70A22B4E79E
S31508002EF80922B2E70822B0E70622AEE7405327FFC1
S31508002F08FF340C00401E1BFF3F420F007F4F120084
S31508002F1820D6130060B6E5FE5FE3160000D3CEFEA2
S31508002F2840771B00C05BB3FEC091210020753800AE
S31508002F38E05459FEE09C4100836843F0010383602E
S31508002F4800207047836823F00103836000207047D8
S31508002F5882B000230193019B01330193019BB3F1CE
S31508002F68706F15D80369002BF5DA002301938901D8
S31508002F7841F020010161019B01330193019BB3F1E3
S31508002F88706F08D8036913F0200FF4D1002000E009
S31508002F98032002B070470320FBE782B000230193A1
S31508002FA8019B01330193019BB3F1706F13D8036931
S31508002FB8002BF5DA0023019310230361019B0133E3
S31508002FC80193019BB3F1706F08D8036913F0100FCA
S31508002FD8F4D1002000E0032002B070470320FBE785
S31508002FE8D0F800381943C0F80018002070470000C8
S31508002FF884B0F8B5044607A880E80E00002306E062
S3150800300803F1400204EB82020021516001330E2BC2
S31508003018F6D99DF8266006BBD4F8043843F00203AF
S31508003028C4F80438A36B43F40013A363A36B23F40F
S315080030380023A363A36B23F48023A3630023C4F8A4
S31508003048003E9DF82130012B15D19DF81F306BB92C
S3150800305800212046FFF7C4FF11E0A36B23F40013F1
S31508003068A363A36B43F40023A363E7E70121204680
S31508003078FFF7B6FF03E003212046FFF7B1FF10214B
S315080030882046FFF765FF054600B101252046FFF7EC
S3150800309884FF00B1012504F5006C0023CCF8103034
S315080030A8CCF81430CCF81C300AE0CBB94FF00060E5
S315080030B8C2F8000900220A614FF67F328A60013396
S315080030C89DF81C10994210D904EB431202F51061B9
S315080030D8D2F800090028E8DB0020C2F80009E9E769
S315080030E84FF09040C2F80009E4E700230AE0BBB1B4
S315080030F84FF09047C2F8007B002202614FF67F32F4
S3150800310882600133994210D904EB431202F5306004
S31508003118D2F8007B002FEADB0027C2F8007BEBE732
S315080031284FF00067C2F8007BE6E7DCF8103023F4B6
S315080031388073CCF810300023A3616FF08043636175
S315080031489DF81E301BB9A36943F01003A361A26951
S315080031580B4B1343A3619DF822301BB1A36943F0B7
S315080031680803A361012E04D02846BDE8F84004B038
S315080031787047A36943F0804343F00403A361F3E768
S3150800318800383C80D0F8083813F0060307D0022B1D
S3150800319807D0062B01D00F20704702207047002061
S315080031A870470220704710B591F800C04B78012B7C
S315080031B823D000F5006ED0F81C380CF00F04012255
S315080031C8A24043EA0243C0F81C3800EB4C10D0F87A
S315080031D8003B13F4004F0ED1D0F8003B8A68C2F3BF
S315080031E80A02097942EA8142134343F0805343F4B9
S315080031F80043C0F8003B002010BDD0F81C280CF08E
S315080032080F0E03FA0EF39BB21343C0F81C3800EBF3
S315080032184C10D0F8003913F4004FECD1D0F8003927
S315080032288A68C2F30A02097942EA814242EA8C525A
S31508003238134343F0805343F40043C0F80039DAE7F0
S3150800324830B40B784A78012A26D000EB4313D3F812
S31508003258002B002A52DBD0F83C480A7802F00F0205
S315080032684FF0010C0CFA02F224EA0242C0F83C2894
S31508003278D0F81C28097801F00F010CFA01FC22EA9B
S315080032880C42C0F81C28D3F8001B234A0A40C3F886
S31508003298002B002030BC704700EB4313D3F80029F5
S315080032A8002A1EDBD0F83C580A7802F00F020124DF
S315080032B804FA02F292B225EA0202C0F83C28D0F8CB
S315080032C81C28097801F00F018C40A4B222EA0402EE
S315080032D8C0F81C28D3F80019104A0A40C3F8002970
S315080032E8D7E7D3F8002942F00062C3F80029D3F8D3
S315080032F8002942F08042C3F80029D3E7D3F8002B07
S3150800330842F00062C3F8002BD3F8002B42F0804243
S31508003318C3F8002B9FE700BF0078F3EF007833EC7B
S3150800332810B483B0024600230193487801280BD0CD
S315080033380B7802EB4313D3F8000B00282DDB00208B
S3150800334803B05DF8044B70470B7802EB4313D3F8C8
S315080033580049002C01DB0020F2E7D3F8004944F0C5
S315080033680064C3F800490B7802EB4313D3F8004905
S3150800337844F08044C3F80049019B01330193019C3A
S3150800338842F210739C42DBD80B7802EB4313D3F84E
S315080033980039002BF0DB0020D2E7D3F8000B40F009
S315080033A80060C3F8000B0B7802EB4313D3F8000B45
S315080033B840F08040C3F8000B019B01330193019844
S315080033C842F21073984208D80B7802EB4313D3F8E5
S315080033D8003B002BF0DB0020B2E70120B0E710B570
S315080033E89DF8084084B903334FEA930E4FF0000C52
S315080033F808E000EB023303F5805351F8044B1C60D0
S315080034080CF1010CF445F4D3002010BDF0B583B0D7
S315080034180C784B78012B2FD000EB441C0CF5306345
S315080034281D69ED0CED041D611D6925F0FF5525F490
S31508003438C0151D61002C40F0CC800C690CB18C6855
S315080034480C618C680C621D69C4F312042C431C6158
S315080034581C6944F400241C61012A00F0DD800B79FC
S31508003468012B00F0DF80DCF8003B43F00443CCF87E
S31508003478003B002003B0F0BD0B6983BB00EB441387
S31508003488D3F8105925F0FF5525F4C015C3F8105977
S31508003498D3F8105945F40025C3F81059D3F810592C
S315080034A8ED0CED04C3F81059012A50D000EB44146A
S315080034B8D4F8003943F00443C4F800390B79012BD2
S315080034C86ED00B69002BD4D0D0F83438097801F0BF
S315080034D80F0101228A401343C0F83438C9E700EBC4
S315080034E8441303F510631D69ED0CED041D611D6990
S315080034F825F0FF5525F4C0151D61DCB90E698D68E0
S31508003508AE4200D90D611D6945F400251D611D6986
S315080035180E69C6F3120C45EA0C051D610D79012DD5
S31508003528C2D11D6925F0C0451D611D6945F00055C4
S315080035381D61B9E71E690D698F683D44013DB5FBF4
S31508003548F7F5424F07EAC54535431D61DFE7CB69FD
S315080035581BB100EB4412C2F814390B79012B08D0B9
S3150800356800EB4414D4F8003943F00443C4F800398E
S315080035787FE7D0F8083813F4807F08D100EB4412A7
S31508003588D2F8003943F00053C2F80039E8E700EBEF
S315080035984412D2F8003943F08053C2F80039DFE7FD
S315080035A8D0F8083813F4807F0CD1D4F8003943F0E2
S315080035B80053C4F8003900920B8A0A78C968FFF7DD
S315080035C80EFF56E7D4F8003943F08053C4F800399B
S315080035D8F1E70C6954B91C698D68C5F312052C43C3
S315080035E81C611C6944F400241C6135E78D682C4469
S315080035F8013CB4FBF5F4A4B204FB05F50D621D699C
S31508003608124E06EAC4442C431C611C690D6AC5F3AC
S3150800361812052C431C611FE7CA68002A3FF41FAF2E
S315080036285A611CE7D0F8083813F4807F06D1DCF80D
S31508003638003B43F00053CCF8003B14E7DCF8003BAA
S3150800364843F08053CCF8003B0DE700BF0000F81F95
S3150800365810B5844608464FEA920E02F00302002384
S3150800366805E00CF58051096840F8041B01337345D9
S31508003678F7D37AB10CF5805CDCF800400021CBB2B0
S31508003688DB0024FA03F300F8013B0131013A92B250
S31508003698002AF4D110BD0B784A78012A14D000EB19
S315080036A84310D0F8002B002A06DB2BB1D0F8003BD4
S315080036B823F08043C0F8003BD0F8003B43F40013DE
S315080036C8C0F8003B0020704700EB4310D0F80029EB
S315080036D8002A06DB2BB1D0F8003923F08043C0F85E
S315080036E80039D0F8003943F40013C0F80039E9E77F
S315080036F80B784A78012A0ED000EB4310D0F8003B25
S3150800370823F40013C0F8003B0B79023BDBB2012B0C
S3150800371815D90020704700EB4310D0F8003923F478
S315080037280013C0F800390B79023BDBB2012BF0D83D
S31508003738D0F8003943F08053C0F80039E9E7D0F8E3
S31508003748003B43F08053C0F8003BE2E710B5044657
S31508003758002208E004EB42134FF67F31C3F8081934
S31508003768C3F8081B01320E2AF4D90022C4F8102817
S31508003778C4F81428C4F81C282046FFF70EFC00B124
S3150800378810BD10212046FFF7E3FBF9E7D0F800380B
S3150800379823F4FE63C0F80038D0F80038090101F4AC
S315080037A8FE610B43C0F8003800207047D0F8003E89
S315080037B823F00303C0F8003ED0F8043823F00203C8
S315080037C8C0F8043800207047D0F8003E23F00303F9
S315080037D8C0F8003ED0F8043843F00203C0F80438AD
S315080037E8002070474269806910407047D0F8183839
S315080037F800F50060C0691840000C7047D0F8183802
S3150800380800F50060C069184080B2704700EB4111A6
S31508003818D1F8082B00F50060406910407047D0F8C9
S315080038281028D0F8343801F00F0C23FA0CF3DB0112
S31508003838DBB2134300EB411000F5106080681840AE
S315080038487047406900F00100704738B50546C368F7
S3150800385823F0C043C360012913D019BBC36843F0DA
S315080038688043C36000240A20FDF700FA0A34284674
S31508003878FFF7E7FF08B1C72CF5D9C82C14D00020E4
S3150800388838BDC36843F00053C36000240A20FDF717
S31508003898EDF90A342846FFF7D4FF0128EDD0C72CDE
S315080038A8F4D9EAE70120EBE70120E9E7D0F800397F
S315080038B823F4FF6323F00703C0F80039D0F8043867
S315080038C843F48073C0F804380020704710B4046CB9
S315080038D8154B9C4203D9D0F8003B002B16DB002475
S315080038E8C0F8104BD0F8104B44F40024C0F8104B1D
S315080038F8D0F8104B44F01804C0F8104BD0F8104B09
S3150800390844F0C044C0F8104B012903D000205DF8E4
S31508003918044B7047C0F8142BD0F8003B43F08023BB
S31508003928C0F8003BF2E700BF0A30544F014B186055
S31508003938704700BF00000020024A137843F00103CD
S31508003948137070470C00002010B50D4B187301F062
S31508003958B1FD00F132040A4B9B6813F0010F07D139
S3150800396802F0C0F801F0A6FDA042F4D9012300E050
S3150800397800231BB9024B187BC0B200E0002010BD1B
S315080039880038004008B5044B4FF480529A61FF206E
S31508003998FFF7DAFF08BD00BF0004024010B5044669
S315080039A8FF20FFF7D1FF207010BD38B501F082FD62
S315080039B800F5FA75FF20FFF7C7FF044602F092F8EC
S315080039C8FF2C03D001F076FDA842F3D3FF2C14BFD1
S315080039D80020012038BD000010B5084B4FF0805272
S315080039E89A61FF20FFF7B0FFFFF7DFFF10B1012448
S315080039F8204610BD0446FFF7C5FFF9E70004024054
S31508003A0870B504460E4610F0800F1BD1FFF7BAFFB3
S31508003A18FFF7E2FFD8B344F04000FFF795FF300EF2
S31508003A28FFF792FFC6F30740FFF78EFFC6F3072096
S31508003A38FFF78AFFF0B2FFF787FF6CB1082C20D092
S31508003A4801200AE000F07F0400213720FFF7D8FF9D
S31508003A5805460128DAD912E09520FFF775FF0C2CE0
S31508003A6811D00A24FF20FFF76FFF054602F03AF83F
S31508003A7815F0800F03D0631E13F0FF04F2D1284611
S31508003A8870BD8720E9E7FF20FFF75EFFE9E7FF2516
S31508003A98F5E7F8B505460E4601F00CFD00F1640792
S31508003AA8FF20FFF751FF044602F01CF8FF2C03D14C
S31508003AB801F000FDB842F3D3FE2C13D16C1C28463E
S31508003AC8FFF76CFF20460235FFF768FF02F00AF891
S31508003AD8023EF3D1FF20FFF737FFFF20FFF734FF39
S31508003AE80120F8BD0020FCE738B504460D46FFF767
S31508003AF85CFF00B938BD2846FFF726FFFD2D1BD009
S31508003B084FF400752078FFF71FFF60780234FFF737
S31508003B181BFF01F0E7FF023DF4D1FF20FFF714FF72
S31508003B28FF20FFF711FFFF20FFF70EFF00F01F0326
S31508003B38052B03D10120DDE70120DBE70020D9E7C3
S31508003B4870B586B0234C4FF48053A3614FF40046F2
S31508003B5800960123019302230293002503950495F1
S31508003B6869462046FEF7FEFEA66100E00135092DE6
S31508003B781DD801F09FFC00F16404174B9B6813F0ED
S31508003B88020F03D101F096FCA042F6D9124BFF2288
S31508003B981A7301F08FFC00F164040F4B9B6813F04D
S31508003BA8010FE3D101F086FCA042F6D9DEE74FF40F
S31508003BB800430093022301930323029300230393EC
S31508003BC804930523059369460248FEF7CBFE06B01B
S31508003BD870BD00BF0004024000380040F0B593B03D
S31508003BE8284B1A6B42F002021A631A6B02F0020299
S31508003BF80192019A1A6C42F480421A641B6C03F407
S31508003C0880430093009B4FF4805702970123039340
S31508003C18022604960024059406941B4D02A92846F4
S31508003C28FEF7A0FEAF614FF46043029303960323A1
S31508003C380493059406940523079302A92846FEF7D4
S31508003C4891FE08944FF4827309930A940B940C9482
S31508003C584FF400730D9330230E930F941094072393
S31508003C6811930A4C08A92046FEF786FF636823F0D5
S31508003C7810036360236843F040032360FFF760FF7F
S31508003C8813B0F0BD00380240000402400038004076
S31508003C9810B58AB0114C236823F04003236000232B
S31508003CA800934FF4827201920293039304934FF49C
S31508003CB80072059208220692079308930723099328
S31508003CC869462046FEF758FF636823F010036360C9
S31508003CD8236843F0400323600AB010BD003800404B
S31508003CE8002840F09D80F0B583B04E4B1B7813F042
S31508003CF8020404D04B4B1878C0B203B0F0BDFFF7E6
S31508003D086DFF494B4FF080529A6100210846FFF72C
S31508003D1877FE0546012810D0444B1C60FFF732FE93
S31508003D28002C7AD03F4A137803F0FE031370FFF786
S31508003D38AFFF3C4B1878C0B2DFE701F0BBFB00F5D4
S31508003D487A764FF4D5710820FFF75AFE01283FD135
S31508003D58254609E0FF20FFF7F7FD05F108036B4440
S31508003D6803F8040C0135EDB2032DF3D99DF8063096
S31508003D78012BD1D19DF80730AA2BCDD101F09AFB9A
S31508003D88B04206D24FF08041A920FFF739FE002835
S31508003D98F4D101F08FFBB042BED200213A20FFF7DA
S31508003DA82FFE05460028B7D1032D0AD8FF20FFF7AE
S31508003DB8CBFD05F108036B4403F8040C0135EDB295
S31508003DC8F2E79DF8043013F0400F24D00C24A3E73B
S31508003DD80021A920FFF714FE01280CD92F4601F067
S31508003DE869FBB0420AD200212846FFF709FE28B126
S31508003DF801F078FEF3E70227A925F0E701F05AFB58
S31508003E08B04289D24FF400711020FFF7F9FD002857
S31508003E1882D13C4680E704247EE7FFF78DFD88E7D4
S31508003E28012070470C00002000040240EC0800201E
S31508003E3818B9034B1878C0B270470120704700BFFD
S31508003E480C00002000283BD138B50D461C46002B2F
S31508003E5838D01E4B1B7813F0010F35D11C4B1B6845
S31508003E6813F0080F00D15202012C1AD0114612205D
S31508003E78FFF7C6FD78B94FF400712846FFF709FE23
S31508003E8828B105F5007501F02DFE013CF3D1002196
S31508003E980C20FFF7B5FDFFF775FD201E18BF01209A
S31508003EA838BD11461120FFF7ABFD0028F3D14FF4B2
S31508003EB800712846FFF7EDFD0028ECD00024EAE754
S31508003EC8042070470420EBE70320E9E70C000020EC
S31508003ED8EC08002000284AD170B50D4616461C463F
S31508003EE8002B46D0264B1B7813F0010F43D1244BE1
S31508003EF81B7813F0040F40D1224B1B6813F0080FE8
S31508003F0800D15602012C1DD013F0060F28D13146D0
S31508003F181920FFF775FD78B9FC212846FFF7E4FD57
S31508003F2828B105F5007501F0DDFD013CF4D1FD2148
S31508003F380020FFF7D9FDC0B1FFF724FD201E18BFE2
S31508003F48012070BD31461820FFF75AFD0028F3D125
S31508003F58FE212846FFF7C8FD0028EDD00024EBE728
S31508003F6821469720FFF74CFDD1E70124E4E7042012
S31508003F7870470420E5E70320E3E70220E1E700BFEE
S31508003F880C000020EC08002070B584B0002840F02A
S31508003F981F810D461646904B1C7814F0010440F014
S31508003FA819810E2900F20881DFE811F00F001600C2
S31508003FB806015A0006010601060106010601060160
S31508003FC8B500B900C900D800ED00FFF705FD0028BF
S31508003FD840F0F8800124F0E000210920FFF710FDE1
S31508003FE8044608B12C46E8E010216846FFF751FD5B
S31508003FF8002800F0E9809DF800309B09012B1FD0A6
S315080040089DF8052002F00F029DF80A3002EBD3123C
S315080040189DF809305B0003F006031A449DF808105A
S315080040289DF807309B0003EB91139DF8061089024B
S3150800403801F440610B440133073A93403360BCE00E
S315080040489DF809309DF8082003EB02239DF8072000
S31508004058120402F47C12134401339B023360ACE069
S315080040685E4B1B6813F0040F20D000218D20FFF744
S31508004078C7FC08B10124A0E0FF20FFF765FC102162
S315080040886846FFF706FD78B9012496E0FF20FFF792
S315080040985BFC013CE4B2002CF8D19DF80A20120911
S315080040A810239340336088E03024F4E70021092080
S315080040B8FFF7A6FC044608B101247EE010216846ED
S315080040C8FFF7E7FC002800F08180444B1B6813F0D3
S315080040D8020F10D09DF80A305B0003F07E039DF8A6
S315080040E80B2003EBD21301339DF80D209209013AF0
S315080040F89340336061E09DF80A20C2F384029DF874
S315080041080B10CB0003F0180303EB5113013302FB22
S315080041180333336051E0314B1B6813704DE00021BF
S315080041280920FFF76DFC044608B1012445E0102173
S315080041383046FFF7AEFC00283FD101243DE00021B8
S315080041480A20FFF75DFC044608B1012435E0102172
S315080041583046FFF79EFC80BB01242EE000213A205A
S31508004168FFF74EFC044660B1012426E0FF20FFF75E
S31508004178EBFB705501F0B6FC0135EDB2032DF5D908
S315080041881BE00546FAE7154B1B6813F0040F01D127
S31508004198012412E000218D20FFF732FC044608B1FD
S315080041A801240AE0FF20FFF7CFFB40213046FFF73E
S315080041B870FC10B9012400E00424FFF7E3FB20464D
S315080041C804B070BD2C46F8E72C46F6E70124F4E758
S315080041D80424F4E70324F2E70C000020EC08002086
S315080041E8C0B108B50346D0F8B80210B10020C3F824
S315080041F8B802D3F8CC0210B10020C3F8CC0209B132
S31508004208C3F8B412012183F89C121A70184604F0F0
S31508004218C5FC08BD0320704710B50446012380F87D
S315080042289C32D0F8B83213B15B6801799847D4F84C
S31508004238CC3213B10023C4F8CC32204604F006FD6C
S3150800424800B110BD204604F0E3FCFAE710B582B0C9
S315080042580023ADF8063059B10446C0F8B812CB6A3F
S315080042680DF106009847C4F8CC02002002B010BD2C
S315080042780320FBE708B504F0DAFC08BD08B5D0F852
S31508004288B83213B11B68984708BD0320FCE708B580
S31508004298D0F8B8320BB15B689847002008BD38B526
S315080042A8044600F2AA25284600F02EF90123C4F888
S315080042B89432B4F8B032C4F8983294F8AA1201F0D5
S315080042C81F03012B0DD0022B10D02BB101F0800152
S315080042D8204604F0EBFC03E02946204600F0E0FA05
S315080042E838BD2946204600F013FBF9E7294620463B
S315080042F800F042FBF4E738B504460D4631BB1346D1
S31508004308D0F89422032A01D0084638BDD0F85C11A3
S31508004318D0F8602191420CD8D0F8B8321B691BB185
S3150800432890F89C22032A0FD0204600F051FC284614
S31508004338EBE7891AC0F85C118A4228BF0A4619466B
S3150800434800F03EFC2846E0E79847EDE7D0F8B83293
S315080043589B692BB190F89C22032A03D19847D4E786
S315080043680320D2E70320D0E738B504460D460029CE
S3150800437848D11346D0F89422022A05D094F8A032D8
S31508004388012B3AD0284638BDC269016A8A4211D833
S315080043988A421BD0D4F8B832DB681BB194F89C2241
S315080043A8032A27D08021204604F080FC204600F006
S315080043B81AFCE3E7521AC261194600F0F9FB002312
S315080043C81A461946204604F0C3FCD7E7836999427A
S315080043D8E0D8D0F898229342DCD20022114600F0A1
S315080043E8E7FB0021C4F898120B460A46204604F053
S315080043F8AFFCC3E720469847D4E7002384F8A032E1
S315080044082846C0E7D0F8B8325B692BB190F89C22E9
S31508004418032A03D19847B6E70320B4E70320B2E78F
S3150800442870B50446012380F89C320023C0F89432FC
S315080044384360C0F8A432D0F8BC3223B1D0F8B832F9
S315080044485B6800219847402300221146204604F05D
S315080044580CFC0126A4F864614025C4F860512B4673
S3150800446800228021204604F000FCA684256200204C
S3150800447870BD01740020704790F89C3280F89D3210
S31508004488042380F89C320020704790F89C32042B4D
S3150800449801D00020704790F89D3280F89C32F8E7E2
S315080044A808B590F89C32032B01D0002008BDD0F837
S315080044B8B832DB69002BF8D09847F6E70020704732
S315080044C8002070470020704708B5012380F89C3201
S315080044D8D0F8B83213B15B6801799847002008BD4F
S315080044E80346002002E00130C0B201331A78002AD8
S315080044F8F9D1704708B54B88012B00D008BDC0F81C
S31508004508A43200F065FBF9E70B7803704B78437023
S315080045188B78CA7843EA022343800B794A7943EAB7
S31508004528022383808B79CA7943EA0223C3807047BA
S3150800453810B50446802104F0B9FB0021204604F092
S31508004548B5FB10BD30B583B004460D460023ADF85B
S3150800455806304A88130A013B0E2B00F2BC80DFE8B6
S3150800456803F0153044BABA9EABBABABABABABABAE6
S315080045780800D0F8B432DB6923B10DF10601007CD6
S3150800458898470AE02946FFF7D3FF18E0D0F8B4326F
S315080045981B680DF10601007C9847EA88002A00F096
S315080045A8A380BDF80630002B00F099809A4228BFF0
S315080045B81A46ADF806200146204600F0ECFA03B084
S315080045C830BD037C43B9D0F8B8329B6A0DF10600B2
S315080045D8984702234370E0E7D0F8B832DB6A0DF152
S315080045E80600984702234370D7E7D2B2052A52D85D
S315080045F8DFE802F003101D2A3744D0F8B4325B68A6
S3150800460823B10DF10601007C9847C6E72946FFF74E
S315080046188FFFD4E7D0F8B4329B6823B10DF10601B1
S31508004628007C9847B9E72946FFF782FFC7E7D0F81D
S31508004638B432DB6823B10DF10601007C9847ACE774
S315080046482946FFF775FFBAE7D0F8B4321B6923B1D4
S315080046580DF10601007C98479FE72946FFF768FF92
S31508004668ADE7D0F8B4325B6923B10DF10601007CD9
S31508004678984792E72946FFF75BFFA0E7D0F8B432D8
S315080046889B6923B10DF10601007C984785E7294601
S31508004698FFF74EFF93E72946FFF74AFF8FE7037CA4
S315080046A833B9D0F8B8325B6B0DF10600984774E752
S315080046B82946FFF73DFF82E7037C43B9D0F8B832AD
S315080046C81B6B0DF1060098470723437065E72946D3
S315080046D8FFF72EFF73E72946FFF72AFF6FE72946F4
S315080046E82046FFF725FF6AE7204600F071FA66E7D5
S315080046F838B504468B88F3B9CB88E3B94B887F2B42
S3150800470819D803F07F0590F89C32032B0CD080F853
S315080047189E52294604F0FEFA204600F059FA35B1A9
S31508004728022384F89C3209E0FFF702FF06E001231A
S3150800473884F89C3202E02046FFF7FAFE38BD0000EE
S3150800474870B504460E468D782D4B1D70012D0FD871
S3150800475890F89C32022B0FD0032B23D0FFF7E8FEE4
S31508004768274B19782046FFF792FD0325284670BD82
S31508004778FFF7DEFE0325F9E78DB145602946FFF701
S315080047887DFD054620B131462046FFF7D1FEEDE707
S31508004798204600F01DFA032384F89C32E6E700F069
S315080047A817FAE3E7CDB141688D4225D0C9B2FFF7BC
S315080047B86EFD134B197861602046FFF75FFD0546C5
S315080047C8B0B131462046FFF7B3FE21792046FFF7F8
S315080047D85EFD022384F89C32C8E7022380F89C32DF
S315080047E845602946FFF753FD204600F0F1F9BDE775
S315080047F8204600F0EDF9B9E700F0EAF90025B5E733
S31508004808F008002008B5CB88012B0AD190F89C320D
S31508004818022B09D9032B09D10122011D00F0BBF986
S3150800482801E0FFF785FE08BD5BB213B9FFF780FE06
S31508004838F9E70146002341F8083F012200F0ABF9E1
S31508004848F1E708B590F89C32013B022B12D8CB88C1
S31508004858022B0CD10123C360D0F8A4320BB1032371
S31508004868C360022200F10C0100F095F908BDFFF7B4
S315080048785FFEFBE7FFF75CFEF8E708B590F89C32A1
S31508004888013B022B09D84B88012B00D008BD002311
S31508004898C0F8A43200F09CF9F8E7FFF749FEF5E7F7
S315080048A838B50C7804F06004202C06D0402C04D0C7
S315080048B854B1FFF73DFE002404E0D0F8B8329B68EF
S315080048C898470446204638BD4D78092D1DD8DFE897
S315080048D805F012191C161C08051C0F0BFFF732FEEB
S315080048E8F0E7FFF705FFEDE7FFF72AFF0446E9E7D4
S315080048F8FFF788FFE6E7FFF7A4FF2C46E2E7FFF78E
S31508004908F9FDDFE7FFF7B9FFDCE7FFF711FED9E79F
S3150800491870B505460C460B7803F06003202B07D0C4
S31508004928402B05D023B1FFF703FE0026304670BD9D
S3150800493895F89C32013B022B18D82379012B0FD8FE
S31508004948D5F8B8329B682146284698470646E3882C
S31508004958002BEBD10028E9D1284600F039F9E5E71C
S3150800496821462846FFF7E4FD0026DFE721462846C4
S31508004978FFF7DEFD0026D9E7F8B506460D468B880B
S315080049880C7804F06004202C08D0D9B2402C05D045
S315080049986CB12946FFF7CCFD002406E0D6F8B832F4
S315080049A89B6829463046984704462046F8BD6F78DE
S315080049B8012F2ED0032F05D0002F56D02946FFF7F2
S315080049C8B7FDF2E790F89C32022B05D0032B12D0DC
S315080049D82946FFF7ADFDE8E709B1802904D129463C
S315080049E83046FFF7A5FDE0E704F060F98021304678
S315080049F804F05CF9D9E76B8823B919B1802901D085
S31508004A08EB881BB1304600F0E3F8CEE704F04EF920
S31508004A18F8E790F89C32022B05D0032B12D02946CA
S31508004A28FFF786FDC1E709B1802904D12946304632
S31508004A38FFF77EFDB9E704F039F98021304604F01E
S31508004A4835F9B2E76B88002BAFD111F07F0F09D182
S31508004A58304600F0BDF8D6F8B8329B682946304685
S31508004A689847A2E704F031F9F2E790F89C22022A5F
S31508004A7806D0032A29D02946FFF75AFD3C4694E76B
S31508004A8809B1802913D113F0800F15D101F07F01E0
S31508004A9801EB8101890001F5A8713144043100232D
S31508004AA80B600222304600F076F83C467DE7294638
S31508004AB8FFF73EFD3C4678E701F07F0101EB8101EF
S31508004AC88900103131440431E9E75BB2002B1FDB5A
S31508004AD801F00F0202EB820200EB8202B2F86421AF
S31508004AE822B3002B27DB01F07F0303EB83039C002B
S31508004AF804F5A8743444043409B1802924D1002360
S31508004B08236002222146304600F045F83C464CE729
S31508004B1801F00F0202EB820200EB8202928C002A55
S31508004B28DFD12946FFF704FD3C463EE72946FFF74D
S31508004B38FFFC3C4639E701F07F0303EB83039C003F
S31508004B48103434440434D7E7304604F0CDF810B1AD
S31508004B5801232360D5E700232360D2E7D0B170B5D7
S31508004B680D4616460446FFF7BBFC431C5B009BB282
S31508004B7833802B7003236B70022307E0EA54013451
S31508004B885A1CD2B20021A9540233DBB22278002A71
S31508004B98F4D170BD704708B513460222C0F89422AE
S31508004BA88361C3610A46002104F0C3F8002008BDE2
S31508004BB808B513460A46002104F0BBF8002008BDCC
S31508004BC808B513460A46002104F0C2F8002008BDB5
S31508004BD808B50423C0F8943200231A46194604F087
S31508004BE8A8F8002008BD08B50523C0F894320023A4
S31508004BF81A46194604F0ACF8002008BD72B6704784
S31508004C0862B670472DE9F04184B004460D4617464A
S31508004C1898466846FDF7A0FF0299174BA3FB013192
S31508004C288909002301E00133DBB2112B1FD8134A87
S31508004C3812F8130002EB4302527800EB020C0CFB45
S31508004C48044CB1FBFCFE0CFB1E16002EEBD11FFA1A
S31508004C588EFCA5F800C00CF1FF3C1FFA8CFCBCF5CD
S31508004C68806FE0D2387088F80020012000E0002024
S31508004C7804B0BDE8F08100BFD34D6210CC8E0008A1
S31508004C8870B58CB00023ADF82E308DF82D308DF820
S31508004C982C300BAB0DF12D020DF12E014FF4FA70E5
S31508004CA8FFF7B0FF002835D01D4C1E4B23600025A2
S31508004CB825766576A5760126E67625776577A5604D
S31508004CC8E5609DF82D30013B1B0423619DF82C30C7
S31508004CD8013B1B056361BDF82E3063602046FBF770
S31508004CE8D9FF0695079508964CF6E0430193029571
S31508004CF84FF6E073039304230493059509960E2348
S31508004D080A9301A92046FCF76BF82046FCF704F934
S31508004D180CB070BDB521044800F0CEFDC4E700BF4D
S31508004D28F408002000640040908E000810B588B08A
S31508004D38024640F2E1730293002304930593069111
S31508004D4801AB02A90B48FCF715F908B108B010BD64
S31508004D5800F0B0FB00F1320401990648FCF77FF928
S31508004D680028F3D000F0BEFE00F0A4FBA042F3D959
S31508004D78ECE700BFF408002010B588B003460C46D7
S31508004D8801AA00210848FCF77DF950B9019A40F2B2
S31508004D9867639A4206D1039B23B9059B23700120B2
S31508004DA800E0002008B010BDF408002008B5FFF799
S31508004DB825FF08BD10B500F037FA00B910BDFBF796
S31508004DC87FFB0028FAD000F035FEFBF7E5FE00F079
S31508004DD833FB00F02DFA20F0604020F07F00044BEA
S31508004DE8986000F025FA4468FFF70AFFA047E5E748
S31508004DF800ED00E070B50D46044606E015F8013BDF
S31508004E0804F8013B00F06EFE3246531E9EB2002A95
S31508004E18F4D170BD38B50546002401E00134E4B282
S31508004E28082C15D800F05EFE04EB4403094A52F82C
S31508004E382330AB42F2D804EB440102EB81025268F4
S31508004E481344AB42EAD9034B03EB8103187A00E013
S31508004E58FF2038BD308F000808B5C1F3080353B9D9
S31508004E6803688B4209D040F8041B4FF40072FFF719
S31508004E78C1FF012008BD0020FCE70120FAE72DE95B
S31508004E88F0410746FCF7B0FA00247F2C15D83E688F
S31508004E9806EB840807EB84035D6800F023FE2A46C0
S31508004EA8002341460220FCF7F1FA804640B956F835
S31508004EB82430AB4206D10134E7E74FF0010801E098
S31508004EC84FF00008FCF7A8FA4046BDE8F081000054
S31508004ED838B50D460C4B984211D004460B4B9942EF
S31508004EE807D1094C29462046FFF7B6FF48B12046A0
S31508004EF838BDFFF7C4FF0028F4D10024F7E7044CAF
S31508004F08F0E70024F3E700BF1C09002000C00008EA
S31508004F18200B00202DE9F04106460C4617461D468B
S31508004F2821F4FF7828F001080368B3F1FF3F07D09A
S31508004F38336843450AD13368E41A3444043414E020
S31508004F484146FFF789FF0028F2D11FE0414630465F
S31508004F58FFF7BEFF06460028EDD1002016E017F831
S31508004F68013B04F8013B013D0FD000F0BBFD311DA4
S31508004F78611AB1F5007FF2D308F500713046FFF7DC
S31508004F88A7FF064620B1041DE9E70120BDE8F08120
S31508004F980020FBE70023082B2FD803EB4301194A07
S31508004FA802EB8102127A824202D00133DBB2F2E7BF
S31508004FB870B5144A52F8215002EB8102566815F06A
S31508004FC8030F02D116F0030F04D04FF42E710E48C2
S31508004FD800F072FC002405E02B68B3F1FF3F0ED100
S31508004FE804350134B4EB960F05D214F0FF0FF3D14C
S31508004FF800F078FDF0E7012070BD0020704700201A
S31508005008FAE700BF308F0008F08E0008F0B587B0C1
S3150800501804460E460023009388420FD80125022C21
S3150800502825D90B2E27D8012D22D100230193022337
S31508005038059301230493FCF7D7F903E00025EEE767
S315080050480134E4B2B4420FD82046FFF7A3FF074657
S315080050580028F5D100F046FD0394694601A8FCF737
S31508005068BBFA0028ECD03D46FCF7D6F900E0002547
S31508005078284607B0F0BD0025FAE700004FF0FF33D1
S31508005088024A1360024A1360704700BF200B0020CB
S315080050981C09002070B50D460139144B1B1A994294
S315080050A801D9002070BD04461646FFF7B3FEFF284F
S315080050B813D028190138FFF7ADFEFF280DD024F4C0
S315080050C8FF7323F001030A4A934208D02B46324657
S315080050D821460848FFF71EFFE4E70020E2E72B46CB
S315080050E8324621460448FFF715FFDBE7FFFF0F089E
S315080050F800C00008200B00201C0900204A1E0E4B81
S315080051081B1A9A4201D90020704770B505460C4605
S31508005118FFF780FE06462C44601EFFF77BFE014615
S31508005128FF2E05D0FF2805D03046FFF76FFF70BD64
S315080051380020FCE70020FAE7FFFF0F0800B583B058
S3150800514800230193134B1B68B3F1FF3F20D0114A84
S315080051585368019391680B440193D1680B440193F2
S3150800516811690B44019351690B44019391690B44E6
S315080051780193D26913440193DA4301925B4201937E
S3150800518801AA04210448FFF785FF03B05DF804FB6C
S315080051980120FAE71C09002088C100080A4B1A688A
S315080051A8596811449A681144DA6811441A6911440D
S315080051B85A6911449A690A44D3F88831D34201D006
S315080051C8002070470120704700C0000808B50C4B3E
S315080051D81B68B3F1FF3F06D10A4B1B68B3F1FF3FC3
S315080051E807D1012008BD0648FFF749FE0028F3D174
S315080051F8F8E70448FFF743FE0028F3D00120F1E753
S315080052081C090020200B00200048704700C0000831
S3150800521808B5FFF733FF08BD08B5FFF73BFF08BD1C
S3150800522808B5FFF76BFF08BD08B5FFF7B7FF08BD58
S3150800523808B5FFF7E9FF08BD08B5FFF77FFF00B90E
S3150800524808BDFFF7C3FFFBE7054B1B6813F0200FE4
S3150800525801D100207047024B5B6803700120704734
S315080052680044004010B5094B586000F023F900F1D6
S315080052780A04064B1B6813F0800F05D100F032FCB0
S3150800528800F018F9A042F4D910BD00BF0044004048
S3150800529810B588B00C4CE36823F40053E3604FF468
S315080052A86143019300230293039304930C22059206
S315080052B80693079301A92046FDF7FEFCE36843F425
S315080052C80053E36008B010BD0044004070B50646B8
S315080052D80D46812904D82846FFF7C4FF00240BE0A9
S315080052E88321074800F0E8FAF5E700F0FBFB305D94
S315080052F8FFF7B8FF0134A4B2A542F6D870BD00BFBF
S315080053089C8F000870B5254B1C78BCB92448FFF754
S315080053189BFF012801D0204670BD214B1B78013B15
S31508005328DBB2802BF7D800F0C5F81E4B18601E4B69
S3150800533800221A70194B01221A70ECE706460D4628
S31508005348194B1B78013316481844FFF77DFF0446A6
S31508005358012815D1144B1A780132D2B21A70104B9B
S315080053681B789A4201D00024D5E710493046FFF742
S3150800537841FD0A4B00221A700B4B1B782B70CAE7A3
S3150800538800F098F8074B1B68C833984203D90024DD
S31508005398024B1C70BFE70024BDE700BFAE0D002016
S315080053A82C0D0020280D0020240D00202D0D00208E
S315080053B882B01A4B5A6C42F001025A645A6C02F0CF
S315080053C801020192019A164A12689968C1F3423194
S315080053D81448415CCA409B6813F4604F1BD10123EB
S315080053E802FB03F3104A012111604FF6FF71D162DF
S315080053F85B090E49A1FB0313DB09013B9362536959
S3150800540843F0010353610A4B00211960526A094B9C
S315080054181A8002B070470223E2E700BF003802404C
S3150800542800000020788E000800000140C55A7C0A52
S31508005438B40D0020B00D0020094B5A6A42F001024B
S315080054485A625A6A22F001025A625A6C22F001021A
S315080054585A644FF0E02300221A615A619A6170472C
S31508005468003802400F4B5B6A9BB20F4A11885B1AD9
S315080054789BB2632B15D910B40C4AA2FB03235A090D
S315080054880B4C206800EB5310206002EB820303EBF9
S3150800549883039A0092B21144034B19805DF8044BB2
S315080054A87047704700000140B00D00201F85EB517A
S315080054B8B40D002008B5FFF7D5FF014B186808BDDD
S315080054C8B40D002008B5FFF7F5FF08BD0949A1F195
S315080054D81802002333B1937400235361064B074A15
S315080054E81A60704793745161183218310133DBB268
