S025000062696E2F64656D6F70726F675F6F6C696D65785F73746D3332703130332E7372656331
S3150800600000500020C1610008076200080962000804
S315080060100B6200080D6200080F620008000000000D
S3150800602000000000000000000000000011620008E7
S31508006030136200080000000015620008BD6200082F
S315080060401B6200081D6200081F6200082162000822
S3150800605023620008256200082762000829620008F2
S315080060602B6200082D6200082F62000831620008C2
S315080060703362000835620008376200083962000892
S315080060803B6200083D6200083F6200084162000862
S315080060904362000845620008476200084962000832
S315080060A04B6200084D6200084F6200085162000802
S315080060B053620008556200085762000859620008D2
S315080060C05B6200085D6200085F62000861620008A2
S315080060D06362000865620008676200086962000872
S315080060E06B6200086D6200086F620008EE11AA551F
S315080060F010B5054C237833B9044B13B10448AFF3F4
S3150800610000800123237010BD7C00002000000000E1
S315080061108C6E0008084B10B51BB108490848AFF348
S3150800612000800848036803B910BD074B002BFBD055
S31508006130BDE81040184700BF00000000800000209E
S315080061408C6E00087C00002000000000154B002B18
S3150800615008BF134B9D46A3F5803A00218B460F4690
S315080061601348144A121A00F069FE0F4B002B00D090
S3150800617098470E4B002B00D09847002000210400BA
S315080061800D000D48002802D00C48AFF3008000F03F
S315080061902FFE2000290000F01BF900F015FE00BFB5
S315080061A00000080000500020000000000000000069
S315080061B07C000020EB00002000000000000000002A
S315080061C006498D460649074A074B9A42BEBF51F80B
S315080061D0040B42F8040BF8E7044800470050002077
S315080061E0986E0008000000207C0000204D61000821
S315080061F01F49204A002301E041F8043B9142FBD3A2
S3150800620000F0E6F8FEE7FEE7FEE7FEE7FEE7FEE754
S31508006210FEE7FEE7FEE7FEE7FEE7FEE7FEE7FEE748
S31508006220FEE7FEE7FEE7FEE7FEE7FEE7FEE7FEE738
S31508006230FEE7FEE7FEE7FEE7FEE7FEE7FEE7FEE728
S31508006240FEE7FEE7FEE7FEE7FEE7FEE7FEE7FEE718
S31508006250FEE7FEE7FEE7FEE7FEE7FEE7FEE7FEE708
S31508006260FEE7FEE7FEE7FEE7FEE7FEE7FEE7FEE7F8
S315080062707C000020EB000020014B1860704700BF2F
S315080062809800002008B5074B074A5A60F021074ACC
S3150800629082F823100020986007221A60FFF7ECFFA7
S315080062A008BD00BF10E000E03F19010000ED00E066
S315080062B0014B1868704700BF98000020024A13680F
S315080062C001331360704700BF9800002000B583B003
S315080062D000230193009303F1804303F504331A68FE
S315080062E042F001021A605968364A0A405A601A682A
S315080062F022F0847222F480321A601A6822F480220C
S315080063001A605A6822F4FE025A604FF41F029A6015
S315080063101A6842F480321A602B4B1B6803F4003368
S315080063200093019B01330193009B23B9019A40F224
S31508006330DC539A42F0D1244B1B6813F4003F00D17A
S31508006340FEE7224B1A6842F010021A601A6822F019
S3150800635003021A601A6842F002021A60A3F5805313
S315080063605A685A605A6842F400525A605A6842F4A7
S3150800637080625A605A6822F47C125A605A6842F45B
S31508006380E8125A601A6842F080721A600E4B1B684F
S3150800639013F0007FFAD00C4B5A6822F003025A60B9
S315080063A05A6842F002025A60074B5B6803F00C0316
S315080063B0082BF9D100F038FBFFF764FF03B05DF84E
S315080063C004FB00BF0000FFF8001002400020024056
S315080063D008B5FFF77BFF00F069FC00F043FB00F00F
S315080063E0EDFCFAE730B587B004460D46038A9BB242
S315080063F0CA8823F440531343038283899BB28A884D
S31508006400098968890A43024323F4B05323F00C032D
S315080064101343A381A38A9BB2AA8923F44073134327
S31508006420A38201A800F05CF81E4B9C4201D1049A95
S3150800643000E0039AA38913F4004F08D002EB820206
S3150800644002EB820229684900B2FBF1F107E002EB90
S31508006450820202EB820229688900B2FBF1F1124B33
S31508006460A3FB01235B091B011A09642000FB121216
S31508006470A18911F4004F08D0D20032320A49A1FB93
S315080064800212C2F342121A4307E0120132320649D7
S31508006490A1FB0212C2F343121A4392B2228107B039
S315080064A030BD00BF003801401F85EB5129B18389F3
S315080064B09BB243F400538381704783899BB223F4CC
S315080064C000539BB2838170478088C0F308007047E9
S315080064D00388194201D0012070470020704700BF89
S315080064E010B4294B5B6803F00C03042B05D0082B6A
S315080064F006D013BB254B036021E0244B03601EE046
S31508006500214A53685268C3F38343023312F4803F27
S3150800651004D11F4A02FB03F3036010E01A4A5268CB
S3150800652012F4003F04D01A4A02FB03F3036006E0A4
S31508006530164A02FB03F3036001E0144B0360124999
S315080065404B68C3F30313134CE35CDAB20368D34016
S3150800655043604A68C2F30222A25CD2B223FA02F26C
S3150800656082604A68C2F3C222A25CD2B2D340C36038
S315080065704A68C2F3813208498A5CD2B2B3FBF2F3A5
S31508006580036110BC704700BF0010024000127A0079
S3150800659000093D00040000200000002021B1054B41
S315080065A09A69104398617047024A936923EA000082
S315080065B0906170470010024021B1054BDA6910431B
S315080065C0D8617047024AD36923EA0000D061704750
S315080065D00010024021B1054B1A6910431861704733
S315080065E0024A136923EA000010617047001002404E
S315080065F0F0B4CB7803F00F02154613F0100F01D054
S315080066008D7815430B78E3B10668002316E001225E
S315080066109A400C8832EA04040FD19C000F27A74041
S3150800662026EA070605FA04F42643CC78282C01D175
S31508006630426102E0482C00D102610133072BE6D9FA
S3150800664006600B88FF2B1ED94668002318E003F165
S3150800665008040122A2400C8832EA04040FD19C00E7
S315080066600F27A74026EA070605FA04F42643CC783E
S31508006670282C00D14261CC78482C00D10261013324
S31508006680072BE4D94660F0BC704700BF016170472C
S315080066904161704730B4002802DA1A4BDB6901E021
S315080066A0184B5B68C0F3034582B200F44014B4F596
S315080066B0401F07D123F07063124D6C6824F0706494
S315080066C06C6011E010F4801F06D00324AC4023EA66
S315080066D0040343F0706307E0440D240102FA04F44E
S315080066E023EA040343F0706319B1410D09018A4096
S315080066F01343002802DA034AD36101E0014A5360D2
S3150800670030BC70470000014008B50C4B98420AD1CE
S3150800671001214FF00070FFF75DFF00214FF0007078
S31508006720FFF758FF08BD01214FF08060FFF752FFC1
S3150800673000214FF08060FFF74DFF08BD0064004060
S31508006740036823F002030360036843F00103036050
S31508006750002300E00133426812F0010F03D14FF61F
S31508006760FF729342F6D1436813F0010F6BD08B7911
S31508006770012B04D1036843F08003036003E0036838
S3150800678023F080030360CB79012B04D1036843F01F
S315080067904003036003E0036823F0400303600B7AB9
S315080067A0012B04D1036843F02003036003E0036868
S315080067B023F0200303604B7A012B04D1036843F0CE
S315080067C01003036003E0036823F0100303608B7A69
S315080067D0012B04D1036843F00803036003E0036850
S315080067E023F008030360CB7A012B04D1036843F036
S315080067F00403036003E0036823F0040303608A7854
S31508006800CB781B0643EA82730A7943EA02434A793C
S3150800681043EA02530A88013A1343C361036823F023
S3150800682001030360002300E00133426812F0010F00
S3150800683003D04FF6FF729342F6D1436813F0010F67
S3150800684003D000207047002070470120704700BF22
S3150800685070B4837A012202FA03F3394AD2F8001295
S3150800686041F00101C2F80012D2F81C12DC432140A3
S31508006870C2F81C12027BB2B9314AD2F80C12214076
S31508006880C2F80C12817AC688458845EA0645483119
S3150800689042F83150857A8688018841EA06414835AA
S315080068A002EBC5025160027B012A16D1244AD2F8AE
S315080068B00C121943C2F80C12817A0688458845EAF3
S315080068C00645483142F83150857A8688C18841EABA
S315080068D00641483502EBC5025160C27A32B91849F9
S315080068E0D1F804222240C1F8042205E01449D1F85F
S315080068F004221A43C1F8042202892AB91049D1F898
S3150800690014221440C1F814420289012A05D10C49FF
S31508006910D1F814221A43C1F81422427B012A05D160
S315080069200749D1F81C221343C1F81C32044AD2F88D
S31508006930003223F00103C2F8003270BC704700BF72
S315080069400064004000238371C3710372437283722B
S31508006950C3728370C3700323037102234371012337
S315080069600380704710B401F11B031B01C35803F0E1
S315080069700403DBB2137233B901F11B031B01C358BD
S315080069805B0D136005E001F11B031B01C358DB080F
S31508006990536001F11B031B01C418C35803F002031B
S315080069A05372636803F00F03937263681B0AD37408
S315080069B000EB0113D3F8B841D472D3F8B841240ACE
S315080069C01473D3F8B841240C5473D3F8B841240E81
S315080069D09473D3F8BC41D473D3F8BC41240A147415
S315080069E0D3F8BC41240C5474D3F8BC311B0E9374F1
S315080069F021B9C36843F02003C36003E0036943F089
S31508006A002003036110BC704719B9C06800F0030081
S31508006A107047012903D1006900F003007047002080
S31508006A20704700BFFEE700BF30B583B001211020D4
S31508006A30FFF7B4FD4FF48055ADF8045003238DF8E5
S31508006A40063010238DF80730054C01A92046FFF7BC
S31508006A50CFFD29462046FFF719FE03B030BD00BF1B
S31508006A600010014010B5FFF723FC0F4B1B68C31A33
S31508006A70B3F5FA7F16D304460C4B1B7843B90122AB
S31508006A800A4B1A704FF480510948FFF701FE07E0D8
S31508006A900022064B1A704FF480510548FFF7F6FDA1
S31508006AA0014B1C6010BD00BF9C000020A000002008
S31508006AB000100140F0B5002421E0134D15F81470BC
S31508006AC005EB440595F801E007EB0E0505FB000507
S31508006AD048F6A04C9CFBF5F605FB16C66EB99CFB62
S31508006AE0F5F5ADB20D80013DADB2B5F5806F04D2B6
S31508006AF0177083F800E00120F0BD0134E4B2112CD0
S31508006B00DBD90020F0BD00BF646E000830B587B041
S31508006B1001214FF40030FFF74FFD01210520FFF753
S31508006B203DFD18238DF817300425ADF814500323BE
S31508006B308DF81630144C05A92046FFF759FD8DF837
S31508006B4017500823ADF8143005A92046FFF750FD65
S31508006B504FF4614301930023ADF80830ADF80A30CD
S31508006B60ADF80C30ADF810300C23ADF80E30A4F5A6
S31508006B7044440DEB05012046FFF734FC012120466D
S31508006B80FFF794FC07B030BD0008014030B58BB064
S31508006B9001210846FFF702FD01210820FFF7FEFC48
S31508006BA04FF48073ADF8243048238DF82730344CE1
S31508006BB009A92046FFF71CFD4FF40073ADF82430F1
S31508006BC018238DF8273003238DF8263009A9204687
S31508006BD0FFF70EFD01214FF4EA10FFF75BFD0121D7
S31508006BE04FF00070FFF7E8FC264D2846FFF78CFDAE
S31508006BF006A8FFF7A7FE01AB0DF105020DF1060188
S31508006C004FF4FA70FFF756FF00248DF81E408DF8F2
S31508006C101F408DF820408DF821408DF822408DF8D0
S31508006C2023408DF81A408DF81B409DF80530013B2E
S31508006C308DF81C309DF80430013B8DF81D30BDF8E9
S31508006C400630ADF8183006A92846FFF779FD8DF805
S31508006C5012408DF8134001238DF81430ADF8084022
S31508006C60ADF80A40ADF80C40ADF80E40ADF810404E
S31508006C708DF8153002A8FFF7EBFD0BB030BD00BF4D
S31508006C80000C01400064004010B504462021064867
S31508006C90FFF71EFC012805D10348FFF715FC2070F5
S31508006CA0012010BD002010BD0044004008B5FFF7C4
S31508006CB02DFFFFF76BFF08BD0449CA6802F4E062BE
S31508006CC0034B1343CB60BFF34F8FFEE700ED00E0A5
S31508006CD00400FA0508B5214B1B78ABB92048FFF725
S31508006CE0D3FF012838D11E4B1B78013BDBB23F2B63
S31508006CF032D8FFF7DDFA1B4B18600122174B1A70C2
S31508006D000022194B1A7008BD174B1B78013314481B
S31508006D101844FFF7B9FF012814D1134A1378013331
S31508006D20DBB213700E4A1278934215D100220B4B30
S31508006D301A700B4B5B78FF2B0ED1094B9B785BB90E
S31508006D40FFF7BAFFFFF7B4FA064B1B68643398429D
S31508006D5002D90022014B1A7008BD00BFEA000020C4
S31508006D60A8000020A4000020E900002000B587B094
S31508006D7000211148FFF748FED8B101AA00210E48A4
S31508006D80FFF7F0FD9DF80C3033B940F26763019ABE
S31508006D909A4203D0002302E0002300E0012343B116
S31508006DA09DF80F30FF2B04D19DF810300BB9FFF773
S31508006DB083FF07B05DF804FB0064004008B5FFF7E1
S31508006DC089FFFFF7D3FF08BD08B5074B044613B183
S31508006DD00021AFF30080054B1868836A03B1984712
S31508006DE02046FFF71FFE00BF00000000886E00085F
S31508006DF00E4B70B51E460E4C0025E41AA410A5428B
S31508006E0004D056F8253098470135F8E700F01EF803
S31508006E10084B094C1E46E41AA4100025A54204D0C6
S31508006E2056F8253098470135F8E770BD74000020FC
S31508006E3074000020740000207800002003460244F5
S31508006E40934202D003F8011BFAE77047F8B500BF72
S31508006E50F8BC08BC9E467047F8B500BFF8BC08BC2D
S31508006E609E46704705020602060307030803090340
S31508006E7009040A040B040C040C050D050E050F0580
S31508006E800F06100610071008140000200000000066
S30D08006E90BCF2FF7F01000000BF
S31508006E9802040608000000000102030401020304B4
S31508006EA806070809000000000000000000000000AE
S31508006EB800000000000000000000000000000000BC
S31508006EC800000000000000000000000000000000AC
S31508006ED8000000000000000000000000000000009C
S31508006EE8000000000000000000000000000000008C
S31508006EF8000000000000000000000000000000007C
S31108006F080000000015610008F160000898
S7050800600092
