S31508000000E81A002099010008A5010008A7010008C0
S31508000010A9010008AB010008AD01000800000000B6
S31508000020000000000000000000000000AF0100080A
S31508000030B101000800000000B3010008D52500083A
S31508000040B7010008B7010008B7010008B7010008A2
S31508000050B7010008B7010008B7010008B701000892
S31508000060B7010008B7010008B7010008B701000882
S31508000070B7010008B7010008B7010008B701000872
S31508000080B7010008B7010008B7010008B701000862
S31508000090B7010008B7010008B7010008B701000852
S315080000A0B7010008B7010008B7010008B701000842
S315080000B0B7010008B7010008B7010008B701000832
S315080000C0B7010008B7010008B7010008B701000822
S315080000D0B7010008B7010008B7010008B701000812
S315080000E0B7010008B7010008B701000800F002F8D8
S315080000F000F043F80AA090E8000C82448344AAF171
S315080001000107DA4501D100F038F8AFF2090EBAE86E
S315080001100F0013F0010F18BFFB1A43F0010318472D
S3150800012080560000A0560000103A24BF78C878C14F
S31508000130FAD8520724BF30C830C144BF04680C60DF
S31508000140704700000023002400250026103A28BF27
S3150800015078C1FBD8520728BF30C148BF0B6070472B
S315080001601FB500F069F904000020002105F0B2F877
S31508000170401C60601FBD10B510BD00F0A5F9114602
S31508000180FFF7EEFF04F030FB00F0C3F903B4FFF706
S31508000190F2FF03BC00F0C6F90A498D460A488047B3
S315080001A00A480047FEE7FEE7FEE7FEE7FEE7FEE74A
S315080001B0FEE7FEE7FEE7FEE705480649064A074B5F
S315080001C070470000E81A002081260008ED000008A4
S315080001D0E8100020E81A0020E8120020E8120020A3
S315080001E010B500F029F9001D10BD00BFE950000048
S315080001F0B2F120030AD5C2F1200320FA02F001FA6F
S3150800020003F321FA02F140EA0300704721FA03F0EA
S315080002104FF00001704710B50446FFF7E1FF00688C
S31508000220005D000704D5DF2C02D0A4F1200010BD24
S31508000230204610BD401ECAB210F8011F8A4202D0DD
S315080002400029F9D10020704740EA010310B59B0741
S315080002500FD1042A0DD310C808C9121F9C42F8D022
S3150800026020BA19BA884201D9012010BD4FF0FF30D3
S3150800027010BD1AB1D30703D0521C07E0002010BDE9
S3150800028010F8013B11F8014B1B1B07D110F8013B75
S3150800029011F8014B1B1B01D1921EF1D1184610BD56
S315080002A0032A40F2308010F0030C00F0158011F894
S315080002B0013BBCF1020F624498BF11F801CB00F86C
S315080002C0013B38BF11F8013BA2F1040298BF00F8C0
S315080002D001CB38BF00F8013B11F0030300F025807D
S315080002E0083AC0F0088051F8043B083A51F804CBA4
S315080002F0A0E80810F5E7121D5CBF51F8043B40F86A
S31508000300043BAFF30080D20724BF11F8013B11F874
S3150800031001CB48BF11F8012B24BF00F8013B00F8B8
S3150800032001CB48BF00F8012B704710B5203AC0F042
S315080003300B80B1E81850203AA0E81850B1E81850D8
S31508000340A0E81850BFF4F5AF5FEA027C24BFB1E815
S315080003501850A0E8185044BF18C918C0BDE8104086
S315080003605FEA827C24BF51F8043B40F8043B08BF8F
S315080003707047D20728BF31F8023B48BF11F8012B56
S3150800038028BF20F8023B48BF00F8012B704702F04F
S31508000390FF0343EA032242EA024200F002B84FF0A2
S315080003A000020429C0F0128010F0030C00F01B8034
S315080003B0CCF1040CBCF1020F18BF00F8012BA8BF42
S315080003C020F8022BA1EB0C0100F00DB85FEAC17C06
S315080003D024BF00F8012B00F8012B48BF00F8012BB9
S315080003E070474FF0000200B51346944696462039EA
S315080003F022BFA0E80C50A0E80C50B1F12001BFF4D0
S31508000400F7AF090728BFA0E80C5048BF0CC05DF835
S3150800041004EB890028BF40F8042B08BF704748BF83
S3150800042020F8022B11F0804F18BF00F8012B7047F7
S31508000430704770477047000000487047A8100020B2
S3150800044000487047881000204FF0013C50F8042BF4
S3150800045051F8043B9A4221D1A2EB0C03934313EAC9
S31508000460CC1317D150F8042B51F8043B9A4215D1F6
S31508000470A2EB0C03934313EACC130BD150F8042BCD
S3150800048051F8043B9A4209D1A2EB0C03934313EAB1
S31508000490CC13DBD04FF00000704700BFD01A01BA6A
S315080004A0B1FA81F101F0180122FA01F0CB40C1F14D
S315080004B02001DBB2C0B2C01A2CFA01F3D11A91435B
S315080004C011EAC311E6D170477546FFF7B9FFAE4684
S315080004D005006946534620F00700854618B020B542
S315080004E0FFF76AFEBDE820404FF000064FF0000710
S315080004F04FF000084FF0000B21F00701AC46ACE8BE
S31508000500C009ACE8C009ACE8C009ACE8C0098D462A
S31508000510704710B50446AFF300802046BDE810408A
S31508000520FFF734BE01491820ABBEFEE726000200DD
S31508000530704700F0C0F9FCE710B500F075F901281E
S315080005401AD000F067FB002816D00C4C207801283A
S3150800055012D102F0B9F8D4E90112114401F5FA7181
S31508000560884209D30020207000F0FCFA002803D145
S31508000570BDE8104000F0B8B910BD0000200000200A
S3150800058010B504490120087000F006F8BDE81040CF
S31508000590FFF7D2BF2000002010B5044C20780128B0
S315080005A002D102F091F8A06010BD000020000020E2
S315080005B010B500F084F900F079F902F08DF801F031
S315080005C0F1FE00F0E7FA00F01FF9BDE81040FFF76A
S315080005D0D7BF10B500F06FF902F0DAF800F06AFC40
S315080005E000F02AF9BDE81040FFF7A6BF2DE9FF473E
S315080005F00746884691469A46684601F0DFFD029806
S315080006004FF47A71B0FBF1F6002415484FF4806177
S3150800061000EB440310F814205B78D5186D1C7D4355
S31508000620B6FBF5F205FB1262A2B9B6FBF5F295B276
S31508000630A8F800506D1E8D420CD210F8141089F8D7
S31508000640001000EB440040788AF80000012004B04E
S31508000650BDE8F087641CE4B2122CD9D30020F6E773
S315080006604053000830B58DB000240C940B940A94BE
S315080006700AAB0BAA0CA94FF4FA70FFF7B7FF18B923
S31508000680B4211BA0FFF755FF2448234901600476CF
S31508000690447684760125C576047744778460C460F9
S315080006A09DF82C10491E090401619DF82810491E61
S315080006B009054161BDF83010416001F089F90594DA
S315080006C0069407954CF6E040009001944FF6E070CA
S315080006D0029004200390049408950E200990694618
S315080006E00E4801F076F80D4801F02BFA0DB030BD32
S315080006F02E2E5C2E2E5C2E2E5C2E2E5C536F757263
S3150800070063655C41524D434D335F53544D33324616
S31508000710315C63616E2E630000640040D4090020DA
S3150800072070B588B00E4640F267650024034601AAF4
S315080007300021084801F0C9F828B90198A84202D151
S31508000740039800B90124012C01D10598307008B02E
S31508000750204670BDD409002010B588B040F2E17378
S3150800076002930023049305930691024601AB02A95E
S315080007700B4800F0B5FF002810D101F0A5FF00F1E5
S31508000780320405E000F097F801F09EFFA04205D874
S315080007900348019901F0C5F90028F3D108B010BD46
S315080007A0D4090020704700000A48007805280ED2B0
S315080007B0DFE800F0030507090B00812070470020D9
S315080007C07047082070470020704700207047812036
S315080007D0704700002C0000200A48007805280ED231
S315080007E0DFE800F0030507090B00812070470020A9
S315080007F07047082070470020704700207047812006
S31508000800704700002C00002010B502F067F9FFF7CA
S3150800081029FF044C0220207001F024FE00202070DD
S3150800082010BD00002C00002010B5002402F064F969
S3150800083000B10124204610BD38B569460D48FFF7BA
S315080008406FFF0D4C012806D1022020709DF800107C
S31508000850084802F05DF96946064801F037FE0128A6
S3150800086006D1002020709DF80010024802F050F9C9
S3150800087038BD0000A40200202C00002070B50646F2
S315080008800C46094D2878022803D1E1B23046FFF715
S3150800089063FF287818B9E1B2304601F06DFEBDE86D
S315080008A0704002F0A3B900002C000020AFF30080CE
S315080008B0642001F045BDAFF3008001F047BDAFF3FA
S315080008C0008072B6704762B6704770B505460C462A
S315080008D0164605E014F8010B05F8010BFFF7EBFFC8
S315080008E0761EB6B2F6D270BD10B501F05DFD0028D1
S315080008F018D000F01DF8002814D0FFF753FF01F0B8
S315080009004DF901F02FFF01F04BFD07490840074953
S31508000910086001F045FD4468FFF7D5FFA446BDE829
S315080009201040604710BD000080FFFF1F08ED00E083
S3150800093010B5074901208968884303D0002018B1FB
S31508000940002010BD0120FAE701F0F2FC012010BDDD
S315080009500008014006490020C8610648016941F0BF
S3150800096004010161016941F040010161704700001D
S315080009705800002000200240064A0021D16106499D
S315080009800A6942F002020A614861086940F04000BB
S31508000990086170475800002000200240044B0022DE
S315080009A0DA61044A136943F0010313610180704751
S315080009B0580000200020024000201449CA68D306C7
S315080009C0134A04D5D06940F00200D0611020CB68E4
S315080009D05B0705D5D36943F00103D36140F00400F2
S315080009E0CB69DB0707D0D36943F00403D361CA692F
S315080009F022F00102CA61A0F58072013A01D0C860EE
S31508000A007047C86920F00100C8617047002002409D
S31508000A105800002070B5044601F088F90546114EC5
S31508000A2009E0601C07D024B101F080F9401BA04200
S31508000A3001D9032070BDF068C007F2D1F0688006BE
S31508000A4001D52020F060F068C00605D4F069C0071B
S31508000A5002D1F068400703D5FFF7AEFF012070BD4D
S31508000A60002070BD0020024070B50E4890F828029C
S31508000A70012802D10B4803F00BF801F025FE00F11E
S31508000A806404094D03E001F01FFEA04204D828685B
S31508000A90C0F380100028F6D0BDE87040034803F084
S31508000AA009BB0000780000200044004018530008E5
S31508000AB0044890F82802012802D1024802F0E8BF4B
S31508000AC0704700007800002070B50446144D95F86C
S31508000AD0280201280BD12946204603F0BFF9002831
S31508000AE005DA002085F82802284602F0D1FF0D4DC8
S31508000AF011E0686001F0E8FD00F10A0605E0FFF77D
S31508000B00DAFE01F0E1FDB04204D82868C0F3C0104F
S31508000B100028F4D0641C20780028EAD170BD0000B3
S31508000B20780000200044004010B5074C002084F8E7
S31508000B3028020A2205A1204603F0B4F8002802D1AB
S31508000B40012084F8280210BD780000202F626F6FFC
S31508000B50746C6F672E747874000000000048704744
S31508000B601853000810B5FFF75FFE012804D0084C9B
S31508000B70207818B1002010BD002010BD00F030F814
S31508000B80012801D0002010BD0120207010BD0000F2
S31508000B903000002010B5084900200870002207A17F
S31508000BA0074803F059F8002805D0BDE8104077211A
S31508000BB004A0FFF7BEBC10BD30000020303A00008C
S31508000BC0280300202E2E5C2E2E5C2E2E5C2E2E5CEC
S31508000BD0536F757263655C66696C652E6300000009
S31508000BE000B5C7B04FF48C7101A8FFF7FAFB01A94D
S31508000BF0074803F0F8F940B9019830B19DF80C00A0
S31508000C00C00602D4012047B000BD0020FBE7000063
S31508000C101853000803480078002801D000207047C0
S31508000C20012070473000002010B5014601F00F0082
S31508000C303030092902D9C01DC0B210BDFFF7EBFA42
S31508000C40C0B210BD70B505460C462809FFF7ECFF83
S31508000C50207005F00F00FFF7E7FF60700020A07016
S31508000C60204670BD70B5064600250024305DFFF7A6
S31508000C70D2FAC1B2A1F13002172A02D23A390729AB
S31508000C8001D2002070BDD1B2092901D9C91FC9B244
S31508000C9001EB0510C5B2641CE4B2022CE6D3284663
S31508000CA070BD0246084611460A23401CB1FBF3F103
S31508000CB00029FAD10170401EB2FBF3F103FB1121A2
S31508000CC030310170B2FBF3F2002AF4D1704710B547
S31508000CD004462078FFF79FFA532806D1FFF780FAD3
S31508000CE001686078095C202901D0032010BD3128ED
S31508000CF005D0322805D0332805D0032010BD0020A2
S31508000D0010BD012010BD022010BD00002DE9F041E4
S31508000D1007460C4616460025002C00D027B940F297
S31508000D2063214EA0FFF705FC3846FFF7D0FF804643
S31508000D30B8F1030F0DD0384600F09EF860B1B8F14F
S31508000D40000F0CD0B8F1010F2BD0B8F1020F27D144
S31508000D5050E00020BDE8F0814FF0FF30FAE7BF1CF5
S31508000D603846FFF77FFF0546BF1C3846FFF77AFF70
S31508000D7000022060BF1C3846FFF774FF216808444C
S31508000D802060BF1CED1E002E65D0002406E0384604
S31508000D90FFF768FF3055BF1C641CA4B2AC42F6DBF3
S31508000DA059E0BF1C3846FFF75DFF0546BF1C3846AD
S31508000DB0FFF758FF00042060BF1C3846FFF752FFB4
S31508000DC0216801EB00202060BF1C3846FFF74AFF68
S31508000DD0216808442060BF1C2D1F96B3002406E036
S31508000DE03846FFF73FFF3055BF1C641CA4B2AC421F
S31508000DF0F6DB30E0BF1C3846FFF734FF0546BF1C5C
S31508000E003846FFF72FFF00062060BF1C3846FFF75D
S31508000E1029FF216801EB00402060BF1C3846FFF718
S31508000E2021FF216801EB00202060BF1C3846FFF730
S31508000E3019FF216808442060BF1C6D1F0EB10024ED
S31508000E4007E008E03846FFF70DFF3055BF1C641C65
S31508000E50A4B2AC42F6DB28467CE700002E2E5C2EB8
S31508000E602E5C2E2E5C2E2E5C536F757263655C6647
S31508000E70696C652E6300000070B5861C3046FFF766
S31508000E80F1FE04462546B61C3046FFF7EBFE28441D
S31508000E90C5B2641EA4B2B61C012CF5D8E843C4B288
S31508000EA03046FFF7DFFEA04201D0002070BD0120CA
S31508000EB070BD00002DE9F84F0024E34F387800286C
S31508000EC051D000253E1DDFF884A3012823D00AF55A
S31508000ED00A7808F5C0714FF4807308F5C279A8F24C
S31508000EE05C4B0091022840D003283CD15246194653
S31508000EF0404602F0DDFD9BF84512002970D03D7092
S31508000F00D3A0FFF7E1FD0220FFF7D2FD5046BDE86A
S31508000F10F84F02F0BDBD01F045FAFFF705FED5A072
S31508000F20FFF7D2FDDCA0FFF7CFFDFFF717FE01465E
S31508000F300122504602F0B6FE40B13D70E0A0FFF730
S31508000F40C3FDBDE8F84F0120FFF7B2BDDEA0FFF7ED
S31508000F50BBFDDFA0FFF7B8FDE6A0FFF7B5FD3560DE
S31508000F60756002203870BDE8F88F52461946ED487C
S31508000F7002F09EFD9BF8451259B13D70D0A0FFF7CF
S31508000F80A3FD0220FFF794FD5046BDE8F84F02F096
S31508000F907FBD38B10022E3480099FFF7B7FE044643
S31508000FA0601C0CD0002C59DD7068A0B13168D8F8E7
S31508000FB080210144914214D1204470604EE03D7076
S31508000FC0BFA0FFF781FD0320FFF772FD5046BDE87D
S31508000FD0F84F02F05DBDD8F88001306074603DE0DE
S31508000FE0A6E0B9A0FFF770FDCFA0FFF76DFDD149C8
S31508000FF07068FFF756FECF48FFF766FDCEA0FFF7ED
S3150800100063FD3068CB49000EFFF71CFE306809F116
S315080010100201C0F30740FFF715FE308809F1040105
S31508001020C0F30720FFF70EFE307809F10601FFF737
S3150800103009FEC048FFF748FDB9A0FFF745FDD6E908
S31508001040000101F0ABF908B39FA0FFF73DFDA9A089
S31508001050FFF73AFDD8F8800130607460DBF840127B
S31508001060DBF8480288427FF47EAF0021504602F042
S3150800107043FDB8B13D7092A0FFF726FD0420FFF7A7
S3150800108017FD5046BDE8F84F02F002BD3D708CA032
S31508001090FFF71AFD0520FFF70BFD5046BDE8F84F90
S315080010A002F0F6BC706888B387A0FFF70DFD9EA016
S315080010B0FFF70AFD9F497068FFF7F3FD9D48FFF7A4
S315080010C003FD9DA0FFF700FD30689A49000EFFF763
S315080010D0B9FD306809F10201C0F30740FFF7B2FD18
S315080010E0308809F10401C0F30720FFF7ABFD30781B
S315080010F009F10601FFF7A6FD8E48FFF7E5FC88A073
S31508001100FFF7E2FC03CE01F049F928B16EA0FFF71C
S31508001110DBFC0320387026E73D7069A0FFF7D4FC96
S315080011200520FFF7C5FC5046BDE8F84F02F0B0BCF5
S31508001130804E843E38B132467A480099FFF7E6FD7C
S315080011400446601C5BD0002C39DD82A0FFF7BCFC8E
S3150800115078492046FFF7A5FD7648FFF7B5FC81A03C
S31508001160FFF7B2FCD8F880017249000EFFF76AFD56
S31508001170D8F8800109F10201C0F30740FFF762FDC4
S31508001180B8F8800109F10401C0F30720FFF75AFDFA
S3150800119098F8800109F10601FFF754FD6548FFF745
S315080011A093FC5FA0FFF790FC32462146D8F88001F1
S315080011B001F0FCF800282ED043A0FFF785FCDBF8E9
S315080011C04012DBF848028842A5D16CA0FFF77CFCE8
S315080011D001F0DAF800282AD03BA0FFF775FC6EA0CC
S315080011E0FFF772FC504602F053FC71A0FFF76CFC47
S315080011F03D70FFF739FCBDE8F84FFFF775BB3D704A
S3150800120076A0FFF761FC0320FFF752FC5046BDE8C5
S31508001210F84F02F03DBC3D7029A0FFF755FC0620AB
S31508001220FFF746FC5046BDE8F84F02F031BC3D706A
S3150800123023A0FFF749FC0720FFF73AFC5046BDE814
S31508001240F84F02F025BC0000300000205C050020A5
S3150800125052656164696E67206C696E652066726F97
S315080012606D2066696C652E2E2E4552524F520A0D18
S31508001270000000004669726D7761726520757064BA
S31508001280617465207265717565737420646574652B
S31508001290637465640A0D00004F70656E696E672099
S315080012A06669726D776172652066696C6520666F1E
S315080012B0722072656164696E672E2E2E000000002A
S315080012C04552524F520A0D004F4B0A0D00000000BE
S315080012D05374617274696E67207468652070726FE2
S315080012E06772616D6D696E672073657175656E638A
S315080012F0650A0D0050617273696E67206669726DC2
S31508001300776172652066696C6520746F2064657400
S3150800131065637420657261736520626C6F636B73B5
S315080013202E2E2E008407002045726173696E672091
S3150800133000000000080900202062797465732066A1
S31508001340726F6D206D656D6F7279206174203078CB
S315080013500000000050726F6772616D6D696E6720DC
S315080013600000000020627974657320746F206D6533
S315080013706D6F727920617420307800005772697435
S31508001380696E672070726F6772616D206368656346
S315080013906B73756D2E2E2E00436C6F73696E672006
S315080013A06669726D776172652066696C650A0D00FB
S315080013B04669726D7761726520757064617465201F
S315080013C07375636365737366756C6C7920636F6D8B
S315080013D0706C657465640A0D00000000496E7661DC
S315080013E06C696420636865636B73756D20666F75D9
S315080013F06E642E2E2E4552524F520A0D00000000E2
S315080014002DE9F04704460D4616461F464FEA55296C
S315080014104FEA49292068401C04D14946204600F075
S315080014209BF838B32068484505D04946204600F061
S31508001430A5F8044604B32068281A05192D1D4FF48B
S31508001440007809F50079FFF736FA281B001F404592
S3150800145006D34946204600F091F8044674B1251D86
S3150800146016F8010B05F8010B7F1E002FEBD10120A2
S31508001470BDE8F0870020FBE70020F9E70020F7E742
S3150800148010B50B480068401C03D0094800F0DCF88A
S3150800149048B108480068401C03D0064800F0D4F854
S315080014A018B1012010BD002010BD002010BD00009D
S315080014B0000C0020FC090020F0B585B00027049731
S315080014C001261C4B4A1E1C1A944202D2002005B063
S315080014D0F0BD820A9202184CA24203D34418641E35
S315080014E09C4201D90020F2E7801A0844C0F38F25F0
S315080014F0800501D06D1CADB20097029201200390C1
S3150800150000F000FC00240EE0FFF7D5F904A96846B0
S3150800151000F054FB08B1002607E0029800F5806049
S315080015200290641CA4B2AC42EED300F09BFB30469A
S31508001530CDE70000FFFF010800600008004870477B
S315080015400060000803494FF0FF30086001F501719B
S3150800155008607047FC09002010B5CA0501D00020B4
S3150800156010BD02688A4201D1012010BD02C04FF4A5
S315080015700072FFF7AAF9012010BD000070B50446F5
S315080015800D460D48844202D1A0F5017409E00B48C6
S31508001590854202D1084C054603E0204600F054F87F
S315080015A030B129462046FFF7D7FF18B1204670BD4F
S315080015B0002070BD002070BD000C002000600008EF
S315080015C00B4801684268114482681144C268114494
S315080015D0026911444269114482691144D0F8EC0049
S315080015E00844002801D000207047012070470000F9
S315080015F00060000830B4104B4C1E1D1AA54202D2DA
S31508001600002030BC70470D4CA04203D345186D1E10
S315080016109D4201D90020F4E7430A5B02A34205D1A3
S315080016200B46014630BC0648FFF7EABE0B460146A4
S3150800163030BC0448FFF7E4BEFFFF0108006000085D
S31508001640000C0020FC0900202DE9F04106464FF069
S31508001650010800F057FB0024306800EB840706EB0E
S3150800166084004568FFF727F92A46002339460220F1
S3150800167000F002FB10B14FF0000808E03868A842F5
S3150800168002D04FF0000802E0641C802CE4D300F07E
S31508001690E9FA4046BDE8F08108B5002000900E48FA
S315080016A00168491C15D0416882681144C268114412
S315080016B0026911444269114482691144C0690844A7
S315080016C0C043401C00906A4604210448FFF792FF75
S315080016D008BD012008BD0000000C0020EC600008D1
S315080016E0F0B590F820500468A468012D07D0022DA3
S315080016F005D0416A41F4802141620120F0BD04F021
S31508001700806504F00066354301D1E5005BD5C4F376
S315080017100164022C05D9416A41F4000141620120A5
S31508001720F0BD0125A5401D608B684FF4C0759BB1BF
S31508001730CE6805EB041733434E6843EAC6030668CA
S31508001740F3514FF4C273076803EB04130E69FE5096
S31508001750097D012909D00DE00E88CB6805EB041731
S3150800176043EA46530668F351EBE70168CE5846F458
S315080017708076CE501179D379567941EA0361937907
S315080017801B0443EA062319434FF4C676036806EB9F
S31508001790041699511178D37841EA036193785278FF
S315080017A01B0443EA022211434FF4C473026803EB95
S315080017B00413D150006805EB0411425842F00102A7
S315080017C042500020F0BD416A41F4001141620120F7
S315080017D0F0BD10B5026890F82030012B07D0022B17
S315080017E005D0416A41F480214162012010BDD2F83A
S315080017F0000240F00100C2F80002087D00F01F0355
S3150800180001209840D2F81C328343C2F81C32CB69B7
S31508001810B3B9D2F80C328343C2F80C328C894B68C0
S3150800182064F31F434C6902EBC404C4F840320C89C4
S315080018300B6864F31F434C6902EBC404C4F84432D2
S31508001840CB69012B16D1D2F80C320343C2F80C32FD
S315080018500C884B6864F31F434C6902EBC404C4F854
S3150800186040320C89CB6864F31F434C6902EBC4040D
S31508001870C4F844328B697BB1D2F804320343C2F808
S3150800188004320B6973B1D2F814320343C2F8143226
S31508001890096A01290CD010E0D2F804328343C2F851
S315080018A00432EEE7D2F814328343C2F81432EFE773
S315080018B0D2F81C120143C2F81C12D2F8000220F01A
S315080018C00100C2F80002002010BD30B590F8204093
S315080018D0012C07D0022C05D0416A41F480214162CF
S315080018E0012030BD21B104682469A4075FD003E054
S315080018F00468E468A40754D04FF4D874056804EB68
S3150800190001142D5905F004059560F5B305682D59A0
S31508001910ED08556005682C5904F00204D4604FF4AC
S31508001920DA74056804EB01142D5905F00F051561E5
S3150800193005682D59C5F30725956105682C59240CAA
S3150800194054614FF4DC72046802EB0112A4581C704F
S315080019500468A458240A5C700468A458240C9C7073
S315080019600468A258120EDA704FF4DE72046802EBAD
S315080019700112A4581C710468A458240A5C710468EE
S31508001980A458240C9C71046800E016E0A258120EB4
S31508001990DA71B9B10068016941F0200101610020DE
S315080019A030BD416A41F400114162012030BD416AEF
S315080019B041F400114162012030BD05682D596D0DB5
S315080019C01560A7E70068C16841F02001C160E6E735
S315080019D070B50446002C03D094F8200010B104E03A
S315080019E0012070BD204600F0ABF82068016821F0A0
S315080019F00201016000F09AF9054605260CE000F0A0
S31508001A0095F9401B0A2807D9606A40F400306062DD
S31508001A1084F82060012070BD206840688007EED4F5
S31508001A202068016841F00101016000F07FF9054670
S31508001A300CE000F07BF9401B0A2807D9606A40F4DD
S31508001A400030606284F82060012070BD206840681C
S31508001A50C007EED0207E01283FD02068016821F01B
S31508001A6080010160607E01283DD02068016821F070
S31508001A7040010160A07E01283BD02068016821F062
S31508001A8020010160E07E012839D02068016841F014
S31508001A9010010160207F012837D02068016821F0F5
S31508001AA008010160607F012835D02068016821F0AF
S31508001AB004010160D4E902010843D4E90412114380
S31508001AC008436168491E08432168C86100206062AE
S31508001AD0012084F82000002070BD2068016841F0CC
S31508001AE080010160BEE72068016841F0400101609D
S31508001AF0C0E72068016841F020010160C2E720685C
S31508001B00016821F010010160C4E72068016841F00E
S31508001B1008010160C6E72068016841F00401016018
S31508001B20C8E70346002093F82020012A01D0022A9C
S31508001B3005D11A6889069268914300D0012070473A
S31508001B40704770B5044694F82000012805D0606AED
S31508001B5040F400206062012070BD022084F8200055
S31508001B602068016821F00101016000F0DFF80546F0
S31508001B700DE000F0DBF8401B0A2808D9606A40F43B
S31508001B8000306062052084F82000012070BD2068BE
S31508001B904068C007EDD1606270BD000010B5064808
S31508001BA04FF0FF31C16000220261C160C26000F0DF
S31508001BB0F3F8002010BD0000001002402DE9F047A0
S31508001BC005460F464FF0010ADFF8908098F818008E
S31508001BD001280DD0012088F818002868204E4CF2FC
S31508001BE05039022807D04846FEF714FF98B12FE06F
S31508001BF00220BDE8F0874846FEF70CFFF8B9012039
S31508001C00FEF7A8FE4846FEF705FF8246306920F033
S31508001C10040030611CE04FF0FF303860AC6811E01A
S31508001C202046FEF7A9FE4846FEF7F4FE82463069CE
S31508001C3020F0020030615FEA0A0001D03C6007E04C
S31508001C4004F58064D5E9020100EB8120A042E7D8BB
S31508001C50002088F818005046CBE7000058000020FE
S31508001C60002002400348016941F08001016100201B
S31508001C7070470000002002402DE9F05F07468846BD
S31508001C8015461E460024DFF8749099F818000128B6
S31508001C9009D0012089F818004CF2503B5846FEF747
S31508001CA0B9FE18B126E00220BDE8F09F012F05D045
S31508001CB0022F05D00427DFF848A019E00127FAE724
S31508001CC00227F8E7220128463146FEF791FA81B243
S31508001CD008EB4400FEF762FE5846FEF79BFEDAF86C
S31508001CE0101021F00101CAF8101018B9641CE4B2EA
S31508001CF0BC42E7D3002189F81810D5E75800002020
S31508001D0000200240002006490A69120607D5054A3E
S31508001D104A60054A4A600969090600D501207047E4
S31508001D200020024023016745AB89EFCD00F0CCBC0B
S31508001D3010B50748016841F010010160032000F062
S31508001D40F1F8002000F006F800F056F8002010BD63
S31508001D500020024070B504460D4D4FF47A7128787C
S31508001D60B1FBF0F00B490968B1FBF0F000F0ECF8B4
S31508001D7008B1012070BD102C07D200222146501E42
S31508001D8000F0B0F86C60002070BD012070BD000046
S31508001D90080000201400002010B500F0DFF91248F2
S31508001DA000F01EF9114800F01BF9114800F018F967
S31508001DB0104CE06920F00070E061E06920F4003022
S31508001DC0E061102000F0E8F8082000F0E5F80420AB
S31508001DD000F0E2F8E06920F08050E061BDE81040CC
S31508001DE0012000F0D9B8000000100140000C0140A5
S31508001DF000080140001002402DE9F04186B001209C
S31508001E0000F0D2F84FF0805000F0BAF8042000F045
S31508001E10CBF8082000F0C8F8102000F0C5F84FF4F9
S31508001E20003000F0ADF84FF0007000F0A9F8254832
S31508001E300190012002900220039000240494224D70
S31508001E4001A9284600F00EF9A914296140F20110EB
S31508001E50019004250295DFF8748001A9404600F038
S31508001E6001F940F2044001900926029603270397D8
S31508001E70049401A9404600F0F5F840F608000190E0
S31508001E80029501A9404600F0EDF811480190082096
S31508001E900290104D01A9284600F0E4F80E49019178
S31508001EA002960397049401A9284600F0DBF80B482C
S31508001EB041680B4A21F400511143416006B0BDE860
S31508001EC0F0810000100010040010014000080140D5
S31508001ED001000104000C0140020002040000014058
S31508001EE000400007F0B40D460D4B1B68C3F30223F0
S31508001EF0C3F10704042C00D90424191D072901D2AB
S31508001F00002300E0DB1E012606FA04F1491E2940DB
S31508001F1099409E40761E16403143F0BC00F08BBEB9
S31508001F200CED00E000F00701054A10684FF6FF03C4
S31508001F30184040EA01200349084310607047000032
S31508001F400CED00E00000FA0510B5401EB0F1807FE8
S31508001F5001D3012010BD4FF0E02460610F21601706
S31508001F6000F069FE0020A06107202061002010BD56
S31508001F7010B5FFF7DDFEBDE8104000F02DBB0000F0
S31508001F8008B50449CA690243CA61C9690140009192
S31508001F9008BD00000010024002498A6982438A612E
S31508001FA0704700000010024008B504498A690243D8
S31508001FB08A6189690140009108BD0000001002404D
S31508001FC00249CA680243CA6070470000001002400E
S31508001FD00249CA688243CA6070470000001002407E
S31508001FE010B500241A49884206D10420FFF7E8FFF5
S31508001FF00420FFF7EDFF28E01649884206D108209D
S31508002000FFF7DEFF0820FFF7E3FF1EE012498842CC
S3150800201006D11020FFF7D4FF1020FFF7D9FF14E0F0
S315080020200E49884206D12020FFF7CAFF2020FFF775
S31508002030CFFF0AE00A49884206D14020FFF7C0FFD1
S315080020404020FFF7C5FF00E00124204610BD000030
S3150800205000080140000C0140001001400014014036
S31508002060001801402DE9F0410A68C2F30F2595FAD8
S31508002070A5F2B2FA82F26BE0012393402B4266D0B6
S31508002080082A03D240F20113934006E0A2F108039E
S315080020904FF001149C4044F080634E6800EB1364D3
S315080020A093FAA3FCBCFA8CFC4FEA8C084FF00F0C91
S315080020B027680CFA08FC27EA0C0793FAA3FCBCFA73
S315080020C08CFC4FEA8C0C06FA0CF6374327600E692F
S315080020D0C7684FEA132C9CFAACFCBCFA8CFC27EABE
S315080020E0132706FA0CF63743C7604E68012E01D04F
S315080020F0092E2CD18F6893FAA3FCBCFA8CFC4FEA04
S315080021008C084FF0030C26680CFA08FC26EA0C0625
S3150800211093FAA3FCBCFA8CFC4FEA8C0C07FA0CF772
S315080021203E432660CF6893FAA3FCBCFA8CFC4FEAC0
S315080021308C084FF0040C0CFA08FC93FAA3F3B3FAD4
S3150800214083F39B0026EA0C069F403E432660521CFA
S3150800215035FA02F390D10020BDE8F08116480168EF
S3150800216041F0010101600168C1F340010029FAD07C
S31508002170416821F003014160416801F00C01002922
S31508002180FAD1016821F0807101600168C1F34061EC
S315080021900029FAD14160026822F4502202600268DE
S315080021A022F0F80242F0800202608160416A41F042
S315080021B080714162002070470010024000B5034656
S315080021C000F020F9186000F0F3F8586000F0FEF807
S315080021D09860586800F008F9D86000BD10B501226B
S315080021E00368C3F38013002B25D1D1E900231A43D2
S315080021F0D1E9023423431A430B691A434B691A433C
S315080022008B691A43CB691A430B6A1A4303684FF65C
S31508002210BF74A3431A43026042684B6922F0040262
S3150800222042EA134242600A6AB2F5005F02D1898C1B
S3150800223089B201610022104610BD000001490860FC
S3150800224070470000140000202DE9FF4104460E46A1
S3150800225001270025E068C0F3403000285DD1F16809
S315080022607068E2680843316941F20C639A43114386
S315080022700843E060B068216921F4405101432161B7
S315080022807069616921F44071014361616846FFF72D
S3150800229095FF2448844201D1039D08E022488442E0
S315080022A001D1029D03E02148844200D1029DA5B3D5
S315080022B0306890B3002705EBC50101EB05118000D6
S315080022C0B1FBF0F36422B3FBF2F36FF01806734325
S315080022D0B1FBF0F5B1FBF0F605EB8305322303EB12
S315080022E00515B5FBF2F5B6FBF2F605F0F00505EBBC
S315080022F00615B1FBF0F6B1FBF0F0B0FBF2F06FF0AB
S315080023001801484306EB800003EB0010B0FBF2F01F
S3150800231000F00F00284480B2A06004B03846BDE83B
S31508002320F0810000003801400044004000480040A9
S3150800233002494FF4805008617047000000100140C0
S3150800234001494880704700001800002010B500F0C9
S31508002350BBF90B4C616888420CD3227809494FF4C3
S31508002360805042B100222270086100F0ADF9618800
S315080023700844606010BD012222704861F5E700003C
S31508002380180000200010014010B5FFF785F918B1B4
S31508002390BDE81040FFF774B8002010BDFFF78CB8F1
S315080023A0FFF7CCB8FFF7CEB8FFF70AB9FFF722B99F
S315080023B00449496801F0F001034A0909515CC8401B
S315080023C0704700000010024000530008044949689D
S315080023D001F4E061034A02EB11210978C84070470D
S315080023E000100240105300080449496801F460517E
S315080023F0034A02EBD1210978C84070470010024011
S31508002400105300080648406800F00C0105480029EA
S3150800241005D0042903D0082901D100F005B8704772
S315080024200010024000127A000C4A506800F480300E
S315080024300B49002809D0B0F5803F06D15068C0F393
S315080024404040401C4900B1FBF0F1506800F47010A0
S31508002450022202EB904048437047000000100240F9
S3150800246000093D0010B588B0104CE06820F4005013
S31508002470E0604FF4614001900020029003900490C0
S315080024800C2105910690079001A92046FFF7DCFE6E
S31508002490206920F490402061606920F02A0060617C
S315080024A0E06840F40050E06008B010BD0044004009
S315080024B005490A68C2F34012002A03D04968017028
S315080024C00120704700207047004400402DE9F04184
S315080024D080460F461B4C00251B4E6078002810D0FE
S315080024E020783044401CFFF7E3FF012819D000F09C
S315080024F0EBF86168C831884200D965700020BDE8EC
S31508002500F0811148FFF7D4FF0128F7D13078401E33
S315080025108028F3D800F0D8F8606025700120607034
S31508002520ECE72078401CC2B22270307831469042DF
S31508002530E4D1491C4046FEF7C8F965702078387022
S315080025400120DCE744000020040E002070B5094D88
S31508002550686000F0B9F800F10A0405E0FEF7ABF987
S3150800256000F0B2F8A04204D82868C0F3C0100028CA
S31508002570F4D070BD0044004070B505460E46812E65
S3150800258003D9702108A0FDF7D4FF3046FFF7DEFF18
S31508002590002406E0FEF78FF9285DFFF7D7FF641CD5
S315080025A0A4B2B442F6D370BD2E2E5C2E2E5C2E2E0F
S315080025B05C2E2E5C536F757263655C41524D434DBC
S315080025C0335F53544D333246315C72733233322E95
S315080025D0630000007047000010B52348016821F029
S315080025E0070141F002010160006800F007000228B7
S315080025F003D068211DA0FDF79CFF1F48016841F420
S31508002600803101600168C1F340410029FAD0416870
S3150800261021F47C1141F4E8114160016841F08071B0
S3150800262001600168C1F340610029FAD0416821F0D0
S31508002630F0014160416821F4E06141F48061416044
S31508002640416821F460514160416821F0030141F07D
S3150800265002014160416801F00C010829FAD1BDE880
S3150800266010400648FFF7EABD002002402E2E5C6D9A
S3150800267061696E2E630000000010024000A24A0441
S315080026800D48016841F00101016041680B4A11409B
S31508002690416001680A4A11400160016821F48021FD
S315080026A00160416821F4FE0141604FF41F01816019
S315080026B00449C00308607047001002400000FFF894
S315080026C0FFFFF6FE08ED00E000B500F061F80148EE
S315080026D0406800BD3C00002008B51C48816941F4EB
S315080026E000618161816901F400610091416801F42A
S315080026F06051174A02EBD1210A7816490968D14078
S31508002700406800F4605000281DD002204143124A58
S3150800271001201060104A4FF6FF702C3210600F48E7
S31508002720B1FBF0F0401E111F08600B481430016819
S3150800273041F0010101600A4800214160064924313F
S315080027400968018008BD0120E0E70000001002408A
S315080027501053000814000020002C0140A086010038
S315080027603C0000200948C16841F40061C160C168A5
S3150800277021F40061C160816921F4006181614FF033
S31508002780E02000210161416181617047001002402B
S315080027900A4800680A4A1188401A80B264280CD38D
S315080027A06423B0FBF3F053680344536000EBC003A3
S315080027B003EB001001EB800010807047242C0140C9
S315080027C03C00002038B5002500950B4CFF212170F0
S315080027D0001D00F077F901466A46D4F8880000F033
S315080027E05DF96070211D009800F01AFAA570E57071
S315080027F00820A4F8860038BD4809002070B5FEF701
S3150800280009FAF0B100F0FAF9104C012584F8815064
S31508002810FF202070002010216170A070FDF7C4FF12
S31508002820E070FDF7D9FF2071FDF7D6FF000A607149
S31508002830A571E5710820A4F88600BDE87040FFF789
S31508002840B1BDBDE87040102000F0E0B9480900208D
S3150800285010B5064C002084F8810000F0CFF9FF205F
S3150800286020700120A4F8860010BD00004809002049
S3150800287010B5094CFF2020700848C4F888000020CD
S315080028806070A070E0700720211D00F0C9F90820CB
S31508002890A4F8860010BD0000480900203853000837
S315080028A00748FF2101700021417090F8822082704C
S315080028B0C170017141710621A0F8861070470000A9
S315080028C04809002070B50446FDF76EFF6178801E42
S315080028D0884204DABDE87040222000F097B9114D0D
S315080028E0FF2028700120A5F88600617859B1A21C3E
S315080028F0D5F88800FFF75AFD70B155F8880F61784A
S315080029000844286070BDFFF73FFD0028FAD1BDE8EE
S315080029107040312000F07AB9BDE87040312000F0EF
S3150800292075B900004809002070B50B4DD5F88840E8
S31508002930001D00F0C7F801462046FFF72FFD28B115
S31508002940FF2028700120A5F8860070BDBDE87040FC
S31508002950312000F05BB900004809002070B5054633
S31508002960FDF722FF0C4C411E6A1CD4F88800FFF7BD
S315080029701DFD60B14834FF2004F8480CFDF714FF2C
S31508002980216C401E084420640120E08770BDBDE824
S315080029907040312000F03AB948090020312000F093
S315080029A035B9000010B5FDF79FFF0348FF210170F8
S315080029B00121A0F8861010BD4809002070B5084C02
S315080029C0FF20207000256570A570FDF7EDFEE0700C
S315080029D025716571A5710720A4F8860070BD0000F1
S315080029E04809002010B5064CFF212170001D00F093
S315080029F069F8C4F888000120A4F8860010BD000014
S31508002A004809002070B50446FDF7CEFE6178401EE1
S31508002A10884204DABDE87040222000F0F7B8201D8D
S31508002A2000F050F80A4DC5F8880062786B1C01461C
S31508002A301846FDF74AFFFF20483505F8480C617827
S31508002A40286C084428646078401CE88770BD00003C
S31508002A5048090020002000F0D9B8000070B50546E6
S31508002A60FDF7A2FE6A78401E904204DABDE870407F
S31508002A70222000F0CBB8084C601C4834216CFDF7C6
S31508002A8024FFFF2004F8480C6978206C0844206469
S31508002A906878401CE08770BD480900202DE9F041A0
S31508002AA004460E461746002505E014F8010B28448F
S31508002AB0C5B2FDF700FF761E701CF6D13D600120F9
S31508002AC0BDE8F0810178427841EA0221827841EA3C
S31508002AD00241C07841EA00607047000005480021BD
S31508002AE00170C0F80710C170A0F805108170417018
S31508002AF070470000C9090020044890F881000028A2
S31508002B0001D00120704700207047000048090020C6
S31508002B1010B50178344CFF2910D094F88120012A89
S31508002B2060D1F42921D013DCD02936D009DCC92993
S31508002B3030D0CC293DD0CF293ED137E0FFF75EFE15
S31508002B403DE0D1292FD0D2292AD0F32934D112E059
S31508002B50F5390A2930D2DFE801F0050B2F2F2F119E
S31508002B602F14171AFFF77AFF29E0FFF74BFF26E025
S31508002B70FFF738FF23E0FFF725FE20E0FFF778FE92
S31508002B801DE0FFF767FF1AE0FFF78AFE17E0FFF779
S31508002B905FFE14E0FFF7E2FE11E0FFF793FE0EE09A
S31508002BA0FFF70CFF0BE0FFF7BFFE08E0FFF7FAFEA2
S31508002BB005E0FFF7F3FE02E0202000F027F894F87E
S31508002BC08400012802D1102000F020F8B4F98610FC
S31508002BD0002907DD012084F88400BDE8104002487A
S31508002BE000F026B810BD0000480900200249002060
S31508002BF081F8840070470000480900200249002037
S31508002C0081F8820070470000480900200349FE2227
S31508002C100A7048700220A1F886007047480900200B
S31508002C200870020A4A70020C8A70000EC870704753
S31508002C3089B2FDF723BE0907090E002804DB00F157
S31508002C40E02080F80014704700F00F0000F1E02043
S31508002C5080F8141D7047000070B5044600202071E6
S31508002C60401E2063204601F0EBFE08B1042070BD2B
S31508002C7004F2322001F0B3FD054694F834004AF612
S31508002C805526EB2803D0E92801D0E82841D1B542DA
S31508002C9006D1082222A104F18600FDF7D5FAA8B3C9
S31508002CA004F13F0001F09BFD94F84110421E1042CA
S31508002CB02FD14FF4007290422BD3904229D841B3BA
S31508002CC0481E014225D104F1420001F088FD00B3F7
S31508002CD094F84400401E01281BD804F1450001F071
S31508002CE07EFDB0B104F1470001F079FD802806D2D7
S31508002CF004F1540001F068FDB0F5803F09D304F1F2
S31508002D004A0001F06CFD20B1002070BDFFE70020ED
S31508002D10FBE7B54201D10220F7E70320F5E70000FB
S31508002D20464154333220202000000000891E826963
S31508002D30921E8A4201D800207047C26A408900FB69
S31508002D40012070472DE9F0478146884608F11A00A8
S31508002D5001F045FD10B10020BDE8F08798F80000A5
S31508002D6000F03F00401E00EB800101EBC004012784
S31508002D700025DFF860A01AF80500404401F02FFD91
S31508002D8006468FB1FF2C0BD8304601F0E7FA074606
S31508002D902046641C39F8100001F0E0FA874201D099
S31508002DA00020D9E7374605E0A6F57F40FF3801D071
S31508002DB00020D1E76D1C0D2DDDD398F800004006E4
S31508002DC005D527B139F8140008B10020C4E7012059
S31508002DD0C2E70000645300082DE9F04180460F461B
S31508002DE0D8F80050002F08D03946404601F0C0FBFD
S31508002DF0022809D20120BDE8F0812E6916B1A8691A
S31508002E00B04207D8012605E0411CF4D0A9698142E1
S31508002E10F1D83E466869D0B10024BE4215D1741C6B
S31508002E20A869A04200D802242146404601F0A0FB2A
S31508002E300128E0D0411CDED038B12869022803D326
S31508002E40A969814200D90646002414B118E0002079
S31508002E50D1E73446641CA869A04204D80224022E8D
S31508002E6001D20020C7E72146404601F081FB38B170
S31508002E700128C0D0411CBED0B442EBD10020BAE72D
S31508002E804FF0FF3632462146284601F099FE28B90A
S31508002E9027B122463946284601F092FE20B101287C
S31508002EA00FD001242046A6E72C61D5E90501891E25
S31508002EB0884201D8401E6861687940F0010068714F
S31508002EC0F0E73446EEE700002DE9F34F81B00F46F0
S31508002ED03868009001980068D0F80CA0002468466D
S31508002EE002F056F9411C18D0B0F5803F04D3020C05
S31508002EF02146641C2AF8112085B2202D0FD32F2DC8
S31508002F000DD05C2D0BD0802D0DD2294676A0FDF76D
S31508002F1091F940B10620BDE8FE8F0620FBE7202D7B
S31508002F200CD2042616E0FF2C01D30620F3E7204630
S31508002F30641C2AF81050D2E7491C009100990878B9
S31508002F402F28F9D05C28F7D000260098007820288A
S31508002F5000D204260098386007E0601E3AF8100090
S31508002F60202801D02E2802D1641E002CF5D100207D
S31508002F702AF814000CB1002702E00620CBE77F1CD4
S31508002F803AF817002028FAD01FB9BAF800002E28F8
S31508002F9003D146F0030600E0641E24B1601E3AF829
S31508002FA010002E28F8D1019820220B212030FDF799
S31508002FB0EEF94FF00008C1464FF0080B38467F1C63
S31508002FC03AF8105005B3202D03D02E2D04D1A74270
S31508002FD002D046F00306F1E7D84501D2A74219D137
S31508002FE0BBF10B0F0ED0A74201D046F003060BD853
S31508002FF027464FF008084FF00B0B4FEA89604FEA57
S315080030001069DBE746F00306019890F82000E528EA
S3150800301043D046E0802D0DD346F0020640F2B511A6
S31508003020284601F07DF90546280603D5314905F0FD
S315080030307F000D5CFF2D10D9ABF10100804503D34D
S3150800304046F00306D846B9E70199404608442A0AD5
S3150800305008F1010880F8202017E025B1294626A0A6
S31508003060FDF7E8F818B15F2546F003060DE0A5F16F
S315080030704100192801D849F00209A5F1610019286B
S3150800308003D849F00109203DADB2019940460844EC
S3150800309008F1010880F8205090E70198052180F88A
S315080030A02010BBF1080F03D14FEA89604FEA106977
S315080030B0C9F38100032803D06FEA0900800701D10C
S315080030C046F00206B00709D45FEAC97001D046F097
S315080030D010065FEA497001D546F00806019880F89F
S315080030E02B60002017E700002A3A3C3E7C223F7FEF
S315080030F000000000715300082B2C3B3D5B5D00006F
S31508003100002801D00020704700207047002801D011
S31508003110002070470020704703494FF4805008612B
S31508003120FF2002F08DB80000000C01402DE9F041A7
S3150800313005460E462F680021284600F032FA88B95F
S3150800314000243846A96901F07BFC58B9E9690A7870
S31508003150E52A0CD05AB100240121284600F0A2F82D
S315080031600028EED0042800D10720BDE8F081641CB1
S31508003170B442F7D0F0E72DE9F04105460C4628465B
S3150800318001F0E2FF10B10120BDE8F0812146284692
S31508003190FFF7CCFD06462E6305F134004FF40071A7
S315080031A08046FDF71EF90127002400E03C446889A3
S315080031B0A04207D9321968783B46414600F01AFC06
S315080031C00028F3D06889A04201D00120DCE700205E
S315080031D0DAE72DE9F0470446D4F800A00021204696
S315080031E000F0DFF900285BD1FF26B0464FF0FF3923
S315080031F0C4F82C905046A16901F022FC0746380015
S315080032004DD1E06905786DB1C17A01F03F01A17130
S31508003210E52D03D00A0707D50F2905D0FF26C4F8E0
S315080032202C9035E004273AE00F2901D0F6B121E0C9
S3150800323094F82B1049062BD4690606D590F80D800C
S3150800324005F0BF052E462169E162B5420BD1417BE7
S31508003250414508D1DAF80C2001461046FFF772FD01
S3150800326008B1761E00E0FF26F6B211E001F01AFF5B
S31508003270404514D094F82B00C00706D10B2204F160
S315080032802001E069FCF7E0FF48B1FF26C4F82C905E
S315080032900021204600F006F807463800AAD038462E
S315080032A0BDE8F0872DE9F047044689462768266970
S315080032B020364FF00008B6F5001F01D3C4F8188071
S315080032C0A06910B1F10503D047E00420BDE8F087F6
S315080032D0401CA061616929B17889401E10EA562F01
S315080032E008D03AE03889B0EB561F36D8C4F81880AB
S315080032F00420EBE7204601F03BF90546012D01D8ED
S315080033000220E3E7681C16D0B869A8421FD8B9F1AD
S31508003310000F12D020466169FFF75EFD054685B1AC
S31508003320012D10D0681C10D029463846FFF723FF18
S3150800333068B10120CAE70120C8E7C4F8188004204C
S31508003340C4E70720C2E70220C0E70120BEE765619F
S3150800335029463846FFF7EAFCA0612661C6F308004D
S3150800336038443430E0610020B0E72DE9F0470546DF
S315080033708A460427D5F80090FF26B0464AE0484614
S3150800338001F05EFB0746380047D1E869047884B146
S31508003390C17A01F03F01A971E52C08D02E2C06D080
S315080033A021F02002082A06D00022524505D0FF2621
S315080033B020E0042731E00122F7E70F2901D02EBBD0
S315080033C020E0610606D590F80D8004F0BF04264675
S315080033D02969E962B4420BD1417B414508D1D9F844
S315080033E00C200146104601F045FB08B1761E00E0A8
S315080033F0FF26F6B200212846FFF754FF0746380095
S3150800340008D00AE001F04EFE404506D04FF0FF30E6
S31508003410E86202E0A9690029B1D10FB10020A861CC
S315080034203846BDE8F0872DE9FE430446266894F839
S315080034302B0010F0A00F02D00620BDE8FE8300275F
S31508003440F06800E07F1C30F817100029FAD1D4E99B
S315080034500912206A8DE807009DF80B0004F1200880
S31508003460C00718D0402084F82B0001252B46694652
S315080034704046F26801F02AF82046FFF7AAFE10B97E
S315080034806D1C642DF2D3642D0FD00428D5D19DF878
S315080034900B0084F82B009DF80B00800707D50C3726
S315080034A00D20B7FBF0F77F1C02E00720C5E70127D0
S315080034B039462046FFF73AFE05464FF001093DBB5F
S315080034C07F1E25D02069794200EB4111204600F085
S315080034D068F8054628001BD1404601F0E3FD804602
S315080034E03046A16901F0ACFA0546280010D1FAB2B7
S315080034F0E1694346F06801F0E1FB86F80490002193
S315080035002046FFF7CFFE0546280001D17F1EE7D1EA
S31508003510DDB93046A16901F093FA0546280014D1B1
S3150800352054F81C0F2021FCF73AFF206861680160F7
S31508003530A1684160A1890181A17B8172E07B216834
S3150800354000F01800087386F80490284675E72DE9F8
S31508003550F041044625682669E16A481C0DD02046D4
S3150800356000F01FF800281AD1E5274FF00108284671
S31508003570A16901F065FA78B901E00020F2E7E1698E
S315080035800F7085F804802169B14205D200212046D2
S31508003590FFF788FE0028EAD0042800D10220BDE8FB
S315080035A0F0812DE9F04106460D463768B5F5001F4E
S315080035B001D2E80602D00220BDE8F0813561B46880
S315080035C01CB93878032800D3BC6A1CB178894FEA3D
S315080035D040281AE03889B0EB551F01D80220EBE7DE
S315080035E0B86AB06118E02146304600F0C1FF0446CB
S315080035F0601C06D0022C02D3B869A04203D8022068
S31508003600DAE70120D8E7A5EB08054545EBD22146C0
S315080036103846FFF78BFBB0617461B06948B100EBBF
S315080036205520B061C5F3080038443430F0610020F5
S31508003630C2E70220C0E700002DE9F843002802D0BF
S315080036400120BDE8F883DFF81C8198F800008007A0
S3150800365002D598F80000F4E701F054FA42494FF40D
S315080036608050486100250021084601F041FC0128E8
S3150800367064D1FFF729F800F57A764FF4D57108205A
S3150800368001F036FC012808D00021A92001F030FC01
S31508003690012839D80225A9243BE000246F46FF20DB
S315080036A001F0CEFD3855641CE4B2042CF7D39DF81E
S315080036B00200012842D19DF80300AA283ED14407FA
S315080036C0FFF702F8B04205D22146A92001F010FC06
S315080036D00028F5D1FEF7F8FFB0422FD200213A2094
S315080036E001F006FC50BB0024FF2001F0A9FD385567
S315080036F0641CE4B2042CF7D39DF80000400601D5FB
S315080037000C251BE0042519E00125012401E0FDF73D
S31508003710D2F8FEF7D9FFB04205D20021204601F0C3
S31508003720E7FB0028F3D1FEF7CFFFB04205D24FF4EE
S315080037300071102001F0DCFB00B10025C8F8045028
S31508003740FFF7EAFC45B198F8000020F0010088F878
S31508003750000001F063FC01E001F0CCF998F80000E4
S315080037606FE7000000000020000C01407FB51546F9
S31508003770002802D0042004B070BD784E3078C00707
S3150800378001D00320F7E701240F2971D2DFE801F001
S31508003790080EE14FE1E1E1E1E1E1A1A5B1BDCF000C
S315080037A001F092FB002800D00024D3E00021092074
S315080037B001F09EFB0028F8D11021684601F013FBA2
S315080037C00028F2D09DF800100120B0EB911F0DD112
S315080037D09DF809109DF8082001EB02229DF80710B4
S315080037E000EB01401044800228601EE09DF80500A9
S315080037F09DF80A1000F00F0000EBD1109DF8091093
S3150800380001F0030100EB41009DF808109DF8072020
S31508003810890901EB82019DF8062002F0030201EBFB
S315080038208221491CC01F81402960002492E030791A
S3150800383040071ED500218D2001F05AFB002816D11D
S31508003840FF2001F0FDFC1021684601F0CCFA0028A3
S315080038500DD03024FF2001F0F3FC641EE4B2002CE6
S31508003860F8D19DF80A00010910208840286071E007
S315080038706FE00021092001F03BFB00286AD11021E6
S31508003880684601F0B0FA002864D03079800710D570
S315080038909DF80A009DF80B108006400E00EBD1102B
S315080038A09DF80D10FF22401C02EB911188402860FC
S315080038B00DE09DF80B008107C90E01EB50109DF82D
S315080038C00A10401CC1F38401491C4843286000249F
S315080038D040E03079287000243CE00021092001F0FE
S315080038E007FB18BB1021284601F07DFAF0B1002429
S315080038F030E000210A2001F0FBFAB8B91021284669
S3150800390001F071FA90B1002424E000213A2001F078
S31508003910EFFA58B90024FF2001F092FC2855FCF76D
S31508003920CAFF641CE4B2042CF5D3002412E03079F3
S3150800393040070FD500218D2001F0DAFA50B9FF2093
S3150800394001F07EFC4021284601F04DFA10B1002412
S3150800395000E00424FFF7E0FB20460CE70000002007
S3150800396070B50D4611461C46002806D12CB11B48D9
S315080039700278D20703D0032070BD042070BD0079F9
S31508003980000700D449024FF40076012C04D0122017
S3150800399001F0AEFA58B119E0112001F0A9FAA8B958
S315080039A03146284601F01FFA80B100240EE0314660
S315080039B0284601F018FA28B105F50075FCF77BFFD3
S315080039C0641EF4D100210C2001F092FAFFF7A4FB43
S315080039D00CB1012070BD002070BD00000000002061
S315080039E0002801D001207047014800787047000080
S315080039F00000002070B50D4616461C46002806D164
S31508003A002CB122480178C90703D0032070BD0420D1
S31508003A1070BD0178490701D5022070BD40680107CD
S31508003A2000D47602012C0CD010F0060F03D02146E4
S31508003A30972001F05DFA3146192001F059FA60B174
S31508003A401CE03146182001F053FAB8B9FE21284681
S31508003A5001F016FC90B1002410E0FC21284601F084
S31508003A600FFC28B105F50075FCF725FF641EF4D197
S31508003A70FD21002001F004FC00B90124FFF74CFBEE
S31508003A800CB1012070BD002070BD000000000020B0
S31508003A9038B50446204600F0C5FA002807D169461D
S31508003AA0204601F09AFB002801D10021216038BD8B
S31508003AB02DE9FC410746904600253C464E1E11E07E
S31508003AC06B46012201A9404600F0DBF9009801285F
S31508003AD00AD19DF804000D2804D004F8010B6D1CCA
S31508003AE00A2801D0B542EBDB0020207015B1384614
S31508003AF0BDE8FC810020FBE72DE9F84F04460D469A
S31508003B006946204601F069FB0746380000D1677C04
S31508003B1017B13846BDE8F88FE068A84203D2217C81
S31508003B20890700D4054660694FF00008C4F8148078
S31508003B304FF001090DB3009949894E024FF0020A68
S31508003B4068B1691E401EB1FBF6F1B0FBF6F2914270
S31508003B5005D3711E884360612D1AA1690CE0A1681E
S31508003B6049B900212046FFF737F90146012905D052
S31508003B70481C07D0A160A16159BB37E084F811A0A1
S31508003B800220C7E784F811900120C3E7AD1B6069DE
S31508003B9030446061207C800706D52046FFF71CF973
S31508003BA0014629B9002516E0204600F0E1FC014649
S31508003BB0481C09D0012903D900988069884207D88A
S31508003BC084F811A00220A5E784F811900120A1E746
S31508003BD0A161B542DAD8606928446061E80505D074
S31508003BE00098FFF7A3F8F8B100EB5528E16860697B
S31508003BF0884204D9E060217C41F040012174C00567
S31508003C0028D0E269424525D0207C04F12805000623
S31508003C1012D50098012329464078FFF7EBFE38B104
S31508003C2084F81190012075E784F811A0022071E745
S31508003C30207C00F07F0020740098012342464078DB
S31508003C402946FFF78DFE18B184F81190012061E727
S31508003C50C4F81C8038465DE737B582B01546039828
S31508003C60019001A800F07DFD002802DA0B2005B0BE
S31508003C7030BD0B4B53F82010002411B143F82040F7
S31508003C800C70029919B148700C7043F820102DB1C8
S31508003C90002202A903A800F0AFFDE8E70020E6E746
S31508003CA0500000202DE9F7438EB00546002D0BD0B5
S31508003CB002F03F06324601A90FA800F09DFD044612
S31508003CC04FF0000824B1C0E0092011B0BDE8F08328
S31508003CD00198029002A80F9900F0BBFB0446200049
S31508003CE004D19DF83300000600D5062416F01C0FF3
S31508003CF04AD044B1042C03D102A8FFF794FB04462A
S31508003D0046F0080609E09DF80E0010F0110F01D0E4
S31508003D10072402E0700700D50824A4BB30073FD566
S31508003D204D4F099839460E3001F0B0F909983946D1
S31508003D30163001F0ABF90999019800F032FD0746F3
S31508003D4009992020C87200220999019801F08AF978
S31508003D50099800211C3001F099F901980121017197
S31508003D608FB1D0F830900022394602A801F06FF8DA
S31508003D700446200014D14946019800F061FE044625
S31508003D8001987F1E07610BE054B99DF80E00C10625
S31508003D9001D5042404E0B10702D5C00700D00724E2
S31508003DA044B9300701D546F040060198006B2862F1
S31508003DB009986862ECBB0999019800F0F2FCA860C2
S31508003DC009981C3000F000FDE86001982860019809
S31508003DD0C088A8802E7485F81180C5F81C80C5F89F
S31508003DE0148005F128004FF400718146FCF7F9FAB2
S31508003DF0B0062AD5EE68E6B16E6101984089470299
S31508003E00A9680AE0284600F0B3FB0146012900D854
S31508003E100224481C00D10124F61B0CB9BE42F1D875
S31508003E20A96134B9F00510D00198FEF77FFF88B173
S31508003E3000E00AE000EB5622EA61019801234946B0
S31508003E404078FFF78DFD00B101240CB1C5F800805C
S31508003E5020463AE70224F8E70000215410B594B04A
S31508003E60044601A800F0B6FF03E0641C01A800F0B0
S31508003E7078FF21780029F8D101A800F096FF14B040
S31508003E8010BD2DE9FC5F04460F46164698460020ED
S31508003E90C8F800006946204601F09FF9002812D1AB
S31508003EA0607C00280FD1207CC0070BD06169E068D0
S31508003EB0401A864200D9064604F128004FF0010947
S31508003EC001908BE00720BDE8FC9F6069C1056DD1B4
S31508003ED000994989491E01EA502ABAF1000F0ED104
S31508003EE040B12046A16900F043FB022804D2022013
S31508003EF06074E8E7A068F8E7411C1CD0A061A169D6
S31508003F000098FEF713FFD0B100EB0A0B750A55B3FC
S31508003F1000980AEB050241898A4201D9A1EB0A05F4
S31508003F2040782B465A463946FFF71AFD50B184F8B1
S31508003F3011900120C7E784F811900120C3E70220F9
S31508003F406074C0E7207C00060BD5E069A0EB0B0087
S31508003F50A84206D207EB40204FF400720199FCF7FD
S31508003F609FF96D0230E0E2695A451DD0207C0006B3
S31508003F700ED50098012301994078FFF73BFD18B14B
S31508003F8084F8119001209EE7207C00F07F002074C1
S31508003F90009801235A4640780199FFF7E1FC18B1C9
S31508003FA084F8119001208EE7C4F81CB0A08AC0F3EB
S31508003FB00800C0F50075B54200D935460119283103
S31508003FC02A463846FCF76CF9761BD8F800002844D0
S31508003FD0C8F800002F44606928446061002E7FF409
S31508003FE074AF00206FE733B58DB00D46002201A9E6
S31508003FF00DA800F001FC044684B901A80D9900F04B
S3150800400028FA044654B99DF82F00000601D506245F
S3150800401004E01DB1294601A800F00CFB0FB02046AC
S3150800402030BD0000F8B504466946204601F0D5F8CB
S3150800403000280ED1217C4A060BD508060ED5009815
S31508004040E2690123407804F12801FFF7D3FC08B19F
S315080040500120F8BD207C00F07F002074144E216AF0
S31508004060009800F0EDFC0028F3D1656AE87A40F084
S315080040702000E8722946A268206800F0F3FF05F1DF
S315080040801C00E16801F002F8314605F1160000F05F
S31508004090FDFF002105F1120001F000F8009801214A
S315080040A0017101F00DF8217C01F0BF012174F8BD02
S315080040B00000215431B59AB00025022219A91AA880
S315080040C000F09AFB0446ECBB19980D900DA81A99B6
S315080040D000F0BFF90446ACBB9DF85F00000601D5A9
S315080040E0062404E09DF83A00C00700D00724DCB98E
S315080040F01499199800F055FB05469DF83A00C00634
S3150800410012D5199801900395002101A8FFF749FADD
S3150800411004464CB9002101A8FFF727F9044604B95B
S315080041200724042C00D1002464B90DA8FFF70FFA60
S31508004130044634B92DB1002229460DA800F087FEA1
S31508004140044600E004E01CB9199800F0B9FF0446DB
S315080041501BB0204630BD2DE9FC5F04460F461646C7
S3150800416098460020C8F800006946204601F035F850
S31508004170002806D1607C002803D1207C800702D461
S315080041800720BDE8FC9F6069811900D3C64304F186
S3150800419028004FF001090190A5E06069C1057DD1AD
S315080041A000994989491E01EA502ABAF1000F1ED121
S315080041B068B12046A169FEF70FFE00286FD00128D6
S315080041C00DD0411C0ED0A061A16879B10FE0A0689E
S315080041D00028F2D100212046FEF7FEFDEDE7022079
S315080041E06074CEE784F811900120CAE7A060207CAD
S315080041F000060FD50098E269012340780199FFF778
S31508004200F9FB18B184F811900120BAE7207C00F078
S315080042107F002074A1690098FEF788FDB0B100EB15
S315080042200A0B750A3DB300980AEB050241898A42D2
S3150800423001D9A1EB0A0540782B465A463946FFF7BD
S31508004240D9FB30B184F8119001209AE702206074F6
S3150800425097E7E069A0EB0B00A8420AD207EB4021DA
S315080042604FF400720198FCF71BF8207C00F07F00E1
S3150800427020746D0228E0E069584511D0E16860694C
S3150800428088420DD2009801235A4640780199FFF7D3
S3150800429067FB28B184F81190012072E702E025E057
S315080042A0C4F81CB0A08AC0F30800C0F50075B54272
S315080042B000D93546204428302A463946FBF7F0FF10
S315080042C0207C40F080002074761BD8F80000284433
S315080042D0C8F800002F44606928446061E168884294
S315080042E000D80846E060002E7FF457AF207C40F0E7
S315080042F040002074002044E710B50022074B8028B0
S3150800430001D2024608E0A1F58074B53C04D1FF2825
S3150800431002D8803833F81020104610BDF253000832
S3150800432010B5024600200C4B802A01D290B210BD6F
S31508004330B2F5803FFBD2A1F58074B53C02D010BD22
S31508004340401C80B2802803D233F810109142F7D16E
S315080043508030C0B210BD0000F253000830B5B0F589
S31508004360803F1FD280B2B0F5805F01D21E4900E0BF
S315080043701E4931F8022B002A14D0904212D331F884
S31508004380023B1C0ADBB2D518854228D9092C09D26A
S31508004390DFE804F005090F1215181B1E2100801A04
S315080043A031F8100030BD811A01F00101401A80B2BF
S315080043B030BD103880B230BD203880B230BD3038BC
S315080043C080B230BD1A3880B230BD083080B230BDF8
S315080043D0503880B230BDA0F5E35080B230BD002C15
S315080043E0C7D101EB4301C4E7F2540008E4560008BC
S315080043F02DE9FF4106460D4600213046FEF72CFC06
S31508004400022803D0032821D2002D1FD000246F468E
S3150800441006EB041000F5FD7000F0D6F947F8240005
S31508004420641C042CF4D30DB16C1E00E0002457F86C
S31508004430241019B13046FEF70FFC00E00320002DCA
S3150800444004D1022802D3641C042CF0D304B0BDE8BE
S31508004450F08173B50446256801E0401C0190019877
S3150800446001782F29F9D05C29F7D00020A06001989F
S315080044700078202807D2802084F82B0000212046C7
S31508004480FFF78FF87CBD01A92046FEF71DFD002821
S31508004490F8D12046FEF79DFE94F82B1028B1042883
S315080044A0F0D14907EED405207CBD4907FCD4A07994
S315080044B0C00601D405207CBD208AC0F30800411936
S315080044C03431284600F06DF9A060DCE72DE9FC419F
S315080044D00646086830604868706008893081887ABE
S315080044E0B072052B11D921480CE0921C00241D46F8
S315080044F00B4665F35F034908DD0300D54340641C9A
S31508004500102CF4D311880029EFD107256F4603F044
S315080045100F0130311B09392901D9C91DC9B22846ED
S315080045206D1E39540DB1002BF1D17E20785500242B
S31508004530A5F1010806E0FEF7E3FD10B1444506D0F3
S31508004540641C641CAC4202D2305D2028F3D1082DCD
S3150800455003D228466D1C385C00E020202146641CE6
S315080045607054082CF3D3BDE8FC810000211001002B
S315080045702DE9F0470D460468022D02D3A069A8422A
S3150800458001D8012609E04FF0FF362078012807D028
S3150800459002282CD003283AD001263046BDE8F087F9
S315080045A005EB5507606A00EB5721204600F048FAEC
S315080045B00028F2D1C7F30800204407F1010890F853
S315080045C03490606A00EB5821204600F039FA00283A
S315080045D0E3D1C8F30800204490F8340049EA0020E3
S315080045E0E90701D00609D8E7C0F30B06D5E7606AE4
S315080045F000EB1521204600F023FA0028CDD1E8B2B9
S3150800460004EB4000343000F0EAF80646C5E7606A75
S3150800461000EBD511204600F013FA0028BDD140F270
S31508004620FF1000EA85002044343000F0CDF820F071
S315080046307046B2E72DE9F04706460C46D6F800A0C4
S315080046404FF0000884F81680B06900287ED0F06A1A
S31508004650401C26D00025A946002717E0494609F13F
S31508004660010930F8110037B9A0F55841B1F5006FC6
S3150800467001D207460AE06119C5F1FF02163140EA80
S31508004680074000F055FB80B105440027DAF80C0016
S3150800469030F819100029E1D107B10025601980F812
S315080046A01680002001462E2316E00025F4E7F5695A
S315080046B00246401CAA5C202A0ED0052A00D1E52213
S315080046C0092805D10C2903D20D462544491C6B72CD
S315080046D00D462544491C6A720B28E8D3601880F8F1
S315080046E00980A07D28BB19B100210A46082314E0D9
S315080046F03F200121A07514E02E2800D11023A0F137
S315080047004105192D05D8F5692D7B1D4201D02030AC
S3150800471080B26518A875521C491CA018407A002852
S31508004720EAD1601880F81680F069007B08B984F829
S315080047300980F069C07A00F03F002072F0691C30E9
S3150800474000F042F82060F069163000E007E000F05B
S3150800475046F8E080F069183000F041F8A080BDE81E
S31508004760F08730B505464FF0FF3029680C46002C17
S3150800477008D011F8012B202A01D33A2AF9D13A2A6E
S3150800478001D0002030BD01232278303A092A03D807
S31508004790A41C8C4200D11346012BF3DA1846296073
S315080047A030BD70B506460D4605F11A0000F017F83B
S315080047B004463078032805D105F1140000F00FF8F7
S315080047C044EA0044204670BDC178827842EA012155
S315080047D0427842EA0121007840EA01207047417890
S315080047E0007840EA01207047FDF7C2FBFBF7E0FEC0
S315080047F0FBF7EFFEFCE700002DE9F0410D461646F3
S315080048004FF00008C5F80080FFF7ABFF002802DA72
S315080048100B20BDE8F081854951F8204094B12C6001
S3150800482006F0FE05207820B16078FFF7D9F8C107B1
S315080048300AD084F800806078FEF7FEFEC1070AD029
S315080048400320E6E70C20E4E71DB1400701D50A205E
S31508004850DFE70020DDE71DB1400701D50A20D8E7CC
S3150800486000212046FFF7C4FD042803D0022803D3FD
S315080048700D20CEE70120CCE7266B04F13F00FFF7B9
S31508004880AEFFB0F5007F01D00D20C2E704F14A0063
S31508004890FFF7A5FF18B904F15800FFF795FFE06187
S315080048A094F84470E770012F03D0022F01D00D2031
S315080048B0AFE7474394F84100608110B1411E0842B2
S315080048C001D00D20A5E704F14500FFF788FF2081F8
S315080048D0000701D00D209CE704F14700FFF77FFF92
S315080048E00546280004D104F15400FFF76DFF05467C
S315080048F004F14200FFF773FF014639B12389C8194D
S3150800490000EB1312954203D20D2082E70D2080E7B3
S31508004910A81A6589B0FBF5F060B30025DFF810C169
S31508004920604500D803254FF6F57C604500D802257A
S3150800493040F6F57C604500D80125EDB1801CA061E4
S315080049402662314461623244E262032D16D043B3D3
S315080049503944A162022D26D000F0010100EB400087
S3150800496001EB5000E16900F2FF10B1EB502F1CD2A9
S315080049700D204EE70D204CE70D204AE704F15E00B6
S31508004980FFF72DFF08B10D2043E7208908B10D2058
S315080049903FE704F16000FFF717FFA062A0698000F7
S315080049A0E0E70D2035E74000DCE74FF0FF306061B7
S315080049B0206180206071032D2CD104F16400FFF77B
S315080049C00EFF012826D1711C204600F039F808BBD5
S315080049D084F8058004F23220FFF701FFA0F52A418A
S315080049E0553917D104F13400FFF7EEFE1149884214
S315080049F010D104F50670FFF7E7FE0F49884209D182
S31508004A0004F50770FFF7E0FE606104F50870FFF72C
S31508004A10DBFE206125700549091F0888401C0880AF
S31508004A20E0800648E0600020F3E600005000002021
S31508004A30F5FFFF0F5252614172724161860E0020E6
S31508004A4070B504460E460025206BB04210D02046AD
S31508004A5000F07AFB05465DB960780123324604F119
S31508004A603401FEF77DFF10B14FF0FF3601252663AE
S31508004A70284670BD2DE9F04780460F4607F11A0013
S31508004A80FFF7ADFE10B10020BDE8F087387820F0BA
S31508004A904000401E00EB800101EBC0040126002502
S31508004AA0DFF84C904FF6FF7A19F805003844FFF7FF
S31508004AB096FE4EB1FF2C01D90020E5E721460646B1
S31508004AC0641C28F8110003E0504501D00020DBE7FC
S31508004AD06D1C0D2DE8D33878400607D536B1FF2C66
S31508004AE001D90020D0E7002028F814000120CBE7E0
S31508004AF0645300080248017841F0010101707047CB
S31508004B000000002030B591B02748816941F00801BE
S31508004B108161816901F008010191C16941F480410F
S31508004B20C161C06900F480400190204802900120CC
S31508004B30039002200490002405941D4D02A92846DE
S31508004B40FDF790FAA91429611A49029109210391DE
S31508004B5003210491059402A92846FDF783FA16490C
S31508004B6002910420039002A92846FDF77BFA0794D0
S31508004B704FF48270089009940A940B9468150C9067
S31508004B8038200D900E940F94072010900B4C07A90F
S31508004B902046FDF723FB216841F04001216000F023
S31508004BA0EBF911B030BD00000010024010001004EF
S31508004BB0000C0140A000A00440004004003800405A
S31508004BC02DE9F04704460D4617460226022D71D3F5
S31508004BD0A069A8426ED920784FF0010A012804D0AE
S31508004BE002283AD0032865D14AE005EB5508606AE1
S31508004BF000EB58212046FFF723FF0646300059D11F
S31508004C00C8F30800204408F101093430E90704D044
S31508004C100178FAB262F31F1100E03946017084F890
S31508004C2004A0606A00EB59212046FFF709FF0646F3
S31508004C3030003FD1C9F3080020443430E90702D0D8
S31508004C40C7F3071105E00178C7F3032201F0F00165
S31508004C501143017084F804A02CE0606A00EB15216A
S31508004C602046FFF7EDFE0646300023D1E8B204EBF6
S31508004C704000B9B2343000F011FA84F804A019E003
S31508004C80606A00EBD5112046FFF7DAFE06463000CB
S31508004C9010D140F2FF1000EA850020443430054662
S31508004CA0FFF792FD67F31B000146284600F0EEF970
S31508004CB084F804A03046BDE8F08700002DE9F05FCF
S31508004CC081460E46904673730F20F07200203073AB
S31508004CD0002106F11A0000F0E1F9A8F1010000EB45
S31508004CE0800101EBC00500242746DFF840B04FF6E7
S31508004CF0FF7A544503D028466D1C39F810401BF836
S31508004D0007002146304400F0C9F904B954467F1C0F
S31508004D100D2FEED3544502D039F8150008B948F0DE
S31508004D20400886F80080BDE8F09F0000645300083C
S31508004D3070B50C46154640F2B511FFF7F1FAFF2893
S31508004D4008D9022D01D2002070BD010A21706070B9
S31508004D50022070BD18B115B12070012070BD002069
S31508004D6070BDF8B504460F460A2F03D10D2120461B
S31508004D70FFF7F7FF6068002816DBA668451C204485
S31508004D8007733C2D0DDB6B462A4604F10C0120689F
S31508004D90FFF7E1F90098A84201D1002501E04FF09C
S31508004DA0FF356560761CA660F8BD38B504466268AE
S31508004DB0002A0CDB6B4604F10C012068FFF7CBF9DF
S31508004DC028B960680099884201D1A06838BD4FF0BB
S31508004DD0FF3038BD70B505460C464C212846FBF712
S31508004DE000FB2C6070BD2DE9F04104460E46FDF728
S31508004DF06BFC00F16407FF2000F022FA0546FBF77A
S31508004E005AFDFF2D03D1FDF75FFCB842F3D3FE2D03
S31508004E1002D00020BDE8F081651C204600F010F89D
S31508004E206C1C284600F00CF8FBF745FDB61EF3D1BE
S31508004E30FF2000F005FAFF2000F002FA0120E9E75A
S31508004E4010B50446FF2000F0FBF9207010BD2DE9CF
S31508004E50F0410E46074611463C68022E02D3A06969
S31508004E60B04202D80220BDE8F08131B14FF0FF32DE
S31508004E702046FFF7A5FE0028F5D131463846FFF74C
S31508004E8077FB0546280018D0012D18D0681C18D0C5
S31508004E90002231462046FFF793FE0028E3D1D4E9E5
S31508004EA00510821E914205D2491C6161617941F063
S31508004EB0010161712E46B042DFD80020D3E70220F7
S31508004EC0D1E70120CFE7000010B508494FF480501C
S31508004ED04861FF2000F0B4F900F09AF908B1012002
S31508004EE010BDFEF719F9002010BD0000000C0140A6
S31508004EF070B504460D46200607D504F07F04002148
S31508004F003720FFF7F5FF01281AD8FEF705F9FFF74E
S31508004F10DBFFA0B144F0400000F092F9280E00F043
S31508004F208FF9C5F3074000F08BF9C5F3072000F0A9
S31508004F3087F9E8B200F084F9012014B102E0FF20F5
S31508004F4070BD9520082C00D1872000F079F90C2C2B
S31508004F5002D1FF2000F074F90A24FF2000F070F94E
S31508004F600546FBF7A8FC290603D5641E14F0FF04C2
S31508004F70F3D1284670BD00002DE9F04385B0DFF86F
S31508004F8090904FF48051C9F81010224F00970121D4
S31508004F900191022002904FF00008CDF80C80694676
S31508004FA04846FDF75FF84FF40041C9F81010002491
S31508004FB0194EFDF789FB00F1640503E0FDF784FB54
S31508004FC0A84204D8B068C0F340000028F6D0FF20F5
S31508004FD03073FDF779FB00F1640503E0FDF774FB18
S31508004FE0A84204D8B068C0F300000028F6D0641CB4
S31508004FF00A2CDED300970920019003200290CDF8F1
S315080050000C8069464846FDF72DF805B0BDE8F083E3
S31508005010000C0140800080040038004010B58AB0BA
S315080050200F4C206820F040002060002100914FF4CA
S3150800503082700190029103910491601505900820F1
S315080050400690079108910720099069462046FDF7C2
S31508005050C5F8206840F0400020600AB010BD000086
S315080050600038004070B506460C461546A9B204F14C
S315080050701A0000F013F83078032806D1290C04F139
S315080050801400BDE8704000F009B870BD0170090A47
S315080050904170090A8170090AC17070470170090ACE
S315080050A041707047014600200B22430803EBC010ED
S315080050B011F8013B1844C0B2521EF6D170470000E1
S315080050C070B50446204600F03FF80546ADBB20788B
S315080050D003282BD16079012828D1410204F1340034
S315080050E00646FBF77EF94AF6552104F23220FFF709
S315080050F0D5FF13493046FFF7C9FF124904F5067074
S31508005100FFF7C4FF04F507706169FFF7BFFF04F5F1
S3150800511008702169FFF7BAFF226A521C2263607879
S3150800512001233146FEF766FC002060710022607894
S315080051301146FEF71BFB00B10125284670BD00008D
S31508005140525261417272416170B504460025207958
S31508005150002809D004F13401607801230E46226B39
S31508005160FEF748FC10B10125284670BD00202071C5
S31508005170616A206B421AE1698A42F5D2E278022A0C
S31508005180F2D14218607801233146FEF733FCEBE78B
S315080051902DE9F0410646356815F8014B2046FDF71E
S315080051A0AFFF4FF0FF3840B115F8017B3846FDF7E1
S315080051B0ADFF70B107EB042084B234B140F2B511EB
S315080051C02046FFF799F804462CB120463560BDE81D
S315080051D0F0814046FBE74046F9E770B504460E46BF
S315080051E00925002C0DD0206858B1017849B1A1884D
S315080051F0C288914205D14078FEF7F2FBC00700D17C
S3150800520000251DB100203060284670BD2068FAE7E9
S3150800521070B5FDF759FA00F5FA75FF2000F010F899
S315080052200446FBF748FBFF2C03D0FDF74DFAA842CE
S31508005230F3D3FF2C01D0002070BD012070BD000003
S315080052402DE9F041002700260C4C2073FDF73CFAA7
S3150800525000F1320507E0FBF72EFBFDF735FAA84209
S3150800526001D9012604E0A068C0F300000028F2D0A6
S315080052700EB9E068C7B23846BDE8F081003800408C
S3150800528070B504460D46FFF7C3FFF0B12846FFF791
S31508005290D7FFFD2D1BD04FF400752078FFF7D0FF00
S315080052A06078A41CFFF7CCFFAD1EF6D1FF20FFF7F0
S315080052B0C7FFFF20FFF7C4FFFF20FFF7C1FF00F07D
S315080052C01F00052803D0002070BD002070BD0120F6
S315080052D070BD000010B500290AD00878002807D04C
S315080052E005487844FBF7B0F8002801D0002010BD27
S315080052F00248784410BD0000DE040000D604000011
S315080053000000000000000000010203040607080967
S3150800531000000000010203042F64656D6F70726F50
S31508005320675F6F6C696D65785F73746D3332703162
S3150800533030332E73726563004F70656E424C5400AD
S3150800534005020602060307030803090309040A04FB
S315080053500B040C040C050D050E050F050F061006AB
S315080053601007100801030507090E10121416181C59
S315080053701E809A45418E418F804545454949498E4B
S315080053808F9092924F994F555559999A9B9C9D9EED
S315080053909F41494F55A5A5A6A7A8A9AAABACADAEEE
S315080053A0AFB0B1B2B3B4B5B6B7B8B9BABBBCBDBE87
S315080053B0BFC0C1C2C3C4C5C6C7C8C9CACBCCCDCE77
S315080053C0CFD0D1D2D3D4D5D6D7D8D9DADBDCDDDE67
S315080053D0DFE0E1E2E3E4E5E6E7E8E9EAEBECEDEE57
S315080053E0EFF0F1F2F3F4F5F6F7F8F9FAFBFCFDFE47
S315080053F0FF00C700FC00E900E200E400E000E50069
S31508005400E700EA00EB00E800EF00EE00EC00C4005D
S31508005410C500C900E600C600F400F600F200FB006D
S31508005420F900FF00D600DC00A200A300A500A72013
S315080054309201E100ED00F300FA00F100D100AA00A4
S31508005440BA00BF001023AC00BD00BC00A100AB0031
S31508005450BB009125922593250225242561256225E1
S31508005460562555256325512557255D255C255B253C
S315080054701025142534252C251C2500253C255E25BC
S315080054805F255A25542569256625602550256C25EE
S3150800549067256825642565255925582552255325E8
S315080054A06B256A2518250C25882584258C259025A5
S315080054B08025B103DF009303C003A303C303B5002C
S315080054C0C403A6039803A903B4031E22C603B5039F
S315080054D029226122B1006522642220232123F700B4
S315080054E04822B0001922B7001A227F20B200A02550
S315080054F0A00061001A03E0001703F8000703FF0085
S31508005500010078010001300132010601390110015C
