S01A000064656D6F70726F675F73746D3332663434362E7372656391
S31508004000000002207D4B0008514B0008534B000866
S31508004010554B0008574B0008594B00080000000094
S315080040200000000000000000000000005B4B0008D4
S315080040305D4B0008000000005F4B0008614B00085C
S31508004040CD4B0008CD4B0008CD4B0008CD4B0008E2
S31508004050CD4B0008CD4B0008CD4B0008CD4B0008D2
S31508004060CD4B0008CD4B0008CD4B0008CD4B0008C2
S31508004070CD4B0008CD4B0008CD4B0008CD4B0008B2
S31508004080CD4B0008CD4B0008CD4B0008CD4B0008A2
S31508004090CD4B0008CD4B0008CD4B0008CD4B000892
S315080040A0CD4B0008CD4B0008CD4B0008CD4B000882
S315080040B0CD4B0008CD4B0008CD4B0008CD4B000872
S315080040C0CD4B0008CD4B0008CD4B0008CD4B000862
S315080040D0CD4B00088548000895480008CD4B0008D8
S315080040E0CD4B0008CD4B0008CD4B0008CD4B000842
S315080040F0CD4B0008CD4B0008CD4B0008CD4B000832
S31508004100CD4B0008CD4B0008CD4B0008CD4B000821
S31508004110CD4B0008CD4B0008CD4B0008CD4B000811
S31508004120CD4B0008CD4B0008CD4B0008CD4B000801
S31508004130CD4B00080000000000000000CD4B000831
S31508004140CD4B0008CD4B0008CD4B0008CD4B0008E1
S31508004150CD4B0008CD4B0008CD4B0008CD4B0008D1
S31508004160CD4B0008CD4B0008CD4B0008CD4B0008C1
S31508004170CD4B0008CD4B0008CD4B000800000000D1
S3150800418000000000CD4B0008000000000000000001
S31508004190CD4B00080000000000000000CD4B0008D1
S315080041A0000000000000000000000000CD4B0008E1
S315080041B0CD4B0008CD4B0008CD4B0008CD4B000871
S30D080041C0CD4B0008EE11AA55CB
S315080041C810B5054C237833B9044B13B10448AFF33B
S315080041D800800123237010BDB000002000000000F5
S315080041E8507E000808B5034B1BB103490348AFF3D3
S315080041F8008008BD00000000B4000020507E0008BA
S31508004208EFF3108072B6704780F310887047000085
S3150800421853B94AB9002908BF00281CBF4FF0FF3117
S315080042284FF0FF3000F06AB9ADF1080C6DE904CE1D
S3150800423800F006F8DDF804E0DDE9022304B070476B
S315080042482DE9F047089D0C46002B4ED194468C451F
S315080042588646B2FA82F262D94AB1C2F1200391407F
S3150800426820FA03F30CFA02FC194300FA02FE4FEA95
S315080042781C471FFA8CF6B1FBF7F44FEA1E4307FBF7
S31508004288141143EA014304FB06F199420AD91CEBC7
S31508004298030304F1FF3080F01281994240F20F813E
S315080042A8023C6344591A1FFA8EF3B1FBF7F007FB71
S315080042B8101143EA014300FB06F69E420AD91CEB95
S315080042C8030300F1FF3180F0FC809E4240F2F9803A
S315080042D8634402389B1B40EA044000211DB1D340C1
S315080042E80022C5E90032BDE8F0878B4205D90DB131
S315080042F8C5E9000100210846F5E7B3FA83F1002964
S3150800430846D1A34202D39042C0F0F080861A64EBE5
S3150800431803030120002DE6D0C5E90063E3E7002A78
S3150800432840F09080A1EB0C044FEA1C481FFA8CF762
S315080043380121B4FBF8F64FEA1E4308FB164443EA84
S31508004348044307FB06F0984208D91CEB030306F159
S31508004358FF3402D2984200F2CD8026461C1A1FFA6C
S315080043688EF3B4FBF8F008FB104443EA044300FB59
S3150800437807F79F4208D91CEB030300F1FF3402D262
S315080043889F4200F2B0802046DB1B40EA0640A5E7BC
S31508004398C1F120068B4022FA06F71F4320FA06FCCD
S315080043A804FA01F343EA0C03F44000FA01F8380C5E
S315080043B84FEA1349B4FBF0FE1FFA87FC00FB1E44BC
S315080043C849EA04440EFB0CF9A14502FA01F20AD996
S315080043D83C190EF1FF3A80F08480A14540F28180AD
S315080043E8AEF1020E3C44A4EB09041FFA83F9B4FBA8
S315080043F8F0F300FB134449EA044403FB0CFCA44508
S3150800440807D93C1903F1FF3067D2A44565D9023BA1
S315080044183C4443EA0E40A0FB0293A4EB0C049C42DE
S31508004428CE469C4651D34ED055B1B8EB0E0364EB35
S315080044380C0404FA06F6CB401E43CC40C5E90064D2
S31508004448002150E7C2F1200320FA03F10CFA02FC16
S3150800445824FA03F394400C434FEA1C4800FA02FE78
S315080044681FFA8CF7B3FBF8F008FB1031230C43EA64
S31508004478014300FB07F1994208D91CEB030300F135
S31508004488FF362CD299422AD9023863445B1AA4B259
S31508004498B3FBF8F108FB113344EA034401FB07F3BD
S315080044A8A34208D91CEB040401F1FF3613D2A34230
S315080044B811D902396444E41A41EA004139E7044645
S315080044C8F0E6084606E7C845AED2B9EB020E63EB36
S315080044D8070C0138A8E73146EDE7034699E7304661
S315080044E8D4E7D6467FE7634402384DE706462346AF
S315080044F808460FE7023E634430E700BF704700BF2F
S31508004508BFF34F8F0549CA6802F4E062044B1343A8
S31508004518CB60BFF34F8F00BFFDE700BF00ED00E09B
S315080045280400FA050A786D2A01D00020704708B5F4
S315080045381B78042B01D0002008BD4B78022BFAD132
S315080045488B78FF2BF7D1FFF7DBFF10B5144647F238
S315080045583053994205D047F23153994206D0012083
S3150800456810BD00F09CF920800020F9E743F23903D2
S3150800457813800020F4E7000010B582B000F08EF929
S3150800458800F024F80120009000230622014602F0D4
S315080045985DFD074B186003F013FB064C20600649BF
S315080045A803F058FB0549206803F072FB02B010BDFA
S315080045B8D0000020CC000020534500082D450008EF
S315080045C808B500F00DF802F0EBF908BD08B50022A9
S315080045D82021024800F014FD08BD00BF0000024073
S315080045E810B500F05CF90E4B1B68C31AB3F5FA7FD1
S315080045F80CD304460B4B1B784BB90122094B1A708E
S315080046082021094800F0FCFC054B1C6010BD00225F
S31508004618044B1A702021044800F0F2FCF4E700BFA6
S31508004628D8000020D40000200000024080B908B550
S31508004638012906D000224FF48071064800F0E0FCF4
S3150800464808BD01224FF48071024800F0D9FCF7E74B
S31508004658704700BF000002402DE9F0438FB00446BA
S315080046680E4617461D469DF85880DFF8E4900DF16A
S31508004678180CCE46BEE80F00ACE80F009EE80F00FF
S315080046888CE80F00002304934FF4005305930DF1AB
S31508004698040C09F1200393E807008CE80700022CAC
S315080046A83FD8294B04EB8400020103EB0010816C08
S315080046B899500C23436100238361C3610EAB03EB56
S315080046C8860656F8203C43600EAB03EB880353F87E
S315080046D8343C03610EAB03EB850555F8283CC360EB
S315080046E817B9B8F1020F21D0012F24D00023164F8D
S315080046F8A50004EB840607EB0616B360304601F0FE
S3150800470801FA00212046FFF791FF291909014831C6
S31508004718394401220431304601F029FC0FB0BDE8BE
S31508004728F0839C21094801F035FCBAE7A921074816
S3150800473801F030FCD8E7B8F1020F02D04FF48053E5
S31508004748D5E70023D3E700BF00000020A07E0008B5
S31508004758687E000870B504460D4616460121FFF71F
S3150800476865FF04EB840432462946054800EB041025
S3150800477801F0F8F908B1002070BD0120FCE700BF78
S3150800478800000020154B1B7823B1154B1B68586A87
S3150800479880B2704710B5114B01221A7000F02AFD35
S315080047A843000F4C0F4A22600F4AA2FB03239B0BB8
S315080047B8013B63600023A3604FF6FF72E260A361C2
S315080047C8204601F08DF82268136843F00103136048
S315080047D8034B1B68586A80B210BD00BF240100202D
S315080047E8DC000020001400405917B7D110B5002482
S315080047F8012C10D804EB8402074B03EB02138342FF
S3150800480802D00134E4B2F3E700212046FFF70EFF91
S31508004818204603F0B5FA10BD0000002070B5002444
S31508004828012C1BD8264604EB8403134D05EB031508
S31508004838854202D00134E4B2F2E7284601F07AFB51
S3150800484810F0070F0BD006EB8601090148310A4B11
S31508004858194401220431284601F089FB70BD04EB8E
S31508004868840109014831044B1944012204312046C0
S3150800487803F09CFAE7E700BF0000002008B50248E5
S3150800488801F016FA08BD00BF0000002008B5024866
S3150800489801F00EFA08BD00BF50000020704708B5A1
S315080048A800F0DEF908BD0000014A024B9A6070471D
S315080048B80040000800ED00E030B589B000240394F4
S315080048C804940594069407940194144B1A6B42F0C1
S315080048D880021A631A6B02F080020192019A029406
S315080048E81A6B42F001021A631B6B03F00103029369
S315080048F8029B0B4D22464FF49071284600F080FB28
S315080049084FF490730393012304930594069403A91B
S31508004918284600F085FA09B030BD00BF00380240C5
S315080049280000024072B6FEE700B595B034220021B1
S3150800493807A803F05DFA00230293039304930593EB
S3150800494806930093234A116C41F080511164126C46
S3150800495802F080520092009A01931F4B1A6842F49B
S3150800496840421A601B6803F440430193019B0123E4
S3150800497807934FF4A023089302230D934FF480025C
S315080049880E9204220F92B422109211931293139343
S3150800499807A800F017FDB0B900F038FBA8B90F232F
S315080049A8029302230393002304934FF4A053059319
S315080049B84FF480530693052102A800F065FB30B929
S315080049C815B05DF804FBFFF7ADFFFFF7ABFFFFF780
S315080049D8A9FF00BF003802400070004008B5FFF77D
S315080049E863FF00F017F9FFF79FFFFFF765FFFFF76B
S315080049F8C3FDFFF7E5FDFCE700B583B0002100918C
S31508004A080C4B5A6C42F480425A645A6C02F480423F
S31508004A180092009A01911A6C42F080521A641B6C33
S31508004A2803F080530193019B072000F061F903B056
S31508004A385DF804FB003802400268094B9A4200D028
S31508004A48704782B000230193064B1A6C42F0200285
S31508004A581A641B6C03F020030193019B02B070478C
S31508004A68001400400038024010B58AB000230593A8
S31508004A78069307930893099303682F4A934204D029
S31508004A882E4A93422DD00AB010BD002401942C4B0F
S31508004A985A6C42F010025A645A6C02F010020192DB
S31508004AA8019A02941A6B42F001021A631B6B03F00F
S31508004AB801030293029B4FF4C063059302230693EE
S31508004AC8032308930723099305A91E4800F0A8F9A4
S31508004AD822462146252000F01DF9252000F02AF94E
S31508004AE8D1E700240394164B1A6C42F400321A6470
S31508004AF81A6C02F400320392039A04941A6B42F071
S31508004B0801021A631B6B03F001030493049B0C232D
S31508004B18059302230693032308930723099305A9F4
S31508004B28084800F07DF922462146262000F0F2F8CA
S31508004B38262000F0FFF8A6E70010014000440040D0
S31508004B480038024000000240FEE7FEE7FEE7FEE7FF
S31508004B58FEE770477047704708B500F075F808BD56
S31508004B68034AD2F8883043F47003C2F8883070478D
S31508004B7800ED00E0DFF834D00D480E490E4A002350
S31508004B8802E0D458C4500433C4188C42F9D30B4AEB
S31508004B980B4C002301E013600432A242FBD3FFF753
S31508004BA8DFFF03F02DF9FFF719FF70470000022011
S31508004BB800000020B00000207C820008B000002019
S31508004BC8B80A0020FEE7000010B504460E4B1A780E
S31508004BD84FF47A73B3FBF2F30C4A1068B0FBF3F0A0
S31508004BE800F0ACF868B90F2C01D901200AE00022B8
S31508004BF821464FF0FF3000F08DF8054B1C60002069
S31508004C0800E0012010BD00BFA4000020A00000207D
S31508004C18A800002008B50B4B1A6842F400721A60FF
S31508004C281A6842F480621A601A6842F480721A6036
S31508004C38032000F05DF80020FFF7C6FFFFF7DCFE4B
S31508004C48002008BD003C0240034A1168034B1B7844
S31508004C580B441360704700BF28010020A4000020F9
S31508004C68014B1868704700BF28010020002807DB99
S31508004C7800F01F02400901239340024A42F82030F7
S31508004C88704700BF00E100E0002808DB0901C9B247
S31508004C9800F1604000F5614080F80013704700F0A5
S31508004CA80F000901C9B2014B1954704714ED00E009
S31508004CB800B500F00700C0F1070CBCF1040F28BFC7
S31508004CC84FF0040C031D062B0FD9C31E4FF0FF3EE9
S31508004CD80EFA0CF021EA000199400EFA03FE22EAC0
S31508004CE80E0241EA02005DF804FB0023EEE7000025
S31508004CF8074AD36823F4E0631B041B0C000200F47C
S31508004D08E060034343F0BF6343F40033D36070475E
S31508004D1800ED00E010B50446054BD868C0F302203C
S31508004D28FFF7C6FF01462046FFF7AEFF10BD00BFD6
S31508004D3800ED00E008B5FFF799FF08BD0138B0F1A6
S31508004D48807F0BD24FF0E0235861054AF02182F89C
S31508004D5823100020986107221A61704701207047BE
S31508004D6800ED00E070B50446866DFFF779FF94F804
S31508004D783530DBB2022B06D080236365002384F81E
S31508004D883430012070BD05462268136823F01603DF
S31508004D9813602268536923F080035361236CE3B1D7
S31508004DA82268136823F0080313602268136823F03F
S31508004DB80103136023681B6813F0010F11D0FFF76E
S31508004DC84FFF431B052BF5D920236365032084F879
S31508004DD83500002384F83430D4E7A36C002BDFD1E0
S31508004DE8E3E7E26D3F239340B360012384F8353047
S31508004DF8002084F83400C5E790F83530DBB2022B7A
S31508004E0803D08023436501207047052380F8353091
S31508004E180268136823F00103136000207047000036
S31508004E2800230F2B00F2E38070B582B065E0856831
S31508004E384FEA430E032404FA0EF425EA0405CC685F
S31508004E4804FA0EF42C438460446824EA02044A6887
S31508004E58C2F300129A40224342605CE0DC08083438
S31508004E6850F8242003F00705AD004FF00F0E0EFA90
S31508004E7805FE22EA0E0E0A69AA4042EA0E0240F820
S31508004E8824205CE0062200E0002202FA0EF22A43F9
S31508004E980234574D45F82420564A94686FEA0C029E
S31508004EA824EA0C054E6816F4801F01D04CEA04055E
S31508004EB8504CA560E46802EA04054E6816F4001F1B
S31508004EC801D04CEA04054B4CE560646802EA04051F
S31508004ED84E6816F4003F01D04CEA0405454C656057
S31508004EE8246822404D6815F4803F01D04CEA040234
S31508004EF8404C226001330F2B77D801229A400C6860
S31508004F0804EA020C32EA0404F4D14C6804F00304F7
S31508004F18013C012C8BD94A6802F00302032A09D0FE
S31508004F28C4685D000322AA4024EA02048A68AA40E3
S31508004F382243C2604A6802F00302022A8ED0046835
S31508004F484FEA430E032202FA0EF224EA02044A68DA
S31508004F5802F0030202FA0EF2224302604A6812F4C9
S31508004F68403FC7D000220192234A546C44F4804437
S31508004F785464526C02F480420192019A9C08A51C5A
S31508004F881B4A52F8255003F0030E4FEA8E0E0F22DD
S31508004F9802FA0EF225EA0205184A90423FF474AF5F
S31508004FA802F58062904216D002F58062904214D0CB
S31508004FB802F58062904212D002F58062904210D0C3
S31508004FC802F5806290420ED002F5806290423FF464
S31508004FD859AF072259E7012257E7022255E7032264
S31508004FE853E7042251E705224FE702B070BD704720
S31508004FF800380140003C01400038024000000240E9
S315080050080AB18161704709048161704710B582B099
S3150800501800230193194B1A6C42F080521A641B6CD0
S3150800502803F080530193019B154B01221A64FFF77D
S3150800503817FE0446134B5B6813F4803F08D1FFF745
S315080050480FFE001BB0F57A7FF4D9032002B010BD15
S315080050580B4B01225A64FFF703FE0446094B5B68AB
S3150800506813F4003F07D1FFF7FBFD001BB0F57A7F65
S31508005078F4D90320EAE70020E8E700BF0038024031
S3150800508800000E4200700040002800F09B8070B5B2
S315080050980D4604464F4B1B6803F00F038B4208D294
S315080050A8CBB24C4A1370136803F00F038B4240F0D7
S315080050B88B80236813F0020F17D013F0040F04D05F
S315080050C8454A936843F4E0539360236813F0080F3E
S315080050D804D0414A936843F4604393603E4A936810
S315080050E823F0F003A1680B439360236813F0010FBC
S315080050F832D06368012B21D09A1E012A25D9364A4F
S31508005108126812F0020F61D033498A6822F0030246
S3150800511813438B60FFF7A4FD06462F4B9B6803F0E5
S315080051280C036268B3EB820F16D0FFF799FD801B54
S3150800513841F288339842F0D9032042E0264A126899
S3150800514812F4003FE0D101203BE0234A126812F02E
S31508005158007FD9D1012034E01E4B1B6803F00F03EA
S31508005168AB4207D9EAB21B4B1A701B6803F00F0348
S31508005178AB422DD1236813F0040F06D0164A93685C
S3150800518823F4E053E1680B439360236813F0080F90
S3150800519807D0114A936823F46043216943EAC10397
S315080051A8936000F047F80C4B9B68C3F303130B4A4C
S315080051B8D35CD8400A4B18600A4B1868FFF704FDF9
S315080051C8002070BD012070470120FAE70120F8E7A2
S315080051D80120F6E7003C024000380240BC7E000881
S315080051E8A0000020A8000020014B1868704700BFDF
S315080051F8A000002008B5FFF7F7FF044B9B68C3F328
S315080052088223034AD35CD84008BD00BF0038024051
S31508005218B47E000808B5FFF7E7FF044B9B68C3F39D
S315080052284233034AD35CD84008BD00BF0038024061
S31508005238B47E000808B5604B9B6803F00C03082B7E
S3150800524807D00C2B5FD0042B01D05C4808BD5C48FE
S31508005258FCE7594B5A6802F03F025B6813F4800F63
S315080052682CD0554B5868C0F388104FEA401CBCEB45
S31508005278000C6EEB0E0E4FEA8E1343EA9C634FEA58
S315080052888C11B1EB0C0163EB0E03DB0043EA517397
S31508005298C90011EB000C43F10003590200234FEA39
S315080052A84C2041EADC51FEF7B3FF434B5B68C3F376
S315080052B8014301335B00B0FBF3F0C7E73E4B586880
S315080052C8C0F388104FEA401CBCEB000C6EEB0E0EC0
S315080052D84FEA8E1343EA9C634FEA8C11B1EB0C0133
S315080052E863EB0E03DB0043EA5173C90011EB000CAC
S315080052F843F10003990200234FEA8C2041EA9C51A6
S31508005308FEF786FFD1E72C4B5A6802F03F025B6826
S3150800531813F4800F2AD0284B5868C0F388104FEA30
S31508005328401CBCEB000C6EEB0E0E4FEA8E1343EADC
S315080053389C634FEA8C11B1EB0C0163EB0E03DB009F
S3150800534843EA5173C90011EB000C43F100035902F3
S3150800535800234FEA4C2041EADC51FEF759FF164B69
S315080053685B68C3F30273B0FBF3F06FE7124B586838
S31508005378C0F388104FEA401CBCEB000C6EEB0E0E0F
S315080053884FEA8E1343EA9C634FEA8C11B1EB0C0182
S3150800539863EB0E03DB0043EA5173C90011EB000CFB
S315080053A843F10003990200234FEA8C2041EA9C51F5
S315080053B8FEF72EFFD3E700BF003802400024F400AA
S315080053C800127A00002800F0018270B582B00446FF
S315080053D8036813F0010F41D0994B9B6803F00C033F
S315080053E8042B32D0964B9B6803F00C03082B27D066
S315080053F8934B9B6803F00C030C2B59D06368B3F5E1
S31508005408803F5BD0B3F5A02F5ED08D4B1A6822F487
S3150800541880321A601A6822F480221A606368002BA0
S315080054285CD0FFF71DFC0546854B1B6813F4003F47
S3150800543814D1FFF715FC401B6428F5D90320CCE1E5
S315080054487F4B5B6813F4800FD2D07D4B1B6813F42F
S31508005458003F03D06368002B00F0BA81236813F075
S31508005468020F60D0764B9B6813F00C0F4AD0744B2A
S315080054789B6803F00C03082B3FD0714B9B6803F01D
S315080054880C030C2B69D0E368002B75D06D4B0122F1
S315080054981A60FFF7E5FB0546694B1B6813F0020F10
S315080054A861D1FFF7DDFB401B0228F5D9032094E1FB
S315080054B8634B5B6813F4800FA0D0C6E7604A13688D
S315080054C843F480331360A9E75D4B1A6842F48022D7
S315080054D81A601A6842F480321A609FE7FFF7C0FB21
S315080054E80546574B1B6813F4003FB7D0FFF7B8FBC0
S315080054F8401B6428F5D903206FE1514B5B6813F408
S31508005508800FBAD14E4B1B6813F0020F03D0E3681D
S31508005518012B40F05F814A4A136823F0F803216992
S3150800552843EAC1031360236813F0080F49D0636977
S31508005538002B33D0434B0122C3F8802EFFF790FB8C
S3150800554805463F4B5B6F13F0020F3AD1FFF788FB0E
S31508005558401B0228F5D903203FE1394B5B6813F451
S31508005568800F90D1CEE7364A136823F0F8032169ED
S3150800557843EAC1031360D6E7324B00221A60FFF7E5
S315080055886FFB05462E4B1B6813F0020FCBD0FFF7AF
S3150800559867FB401B0228F5D903201EE1294B002288
S315080055A8C3F8802EFFF75CFB0546254B5B6F13F0A7
S315080055B8020F06D0FFF754FB401B0228F5D9032033
S315080055C80BE1236813F0040F76D01D4B1B6C13F000
S315080055D8805F33D100230193194B1A6C42F080522D
S315080055E81A641B6C03F080530193019B0125164B23
S315080055F81B6813F4807F29D0A368012B3AD0052BA2
S315080056083ED00F4B1A6F22F001021A671A6F22F062
S3150800561804021A67A368002B3CD0FFF721FB06464D
S31508005628074B1B6F13F0020F45D1FFF719FB801BB9
S3150800563841F288339842F3D90320CEE00025D6E70D
S315080056480038024000004742007000406B4A136861
S3150800565843F480731360FFF703FB0646674B1B6822
S3150800566813F4807FC8D1FFF7FBFA801B0228F5D907
S315080056780320B2E0624A136F43F001031367C9E7D0
S315080056885F4B1A6F42F004021A671A6F42F001025A
S315080056981A67BFE7FFF7E4FA0646594B1B6F13F07C
S315080056A8020F08D0FFF7DCFA801B41F288339842CC
S315080056B8F3D9032091E0EDB9A369002B00F08C809B
S315080056C84F4A926802F00C02082A54D0022B17D0C7
S315080056D84C4B00221A66FFF7C3FA0446484B1B6868
S315080056E813F0007F45D0FFF7BBFA001B0228F5D94F
S315080056F8032072E0424A136C23F080531364DBE7F5
S31508005708404B00221A66FFF7ABFA05463C4B1B6866
S3150800571813F0007F06D0FFF7A3FA401B0228F5D935
S3150800572803205AE0E369226A1343626A43EA82134A
S31508005738A26A5208013A43EA0243E26A43EA026362
S31508005748226B43EA02732E4A53602E4B01221A66CD
S31508005758FFF786FA04462A4B1B6813F0007F06D122
S31508005768FFF77EFA001B0228F5D9032035E000204A
S3150800577833E0002031E0012B31D0214B5B6803F47C
S315080057888001E26991422CD103F03F02216A8A42DC
S3150800579829D1616A47F6C0721A40B2EB811F24D133
S315080057A803F44031A26A5208013AB1EB024F1ED1FE
S315080057B803F07062E16AB2EB016F1AD103F0E043B5
S315080057C8226BB3EB027F16D1002006E00120704752
S315080057D8012002E0012000E0002002B070BD01208F
S315080057E8FBE70120F9E70120F7E70120F5E70120A3
S315080057F8F3E70120F1E70120EFE700BF007000405A
S3150800580800380240000047420368344A904212D0E2
S31508005818B0F1804F0FD0A2F57C4290420BD002F52A
S315080058288062904207D002F58062904203D002F562
S315080058387842904203D123F070034A681343274AF3
S3150800584890422AD0B0F1804F27D0A2F57C429042E8
S3150800585823D002F5806290421FD002F580629042FA
S315080058681BD002F57842904217D002F57052904242
S3150800587813D002F5806290420FD002F580629042FA
S315080058880BD0A2F59832904207D002F58062904272
S3150800589803D002F58062904203D123F44073CA68A4
S315080058A8134323F080034A69134303608B68C36272
S315080058B80B688362094B984203D003F580639842C4
S315080058C801D10B69036301234361036913F0010FCF
S315080058D803D0036923F00103036170470000014000
S315080058E840B310B5044690F83D30F3B1022384F866
S315080058F83D30214651F8040BFFF786FF012384F84B
S31508005908463084F83E3084F83F3084F8403084F8CE
S31508005918413084F8423084F8433084F8443084F8B7
S31508005928453084F83D30002010BD80F83C30FFF73C
S3150800593883F8DBE701207047026802F10C0353E895
S31508005948003F23F490730C3242E800310029F3D162
S31508005958026802F1140353E8003F23F001031432E6
S3150800596842E800310029F3D1036B012B05D0202327
S3150800597880F84230002303637047026802F10C037B
S3150800598853E8003F23F010030C3242E8003100299F
S31508005998F3D1ECE790F84130DBB2212B01D0022095
S315080059A870478368B3F5805F17D0036A5A1C02628A
S315080059B81A7803685A60C38C9BB2013B9BB2C384AE
S315080059C84BB90268D36823F08003D3600268D368AA
S315080059D843F04003D360002070470369002BE4D1E5
S315080059E8036A1B880268C3F308035360036A023311
S315080059F80362E0E710B504460268136923F44053C6
S31508005A08C1680B431361836802691A4343691A43D9
S31508005A18C3691A430168CB6823F4164323F00C03B9
S31508005A281343CB600268536923F4407381690B43B7
S31508005A3853610368314A934206D002F5806293425D
S31508005A4802D0FFF7D7FB01E0FFF7E4FBE369B3F5FC
S31508005A58004F29D00021031849411B1841F10001BC
S31508005A68C90041EA5371DB00181863684FEA8302D4
S31508005A784FEA937341F10001FEF7CAFB204AA2FBDD
S31508005A8800314909642303FB11031B013233A2FBC6
S31508005A9803235B0903F0F00202EB011203F00F037C
S31508005AA8216813448B6010BD0023021843EB0301D9
S31508005AB8121841F10001C90041EA5271D2001018C2
S31508005AC841F10001626892185B41FEF7A1FB0C4A96
S31508005AD8A2FB00314909642303FB1103DB003233B7
S31508005AE8A2FB03235B095A0002F4F87202EB0112BF
S31508005AF803F00703216813448B60D4E700100140BC
S31508005B081F85EB5160B310B5044690F8413013B3BE
S31508005B18242384F841302268D36823F40053D360D9
S31508005B282046FFF767FF2268136923F49043136139
S31508005B382268536923F02A0353612268D36843F419
S31508005B480053D36000206064202384F8413084F829
S31508005B584230606310BD80F84030FEF785FFD7E70E
S31508005B680120704790F84130DBB2202B10D189B15B
S31508005B7892B101628284C28400234364212280F898
S31508005B8841200168CA6842F08002CA601846704710
S31508005B9802207047012070470120704708B5016840
S31508005BA8CA6822F04002CA60202280F84120FEF71F
S31508005BB81DFE002008BD704708B5806B0023C38505
S31508005BC8C384FFF7F8FF08BD704790F84230DBB288
S31508005BD8222B69D18368B3F5805F4FD0826AB3F503
S31508005BE8805F04D0002B56D10369002B53D1036874
S31508005BF85B681370836A01338362C38D9BB2013B6A
S31508005C089BB2C385002B51D100B583B00268D3680F
S31508005C1823F02003D3600268D36823F48073D36023
S31508005C280268536923F001035361202380F8423040
S31508005C3800234363036B012B33D1002303630268F4
S31508005C4802F10C0353E8003F23F010030C3242E834
S31508005C5800310029F3D103681A6812F0100F06D02C
S31508005C68002201921A6801925B680193019B818D53
S31508005C78FFF7AAFF002003B05DF804FB0269002AB3
S31508005C88ACD1826A03685B68C3F308031380836A26
S31508005C9802338362B1E703685B6803F07F03137016
S31508005CA8A8E7FEF7BBFDE5E7022070470020704726
S31508005CB810B582B0044602681368D068516913F0B3
S31508005CC80F0F09D113F0200F0CD010F0200F09D0B0
S31508005CD82046FFF77AFF16E011F0010115D110F4F6
S31508005CE8907F12D1216B012979D013F0800F03D048
S31508005CF810F0800F40F0148113F0400F03D010F015
S31508005D08400F40F0118102B010BD13F0010F06D004
S31508005D1810F4807F03D0626C42F00102626413F0CB
S31508005D28040F04D019B1626C42F00202626413F0DF
S31508005D38020F04D019B1626C42F00402626413F0CF
S31508005D48080F07D010F0200F00D119B1626C42F085
S31508005D5808026264626C002AD5D013F0200F02D0BC
S31508005D6810F0200F29D123685B6903F04003626CA1
S31508005D7812F0080F00D163B32046FFF7DDFD23684C
S31508005D885B6913F0400F20D0226802F1140353E828
S31508005D98003F23F04003143242E800310029F3D1CA
S31508005DA8E36B73B1624A1A65E06BFFF725F80028BA
S31508005DB8A9D0E06B036D9847A5E72046FFF705FFCE
S31508005DC8D1E72046FFF7F7FE9DE72046FFF7F3FEE3
S31508005DD899E72046FFF7EFFE0023636493E713F07D
S31508005DE8100F82D010F0100F3FF47FAF00230193F5
S31508005DF81368019353680193019B536913F0400F85
S31508005E0852D0E26B13685B689BB2002B3FF47BAFFA
S31508005E18A18D99427FF677AFE385D369B3F5807F7D
S31508005E2837D0226802F10C0353E8003F23F4807345
S31508005E380C3242E800310029F3D1226802F1140332
S31508005E4853E8003F23F00103143242E800310029E1
S31508005E58F3D1226802F1140353E8003F23F0400304
S31508005E68143242E800310029F3D1202384F842305D
S31508005E7800232363226802F10C0353E8003F23F04A
S31508005E8810030C3242E800310029F3D1E06BFEF723
S31508005E9869FF02236363A18DE38D9BB2C91A89B290
S31508005EA82046FFF791FE2EE7A18DE38D9BB2C91A0E
S31508005EB889B2E38D9BB2002B3FF425AF00293FF446
S31508005EC822AF226802F10C0353E8003F23F49073CB
S31508005ED80C3242E800300028F3D1226802F1140394
S31508005EE853E8003F23F00103143242E80030002843
S31508005EF8F3D1202384F8423000232363226802F171
S31508005F080C0353E8003F23F010030C3242E8003034
S31508005F180028F3D1022363632046FFF755FEF2E60D
S31508005F282046FFF737FDEEE62046FFF737FEEAE696
S31508005F38C15B0008406C704781628285C285002370
S31508005F484364222380F84230036923B10268D36880
S31508005F5843F48073D3600268536943F001035361BD
S31508005F680268D36843F02003D3600020704708B559
S31508005F7890F84230DBB2202B08D149B10AB9012082
S31508005F8808BD00230363FFF7D7FFF9E70220F7E701
S31508005F980120F5E708B5034B1B680BB1984708BD00
S31508005FA8FEE700BF2C01002008B5FEF729F9054BC6
S31508005FB81B680BB9044B1860024A1368013313604F
S31508005FC808BD00BF340100203001002008B50B4B7E
S31508005FD81B684BB1094B1B682BB1084B1A68013A69
S31508005FE81A601B682BB108BD70210548FFF7D2FF58
S31508005FF8F0E7044B1868FEF707F9F4E734010020C0
S31508006008CC7E00083001002038B580B10446033438
S3150800601824F00304FFF7C8FF0B4B1B68C3F500629F
S3150800602894420AD90025FFF7D1FF284638BD5121E1
S315080060380648FFF7AFFF0025F7E7054D1D4423443B
S31508006048014A1360EFE700BF38090020F87E000808
S315080060583801002038B50D46044630B15DB1BCB1EB
S31508006068C5B1FFF7A1FF64680CE040F2B3310A48EE
S31508006078FFF790FFF2E74FF46D710748FFF78AFFBD
S31508006088EDE7A46814B12368AB42FAD1FFF79EFF7F
S31508006098204638BD2C46FBE7207F000810B5164B6E
S315080060A81C7864B9012018700C2100F079FA00B937
S315080060B801240C21012000F073FAC8B1D4B90C20C8
S315080060C800F0E2FA044628B100236360A36023605F
S315080060D8204610BD0C21012000F062FA012802D0E2
S315080060E8002CF1D1F4E70C2000F0CEFA0446F7E7C5
S315080060F80024EDE70024EBE73C09002010B538B189
S315080061080446FFF751FF2468FFF760FF204610BDD5
S31508006118D2210248FFF73EFF0024F7E7207F000850
S3150800612870B50C460546F0B11CB3002D3ED0002CC0
S315080061383ED00C2000F0A8FA064600B334600023C7
S315080061487360B360FFF730FF6B686BB32B682BB3CC
S31508006158AB6873609E60AE602B6801332B60FFF7EF
S3150800616835FF012070BD40F243111248FFF712FFB0
S31508006178DAE74FF4A2710F48FFF70CFFD5E70C21B1
S31508006188012000F00DFA012803D0002ED6D10020F0
S31508006198E8E70C2000F078FA0646F6E740F26511BB
S315080061A80448FFF7F7FED3E76E60D4E70020D9E77F
S315080061B80020D7E7207F000838B50C46054610B3F7
S315080061C83CB3FDB1F4B121462846FFF743FF044620
S315080061D8C0B1FFF7E9FE63680BB3002B3FD0A3688D
S315080061E8002B5AD02B68022B75D96268A36893606E
S315080061F862685A602B68013B2B60FFF7E7FE20466A
S3150800620800F078FA38BD40F24A213648FFF7C2FE50
S31508006218D6E740F24B213348FFF7BCFED1E7A26820
S31508006228002ADAD16B68A34204D040F25D212D48D2
S31508006238FFF7B0FEAB68A34204D040F25F212948B5
S31508006248FFF7A8FE2B68012B03D100236B60AB6010
S31508006258D0E740F261212348FFF79CFEF5E76B6813
S31508006268A34204D040F26A211E48FFF793FEA368AA
S315080062783BB12B68012B0AD9A3686B6000225A60C8
S31508006288B8E74FF41B711748FFF784FEF1E740F2A9
S315080062986E211448FFF77EFEEEE7AB68A34204D0EA
S315080062A840F277210F48FFF775FE63683BB12B6804
S315080062B8012B0AD96368AB6000229A609AE740F214
S315080062C879210848FFF766FEF1E740F27B21054881
S315080062D8FFF760FEEEE740F28B210248FFF75AFE09
S315080062E883E700BF207F000810B5044640B1FFF7D2
S315080062F85BFE646804B12468FFF768FE204610BD93
S3150800630840F2A7210148FFF745FEF7E7207F000876
S3150800631838B50C46054688B1B4B1DDB164B1FFF7A6
S3150800632843FE21462846FFF795FE044610B18468C1
S3150800633804B12468FFF74AFE204638BD4FF4487171
S315080063480548FFF727FEE7E740F221310248FFF73D
S3150800635821FEE2E72C46EFE7207F000808B548B19A
S315080063680246084B186858B103681B68934207D059
S315080063784068F8E74FF4E2710348FFF70BFE002080
S3150800638808BD00BF40090020487F0008F8B540B19D
S31508006398054603685BB12D4B1C6874B10026374661
S315080063A82CE04FF40B712A48FFF7F4FD09E040F298
S315080063B832212748FFF7EEFDEDE700236B60234BF4
S315080063C81D60F8BD40F245212148FFF7E3FD1AE0B4
S315080063D84FF413711E48FFF7DDFD1CE027B140F2A4
S315080063E856211B48FFF7D6FD6C60184B1D60012621
S315080063F8636833B32746002EE3D11C46002CE0D049
S315080064082368002BDED02368002BF1D01A682B6886
S315080064181B689A42DCD023681A682B681B689A425C
S31508006428E6D90A4B1B68A342D8D01FB16C607D60B9
S315080064380126DDE740F261210548FFF7ABFD012695
S31508006448D6E7002ED6D16B606560BAE7400900200A
S31508006458487F000838B50C46054638B164B125B1F9
S315080064681CB12B6873B163602C6038BD40F24331A8
S315080064780548FFF78FFDF1E74FF451710248FFF71A
S3150800648889FDECE76360EFE7487F000808B518B1AF
S31508006498036843B1002008BD40F291310348FFF76D
S315080064A879FD0020F7E70120F5E700BF487F0008D7
S315080064B810B548B101460C4B1C6884B123681A68A4
S315080064C88A4208D26468F8E740F2F9110748FFF7E4
S315080064D861FD002403E05868FFF7D8FF08B920468D
S315080064E810BD0024FBE700BF40090020487F0008CC
S315080064F810B5044628B1006810B1436843B1236053
S3150800650810BD40F267310348FFF744FD2046F7E718
S315080065182360F5E7487F000810B5044608B104303B
S3150800652810BD40F2C7210248FFF734FD2046F7E7B9
S31508006538487F000810B5044608B1043810BD40F273
S3150800654806310248FFF726FD2046F7E7487F000888
S3150800655808B508B1006808BD40F2E6210248FFF709
S3150800656819FD0020F7E700BF487F000808B5042092
S31508006578FFF74AFD08B10023036008BD10B530B11E
S3150800658804460430FFF740FD00B1046010BD40F230
S31508006598A1210248FFF7FEFC0020F7E7487F00081C
S315080065A82DE9F8430C46064628B14CB1002E65D0AD
S315080065B85CB9002763E09B213248FFF7EBFCF4E758
S315080065C89C213048FFF7E6FCF0E7FFF7EDFC20468C
S315080065D8FFF7C4FE814610B10025012727E00820E9
S315080065E8FFF712FD814600283ED00C20FFF70CFD68
S315080065F8054600283CD00023C9F80430C9F800002D
S315080066080460FFF7B3FF6860FFF7B0FFA8606B6820
S3150800661883B388B34846FFF7B9FEDDE74FF48171BF
S315080066281848FFF7B7FC002700E000270135B542F0
S315080066381BD20820FFF7E8FC80460028F5D020463C
S31508006648FFF79CFF70B1C8F800000023C8F80430AB
S31508006658B9F1000FE2D0D9F8003041465868FFF77B
S31508006668F9FEE3E70027E1E70027FFF7AFFC06E0B6
S315080066780027FAE70027F8E70027F6E7002738464D
S31508006688BDE8F883487F000870B5E8B10446FFF707
S315080066988BFC2046FFF70CFF0446E8B10568FDB1F8
S315080066A86868FFF725FF0646A8B10068FFF734FFB4
S315080066B804463146A868FFF7CDFE6CB94FF4AC71AD
S315080066C80B48FFF767FC07E04FF49C710848FFF78B
S315080066D861FC002402E00446FFF778FC204670BDFA
S315080066E840F247110248FFF755FC2C46F4E700BF6D
S315080066F8487F000838B5D0B10446FFF755FC204650
S31508006708FFF718FF044678B1FFF722FFFFF726FEC2
S3150800671898B10568BDB1A868FFF7EAFE0146C0B199
S3150800672804606868FFF796FEFFF750FC38BD40F22C
S3150800673877110B48FFF72EFCF8E74FF4C67108489F
S31508006748FFF728FCF0E740F293110548FFF722FC0B
S31508006758EAE74FF4CF710248FFF71CFCE4E700BFED
S31508006768487F0008074B1B7853B9064B01221A7055
S31508006778054B0022A3F80021A3F80221A3F8042157
S31508006788704700BF440900204809002038B508B3F7
S315080067980546FFF709FC164BB3F800311F2B1ED820
S315080067A8134BB3F800211F2A11D81C46B3F8043135
S315080067B804EBC30C95E803008CE803000132A4F83F
S315080067C8002101339BB2A4F80431202B0CD0FFF723
S315080067D8FDFB38BD6B210748FFF7DCFBF9E7752198
S315080067E80448FFF7D7FBDBE70022A4F80421EEE705
S315080067F848090020747F000810B558B10446FFF709
S31508006808D3FB154BB3F8003153B90024FFF7DEFB69
S31508006818204610BD9B211148FFF7BCFB0024F7E76B
S315080068280D4AB2F8023102EBC30103C984E8030032
S31508006838B2F800110139A2F8001101339BB2A2F887
S315080068480231202B01D00124E0E713460022A3F8E1
S3150800685802210124DAE700BF48090020747F0008EE
S3150800686810B50220FFF710FF044630B11CB14C23BF
S31508006878237000236370204610BD02210120FFF70C
S315080068888FFE0220FFF700FF04460028EFD1D0212B
S315080068980148FFF77FFBE9E7747F000810B550B198
S315080068A8044603784C2B0CD1FFF77EFB0123637053
S315080068B8FFF78CFB10BD4FF482710548FFF76AFB9A
S315080068C8F8E74FF486710248FFF764FBECE700BF68
S315080068D8747F000870B582B080B10E460446037806
S315080068E84C2B12D1FFF760FB6578A5B100236370BE
S315080068F80125FFF76BFB284602B070BD40F225114B
S315080069082548FFF747FB0025F5E740F22D112248F1
S31508006918FFF740FBE6E7FDF735FFADF80400ADF8ED
S31508006928066006E00023ADF80630FFF73DFB6378FE
S315080069386BBBBDF806309BB2002BDAD0FFF746FBD7
S3150800694800F02EF8FDF71EFFBDF804309BB2C01AFA
S3150800695880B2124BA3FB00231B091328E5D903EBC6
S315080069688301890089B2BDF8042011FA82F292B22D
S31508006978ADF80420BDF8062092B29A42D2D3BDF8E3
S31508006988062092B2D31A9BB2ADF80630CDE700239B
S3150800699863700125ADE700BF747F0008CDCCCCCC69
S315080069A810B582B0002300930193374B1B7863B167
S315080069B8364B19886846FFF71FFF012813D0344B52
S315080069C81868FFF791FC04464AE02F4B01221A7013
S315080069D8FFF764FB2E4B18600028E9D168212D487B
S315080069E8FFF7D8FAE4E7019B6BB101990029E6D0CD
S315080069F89DF8003063B1012B27D08B68002BDED0B9
S31508006A0868469847DBE772212248FFF7C3FAECE79E
S31508006A181F4B1868FFF772FB202811D81C4B1868FB
S31508006A28FFF76CFB2028CAD80199194B1868FFF795
S31508006A3877FB0128C3D089211648FFF7ABFABEE7CA
S31508006A487F211448FFF7A6FAE8E7114B1868FFF7FD
S31508006A58B3FBB4E721460E4B1868FFF759FC044602
S31508006A682CB16368002BF5D020469847F2E7084B07
S31508006A781868FFF743FB20B10122044B1A8002B0BD
S31508006A8810BD41F28832F8E7540A0020AC0000200D
S31508006A98500A0020AC7F0008844600234FF6FF7092
S31508006AA88B4210D210B41CF80320C4B26240064CBC
S31508006AB834F8122082EA102001339BB28B42F2D3B3
S31508006AC85DF8044B704770470C8000082DE9F041C3
S31508006AD882B004460D461646072801D801B122B9E0
S31508006AE840F29D313648FFF755FA072C17D8B5B145
S31508006AF8AEB1344B53F82440A4B1FDF743FE07461C
S31508006B08FFF752FAA4F8227204F5907894F82C72D2
S31508006B18FFB2FFF75BFA032F0AD0012F31D002B074
S31508006B28BDE8F08140F2A9312548FFF733FAF6E7C0
S31508006B38FFF73AFAB4F8243216FA83F3B3F5807FE6
S31508006B4802D9002384F8263294F82632DBB2012BC0
S31508006B5815D0FFF73BFAE2E7B4F8242213FA82F2D3
S31508006B68E95C08F802100133DBB2B342F4D3B4F88F
S31508006B78243216FA83F39BB2A4F82432E9E70023F1
S31508006B88F3E7FFF711FA032384F82C32002304E00D
S31508006B98EA5C08F803200133DBB2B342F8D3A4F859
S31508006BA82462012584F82652FFF710FA0194002377
S31508006BB88DF8003029466846FFF7E8FDAFE700BFBD
S31508006BC8DC7F0008580A002030B583B0072812D899
S31508006BD8184B53F82040ACB1FFF7E6F994F82C5255
S31508006BE8EDB2FFF7F3F9022D12D040F273311248CD
S31508006BF8FFF7D0F904E040F25E310F48FFF7CAF90B
S31508006C0803B030BD40F266310B48FFF7C3F9F7E722
S31508006C18FFF7CAF9FDF7B6FDA4F81801FFF7D6F984
S31508006C28019400238DF8003001216846FFF7AEFD70
S31508006C38E6E700BF580A0020DC7F000838B5044696
S31508006C4868B1037B542B11D1FFF7AEF994F82C528F
S31508006C58FFF7BCF9022D0FD004F10F0038BD4FF429
S31508006C6832710648FFF796F92046F7E74FF434716C
S31508006C780248FFF78FF9E7E70020EFE7DC7F00080F
S31508006C8838B5044668B1037B542B11D1FFF78CF944
S31508006C9894F82C52FFF79AF9042D0FD104F58D7044
S31508006CA838BD40F29F210648FFF774F92046F7E7F2
S31508006CB840F2A7210248FFF76DF9E7E70020EFE75A
S31508006CC8DC7F000838B588B10446037B542B13D1FA
S31508006CD8FFF76AF994F82C52FFF778F9042D11D0C2
S31508006CE84FF420710B48FFF755F938BD40F2732168
S31508006CF80848FFF74FF9F8E740F27B210548FFF700
S31508006D0849F9E5E7FFF750F9012384F82C32FFF72C
S31508006D185DF9EAE7DC7F000838B528B30446037B43
S31508006D28542B28D1FFF740F994F82C52FFF74EF95F
S31508006D38042D26D1B4F838320133A4F8383204F5CC
S31508006D48907094F8201202314318455C5B7845EA3E
S31508006D580325FFF7A1FE85421AD0B4F83A32013363
S31508006D68A4F83A32002012E04FF43C711348FFF7B2
S31508006D7811F900200BE04FF43E711048FFF70AF9A5
S31508006D88D0E740F2FD210D48FFF704F9002038BD89
S31508006D9894F82D0278B994F82132627B934201D08F
S31508006DA8002BF4D1B4F83E220132A4F83E2284F826
S31508006DB816310120EBE70120E9E700BFDC7F000870
S31508006DC870B520B30446037B542B27D1FFF7ECF89C
S31508006DD8A57DFFF7FBF815F0800F25D1FFF7E4F836
S31508006DE8B4F82C32B3F5807F24D094F82C62012E9F
S31508006DF836D000263546FFF7E9F8012E3ED025B9E4
S31508006E08B4F840320133A4F84032284670BD40F23F
S31508006E18E5112E48FFF7BEF80025F6E740F2ED1112
S31508006E282A48FFF7B7F8D1E7B4F83C320133A4F893
S31508006E383C32D3E7B4F82A3203EB8303C3EB0315D2
S31508006E48ADB21335224BA3FB05352D09FFF7BEF85E
S31508006E582946D4F83002FFF73DFDFFF7A5F8C4E741
S31508006E6894F82D3213B994F8163123B1022384F80D
S31508006E782C320025BFE735461E46BCE704F1150542
S31508006E8894F815110E1D94F82D32012B1BD0637B2F
S31508006E98637502312846FFF7FFFDB31EE854731ED3
S31508006EA8C0F30720E85432462946A07B00F04AFF7B
S31508006EB805460128A9D0FFF777F8012384F82C326C
S31508006EC8FFF784F89BE794F81631E1E7DC7F0008BA
S31508006ED8CDCCCCCC30B585B090B10446037B542BC9
S31508006EE814D1FFF761F894F82C52FFF76FF8022DC2
S31508006EF860D0032D10D0002D00F0838005B030BD7A
S31508006F0840F231115048FFF745F8F7E740F23911D2
S31508006F184D48FFF73FF8E4E7FFF746F8B4F822527A
S31508006F28FFF754F8FDF72EFC401B80B2B4F82A3256
S31508006F388342E3D8019401238DF80030002168467E
S31508006F48FFF724FCFFF730F894F82652FFF73EF8C7
S31508006F58012D07D0FFF728F8012384F82C32FFF70C
S31508006F6835F8CBE7FFF720F8042384F82C32FFF727
S31508006F782DF8B4F82432043B84F8203294F82031EA
S31508006F8884F821322046FFF7C7FE012807D0FFF705
S31508006F980BF8012384F82C32FFF718F8AEE7D4F873
S31508006FA83432039302238DF80830002102A8FFF72C
S31508006FB8EDFBA3E7FEF7F8FFB4F81851FFF706F854
S31508006FC8FDF7E0FB401B80B2B4F82A32834295D815
S31508006FD8FEF7EAFF012584F82C52FEF7F7FF03941B
S31508006FE88DF80850002102A8FFF7D0FBD4F83432F0
S31508006FF8039303238DF80830002102A8FFF7C6FB80
S315080070087CE7FEF7D1FFB4F82252FEF7DFFFFDF75B
S31508007018B9FB401B80B2B4F82A3283423FF66EAFFA
S31508007028FEF7C2FF012584F82C52FEF7CFFF03941A
S315080070388DF80850002102A8FFF7A8FB0021D4F80C
S315080070483002FFF72BFC59E7DC7F00082DE9F047EB
S3150800705888B004460D46174698469DF84090FFF7AF
S3150800706881FBF72C06D8072D04D8072F02D8B8F1C4
S31508007078010F68D993215348FEF78CFFF72C00F2C5
S315080070889480072D00F29680072F00F29580B8F1B4
S31508007098010F00F29380B9F1020F00F291804FF4C4
S315080070A81570FFF7F1FA0646002850D0002E7DD055
S315080070B8542333734FF0000AC6F800A0424B736096
S315080070C8C6F808A0414BC6F84432414BC6F84832C0
S315080070D8404BC6F84C32404BC6F850327473B573F9
S315080070E886F82CA2FDF74EFBA6F82202FFF7B8FB96
S315080070F8C6F83002A6F838A2A6F83AA2A6F83CA21C
S31508007108A6F83EA2A6F840A2344B43F82560344BAD
S315080071180293344B0193CDF8009043460122394631
S31508007128284600F0D3FD042F22D91023A6F82832C2
S315080071382423A6F82A3200218DF81410069605A8E5
S31508007148FFF724FB32E0B9F1020F97D992E74FF41B
S3150800715815710120FFF724FA4FF41570FFF794FA12
S3150800716806460028A4D1AC211648FEF713FF9DE76A
S315080071781D4A05AB07CA03C31A8008AB03EB4707C2
S3150800718837F80C2C02F5A12303F20F13B3FBF2F31D
S315080071980133A6F8283202F53B2303F6CF73B3FB6F
S315080071A8F2F30133A6F82A32C5E70026304608B0B6
S315080071B8BDE8F0870026F9E70026F7E70026F5E791
S315080071C80026F3E7DC7F0008DD6E0008C96D0008B5
S315080071D8CD6C0008896C0008456C0008580A002020
S315080071E8D56A0008D16B0008947E00082DE9F04F8F
S315080071F883B00C461646074608B101B122B94FF4C2
S3150800720813713D48FEF7C6FEF7B1ECB1E6B1237A2D
S3150800721894F809A04AEA032AA37A94F80B8048EA5C
S3150800722803280FFA88F2BB698BB108F1FF339BB2C2
S31508007238B3F5FA6F14D3F37963F07F03F371032375
S315080072483372012386F8063103B0BDE8F08FF37967
S3150800725863F07F03F3710123337286F80631F3E787
S31508007268C8F3C70312F0070F01D00133DBB2337234
S31508007278013386F8063106F1090B0024747225468F
S31508007288A14605E00134E4B2082C1CD00135ADB29C
S315080072984545D9D200238DF80730BB6905EB0A01A5
S315080072A80DF1070289B2384698470246A0B99DF8F3
S315080072B80730002BE6D01BF809300121A1400B4303
S315080072C80BF80930DEE709F101095FFA89F90023A5
S315080072D80BF809301446D9E7F37963F07F03F3719D
S315080072E8012805D004233372012386F80631ABE753
S315080072F802233372F8E700BF0C8200082DE9F04F25
S3150800730883B00C461646074608B101B122B940F2C1
S31508007318BE213D48FEF73EFEF7B1ECB1E6B1237A49
S3150800732894F809A04AEA032AA37A94F80B8048EA4B
S3150800733803280FFA88F27B698BB108F1FF339BB2F1
S31508007348B3F5FA6F14D3F37963F07F03F371032364
S315080073583372012386F8063103B0BDE8F08FF37956
S3150800736863F07F03F3710123337286F80631F3E776
S31508007378C8F3C70312F0070F01D00133DBB2337223
S31508007388013386F8063106F1090B0024747225467E
S31508007398A14605E00134E4B2082C1CD00135ADB28B
S315080073A84545D9D200238DF807307B6905EB0A01D4
S315080073B80DF1070289B2384698470246A0B99DF8E2
S315080073C80730002BE6D01BF809300121A1400B43F2
S315080073D80BF80930DEE709F101095FFA89F9002394
S315080073E80BF809301446D9E7F37963F07F03F3718C
S315080073F8012805D004233372012386F80631ABE742
S3150800740802233372F8E700BF0C8200082DE9F04121
S3150800741882B00C461546064608B101B122B940F2B3
S3150800742831312D48FEF7B6FDE6B1DCB1D5B1237A80
S31508007438677A47EA0327A37A94F80B8048EA032869
S315080074480FFA88F3726A82B108F1FF3292B27C2A7F
S3150800745814D9EB7963F07F03EB7103232B720123AD
S3150800746885F8063102B0BDE8F081EB7963F07F0351
S31508007478EB7101232B7285F80631F3E75B00DBB263
S315080074882B72013385F8063100244445EAD20023D5
S31508007498ADF80630736AE1190DF1060289B230466D
S315080074A8984750B9BDF80620630001332B44110AE2
S315080074B819725A720134E4B2E7E7EA7962F07F0290
S315080074C8EA71012805D004232B72012385F80631B1
S315080074D8C8E702232B72F8E70C8200082DE9F04169
S315080074E882B00C461546064608B101B122B940F2E3
S315080074F882312D48FEF74EFDE6B1DCB1D5B1237AC7
S31508007508677A47EA0327A37A94F80B8048EA032898
S315080075180FFA88F3326A82B108F1FF3292B27C2AEE
S3150800752814D9EB7963F07F03EB7103232B720123DC
S3150800753885F8063102B0BDE8F081EB7963F07F0380
S31508007548EB7101232B7285F80631F3E75B00DBB292
S315080075582B72013385F8063100244445EAD2002304
S31508007568ADF80630336AE1190DF1060289B23046DC
S31508007578984750B9BDF80620630001332B44110A11
S3150800758819725A720134E4B2E7E7EA7962F07F02BF
S31508007598EA71012805D004232B72012385F80631E0
S315080075A8C8E702232B72F8E70C82000870B50C4668
S315080075B81546064608B101B122B940F2D331244826
S315080075C8FEF7E8FC0EB304B3FDB1237A617A41EA03
S315080075D80321A07AE27A42EA0022F06968B1AAB1E0
S315080075E8B2F57F4F12D0EB7963F07F03EB71032373
S315080075F82B72012385F8063107E0EB7963F07F03E0
S31508007608EB7101232B7285F8063170BD2B72637AEC
S315080076186B72A37AAB72E37AEB72042385F80631A8
S31508007628F369003A18BF0122304698470028ECD07B
S31508007638EB7963F07F03EB71012805D004232B72DD
S31508007648012385F80631E0E702232B72F8E700BF25
S315080076580C82000870B50C461546064608B101B1F5
S3150800766822B940F21B411B48FEF794FC26B31CB30B
S3150800767815B3237A617A41EA0321A07AE27A42EAC3
S315080076880022B06AC8B12B72637A6B72A37AAB729E
S31508007698E37AEB72042385F80631B36A30469847CD
S315080076A850B1EB7963F07F03EB7101280ED0042300
S315080076B82B72012385F8063170BDEB7963F07F03D9
S315080076C8EB7101232B7285F80631F5E702232B7235
S315080076D8EFE700BF0C82000870B50C46154606464B
S315080076E808B101B122B940F25A415A48FEF752FC8C
S315080076F856B34CB345B3217A637A43EA01231BB2DE
S31508007708A07AE27A42EA002210B22972617A69728C
S31508007718042185F806110F2B00F29280DFE803F0A2
S31508007728159090909090909090901736485A6C7E45
S31508007738E218117AEA1811720133DBB294F80621B5
S315080077489A42F5D885F8062170BD0023F6E74AB1AE
S31508007758EB7963F07F03EB7103232B72012385F81A
S315080077680631F1E731690023A1F838323169A1F801
S315080077783A323169A1F83C323169A1F83E323169A9
S31508007788A1F84032120AAA72E872DDE74AB1EB7923
S3150800779863F07F03EB7103232B72012385F8063107
S315080077A8D2E73369B3F838321A0AAA72EB72CBE70A
S315080077B84AB1EB7963F07F03EB7103232B7201233C
S315080077C885F80631C0E73369B3F83A321A0AAA7255
S315080077D8EB72B9E74AB1EB7963F07F03EB710323E0
S315080077E82B72012385F80631AEE73369B3F83C32C4
S315080077F81A0AAA72EB72A7E74AB1EB7963F07F0314
S31508007808EB7103232B72012385F806319CE733694C
S31508007818B3F83E321A0AAA72EB7295E74AB1EB79BF
S3150800782863F07F03EB7103232B72012385F8063176
S315080078388AE73369B3F840321A0AAA72EB7283E701
S31508007848EB7963F07F03EB7101232B7285F8063118
S315080078587AE700BF0C8200082DE9F84F0C46164651
S31508007868074608B101B122B940F20F513D48FEF763
S3150800787891FB1FB314B30EB3217A94F8098048EA2A
S315080078880128A27AE37A43EA02239946207BDA0892
S3150800789813F0070F01D0013292B2FB6983B109F1DF
S315080078A8FF339BB2B3F5F66F13D3F37963F07F030F
S315080078B8F37103233372012386F80631BDE8F88F7E
S315080078C8F37963F07F03F3710123337286F806317F
S315080078D8F4E7904209D0F37963F07F03F371032341
S315080078E83372012386F80631E8E73172637A7372D0
S315080078F8A37AB372E37AF372042386F8063104F19D
S315080079080D0B0024A24625460DE00122FB6904EB6F
S31508007918080189B23846984778B90135EDB2082D75
S315080079281AD00134A4B24C45C8D21BF80A30EB4029
S3150800793813F0010FE9D10022E8E7F27962F07F0235
S31508007948F271012805D004233372012386F806311B
S31508007958B4E702233372F8E70AF1010A5FFA8AFAEA
S315080079680546DEE70C8200082DE9F8430C4615465D
S31508007978064608B101B122B940F281512D48FEF7F1
S3150800798809FBFEB1F4B1EDB1227A94F8099049EAF7
S315080079980229A37A94F80B8048EA0328217BB36A5C
S315080079A893B108F1FF339BB27A2B02D8B1EB480F93
S315080079B813D0EB7963F07F03EB7103232B72012352
S315080079C885F80631BDE8F883EB7963F07F03EB7138
S315080079D801232B7285F80631F4E72A72637A6B72EB
S315080079E8A37AAB72E37AEB72042385F8063100278B
S315080079F84745E7D27B0005332344187A5A7AB36A8F
S31508007A0807EB090142EA002289B23046984710B9BD
S31508007A180137FFB2ECE7EA7962F07F02EA710128DA
S31508007A2805D004232B72012385F80631CAE70223F9
S31508007A382B72F8E70C820008F0B583B098B10446B3
S31508007A484368B3B16568D5B12B7B252B1DD123783F
S31508007A58022B20D0032B04D040F235215748FEF7D5
S31508007A6899FA03B0F0BD4FF4C8715448FEF792FA74
S31508007A78F7E74FF4CB715148FEF78CFAE2E74FF473
S31508007A88CD714E48FEF786FAEBE740F29F114B4850
S31508007A98FEF780FADBE72869D0F84C32984704469F
S31508007AA82869D0F85032984706469CB190B1002C00
S31508007AB873D0002E7ED0E779F7717B1E0F2B4DD831
S31508007AC8DFE803F00E141B2229304C374C4C4C4C7B
S31508007AD84C4C3E454FF4D7713848FEF75BFAE6E753
S31508007AE8324621462846FFF781FB57E032462146AB
S31508007AF82846FFF703FC012750E032462146284668
S31508007B08FFF784FC012749E0324621462846FFF755
S31508007B18E5FC012742E0324621462846FFF746FD9E
S31508007B2801273BE0324621462846FFF793FD012701
S31508007B3834E0324621462846FFF7CEFD01272DE0D8
S31508007B48324621462846FFF787FE012726E03246B1
S31508007B5821462846FFF708FF01271FE0EF6A6FB19D
S31508007B6894F8063101338DF807300DF10703F21D35
S31508007B78E11D2846B847012809D0E8B9F37963F022
S31508007B887F03F3710127377286F8067106E09DF8B8
S31508007B980730013B86F80631EFE700272869D0F851
S31508007BA848329847012F7FF45CAF2869D0F84432E9
S31508007BB8984756E70027F1E70127EFE70C82000800
S31508007BC838B5054668B33020FEF75EFD044670B33F
S31508007BD8D5F844325BB1D5F8483243B1D5F84C32BA
S31508007BE82BB1D5F8503213B1D5F834321BB18421EC
S31508007BF81648FEF7CFF9252323730023236063600D
S31508007C08134AA2606361A361E36123626362A362A4
S31508007C18E3622561C5F83442226982F82D32204686
S31508007C2838BD69210948FEF7B5F92C46F7E730212A
S31508007C380120FEF7B5FC3020FEF726FD044600288D
S31508007C48C6D17A210148FEF7A5F9E8E70C820008AB
S31508007C58417A000838B50C46054658B151B145B1C0
S31508007C683CB12B7B252B0BD1FEF79EF92C62FEF730
S31508007C78ADF938BD40F21F110448FEF78BF9EEE757
S31508007C8840F227110148FEF785F9EDE70C8200084E
S31508007C9838B50C46054658B151B145B13CB12B7BB0
S31508007CA8252B0BD1FEF780F9EC62FEF78FF938BD64
S31508007CB840F275110448FEF76DF9EEE740F27D11BA
S31508007CC80148FEF767F9EDE70C8200082DE9F0414F
S31508007CD882B004460D4617461E469DF8208007289A
S31508007CE803D8072901D8012A0CD951211348FEF7C8
S31508007CF851F9072C03D8072D01D8012F08D902B046
S31508007D08BDE8F081012BF0D8B8F1020FF1D9ECE7FC
S31508007D18012EF4D8B8F1020FF1D8094B099A43F89D
S31508007D28342003EBC4030A9A5A60CDF80080334618
S31508007D383A4629462046FCF78FFCE0E73C820008CD
S31508007D48780A002070B504460D461646072801D855
S31508007D5801B11AB97B210948FEF71CF9072C09D87D
S31508007D6855B10EB9002006E0324629462046FCF7EA
S31508007D78F1FC00E0002070BD0020FCE73C8200080A
S31508007D8808B5072808D8074B53F830301BB1054BF8
S31508007D9853F83030984708BD97210348FEF7FAF894
S31508007DA8F9E700BF780A00203C82000870B5044647
S31508007DB80D461646072801D801B11AB9B3210A484B
S31508007DC8FEF7E8F8072C0ED86DB166B1074B03EB3A
S31508007DD8C4035B683BB1054B03EBC4035B683246D7
S31508007DE829462046984770BD3C820008780A002034
S31508007DF802440346934200D1704703F8011BF9E78A
S31508007E0870B50D4D0D4C641BA4100026A64209D169
S31508007E180B4D0C4C00F018F8641BA4100026A6425B
S31508007E2805D170BD55F8043B98470136EEE755F875
S31508007E38043B98470136F2E7748200087482000802
S31508007E487482000878820008F8B500BFF8BC08BC38
S31508007E589E467047F8B500BFF8BC08BC9E467047F2
S31508007E68B004000060090000C01200008025000068
S31508007E78004B00000096000000E1000000C2010067
S31508007E88000600000004000000000000B0046009B5
S31508007E98C0128025004B00002E2E2F4170702F74BB
S31508007EA862786D625F706F72742E6300000000005E
S31508007EB80102030400000000000000000102030498
S31508007EC8060708092E2E2F4C6962726172792F4DA2
S31508007ED86963726F5462782F736F757263652F744E
S31508007EE862785F63726974736563742E6300000051
S31508007EF82E2E2F4C6962726172792F4D6963726FE3
S31508007F085462782F736F757263652F7462785F6829
S31508007F186561702E630000002E2E2F4C696272610F
S31508007F2872792F4D6963726F5462782F736F757201
S31508007F3863652F7462785F6C6973742E630000003A
S31508007F482E2E2F4C6962726172792F4D6963726F92
S31508007F585462782F736F757263652F7462785F6DD4
S31508007F68656D706F6F6C2E63000000002E2E2F4C07
S31508007F786962726172792F4D6963726F5462784DBE
S31508007F886F646275732F736F757263652F6F73618C
S31508007F986C2F7462786D625F73757065726C6F6F3B
S31508007FA8702E63002E2E2F4C6962726172792F4DDE
S31508007FB86963726F5462784D6F646275732F736F55
S31508007FC8757263652F7462786D625F6576656E741F
S31508007FD82E6300002E2E2F4C6962726172792F4D1E
S31508007FE86963726F5462784D6F646275732F736F25
S31508007FF8757263652F7462786D625F7274752E6325
S31508008008000000000000C1C081C1400101C3C003CF
S31508008018800241C201C6C006800741C70005C1C51E
S3150800802881C4400401CCC00C800D41CD000FC1CFDE
S3150800803881CE400E000AC1CA81CB400B01C9C009CE
S31508008048800841C801D8C018801941D9001BC1DB6E
S3150800805881DA401A001EC1DE81DF401F01DDC01D1E
S31508008068801C41DC0014C1D481D5401501D7C0173E
S31508008078801641D601D2C012801341D30011C1D14E
S3150800808881D0401001F0C030803141F10033C1F38E
S3150800809881F240320036C1F681F7403701F5C0351E
S315080080A8803441F4003CC1FC81FD403D01FFC03FDE
S315080080B8803E41FE01FAC03A803B41FB0039C1F9CE
S315080080C881F840380028C1E881E9402901EBC02B2E
S315080080D8802A41EA01EEC02E802F41EF002DC1ED1E
S315080080E881EC402C01E4C024802541E50027C1E73E
S315080080F881E640260022C1E281E3402301E1C0214E
S31508008108802041E001A0C060806141A10063C1A34D
S3150800811881A240620066C1A681A7406701A5C0651D
S31508008128806441A4006CC1AC81AD406D01AFC06FDD
S31508008138806E41AE01AAC06A806B41AB0069C1A9CD
S3150800814881A840680078C1B881B9407901BBC07B6D
S31508008158807A41BA01BEC07E807F41BF007DC1BD1D
S3150800816881BC407C01B4C074807541B50077C1B73D
S3150800817881B640760072C1B281B3407301B1C0714D
S31508008188807041B00050C190819140510193C0530D
S31508008198805241920196C056805741970055C1951D
S315080081A881944054019CC05C805D419D005FC19FDD
S315080081B8819E405E005AC19A819B405B0199C059CD
S315080081C8805841980188C04880494189004BC18B2D
S315080081D8818A404A004EC18E818F404F018DC04D1D
S315080081E8804C418C0044C184818540450187C0473D
S315080081F8804641860182C042804341830041C1814D
S31508008208818040402E2E2F4C6962726172792F4DFB
S315080082186963726F5462784D6F646275732F736FF2
S31508008228757263652F7462786D625F7365727665B9
S31508008238722E63002E2E2F4C6962726172792F4D49
S315080082486963726F5462784D6F646275732F736FC2
S31508008258757263652F7462786D625F756172742EC4
S3090800826863000000A1
S30D0800826CDCBFFF7F01000000E2
S30908008274ED410008C2
S30908008278C9410008E2
S3150800827C00000000000000000000000000000000E4
S3150800828C00000000000000000000000000000000D4
S3150800829C00000000000000000000000000000000C4
S315080082AC00000000000000000000000000000000B4
S315080082BC0000000000000000001001400000000053
S315080082CC0000000000000000000000000000000094
S315080082DC0000000000000000000000000000000084
S315080082EC0000000000000000000000000000000074
S315080082FC0000000000000000000000000000000064
S3150800830C00000000000000000044004000000000CF
S3150800831C0024F4000100000010000000881300007F
S70508004B7D2A
